S34508002000a039002031210008f1190108e11f0108eb1f0108f51f0108ff1f010800000000000000000000000000000000b11a0108f319010800000000b11a0108e31901080a
S34508002040d9190108d9190108d9190108d9190108d9190108d9190108d9190108d9190108d9190108d9190108d9190108d9190108d9190108d9190108d9190108d9190108a2
S34508002080d9190108d9190108d919010853d30008dbd20008d9190108d9190108d9190108d9190108d9190108d9190108d9190108d9190108d9190108d9190108d919010875
S345080020c0d9190108d9190108d9190108d9190108d9190108d9190108d9190108d9190108d9190108d9190108d9190108d9190108d9190108d9190108d9190108d919010822
S34508002100d9190108d9190108d9190108d9190108d9190108d9190108d9190108d9190108d9190108d9190108d9190108d91901080249d1f800d010f031bd000000200008d3
S34508002140ffffffffffffffffffffffffffffffffcc325aa500200008ae2e01087feddd993030303030313939004465744374726c3200322e30312e30302e323430310000ba
S345080022000000c8420000c8420000c8420000c8420000c8420000c8420000c8420000c8420000c8420000c8420000c8420000c8420000c8420000c8420000c8420000c842f0
S345080022400000c8420000c8420000c8420000c8420000c8420000c8420000c8420000c8420000c8420000c8420000c8420000c8420000c8420000c8420000c8420000c842b0
S345080022800000c8420000c8420000c8420000c8420000c8420000c8420000c8420000c8420000c8420000c8420000c8420000c8420000c8420000c8420000c8420000c84270
S345080022c00000c8420000c8420000c8420000c8420000c8420000c8420000c8420000c8420000c8420000c8420000c8420000c8420000c8420000c8420000c8420000c84230
S345080037000000c8420000c8420000c8420000c8420000c8420000c8420000c8420000c8426afac742c1e8c7421ad7c74275c5c742d3b3c74234a2c7429790c742fd7ec742ad
S34508003740656dc742cf5bc7423c4ac742ac38c7421e27c7429315c7420a04c74283f2c642ffe0c6427dcfc642febdc64282acc642079bc6429089c6421a78c642a766c64270
S345080037803755c642c843c6425d32c642f320c6428d0fc64228fec542c6ecc54266dbc54209cac542aeb8c54255a7c542ff95c542ab84c5425a73c5420b62c542be50c54258
S345080037c0743fc5422c2ec542e61cc542a30bc54262fac44223e9c442e7d7c442adc6c44275b5c4423fa4c4420c93c442db81c442ad70c442815fc442574ec4422f3dc442eb
S345080038000a2cc442e71ac442c609c442a7f8c3428be7c34271d6c34259c5c34244b4c34230a3c3421f92c3421081c3420470c342f95ec342f14dc342eb3cc342e82bc3425b
S34508003840e61ac342e709c342eaf8c242efe7c242f6d6c24200c6c2420bb5c24219a4c2422993c2423c82c2425071c2426760c2427f4fc2429a3ec242b72dc242d61cc242c3
S34508003880f80bc2421bfbc14241eac14269d9c14292c8c142beb7c142eda6c1421d96c1424f85c1428474c142ba63c142f352c1422e42c1426a31c142a920c142ea0fc14233
S345080038c02effc04273eec042baddc04203cdc0424fbcc0429cabc042ec9ac0423d8ac0429179c042e768c0423e58c0429847c042f436c0425226c042b115c0421305c042b8
S3450800390077f4bf42dde3bf4245d3bf42afc2bf421bb2bf4289a1bf42f990bf426a80bf42de6fbf42545fbf42cc4ebf42463ebf42c22dbf423f1dbf42bf0cbf4241fcbe425b
S34508003940c5ebbe424adbbe42d2cabe425bbabe42e7a9be427499be420389be429578be422868be42bd57be425447be42ed36be428826be422516be42c305be4264f5bd4212
S3450800398006e5bd42abd4bd4251c4bd42f9b3bd42a3a3bd424f93bd42fd82bd42ad72bd425e62bd421252bd42c741bd427e31bd423721bd42f210bd42af00bd426df0bc42d8
S345080039c02ee0bc42f0cfbc42b4bfbc427aafbc42429fbc420b8fbc42d77ebc42a46ebc42735ebc42444ebc42163ebc42eb2dbc42c11dbc42990dbc4273fdbb424fedbb4291
S34508003a002cddbb420bcdbb42ecbcbb42cfacbb42b49cbb429a8cbb42827cbb426c6cbb42575cbb42454cbb42343cbb42252cbb42171cbb420c0cbb4202fcba42faebba4227
S34508003a40f3dbba42eecbba42ebbbba42eaabba42eb9bba42ed8bba42f17bba42f66bba42fe5bba42074cba42113cba421e2cba422c1cba423c0cba424dfcb94260ecb94285
S34508003a8075dcb9428cccb942a4bcb942beacb942da9cb942f78cb942167db942366db942585db9427c4db942a23db942c92db942f21db9421c0eb94248feb84276eeb84272
S34508003ac0a5deb842d6ceb84209bfb8423dafb842739fb842aa8fb842e37fb8421e70b8425a60b8429850b842d840b8421931b8425c21b842a011b842e601b8422df2b742cb
S34508003b0076e2b742c1d2b7420dc3b7425bb3b742aaa3b742fb93b7424d84b742a174b742f764b7424e55b742a745b7420136b7425d26b742ba16b7421907b74279f7b6425a
S34508003b40dbe7b6423ed8b642a3c8b6420ab9b64272a9b642db99b642468ab642b37ab642216bb642915bb642024cb642743cb642e82cb6425e1db642d50db6424efeb542f3
S34508003b80c8eeb54243dfb542c0cfb5423fc0b542bfb0b54240a1b542c391b5424782b542cd72b5425563b542dd53b5426744b542f334b5428025b5420f16b5429f06b5424c
S34508003bc030f7b442c3e7b44257d8b442edc8b44284b9b4421daab442b79ab442528bb442ef7bb4428e6cb4422d5db442ce4db442713eb442152fb442ba1fb4426110b4422a
S34508003c000901b442b2f1b3425de2b3420ad3b342b7c3b34266b4b34217a5b342c995b3427c86b3423077b342e667b3429d58b3425649b342103ab342cc2ab342881bb34241
S34508003c40460cb34206fdb242c7edb24289deb2424ccfb24211c0b242d7b0b2429ea1b2426792b2423183b242fd73b242ca64b2429855b2426746b2423837b2420a28b2424d
S34508003c80dd18b242b209b24288fab1425febb14238dcb14212cdb142edbdb142c9aeb142a79fb1428690b1426681b1424872b1422b63b1420f54b142f444b142db35b142fe
S34508003cc0c326b142ac17b1429708b14282f9b0426feab0425edbb0424dccb0423ebdb04230aeb042239fb0421890b0420d81b0420472b042fd62b042f653b042f144b042fe
S34508003d00ed35b042ea26b042e817b042e808b042e8f9af42eaeaaf42eedbaf42f2ccaf42f8bdaf42ffaeaf4207a0af421091af421a82af422673af423364af424155af42f8
S34508003d405046af426037af427228af428519af42990aaf42aefbae42c4ecae42dbddae42f4ceae420ec0ae4229b1ae4245a2ae426293ae428184ae42a075ae42c166ae4290
S34508003d80e357ae420649ae422a3aae424f2bae42761cae429d0dae42c6fead42f0efad421be1ad4247d2ad4274c3ad42a3b4ad42d2a5ad420397ad423488ad426779ad4269
S34508003dc09b6aad42d05bad42064dad423e3ead42762fad42af20ad42ea11ad422603ad4262f4ac42a0e5ac42dfd6ac421fc8ac4260b9ac42a2aaac42e59bac422a8dac4223
S34508003e006f7eac42b66fac42fd60ac424652ac428f43ac42da34ac422626ac427317ac42c108ac4210faab4260ebab42b1dcab4203ceab4256bfab42aab0ab42ffa1ab4253
S34508003e405593ab42ad84ab420576ab425e67ab42b958ab42144aab42713bab42ce2cab422c1eab428c0fab42ec00ab424ef2aa42b0e3aa4214d5aa4278c6aa42deb7aa429b
S34508003e8044a9aa42ac9aaa42158caa427e7daa42e96eaa425460aa42c151aa422e43aa429c34aa420c26aa427c17aa42ee08aa4260faa942d3eba94248dda942bdcea94288
S34508003ec033c0a942aab1a94222a3a9429c94a9421686a9429177a9420d69a9428a5aa942074ca942863da942062fa9428720a9420812a9428b03a9420ff5a84293e6a842ae
S34508003f0018d8a8429fc9a84226bba842aeaca842379ea842c18fa8424c81a842d872a8426564a842f255a8428147a8421039a842a12aa842321ca842c40da84257ffa742a4
S34508003f40ebf0a74280e2a74216d4a742adc5a74244b7a742dda8a742769aa742108ca742ab7da742476fa742e460a7428252a7422044a742c035a7426027a7420119a742ee
S34508003f80a30aa74246fca642eaeda6428fdfa64234d1a642dac2a64281b4a64229a6a642d297a6427c89a642277ba642d26ca6427e5ea6422b50a642d941a6428833a6421f
S34508003fc03825a642e816a6429908a6424bfaa542feeba542b2dda54266cfa5421cc1a542d2b2a54289a4a5424096a542f987a542b279a5426c6ba542275da542e34ea542b7
S34508004000a040a5425d32a5421b24a542da15a5429a07a5425bf9a4421ceba442dedca442a1cea44264c0a44229b2a442eea3a442b495a4427b87a4424279a4420b6ba4423f
S34508004040d45ca4429e4ea4426840a4423332a4420024a442cc15a4429a07a44268f9a34237eba34207dda342d8cea342a9c0a3427bb2a3424ea4a3422296a342f687a34242
S34508004080cb79a342a16ba342775da3424f4fa3422641a342ff32a342d924a342b316a3428d08a34269faa24245eca24222dea24200d0a242dec1a242bdb3a2429da5a2423f
S345080040c07e97a2425f89a242417ba242236da242075fa242eb50a242cf42a242b534a2429b26a2428218a242690aa24251fca1423aeea14223e0a1420ed2a142f8c3a142b2
S34508004100e4b5a142d0a7a142bd99a142aa8ba142997da142876fa1427761a1426753a1425845a1424937a1423b29a1422e1ba142210da14216ffa0420af1a04200e3a04220
S34508004140f6d4a042ecc6a042e3b8a042dbaaa042d49ca042cd8ea042c780a042c172a042bc64a042b856a042b448a042b13aa042af2ca042ad1ea042ac10a042ab02a0420c
S34508004180abf49f42ace69f42add89f42afca9f42b1bc9f42b4ae9f42b8a09f42bc929f42c1849f42c6769f42cc689f42d35a9f42da4c9f42e23e9f42ea309f42f3229f42e6
S345080041c0fc149f4207079f4211f99e421ceb9e4228dd9e4235cf9e4242c19e424fb39e425da59e426c979e427b899e428b7b9e429b6d9e42ac5f9e42be519e42d0439e422e
S34508004200e2359e42f5279e42091a9e421d0c9e4232fe9d4247f09d425de29d4274d49d428bc69d42a2b89d42baaa9d42d39c9d42ec8e9d4205819d421f739d423a659d4260
S3450800424055579d4271499d428d3b9d42aa2d9d42c71f9d42e5119d4203049d4222f69c4241e89c4261da9c4281cc9c42a2be9c42c3b09c42e5a29c4208959c422a879c42f0
S345080042804e799c42716b9c42965d9c42bb4f9c42e0419c4206349c422c269c4252189c427a0a9c42a1fc9b42c9ee9b42f2e09b421bd39b4245c59b426fb79b4299a99b4256
S345080042c0c49b9b42f08d9b421c809b4248729b4275649b42a2569b42d0489b42fe3a9b422c2d9b425c1f9b428b119b42bb039b42ebf59a421ce89a424eda9a427fcc9a420c
S34508004300b2be9a42e4b09a4217a39a424b959a427f879a42b3799a42e86b9a421d5e9a4252509a4288429a42bf349a42f6269a422d199a42650b9a429dfd9942d5ef994284
S345080043400ee2994248d4994281c69942bcb89942f6aa9942319d99426c8f9942a8819942e4739942216699425e5899429b4a9942d93c9942172f9942552199429413994235
S34508004380d405994213f8984253ea984293dc9842d4ce984215c1984257b3984299a59842db9798421e8a9842607c9842a46e9842e76098422c53984270459842b53798428f
S345080043c0fa2998423f1c9842850e9842cb00984212f3974259e59742a0d79742e7c997422fbc974277ae9742c0a0974209939742528597429b779742e56997422f5c974207
S345080044007a4e9742c5409742103397425b259742a7179742f309974240fc96428dee9642dae0964227d3964275c59642c3b7964211aa9642609c9642ae8e9642fe8096420e
S345080044404d7396429d659642ed5796423d4a96428e3c9642df2e96423021964282139642d405964226f8954278ea9542cbdc95421ecf954271c19542c4b3954218a6954217
S345080044806c989542c08a9542157d95426a6f9542bf619542145495426a469542c0389542162b95426c1d9542c30f95421a02954271f49442c8e6944220d9944278cb944292
S345080044c0d0bd944228b0944281a29442d9949442328794428c799442e56b94423f5e944299509442f34294424e359442a8279442031a94425e0c9442bafe934215f19342fb
S3450800450071e39342cdd5934229c8934286ba9342e2ac93423f9f93429c919342f983934257769342b4689342125b9342704d9342ce3f93422d3293428b249342ea169342b3
S3450800454049099342a8fb924208ee924267e09242c7d2924227c5924287b79242e7a99242479c9242a88e9242098192426a739242cb6592422c5892428d4a9242ef3c924231
S34508004580512f9242b32192421514924277069242d9f891423ceb91429edd914201d0914264c29142c7b491422ba791428e999142f18b9142557e9142b97091421d639142e9
S345080045c081559142e54791424a3a9142ae2c9142131f914277119142dc03914241f69042a6e890420bdb904271cd9042d6bf90423cb29042a1a49042079790426d89904248
S34508004600d37b9042396e90429f609042055390426c459042d2379042392a9042a01c9042060f90426d019042d4f38f423be68f42a2d88f4209cb8f4271bd8f42d8af8f42bf
S345080046403fa28f42a7948f420e878f4276798f42de6b8f42465e8f42ad508f4215438f427d358f42e5278f424e1a8f42b60c8f421eff8e4286f18e42efe38e4257d68e42c3
S34508004680bfc88e4228bb8e4290ad8e42f99f8e4262928e42ca848e4233778e429c698e42055c8e426d4e8e42d6408e423f338e42a8258e4211188e427a0a8e42e3fc8d42c0
S345080046c04cef8d42b5e18d421ed48d4287c68d42f0b88d4259ab8d42c29d8d422b908d4295828d42fe748d4267678d42d0598d42394c8d42a23e8d420c318d4275238d422c
S34508004700de158d4247088d42b0fa8c4219ed8c4282df8c42ebd18c4254c48c42bdb68c4227a98c42909b8c42f98d8c4261808c42ca728c4233658c429c578c42054a8c4277
S345080047406e3c8c42d72e8c423f218c42a8138c4211068c4279f88b42e2ea8b424bdd8b42b3cf8b421cc28b4284b48b42eca68b4255998b42bd8b8b42257e8b428d708b4210
S34508004780f5628b425d558b42c5478b422d3a8b42952c8b42fc1e8b4264118b42cc038b4233f68a429be88a4202db8a4269cd8a42d0bf8a4237b28a429ea48a4205978a4273
S345080047c06c898a42d37b8a423a6e8a42a0608a4207538a426d458a42d3378a42392a8a429f1c8a42050f8a426b018a42d1f3894237e689429cd8894202cb894267bd89420b
S34508004800ccaf894231a2894296948942fb8689425f798942c46b8942285e89428d508942f142894255358942b92789421c1a8942800c8942e4fe884247f18842aae3884254
S345080048400dd6884270c88842d3ba884235ad8842989f8842fa9188425c848842be76884220698842815b8842e34d884244408842a53288420625884267178842c8098842c0
S3450800488028fc874288ee8742e9e0874248d38742a8c5874208b8874267aa8742c69c8742258f874284818742e2738742416687429f588742fd4a87425b3d8742b82f8742ca
S345080048c01622874273148742d00687422df9864289eb8642e6dd864242d086429ec28642f9b4864255a78642b09986420b8c8642667e8642c07086421b63864275558642de
S34508004900ce478642283a8642812c8642db1e8642331186428c038642e5f585423de8854295da8542eccc854244bf85429bb18542f2a38542489685429f888542f57a854285
S345080049404b6d8542a05f8542f55185424a4485429f368542f4288542481b85429c0d8542f0ff844243f2844296e48442e9d684423bc984428ebb8442dfad844231a0844232
S3450800498082928442d48484422477844275698442c55b8442154e844264408442b432844202258442511784429f098442edfb83423bee834288e08342d5d2834222c583425e
S345080049c06eb78342baa98342069c8342528e83429d808342e7728342326583427c578342c54983420f3c8342582e8342a0208342e91283423105834278f78242c0e9824289
S34508004a0006dc82424dce824293c08242d9b282421ea5824264978242a8898242ed7b8242316e824274608242b7528242fa4482423d3782427f298242c01b8242020e824235
S34508004a404300824283f28142c3e4814203d7814242c9814281bb8142c0ad8142fe9f81423c92814279848142b6768142f36881422f5b81426a4d8142a63f8142e1318142e3
S34508004a801b248142551681428f088142c8fa804201ed804239df804271d18042a8c38042dfb5804216a880424c9a8042828c8042b77e8042ec70804220638042545580420c
S34508004ac087478042ba398042ed2b80421f1e8042501080428202804265e97f42c5cd7f4224b27f4283967f42e17a7f423d5f7f4299437f42f4277f424d0c7f42a6f07e42ed
S34508004b00fed47e4255b97e42ab9d7e4200827e4253667e42a64a7e42f82e7e4249137e4299f77d42e8db7d4236c07d4283a47d42ce887d42196d7d4263517d42ac357d42b9
S34508004b40f3197d423afe7c4280e27c42c4c67c4208ab7c424a8f7c428c737c42cc577c420b3c7c4249207c4286047c42c2e87b42fdcc7b4237b17b4270957b42a7797b42b3
S34508004b80de5d7b4213427b4247267b427a0a7b42acee7a42ddd27a420db77a423c9b7a42697f7a4295637a42c1477a42eb2b7a4213107a423bf4794262d8794287bc7942f4
S34508004bc0aba07942ce847942f0687942104d7942303179424e1579426bf9784287dd7842a1c17842bba57842d3897842ea6d7842ff51784214367842271a784239fe77429d
S34508004c004ae2774259c6774267aa7742748e7742807277428a567742933a77429b1e7742a2027742a7e67642abca7642adae7642af927642af767642ad5a7642ab3e7642d0
S34508004c40a7227642a20676429bea754293ce75428ab275427f967542737a7542665e75425742754247267542360a754223ee74420fd27442f9b57442e3997442ca7d7442b7
S34508004c80b161744295457442792974425b0d74423cf173421bd57342f9b87342d59c7342b08073428964734261487342382c73420d107342e1f37242b3d7724284bb72427c
S34508004cc0539f724221837242ed667242b84a7242812e72424912724210f67142d4d9714298bd71425aa171421a857142d9687142964c7142513071420c147142c4f770425b
S34508004d007bdb704231bf7042e5a2704297867042486a7042f74d7042a531704251157042fbf86f42a4dc6f424bc06f42f1a36f4295876f42376b6f42d84e6f4277326f4292
S34508004d4015166f42b1f96e424bdd6e42e4c06e427ba46e4210886e42a36b6e42354f6e42c6326e4254166e42e1f96d426ddd6d42f6c06d427ea46d4204886d42896b6d4262
S34508004d800b4f6d428c326d420c166d4289f96c4205dd6c427fc06c42f8a36c426e876c42e36a6c42564e6c42c7316c4237156c42a5f86b4211dc6b427bbf6b42e3a26b421b
S34508004dc04a866b42af696b42124d6b4273306b42d2136b4230f76a428cda6a42e5bd6a423da16a4294846a42e8676a423a4b6a428b2e6a42da116a4227f5694272d8694210
S34508004e00bbbb6942029f6942478269428b656942cc4869420c2c69424a0f694286f26842bfd56842f7b868422d9c6842617f684293626842c4456842f22868421e0c6842a2
S34508004e4048ef674270d2674297b56742bb986742dd7b6742fe5e67421c42674238256742520867426beb664281ce664295b16642a7946642b7776642c55a6642d13d664239
S34508004e80db206642e3036642e9e66542ecc96542eeac6542ed8f6542eb726542e6556542df386542d61b6542cbfe6442bee16442afc464429da764428a8a6442746d644249
S34508004ec05c506442423364422616644207f96342e7db6342c4be63429fa16342788463424e676342234a6342f52c6342c50f634293f262425ed5624227b86242ee9a624242
S34508004f00b37d62427660624236436242f4256242af08624269eb614220ce6142d5b061428793614237766142e5586142913b61423a1e6142e100614286e3604228c66042ba
S34508004f40c8a86042658b6042006e6042995060422f336042c315604255f85f42e4da5f4271bd5f42fb9f5f4283825f4209655f428c475f420c2a5f428b0c5f4206ef5e4242
S34508004f8080d15e42f7b35e426b965e42dd785e424c5b5e42b93d5e4224205e428c025e42f1e45d4254c75d42b4a95d42128c5d426e6e5d42c6505d421d335d4270155d4279
S34508004fc0c1f75c4210da5c425cbc5c42a59e5c42ec805c4230635c4272455c42b1275c42ed095c4227ec5b425ece5b4293b05b42c4925b42f4745b4220575b424a395b420f
S34508005000711b5b4296fd5a42b7df5a42d7c15a42f3a35a420d865a4224685a42384a5a424a2c5a42580e5a4264f059426ed2594274b459427896594279785942775a5942bb
S34508005040733c59426c1e59426200594255e2584245c4584232a658421d885842056a5842ea4b5842cc2d5842ab0f584287f1574261d3574237b557420b975742dc78574247
S34508005080aa5a5742753c57423d1e574202005742c4e1564283c3564240a55642f9865642b0685642634a5642132c5642c10d56426bef554213d15542b7b25542599455429b
S345080050c0f7755542935755422b395542c01a554253fc5442e2dd54426ebf5442f7a054427d8254420064544280455442fc26544276085442ece953425fcb5342d0ac534298
S345080051003d8e5342a66f53420d51534270325342d11353422ef5524288d65242deb7524232995242827a5242cf5b5242193d5242601e5242a3ff5142e3e0514220c2514239
S3450800514059a351428f845142c2655142f24651421e285142470951426cea50428fcb5042aeac5042c98d5042e16e5042f64f5042083150421612504220f34f4227d44f4296
S345080051802bb54f422c964f4229774f4222584f4218394f420b1a4f42fafa4e42e5db4e42cebc4e42b29d4e42937e4e42715f4e424b404e4222214e42f5014e42c4e24d42d2
S345080051c090c34d4259a44d421d854d42df654d429c464d4256274d420d084d42bfe84c426fc94c421aaa4c42c28a4c42666b4c42074c4c42a32c4c423d0d4c42d2ed4b4226
S3450800520064ce4b42f2ae4b427c8f4b4203704b4286504b4205314b4280114b42f8f14a426bd24a42dbb24a4248934a42b0734a4214544a4275344a42d2144a422bf54942e5
S3450800524080d54942d2b549421f96494269764942ae564942f03649422e17494268f748429ed74842d0b74842fe974842287848424e584842703848428e184842a8f8474277
S34508005280bed84742d0b84742de984742e8784742ee584742f0384742ee184742e8f84642ddd84642cfb84642bc984642a57846428a5846426b3846424818464221f8454267
S345080052c0f5d74542c5b7454291974542597745421d574542dc364542971645424ef6444200d64442aeb5444258954442fe7444429f5444423c344442d51344426af3434243
S34508005300f9d2434285b243420c9243428f7143420e51434288304342fd0f43426eef4242dbce424243ae4242a78d4242066d4242614c4242b72b4242090b424257ea4142d4
S345080053409fc94142e3a84142238841425e67414294464142c6254142f40441421ce4404240c340425fa240427a81404290604042a13f4042ae1e4042b6fd3f42b9dc3f42f7
S34508005380b8bb3f42b19a3f42a6793f4296583f4282373f4269163f424af53e4227d43e4200b33e42d3913e42a1703e426b4f3e42302e3e42f00c3e42abeb3d4261ca3d42a1
S345080053c012a93d42be873d4265663d4207453d42a5233d423d023d42d0e03c425ebf3c42e89d3c426c7c3c42eb5a3c4265393c42da173c424af63b42b4d43b421ab33b42fb
S345080054007a913b42d66f3b422c4e3b427d2c3b42c90a3b420fe93a4251c73a428da53a42c4833a42f5613a4222403a42491e3a426afc394287da39429eb83942b09639424c
S34508005440bc743942c3523942c5303942c10e3942b8ec3842a9ca384295a838427c8638425d643842384238420e203842dffd3742aadb37426fb937422f973742ea7437420a
S345080054809e5237424e303742f70d37429beb364239c93642d2a6364265843642f26136427a3f3642fb1c364277fa3542eed735425eb53542c99235422e7035428d4d3542c7
S345080054c0e62a35423a08354287e53442cfc2344211a034424d7d3442835a3442b3373442dd14344201f233421fcf334237ac33424a893342566633425c4333425c20334253
S3450800550055fd324249da324237b732421e94324200713242db4d3242b02a32427f07324247e431420ac13142c69d31427c7a31422b573142d43331427710314214ed3042b8
S34508005540aac930423aa63042c4823042475f3042c33b304239183042a9f42f4212d12f4275ad2f42d2892f4227662f4276422f42bf1e2f4201fb2e423dd72e4271b32e4229
S34508005580a08f2e42c76b2e42e8472e4202242e4215002e4222dc2d4228b82d4227942d4220702d42114c2d42fc272d42e0032d42bddf2c4293bb2c4263972c422b732c4213
S345080055c0ec4e2c42a72a2c425a062c4207e22b42acbd2b424b992b42e2742b4272502b42fc2b2b427e072b42f9e22a426cbe2a42d9992a423f752a429d502a42f42b2a4234
S3450800560043072a428ce22942cdbd29420799294239742942654f2942882a2942a5052942bae02842c7bb2842cd962842cc712842c34c2842b22728429a0228427add27427e
S3450800564053b8274224932742ee6d2742b04827426a2327421dfe2642c7d826426ab32642068e26429968264225432642a81d264224f8254298d2254205ad25426987254238
S34508005680c5612542193c254266162542aaf02442e6ca24421aa52442467f24426a592442863324429a0d2442a5e72342a9c12342a49b234296752342814f234263292342fb
S345080056c03d0323420fdd2242d8b6224298902242516a224201442242a81d224247f72142ddd021426baa2142f08321426d5d2142e03621424c102142aee9204208c32042ae
S34508005700599c2042a2752042e14e204218282042460120426bda1f4287b31f429b8c1f42a5651f42a63e1f429f171f428ef01e4274c91e4251a21e42257b1e42f0531e42ae
S34508005740b22c1e426b051e421ade1d42c0b61d425d8f1d42f0671d427b401d42fb181d4273f11c42e1c91c4245a21c42a07a1c42f2521c423a2b1c4278031c42addb1b42aa
S34508005780d8b31b42fa8b1b4212641b42203c1b4224141b421fec1a4210c41a42f79b1a42d4731a42a74b1a4270231a4230fb1942e5d2194290aa194232821942c9591942d2
S345080057c056311942d908194251e01842c0b71842248f18427e661842ce3d1842131518424eec17427ec31742a49a1742c0711742d1481742d71f1742d3f61642c5cd1642d5
S34508005800aba41642877b1642595216421f291642dbff15428cd6154232ad1542cd8315425d5a1542e33015425d071542ccdd144230b41442898a1442d76014421a371442e6
S34508005840520d14427ee313429fb91342b58f1342bf651342be3b1342b111134299e7124276bd1242479312420c691242c63e12427414124216ea1142adbf114238951142d3
S34508005880b76a11422a40114291151142ecea10423cc010427f951042b66a1042e13f10420015104213ea0f421abf0f4214940f4202690f42e43d0f42b9120f4282e70e4215
S345080058c03ebc0e42ee900e4291650e42273a0e42b10e0e422fe30d429fb70d42038c0d425a600d42a4340d42e1080d4211dd0c4234b10c424a850c4253590c424f2d0c42e0
S345080059003e010c421fd50b42f4a80b42ba7c0b4274500b4220240b42bef70a424fcb0a42d39e0a4249720a42b1450a420b190a4258ec094297bf0942c8920942eb65094230
S3450800594000390942080c094201df0842ecb10842c984084297570842582a08420afd0742adcf074243a20742ca74074242470742ac19074207ec064253be064291900642e3
S34508005980c0620642e0340642f1060642f3d80542e6aa0542ca7c05429f4e0542652005421cf20442c3c304425b950442e46604425d380442c609044220db03426bac0342ec
S345080059c0a57d0342d04e0342eb1f0342f7f00242f2c10242dd920242b8630242833402423e050242e9d5014283a601420d77014287470142f017014249e8004291b800423d
S34508005a00c8880042ee5800420429004212f2ff41f991ff41bf31ff4163d1fe41e470fe414310fe417faffd41994efd418fedfc41638cfc41142bfc41a1c9fb410b68fb41b2
S34508005a405206fb4175a4fa417442fa414fe0f941067ef941991bf94107b9f8415156f84176f3f7417690f741512df74108caf6419966f6410403f6414a9ff5416a3bf54145
S34508005a8064d7f4413873f441e60ef4416eaaf341cf45f3410ae1f2411d7cf2410a17f241cfb1f1416d4cf141e4e6f0413281f0415a1bf04159b5ef41304fef41dee8ee4189
S34508005ac06482ee41c21bee41f6b4ed41024eed41e4e6ec419d7fec412c18ec4192b0eb41ce48eb41dfe0ea41c778ea418410ea4116a8e9417e3fe941bad6e841cc6de841c3
S34508005b00b204e8416c9be741fa31e7415dc8e641945ee6419ef4e5417b8ae5412c20e541b0b5e441074be44131e0e3412d75e341fb09e3419b9ee2410d33e24151c7e1411f
S34508005b40665be1414cefe0410483e0418c16e041e5a9df410e3ddf4107d0de41d162de416af5dd41d287dd410a1add4110acdc41e63ddc418acfdb41fc60db413df2da4186
S34508005b804b83da412714da41d1a4d9414835d9418bc5d8419c55d84178e5d7412175d7419604d741d793d641e322d641bab1d5415d40d541caced441015dd44103ebd34137
S34508005bc0ce78d3416406d341c293d241ea20d241dbadd141943ad14115c7d0415f53d04170dfcf41496bcf41e9f6ce415082ce417e0dce417298cd412c23cd41abadcc41aa
S34508005c00f137cc41fbc1cb41cb4bcb415ed5ca41b75eca41d3e7c941b370c94156f9c841bc81c841e609c841d191c7417f19c741eea0c6411f28c64111afc541c435c541a0
S34508005c4037bcc4416a42c4415ec8c341104ec34182d3c241b358c241a2ddc1414f62c141bae6c041e26ac041c7eebf416972bf41c7f5be41e278be41b7fbbd41487ebd4141
S34508005c809400bd419a82bc415a04bc41d485bb410707bb41f387ba419708ba41f488b9410809b941d388b8415508b8418e87b7417d06b7412185b6417b03b6418981b5419d
S34508005cc04cffb441c37cb441edf9b341ca76b34159f3b2419b6fb2418febb1413367b14189e2b0418f5db04144d8af41a952af41bdccae417f46ae41efbfad410d39ad41b4
S34508005d00d7b1ac414e2aac4171a2ab413f1aab41b891aa41dc08aa41a97fa94120f6a8413f6ca84107e2a7417657a7418dcca6414a41a641aeb5a541b729a541649da44162
S34508005d40b610a441ac83a34145f6a2418168a2415fdaa141de4ba141febca041be2da0411e9e9f411c0e9f41b97d9e41f4ec9d41cc5b9d4140ca9c4150389c41faa59b419b
S34508005d8040139b411f809a4197ec9941a75899414fc498418e2f9841639a9741ce049741ce6e964161d895418841954142aa94418d129441697a9341d6e19241d2489241d1
S34508005dc05daf9141761591411c7b90414ee08f410c458f4154a98e41260d8e4181708d4164d38c41ce358c41bf978b4135f98a41305a8a41aeba8941af1a8941327a8841c8
S34508005e0036d98741b9378741bc9586413cf385413a508541b4ac8441a808844117648341febe82415e1982413473814180cc804141258041ebfa7e4139aa7d416a587c4175
S34508005e407b057b416bb17941365c7841dc05774158ae7541aa557441cefb7241c1a07141834470410fe76e4164886d417e286c415cc76a41fa646941560168416e9c66418e
S34508005e803d366541c3ce6341fb656241e3fb604178905f41b7235e419db55c4128465b4153d559411d63584181ef56417d7a55410d0454412e8c5241dd12514117984f41c8
S34508005ec0d81b4e411c9e4c41e01e4b41219e4941db1b48410b984641ab124541ba8b4341330342411279404153ed3e41f25f3d41ecd03b413c403a41ddad3841cd19374160
S34508005f000684354184ec3341435332413eb83041711b2f41d67c2d416bdc2b41283a2a410b9628410df026412b4825415e9e2341a1f22141f144204146951e419ce31c417b
S34508005f40ed2f1b41337a19416ac217418a0816418f4c1441738e12412ece1041bb0b0f4115470d4133800b4111b70941a7eb0741ee1d0641e14d0441767b0241a9a6004122
S34508005f80e29efd408eebf9404733f640fe75f240a4b3ee4028ecea407b1fe7408c4de3404a76df40a499db408ab7d740e8cfd340aee2cf40c9efcb4025f7c740b1f8c34005
S34508005fc058f4bf4006eabb40a8d9b74027c3b34071a6af406d83ab40085aa740292aa340bbf39e40a5b69a40d07296402328924085d68d40dd7d8940101e854004b78040f9
S345080060003a9178407fa56f409daa66405ba05d407c865440c25c4b40f0224240c5d83840ff7d2f405c12264095951c406507134082670940476bff3ffae2eb3f7f35d83f98
S345080060403862c43f7f68b03fad479c3f14ff873f071c673f89e73d3f385f143f2403d53e199a803e8500ae3d0000000000000000000000000000000000000000000000003d
S3450800608000000000000000000000000000000000000000000000000000000000000000000000000000000000000000000000000000000000000000000000000000000000d2
S345080060c00000000000000000000000000000000000000000000000000000000000000000000000000000000000000000000000000000000000000000000000000000000092
S345080061000000000000000000000000000000000000000000000000000000000000000000000000000000000000000000000000000000000000000000000000000000000051
S345080061400000000000000000000000000000000000000000000000000000000000000000000000000000000000000000000000000000000000000000000000000000000011
S3450800618000000000000000000000000000000000000000000000000000000000000000000000000000000000000000000000000000000000000000000000000000000000d1
S345080061c00000000000000000000000000000000000000000000000000000000000000000000000000000000000000000000000000000000000000000000000000000000091
S345080062007cb505000c00012002f059fe012002f075ff0df10101012003f081fd0600300080b2002821d02b00dbb20022310089b2200004f0cffc40f6a174dff8285b288890
S34508006240a04204dadff8201b012005f047f92888a04208dab6b23100022005f03ff90021052005f03bf9ff207fe0012002f046ff6946032003f053fd0600300080b20028a2
S3450800628021d02b00dbb20022310089b2200004f0a1fc40f6a174dff8cc5a2888a04204dadff8c41a012005f019f92888a04208dab6b23100022005f011f90021052005f0ea
S345080062c00df9ff2051e0012002f018ff002002f0f6fd21009df8010004f0cdfb21009df8000004f0c8fb40f2e936dff8785a2888b04204dadff8741a012005f0eff828889f
S34508006300b04207da617f022005f0e8f80021052005f0e4f840f2d1742888a04204dadff8501a012005f0daf82888a04208da9df80110022005f0d2f80021052005f0cef882
S345080063402888a04204dadff82c1a012005f0c6f82888a04208da9df80010022005f0bef80021052005f0baf8002076bdf8b505000e00300004f0e3fb04002000c0b2022806
S3450800638021db2b00dbb200224ff48071300004f021fc40f6a174dff8cc592888a04204dadff8d419012005f099f82888a04208da4ff48071022005f091f80021052005f0df
S345080063c08df8ff2031e02000c0b202f078fd40f2e937dff890592888b84204dadff89c19012005f07bf82888b84207da717f022005f074f80021052005f070f840f2d17618
S345080064002888b04204dadff87819012005f066f82888b04208dae4b22100022005f05ef80021052005f05af80020f2bdfeb504000d00012002f043fd012002f05ffedff890
S345080064404409007800282ad102f04af80600300080b2002823d02300dbb20022310089b2280004f0b7fb40f6a174dff8f8582888a04204dadff81019012005f02ff8288894
S34508006480a04208da310089b2022005f027f80021052005f023f8300080b200f061bc01208df8030001208df8020000208df8010000208df800000020029000200190002084
S345080064c00020012002f0e3f80600300080b2002823d02300dbb20022310089b2280004f079fb40f6a174dff87c582888a04204dadff89418012004f0f1ff2888a04208dacd
S34508006500310089b2022004f0e9ff0021052004f0e5ff300080b200f023bc012003f052fc0600300080b2002821d02300dbb20022310089b2280004f04dfb40f6a174dff8ed
S3450800654024582888a04204dadff83c18012004f0c5ff2888a04208dab6b23100022004f0bdff0021052004f0b9ffff20f8e3032003f028fc0600300080b2002821d0230074
S34508006580dbb20022310089b2280004f023fb40f6a174dff8d0572888a04204dadff8e817012004f09bff2888a04208dab6b23100022004f093ff0021052004f08fffff209e
S345080065c0cee303224ff42f51012003f0e6fa0600300080b2002822d02300dbb20022310089b2280004f0f6fa40f6a174dff874572888a04204dadff89017012004f06effd7
S345080066002888a04208da310089b2022004f066ff0021052004f062ff300080b2a0e303224ff42f51032003f0b8fa0600300080b2002822d02300dbb20022310089b22800d9
S3450800664004f0c8fa40f6a174dff818572888a04204dadff83417012004f040ff2888a04208da310089b2022004f038ff0021052004f034ff300080b272e30322dff80c176f
S34508006680dff80c0702f068fd0600300080b2002822d02300dbb20022310089b2280004f099fa40f6a174dff8bc562888a04204dadff8d416012004f011ff2888a04208da1e
S345080066c0310089b2022004f009ff0021052004f005ff300080b243e30df1030202a9012003f074fd0600300080b2002822d02300dbb20022310089b2280004f06bfa40f692
S34508006700a174dff860562888a04204dadff87816012004f0e3fe2888a04208da310089b2022004f0dbfe0021052004f0d7fe300080b215e30df1020201a9032003f046fda1
S345080067400600300080b2002822d02300dbb20022310089b2280004f03dfa40f6a174dff804562888a04204dadff81c16012004f0b5fe2888a04208da310089b2022004f045
S34508006780adfe0021052004f0a9fe300080b2e7e29df80300002822d040f213172300dbb200223900280004f015fa40f6a174dff8b4552888a04204dadff8cc15012004f068
S345080067c08dfe2888a04207da3900022004f086fe0021052004f082fe300080b2c0e29df80200002822d02300dbb200224ff48a71280004f0eff940f6a174dff868552888a8
S34508006800a04204dadff88015012004f067fe2888a04208da4ff48a71022004f05ffe0021052004f05bfe300080b299e2142002f065fc142002f062fcdff8241c0298081a31
S345080068400199b1f51751032201f0beff0600300080b2002822d02300dbb20022310089b2280004f0b7f940f6a174dff8f8542888a04204dadff81015012004f02ffe288837
S34508006880a04208da310089b2022004f027fe0021052004f023fe300080b261e20df10101012003f03cfa0600300080b2002821d02300dbb20022310089b2280004f08af9b7
S345080068c040f6a174dff89c542888a04204dadff8b814012004f002fe2888a04208dab6b23100022004f0fafd0021052004f0f6fdff2035e29df80100012821d02300dbb273
S3450800690000224ff48771280004f064f940f6a174dff850542888a04204dadff86c14012004f0dcfd2888a04208da4ff48771022004f0d4fd0021052004f0d0fdff200fe24b
S345080069406946032003f0ebf90600300080b2002821d02300dbb20022310089b2280004f039f940f6a174dff8fc532888a04204dadff81414012004f0b1fd2888a04208da3c
S34508006980b6b23100022004f0a9fd0021052004f0a5fdff20e4e19df80000012821d02300dbb200224ff48771280004f013f940f6a174dff8b0532888a04204dadff8c81389
S345080069c0012004f08bfd2888a04208da4ff48771022004f083fd0021052004f07ffdff20bee1dff8800a0322010001f0edfe0600300080b2002821d02300dbb2002231004c
S34508006a0089b2280004f0e6f840f6a174dff854532888a04204dadff87013012004f05efd2888a04208dab6b23100022004f056fd0021052004f052fdff2091e1142002f05a
S34508006a405dfb0df10101012003f069f90600300080b200281fd02300dbb20022310089b2280004f0b7f840f6a174be4d2888a04203dac549012004f031fd2888a04208da28
S34508006a80b6b23100022004f029fd0021052004f025fdff2064e19df8010001281fd02300dbb2002240f21311280004f093f840f6a174ac4d2888a04203dab349012004f0f2
S34508006ac00dfd2888a04208dab6b23100022004f005fd0021052004f001fdff2040e16946032003f01cf90600300080b200281fd02300dbb20022310089b2280004f06af8cc
S34508006b0040f6a174974d2888a04203da9e49012004f0e4fc2888a04208dab6b23100022004f0dcfc0021052004f0d8fcff2017e19df8000001281fd02300dbb200224ff4eb
S34508006b408a71280004f046f840f6a174854d2888a04203da8c49012004f0c0fc2888a04208dab6b23100022004f0b8fc0021052004f0b4fcff20f3e003224ff4c8714ff4e9
S34508006b80c87001f021fe0600300080b200281fd02300dbb20022310089b2280004f01af840f6a1746f4d2888a04203da7649012004f094fc2888a04208dab6b2310002208b
S34508006bc004f08cfc0021052004f088fcff20c7e0142002f093fa0df10101012003f09ff80600300080b200281fd02300dbb20022310089b2280003f0edff40f6a174594d74
S34508006c002888a04203da6049012004f067fc2888a04208dab6b23100022004f05ffc0021052004f05bfcff209ae09df8010001281fd02300dbb2002240f21311280003f01d
S34508006c40c9ff40f6a174474d2888a04203da4e49012004f043fc2888a04208dab6b23100022004f03bfc0021052004f037fcff2076e06946032003f052f80600300080b252
S34508006c8000281fd02300dbb20022310089b2280003f0a0ff40f6a174324d2888a04203da3949012004f01afc2888a04208dab6b23100022004f012fc0021052004f00efc5c
S34508006cc0ff204de09df8000001281fd02300dbb200224ff48a71280003f07cff40f6a174204d2888a04203da2749012004f0f6fb2888a04208dab6b23100022004f0eefb3e
S34508006d000021052004f0eafbff2029e0002002f0d6f80020dff8501708700020dff84c1708700020dff8481708700120dff84417087040f2e9360b4c2088b04204dadff8e6
S34508006d403817012004f0cafb2088b04207da697f022004f0c3fb0021052004f0bffb0020febd00007c310020a02a0108b82b0108b02d0108bc2d0108bc2a0108d02b01087f
S34508006d801c2e0108913100206c290108b4300020b03000202de9f84f04000d00280003f0cefe0600280003f0cafe07003000c0b2062803da3800c0b2062821db2300dbb278
S34508006dc000224ff48071280003f004ff40f6a174dff8a8562888a04204dadff8a416012004f07cfb2888a04208da4ff48071022004f074fb0021052004f070fbff202de363
S34508006e00dff8648698f80000ff2821d140f213162300dbb200223100280003f0dbfe40f6a174dff858562888a04204dadff85016012004f053fb2888a04207da31000220e2
S34508006e4004f04cfb0021052004f048fbff2005e3dff8189699f80000ff2821d12300dbb200224ff48a71280003f0b4fe40f6a174dff808562888a04204dadff80416012037
S34508006e8004f02cfb2888a04208da4ff48a71022004f024fb0021052004f020fbff20dde2dff8d0050078012821d040f217162300dbb200223100280003f08cfe40f6a174ff
S34508006ec0dff8b8552888a04204dadff8b415012004f004fb2888a04207da3100022004f0fdfa0021052004f0f9faff20b6e2012001f0e5ff012002f001f998f80000310023
S34508006f00c9b2884252d00df10101012002f007ff8246504680b2002822d02300dbb20022514689b2280003f055fe40f6a174dff84c552888a04204dadff84415012004f08f
S34508006f40cdfa2888a04209da1ffa8afa5146022004f0c4fa0021052004f0c0faff207de29df80100012821d02300dbb200224ff48771280003f02efe40f6a174dff8fc54d7
S34508006f802888a04204dadff8f814012004f0a6fa2888a04208da4ff48771022004f09efa0021052004f09afaff2057e299f800003900c9b2884251d06946032002f0affe97
S34508006fc08246504680b2002822d02300dbb20022514689b2280003f0fdfd40f6a174dff89c542888a04204dadff89414012004f075fa2888a04209da1ffa8afa51460220d0
S3450800700004f06cfa0021052004f068faff2025e29df80000012821d02300dbb200224ff48771280003f0d6fd40f6a174dff84c542888a04204dadff84814012004f04efaba
S345080070402888a04208da4ff48771022004f046fa0021052004f042faff20ffe1dff824a43000c0b23af8100001f051fd3000c0b23af81000dff810140880012002f0a2feac
S345080070808246504680b2002822d02300dbb20022514689b2280003f09dfd40f6a174dff8dc532888a04204dadff8d413012004f015fa2888a04209da1ffa8afa5146022051
S345080070c004f00cfa0021052004f008faff20c5e1032002f077fe8246504680b2002822d02300dbb20022514689b2280003f072fd40f6a174dff884532888a04204dadff8e5
S345080071008013012004f0eaf92888a04209da1ffa8afa5146022004f0e1f90021052004f0ddf9ff209ae15ff0180adff844bc0b2299f800000afb00f058443900c9b250f8e0
S34508007140211098f800000afb00f058443300dbb250f8230001f038fbadf80200bdf8020000281fd02300dbb20022bdf80210280003f030fd40f6a174c04d2888a04203da43
S34508007180bf49012004f0aaf92888a04208dabdf80210022004f0a2f90021052004f09ef9ff205be198f800000afb00f058443100c9b250f82100002824d0dff8b80b006895
S345080071c000281fd140f215162300dbb200223100280003f0fffc40f6a174a84d2888a04203daa749012004f079f92888a04207da3100022004f072f90021052004f06ef907
S34508007200ff202be199f800000afb00fa0beb0a003900c9b250f82100002824d0dff8580b006800281fd12300dbb200224ff48b71280003f0cffc40f6a174904d2888a042e1
S3450800724003da8f49012004f049f92888a04208da4ff48b71022004f041f90021052004f03df9ff20fae00df10101012002f057fd8246504680b2002820d02300dbb20022a7
S34508007280514689b2280003f0a5fc40f6a1747b4d2888a04203da7a49012004f01ff92888a04209da1ffa8afa5146022004f016f90021052004f012f9ff20cfe09df8010049
S345080072c001281fd02300dbb200224ff48771280003f080fc40f6a174684d2888a04203da6749012004f0faf82888a04208da4ff48771022004f0f2f80021052004f0eef8cf
S34508007300ff20abe088f800603000c0b2002803d001205749087002e00020554908706946032002f0fcfc8046404680b2002820d02300dbb20022414689b2280003f04afc80
S3450800734040f6a1744d4d2888a04203da4c49012004f0c4f82888a04209da1ffa88f84146022004f0bbf80021052004f0b7f8ff2074e09df8000001281fd02300dbb200220c
S345080073804ff48771280003f025fc40f6a1743b4d2888a04203da3a49012004f09ff82888a04208da4ff48771022004f097f80021052004f093f8ff2050e089f80070380046
S345080073c0c0b2002803d001202949087002e0002027490870002001f072fd40f2e938274c2088404504dadff8bc1b012004f076f82088404507da697f022004f06ff8002107
S34508007400052004f06bf840f2d1752088a84204dadff8941b012004f061f82088a84208daf6b23100022004f059f80021052004f055f82088a84204dadff8701b012004f0c4
S345080074404df82088a84208daffb23900022004f045f80021052004f041f80020bde8f28f4ad6ffff70feffff8e3100208f3100209031002092310020d82a01087c3100206a
S34508007480202701088c3000207a3100207cb504000d00dff81c0b0078002829d101f020f80600300080b2002822d02300dbb20022310089b2280003f08dfb40f6a174dff85f
S345080074c0f45a2888a04204dadff8ec1a012004f005f82888a04208dab6b23100022003f0fdff0021052003f0f9ffff2000f03fbc012001f0e4fc142001f000fe00208df8be
S34508007500010000208df80000012002f05bfc0600300080b2002822d02300dbb20022310089b2280003f056fb40f6a174dff8845a2888a04204dadff8801a012003f0ceff3f
S345080075402888a04208dab6b23100022003f0c6ff0021052003f0c2ffff2000f008bc032002f030fc0600300080b2002821d02300dbb20022310089b2280003f02bfb40f6d2
S34508007580a174dff8305a2888a04204dadff8281a012003f0a3ff2888a04208dab6b23100022003f09bff0021052003f097ffff20dde39df80000002801d1012100e00021ec
S345080075c09df80100002801d1012000e000200322c9b2c0b200f0befe0600300080b2002821d02300dbb20022310089b2280003f0f1fa40f6a174dff8bc592888a04204daa2
S34508007600dff8b419012003f069ff2888a04208dab6b23100022003f061ff0021052003f05dffff20a3e3142001f068fd9df80000002801d1012100e000219df80100002866
S3450800764001d1012000e00020fc230322c9b25943c0b2584301f0b8f8300080b2002821d02300dbb20022310089b2280003f0b2fa40f6a174dff83c592888a04204dadff882
S345080076803819012003f02aff2888a04208dab6b23100022003f022ff0021052003f01effff2064e3142001f029fd0df10101012002f035fb0600300080b2002821d02300fd
S345080076c0dbb20022310089b2280003f083fa40f6a174dff8e0582888a04204dadff8d818012003f0fbfe2888a04208dab6b23100022003f0f3fe0021052003f0effeff20d3
S3450800770035e36946032002f00afb0600300080b2002821d02300dbb20022310089b2280003f058fa40f6a174dff888582888a04204dadff88418012003f0d0fe2888a042d5
S3450800774008dab6b23100022003f0c8fe0021052003f0c4feff200ae39df8010001287ff428af9df8000001287ff423af03229df800109df8010000f0edfd0600300080b2f0
S34508007780002821d02300dbb20022310089b2280003f020fa40f6a174dff818582888a04204dadff81418012003f098fe2888a04208dab6b23100022003f090fe002105208a
S345080077c003f08cfeff20d2e2142001f097fc03223f213f2000f0f8ff0600300080b2002821d02300dbb20022310089b2280003f0f1f940f6a174dff8bc572888a04204da3f
S34508007800dff8b417012003f069fe2888a04208dab6b23100022003f061fe0021052003f05dfeff20a3e2142001f068fc0df10101012002f074fa0600300080b2002821d0d9
S345080078402300dbb20022310089b2280003f0c2f940f6a174dff85c572888a04204dadff85817012003f03afe2888a04208dab6b23100022003f032fe0021052003f02efe58
S34508007880ff2074e29df80100012821d02300dbb200224ff48771280003f09cf940f6a174dff810572888a04204dadff80c17012003f014fe2888a04208dab6b23100022090
S345080078c003f00cfe0021052003f008feff204ee26946032002f023fa0600300080b2002821d02300dbb20022310089b2280003f071f940f6a174dff8bc562888a04204da26
S34508007900dff8b416012003f0e9fd2888a04208dab6b23100022003f0e1fd0021052003f0ddfdff2023e29df80000012821d02300dbb200224ff48771280003f04bf940f616
S34508007940a174dff870562888a04204dadff86816012003f0c3fd2888a04208dab6b23100022003f0bbfd0021052003f0b7fdff20fde1dff8680b0322010000f025ff060060
S34508007980300080b2002821d02300dbb20022310089b2280003f01ef940f6a174dff814562888a04204dadff81016012003f096fd2888a04208dab6b23100022003f08efd81
S345080079c00021052003f08afdff20d0e1142001f095fb0df10101012002f0a1f90600300080b2002821d02300dbb20022310089b2280003f0eff840f6a174dff8b8552888e7
S34508007a00a04204dadff8b015012003f067fd2888a04208dab6b23100022003f05ffd0021052003f05bfdff20a1e19df80100012821d02300dbb2002240f21311280003f0c1
S34508007a40c9f840f6a174dff86c552888a04204dadff86415012003f041fd2888a04208dab6b23100022003f039fd0021052003f035fdff207be16946032002f050f90600f1
S34508007a80300080b2002821d02300dbb20022310089b2280003f09ef840f6a174dff814552888a04204dadff81015012003f016fd2888a04208dab6b23100022003f00efd03
S34508007ac00021052003f00afdff2050e19df80000012821d02300dbb200224ff48a71280003f078f840f6a174dff8c8542888a04204dadff8c414012003f0f0fc2888a042af
S34508007b0008dab6b23100022003f0e8fc0021052003f0e4fcff202ae103224ff4c8714ff4c87000f051fe0600300080b2002821d02300dbb20022310089b2280003f04af809
S34508007b4040f6a174dff86c542888a04204dadff86814012003f0c2fc2888a04208dab6b23100022003f0bafc0021052003f0b6fcff20fce0142001f0c1fa0df101010120c1
S34508007b8002f0cdf80600300080b2002821d02300dbb20022310089b2280003f01bf840f6a174dff810542888a04204dadff80814012003f093fc2888a04208dab6b231007a
S34508007bc0022003f08bfc0021052003f087fcff20cde09df80100012821d02300dbb2002240f21311280002f0f5ff40f6a174dff8c4532888a04204dadff8bc13012003f00a
S34508007c006dfc2888a04208dab6b23100022003f065fc0021052003f061fcff20a7e06946032002f07cf80600300080b2002821d02300dbb20022310089b2280002f0caff34
S34508007c4040f6a174dff86c532888a04204dadff86813012003f042fc2888a04208dab6b23100022003f03afc0021052003f036fcff207ce09df8000001281fd02300dbb266
S34508007c8000224ff48a71280002f0a4ff40f6a174c84d2888a04203dac749012003f01efc2888a04208dab6b23100022003f016fc0021052003f012fcff2058e003224ff452
S34508007cc0965141f2707000f07ffd0600300080b200281fd02300dbb20022310089b2280002f078ff40f6a174b24d2888a04203dab149012003f0f2fb2888a04208dab6b232
S34508007d003100022003f0eafb0021052003f0e6fbff202ce0142001f0f1f9002001f0cff80020dff8981a08700020dff8941a08700020dff8901a08700020dff89c1b087061
S34508007d4040f2e9369b4c2088b04204dadff8f41b012003f0c3fb2088b04207da697f022003f0bcfb0021052003f0b8fb002076bdc8200108b0300020b43000202de9f041e3
S34508007d8004000d00280002f0dafe06003000c0b2062820db2300dbb200224ff48071280002f018ff40f6a174824d2888a04204dadff8281b012003f091fb2888a04208daf2
S34508007dc04ff48071022003f089fb0021052003f085fbff20e3e0dff8e4793878ff2820d140f213162300dbb200223100280002f0f1fe40f6a1746f4d2888a04204dadff85c
S34508007e00dc1a012003f06afb2888a04207da3100022003f063fb0021052003f05ffbff20bde0dff8b40a0078002820d040f217162300dbb200223100280002f0cbfe40f6bf
S34508007e40a1745c4d2888a04204dadff8901a012003f044fb2888a04207da3100022003f03dfb0021052003f039fbff2097e0012001f025f8022001f041f9012001f0a2ffcf
S34508007e808046404680b2002821d02300dbb20022414689b2280002f09dfe40f6a174454d2888a04204dadff8341a012003f016fb2888a04209da1ffa88f84146022003f093
S34508007ec00dfb0021052003f009fbff2067e0dff8783a0322196897f800c0182000fb0cfc03eb0c003300dbb250f8230000f06cfc8046404680b2002821d02300dbb200222a
S34508007f00414689b2280002f065fe40f6a174294d2888a04204dadff8c419012003f0defa2888a04209da1ffa88f84146022003f0d5fa0021052003f0d1faff202fe03e70ca
S34508007f40002000f0bcff40f2e9371a4c2088b84204dadff8f819012003f0c0fa2088b84207da697f022003f0b9fa0021052003f0b5fa40f2d1752088a84203da0a490120c4
S34508007f8003f0acfa2088a84208daf6b23100022003f0a4fa0021052003f0a0fa0020bde8f0810000e8270108c82d0108d42d0108913100207c310020482701082de9f04183
S34508007fc004000d00280002f0bafd06003000c0b2062821db2300dbb200224ff48071280002f0f8fd40f6a174dff864592888a04204dadff86019012003f070fa2888a042fb
S3450800800008da4ff48071022003f068fa0021052003f064faff20e7e0dff8a4773878ff2821d12300dbb200224ff48a71280002f0d1fd40f6a174dff818592888a04204da72
S34508008040dff89818012003f049fa2888a04208da4ff48a71022003f041fa0021052003f03dfaff20c0e0dff870080078002821d040f217162300dbb200223100280002f087
S34508008080a9fd40f6a174dff8c8582888a04204dadff8c018012003f021fa2888a04207da3100022003f01afa0021052003f016faff2099e0012000f002ff022001f01ef893
S345080080c0032001f07ffe8046404680b2002822d02300dbb20022414689b2280002f07afd40f6a174dff868582888a04204dadff86418012003f0f2f92888a04209da1ffaf2
S3450800810088f84146022003f0e9f90021052003f0e5f9ff2068e0dff83038032239781820414303eb01003100c9b250f82110186800f04afb8046404680b2002822d0230060
S34508008140dbb20022414689b2280002f043fd40f6a174dff8fc572888a04204dadff8f417012003f0bbf92888a04209da1ffa88f84146022003f0b2f90021052003f0aef962
S34508008180ff2031e03e70002000f099fe40f2e937dff8bc472088b84204dadff8bc17012003f09cf92088b84207da697f022003f095f90021052003f091f940f2d17520883c
S345080081c0a84204dadff89417012003f087f92088a84208daf6b23100022003f07ff90021052003f07bf90020bde8f08180b503000800dbb2002240f2011102f0ebfcff20ab
S3450800820002bd2de9f0410f00dff854473900206802f079fbdff84c573900286802f073fb40f2e938dff828673088404504dadff83817012003f052f93088404507da797f70
S34508008240022003f04bf90021052003f047f940f2d1773088b84204dadff81017012003f03df93088b84203da2168032003f036f93088b84204dadff8f816012003f02ef9bf
S345080082803088b84207da2968032003f027f90021052003f023f90020bde8f081f8b505000e00300002f03cfc0400082c21d22b00dbb200224ff48071300002f08bfc40f699
S345080082c0a174dff88c562888a04204dadff8a416012003f003f92888a04208da4ff48071022003f0fbf80021052003f0f7f8ff202be0dff88406046040f2e937dff85056fb
S345080083002888b84204dadff87416012003f0e6f82888b84207da717f022003f0dff80021052003f0dbf840f2d1762888b04204dadff84c16012003f0d1f82888b04203da53
S345080083402100032003f0caf80020f2bddff83406007870472de9f04104000d0016002000c0b2002808d0012001f078fd010089b2002901d080b2afe02800c0b2002808d0cf
S34508008380032001f06bfd010089b2002901d080b2a2e03200d2b22900c9b22000c0b200f094ff010089b2002901d080b294e0142000f0a4fe2000c0b200280bd03200d2b2ed
S345080083c00021012001f09afb010089b200290dd080b281e03200d2b20021012001f0ddfb010089b2002901d080b275e02800c0b200280bd03200d2b20021032001f07efb53
S34508008400010089b200290dd080b265e03200d2b20021032001f0c1fb010089b2002901d080b259e0dff83875dff838853200d2b24146380000f090fe0600300080b2002892
S3450800844002d0300080b247e0e4b2002c0ad0012001f058fd0600300080b2002802d0300080b239e0edb2002d0ad0032001f04afd0600300080b2002802d0300080b22be0e3
S34508008480142000f03bfe40f2d174dff8c4542888a04204dadff8d414012003f01ff82888a04203da3968032003f018f82888a04204dadff8bc14012003f010f82888a04296
S345080084c008dad8f80010032003f008f80021052003f004f8300080b2bde8f08170feffff70b5012000f08eff010089b2002901d080b2cbe0012000f0d8ff010089b200295a
S3450800850001d080b2c2e0012001f027f8010089b2002901d080b2b9e0dff86c44dff86c542b0022000321012001f079f8010089b2002901d080b2a9e0dff8546433005ff042
S3450800854081420b21012001f06af8010089b2002901d080b29ae0012001f0b5f8010089b2002901d080b291e0012001f004f9010089b2002901d080b288e0012001f06ff9b7
S34508008580010089b2002901d080b27fe0012001f0d5f9010089b2002901d080b276e0012001f04cfb010089b2002901d080b26de0032000f07aff010089b2002901d080b246
S345080085c064e0032000f0c9ff010089b2002901d080b25be02b0022000321032001f01ff8010089b2002901d080b24fe033005ff081420b21032001f012f8010089b2002984
S3450800860001d080b242e0032001f05df8010089b2002901d080b239e0032001f0acf8010089b2002901d080b230e0032001f017f9010089b2002901d080b227e0032001f046
S345080086407df9010089b2002901d080b21ee0032001f0f4fa010089b2002901d080b215e0012001f0c1f9010089b2002901d080b20ce0032001f0b8f9010089b2002901d096
S3450800868080b203e00120c3490870002070bd70b50400012001f0eaf9010089b2002901d080b289e0032001f0e1f9010089b2002901d080b280e0b04d2968012001f074fcf0
S345080086c0010089b2002901d080b275e0012600e0761c3000c0b20e280fdaaf483100c9b250f821203100c9b2012001f0c9fc010089b20029ecd080b25ee02968032001f070
S3450800870053fc010089b2002901d080b254e0012500e06d1c2800c0b20e280fda9f482900c9b250f821202900c9b2032001f0a8fc010089b20029ecd080b23de0012001f006
S3450800874053f9010089b2002901d080b234e0032001f04af9010089b2002901d080b22be0e4b2012c13d10121012001f0dbfc010089b2002901d080b21ee00121032001f00b
S34508008780d1fc010089b2002915d080b214e00021012001f0c7fc010089b2002901d080b20ae00021032001f0bdfc010089b2002901d080b200e0002070bd00008e310020c4
S345080087c08f310020903100202de9f04106000d001400012001f042fb010089b2002901d080b277e0032001f039fb010089b2002901d080b26ee02200d2b23100012001f047
S34508008800ccf9010089b2002901d080b262e02200d2b22900032001f0c0f9010089b2002901d080b256e04e4d4e4e2200d2b23100280000f091fc0400200080b2002808d078
S34508008840012001f013f9032001f010f9200080b240e0012001f056fb010089b2002901d080b237e0032001f04dfb0400200080b2002802d0200080b22ce0142000f03efcf3
S3450800888040f2d177dff8c880b8f80000b84203da3649012002f022feb8f80000b84203da2968032002f01afeb8f80000b84203da2f49012002f012feb8f80000b84207dae6
S345080088c03168032002f00afe0021052002f006fe200080b2bde8f081923100203028010880b50020009050232d4a2e49012001f03dfd00f0c8f9002026490870002000f072
S34508008900defaff201f490870274908700020144908600020134908600020244908704620154908600a48008840f2d171884207da1f49012002f0d2fd0021052002f0cefd2a
S3450800894001bd00000c280108c82001088c2901087c31002054280108ac290108d42d0108b0300020b430002078280108e82b0108f42a01089c260108b830002070270108a2
S34508008980c82601088e3100209a99193f000048430000344391310020542501088c250108e82d0020582101088f31002090310020102b010810b504002100c9b2012001f0f5
S345080089c00ffff9e77fb501215ff0005002f0d4fe00215ff0005002f0ebfe02f037ff002000900020019000200290002003906946002002f037ffdff8044601224ff400714a
S34508008a00200002f0d7ffdff8f8550320a8701020e8704ff4007028802900200002f056ff0020e870402028802900200002f04eff0020e870802028802900200002f046ff26
S34508008a400020e870202028802900200002f03eff01214ff4806002f081fedff8a865300002f0b2ffdff8a0150020086000200871002048715ff4602088600020c8600320f7
S34508008a800874300002f0d0ff0121300003f01af80121300003f021f80121300002f0e9ff012003f08af8300002f0f0ff300002f0f2ff0028fad1300002f0f6ff300002f074
S34508008ac0f8ff0028fad14820e8704ff4807028802900200002f0fafe4820e8704ff4806028802900200002f0f1fe4820e8704ff4006028802900200002f0e8fe00224ff46a
S34508008b000071200002f056ff002004b070bd80b580b203f079f8dff8f41403f083f803f00df9dff8ec24dff8ec3403f02bf9dff8e824dff8e83403f0fbf903f021fb01007b
S34508008b4089b2002002f0b8fe0121002002f0a0fe002002bd80b501224ff40071dff89c0402f028ff002002bd80b500224ff40071dff8880402f01eff002002bd38b5dff898
S34508008b8080440020e07001202080dff894542100280002f09bfe0020e070022020802100280002f093fe0020e070042020802100280002f08bfe0320a0701420e0704ff42f
S34508008bc0805020802100280002f080fe01214ff4007002f0c3fd00214ff4007002f0dafddff84044200002f0effedff81c140020086000200871002048715ff46020886004
S34508008c000020c86003200874200002f00dff0121200002f057ff0121200002f05eff0121200002f026ff012002f0c7ff200002f02dff200002f02fff0028fad1200002f051
S34508008c4033ff200002f035ff0028fad1002032bd38b5dff8ac430320a0701420e07001202080dff8c4532100280002f02ffe0320a0701420e070022020802100280002f037
S34508008c8025fe002032bd80b5dff87413032088701020c8704ff400700880dff8840302f015fe002002bdf8b50400002500261ce0dff87073072301220a21380002f01aff74
S34508008cc00121380002f0d5fe0221380002f092ff0028f9d03800c06c80b202f095ff0100280003f069fa0500761c3000c0b20828dedb280003f022f8cc4acd4b03f042f82b
S34508008d000022cc4b03f010fb03f032fc2060241d002500261be0c34f072301220c21380002f0e8fe0121380002f0a3fe0221380002f060ff0028f9d03800c06c80b202f018
S34508008d4063ff0100280003f037fa0500761c3000c0b20828dfdb280002f0f0ffb64ab74b03f010f80022b34b03f0defa03f000fc20600020f2bd80b54ff480719f4802f0a2
S34508008d8005fe02bd70b5002400251ce09d4e072301220621300002f0adfe0121300002f068fe0221300002f025ff0028f9d03000c06c80b2a24980b251f82010200003f012
S34508008dc0fbf904006d1c2800c0b20828dedb20005ff0824102f026ff70bdf8b5002400251be0904e072301220a21300002f082fe0121300002f03dfe0221300002f0fafe46
S34508008e000028f9d03000c06c80b202f0fdfe0100200003f0d1f904006d1c2800c0b20828dfdb200002f08aff804a814b02f0aaff0022804b03f078fa03f09afb04000025fa
S34508008e4000261be0774f072301220521380002f051fe0121380002f00cfe0221380002f0c9fe0028f9d03800c06c80b202f0ccfe0100280003f0a0f90500761c3000c0b276
S34508008e800828dfdb280002f059ff6e4a6e4b02f079ff0022674b03f047fa03f069fb210003f0faf904004ff40071544802f078fd02f0aafe0100200003f08efbf2bd80b531
S34508008ec0c0b2002806d001224ff40071544802f071fd05e000224ff40071514802f06afd002002bd80b5c0b2002806d000224ff480514b4802f05efd05e001224ff48051be
S34508008f00474802f057fd002002bd38b50400464d01220221280002f04dfde4b2012c05d101220121280002f045fd04e000220121280002f03ffd31bd10b54ff47a74012084
S34508008f4002f0b2fb01214ff4807003f0b1fb45f2555003f0bffb002003f0c0fb200080b203f0c0fb002003f0b5fb03f0c4fb002010bd1fb501215ff4003002f0fdfb002113
S34508008f805ff4003002f014fc1d49032088701820c87004200880194802f098fc2b4c200003f0b4fb5ff4e13000900020adf804000020adf806000020adf808000020adf847
S34508008fc00c000820adf80a006946200003f0e6fb0121200003f034fc1fbd38b504001b4d8021280003f03efc0028f8d0e4b2210089b2280003f032fc31bd000000080140eb
S34508009000bc300020002801402430002000007a4483c0caa1455da240f4fdd478e99a75400010014000240140001401407fff417ffc007f3f000020403222ac21cc48583fa5
S34508009040002200082a00c63368e88f3f0044004010b5040003e02078fff7bfff641c20780028f8d110bd1cb50024002805d13020fff7b3ff1ce0373109e0002814d010f0e1
S345080090800f0100090a0092b20a2af4da30316a4623009bb2d154641cefe7641e6846210089b2405cfff799ff200080b20028f4d113bd1fb50024002811d13020fff78dffa4
S345080090c01be00a21b0fbf1f201fb120130316a4623009bb2d154641c0a21b0fbf1f00028efd1200080b2002807d0641e6846210089b2405cfff771fff3e71fbd10b5134924
S345080091000c68002c03d012490968002901d013201ae0002801d1002016e0eff3108172b6042222630122a2630022c4f88420e06408480068401c074a106081f31088200076
S3450800914003f09afbd4f8840010bd00bf00310020dc010020183100202de9fc4104000d001600002003f039fedff8847939687d2003f0cffd39683000c0b203f0cafddff85d
S345080091807489d8f800107d2003f0c3fdd8f800103000c0b203f0bdfd386803f0e8fd0320fff7acffd8f8000003f0e1fd42f21078dff8446900223100404603f0f3fd80b23a
S345080091c0002802d040f20f107de0dff86c7a00223900404603f0e6fd80b2002802d040f20f1070e030688079c0b27d2805d0306803f012fe4ff4897065e038688079c0b2d4
S345080092007d2805d0386803f007fe4ff489705ae03068c07980b2002808d0306803f0fcfd386803f0f9fd40f211104ce03868c07980b2002808d0306803f0eefd386803f0f5
S34508009240ebfd40f211103ee03068407a009000983168897a10eb0120009000983168c97a10eb0140009000983168097b10eb0160009068463968497a416041683a68927ada
S3450800928011eb0221416041683a68d27a11eb0241416041683a68127b11eb026141603168c978012904d1009921604068286003e04068206000982860306803f0adfd38686e
S345080092c003f0aafd0020bde8f681f8b504000d001600002003f081fd2000c0b2002818d0dff80c783968872003f013fd39683000c0b203f00efd3968002003f00afd396840
S34508009300002003f0dbfc386803f031fd0120fff7f5fe2800c0b2002818d0dff8d8773968872003f0f6fc39683000c0b203f0f1fc3968002003f0edfc3968002003f0befc3f
S34508009340386803f014fd0120fff7d8fe42f21077dff8a46700223100380003f023fd80b2002802d040f20f104be030688079c0b2872805d0306803f04ffd4ff4897040e0b1
S345080093803068c07980b2002805d0306803f044fd40f2111035e0e4b2002c2ed0edb2002d2bd0dff8944800222100380003f0fafc80b2002802d040f20f1022e020688079cd
S345080093c0c0b2872808d0306803f026fd206803f023fd4ff4897014e02068c07980b2002808d0306803f018fd206803f015fd40f2111006e0206803f00ffd306803f00cfd79
S345080094000020f2bd10b50400002003f0e6fce4b2012c02d0032c1cd01fe0dff8d40604682100fe2003f075fc2100022003f071fc200003f09cfcdff8c0460022210042f280
S34508009440107003f0affc80b2002808d040f20f102ae0dff8a0060468e2e7ff2024e020688079c0b2fe2805d0206803f0d5fc4ff4897019e02068c07980b2002805d0206877
S3450800948003f0cafc40f211100ee02068007ac0b2012805d0206803f0bffc4ff4887003e0206803f0b9fc002010bd38b50400002003f093fce4b2012c02d0032c2bd02fe060
S345080094c0dff82c060468012521000a2003f021fc2100012003f01dfc21002800c0b203f018fc210041f2883003f003fc2100002003f00ffc200003f03afcdff8fc45002298
S34508009500210042f2107003f04dfc80b2002809d040f20f1020e0dff8dc0504680025d3e7ff2019e020688079c0b20a2805d0206803f072fc4ff489700ee02068c07980b26d
S34508009540002805d0206803f067fc40f2111003e0206803f061fc002032bd38b50400002003f03bfce4b2012c02d0032c36d039e0dff87c05046821000f2003f0cafb2100da
S34508009580dff8d00803f096fbdff8cc582100280003f090fb2100280003f08cfb2100dff85c0903f08bfb21005ff4c81003f086fb2100dff84c0903f07dfb200003f0d7fbb2
S345080095c0dff834450022210042f2107003f0eafb80b2002808d040f20f101fe0dff814050468c8e7ff2019e020688079c0b20f2805d0206803f010fc4ff489700ee0206861
S34508009600c07980b2002805d0206803f005fc40f2111003e0206803f0fffb002032bdf8b504000d0016001f00002003f0d6fbe4b2012c02d0032c25d028e0dff8b4040468eb
S345080096402100112003f065fb21002800c0b203f060fb2100300003f02dfb2100380003f029fb200003f083fbdff88c440022210042f2107003f096fb80b2002808d040f23b
S345080096800f101fe0dff86c040468d9e7ff2019e020688079c0b2112805d0206803f0bcfb4ff489700ee02068c07980b2002805d0206803f0b1fb40f2111003e0206803f0ce
S345080096c0abfb0020f2bd10b50400002003f085fbe4b2012c02d0032c2cd02fe0dff81004046821002d2003f014fb2100dff8b40803f0e0fa2100dff87c0903f0dbfa21000e
S34508009700dff8740903f0d6fa2100dff8700903f0d1fa200003f02bfbdff8dc430022210042f2107003f03efb80b2002808d040f20f101fe0dff8bc030468d2e7ff2019e02e
S3450800974020688079c0b22d2805d0206803f064fb4ff489700ee02068c07980b2002805d0206803f059fb40f2111003e0206803f053fb002010bd10b50400002003f02dfb0b
S34508009780e4b2012c02d0032c48d04be0dff8600304682100282003f0bcfa21005ff07e5003f088fa2100002003f084fa2100002003f080fa2100dff8680903f07bfa2100d7
S345080097c05ff0804003f076fa21004ff4fa4003f075fa2100002003f09cfa2100002003f098fa2100012003f094fa2100002003f090fa2100002003f08cfa200003f0b7fa5a
S34508009800dff8f4420022210042f2107003f0cafa80b2002808d040f20f101fe0dff8d4020468b6e7ff2019e020688079c0b2282805d0206803f0f0fa4ff489700ee02068e0
S34508009840c07980b2002805d0206803f0e5fa40f2111003e0206803f0dffa002010bd10b50400002003f0b9fae4b2012c02d0032c44d046e09e48046821004f2003f049fafc
S3450800988021004ff4c87003f034fa2100dff8240903f010fa2100dff8200903f00bfa2100dff8180903f006fa2100dff8140903f001fa2100dff80c0903f0fcf9210000205d
S345080098c003f0f8f92100002003f0f4f92100002003f0f0f92100002003f0ecf9200003f046fa854c0022210042f2107003f05afa80b2002807d040f20f101ee07d4804680c
S34508009900bae7ff2019e020688079c0b24f2805d0206803f081fa4ff489700ee02068c07980b2002805d0206803f076fa40f2111003e0206803f070fa002010bd10b5040055
S34508009940002003f04afae4b2012c02d0032c2bd02de0674804682100552003f0daf92100002003f0a7f92100002003f0a3f92100002003f09ff92100002003f09bf92100e6
S34508009980dff8440803f096f9200003f0f0f95a4c0022210042f2107003f004fa80b2002807d040f20f101ee052480468d3e7ff2019e020688079c0b2552805d0206803f052
S345080099c02bfa4ff489700ee02068c07980b2002805d0206803f020fa40f2111003e0206803f01afa002010bd10b50400002003f0f4f9e4b2012c02d0032c16d019e03c48e3
S34508009a0004682100662003f084f9200003f0aff9394c0022210042f2107003f0c3f980b2002808d040f20f101fe0dff8b0080468e7e7ff2019e020688079c0b2662805d0f6
S34508009a40206803f0e9f94ff489700ee02068c07980b2002805d0206803f0def940f2111003e0206803f0d8f9002010bd10b50400002003f0b2f9e4b2012c02d0032c16d06f
S34508009a8019e01b4804682100672003f042f9200003f06df9184c0022210042f2107003f081f980b2002808d040f20f101fe0dff82c080468e7e7ff2019e020688079c0b2e7
S34508009ac0672805d0206803f0a7f94ff489700ee02068c07980b2002805d0206803f09cf940f2111003e0206803f096f9002010bdc8300020cc300020d830002070b50400fd
S34508009b000d001600002003f068f9e4b2012c02d0032c21d024e0dff8c807046821006e2003f0f7f821003000c0b203f0f2f82100280003f0c3f8200003f019f9dff8a447a6
S34508009b400022210042f2107003f02cf980b2002808d040f20f101fe0dff880070468dde7ff2019e020688079c0b26e2805d0206803f052f94ff489700ee02068c07980b25f
S34508009b80002805d0206803f047f940f2111003e0206803f041f9002070bd70b504000d001600002003f019f9e4b2012c02d0032c21d024e0dff82807046821006f2003f068
S34508009bc0a8f821003000c0b203f0a3f82100280003f074f8200003f0caf8dff808470022210042f2107003f0ddf880b2002808d040f20f101fe0dff8e4060468dde7ff2072
S34508009c0019e020688079c0b26f2805d0206803f003f94ff489700ee02068c07980b2002805d0206803f0f8f840f2111003e0206803f0f2f8002070bddc30002038b50400bd
S34508009c40002003f0caf8e4b2012c02d0032c36d03ae0dff88c060468032521003c2003f058f82100012003f054f821002800c0b203f04ff82100002003f04bf82100012031
S34508009c8003f047f82100002003f043f82100002003f010f82100002003f00cf8200003f066f8dff840460022210042f2107003f079f880b2002809d040f20f102ee0dff8ef
S34508009cc01c0604680425c8e7ff2027e020688079c0b23c2805d0206803f09ef84ff489701ce02068c07980b2002805d0206803f093f840f2111011e0edb2012d05d12068f0
S34508009d00007adff8e415087004e02068007adff8dc150870206803f07ff8002032bd70b505000c00002003f058f8edb2012d02d0032d20d026e0dff8a8050568dff8a80559
S34508009d40067829008d2002f0e4ff29003000c0b202f0dfff280003f00af8dff888550022290042f2107003f01df880b200280bd040f20f1025e0dff864050568dff86c05b9
S34508009d800678dee7ff201ce028688079c0b28d2805d0286803f040f84ff4897011e02868c07980b2002805d0286803f035f840f2111006e02868007a2070286803f02cf8a8
S34508009dc0002070bd10b50400002003f006f8e4b2012c02d0032c1cd01fe0dff8040504682100682002f095ff2100002002f066ff200002f0bcffdff8ec440022210042f221
S34508009e00107002f0cfff80b2002808d040f20f101fe0dff8c8040468e2e7ff2019e020688079c0b2682805d0206802f0f5ff4ff489700ee02068c07980b2002805d02068fa
S34508009e4002f0eaff40f2111003e0206802f0e4ff002010bd0000a0400000aa4338b50400002002f0baffe4b2012c02d0032c20d026e0dff86c040468dff86c04057821009e
S34508009e80402002f046ff21002800c0b202f041ff200002f06cffdff84c440022210042f2107002f07fff80b200280bd040f20f1022e0dff828040468dff830040578dee781
S34508009ec0ff2019e020688079c0b2402805d0206802f0a2ff4ff489700ee02068c07980b2002805d0206802f097ff40f2111003e0206802f091ff002032bd00000000e7ff92
S34508009f00e608804a38b50400002002f066ffe4b2012c02d0032c20d026e0dff8c4030468dff8c40305782100412002f0f2fe21002800c0b202f0edfe200002f018ffdff818
S34508009f40a4430022210042f2107002f02bff80b200280bd040f20f1022e0dff880030468dff888030578dee7ff2019e020688079c0b2412805d0206802f04eff4ff489709b
S34508009f800ee02068c07980b2002805d0206802f043ff40f2111003e0206802f03dff002032bd00000000af4470b504000d00002002f013ffe4b2012c02d0032c37d03be0cb
S34508009fc0dff81c03046803262100902002f0a1fe21000d2002f09dfe2100280002f06efe21004ff4165002f069fe2100012002f090fe21003000c0b202f08bfe2100ff2081
S3450800a00002f087fe2100002002f083fe200002f0aefedff8d0420022210042f2107002f0c1fe80b2002809d040f20f1020e0dff8ac0204680426c7e7ff2019e020688079b2
S3450800a040c0b2902805d0206802f0e6fe4ff489700ee02068c07980b2002805d0206802f0dbfe40f2111003e0206802f0d5fe002070bd00008000b14900e08a4400002041af
S3450800a08070b504000d001600002002f0a6fee4b2012c02d0032c21d024e0dff8440204682100912002f035fe21002800c0b202f030fe2100300002f001fe200002f057fed3
S3450800a0c0dff820420022210042f2107002f06afe80b2002808d040f20f101fe0dff8fc010468dde7ff2019e020688079c0b2912805d0206802f090fe4ff489700ee02068ef
S3450800a100c07980b2002805d0206802f085fe40f2111003e0206802f07ffe002070bd00000000c04038b504000d00002002f055fee4b2012c02d0032c1bd01de06848046807
S3450800a1402100922002f0e5fd21002800c0b202f0e0fd200002f00bfe624c0022210042f2107002f01ffe80b2002807d040f20f101ee05a480468e3e7ff2019e020688079e0
S3450800a180c0b2922805d0206802f046fe4ff489700ee02068c07980b2002805d0206802f03bfe40f2111003e0206802f035fe002032bd00003333d33f6f12833b3333333f84
S3450800a1c0cdcc4c3e0000c8420000c04170b506000c001500002002f000fef6b2012e02d0032e16d018e03e4806683100972002f090fd300002f0bbfd3a4e0022310042f2cb
S3450800a200107002f0cffd80b2002807d040f20f1030e032480668e8e7ff202be030688079c0b2972805d0306802f0f6fd4ff4897020e03068c07980b2002805d0306802f085
S3450800a240ebfd40f2111015e03068007a3168497a10eb01203168897a10eb01403168c97a10eb016020603068007b2870306802f0d3fd002070bd38b504002000c0b20002af
S3450800a280401c2500edb22d02ed1c194b144a002180b202f0f8fb174b104a0021adb2280002f0f1fb40f2bf75012229002000c0b210f5307080b203f0d7f802222900e4b23c
S3450800a2c014f59864200080b203f0cef800200649087000200549087031bd0000cc300020c8300020d83000209731002098310020d0300020d430002010b400202ce03c21c7
S3450800a300dff8e42a03009bb24b43134400249c7603009bb24b43134400245c6203009bb24b43134400249c6203009bb24b43134400245c6003009bb24b4313440400a4b2ad
S3450800a340640883f8214003009bb201fb03f11144002281f82020401c010089b20a29cedb0020dff8881a088010bc70472de9f24f040015001e0002f0adff0700e4b25feaed
S3450800a3804408d0e04046c0b209fb00f05044406828444146c9b209fb01f14af801006ee05ff03c09dff840aa4046c0b209fb00f05044002101774046c0b209fb00f0504488
S3450800a3c00021c1764046c0b209fb00f05044002101764046c0b209fb00f050443900c9b211f01f013a00d2b2120212f4005211434246d2b2920112f0400211434246d2b2c9
S3450800a400d20112f4407211434246d2b2920012f0200211434246d2b2d20112f4c052114311f5c07181814ff0ff0b4046c0b209fb00f0504480f819b04046c0b209fb00f09f
