S345080020006066002041200108e51c0108ebeb0008b3eb000843eb00087beb00080000000000000000000000000000000049200108e71c010800000000a1120108cf110108ed
S345080020404d2001085120010855200108592001085d2001086120010865200108692001086d2001087120010875200108e91c0108f31c0108fd1c0108071d0108792001084d
S345080020807d2001088120010885200108892001088d2001081de4000889e300089120010895200108992001089d200108a1200108a5200108a9200108ad200108b120010815
S345080020c0b5200108b9200108bd200108c1200108c5200108c9200108cd200108d1200108d5200108d9200108dd200108e1200108e5200108e9200108ed200108f120010812
S34508002100f5200108f9200108fd200108012101080521010809210108111d01080d2101081121010815210108192101081d2101082121010825210108292101082d210108e8
S345080021403121010835210108392101083d2101084121010845210108492101084d210108ffffffffffffffffffffffffffffffffffffffffffffffffffffffffffffffff29
S34508002200cc045aa500200008c321010803edbbc9303030303036383700546865726d6f4379636c65724e657747656e3200312e30302e30322e323332370000ffffffffff16
S3450800230080b502f0bbfa0a2002f0f2fa00f039fc00f00efd00f04cfd00f042fe00f046ff01f072f801f0defc01f086ff01f044fe01f06afe01f090fe01f0b8fe01f010fca2
S3450800234001f058fc01f0b2fd02f046fa00209fed730a00f0cdf901209fed700a00f0c8f902209fed6e0a00f0c3f904209fed6b0a00f0bef94df2c83304220021dff8fc0b84
S3450800238002f01efb4df2c83304220021dff8f00b02f016fbdff8ec0b02f013fedff8e80b02f00ffedff8e40b02f00bfedff8e00b02f007fedff8dc0b0068d0f8080430f47c
S345080023c08070dff8d01b0968c1f80804dff8c40b0068d0f8080430f08070dff8b81b0968c1f80804dff8ac0b0068d0f80c0440084000dff8a01b0968c1f80c04dff8940b7d
S345080024000068d0f8080430f48030dff8881b0968c1f8080401220221dff8780b03f05cf901220421dff86c0b03f056f901220821dff8600b03f050f901221021dff8540bba
S3450800244003f04af95521dff84c0b03f04dfb5ff4f811dff8400b03f062fb012220215ff0904003f0c5fe01224021dff81c0d03f0bffe002000f0b1f9012000f0aef902206a
S3450800248000f0abf9042000f0a8f9dff80c0b006850f08060dff8001b0860dff8fc0a006850f40060dff8f01a0860dff8e00c006850f48050dff8d41c086001bd80b5002042
S345080024c09fed160a00f014f901209fed140a00f00ff902209fed110a00f00af904209fed0f0a00f005f9002220215ff0904003f07ffe00224021dff8900c03f079fe02207b
S3450800250000f00ef89fed050a00f026f901bd80b5dff87c0c03f0c3fe01bd00000000000080b5c0b2002804d0022800f096804ad3dde001220421dff8640a03f059fe002283
S345080025401021dff8580a03f053fe00222021dff84c0a03f04dfe01224021dff8400a03f047fe01228021dff8340a03f041fe00224ff40041dff8240a03f03afe00220121cf
S34508002580dff8040c03f034fe01220221dff8f80b03f02efe01220421dff8ec0b03f028fe00220821dff8e00b03f022fe00221021dff8d40b03f01cfe01222021dff8c80b4f
S345080025c003f016fe93e000220421dff8d00903f00ffe01221021dff8c40903f009fe01222021dff8b80903f003fe00224021dff8ac0903f0fdfd00228021dff8a00903f048
S34508002600f7fd01224ff40041dff8900903f0f0fd01220121dff8700b03f0eafd00220221dff8640b03f0e4fd00220421dff8580b03f0defd01220821dff84c0b03f0d8fd40
S3450800264001221021dff8400b03f0d2fd00222021dff8340b03f0ccfd49e000220421dff83c0903f0c5fd00221021dff8300903f0bffd00222021dff8240903f0b9fd00225a
S345080026804021dff8180903f0b3fd00228021dff80c0903f0adfd00224ff40041dff8fc0803f0a6fd00220121dff8dc0a03f0a0fd00220221dff8d00a03f09afd0022042155
S345080026c0dff8c40a03f094fd00220821dff8b80a03f08efd00221021dff8ac0a03f088fd00222021dff8a00a03f082fdffe701bd10b50400dfed9b0a80ee200a10ee100a05
S3450800270003f0e8fd0022dff88c3a03f007fe0022dff8843a03f0d8fe03f0faffe4b2002c06d0012c09d0022c0cd0042c0fd012e080b2dff8681a08600de080b2dff8601a84
S34508002740086008e080b2dff85c1a086003e080b2dff87c1c086010bd80b5dfed8c0a20ee200a10ee100a03f0b5fd0022dff8383a03f0aafe03f0ccff80b2dff8581c086026
S3450800278001bdc0b2002806d001280cd0022812d0042818d01fe0dff8400c0068c00810f00100c0b218e0dff8300c0068000910f00100c0b210e0dff8200c0068400810f061
S345080027c00100c0b208e0dff8100c0068800810f00100c0b200e001207047c0b2002806d001280dd0022814d004281bd022e00820dff8e81b08600120dff8b41d086019e031
S345080028001020dff8d81b08600420dff8a41d086010e00220dff8c41b08601020dff8901d086007e00420dff8b41b08604020dff8801d0860704738b52ded028b80b203f0f3
S3450800284083ff0022dff8983b03f068fd0022dff8943b03f039fe41ec180b53ec182b0020dff8841b03f05afd04000d000020dff8701b53ec182b04f033f802000b0020009f
S34508002880290003f021fe41ec100b04f09ef8b0ee408af0ee608a53ec182bdff8500bdff8501b03f03bfddff84c2bdff84c3b03f059ff04000d0053ec182bdff8400bdff829
S345080028c0401b03f02bfd53ec182b03f027fd53ec182b03f023fd22002b0003f043ff02000b000020dff81c1b03f0eefd04f07af803f0f0fc5ff06632dff8b83c03f032ff70
S3450800290004f070f800ee100abdec028b31bd80b5dff8a41cc0b231f81000fff78cff01bd80b5dff8981cc0b231f81000fff783ff01bd80b5dff8800c8088fff77cff01bddb
S3450800294080b5dff8740c008903f0fefedff8702cdff8703c03f0e2fc04f044f800ee100a01bd000000007f4380b5dff84c0cc08803f0eafedff8502cdff8503c03f0cefccc
S3450800298004f030f800ee100a01bd00000040034780b5c0b2002803d0022821d010d32fe0dff8140c408903f0cffedff8242cdff8243c03f0b3fc04f015f800ee100a21e064
S345080029c0dff8f40b808903f0bffedff8042cdff8043c03f0a3fc04f005f800ee100a11e0dff8d40bc08903f0affedff8e42bdff8e43b03f093fc03f0f5ff00ee100a01e0d3
S34508002a009fedca0a01bd000080b5c0b2002808d0022832d01bd304285bd044d305286ed083e0dff8b40b0088dff8ac1b4988401a04f00cf8dff8902bdff8903b03f06efcfd
S34508002a4031f0004103f0ceff00ee100a6fe0dff8880b4088dff8801b8988401a03f0f6ffdff8642bdff8643b03f058fc31f0004103f0b8ff00ee100a59e0dff85c0bc088e2
S34508002a80dff8541b0989401a03f0e0ffdff8382bdff8383b03f042fc31f0004103f0a2ff00ee100a43e0dff8300b0089dff8281b4989401a03f0caffdff80c2bdff80c3b65
S34508002ac003f02cfc31f0004103f08cff00ee100a2de0dff8040b8089dff8fc1ac989401a03f0b4ffdff8e02adff8e03a03f016fc31f0004103f076ff00ee100a17e0dff813
S34508002b00d80ac089dff8d01a098a401a03f09effdff8b42adff8b43a03f000fc31f0004103f060ff00ee100a01e09fed800a01bd80b50100c9b2042911dadff8a01ac0b278
S34508002b4031f8100003f000fedff8942adff8943a03f0e4fb03f046ff00ee100a10e0dff87c1ac0b231f8100003f0eefddff8782adff8783a03f0d2fb03f034ff00ee100afb
S34508002b8001bd10b586b0142100226c46200003f06fffdff85c0a006850f01000dff8501a0860dff84c0a006810f0100005900598dff83c0a006850f00200dff8341a0860fb
S34508002bc0dff82c0a006810f0020005900598dff8200a006850f00800dff8141a0860dff8100a006810f0080005900598dff8000a006850f00400dff8f8190860dff8f009c0
S34508002c00006810f0040005900598dff8e409006850f00100dff8d8190860dff8d409006810f0010005900598dff8c409006850f02000dff8bc190860dff8b409006810f080
S34508002c4020000590059800227f21dff83c0503f0cffa002248f2f401d04803f0c9fa01224ff490515ff0904003f0c2fa01224ff40051dff8800903f0bbfa002220215ff0b9
S34508002c80904003f0b5fa7f2000900120019000200290002003906946dff8ec0403f0c0f948f2f40000900120019000200290002003906946b94803f0b3f94ff49050009055
S34508002cc001200190012002900020039069465ff0904003f0a5f94ff4005000900120019001200290002003906946dff8080903f097f92020009001200190002002900020a6
S34508002d00039069465ff0904003f08af94ff4806000900120019001200290002003906946dff8240e03f07cf906b010bd0000000080b5dff8180e006850f00400dff80c1e61
S34508002d400860dff8080e006810f0040000900098dff8f80d006850f00100dff8f01d0860dff8e80d006810f0010000900098002200210b2003f007ff0b2003f014ff002274
S34508002d8000210c2003f0fffe0c2003f00cff002200210d2003f0f7fe0d2003f004ff002200210e2003f0effe0e2003f0fcfe01bd18b58bb00c21002208ac200003f058fe85
S34508002dc0202100226c46200003f052fe5ff0a040dff8141e08605ff41010dff80c1e48600020dff8041e88600020dff8fc1dc8600020dff8f41d08610120dff8ec1d48613d
S34508002e000420dff8e41d88610020dff8dc1d08770120dff8d41d48770620dff8cc1d08620020dff8c41d81f824000020dff8b81dc8620020dff8b01d08630120dff8a81de1
S34508002e4081f838000020dff8a01dc8630120dff8981d81f840001420dff88c1d48644020dff8841d88640020dff87c1dc8640120dff8741d0865dff8700d03f081ff002889
S34508002e8001d001f0f9fc0020089008a9dff8580d04f0fafc002801d001f0eefcdff8b00c009006200190032002907f20039004200490002005906946dff82c0d04f058f9b8
S34508002ec0002801d001f0d8fcdff8880c00900c2001906946dff8100d04f04af9002801d001f0cafcdff8700c0090122001906946dff8f40c04f03cf9002801d001f0bcfccd
S34508002f00dff8580c0090182001906946dff8d80c04f02ef9002801d001f0aefcdff8cc0c00904ff4807001906946dff8bc0c04f01ff9002801d001f09ffcdff8b40c0090cd
S34508002f404ff4837001906946dff89c0c04f010f9002801d001f090fc7f21dff88c0c04f046fc002801d001f087fc0622dff84c16dff8740c04f052f80cb010bdfc5c002032
S34508002f80105d0020885b0020ac5b0020d05b0020f45b0020704d0020102004e0000c004810b588b0202100226c46200003f060fddff8c80cdff8501e08605ff41010dff829
S34508002fc0481e48600020dff8401e88600020dff8381ec8600020dff8301e08610120dff8281e48610420dff8201e88610020dff8181e08770120dff8101e48770820dff8bc
S34508003000081e08620020dff8001e81f824000020dff8f41dc8620020dff8ec1d08630120dff8e41d81f838000020dff8dc1dc8630120dff8d41d81f840001420dff8c81d4c
S3450800304048644020dff8c01d88640020dff8b81dc8640120dff8b01d0865dff8ac0d03f08ffe002801d001f007fcdff8f00a009006200190022002907f20039004200490b9
S34508003080002005906946dff8800d04f071f8002801d001f0f1fbdff8400c00900c2001906946dff8640d04f063f8002801d001f0e3fbdff8a40a0090122001906946dff82b
S345080030c0480d04f055f8002801d001f0d5fbdff80c0c0090182001906946dff82c0d04f047f8002801d001f0c7fbdff8f40b00904ff4807001906946dff80c0d04f038f89f
S34508003100002801d001f0b8fbdff8000d00904ff4837001906946dff8f00c04f029f8002801d001f0a9fbdff8e80c00904ff4867001906946dff8d00c04f01af8002801d0fe
S3450800314001f09afbdff8fc0c00904ff4897001906946dff8b40c04f00bf8002801d001f08bfb7f21dff8a00c04f041fb002801d001f082fb0822dff84014dff88c0c03f061
S345080031804dff08b010bd000000100048082004e0345d0020f406a441006af8409c6801401c6901409c69014000e06f4018b58bb00c21002208ac200003f05afc20210022e3
S345080031c06c46200003f054fcdff8dc0cdff8e01d08605ff41010dff8d81d48600020dff8d01d88600020dff8c81dc8600020dff8c01d08610120dff8b81d48610420dff84c
S34508003200b01d88610020dff8a81d08770120dff8a01d48770920dff8981d08620020dff8901d81f824000020dff8841dc8620020dff87c1d08630120dff8741d81f83800c4
S345080032400020dff86c1dc8630120dff8641d81f840001420dff8581d48644020dff8501d88640020dff8481dc8640120dff8401d0865dff83c0d03f083fd002801d001f0e0
S34508003280fbfa0020089008a9dff8240d04f0fcfa002801d001f0f0fadff8740b009006200190022002907f20039004200490002005906946dff8f80c03f05aff002801d01d
S345080032c001f0dafadff8e40c00900c2001906946dff8dc0c03f04cff002801d001f0ccfadff80c090090122001906946dff8c00c03f03eff002801d001f0befadff80c0b3a
S345080033000090182001906946dff8a40c03f030ff002801d001f0b0fadff8980c00904ff4807001906946dff8880c03f021ff002801d001f0a1fadff8240800904ff48370f0
S3450800334001906946dff8680c03f012ff002801d001f092fadff8940800904ff4867001906946dff84c0c03f003ff002801d001f083fadff8e40700904ff489700190694665
S34508003380dff82c0c03f0f4fe002801d001f074fadff8b00a00904ff48c7001906946dff8100c03f0e5fe002801d001f065fa7f21dff8fc0b04f01bfa002801d001f05cfa3a
S345080033c009228549dff8e80b03f028fe0cb010bd1c6a0140342c0140886b01408c6b0140000004400000f0400088c340dc46ce853b5e2b3f6eae91511b1d4b3f67462b7502
S345080034003da2753e0000f03f10b588b0202100226c46200003f02cfbdff88c0cdff8dc1c08605ff41010dff8d41c48600020dff8cc1c88600020dff8c41cc8600020dff82c
S34508003440bc1c08610120dff8b41c48610420dff8ac1c88610020dff8a41c08770120dff89c1c48770620dff8941c08620020dff88c1c81f824000020dff8801cc86200200b
S34508003480dff8781c08630120dff8701c81f838000020dff8681cc8630120dff8601c81f840001420dff8541c48644020dff84c1c88640020dff8441cc8640120dff83c1c9b
S345080034c00865dff8380c03f05bfc002801d001f0d3f9dff80408009006200190022002907f20039004200490002005906946dff80c0c03f03dfe002801d001f0bdf9dff876
S34508003500000c00900c2001906946dff8f00b03f02ffe002801d001f0aff9dff8e80b0090122001906946dff8d40b03f021fe002801d001f0a1f9dff8a807009018200190fa
S345080035406946dff8b80b03f013fe002801d001f093f9dff8b40b00904ff4807001906946dff8980b03f004fe002801d001f084f9dff8e00500904ff4837001906946dff872
S345080035807c0b03f0f5fd002801d001f075f97f21dff8680b04f02bf9002801d001f06cf906220e49dff8540b03f038fd08b010bd946b0140661271c0245d0020645d00201b
S345080035c016df3553291a183f3565b64a01803b3fbd30cc1bbda0393fe85c0020705d002052533f2d0e803b3faabd469a91a4283f4c1002400008004830b59bb004001421c4
S3450800360000226d46280003f033fa5421002206ad280003f02dfa2068b0f1a04f40f092804ff4004006905ff00050179006a804f003fa002801d001f01ff9dff8c80b006867
S34508003640401cdff8c01b0860dff8b80b006801280ed1dff8b40b006850f40050dff8a81b0860dff8a40b006810f4005005900598dff8940b006850f00400dff88c1b0860ac
S34508003680dff8840b006810f0040005900598dff8780b006850f00100dff86c1b0860dff8680b006810f00100059005980520009003200190002002906946dff8500b02f05c
S345080036c0affc0f200090032001900020029069465ff0904002f0a4fcdff8340bdff8341b08600520dff82c1b48600020dff8241b88600020dff81c1bc8608020dff8141be3
S3450800370008614ff48070dff80c1b48614ff48060dff8001b88612020dff8f81ac8610020dff8f01a0862dff8ec0a04f079fb002801d001f0a1f8dff8dc0a6065dff8d40a8e
S345080037408462fee12068dff83415884240f0ac804ff4004006905ff00050179006a804f06bf9002801d001f087f8dff8980a0068401cdff8901a0860dff8880a00680128ba
S345080037800ed1dff8840a006850f40050dff8781a0860dff8740a006810f4005005900598dff8640a006850f00400dff85c1a0860dff8540a006810f0040005900598dff857
S345080037c0480a006850f00100dff83c1a0860dff8380a006810f0010005900598dff8280a006850f00200dff8201a0860dff8180a006810f0020005900598382000900320ab
S345080038000190002002906946dff8000a02f008fcd0200090032001900020029069465ff0904002f0fdfb48f20400009003200190002002906946c44802f0f2fbdff8d8098d
S34508003840dff8d81908602420dff8d01948600020dff8c81988600020dff8c019c8608020dff8b81908614ff48070dff8b01948614ff48060dff8a41988612020dff89c190d
S34508003880c8610020dff894190862dff8900904f0c7fa002801d000f0efffdff880096065dff8780984624ce12068dff8fc15884240f0ae805ff4803006905ff000401890cf
S345080038c006a804f0b9f8002801d000f0d5ffdff850090068401cdff848190860dff84009006801280ed1dff82009006850f48040dff814190860dff81009006810f4804092
S3450800390005900598dff80009006850f00800dff8f8180860dff8f008006810f0080005900598dff8e408006850f01000dff8d8180860dff8d408006810f0100005900598f0
S34508003940dff8c408006850f00200dff8bc180860dff8b408006810f00200059005984ff4f840009003200190002002906946dff8b40802f055fb4ff40650009003200190d8
S34508003980002002906946dff8a00802f049fb4ff400500090032001900020029069466a4802f03efbdff88408dff8841808602520dff87c1848600020dff8741888600020ad
S345080039c0dff86c18c8608020dff8641808614ff48070dff85c1848614ff48060dff8501888612020dff84818c8610020dff840180862dff83c0804f013fa002801d000f00a
S34508003a003bffdff82c086065dff82408846298e02068dff89416884240f093805ff4803006905ff00040189006a804f005f8002801d000f021ffdff8e8070068401cdff81e
S34508003a40e0170860dff8d807006801280ed1dff8b807006850f48040dff8ac170860dff8a807006810f4804005900598dff89807006850f01000dff890170860dff8880751
S34508003a80006810f0100005900598dff87c07006850f00800dff870170860dff86c07006810f00800059005984ff4b840009003200190002002906946dff86c0702f0b0facc
S34508003ac04ff44070009003200190002002906946dff8500702f0a4fadff8640cdff8f41c08602620dff8ec1c48600020dff8e41c88600020dff8dc1cc8608020dff8d41ca2
S34508003b0008614ff48070dff8cc1c48614ff48060dff8c01c88612020dff8b81cc8610020dff8b01c0862dff8ac0c04f079f9002801d000f0a1fedff89c0c6065dff8940c3b
S34508003b4084621bb030bd0000000400484810024004006008020030040800900c1000c01010b58cb0302100226c46200002f080ffdff8d00bdff8a01c0860dff89c0c00f0ba
S34508003b80cbfe002801d000f077fe0220009000208df8040000208df8050000200290002003900020049002200590022006900020079000226946dff8600c00f01eff002843
S34508003bc001d000f059fe00226946dff84c0c04f0bffa002801d000f04ffe0021dff8380c00f0b0fe0cb010bd74540020400020190001802110b58cb0302100226c46200010
S34508003c0002f036ffdff8140cdff8141c0860dff8100c00f081fe002801d000f02dfe0220009000208df8040000208df805000020029000200390002004900220059002207c
S34508003c4006900020079000226946dff8d40b00f0d4fe002801d000f00ffe00226946dff8c00b04f075fa002801d000f005fe0021dff8ac0b00f066fe0cb010bd000100500b
S34508003c8081b00168dff8bc2a91420fd1dff8940b006850f48030dff88c1b0860dff8840b006810f480300090009813e00068dff86c1b88420ed1dff86c0b006850f40030fe
S34508003cc0dff8601b0860dff85c0b006810f400300090009801b0704700106032000052470080f03e18b597b00c2100226c46200002f0befe1c21002210ac200002f0b8fee3
S34508003d003421002203ac200002f0b2fedff8180bdff8181b08600020dff8101b48600020dff8081b886048f23f30dff8001bc8600020dff8f81a08610020dff8f01a486176
S34508003d400020dff8e81a8861dff8e00a04f064fb002801d000f090fd0020009000200190002002906946dff8c40a05f035f8002801d000f081fd60201090002011900220d6
S34508003d80129000201390002014900020159000201690002210a9dff8940a04f04bfd002801d000f069fd00200390002004900020059000200690002007904ff400500890b2
S34508003dc00020099000200a9000200b905ff000700c9000200d9000200e9000200f9003a9dff8480a05f059f8002801d000f044fd0021dff8380a04f04cfbdff8300a00f037
S34508003e0023f818b010bd0000e05400200002b0252000f01481b00068dff80c1a88420ed1dff80c0a006850f40060dff8041a0860dff8fc09006810f400600090009801b05f
S34508003e40704700000008302e38b586b004001421002201ad280002f00bfe2068dff8c81988421ed1dff8a003006850f01000dff898130860dff89003006810f01000009041
S34508003e8000984ff4007001900220029000200390012004900220059001a9dff88c0302f0bff807b030bd00000004005080b5dff88409dff8841908604ff48270dff8781982
S34508003ec048600020dff8701988604ff4e060dff86819c8600220dff8601908610120dff8581948614ff40070dff84c1988613820dff84419c8610020dff83c190862002051
S34508003f00dff8341948620020dff82c1988620720dff82419c8620020dff81c1908630020dff814194863dff8100905f033f8002801d000f0a1fc01bd38b586b00400142104
S34508003f40002201ad280002f093fd2068dff8e418884229d1dff8e408006850f40040dff8dc180860dff8d408006810f4004000900098a548006850f00400a3490860a2485a
S34508003f80006810f00400009000984ff4e05001900220029001200390002004900620059001a99a4802f03cf807b030bd8000501d4c5500200004002a80b5dff88408dff8e3
S34508003fc0841808604ff48070dff8781848605020dff8701888600020dff8681808610020dff86018c8600020dff8581848610020dff850188861dff84c0800f0a3fe002803
S3450800400001d000f039fc01bd80b5dff83c08dff83c1808604ff48070dff8301848605020dff8281888600020dff8201808610020dff81818c8600020dff8101848610020a3
S34508004040dff808188861dff8040800f07bfe002801d000f011fc01bd80b5dff8f407dff8f41708600020dff8ec1748605020dff8e41788600020dff8dc1708610020dff8eb
S34508004080d417c8600020dff8cc1748610020dff8c4178861dff8bc0700f054fe002801d000f0eafb01bd00000005005080b5dff8a807dff8a81708600020dff8a0174860d5
S345080040c05020dff8981788600020dff8901708610020dff88817c8600020dff8801748610020dff878178861dff8700700f02afe002801d000f0c0fb01bd0000b855002074
S34508004100002090360040c03a0000214338b586b00400142100226d46280002f0a9fc2068dff81c17884216d13748006850f00200354908603448006810f002000590059893
S345080041400220009003200190002002906946394801f066ff53e02068dff8ec16884216d12948006850f00400274908602648006810f00400059005980220009003200190e7
S34508004180002002906946214801f04aff37e02068dff8bc16884216d11b48006850f00200194908601848006810f002000590059801200090032001900020029069461d48f6
S345080041c001f02eff1be02068dff88c16884216d10d48006850f002000b4908600a48006810f00200059005984ff400600090032001900020029069460e4801f011ff07b0e7
S3450800420030bd0000a05d00204c1002400008004808000240ec560020440002404c570020a45d0020000c0048001000481c000240ac5700200004004818b5b5b00c21002268
S345080042406c46200002f014fc102100220aac200002f00efc1021002206ac200002f008fc6021002216ac200002f002fc0c21002203ac200002f0fcfb1c2100222eac200047
S3450800428002f0f6fb202100220eac200002f0f0fbdff8cc05dff8cc1508600020dff8c41548600020dff8bc158860dff8b80500f0dffe002801d000f0dffa0c21dff8a40533
S345080042c000f06aff002801d000f0d6fa0a21dff8940500f09fff002801d000f0cdfa0021dff8800501f0bff8002801d000f0c4fa0020009000200190012002906a46022112
S34508004300dff8600501f05bf9002801d000f0b4fa6a460221dff84c0501f0caf8002801d000f0aafa01200a9002200b9000200c9000200d900aaa0221dff8280500f0aaffb7
S34508004340002801d000f098fa01220221dff8140501f0c2f9002002906a460421dff8040501f02df9002801d000f086fa6a460421dff8f00401f09cf8002801d000f07cfa67
S345080043800aaa0421dff8dc0400f084ff002801d000f072fa01220421dff8c80401f09cf9012002906a460821dff8b80401f007f9002801d000f060fa6a460821dff8a4047b
S345080043c001f076f8002801d000f056fa0aaa0821dff8900400f05eff002801d000f04cfa01220821dff87c0401f076f96a461021dff8700401f0e3f8002801d000f03cfa39
S345080044006a461021dff85c0401f052f8002801d000f032fa0aaa1021dff8480400f03aff002801d000f028fa01221021dff8340401f052f94ff4d260069000200790052044
S3450800444008900820099006aa0621dff8180400f003ff002801d000f00ffa0020169000201790002018900020199001201a9000201b9000201c9000201d9000201e900020ec
S345080044801f905ff00060209000202190002022905ff00050239000202d9016aa0621dff8c40301f05ef9002801d000f0e5f94ff40c70039003ab01220621dff8a80301f0bd
S345080044c0dbf9002801d000f0d7f94ff48c60039003ab02220621dff88c0301f0cdf9002801d000f0c9f94ff45270039003ab04220621dff8700301f0bff9002801d000f02f
S34508004500bbf91020099006aa0021dff8580300f0a3fe002801d000f0aff900202e9000203190002034902eaa0021dff8380301f07cf9002801d000f09ff900201690002050
S34508004540179000202490082025900020269000202790002028905ff080702a9010202b9000202c9016aa0021be4801f0faf8002801d000f081f91020259020202b9016aac3
S345080045800121b84801f0edf8002801d000f074f90220259040202b9016aa0221b14801f0e0f8002801d000f067f9042025900020289080202b9016aa0321aa4801f0d1f823
S345080045c0002801d000f058f903ab01220021a54801f052f9002801d000f04ef900200e9080200f900820109000201190002012902020139000201490002015900eab012298
S345080046000021984801f051fa002801d000f034f94ff480700f900eab04220121914801f044fa002801d000f027f94ff400700f900eab102202218b4801f037fa002801d0e7
S3450800464000f01af94ff480600f900eab40220321844801f02afa002801d000f00df90020079006aa01217f4800f0f6fd002801d000f002f92eaa01217a4801f0d6f800289e
S3450800468001d000f0f9f803ab01220121754801f0f3f8002801d000f0eff806aa0221714800f0dafd002801d000f0e6f82eaa02216c4801f0baf8002801d000f0ddf803ab06
S345080046c001220221674801f0d7f8002801d000f0d3f806aa0321634800f0befd002801d000f0caf82eaa03215e4801f09ef8002801d000f0c1f80020039003ab01220321fb
S34508004700584801f0b9f8002801d000f0b5f8554800f01af836b010bd81b00068504988420bd14348006850f08060414908604048006810f080600090009801b07047000004
S34508004740300002400008005038b586b00400142100226d46280002f08bf920684049884236d13048006850f001002e4908602d48006810f00100059005982a48006850f086
S345080047800200284908602748006810f00200059005984ff4a06000900220019001200290012003900d20049069465ff0904001f037fc4ff4a040009002200190012002904c
S345080047c0012003900d2004906946274801f028fc07b030bd0c58002080b524482449086000202349486040f6ff702149c86040f6ff701f4988601e4801f01afd002801d09e
S3450800480000f03af801bd80b500681a49884201d104f0a6ff01bd0000fc5c0020000c0050105d00204c100240002c0140c858002060100240003c0040245600205810024079
S3450800484000020140885b002008020140ac5b00200c020140d05b002014020140f45b002000680140704d00200004004800300040345d00200010004072b6fee710b50024d9
S34508004880032002f07cf90f2004f076ff002801d0012401e004f0c8ff2000c0b210bd1349096831f0300108431049086070470f49096831f0020108430c490860704710b55c
S345080048c00a48006850f001000849086004f0d4ff040006480068000706d404f0cdff001b0b28f6d3032000e0002010bd3000014038b5040004f0c0ff050014f1010f02d0cc
S3450800490004480068041904f0b7ff401ba042fad331bd00bf5000002010b50400002c01d101200ee02079002804d1002060712000fff7a6f9022020710020206101202071af
S34508004940002010bd38b505000c006879012801d1022034e0012068710220287128680168012214f0100082401143286801600120fff7beff002c0cd12868006810f03e002d
S34508004980022817d12868406850f001002968486010e02868006810f47810022114f0100411fa04f4a04205d12868406850f00200296848600120287100206871002032bd46
S345080049c078b4002400940468e56b4ff4807611f01004a640354200680090002904d1009812180832009203e0009812181432009200980360002072bc70472de9f04107000f
S34508004a000d001400e8690128a86804287879012801d1022000e10120787102203871a868042850d104f028ff0600002c17d13868406b00040cd504f01fff801b0228f6d36b
S34508004a40386950f008003861032038710320e3e00120fff74dff686a3968086416e03868406b00280cd504f007ff801b0228f6d3386950f008003861032038710320cbe0c4
S34508004a800120fff735ff686a396848643868816c40f2ff3214f0100082409143aa6a14f0100082401143386881643868c16cff2214f0100082409143ea6a14f0100082405f
S34508004ac011433868c164e86901280dd13868816b1f2214f01000824091432a6a14f0100082401143386881633868c66b072114f0100081408e43a869012801d100210ae0c8
S34508004b00a869022801d1012105e06869002801d1012100e00021d5f80880686950ea080851ea08084ff4807114f0100081408e432879012802d14ff4807000e0002050eac6
S34508004b4008084ff4007114f0100081408e436879012802d14ff4007000e0002050ea080836f44046286802280ed104f08bfe2b49884202d356f4004608e02949884202d381
S34508004b8056f4804602e001e02868064314f0100018fa00f858ea06063868c663386801684ff4804214f0100082409143386801603868016840f6fe7214f0100082409143f4
S34508004bc0ea6814f01000824011433868016038680168c02214f010008240914338680160e868c0f383012869800110f4706001433868026e40f60f7314f0100083409a4367
S34508004c0014f0100411fa04f414433868046601203871002078710020bde8f0810168890901b4c404dff8f41309680843dff8ec1308607047dff8e81309680843dff8e01382
S34508004c4008607047dff8d413096831ea0000dff8cc1308607047dff8c813096831ea0000dff8bc1308607047dff8b81309680843dff8b01308607047dff8ac13096808437c
S34508004c80dff8a41308607047dff89813096831ea0000dff8901308607047dff88c13096831ea0000dff8801308607047dff87c1309680843dff8741308607047dff870130e
S34508004cc009680843dff8681308607047dff85c13096831ea0000dff8541308607047dff85013096831ea0000dff8441308607047dff8401309680843dff838130860704710
S34508004d00dff8341309680843dff82c1308607047dff82013096831ea0000dff8181308607047dff81413096831ea0000dff8081308607047dff8041308607047dff800130d
S34508004d40086070477cb50400002000900025002c01d1012532e120680068002801d501252ce1607f002806d100202077002020622000fff7cbf92068006810f40000a26895
S34508004d8061680a4361690a43e1680a4321690a4321680b68dff8ac120b401a4321680a6021680968090213d5002811d1dff898020068dff89812b0fbf1f1491c1420414324
S34508004dc0009102e00098401e009000980028f9d12068dff87c12884202d15ff4001627e02068dff87012884202d15ff480061fe02068dff86412884202d15ff0005617e0c4
S34508004e002068dff85812884202d15ff080460fe02068dff84c12884202d15ff0004607e02068dff84012884201d1012600e00226207e10f0030f00f09e80207ec00611d5a0
S34508004e402068dff82012884204d02068dff81812884203d13000fff731ff14e03000fff725ff10e02068dff8fc11884204d02068dff8f411884203d13000fff730ff02e007
S34508004e803000fff723ff207e800611d52068dff8d411884204d02068dff8cc11884203d13000fff72dff12e03000fff721ff0ee020686c49884203d020686b49884203d1aa
S34508004ec03000fff72eff02e03000fff721ff20686449884203d020686349884203d13000fff72cff02e03000fff724ff207e80070fd520685b49884203d020685a49884242
S34508004f0003d13000fff7b8fe12e03000fff7acfe0ee020685349884203d020685249884203d13000fff7b9fe02e03000fff7acfe207ec0070fd520684a49884203d0206869
S34508004f404949884203d13000fff774fe31e03000fff768fe2de020684249884203d020684149884203d13000fff775fe21e03000fff768fe1de020683a49884203d02068fe
S34508004f803949884203d13000fff787fe02e03000fff77afe20683349884203d020683249884203d13000fff756fe02e03000fff749fe607f002801d1012060772800c0b222
S34508004fc076bd81b00100002000900020002901d1012020e00a681268002a01d501201ae04a7f012a16d10a68126852f001020b681a6002224a77144909681c4ab1fbf2f2a9
S3450800500005214a4300920099002904d00099491e0091f8e70120c0b201b070470004014020040140040401402404014008040140280401400c0401402c04014014040140eb
S34508005040340401400f7e00ff54000020400d03000002014004020140080201400c02014010020140140201401802014080841e001cb50400002c01d101208ce0022084f810
S34508005080dd000020c4f8e0000020c4f8e4000020c4f8e8000020c4f8ec000020c4f8f0000020c4f8f4000020c4f8f800207ac00723d52068dff8d41188420ed1dff8d0019f
S345080050c0006850f08060dff8c8110860dff8c001006810f08060009000982068006830f44040216911f44041084330f44050616911f440510843216808602000fff70cfb9e
S34508005100207a800709d52068006830f44070e16811f44071084321680860012084f8dd00002084f8dc00002130e000220b00dbb21c20434304eb0300826100220b00dbb235
S345080051401c20434304eb0300c26100220b00dbb21c20434304eb0300026200220b00dbb21c20434304eb0300426200220b00dbb21c20434304eb0300826200220b00dbb25a
S345080051801c20434304eb03000263491c0800c0b20728cad3002016bd90f8dc20012a01d1022036e0012280f8dc20022280f8dd2011f1010f10d10168d1f8cc1331f0020119
S345080051c00268c2f8cc130168d1f8cc1351f001010268c2f8cc1318e00268d2f8cc2352f002020368c3f8cc230268d2f8cc2332f00c0211430268c2f8cc130168d1f8cc1316
S3450800520051f001010268c2f8cc13012180f8dd100020704770b505000c0004f02dfb06002868d0f88803c0030ed414f1010ff7d004f022fb801b844201d3002cf0d10720a6
S3450800524085f8dd00032006e0012085f8dd00002085f8dc00002070bd10b5040094f8dd00022801d1022010e0022084f8dd00062904d11100200000f06bfc02e0200000f043
S345080052807afc012084f8dd00002010bd006801406010024070b490f8dd30022b01d10220dfe090f8dc30012b01d10220d9e0012380f8dc30022380f8dd300368d3f8d04307
S345080052c00368d3f8d433157815f001051668c6f3400601290ad002291dd0042933d0082949d010295fd0202972d089e034f0fe04117911f002010c4354ea850433f48033b8
S3450800530053ea0643117a11f078010c43117b11f080010c437ae034f47e445168090211f400710c4354ea852433f4003353ea46439168090211f4f0410c43d168090211f482
S3450800534000410c4362e034f47e045168090411f400310c4354ea854433f4802353ea86439168090411f4f0010c43d168090411f400010c434ae024f07e445168090611f0d2
S3450800538000710c4354ea856433f4002353eac6439168090611f0f0410c43d168090611f000410c4332e033f0fe03117911f002010b4353ea850333f4801353ea0653117a54
S345080053c011f078010b43117b11f080010b431de033f47e435168090211f400710b4353ea852333f4001353ea46539168090211f4f0410b43d168090211f400410b4305e0d4
S34508005400072180f8dd10002180f8dc1090f8dd10072901d1012024e034f080310268c2f8d013dff8501419400268c2f8d4130168d1f8d01334f07f340c430168c1f8d043c5
S345080054400168d1f8d42348f280010b4013430168c1f8d433012180f8dd10002180f8dc10002070bc704790f8dd20022a01d102201de090f8dc20012a01d1022017e0012202
S3450800548080f8dc20022280f8dd200268d2f8d42332f0407211f0407111430268c2f8d413012180f8dd10002180f8dc100020704790f8dd30022b01d102207fe090f8dc3035
S345080054c0012b01d1022079e0012380f8dc30022380f8dd3001290ad0022916d0042922d008292ed010293ad0202946d053e00168d1f8081489088900926851ea420151f07a
S3450800550001010268c2f808144be00168d1f8081431f44071926851ea422151f480710268c2f808143de00168d1f8081431f44031926851ea424151f480310268c2f80814cf
S345080055402fe00168d1f8081431f04071926851ea426151f080710268c2f8081421e00168d1f80c1489088900926851ea420151f001010268c2f80c1413e00168d1f80c14f3
S3450800558031f44071926851ea422151f480710268c2f80c1405e0072180f8dd10002180f8dc1090f8dd10072901d1012006e0012180f8dd10002180f8dc100020704790f815
S345080055c0dd30022b01d1022085e090f8dc30012b01d102207fe0012380f8dc30022380f8dd3001290ad0022917d0042924d0082931d010293ed020294bd059e00168d1f826
S34508005600081431f0bc01136851ea8301526851eac2110268c2f8081450e00168d1f8081431f43c41136851ea8321526851eac2310268c2f8081441e00168d1f8081431f4ea
S345080056403c01136851ea8341526851eac2510268c2f8081432e00168d1f8081431f03c41136851ea8361526851eac2710268c2f8081423e00168d1f80c1431f0bc0113686f
S3450800568051ea8301526851eac2110268c2f80c1414e00168d1f80c1431f43c41136851ea8321526851eac2310268c2f80c1405e0072180f8dd10002180f8dc1090f8dd1037
S345080056c0072901d1012006e0012180f8dd10002180f8dc100020704710b4cb070ad50368d3f8d0436408640012f001031c430368c3f8d0438b0707d50368d3f8d03362f388
S3450800570008230468c4f8d0334b0707d50368d3f8d03362f310430468c4f8d0330b0707d50368d3f8d03362f318630468c4f8d033cb060ad50368d3f8d4436408640012f0da
S3450800574001031c430368c3f8d443890607d50168d1f8d41362f308210068c0f8d41310bc704770b504000d00160094f8dd00022801d1022058e094f8dc00012801d102205f
S3450800578052e0012084f8dc00022084f8dd00062d04d13100200000f017fa04e032002900200000f060fa30681c2101fb05f12144086270681c2101fb05f121444862b068ee
S345080057c01c2101fb05f121448862f0681c2101fb05f12144c86230691c2101fb05f1214408632900200000f0cffb062d15d0f06a002812d12068802101fb05f10844d0f8c0
S34508005800801031f40071f06d51ea402122688020454302eb0500c0f88010012084f8dd00002084f8dc00002070bd38b504000d0094f8dd00022801d102201ae094f8dc0029
S34508005840012801d1022014e0012084f8dc00022084f8dd002900200000f0eefa2900200000f092fb012084f8dd00002084f8dc00002032bd7f7fffff30b40c0090f8dd10cc
S34508005880022901d102200ee190f8dc10012901d1022008e1012180f8dc10022180f8dd10062c25d1012a06d0022a08d0042a0ad0082a0cd00fe019680268d16111e0196882
S345080058c0026851620de019680268916209e019680268d16205e0072180f8dd10002180f8dc1090f8dd10072940f0d6800120dae0012a06d0022a0dd0042a61d0082a68d0db
S34508005900bee01a68036880214c4303eb0401c1f89c20bbe019680268802505fb04f52a44c2f8a4105968002939d00168802202fb04f21144d1f8801031f4405102688025d2
S3450800594005fb04f52a44c2f880100168802202fb04f21144d1f8802059680a430168802505fb04f52944c1f880205968b1f5005f08d19a68036880214c4303eb0401c1f8e9
S345080059809c201ce05968b1f5405f18d19a68036880214c4303eb0401c1f8a8200fe00168802202fb04f21144d1f8802032f44052036880214c4303eb0401c1f8802065e092
S345080059c01a68036880214c4303eb0401c1f8a8205ce019680268802505fb04f52a44c2f8ac10596800293ad00168802202fb04f21144d1f8801031f440410268802505fb0a
S34508005a0004f52a44c2f880100168802202fb04f21144d1f880105a6851ea82010268802505fb04f52a44c2f880105968b1f5005f08d19a68036880214c4303eb0401c1f8d3
S34508005a409c201ce05968b1f5405f18d19a68036880214c4303eb0401c1f8a8200fe00168802202fb04f21144d1f8802032f44042036880214c4303eb0401c1f8802005e041
S34508005a80072180f8dd10002180f8dc1090f8dd10072901d1012006e0012180f8dd10002180f8dc10002030bc704710b5040094f8dd00022801d1022015e094f8dc000128a3
S34508005ac001d102200fe0012084f8dc00022084f8dd00200000f0e1f9012084f8dd00002084f8dc00002010bd90f8dc20012a01d1022013e0012280f8dc20022280f8dd2032
S34508005b000268d2f8942311430268c2f89413012180f8dd10002180f8dc100020704790f8dc20012a01d1022011e0012280f8dc20022280f8dd200268126811430268116093
S34508005b40012180f8dd10002180f8dc100020704702681368db08db008a68134333f01803ca681343026813600a6803685a61496800688161704730b40368802404fb01f475
S34508005b802344d3f88040e408e40093681c4334f01804d3681c430368802505fb01f52b44c3f8804013680468802505fb01f52c44c4f89430526803688020414303eb010047
S34508005bc0c0f8982030bc704710b4026813680268d2f8a04333f020034a69134333f0c0034a69202a02d08a69022a04d133f0c00353f0200313e08a69032a04d153f0400312
S34508005c0033f080030be08a69042a04d153f0800333f0400303e033f0200333f0c00333f40063ca69134333f480630a6a134333f0c0634a6a134333f000638a6a134323f07a
S34508005c404043ca6a53ea820333f000534a6b134334f48034096b0c4301680b600068c0f8a04310bc7047f0b40368802404fb01f42344d3f8803023f070430468802505fbc3
S34508005c8001f52c44c4f880300368802404fb01f42344d3f880700368802404fb01f42344d3f8e8400368802505fb01f52b44d3f8e4500368d3f8a06337f0200753691f4369
S34508005cc05369202b02d09369022b04d137f4c07757f0200713e09369032b04d157f0800737f480770be09369042b04d157f4807737f0800703e037f0200737f4c07737f474
S34508005d000067d3691f4337f48067136a1f4337f0c067536a1f4337f00067936a1f4327f07047d36a1f4337f40037536bb3f1005f01d157f4003737f04007936b1f4337f428
S34508005d408027936d1f433b4b1f40136d1f43a409a40192f83c3013f03f031c4324f00044136c1c4335f48075536c1d43936cb3f5606f03d0936cb3f5f05f02d1936b402b6b
S34508005d8003d135f4f055936c1d4335f48045d36c1d43536d002908d0022912d00bd304291bd014d305291ed023e036f40036126b56ea42061de036f48026126b56ea820666
S34508005dc017e036f40026126b56eac20611e036f48016126b56ea02160be036f40016126b56ea421605e036f48006126b56ea8216ffe702685ff0800c0cfb01fc6244c2f88a
S34508005e0080700268802707fb01f73a44c2f8e8400268802404fb01f42244c2f8e4500468802251432144c1f8d4300068c0f8a063f0bc7047ffff06fe10b40368802404fb85
S34508005e4001f42344d3f8ec4034f01004136854ea031434f4801453681c4334f48034d3681c4334f4003493681c439369012b0bd134f0040413691c4334f0020453691c4367
S34508005e80640864009269144302688020414302eb0100c0f8ec4010bc7047f0b400240568802606fb01f63544d5f8e4500668802707fb01f73e44d6f8b860012a1ad0022aca
S34508005ec02bd0042a16d0082a27d0102a12d0202a23d0402a0ed0802a1fd0b2f5807f09d0b2f5007f19d0b2f5806f03d0b2f5006f13d024e05a6807685ff0800c0cfb01fc1e
S34508005f006744c7f8bc209a6807685ff0800c0cfb01fc6744c7f8c02011e05a680468802707fb01f73c44c4f8c4209a680468802707fb01f73c44c4f8c8201024ffe7fe2226
S34508005f40a24095431a68a2401543da68a24015431a69a24015435a69a24015439a69a24015431a69082a06d116f0022f03d1da6912fa04f4254302688020414302eb010068
S34508005f80c0f8e450f0bc7047002912d0022922d018d3042931d027d3062901d036d33ee00168d1f8841351f001010068c0f8841335e00168d1f8841351f002010068c0f81d
S34508005fc084132ce00168d1f8841351f004010068c0f8841323e00168d1f8841351f008010068c0f884131ae00168d1f8841351f010010068c0f8841311e00168d1f88413d7
S3450800600051f020010068c0f8841308e00168d1f8841351f040010068c0f88413ffe7704778b4020000243ee0062604e0dff8d4319a42f9d1052614f00303dbb29b009e4075
S345080060403543dff8c4312600b60843f82650dff8bc311b6883434d68ed0200d50343dff8ac512b60dff8a8311b6883434d68ad0200d50343dff898512b60dff898311b6828
S3450800608083434d68ad0300d50343dff888512b60614b1b6883434d68ed0301d5184303005d480360641c0868e040002800f09e8008680123a34018400028f3d00b7913f0f4
S345080060c00303012b04d00b7913f00303022b17d1956803262300dbb25b009e40b543ce682300dbb25b009e403543956053680125a540ab434d68c5f30015a5402b4353601b
S345080061000b7913f00303032b0dd0d56803262300dbb25b009e40b5438e682300dbb25b009e403543d5600b7913f00303022b17d12300db0802eb83031d6a0f2614f0070301
S34508006140dbb29b009e40b5430e6914f00703dbb29b009e4035432300db0802eb83031d62156803262300dbb25b009e40b5430e7916f003062300dbb25b009e403543156025
S345080061804b6813f4403f8dd0244b1b6853f00103224d2b60214b1b6813f001030093009b194b2500ad0853f825500f2614f00303dbb29b009e40b543b2f1904f01d100262f
S345080061c039e7174b9a4201d1012634e7154b9a4201d102262fe7144b9a4201d103262ae7124b9a427ff422af042624e771bc7047d2b2002a02d089b2816101e089b281625a
S34508006200704700000014004808000140080401400c0401400404014000040140601002400004004800080048000c00480010004838b50400002c01d101202fe04cf6cc4061
S345080062402168086045f2555021680860606821684860a0682168886003f00efb05002068c06810f0070f0bd003f006fb401b3228f5d32068c06810f0070ff0d003200de037
S3450800628020680069e168884203d0e0682168086103e04af6aa2021680860002032bd4af6aa2100680160002070470ee002684368024408305feac37c44bf4b445b1e52f8c9
S345080062c004cb43f804cb091ff9d150f8041b0029ecd17047c0f3c75181b1ff2906d0c110400721f0e04101f16051704741020cbf40f4e0016ff000410020704700f0004157
S3450800630000020ad0b0fa80fc00fa0cf001f16051a1eb0c5101ebd0214005704730b540f2ff7c1cea11541dbf1cea1355644565453fe0641981ea030c6ff35f530cf0004ce6
S3450800634043f48013c90241f0004141ea505ec5021100a5fb020200284ff00000eefb01204ff00001e3fb052118bf42f00102401800214941e3fb0e01a4f580640d0302d2a1
S3450800638092184041494154f1010470dd450872f1004250f1000051eb0451a1f5801102d441ea0c0130bd40f2ff7e4cea0e51002030bd0cea1355644518bf654581ea030c4a
S345080063c00cf0004c41d050ea410e1cbf52ea430e02e06146002030bd24422c441bd15fea050ef6d0090302bf01460020aef1140eb1fa81f5aeeb050401fa05fe0c35c5f11e
S34508006400200100fa05f5c8404eea000e6ff35f5343f480139ce733f00043b3fa83f504bfb2fa82fe75440b3d641bb5f1200e2fbf02fa0ef3ab40c5f1200e22fa0efe38bfe3
S3450800644043ea0e03aa40641c7ce750ea410e14bf52ea430e6ff000014ff4001515eb430f8ebf194615eb410f9de7b4d830bdd4f10104b4f120050fdac4f12005520828bf7f
S3450800648042f0010210fa05fe01fa05f57244e2bfe0402843e1400fe0352c9adcc5f1200452ea400220fa05f218bf42f0010231fa05f0a1400a43002172f1004250f1000004
S345080064c051eb0c0130bd0000f0b540f2ff7581ea030c0cf0004c15ea11541dbf15ea1357ac42af42e5e0bc41c1f31301c3f31303801a994143f4801304d2641e0018494135
S3450800650080185941c90241ea5051b1fbf3f603fb1611a2fb0675d7ebc020a94102d2761e80185941c90241ea5051b1fbf3fe03fb1e11a2fb0e75d7ebc020a94103d2aef10b
S34508006540010e80185941890241ea9051760546ea8e2eb1fbf3f603fb1611a2fb0675d7eb8020a94102d2761e80185941c90241ea50514eea060eb1fbf3f603fb1611a2fbdc
S345080065800675d7ebc020a94102d2761e80185941c90241ea5051b1fbf3f703fb1711a2fb0735d3ebc020a94167f100070cbf004247f0010766f3d5274fea1e31b80814f527
S345080065c0806412ddbd0775f1004250eb0e5051eb045111f5801f5cbf41ea0c01f0bd4cf07f6141f0e0410020f0bdbd076d0840ea0e5041f48011d4f10104b4f120060ada44
S34508006600c4f120060200e04001fa06f3e1401843b24015430ee0342c13dcc6f1200445ea40056d0820fa06f2154321fa06f0a1400d43002175f1004250f1000051eb0c0195
S34508006640f0bd00205fea0c01f0bdcfb992185b41b3fa83f704bfb2fa82f6bf190b3fb7f120062fbf02fa06f3bb40c7f1200622fa06f638bf3343ba401cb1e419641e33e7cf
S345080066807f4231f00041b1fa81f404bfb0fa80f6a4190b3cb4f120062fbf00fa06f1a140c4f1200620fa06f638bf3143a0403c1b1ae7ac421abf05ea1357af4212e050ea46
S345080066c041061cbf52ea4306bfe750ea4107304661461cbf41ea0551f0bd52ea430c08bfc143f0bd00204ff4001616eb410f98bf16eb430f08bf16eb410f24bfc14305e03c
S3450800670016eb430f0cbf61464cea0551f0bd0000c1f30a5340f21e42d31a0cddca0283f3070342ea505242f00042da4002ebe17282eae17070476feae17203f2e13008b10d
S3450800674082f000407047000050b1b0fa80f18840c91cc1f58461090501ebd021400570470146704770b491ea030f4ff0004540f1bf806b40841a71eb030604d26e40001b67
S34508006780b141121973414ff4001c1ceb410f34bf7ceb430683e00c0da4eb1356362e00f37c80012e45eac32341dc43ea525312bfd20292025b08240545eac12141ea505105
S345080067c0d2ebc020994125d407d1b0fa80f610fa06f162d00020203608e0b1fa81f6b140c6f1200220fa02f21143b0404feaf474b4eb465434f001064fea74040ad8d6f5f1
S345080068000016760d04f00044f04061fa06f25040f1404840c00a40ea415021f0004128bf5fea500550f1000044ebd12135e0db0a45eac121c90ab6f120050edd42ea0242ea
S34508006840120cc5f1200603fa06f6eb4042ea06056d42984161f100010de062fa06f5f240554063fa06fc82ea0c02f3405a406d42904161eb030111f4801f05d1641e6205f6
S3450800688002d06d004041494121f48011430875f1004350f1000041eb045170bc70471ceb410f15d223f0004352ea43060bd04fea4c0cbceb410f04d80c0d661e342eb7dd56
S345080068c0ebe7801a994150ea410608bf0021e4e708bf1ceb430f28bf6ff00001dde7000070b491ea030f4ff000457ff543af6b40841a71eb030603d2001bb14112197341db
S345080069004ff4001c1ceb410f34bf7ceb430442e00c0da4eb1356352e4fdc45eac323db0a45eac121c912b6f120050ddd63fa05f6eb4086ea0305124218bf45f00105c0185c
S3450800694051f100010cd213e062fa06f5f2405540f3415a40b340f3405a408018594107d349085fea30005fea350528bf45f0010501f58011420875f1004250f1000041ebe8
S3450800698004514e0016f5001f70bc38bf70470020090d090570471ceb410f10d252ea43060bd0bceb410f05d80c0dab43661e342eb6dd02e0ab438018594170bc704770bc29
S345080069c07047000041ec100b01bd80b551ec100b03f0faf8f6e780b551ec100b03f0f6f8f0e7000001f000428b1aa3f16051b1f5801f0adbb1f17f6f1fd242eac102c100c0
S34508006a0071f1004142eb507070470b15c3f10903212b10d2890241ea905180020128494141f0004121fa03f0c3f12003994071f1004150417047100070476ff0000013ebe8
S34508006a40103f5cbf000e42eac050704710f0004160b148bf4042b0fa80f29040d21cc2f5846241ea025202ebd02140057047000062f30f2262f31f42401810f0030308d080
S34508006a80c91a1fd3db0748bf00f8012d28bf20f8022d130030b414461546103928bf20e93c00fad8490728bf20e90c0048bf40f8042d890028bf20f8022d48bf00f8012d23
S34508006ac030bc7047c91818bf00f8012dcb0728bf00f8012d7047000010f0070034490a684ff6ff010a4052ea0022324802433048026070472e480068c0f3022070470000d4
S34508006b00010049b2002908d4012210f01f018a40294940b2400941f820207047020052b2002a04d40901254a40b2115407e00901234a40b210f00f00104400f8041c704702
S34508006b4010b410f00700d0f10703052b01d3042301e0d0f10703041d072c01d2002000e0c01e012414fa03f35b1e19408140012313fa00f0401e1040084310bc704780b507
S34508006b80fff7aaff01bd70b504000d001600fff7b1ff32002900fff7d3ff0100200040b2fff7bcff70bd80b540b2fff7a9ff01bd0ced00e00000fa0500e100e000e400e084
S34508006bc018ed00e0826832f47c12114381607047826832f0e072114381607047806810f0e070704710b410f1600414eb81042168dff81004014012f0f8420a431a4352f055
S34508006c000042226010bc7047603010eb8100006810f0f8407047603010eb8100016821f000410a4302607047603010eb8100016831f080710a4302607047603010eb810076
S34508006c40016831f000710a4302607047426922f00042114341617047c06810f4406f01d1012000e00020704730b410f130030800800910f00c00c3181c681f2511f01f00fc
S34508006c808540ac43c2f3846011f01f0110fa01f12143196030bc704730b414300b00db0d13f004031818036807240d002d0d15f01f05ac40a343090d11f01f0112fa01f17a
S34508006cc01943016030bc7047dff83c339a4207d1d0f8b0204903490b1143c0f8b01007e0d0f8b0204903490b32ea0101c0f8b0107047806810f01f0070478268dff80c131e
S34508006d000a40826070478068400f10f0010070478268dff8fc120a4052f08052826070478068000f10f0010070478268dff8e0120a4052f00102826070478268dff8d01280
S34508006d400a4052f0020282607047806810f0010070478068400810f0010070478268dff8b0120a4052f00402826070478068800810f0010070478068c00810f00100704716
S34508006d807cb50400002600200090002c01d1012036e16069002802d094f824000128e06d002807d12000fcf727fc00202066002084f858002068fff7a6ff002802d0206826
S34508006dc0fff79bff2068fff7abff002813d12068fff79effdff83c020068dff83c12b0fbf1f0401c4000009002e00098401e009000980028f9d12068fff792ff002808d14a
S34508006e00e06d50f01000e065206e50f00100206601262068fff7aaffe16dc90600f1e980002840f0e680e06d30f4807050f00200e0652068fff789ff00283ed12068b0f13c
S34508006e40a04f04d02068dff80413884202d1dff8000301e0dff8fc02dff8f41288420ad15ff0a040fff771ff0500dff8e002fff76cff05430ee0dff8e002fff766ff050019
S34508006e80dff8d802fff761ff0543dff8d402fff75cff0543002d10d12068b0f1a04f04d02068dff8a812884202d1dff8a40201e0dff8a0026168fff785fe607fe16b51ea00
S34508006ec04031e0680143a068014394f8240051ea004194f82400012803d1a06a401e51ea4041e06a002805d0e06a10f478700143206b01432068c268dff868020240114325
S34508006f002068c1602068016931f04061606b0143206801612068fff729ff05002068fff72aff0543002d4ad1207f94f83810490051ea80312068c268dff82c020240114316
S34508006f402068c1602069002810d02068006950f48030216808612068d0f8c010890b8903206901432068c0f8c0100de02068006930f48030216808612068d0f8c000800b96
S34508006f8080032168c1f8c00094f84000012810d1206801696ff38a01606c0143a06c0143e06c0143206d014351f001012068016105e0206800694008400021680861606982
S34508006fc0012809d12068006b00090001216a491e08432168086305e02068006b0009000121680863e06d30f0020050f00100e06504e0e06d50f01000e06501263000c0b2f8
S3450800700076bd000000f0ff0300007f40c0ffff5fc0ffff7f54000020400d03002de9f04105000e0017002868b0f1a04f03d028684649884201d1464800e04648fff759fed8
S3450800704004002868fff792fe002877d195f85800012801d1022075e0012085f8580028683f49884205d0002c03d0052c01d0092c5ed1280000f0d4fa80464046c0b2002843
S3450800708052d1e96ddff8e400014051f48071e96528682e49884202d15ff0a04006e028682e49884201d12c4800e028682968884201d0002c03d1e86d30f48010e865e86db2
S345080070c0c00404d5286e30f00600286601e000202866dff80c05696dc862dff80805696d0863dff80405696d48631c2029680860002085f858002868406850f0100029685b
S3450800710048602868c06850f001002968c8603b003200286810f14001686d00f0edfe80462868fff71bfe0be0002085f8580007e05ff00108002085f8580001e05ff0020845
S345080071404046c0b2bde8f081000000000001005000030050000700500004005000050050000600500740f0fffdbffffffef1fffff8b506000f00002500200090f868dff84e
S345080071807c148842ffd196f85800012801d1022025e2012086f858003068fff7e7fd002840f013823a6879683068fff75dfd3068fff7dcfd04003068fff7ddfd0443002c86
S345080071c040f0da80b868b0f1004f0ad1002239683068fff761fd5ff000413068fff736fd08e0ba6839683068fff756fd00213068fff72cfd78693168c968c1f3c101c9b20c
S345080072004b0010fa03f33869042815d03a6839693068fff7e7fcba6939693068fff704fd387f012802d15ff0007200e0002239693068fff702fd9fe000213068fff7e4fc87
S34508007240400306d100213068fff7defcc0f3846007e000213068fff7d7fc90faa0f0b0fa80f03968490303d13968c1f3846104e0396891faa1f1b1fa81f1884204d10022ae
S3450800728000213068fff7c7fc01213068fff7bcfc400306d101213068fff7b6fcc0f3846007e001213068fff7affc90faa0f0b0fa80f03968490303d13968c1f3846104e07e
S345080072c0396891faa1f1b1fa81f1884204d1002201213068fff79ffc02213068fff794fc400306d102213068fff78efcc0f3846007e002213068fff787fc90faa0f0b0fa8d
S3450800730080f03968490303d13968c1f3846104e0396891faa1f1b1fa81f1884204d1002202213068fff777fc03213068fff76cfc400306d103213068fff766fcc0f3846051
S3450800734007e003213068fff75ffc90faa0f0b0fa80f03968490303d13968c1f3846104e0396891faa1f1b1fa81f1884204d1002203213068fff74ffc3068fff7e6fc0028c7
S3450800738040f09080fa6839683068fff79dfcf868dff86812884240f085803868400303d13868c0f3846004e0386890faa0f0b0fa80f0401c10f01f000a2836d23868400367
S345080073c003d13868c0f3846104e0386890faa0f0b0fa80f13868400303d13868c0f3846004e0386890faa0f0b0fa80f03a68520303d13a68c2f3846204e03a6892faa2f266
S34508007400b2fa82f2491c890611f0f8410123401c10f01f0013fa00f00143521c12f01f020320424351ea025138e03868400303d13868c0f3846104e0386890faa0f0b0fafa
S3450800744080f13868400303d13868c0f3846004e0386890faa0f0b0fa80f03a68520303d13a68c2f3846204e03a6892faa2f2b2fa82f2491c890611f0f8410123401c10f06b
S345080074801f0013fa00f00143521c12f01f020a3a0320424351ea025151f00071ba683068fff7fafb3868dff85811084200f092803068b0f1a04f04d03068dff8301188425a
S345080074c002d1dff82c0101e0dff82801fff786fb01003868dff82c21904204d03868dff8282190422ed108022cd43068b0f1a04f04d03068dff8142190426bd13068b0f162
S34508007500a04f04d03068dff8e420904202d1dff8e00001e0dff8dc0051f40001fff758fbdff8ec000068dff8ec10b0fbf1f1491c0c2041430091009800284bd00098401e86
S345080075400090f8e73868dff8d02090421ed1c8011cd43068dff89420904204d13068dff89820904236d03068b0f1a04f04d03068dff87820904202d1dff8740001e0dff839
S34508007580740051f08071fff723fb23e03868dff88c2090421ed148021cd43068dff84c20904217d03068b0f1a04f04d03068dff83c20904202d1dff8380001e0dff83400e7
S345080075c051f48001fff704fb04e0f06d50f02000f0650125002086f858002800c0b2f2bd1b7700089d770008a77700080001005000030050000700500005005000007f407c
S3450800760000000880000021c31000c0900006005054000020400d0300000052c7000084cb38b504002068fff790fb002834d1206880686ff39e10002809d0e06d50f01000a9
S34508007640e065206e50f001002066012025e02068fff76bfb02f010f9050020680068c0071ad42068fff771fb002802d12068fff75cfb02f001f9401b0328eed320680068d6
S34508007680c007ead4e06d50f01000e065206e50f001002066012000e0002032bd38b505002868fff756fb04002868fff74efb002831d0002c2fd12868806810f00d00012851
S345080076c01fd12868fff739fb03202968086002f0d3f8040028688068c0071cd502f0ccf8001b0328f6d328688068c007f2d5e86d50f01000e865286e50f001002866012082
S345080077000ae0e86d50f01000e865286e50f001002866012000e0002032bd10b5846ae16d11f0500f2fd1e06d50f40070e06520680068000714d52068fff78efa00281ed047
S345080077402068c06880041ad4e06d30f48070e065e06dc00413d4e06d50f00100e0650ee02068c06880070ad4e06d30f48070e065e06dc00403d4e06d50f00100e0652000e4
S34508007780c046c04609e0e16dc90603d52000c046c04602e0616d496b884710bd80b5806ac046c04601bd80b5806ac16d51f04001c165016e51f004010166c046c04601bde1
S345080077c0806810f0010070478368dff8b420134011f08041194351f00041816070478068c00f70478068800810f0010070477cb504000d000020009094f85800012801d153
S3450800780002203ce0012084f858002000fff746ff06003000c0b2002828d1e06d30f4885050f00200e06529002068fff7cdff2068fff7d5ff002812d00098401c0090009828
S34508007840dff840108842f2d3e06d30f0020050f01000e065002084f8580001200fe0e06d30f0020050f00100e06503e0e06d50f01000e065002084f858003000c0b276bdb9
S34508007880c0ffff3f02de04002de9f8419bb005000f0000263868002895f85800012801d10220b7e0012085f8580000201790002018902868b0f1a04f02d15a48009008e012
S345080078c028685b49884202d15548009001e0002000900098002808d1e86d50f02000e865002085f85800012094e00098fff77aff04002868fff776ff0443002c40f080801d
S345080079002868b0f1a04f03d028684649884202d1dff8148101e0dff80481386800283cd0d8f8081031f460417868014395f8380051ea4031c8f808102868b0f1a04f03d0ff
S3450800794028683849884201d1374800e033483649884209d15ff0a040fff732ff04003148fff72eff04430be03148fff729ff04002b48fff725ff04432c48fff721ff0443e7
S34508007980002c42d1d8f808102a48014038680143b8680143c8f8081037e0d8f8080030f46040c8f808002868b0f1a04f03d028681c49884201d11c4800e018481a498842ef
S345080079c009d15ff0a040fff7fbfe04001548fff7f7fe04430be01648fff7f2fe04001048fff7eefe04431148fff7eafe0443002c0bd1d8f808100f480140c8f8081004e078
S34508007a00e86d50f02000e8650126002085f858003000c0b21cb0bde8f0810000000700500005005000010050000300500006005000040050e0f0ffff2de9fc410400002651
S34508007a4000252068000340f183800027dff8b8030068c0000fd4dff8b003006850f08050dff8a4130860dff8a003006810f08050009000980127dff89403006850f480704c
S34508007a80dff88813086001f0f7fe8046dff87c030068c00506d401f0effeb0eb08000328f4d303263000c0b2002845d1dff86003006810f4407000281ad0216d884217d0b2
S34508007ac0dff84c03006830f44070dff84413096851f48031dff838231160dff83413096831f48031dff828231160dff824130860c00710d501f0c0fe8046dff814030068f9
S34508007b00800708d401f0b8feb0eb080041f289318842f2d303263000c0b200280ad1dff8f002016831f44071206d0143dff8e002016002e0350000e03500ffb2012f07d168
S34508007b40dff8c402006830f08050dff8bc1208602078c00709d5dff8bc0201688908890060680143dff8ac0201602078800709d5dff8a002016831f00c01a0680143dff87e
S34508007b80940201602078400709d5dff88802016831f03001e0680143dff8780201602078000709d5dff86c02016831f0c00120690143dff8600201602078c00609d5dff822
S34508007bc05402016831f4407160690143dff8440201602078800609d5dff83802016831f44061a0690143dff82c0201602078400609d5dff82002016831f44051e069014307
S34508007c00dff8100201602078000609d5dff80402016831f44041206a0143dff8f80101602068c00509d5dff8ec01016831f44031606a0143dff8dc0101602068800309d58b
S34508007c40dff8d401016889088900a06a0143dff8c80101602068800509d5dff8b801016831f44021e06a0143dff8a80101602068400515d5dff89c01016831f44011206b0a
S34508007c800143dff890010160206bb0f5801f07d1dff88801006850f48010dff8801108602068000515d5dff86c01016831f44001606b0143dff85c010160606bb0f5800f69
S34508007cc007d1dff85801006850f48010dff84c1108602068c00415d5dff83801016831f04071a06b0143dff82c010160a06bb0f1807f07d1dff82401006850f48010dff8cf
S34508007d001c1108602068800415d5dff80801016831f04061e06b0143dff8f8000160e06bb0f1006f07d1dff8f400006850f48010dff8e81008602068400415d5dff8d4000e
S34508007d40016831f04061206c0143dff8c8000160206cb0f1006f07d1dff8c000006850f48010dff8b81008602068000415d5dff8a400016831f04051606c0143dff8940025
S34508007d800160606cb0f1805f07d1dff89000006850f48030dff8841008602068c00315d5dff87000016821f04041a06c0143dff864000160a06cb0f1804f07d1dff85c00b0
S34508007dc0006850f48030dff8541008602068400315d5dff84400016831f44011e06c0143dff834000160e06cb0f5001f07d1dff82c00006850f48010dff82010086028000d
S34508007e00c0b2bde8f6810000581002400070004090100240881002409c1002400c10024010b50400002c01d1012064e02068dff8f81288420cd22168dff8f0024118142028
S34508007e40b1fbf0f080006064dff8e40220640be02168dff8e00241181420b1fbf0f080006064dff8d4022064022084f82500206801686ff30e11a0680143e0680143206992
S34508007e80014360690143a0690143e0690143206a014320680160200000f01af9a068b0f5804f01d100206060207900f0ff00a16c0860206de16c4860606800280cd060686e
S34508007ec0052809d2200000f01ff90020616d0860e06da16d486005e0002060650020a0650020e0650020e063012084f82500002084f82400002010bd70b50400002594f8eb
S34508007f002400012801d102204ae0012084f8240094f8250001283dd1022084f825000020e063206800684008400026683060200000f0acf8206b002806d02068006850f0f6
S34508007f400e00216808600be02068006830f00400216808602068006850f00a0021680860a06c0068c00305d5a06c006850f48070a16c0860606d002805d0606d006850f468
S34508007f808070616d08602068006850f001002168086003e0002084f8240002252800c0b270bd10b5016c096802681268042390f8444014f01f04a340194219d0530717d58c
S34508007fc001680968890605d40168096831f0040102681160042190f8442012f01f029140026c5160016b00294fd0016b88474ce0022390f8444014f01f04a34019421fd092
S3450800800093071dd501680968890608d40168096831f00a0102681160012180f82510022190f8442012f01f029140026c5160002180f82410c16a002927d0c16a884724e079
S34508008040082390f8444014f01f04a34019421cd011071ad50168096831f00e0102681160012190f8442012f01f029140026c51600121c163012180f82510002180f824107b
S34508008080416b002901d0416b884710bd30b4046dc56c6c60446d002c02d0c46d856d6c60012490f8445015f01f05ac40056c6c60046863608368102b04d103689a6000684a
S345080080c0c16003e0036899600068c26030bc70470168154a914201d2184900e01849027802f0ff02083a1423b2fbf3f2436c9b0811eb830181641349c164012112f01f02d8
S3450800810011fa02f202657047017901f0ff010e4a12eb810242650d4a82650122491e11f01f018a40c265704708040240f8fffdbf00000240f8fbfdbf000402400008024017
S345080081402008024080080240fc080240400902402de9fc4705000f0016005ff00008002d02d15ff00108b6e02879022802d15ff00108b0e06879012801d10220ade00120f2
S3450800818068712868d0f83c90072116f01000814011ea090928680168012216f0100082409143286801600120fcf7a2fb2868c16b072216f01000824091432868c163286869
S345080081c00090002e03d100980830009002e00098143000904ff4006000990860286801684ff4804216f0100082401143286801605ff0100a082425e014eb0a0a21e0286834
S34508008200816b1f2216f010008240914316f010001afa00f00143286881630120fcf768fb2868416b4ff4804216f01000824011404ff4804216f0100082409142dcd1baeba2
S34508008240040a6408002cdad12868816b1f2216f010008240914316f010001afa00f00143286881630120fcf743fb2868416b4ff4804216f01000824011420fd11af1010ab0
S345080082802868816b1f2216f010008240914316f010001afa00f0014328688163286801684ff4804216f010008240914328680160c7f820a00120f8612868c06b072116f0f8
S345080082c0100611fa06f630ea060659ea06062868c663002068714046c0b2bde8f687000010b50400002c01d1012035e094f83d00002805d1002084f83c002000c046c0464a
S34508008300022084f83d00211d206800f041fb012084f84800012084f83e00012084f83f00012084f84000012084f84100012084f84200012084f84300012084f8440001204a
S3450800834084f84500012084f84600012084f84700012084f83d00002010bd90f83d10012901d0012047e0022180f83d100168c96851f001010268d1600168dff87c20914279
S3450800838021d00168b1f1804f1dd00168dff86c20914218d00168dff86820914213d00168dff8602091420ed00168dff85c20914209d00168dff85420914204d00168dff87e
S345080083c05020914210d101688a68dff848100a40062a0fd0b2f5803f0cd00168096851f001010068016005e00168096851f001010068016000207047002c014000040040ed
S3450800840000080040000c00400034014000400140005001400700010010b50400002c01d1012035e094f83d00002805d1002084f83c002000fbf7eefc022084f83d00211d5a
S34508008440206800f0a5fa012084f84800012084f83e00012084f83f00012084f84000012084f84100012084f84200012084f84300012084f84400012084f84500012084f861
S345080084804600012084f84700012084f83d00002010bd10b50400002902d194f83e0015e0042902d194f83f0010e0082902d194f840000be00c2902d194f8410006e01029cf
S345080084c002d194f8420001e094f84300012801d0012093e0002904d1022084f83e00c0b21fe0042904d1022084f83f00c0b218e0082904d1022084f84000c0b211e00c297f
S3450800850004d1022084f84100c0b20ae0102904d1022084f84200c0b203e0022084f84300c0b20122206800f043fc2068dff8d410884218d02068dff8d010884213d0206844
S34508008540dff8c81088420ed02068dff8d010884209d02068dff8c810884204d02068dff8a010884201d1012000e00020c0b2002805d02068406c50f400402168486420682f
S34508008580dff88010884221d02068b0f1804f1dd02068dff87c10884218d02068dff87410884213d02068dff8701088420ed02068dff85410884209d02068dff85010884203
S345080085c004d02068dff83810884210d120688168dff85000014006290fd0b1f5803f0cd02068006850f001002168086005e02068006850f0010021680860002010bd000009
S3450800860000500140002c014000340140004001400004004000080040000c004000440140004801400700010010b504002068006980071ad52068c068800716d57ff0020087
S3450800864021680861012020772068806910f0030f03d02000c046c04605e02000c046c0462000c046c046002020772068006940071ad52068c068400716d57ff004002168c7
S345080086800861022020772068806910f4407f03d02000c046c04605e02000c046c0462000c046c046002020772068006900071ad52068c068000716d57ff008002168086171
S345080086c0042020772068c06910f0030f03d02000c046c04605e02000c046c0462000c046c0460020207720680069c0061ad52068c068c00616d57ff010002168086108205b
S3450800870020772068c06910f4407f03d02000c046c04605e02000c046c0462000c046c0460020207720680069c0070ad52068c068c00706d57ff00100216808612000fcf7cf
S3450800874062f82068006900060ad52068c068000606d57ff08000216808612000c046c04620680069c0050ad52068c068000606d57ff48070216808612000c046c0462068ee
S34508008780006940060ad52068c068400606d57ff04000216808612000c046c0462068006980060ad52068c068800606d57ff02000216808612000c046c04620680069c002b8
S345080087c00ad52068c068c00206d57ff48010216808612000c046c0462068006980020ad52068c068800206d57ff40010216808612000c046c0462068006940020ad5206884
S34508008800c068400206d57ff48000216808612000c046c0462068006900020ad52068c068000206d57ff40000216808612000c046c04610bd70b504000e00002594f83c00f3
S34508008840012801d10220a2e0012084f83c00002a0ad0042a1fd0082a35d00c2a4ad0102a60d0142a75d08ce03100206800f0f9f82068806950f0080021688861206880693b
S3450800888030f004002168886120688169306901432068816176e03100206800f030f92068806950f40060216888612068806930f480602168886120688069316950ea01205f
S345080088c0216888615ee03100206800f060f92068c06950f008002168c8612068c06930f004002168c8612068c169306901432068c16147e03100206800f090f92068c06943
S3450800890050f400602168c8612068c06930f480602168c8612068c069316950ea01202168c8612fe03100206800f0cef92068006d50f00800216808652068006d30f0040049
S34508008940216808652068016d306901432068016518e03100206800f0e6f92068006d50f40060216808652068006d30f48060216808652068006d316950ea01202168086554
S3450800898000e00125002084f83c002800c0b270bd0368dff81c23904216d0b0f1804f13d0dff8102390420fd0dff8e02390420bd0dff8dc23904207d0dff8fc22904203d01d
S345080089c0dff8c423904203d133f070034a681343dff8dc2290421fd0b0f1804f1cd0dff8d422904218d0dff8a423904214d0dff8a023904210d0dff8c02290420cd0af4aee
S34508008a00904209d0ae4a904206d0ae4a904203d0dff87423904203d133f44073ca68134333f080034a69134303608a68c2620a6882629f4a90420fd09f4a90420cd09f4a32
S34508008a40904209d09e4a904206d09e4a904203d0dff83423904201d10969016301214161704730b4026a520852000262056a43688469dff820231440a408a4000a6814430f
S34508008a8035f002058a681543894a90420fd08a4a90420cd0894a904209d0894a904206d0884a904203d0dff8e022904205d135f00805ca68154335f004057d4a90420ed0da
S34508008ac07d4a90420bd07d4a904208d07c4a904205d07c4a904202d0ab4a904207d133f4807333f400734a6913438a6913434360846149684163056230bc7047000030b43c
S34508008b00026a32f010020262056a43688469dff88822144034f440740a6854ea022435f020058a6855ea0215614a904205d0624a904202d0944a904206d135f08005ca68fe
S34508008b4055ea021535f04005594a90420ed05a4a90420bd0594a904208d0594a904205d0584a904202d0884a904209d133f4806333f400634a6953ea82038a6953ea82036a
S34508008b804360846149688163056230bc704730b4026a32f480720262056a4368c469dff8f4211440a408a4000a68144335f400758a6855ea02253e4a904205d03e4a904295
S34508008bc002d0714a904206d135f40065ca6855ea022535f48065364a90420ed0364a90420bd0364a904208d0354a904205d0354a904202d0644a904209d133f4805333f4b2
S34508008c0000534a6953ea02138a6953ea02134360c4614968c163056230bc704730b4026a32f480520262056a4368c469dff86821144034f440740a6854ea022435f400550b
S34508008c408a6855ea02351a4a904205d01a4a904202d04d4a904206d135f40045ca6855ea023535f48045124a90420ed0124a90420bd0124a904208d0114a904205d0114aaf
S34508008c80904202d0404a904209d133f4804333f400434a6953ea82138a6953ea82134360c46149680164056230bc704700000000002c01400004004000340140004001409f
S34508008cc0004401400048014030b4026a32f480320262046a4568036d2e4a13400a68134334f400348a6854ea02442c4a90420ed02b4a90420bd02b4a904208d02a4a90422f
S34508008d0005d02a4a904202d01f4a904204d135f480354a6955ea02254560036549688164046230bc704730b4026a32f480120262046a4568036d184a13400a6853ea022305
S34508008d4034f400148a6854ea0254144a90420ed0134a90420bd0134a904208d0124a904205d0124a904202d0074a904204d135f480254a6955ea8225456003654968c164bf
S34508008d80046230bc704700000050014000080040000c00408ffffeffff8ffffe002c01400034014000400140004401400048014010b4012411f01f0314fa03f3046a34ea54
S34508008dc003030362036a11f01f0112fa01f11943016210bc7047000030b490f83c20012a01d1022057e0012280f83c20022280f83d2002685468026893680268dff874518d
S34508008e00aa4209d00268dff87051aa4204d00268dff86851aa4203d134f470044a681443dff85c2114400a681443026854600268dff84041a24221d00268b2f1804f1dd04f
S34508008e400268dff84041a24218d00268dff83841a24213d00268dff83441a2420ed00268dff81441a24209d00268dff82441a24204d00268dff80441a24205d133f08003c6
S34508008e8089680b4301688b60012180f83d10002180f83c10002030bc704710b4002390f83c20012a01d1022062e0012280f83c201b0a1b02ca68134333f440738a68134373
S34508008ec033f480634a68134333f400630a68134333f480530a69134333f400534a69134333f480430a6b134333f470238a6953ea024302681f4ca24207d002681e4ca2428e
S34508008f0003d002681d4ca24203d133f08053ca6913430268174ca24207d00268164ca24203d00268154ca2421cd133f470038a6a53ea025333f080730a6a134333f0007309
S34508008f404a6a134302680b4ca24207d002680a4ca24203d00268094ca24203d133f00053c96a0b4301684b64002180f83c10002010bc7047002c0140003401400050014065
S34508008f808ffffffd0004004000080040000c00400040014010b50400002c01d101207ae0606a002806d16068b0f5827f06d00020e06103e000202061002060610020a06289
S34508008fc094f85d00002805d1002084f85c002000faf7b2ff022084f85d002068006830f0400021680860e06840f20171884201d3002001e04ff48050e168b1f5706f05d045
S34508009000e168b1f5e06f01d00021a162616811f48271a26812f404421143227c12f002021143227d12f001021143a26912f400721143227f12f03802114394f8202012f0be
S3450800904080021143a26a12f40052114322681160a169090c11f0040194f8242012f01002114394f8342012f008021143e26812f47062114310f4805008432168486020686e
S34508009080c06930f400602168c86100202066012084f85d00002010bd2de9f84306000d0091461c00002796f85c00012801d10220e4e0012086f85c0000f0defb8046494654
S345080090c096f85d00012801d00227cfe0002d03d0484680b2002801d10127c7e0032086f85d0000203066b563a6f83c90a6f83e90002030640020a6f844000020a6f84600c0
