S34508002000c84300203121000889df0008d9e70008e3e70008ede70008f7e700080000000000000000000000000000000049e000088bdf00080000000049e000087bdf00080b
S3450800204071df000871df000871df000871df000871df000871df000871df000871df000871df000871df000871df000871df000871df000871df000871df000871df0008d2
S3450800208071df000871df000871df0008937700081b77000871df000871df000871df000871df000871df000871df000871df000871df000871df000871df000871df000896
S345080020c071df000871df000871df000871df000871df000871df000871df000871df000871df000871df000871df000871df000871df000871df000871df000871df000852
S3450800210071df000871df000871df000871df000871df000871df000871df00084785000871df000871df000871df000871df00080249d1f800d00cf079bd000000200008b7
S34508002140ffffffffffffffffffffffffffffffffcc325aa500200008f3ec0008e9ad5c36303030303036373000446574656374696f6e436f6e74726f6c3300312e30312eff
S3450800218030342e303034340000ffffffffffffffffffffffffffffffffffffffffffffffffffffffffffffffffffffffffffffffffffffffffffffffffffffffffffffffee
S345080022000000c8420000c8420000c8420000c8420000c8420000c8420000c8420000c8420000c8420000c8420000c8420000c8420000c8420000c8420000c8420000c842f0
S345080022400000c8420000c8420000c8420000c8420000c8420000c8420000c8420000c8420000c8420000c8420000c8420000c8420000c8420000c8420000c8420000c842b0
S345080022800000c8420000c8420000c8420000c8420000c8420000c8420000c8420000c8420000c8420000c8420000c8420000c8420000c8420000c8420000c8420000c84270
S345080022c00000c8420000c8420000c8420000c8420000c8420000c8420000c8420000c8420000c8420000c8420000c8420000c8420000c8420000c8420000c8420000c84230
S345080037000000c8420000c8420000c8420000c8420000c8420000c8420000c8420000c8426afac742c1e8c7421ad7c74275c5c742d3b3c74234a2c7429790c742fd7ec742ad
S34508003740656dc742cf5bc7423c4ac742ac38c7421e27c7429315c7420a04c74283f2c642ffe0c6427dcfc642febdc64282acc642079bc6429089c6421a78c642a766c64270
S345080037803755c642c843c6425d32c642f320c6428d0fc64228fec542c6ecc54266dbc54209cac542aeb8c54255a7c542ff95c542ab84c5425a73c5420b62c542be50c54258
S345080037c0743fc5422c2ec542e61cc542a30bc54262fac44223e9c442e7d7c442adc6c44275b5c4423fa4c4420c93c442db81c442ad70c442815fc442574ec4422f3dc442eb
S345080038000a2cc442e71ac442c609c442a7f8c3428be7c34271d6c34259c5c34244b4c34230a3c3421f92c3421081c3420470c342f95ec342f14dc342eb3cc342e82bc3425b
S34508003840e61ac342e709c342eaf8c242efe7c242f6d6c24200c6c2420bb5c24219a4c2422993c2423c82c2425071c2426760c2427f4fc2429a3ec242b72dc242d61cc242c3
S34508003880f80bc2421bfbc14241eac14269d9c14292c8c142beb7c142eda6c1421d96c1424f85c1428474c142ba63c142f352c1422e42c1426a31c142a920c142ea0fc14233
S345080038c02effc04273eec042baddc04203cdc0424fbcc0429cabc042ec9ac0423d8ac0429179c042e768c0423e58c0429847c042f436c0425226c042b115c0421305c042b8
S3450800390077f4bf42dde3bf4245d3bf42afc2bf421bb2bf4289a1bf42f990bf426a80bf42de6fbf42545fbf42cc4ebf42463ebf42c22dbf423f1dbf42bf0cbf4241fcbe425b
S34508003940c5ebbe424adbbe42d2cabe425bbabe42e7a9be427499be420389be429578be422868be42bd57be425447be42ed36be428826be422516be42c305be4264f5bd4212
S3450800398006e5bd42abd4bd4251c4bd42f9b3bd42a3a3bd424f93bd42fd82bd42ad72bd425e62bd421252bd42c741bd427e31bd423721bd42f210bd42af00bd426df0bc42d8
S345080039c02ee0bc42f0cfbc42b4bfbc427aafbc42429fbc420b8fbc42d77ebc42a46ebc42735ebc42444ebc42163ebc42eb2dbc42c11dbc42990dbc4273fdbb424fedbb4291
S34508003a002cddbb420bcdbb42ecbcbb42cfacbb42b49cbb429a8cbb42827cbb426c6cbb42575cbb42454cbb42343cbb42252cbb42171cbb420c0cbb4202fcba42faebba4227
S34508003a40f3dbba42eecbba42ebbbba42eaabba42eb9bba42ed8bba42f17bba42f66bba42fe5bba42074cba42113cba421e2cba422c1cba423c0cba424dfcb94260ecb94285
S34508003a8075dcb9428cccb942a4bcb942beacb942da9cb942f78cb942167db942366db942585db9427c4db942a23db942c92db942f21db9421c0eb94248feb84276eeb84272
S34508003ac0a5deb842d6ceb84209bfb8423dafb842739fb842aa8fb842e37fb8421e70b8425a60b8429850b842d840b8421931b8425c21b842a011b842e601b8422df2b742cb
S34508003b0076e2b742c1d2b7420dc3b7425bb3b742aaa3b742fb93b7424d84b742a174b742f764b7424e55b742a745b7420136b7425d26b742ba16b7421907b74279f7b6425a
S34508003b40dbe7b6423ed8b642a3c8b6420ab9b64272a9b642db99b642468ab642b37ab642216bb642915bb642024cb642743cb642e82cb6425e1db642d50db6424efeb542f3
S34508003b80c8eeb54243dfb542c0cfb5423fc0b542bfb0b54240a1b542c391b5424782b542cd72b5425563b542dd53b5426744b542f334b5428025b5420f16b5429f06b5424c
S34508003bc030f7b442c3e7b44257d8b442edc8b44284b9b4421daab442b79ab442528bb442ef7bb4428e6cb4422d5db442ce4db442713eb442152fb442ba1fb4426110b4422a
S34508003c000901b442b2f1b3425de2b3420ad3b342b7c3b34266b4b34217a5b342c995b3427c86b3423077b342e667b3429d58b3425649b342103ab342cc2ab342881bb34241
S34508003c40460cb34206fdb242c7edb24289deb2424ccfb24211c0b242d7b0b2429ea1b2426792b2423183b242fd73b242ca64b2429855b2426746b2423837b2420a28b2424d
S34508003c80dd18b242b209b24288fab1425febb14238dcb14212cdb142edbdb142c9aeb142a79fb1428690b1426681b1424872b1422b63b1420f54b142f444b142db35b142fe
S34508003cc0c326b142ac17b1429708b14282f9b0426feab0425edbb0424dccb0423ebdb04230aeb042239fb0421890b0420d81b0420472b042fd62b042f653b042f144b042fe
S34508003d00ed35b042ea26b042e817b042e808b042e8f9af42eaeaaf42eedbaf42f2ccaf42f8bdaf42ffaeaf4207a0af421091af421a82af422673af423364af424155af42f8
S34508003d405046af426037af427228af428519af42990aaf42aefbae42c4ecae42dbddae42f4ceae420ec0ae4229b1ae4245a2ae426293ae428184ae42a075ae42c166ae4290
S34508003d80e357ae420649ae422a3aae424f2bae42761cae429d0dae42c6fead42f0efad421be1ad4247d2ad4274c3ad42a3b4ad42d2a5ad420397ad423488ad426779ad4269
S34508003dc09b6aad42d05bad42064dad423e3ead42762fad42af20ad42ea11ad422603ad4262f4ac42a0e5ac42dfd6ac421fc8ac4260b9ac42a2aaac42e59bac422a8dac4223
S34508003e006f7eac42b66fac42fd60ac424652ac428f43ac42da34ac422626ac427317ac42c108ac4210faab4260ebab42b1dcab4203ceab4256bfab42aab0ab42ffa1ab4253
S34508003e405593ab42ad84ab420576ab425e67ab42b958ab42144aab42713bab42ce2cab422c1eab428c0fab42ec00ab424ef2aa42b0e3aa4214d5aa4278c6aa42deb7aa429b
S34508003e8044a9aa42ac9aaa42158caa427e7daa42e96eaa425460aa42c151aa422e43aa429c34aa420c26aa427c17aa42ee08aa4260faa942d3eba94248dda942bdcea94288
S34508003ec033c0a942aab1a94222a3a9429c94a9421686a9429177a9420d69a9428a5aa942074ca942863da942062fa9428720a9420812a9428b03a9420ff5a84293e6a842ae
S34508003f0018d8a8429fc9a84226bba842aeaca842379ea842c18fa8424c81a842d872a8426564a842f255a8428147a8421039a842a12aa842321ca842c40da84257ffa742a4
S34508003f40ebf0a74280e2a74216d4a742adc5a74244b7a742dda8a742769aa742108ca742ab7da742476fa742e460a7428252a7422044a742c035a7426027a7420119a742ee
S34508003f80a30aa74246fca642eaeda6428fdfa64234d1a642dac2a64281b4a64229a6a642d297a6427c89a642277ba642d26ca6427e5ea6422b50a642d941a6428833a6421f
S34508003fc03825a642e816a6429908a6424bfaa542feeba542b2dda54266cfa5421cc1a542d2b2a54289a4a5424096a542f987a542b279a5426c6ba542275da542e34ea542b7
S34508004000a040a5425d32a5421b24a542da15a5429a07a5425bf9a4421ceba442dedca442a1cea44264c0a44229b2a442eea3a442b495a4427b87a4424279a4420b6ba4423f
S34508004040d45ca4429e4ea4426840a4423332a4420024a442cc15a4429a07a44268f9a34237eba34207dda342d8cea342a9c0a3427bb2a3424ea4a3422296a342f687a34242
S34508004080cb79a342a16ba342775da3424f4fa3422641a342ff32a342d924a342b316a3428d08a34269faa24245eca24222dea24200d0a242dec1a242bdb3a2429da5a2423f
S345080040c07e97a2425f89a242417ba242236da242075fa242eb50a242cf42a242b534a2429b26a2428218a242690aa24251fca1423aeea14223e0a1420ed2a142f8c3a142b2
S34508004100e4b5a142d0a7a142bd99a142aa8ba142997da142876fa1427761a1426753a1425845a1424937a1423b29a1422e1ba142210da14216ffa0420af1a04200e3a04220
S34508004140f6d4a042ecc6a042e3b8a042dbaaa042d49ca042cd8ea042c780a042c172a042bc64a042b856a042b448a042b13aa042af2ca042ad1ea042ac10a042ab02a0420c
S34508004180abf49f42ace69f42add89f42afca9f42b1bc9f42b4ae9f42b8a09f42bc929f42c1849f42c6769f42cc689f42d35a9f42da4c9f42e23e9f42ea309f42f3229f42e6
S345080041c0fc149f4207079f4211f99e421ceb9e4228dd9e4235cf9e4242c19e424fb39e425da59e426c979e427b899e428b7b9e429b6d9e42ac5f9e42be519e42d0439e422e
S34508004200e2359e42f5279e42091a9e421d0c9e4232fe9d4247f09d425de29d4274d49d428bc69d42a2b89d42baaa9d42d39c9d42ec8e9d4205819d421f739d423a659d4260
S3450800424055579d4271499d428d3b9d42aa2d9d42c71f9d42e5119d4203049d4222f69c4241e89c4261da9c4281cc9c42a2be9c42c3b09c42e5a29c4208959c422a879c42f0
S345080042804e799c42716b9c42965d9c42bb4f9c42e0419c4206349c422c269c4252189c427a0a9c42a1fc9b42c9ee9b42f2e09b421bd39b4245c59b426fb79b4299a99b4256
S345080042c0c49b9b42f08d9b421c809b4248729b4275649b42a2569b42d0489b42fe3a9b422c2d9b425c1f9b428b119b42bb039b42ebf59a421ce89a424eda9a427fcc9a420c
S34508004300b2be9a42e4b09a4217a39a424b959a427f879a42b3799a42e86b9a421d5e9a4252509a4288429a42bf349a42f6269a422d199a42650b9a429dfd9942d5ef994284
S345080043400ee2994248d4994281c69942bcb89942f6aa9942319d99426c8f9942a8819942e4739942216699425e5899429b4a9942d93c9942172f9942552199429413994235
S34508004380d405994213f8984253ea984293dc9842d4ce984215c1984257b3984299a59842db9798421e8a9842607c9842a46e9842e76098422c53984270459842b53798428f
S345080043c0fa2998423f1c9842850e9842cb00984212f3974259e59742a0d79742e7c997422fbc974277ae9742c0a0974209939742528597429b779742e56997422f5c974207
S345080044007a4e9742c5409742103397425b259742a7179742f309974240fc96428dee9642dae0964227d3964275c59642c3b7964211aa9642609c9642ae8e9642fe8096420e
S345080044404d7396429d659642ed5796423d4a96428e3c9642df2e96423021964282139642d405964226f8954278ea9542cbdc95421ecf954271c19542c4b3954218a6954217
S345080044806c989542c08a9542157d95426a6f9542bf619542145495426a469542c0389542162b95426c1d9542c30f95421a02954271f49442c8e6944220d9944278cb944292
S345080044c0d0bd944228b0944281a29442d9949442328794428c799442e56b94423f5e944299509442f34294424e359442a8279442031a94425e0c9442bafe934215f19342fb
S3450800450071e39342cdd5934229c8934286ba9342e2ac93423f9f93429c919342f983934257769342b4689342125b9342704d9342ce3f93422d3293428b249342ea169342b3
S3450800454049099342a8fb924208ee924267e09242c7d2924227c5924287b79242e7a99242479c9242a88e9242098192426a739242cb6592422c5892428d4a9242ef3c924231
S34508004580512f9242b32192421514924277069242d9f891423ceb91429edd914201d0914264c29142c7b491422ba791428e999142f18b9142557e9142b97091421d639142e9
S345080045c081559142e54791424a3a9142ae2c9142131f914277119142dc03914241f69042a6e890420bdb904271cd9042d6bf90423cb29042a1a49042079790426d89904248
S34508004600d37b9042396e90429f609042055390426c459042d2379042392a9042a01c9042060f90426d019042d4f38f423be68f42a2d88f4209cb8f4271bd8f42d8af8f42bf
S345080046403fa28f42a7948f420e878f4276798f42de6b8f42465e8f42ad508f4215438f427d358f42e5278f424e1a8f42b60c8f421eff8e4286f18e42efe38e4257d68e42c3
S34508004680bfc88e4228bb8e4290ad8e42f99f8e4262928e42ca848e4233778e429c698e42055c8e426d4e8e42d6408e423f338e42a8258e4211188e427a0a8e42e3fc8d42c0
S345080046c04cef8d42b5e18d421ed48d4287c68d42f0b88d4259ab8d42c29d8d422b908d4295828d42fe748d4267678d42d0598d42394c8d42a23e8d420c318d4275238d422c
S34508004700de158d4247088d42b0fa8c4219ed8c4282df8c42ebd18c4254c48c42bdb68c4227a98c42909b8c42f98d8c4261808c42ca728c4233658c429c578c42054a8c4277
S345080047406e3c8c42d72e8c423f218c42a8138c4211068c4279f88b42e2ea8b424bdd8b42b3cf8b421cc28b4284b48b42eca68b4255998b42bd8b8b42257e8b428d708b4210
S34508004780f5628b425d558b42c5478b422d3a8b42952c8b42fc1e8b4264118b42cc038b4233f68a429be88a4202db8a4269cd8a42d0bf8a4237b28a429ea48a4205978a4273
S345080047c06c898a42d37b8a423a6e8a42a0608a4207538a426d458a42d3378a42392a8a429f1c8a42050f8a426b018a42d1f3894237e689429cd8894202cb894267bd89420b
S34508004800ccaf894231a2894296948942fb8689425f798942c46b8942285e89428d508942f142894255358942b92789421c1a8942800c8942e4fe884247f18842aae3884254
S345080048400dd6884270c88842d3ba884235ad8842989f8842fa9188425c848842be76884220698842815b8842e34d884244408842a53288420625884267178842c8098842c0
S3450800488028fc874288ee8742e9e0874248d38742a8c5874208b8874267aa8742c69c8742258f874284818742e2738742416687429f588742fd4a87425b3d8742b82f8742ca
S345080048c01622874273148742d00687422df9864289eb8642e6dd864242d086429ec28642f9b4864255a78642b09986420b8c8642667e8642c07086421b63864275558642de
S34508004900ce478642283a8642812c8642db1e8642331186428c038642e5f585423de8854295da8542eccc854244bf85429bb18542f2a38542489685429f888542f57a854285
S345080049404b6d8542a05f8542f55185424a4485429f368542f4288542481b85429c0d8542f0ff844243f2844296e48442e9d684423bc984428ebb8442dfad844231a0844232
S3450800498082928442d48484422477844275698442c55b8442154e844264408442b432844202258442511784429f098442edfb83423bee834288e08342d5d2834222c583425e
S345080049c06eb78342baa98342069c8342528e83429d808342e7728342326583427c578342c54983420f3c8342582e8342a0208342e91283423105834278f78242c0e9824289
S34508004a0006dc82424dce824293c08242d9b282421ea5824264978242a8898242ed7b8242316e824274608242b7528242fa4482423d3782427f298242c01b8242020e824235
S34508004a404300824283f28142c3e4814203d7814242c9814281bb8142c0ad8142fe9f81423c92814279848142b6768142f36881422f5b81426a4d8142a63f8142e1318142e3
S34508004a801b248142551681428f088142c8fa804201ed804239df804271d18042a8c38042dfb5804216a880424c9a8042828c8042b77e8042ec70804220638042545580420c
S34508004ac087478042ba398042ed2b80421f1e8042501080428202804265e97f42c5cd7f4224b27f4283967f42e17a7f423d5f7f4299437f42f4277f424d0c7f42a6f07e42ed
S34508004b00fed47e4255b97e42ab9d7e4200827e4253667e42a64a7e42f82e7e4249137e4299f77d42e8db7d4236c07d4283a47d42ce887d42196d7d4263517d42ac357d42b9
S34508004b40f3197d423afe7c4280e27c42c4c67c4208ab7c424a8f7c428c737c42cc577c420b3c7c4249207c4286047c42c2e87b42fdcc7b4237b17b4270957b42a7797b42b3
S34508004b80de5d7b4213427b4247267b427a0a7b42acee7a42ddd27a420db77a423c9b7a42697f7a4295637a42c1477a42eb2b7a4213107a423bf4794262d8794287bc7942f4
S34508004bc0aba07942ce847942f0687942104d7942303179424e1579426bf9784287dd7842a1c17842bba57842d3897842ea6d7842ff51784214367842271a784239fe77429d
S34508004c004ae2774259c6774267aa7742748e7742807277428a567742933a77429b1e7742a2027742a7e67642abca7642adae7642af927642af767642ad5a7642ab3e7642d0
S34508004c40a7227642a20676429bea754293ce75428ab275427f967542737a7542665e75425742754247267542360a754223ee74420fd27442f9b57442e3997442ca7d7442b7
S34508004c80b161744295457442792974425b0d74423cf173421bd57342f9b87342d59c7342b08073428964734261487342382c73420d107342e1f37242b3d7724284bb72427c
S34508004cc0539f724221837242ed667242b84a7242812e72424912724210f67142d4d9714298bd71425aa171421a857142d9687142964c7142513071420c147142c4f770425b
S34508004d007bdb704231bf7042e5a2704297867042486a7042f74d7042a531704251157042fbf86f42a4dc6f424bc06f42f1a36f4295876f42376b6f42d84e6f4277326f4292
S34508004d4015166f42b1f96e424bdd6e42e4c06e427ba46e4210886e42a36b6e42354f6e42c6326e4254166e42e1f96d426ddd6d42f6c06d427ea46d4204886d42896b6d4262
S34508004d800b4f6d428c326d420c166d4289f96c4205dd6c427fc06c42f8a36c426e876c42e36a6c42564e6c42c7316c4237156c42a5f86b4211dc6b427bbf6b42e3a26b421b
S34508004dc04a866b42af696b42124d6b4273306b42d2136b4230f76a428cda6a42e5bd6a423da16a4294846a42e8676a423a4b6a428b2e6a42da116a4227f5694272d8694210
S34508004e00bbbb6942029f6942478269428b656942cc4869420c2c69424a0f694286f26842bfd56842f7b868422d9c6842617f684293626842c4456842f22868421e0c6842a2
S34508004e4048ef674270d2674297b56742bb986742dd7b6742fe5e67421c42674238256742520867426beb664281ce664295b16642a7946642b7776642c55a6642d13d664239
S34508004e80db206642e3036642e9e66542ecc96542eeac6542ed8f6542eb726542e6556542df386542d61b6542cbfe6442bee16442afc464429da764428a8a6442746d644249
S34508004ec05c506442423364422616644207f96342e7db6342c4be63429fa16342788463424e676342234a6342f52c6342c50f634293f262425ed5624227b86242ee9a624242
S34508004f00b37d62427660624236436242f4256242af08624269eb614220ce6142d5b061428793614237766142e5586142913b61423a1e6142e100614286e3604228c66042ba
S34508004f40c8a86042658b6042006e6042995060422f336042c315604255f85f42e4da5f4271bd5f42fb9f5f4283825f4209655f428c475f420c2a5f428b0c5f4206ef5e4242
S34508004f8080d15e42f7b35e426b965e42dd785e424c5b5e42b93d5e4224205e428c025e42f1e45d4254c75d42b4a95d42128c5d426e6e5d42c6505d421d335d4270155d4279
S34508004fc0c1f75c4210da5c425cbc5c42a59e5c42ec805c4230635c4272455c42b1275c42ed095c4227ec5b425ece5b4293b05b42c4925b42f4745b4220575b424a395b420f
S34508005000711b5b4296fd5a42b7df5a42d7c15a42f3a35a420d865a4224685a42384a5a424a2c5a42580e5a4264f059426ed2594274b459427896594279785942775a5942bb
S34508005040733c59426c1e59426200594255e2584245c4584232a658421d885842056a5842ea4b5842cc2d5842ab0f584287f1574261d3574237b557420b975742dc78574247
S34508005080aa5a5742753c57423d1e574202005742c4e1564283c3564240a55642f9865642b0685642634a5642132c5642c10d56426bef554213d15542b7b25542599455429b
S345080050c0f7755542935755422b395542c01a554253fc5442e2dd54426ebf5442f7a054427d8254420064544280455442fc26544276085442ece953425fcb5342d0ac534298
S345080051003d8e5342a66f53420d51534270325342d11353422ef5524288d65242deb7524232995242827a5242cf5b5242193d5242601e5242a3ff5142e3e0514220c2514239
S3450800514059a351428f845142c2655142f24651421e285142470951426cea50428fcb5042aeac5042c98d5042e16e5042f64f5042083150421612504220f34f4227d44f4296
S345080051802bb54f422c964f4229774f4222584f4218394f420b1a4f42fafa4e42e5db4e42cebc4e42b29d4e42937e4e42715f4e424b404e4222214e42f5014e42c4e24d42d2
S345080051c090c34d4259a44d421d854d42df654d429c464d4256274d420d084d42bfe84c426fc94c421aaa4c42c28a4c42666b4c42074c4c42a32c4c423d0d4c42d2ed4b4226
S3450800520064ce4b42f2ae4b427c8f4b4203704b4286504b4205314b4280114b42f8f14a426bd24a42dbb24a4248934a42b0734a4214544a4275344a42d2144a422bf54942e5
S3450800524080d54942d2b549421f96494269764942ae564942f03649422e17494268f748429ed74842d0b74842fe974842287848424e584842703848428e184842a8f8474277
S34508005280bed84742d0b84742de984742e8784742ee584742f0384742ee184742e8f84642ddd84642cfb84642bc984642a57846428a5846426b3846424818464221f8454267
S345080052c0f5d74542c5b7454291974542597745421d574542dc364542971645424ef6444200d64442aeb5444258954442fe7444429f5444423c344442d51344426af3434243
S34508005300f9d2434285b243420c9243428f7143420e51434288304342fd0f43426eef4242dbce424243ae4242a78d4242066d4242614c4242b72b4242090b424257ea4142d4
S345080053409fc94142e3a84142238841425e67414294464142c6254142f40441421ce4404240c340425fa240427a81404290604042a13f4042ae1e4042b6fd3f42b9dc3f42f7
S34508005380b8bb3f42b19a3f42a6793f4296583f4282373f4269163f424af53e4227d43e4200b33e42d3913e42a1703e426b4f3e42302e3e42f00c3e42abeb3d4261ca3d42a1
S345080053c012a93d42be873d4265663d4207453d42a5233d423d023d42d0e03c425ebf3c42e89d3c426c7c3c42eb5a3c4265393c42da173c424af63b42b4d43b421ab33b42fb
S345080054007a913b42d66f3b422c4e3b427d2c3b42c90a3b420fe93a4251c73a428da53a42c4833a42f5613a4222403a42491e3a426afc394287da39429eb83942b09639424c
S34508005440bc743942c3523942c5303942c10e3942b8ec3842a9ca384295a838427c8638425d643842384238420e203842dffd3742aadb37426fb937422f973742ea7437420a
S345080054809e5237424e303742f70d37429beb364239c93642d2a6364265843642f26136427a3f3642fb1c364277fa3542eed735425eb53542c99235422e7035428d4d3542c7
S345080054c0e62a35423a08354287e53442cfc2344211a034424d7d3442835a3442b3373442dd14344201f233421fcf334237ac33424a893342566633425c4333425c20334253
S3450800550055fd324249da324237b732421e94324200713242db4d3242b02a32427f07324247e431420ac13142c69d31427c7a31422b573142d43331427710314214ed3042b8
S34508005540aac930423aa63042c4823042475f3042c33b304239183042a9f42f4212d12f4275ad2f42d2892f4227662f4276422f42bf1e2f4201fb2e423dd72e4271b32e4229
S34508005580a08f2e42c76b2e42e8472e4202242e4215002e4222dc2d4228b82d4227942d4220702d42114c2d42fc272d42e0032d42bddf2c4293bb2c4263972c422b732c4213
S345080055c0ec4e2c42a72a2c425a062c4207e22b42acbd2b424b992b42e2742b4272502b42fc2b2b427e072b42f9e22a426cbe2a42d9992a423f752a429d502a42f42b2a4234
S3450800560043072a428ce22942cdbd29420799294239742942654f2942882a2942a5052942bae02842c7bb2842cd962842cc712842c34c2842b22728429a0228427add27427e
S3450800564053b8274224932742ee6d2742b04827426a2327421dfe2642c7d826426ab32642068e26429968264225432642a81d264224f8254298d2254205ad25426987254238
S34508005680c5612542193c254266162542aaf02442e6ca24421aa52442467f24426a592442863324429a0d2442a5e72342a9c12342a49b234296752342814f234263292342fb
S345080056c03d0323420fdd2242d8b6224298902242516a224201442242a81d224247f72142ddd021426baa2142f08321426d5d2142e03621424c102142aee9204208c32042ae
S34508005700599c2042a2752042e14e204218282042460120426bda1f4287b31f429b8c1f42a5651f42a63e1f429f171f428ef01e4274c91e4251a21e42257b1e42f0531e42ae
S34508005740b22c1e426b051e421ade1d42c0b61d425d8f1d42f0671d427b401d42fb181d4273f11c42e1c91c4245a21c42a07a1c42f2521c423a2b1c4278031c42addb1b42aa
S34508005780d8b31b42fa8b1b4212641b42203c1b4224141b421fec1a4210c41a42f79b1a42d4731a42a74b1a4270231a4230fb1942e5d2194290aa194232821942c9591942d2
S345080057c056311942d908194251e01842c0b71842248f18427e661842ce3d1842131518424eec17427ec31742a49a1742c0711742d1481742d71f1742d3f61642c5cd1642d5
S34508005800aba41642877b1642595216421f291642dbff15428cd6154232ad1542cd8315425d5a1542e33015425d071542ccdd144230b41442898a1442d76014421a371442e6
S34508005840520d14427ee313429fb91342b58f1342bf651342be3b1342b111134299e7124276bd1242479312420c691242c63e12427414124216ea1142adbf114238951142d3
S34508005880b76a11422a40114291151142ecea10423cc010427f951042b66a1042e13f10420015104213ea0f421abf0f4214940f4202690f42e43d0f42b9120f4282e70e4215
S345080058c03ebc0e42ee900e4291650e42273a0e42b10e0e422fe30d429fb70d42038c0d425a600d42a4340d42e1080d4211dd0c4234b10c424a850c4253590c424f2d0c42e0
S345080059003e010c421fd50b42f4a80b42ba7c0b4274500b4220240b42bef70a424fcb0a42d39e0a4249720a42b1450a420b190a4258ec094297bf0942c8920942eb65094230
S3450800594000390942080c094201df0842ecb10842c984084297570842582a08420afd0742adcf074243a20742ca74074242470742ac19074207ec064253be064291900642e3
S34508005980c0620642e0340642f1060642f3d80542e6aa0542ca7c05429f4e0542652005421cf20442c3c304425b950442e46604425d380442c609044220db03426bac0342ec
S345080059c0a57d0342d04e0342eb1f0342f7f00242f2c10242dd920242b8630242833402423e050242e9d5014283a601420d77014287470142f017014249e8004291b800423d
S34508005a00c8880042ee5800420429004212f2ff41f991ff41bf31ff4163d1fe41e470fe414310fe417faffd41994efd418fedfc41638cfc41142bfc41a1c9fb410b68fb41b2
S34508005a405206fb4175a4fa417442fa414fe0f941067ef941991bf94107b9f8415156f84176f3f7417690f741512df74108caf6419966f6410403f6414a9ff5416a3bf54145
S34508005a8064d7f4413873f441e60ef4416eaaf341cf45f3410ae1f2411d7cf2410a17f241cfb1f1416d4cf141e4e6f0413281f0415a1bf04159b5ef41304fef41dee8ee4189
S34508005ac06482ee41c21bee41f6b4ed41024eed41e4e6ec419d7fec412c18ec4192b0eb41ce48eb41dfe0ea41c778ea418410ea4116a8e9417e3fe941bad6e841cc6de841c3
S34508005b00b204e8416c9be741fa31e7415dc8e641945ee6419ef4e5417b8ae5412c20e541b0b5e441074be44131e0e3412d75e341fb09e3419b9ee2410d33e24151c7e1411f
S34508005b40665be1414cefe0410483e0418c16e041e5a9df410e3ddf4107d0de41d162de416af5dd41d287dd410a1add4110acdc41e63ddc418acfdb41fc60db413df2da4186
S34508005b804b83da412714da41d1a4d9414835d9418bc5d8419c55d84178e5d7412175d7419604d741d793d641e322d641bab1d5415d40d541caced441015dd44103ebd34137
S34508005bc0ce78d3416406d341c293d241ea20d241dbadd141943ad14115c7d0415f53d04170dfcf41496bcf41e9f6ce415082ce417e0dce417298cd412c23cd41abadcc41aa
S34508005c00f137cc41fbc1cb41cb4bcb415ed5ca41b75eca41d3e7c941b370c94156f9c841bc81c841e609c841d191c7417f19c741eea0c6411f28c64111afc541c435c541a0
S34508005c4037bcc4416a42c4415ec8c341104ec34182d3c241b358c241a2ddc1414f62c141bae6c041e26ac041c7eebf416972bf41c7f5be41e278be41b7fbbd41487ebd4141
S34508005c809400bd419a82bc415a04bc41d485bb410707bb41f387ba419708ba41f488b9410809b941d388b8415508b8418e87b7417d06b7412185b6417b03b6418981b5419d
S34508005cc04cffb441c37cb441edf9b341ca76b34159f3b2419b6fb2418febb1413367b14189e2b0418f5db04144d8af41a952af41bdccae417f46ae41efbfad410d39ad41b4
S34508005d00d7b1ac414e2aac4171a2ab413f1aab41b891aa41dc08aa41a97fa94120f6a8413f6ca84107e2a7417657a7418dcca6414a41a641aeb5a541b729a541649da44162
S34508005d40b610a441ac83a34145f6a2418168a2415fdaa141de4ba141febca041be2da0411e9e9f411c0e9f41b97d9e41f4ec9d41cc5b9d4140ca9c4150389c41faa59b419b
S34508005d8040139b411f809a4197ec9941a75899414fc498418e2f9841639a9741ce049741ce6e964161d895418841954142aa94418d129441697a9341d6e19241d2489241d1
S34508005dc05daf9141761591411c7b90414ee08f410c458f4154a98e41260d8e4181708d4164d38c41ce358c41bf978b4135f98a41305a8a41aeba8941af1a8941327a8841c8
S34508005e0036d98741b9378741bc9586413cf385413a508541b4ac8441a808844117648341febe82415e1982413473814180cc804141258041ebfa7e4139aa7d416a587c4175
S34508005e407b057b416bb17941365c7841dc05774158ae7541aa557441cefb7241c1a07141834470410fe76e4164886d417e286c415cc76a41fa646941560168416e9c66418e
S34508005e803d366541c3ce6341fb656241e3fb604178905f41b7235e419db55c4128465b4153d559411d63584181ef56417d7a55410d0454412e8c5241dd12514117984f41c8
S34508005ec0d81b4e411c9e4c41e01e4b41219e4941db1b48410b984641ab124541ba8b4341330342411279404153ed3e41f25f3d41ecd03b413c403a41ddad3841cd19374160
S34508005f000684354184ec3341435332413eb83041711b2f41d67c2d416bdc2b41283a2a410b9628410df026412b4825415e9e2341a1f22141f144204146951e419ce31c417b
S34508005f40ed2f1b41337a19416ac217418a0816418f4c1441738e12412ece1041bb0b0f4115470d4133800b4111b70941a7eb0741ee1d0641e14d0441767b0241a9a6004122
S34508005f80e29efd408eebf9404733f640fe75f240a4b3ee4028ecea407b1fe7408c4de3404a76df40a499db408ab7d740e8cfd340aee2cf40c9efcb4025f7c740b1f8c34005
S34508005fc058f4bf4006eabb40a8d9b74027c3b34071a6af406d83ab40085aa740292aa340bbf39e40a5b69a40d07296402328924085d68d40dd7d8940101e854004b78040f9
S345080060003a9178407fa56f409daa66405ba05d407c865440c25c4b40f0224240c5d83840ff7d2f405c12264095951c406507134082670940476bff3ffae2eb3f7f35d83f98
S345080060403862c43f7f68b03fad479c3f14ff873f071c673f89e73d3f385f143f2403d53e199a803e8500ae3d0000000000000000000000000000000000000000000000003d
S3450800608000000000000000000000000000000000000000000000000000000000000000000000000000000000000000000000000000000000000000000000000000000000d2
S345080060c00000000000000000000000000000000000000000000000000000000000000000000000000000000000000000000000000000000000000000000000000000000092
S345080061000000000000000000000000000000000000000000000000000000000000000000000000000000000000000000000000000000000000000000000000000000000051
S345080061400000000000000000000000000000000000000000000000000000000000000000000000000000000000000000000000000000000000000000000000000000000011
S3450800618000000000000000000000000000000000000000000000000000000000000000000000000000000000000000000000000000000000000000000000000000000000d1
S345080061c00000000000000000000000000000000000000000000000000000000000000000000000000000000000000000000000000000000000000000000000000000000091
S3450800620010b400202ce03c21dff8042b03009bb24b43134400249c7603009bb24b43134400245c6203009bb24b43134400249c6203009bb24b43134400245c6003009bb2bf
S345080062404b4313440400a4b2640883f8214003009bb201fb03f11144002281f82020401c010089b20c29cedb0020dff8a81a088010bc70472de9f24f040015001e0001f060
S3450800628049fa0700e4b25fea4408d0e04046c0b209fb00f05044406828444146c9b209fb01f14af801006ee05ff03c09dff860aa4046c0b209fb00f050440021017740467a
S345080062c0c0b209fb00f050440021c1764046c0b209fb00f05044002101764046c0b209fb00f050443900c9b211f01f013a00d2b2120212f4005211434246d2b2920112f0b2
S34508006300400211434246d2b2d20112f4407211434246d2b2920012f0200211434246d2b2d20112f4c052114311f5c07181814ff0ff0b4046c0b209fb00f0504480f819b02a
S345080063404046c0b209fb00f05044a02181764046c0b209fb00f05044009981604046c0b209fb00f050443100490841604046c0b22100c9b2b0eb410f88d14046c0b209fb66
S3450800638000f04af800504046c0b209fb00f05044002141624046c0b209fb00f05044042181624046c0b209fb00f050440021c1624046c0b209fb00f0504400210163404632
S345080063c0c0b209fb00f05044002141634046c0b209fb00f05044002141774046c0b209fb00f00aeb0001dff8242c4346dbb21c20434302eb030088630022baa14046c0b246
S3450800640009fb00f05044806b01f0bcfa4046c0b209fb00f050440021c1774046c0b209fb00f90aeb090080f81eb018f101084046c0b22100c9b24900891c8842fff634afec
S345080064400022a9a1dff8c83b2500edb21c20454303eb050001f096fa0122a4a1dff8b40b01f090fadff8b00b2c2100222300dbb24b43c2542200d2b24a430244002353709f
S34508006480e4b24c432044ff218170bde8f18f80b58a6a0b689854521c4868824200d30022486a824205d100220021042000f0befb03e08a62486b401c486301bd10b4ca6a15
S345080064c0002308e00c68a054000a521c4c68a24200d300225b1c042bf4d310bc704710b504002100606bfff7e9ff00206063a06ae062a06a002100e0491c04290dd2401c8c
S345080065006268904200d30020626a9042f4d100220021042000f08afb00e0a06210bd426a016b8a1841688a4201d34168521a426200210163704780b50200100080b2c0118e
S3450800654010f00f000300dbb2db1e082b26d20300dbb2db1e92b2d21012f00c0212eb6302c00706d5d2b20021092000f05ffbff202ee000200870100702d5083a01200870e1
S345080065801000c0b2062806dbd2b20021052000f04dfbff201ce01000c0b219e00100c9b20c2901d1ff2013e0c0b201280ad14ff4fa7001f01bfa00220021092000f036fb59
S345080065c0ff2005e000220021052000f02ffbff2002bd806800e0083002780b00dbb29a4202d00278002af6d1704738b584b001a800f0feff10f1010f6fd001a801f06efc3c
S3450800660000286dd1bdf80400002813d19df8060002280ed19df8080081280ad101f07af89df80910c0b2814203d102f0cff902f00bfa55e000208df800006946bdf804004f
S34508006640fff779ffff284bd0dff8c4269df8003013eb40033c214b4302eb03049df8061000293dd09df8081011f00f01627e914236d09df8081011f00f016176217f002900
S345080066800ad19df80810090606d40200d2b20021012000f0cbfa23e0012508e0210001a82a00d2b210440079fff7f1fe6d1c28009df80610c0b28842f0d39df80800400665
S345080066c008d5002020772000fff709ffa06b02f0c9fa05e01020207702e0012001f086f905b030bd6161000071630000646c7300f8b504000d00dff820192200d2b22c20c0
S34508006700424301eb0206dff808162000c0b22a00d2b212eb40023c20424301eb02075ff0ff31b86b02f0d4fab87fff280dd0b078edb2a84209d130787178884205d021000f
S34508006740c9b2380000f00bf92ee0380000f0a3f9380000f089f97877797f3800fff739ff020000205088396b884204d050884ff6ff71884205d139002000c0b252689047d6
S3450800678000e01c20010089b2002907d02300dbb20022010089b2380000f0b2f93800fff7befe380000f06ff8f1bd10b5002410e0dff8381c220092b23c20424301eb020032
S345080067c0807e002804d100220021112000f02efa641c200080b20628eadb02f013fb0020c04600281dd1dff8044c2100fe20fff74efe00f08fff002809d1002200211a205e
S3450800680000f014fa21000020fff741fe03e021000120fff73cfe2000fff761fea06b02f021fafff7e2fefce780b500f001f801bd38b504000d0029002000c0b200f0b0f80e
S3450800684029002000000ac0b200f0aaf829002000000cc0b200f0a4f82900240e2000c0b200f09ef831bd38b504000d0029002000c0b200f095f82900a4b2240a2000c0b28a
S3450800688000f08ef831bd10b50400e07e002809d11020e0760320a073607f60740020a07480202074207c50f040002074217c207e41182174207e401c10f00f002076e07f8f
S345080068c000280fd114f10c0000f034fe5ff0ff3100b288420ad194f8212000210a2000f0a5f903e014f10c0000f001fe0020a0730020e076a020a07610bd38b5dff8184781
S345080069000500edb22c235d4304eb05039c78ff2c24d05c781c442171597803eb8101ca605978491c11f007010a001c78d2b2a24206d10200d2b20021262000f077f90de005
S345080069405970dff8a81ac0b29a7812eb40023c20424301eb0200806b02f084f931bd38b50400dff8b426c9b22c20414302eb0105fb206077210028782844007900f010f85d
S345080069802100287805eb8000c068fff751ff2878401c10f0070028702000fff774ff31bd38b504000d00e87e002809d10320a873687f68740020a8741020e87680202874ab
S345080069c0a87b082823db297c287e41182974287e401c10f00f002876e87f00280fd115f10c0000f0a7fd5ff0ff3100b288420ad195f8212000210a2000f018f903e015f15a
S34508006a000c0000f074fd0120a87300202874a87b28440474a87b401ca87331bd38b50400200000f021f80500200000f01df815eb0025200000f018f815eb0045200000f076
S34508006a4013f815eb0065280032bd38b50400200000f00af80500adb2200000f005f815eb0025280080b232bd0100086b002801d100200fe0086b401e086308684a6a805ce6
S34508006a804a6a521c4a624a6a4b689a4201d300224a62c0b2704770b50400616a206b41186162606a6168884203d3616a6068091a6162606ae16a884201d101201fe00420b0
S34508006ac020630025002606e02d0a2000fff7ccff15eb0065761c3000c0b20428f4db6068a8420ad200202063e06a6062012200211b2000f09bf8012001e02563002070bd12
S34508006b00feb507000d0014001e0000f003fe8030adf8000008208df80200f87e002835d10320b873787f78743c21794a3000c0b2484310443300dbb24b43134493f8203063
S34508006b405b1c80f820303000c0b24843104490f8200000280cd13000c0b2484310443300dbb24b43134493f820305b1c80f820303000c0b201fb00f102eb010090f8200035
S34508006b80b8741020f8768020387405e03200d2b20021032000f04af828008df80400adb22d0a8df80550b6f180008df806005849f6b23c20464301eb060090f820008df880
S34508006bc00700002c0dd004200100c9b2082915da21786a460300dbb21a441171641c401cf2e7042006e000216a460300dbb21a441171401c0100c9b20829f4db684600f088
S34508006c0099fc10f1010f10d100f064fc684600f091fc00208df8040002208df8050080208df80600684600f085fcf7bd7fb506000c00150000f06efd8030adf800000820be
S34508006c408df8020096f4004630008df80400b6b2360a8df80560b5f180008df80600002c0dd003200100c9b2082915da21786a460300dbb21a441171641c401cf2e703205a
S34508006c8006e000216a460300dbb21a441171401c0100c9b20829f4db012002f0d9f81d4c2188082919da26882188491c218002f0cff800200100c9b2082910da310089b274
S34508006cc004ebc1010200d2b211446a460300dbb21a4412798a70401cece702f0b9f8684600f028fc10f1010f11d100f0f3fb684600f020fc02208df8040000208df8050063
S34508006d00b5f180008df80600684600f013fc7fbdf41b0020583900202de9f04704000d002800006bc046062808d22300dbb200221c212800fff7e4fe002064e12800fff73a
S34508006d4093fe82462800fff769fe81462800fff78bfe804600265046c0b2b0280bd05046c0b2b32807d05046c0b2e12803d05046c0b2c02804d101212800c177c04600e047
S34508006d8046462800006bc046f6b2b04208d02300dbb200221c212800fff7b2fe002032e19c4e4ff4fa61300001f092ff0700380080b2002808d02300dbb200223d2128001b
S34508006dc0fff79efe00201ee15ffa8afabaf1000f20d0baf1a20f4bd0baf1a30f72d0baf1b00f00f08180baf1b20f6fd0baf1b30f00f0bd80baf1b50f00f0e980baf1c00f55
S34508006e0000f08a80baf1c10f05d0baf1c20f00f0c880e1e0e7e0b9f5805f07d24046c0b210eb090041f20101884201d340271ee009f1006919f5be29002708e02800fff79f
S34508006e4013fedff8ac153a00d2b288547f1c38004146c0b2c9b28842f0d3dff894255ffa88f8414689b2484601f0dcfe0700bae0002708e02800fff7f7fddff874153a000d
S34508006e80d2b288547f1c38004146c0b2c9b28842f0d3dff86005814512d34046c0b210eb0900dff8541588420ad2dff844255ffa88f8414689b2484601f0b4fe070000e0d4
S34508006ec00f2790e0002001f09dfd8ce0dff82405814501d20e2703e0484601f0d1fd0700002001f08ffd7ee029004046c0b2fff757fd5ff0000a08e0290099f80000fff76b
S34508006f004ffd19f101091af1010a50464146c0b2c9b28842f0d366e0b9f5805f07d24046c0b210eb090041f20101884201d340271ce009f1006919f5be2929004046c0b2df
S34508006f40fff72efd5ff0000a0ae048460078c0462900c0b2fff724fd19f101091af1010a50464146c0b2c9b28842eed33be029004046c0b2fff714fd5ff0000a0ae048460e
S34508006f800078c0462900c0b2fff70afd19f101091af1010a50464146c0b2c9b28842eed321e0484601f02efd0700dff8488405e0404601f065fd070018f50068380080b2f5
S34508006fc0002803d1dff834048045f1d30be0484601f018fd070006e02300dbb200222e212800fff78dfd380080b2002807d02300dbb20022390089b22800fff781fd30003f
S3450800700001f030fe0020bde8f0870000e421002020340020c8390020e42a002006207047f8b507000c0000202000fff71dfd06003000c0b200280dd121000220fff7b0fc7f
S3450800704021000020fff7acfc21001120fff7a8fc002070e03000c0b2ff280dd101f0fefe050021000220fff79bfc2100e86a80b2fff7f9fb00205ee03000c0b2072802dac4
S34508007080dff87c5319e03000c0b20c2803dadff87453f61f11e03000c0b2132803dadff868530c3e09e000253b00dbb2002208212000fff725fd00e06d1c3000c0b20028aa
S345080070c012d0761e002728000078c0460028f3d06d1c7f1c380080b23328f4db21000020fff75efc002026e000263000c0b240190078c04600280ad0761c3000c0b23328b5
S34508007100f3db21000020fff74bfc002013e021003000c0b2fff744fc08e028000078c0466d1c2100c0b2fff73bfc761e3000c0b20028f2d10020f2bd38b505000c00200004
S34508007140fff792fcc0b2002806d0022824d022d304282ad021d330e021000020fff720fc2100aa480068800b10f0010090f00100c0b2fff715fc2100a5480078fff710fcf4
S345080071802000fff780fb142000f030fc01f01efc01f05afc18e017e016e04ff400409d49086000209a4908700ee04ff400409a49086001209649087006e02b00dbb2002269
S345080071c007212000fff79cfc21000120fff7e8fb21008e480068800b10f0010090f00100c0b2fff7ddfb210089480078fff7d8fb002032bd38b504000d002800006bc0460b
S34508007200002801d1432011e02800fff72dfcc0b200280cd0022815d021d28049e4b21c20444301eb040001f01dfd002032bd5ff0ff317a4ae4b21c20444302eb040001f089
S3450800724047fdf2e72800006bc046042801d04320ece72800fff7e2fb00f0c8fbe5e74320e4e770b506000c002000fff7fdfb05003000c0b2062801db25203fe02800c0b27b
S34508007280ff2809d1ff21664af6b22c20464302eb06008170a17727e02800c0b200281cd10020a07751493200d2b27820424301eb0200a04208d10021594af6b22c20464332
S345080072c002eb060081700fe00121554af6b22c20464302eb0600817006e03300dbb2002225212000fff70cfc21002800c0b2fff757fb21000020fff79bfa002070bd2de92d
S34508007300f0410c002000fff7affb05002800c0b2ff2822d1434d21002888c0b2c000c0b2fff73efb002610e021003000c0b205ebc0003a00d2b210448078fff731fb7f1c05
S345080073403800c0b20828efdb761c3000c0b2298880b2884246d20027f2e7002000210ce00a00d2b206ebc202127912f007022b00dbb29a4200d1401c491c2a4e0a00d2b230
S34508007380338892b29a42ebd32100c0b2c000c0b2fff706fb002711e021003800c0b206ebc0004246d2b210448078fff7f9fa18f101084046c0b20828eedb7f1c3800c0b24d
S345080073c0318880b288420dd23800c0b206ebc000007910f007002900c9b28842edd15ff00008e6e70020bde8f0810000f41b0020f02c002000f0050801000608ffff050808
S3450800740060010008100200086021000808100140ae3b0020141001401010014020340020e42a00205839002080b50800fff7f6fa00f0dcfa002002bd10b40022dff8b83446
S345080074401878aa2800d01a221879552800d01a2258780100c9b2002903d00100c9b2402900db1a220100dc78c9b2a14200d01a229978c9b2c9430300dbb2c9b28b4200d033
S345080074801a2292b2002a01d1c0b200e0002010bc70470022dff860140879552800d01a22c879552800d01a2248790300dbb2042b00db1a228979c9b2c9430300dbb2c9b2e1
S345080074c08b4200d01a2292b2002a01d1c0b200e0002070470120dff8241408700020dff8201408700020dff81c140870704770b50400dff80c54dff80c6431782878081a89
S345080075000100c9b215290cdb14380ae0012000f06dfa31782878081a0100c9b2152900db1438c0b20b28f1da200000f003f8c0b200b270bdf8b50500012001f089fc040089
S34508007540dff8c0231178491c0800c0b2142800db0021dff8ac3310781e78b0420ad1dff89c030078002805d1200001f071fc5ff0ff303ce00c20dff8906317784743374474
S34508007580d5f804c0c7f804c0177847433744d5f808c0c7f808c017784743374495f802c087f802c02d88177800fb07f0355211701578d5f1140518784519dff84013087893
S345080075c000280ed000200870dff84003016851f001010160dff838030068400101d500f0d8f8200001f034fcedb2280000b2f2bd70b5c84c2178002902d05ff0ff3031e0a2
S345080076000c21c54dc54a2b784b43d35a03802b784b4313449b7883702b784b4313445b6843602b7801fb03f11144896881602e78761c3000c0b20b2800db0026012001f0b7
S3450800764007fc3100b64a1278c9b2914206d1012121702e7001f0fcfb002003e02e7001f0f7fb012070bd38b54ff40072ad4b1a60ad4c226832f0f00230322260ab4a13680f
S3450800768033f4c04313f58043136000229c4b1a7000229c4b1a700122984b1a7000229e4b1a7000229e4b1a7001229a4b1a70a04a1170a04a012313609f4b1d68ed07fbd5c3
S345080076c09e4dc0b255f820009d4d2860106850f00400106010684008400010601868c007fcd4c9b2080080b200f096f8022087490860206830f0f000b030206031bd4ff4d7
S345080077000070884908608848016831f0f00130310160704786480078704730b4804a1178491c0800c0b20b2800db002110787a4b1b78984207d177480078002803d1202087
S345080077408049086023e00c20744b7f4c2468640d157845435c53147844431c447b4d2d6815f00f05a570147844431c44784d2d686560147800fb04f01844764b1b688360c2
S345080077802020704b18600020624b1870117030bc704730b45949087800280ad05b4801684908490001605a48016851f00101016030e0694a0c235248534c05785d43254460
S345080077c06d68956005785d432544ad68d56005785d432544ad785560057803fb05f3e35a5b055b1c13600278521c1300dbb2142b00db00221300434c2478dbb2a34208d13a
S3450800780001230b7041490b685b085b000b60027000e0027030bc7047504901220a60504a0123136013685b085b00136000224d4b1a6000224c4b1a6080b2400110f1787048
S345080078404a4a10604a484b4a106001204a4a106000200860704718b42d4b1a6812f0e052b2f1e05ff8d13c4ac0b2444c14eb00649460d160082050602d480078404911ebfc
S3450800788040511160186810f0e050b0f1e05ff9d10020009002e00098401c00900098b0f57a6ff8d311bc7047f0b4304b1400e4b203ebc404012313fa02f2284d01232b600b
S345080078c0284e376813009bb21f433760244e376813009bb29f433760274b1e6892b232431a6080b24005206089b249056160002028600020f0bc7047f0ff0020b13b002070
S34508007900af3b0020b03b0020f03000201464004008640040b43b0020b23b0020b8360020b33b0020100c0140040c014004000140b53b0020006400400464004078ec00088d
S345080079401c6400400c640040b0650040b4650040b8650040bc6500408065004000660040046600400c66004014660040406600400000e0ff446600401c6600401500800036
S345080079800100001070b504000d0016001c220021200001f069fa6560a660eff3108072b60f4921600f49096800290bd00d49096889690c4a126894614c61a161094909688e
S345080079c0616103e007490c606461a46106490968491c054a116080f31088002070bd00bf414d4553483b00204c3b002010b513490c68002c03d012490968002901d0132055
S34508007a001ae0002801d1002016e0eff3108172b6042222630122a2630022c4f88420e06408480068401c074a106081f31088200001f024fad4f8840010bd00bf283b00208b
S34508007a4014000020403b00200a684b689a4204d1aa2101805ff0ff300be00a68cb6833f812300380521c8868824200d300220a60002070474a68cb6823f81200521c886841
S34508007a80824200d300220868904202d15ff0ff3001e04a6000207047c160826000210160002141600020704738b5dff8d0450b22dff8cc152000fff7efff0b22dff8c4154d
S34508007ac0dff8c405fff7e8ff0b22dff8c015dff8c005fff7e1ff00250fe0dff8b8152a00d2b21a20424301eb0200457121002800c0b280b2fff7beff6d1c2800c0b20a28f2
S34508007b00ebdb0020dff890150880002032bd2de9f04716001f00dff88095b9f80080b9f80020082a0adb002200212320fff77ef8dff8680530603860012005e10c00050041
S34508007b402800c0f30420290211f440710818e90011f02001081810f5c070dff844a5baf80020d2b240f2bf7180b2fff79dfebaf80000401caaf80000dff82015404680b2e8
S34508007b804001084430602800c0f3042215f400500243280210f4c0500243e80010f020000243280210f4407010f5c0700243404680b240010a520020424692b252010a44f1
S34508007bc090700020424692b252010a44d0702800c0f3042215f400500243280210f4c0500243e80010f020000243280210f4407010f500700243404680b24001084482805c
S34508007c000020424692b252010a4410740020424692b252010a4450740020424692b252010a4490740020424692b252010a4450610020424692b252010a4490613822dff856
S34508007c4064342000c0b2504318441ffa88f85fea48160e44f061b9f80000401ca9f80000b9f80060300080b24001084438602800c0f3042715f400500743280210f4c050cd
S34508007c800743e80010f020000743280210f4407010f5c070074357f04007300080b240010f5200203700bfb27f010f44b87000203700bfb27f010f44f8702800c0f304275f
S34508007cc015f400500743280210f4c0500743e80010f020000743280210f4407010f50070074357f04007300080b240010844878000203500adb26d010d4428740020350074
S34508007d00adb26d010d44687400203500adb26d010d44a87400203500adb26d010d44686100203500adb26d010d44a861e4b2544303eb0400b6b272011144c861b9f80000cb
S34508007d40401ca9f800000020bde8f08738b504000d0029002000c0b200f023f829002000000ac0b200f01df829002000000cc0b200f017f82900240e2000c0b200f011f882
S34508007d8031bd38b504000d0029002000c0b200f008f82900a4b2240a2000c0b200f001f831bd38b504000d000020297c002905d10121a9711021297480212972a9790829ad
S34508007dc016db297aa87841182972a878401c10f00f00a870687c002803d1281dfff7aafb02e0281dfff783fb0121a97100212972a97929440c72a979491ca97180b232bd08
S34508007e0010b50400207c002801d1012012e0207a50f040002072217aa07841182172a078401c10f00f00a070201dfff783fb00202074002010bd38b50c00130000210091d4
S34508007e4002006946974ddbb23820434305eb030001f0b8f8002807d18e4a009b1a214b4302eb0301216001e00021216080b232bd7cb505000020012600200090012269460f
S34508007e80884b2c00e4b23820444303eb040001f099f80400002c08d17e49009a1a20424301eb020000f006f80026002ce4d0300080b276bd80b500280ed07049407980b24d
S34508007ec0fff7d8fd40b2002806d0002200212220fef7acfe222000e0002002bd2de9fc410400257815f01f052088001210f0200005432e00fff70efcf6b2864201d10020c5
S34508007f0096e02800c0b2002801d1002090e0002633e01020b8742fe078697969098808444146c9b221440979817178690088401c7969088078690088142809db002200217f
S34508007f402120fef773fe78690088401e7969088018f101084046a178c0b28842dcd320794006d6d50020b874786940790190002201a9f86901f01af9761c3000c0b246498a
S34508007f80098880b2884252d244483100c9b24901415a22889142efd13100c9b2490100eb0107a078002832d0b87c00282cd1207900062ed50020adf8000030496846fff7a0
S34508007fc043fd80b200282bd13249bdf800201a20424301eb020078610020796908802088b0f5c070001210f003002188c91011f0040108437969c8707869857020888012ee
S3450800800010f00100796908715ff00108a2e701200ee0002200210120fef708fe012007e0002200212020fef701fe012000e00120bde8f6817cb5002416e04ff480700090bc
S345080080401949220092b24ff48070424301eb020301221649134d2600b6b23820464305eb060001f049f9641c200080b20328e4dbfff71afd01200a49088073bdb43a002004
S34508008080003a0020183a0020943a0020303a0020a43a0020ec2b0020aa3b0020f02e0020ac3b0020c8340020fc150020e4ec00087fb501215ff0005001f022fa00215ff058
S345080080c0005001f039fa01f085fa002000900020019000200290002003906946002001f085fadff8444801224ff40071200001f025fbdff838580320a8701020e8704ff4b1
S34508008100007028802900200001f0a4fa0020e870402028802900200001f09cfa0020e870802028802900200001f094fa0020e870202028802900200001f08cfa01214ff4e4
S34508008140806001f0cff9dff8e867300001f000fbdff8e0170020086000200871002048715ff4602088600020c86003200874300001f01efb0121300001f068fb012130007a
S3450800818001f06ffb0121300001f037fb012001f0d8fb300001f03efb300001f040fb0028fad1300001f044fb300001f046fb0028fad14820e8704ff48070288029002000ba
S345080081c001f048fa4820e8704ff4806028802900200001f03ffa4820e8704ff4006028802900200001f036fa00224ff40071200001f0a4fa7fbd80b580b201f0c9fbdff817
S34508008200381701f0d3fb01f05dfcdff83027dff8303701f07bfcdff82c27dff82c3701f04bfd01f071fe010089b2002001f008fa0121002001f0f0f901bd80b501224ff443
S345080082400071dff8e40601f079fa01bd80b500224ff40071dff8d00601f070fa01bd80b5dff8c8161820c8704ff400700880dff8dc0601f0eff90121022001f041f9dff85e
S34508008280d006016831f4406111f540610160dff8c4060121018041f21111dff8bc2611804ff4e041dff8b42611804ff47a71dff8b02611801021dff8ac26118040f2e731f9
S345080082c0dff8a42611800121018001bdc0b2dff89016098889b248436421b0fbf1f0dff888160880704770b5dff840460020e07001202080dff854562100280001f0aaf9c1
S345080083000020e070042020802100280001f0a2f90020e070082020802100280001f09af901214ff4007001f0ddf800214ff4007001f0f4f8dff83466300001f009fadff869
S34508008340f4150020086000200871002048715ff4602088600020c86003200874300001f027fa0121300001f071fa0121300001f078fa0121300001f040fa012001f0e1fa3b
S34508008380300001f047fa300001f049fa0028fad1300001f04dfa300001f04ffa0028fad10320a0704820e070102020802100280001f050f9202020802100280001f04af996
S345080083c0402020802100280001f044f9802020802100280001f03ef90320a0701420e0704ff4806020802100280001f033f90320a0701020e0704ff4006020802100280028
S3450800840001f028f90320a0701020e0704ff4004020802100280001f01df970bd38b5dff80c450220a0701020e07001202080dff840552100280001f00df90220a070102033
S34508008440e070022020802100280001f003f90220dff8201508600420e070042020802100280001f0f7f80420e070082020802100280001f0eff831bd80b5dff8b014032071
S3450800848088701020c8704ff400700880dff8bc0401f0e0f80121202001f032f80020dff8d814088041f61f40dff8d01408801320dff8cc1408800020dff8c8140880012004
S345080084c0dff8c41408800120dff8c01408800020dff8bc14088072b637208df8000001208df8010000208df8020001208df80300684601f02afd62b601bdc0b200280ed085
S34508008500dff87404002101800021dff8782411800221dff8802411700121018007e00020dff8541408800020dff8581408807047c0b2002803d1dff86004006802e0dff81b
S345080085405c040068704780b50020dff844140880dff840140878002817d00878401e08700020dff8341408600020dff830140860002000f0c3f9dff828140870012000f0a0
S34508008580bdf9dff8201408701fe0002000f0b6f9dff80c140a780300dbb29a4205d0dff8f82313685b1c13600870012000f0a6f9dff8f0130a780300dbb29a4205d0dff809
S345080085c0dc2313685b1c1360087001bdf8b50400002500261ce0dff89473072301220a21380001f04bf90121380001f006f90221380001f0c3f90028f9d03800c06c80b23f
S3450800860001f0c6f90100280001f0dafc0500761c3000c0b20828dedb280001f053fadff88823dff8883301f071fa0022dff8803301f07efd01f0a0fe2060241d00250026e1
S345080086401be0ca4f072301220c21380001f016f90121380001f0d1f80221380001f08ef90028f9d03800c06c80b201f091f90100280001f0a5fc0500761c3000c0b2082819
S34508008680dfdb280001f01efaca4acb4b01f03efa0022c74b01f04cfd01f06efe2060f1bd80b54ff48071a04801f034f802bd70b5002400251ce09e4e07230122062130004e
S345080086c001f0dcf80121300001f097f80221300001f054f90028f9d03000c06c80b2b74980b251f82010200001f06afc04006d1c2800c0b20828dedb20005ff0824101f070
S3450800870055f970bdf8b5002400251be0974e072301220a21300001f0b1f80121300001f06cf80221300001f029f90028f9d03000c06c80b201f02cf90100200001f040fca8
S3450800874004006d1c2800c0b20828dfdb200001f0b9f9954a954b01f0d9f90022944b01f0e7fc01f009fe0400002500271be07f4e072301220521300001f080f80121300052
S3450800878001f03bf80221300001f0f8f80028f9d03000c06c80b201f0fbf80100280001f00ffc05007f1c3800c0b20828dfdb280001f088f9824a834b01f0a8f900227c4be8
S345080087c001f0b6fc01f0d8fd210001f069fc04004ff40071544800f0a7ff01f0d9f80100200001f0fdfdf2bd80b5c0b2002806d001224ff40061554800f0a0ff05e0002285
S345080088004ff40061514800f099ff01bd80b5c0b2002806d000224ff480614c4800f08eff05e001224ff48061484800f087ff01bd80b504214e4800f06dff02bd80b5c0b209
S34508008840012805d101220121494800f077ff04e000220121464800f071ff01bd10b549f64044012000f0e4fd01214ff4807001f023fe45f2555001f031fe002001f032febd
S34508008880200080b201f032fe002001f027fe01f036fe10bd1fb501215ff4003000f030fe00215ff4003000f047fe2049032088701820c870042008801b4800f0cbfe424c55
S345080088c0200001f027fe5ff4e13000900020adf804000020adf806000020adf808000020adf80c000820adf80a006946200001f059fe0121200001f0a7fe1fbd80b5010036
S34508008900c9b2042901dbff200ce0102111fa00f0010089b20d4800f0fdfe002801d1012000e0002002bd000000080140e03a002000280140483a002000007a4483c0caa11e
S34508008940455da240f4fdd478e99a7540001001400400014000040040200400401c0400402c04004028040040400400400024014000140140141401400014004028140040ff
S345080089802c14004024140040141400400c14004010140040b93b0020e43a0020e83a0020b73b0020b83b00207fff417ffc007f3f000020403222ac21cc48583f002200087e
S345080089c02a00c63368e88f3f0044004080b50020fff71cfffff73afc01bd0ee002684368024408305feac37c44bf4b445b1e52f804cb43f804cb091ff9d150f8041b00299b
S34508008a00ecd17047002807d1002072490860802071490860002016e06e4a70494840106011686f4841406f48814209d16e48116801606e490160002067490860002002e049
S34508008a40002010602c20704780b55ff0ff3068490860684908606849086068490860fef74efe6748674901600021009102e00099491c009100996429f9d36349016001bd5d
S34508008a8054490968002901d1272016e0524902220a605e4a1060086850f0400008605c490800411e002803d05a480068c007f7d4002901d10b2000e000207047ff2056498b
S34508008ac00870564908700020554908600020704710b44f4b0122404c226001801a00531e002a03d04b4a1268d207f7d4002b01d1192006e0008889b2814201d1002000e01d
S34508008b00282010bc704780b5454a1068002809d0414800784149097811eb002189b21068fff7d6ff002002bd2de9f04104000d00002028490968002901d1272047e0384e50
S34508008b40316800290ed16108490031603349ff220a70314b1a703268a24201d10d7035e01d7033e0306861084900884214d13068a04202d12948057001e027480570264805
S34508008b8000782649097811eb002189b23068fff79fff0021316019e01f4fdff88080387898f8001011eb002189b23068fff790ffff2188f8001039706108490031603168d1
S34508008bc0a14202d188f8005000e03d7080b2bde8f0810000103b00201020024055af23505231c2ab7130a5ee04200240ab89efcd80e100e084e100e080e200e084e200e030
S34508008c000ced00e00400fa050100fa051420024040420f000c200240c03b0020c13b00200c3b0020f8b506000c001500fff746ff002701e0761c7f1c3800210080b289b22d
S34508008c4088420bd2380080b2295c3000fff76cff010089b20029edd080b202e0fff753ff0020f2bd80b50100eff3108272b6c868002806d18868401c886082f31088002010
S34508008c8023e0036f984202d10023cb600be0036fcb60036fd0f874c0c3f874c0436fd0f870c0c3f870c00b695b1e0b610021816606490968491c054b196082f3108800213f
S34508008cc0c0f8841001f0cefc002002bd403b002010b5eff3108272b68368002b06d08168491e816082f3108800202fe000292ad0174b1c68174ba366e066c368002b0ad041
S34508008d00c3682367c3685b6f6367c3685b6f1c67c3685c6702e0c4602467646703695b1c0361062020630120a063e1640a480068401c0949086082f31088200000f09ef813
S34508008d40d4f8840002e082f310880d2010bd00bf283b0020d9e90008403b002080b572b6244825490860fef7cafc012000f026fb212000f0effb0028fad0002000f02ffb32
S34508008d805ff4803000f0fefa312000f0e3fb0028fad05ff480115ff4803000f013fb012000f019fb392000f0d5fb0028fad04ff4404000f035fb002000f029fb4ff480605a
S34508008dc000f01dfb002000f012fb022001f0c6fc002001f0ccfc102001f0d3fc022000f0fefa40f2fd10054908605ff090500449086001bd0020000808ed00e0181002409a
S34508008e001c10024080b572b64ff4407001f098f814208df8000001208df8010000208df8020001208df80300684601f08ef813208df8000001208df8010000208df802000a
S34508008e4001208df80300684601f07ff862b601bdeff3108180f310880846704701480068704700bf283b002010b5040010000a000100200001f092fc200010bd10b50400e9
S34508008e804848006884420ad1e06c002807d05ff0ff31884203d014f14c0001f0b3fceff3108072b640490968491e3f4a1160a16b002964d00021a163e16a226aa2421ad08b
S34508008ec0226a636a5362626a236a1362374a52f82120a24253d1354a236a42f82130344909688c424bd133490968304a52f821102f4a116043e02d4a002342f821302e4a79
S34508008f001268012313fa01f1c94311402a4a11600021294a1268d3b2002b20d1120ad3b20831002b1bd1120ad3b20831002b16d1120ad3b20831002b11d11e4920220a60be
S34508008f401b4900220a6080f310881c480068164909680843002823d101f096fc20e0184a9a5c5118134a1160114909688c4206d1104909680d4a52f821100d4a116080f38c
S34508008f801088084800680a490968884208d00b480068054909680843002801d101f074fc10bd00bf283b0020403b00203c3700202c3b00203c3b0020383b002014000020ab
S34508008fc0f02f002010b5eff3108372b6846a002c35d0d4f880c0bcf1000f30d0e26fd0f808c001e0091d121dd2f800e0c1f800e0bcf1010cbcf1000ff4d1216f8c4202d115
S345080090000021816207e0216f8162216f626f4a67616f226f0a67c16a491ec1620020a0665f480068401c5e49086083f310880020c4f88400200001f015fb0020aee0d0f886
S3450800904010c0bcf1000f71d0026ad0f808c001e0091d121dd2f800e0c1f800e0bcf1010cbcf1000ff4d18168026a12eb81010162016ac269914201d381690162002c09d19e
S345080090804169491c41610169491e016183f31088002083e042490968491c414a116083f31088eff3108372b63d490968491e3c4a1160e26f416ad0f808c001e0091d121d0e
S345080090c0d2f800e0c1f800e0bcf1010cbcf1000ff4d18168426a12eb81014162416ac269914201d381694162216f8c4202d10021816207e0216f8162216f626f4a67616fb2
S34508009100226f0a67c16a491ec1620020a06624480068401c2249086083f310880020c4f88400200001f09efa002037e0002a32d0dff870c0dcf80040dff86cc0c4f868c0c5
S34508009140e066e1670021c4f88010816a00290ad0816a2167816a496f6167816a496f0c67816a4c6702e0846224676467c16a491cc162052020630120a063e26408480068cb
S34508009180401c0749086083f310882000fff776fed4f8840002e083f310880a2010bd00bf403b0020283b002051e9000810b5eff3108372b6d0f814c0bcf1000f5cd0826acd
S345080091c0002a23d14269521e42610269521c0261426ad0f808c001e0121d091dd1f800e0c2f800e0bcf1010cbcf1000ff4d18168426a12eb81014162416ac269914201d325
S345080092008169416283f3108800206de0846a226f944202d1002282620be0226f8262226fd4f874c0c2f874c0626fd4f870c0c2f870c0c26a521ec2620022a2662b4a12687b
S34508009240521cdff8a8c0ccf8002083f31088e26fd0f808c001e0121d091d08681060bcf1010cbcf1000ff6d10020c4f88400200001f0f8f9002037e0002a32d0dff870c041
S34508009280dcf80040dff86cc0c4f868c0e066e1670021c4f88010816a00290ad0816a2167816a496f6167816a496f0c67816a4c6702e0846224676467c16a491cc162052034
S345080092c020630120a063e26408480068401c0749086083f310882000fff7d0fdd4f8840002e083f310880b2010bd00bf403b0020283b002051e900082de9f04105000e0005
S3450800930017001c00ddf81880382200212800fff7abfd6e60af60b800b8fbf0f000fb07f1ac6114eb8101e9612c626c626861e860eff3108072b6104929601049096800296f
S345080093400bd00e490968496b0c4a126855630d6369630a490968296303e008490d602d636d6307490968491c054a116080f310880020bde8f08100bf55455551503b0020a2
S34508009380543b0020dff808120a6832f480320a600a6832f480220a60b0f5803f03d0b0f5802f05d009e0086850f48030086004e0086850f4a0200860ffe77047c0b2764904
S345080093c0086070470022734b1a6832f47c121043084318607047c0b270490860704700216c4a1168890889000843106070470021684a116831f0f001084310607047002146
S34508009400644a116831f4e0610843106070470021604a116831f4605151eac0011160704700215c4a116831f44041084310607047c0b25c490860704710b40021002100212c
S345080094400021544a116811f00c01002904d0042905d0082906d01ee0534901601de0534901601ae0136813f470139b0c9b1c116811f48031002903d14d494b43036009e0a4
S345080094801168890303d54b494b43036002e047494b43036001e044490160116811f0f0010909454b595c0468cc404460116811f4e061090a595c4468cc408460116811f48b
S345080094c06051c90a595c4368cb40c360116811f44041890b394a515cc268b2fbf1f1016110bc7047c9b2002904d035490a681043086004e032490a6832ea000008607047bc
S34508009500c9b2002904d02f490a681043086004e02c490a6832ea000008607047c9b2002904d029490a681043086004e026490a6832ea000008607047c9b2002904d02349ff
S345080095400a681043086004e020490a6832ea0000086070470021002100210100c9b24909c9b2012902d10a49096806e0022902d10b49096801e016490968c0b210f01f005e
S34508009580c140c80701d5012000e00020c0b2704700100240041002400000424260004242201002408004424200127a00001bb70000093d00808d5b000000002010000020c7
S345080095c0181002401c1002400c100240101002402410024080b501215ff00050fff7acff00215ff00050fff7a7ff01bd30b400220022164d2b6840f6fe72824093430c68ce
S345080096004a6814438a681443c9680c4314fa00f01843286030bc7047c9b2002907d00b490a68012313fa00f01043086007e007490a68012313fa00f032ea000008607047a4
S3450800964089b2034a10180160704700000074004008740040f0b4002200220022002200220022cb7813f00f03ca78d20601d58a7813430a78120620d0066800241ae0ca783c
S34508009680482a16d1a740076113e0012717fa04f50a882a40aa420cd1a2000f259540ae4313fa02f232431600ca78282ae7d1a7404761641c082ce8d306600a88b2f5807ffa
S345080096c026db4668002420e0012714f1080517fa05f50a882a40aa4216d1a2000f259540ae4313fa02f232431600ca78282a04d114f1080217fa02f24261ca78482a03d1a5
S3450800970014f1080297400761641c082cdcd34660f0bc70470022806889b2084201d0012000e00020c0b270470022c06889b2084201d0012000e00020c0b27047d2b2002a1f
S3450800974002d089b2016101e089b241617047304080b5dff81012884208d0dff80c1288420fd0dff80812884216d020e001214ff40070fff7d3fe00214ff40070fff7cefe46
S3450800978015e001214ff48060fff7c8fe00214ff48060fff7c3fe0ae001214ff40040fff7bdfe00214ff40040fff7b8feffe701bd10b4002200234468dff8b42114400a684f
S345080097c014430a7954ea022444608468dff8a4211440ca6814438a6814434a7954ea42048460c26a32f47002097c491e0b43dbb252ea0352c26210bc7047c9b2002904d065
S34508009800816851f00101816003e081684908490081607047816851f008018160704700218068000701d5012000e00020c0b27047816851f0040181607047002180684007fd
S3450800984001d5012000e00020c0b2704700220022426832f46042c9b2491e52ea413242607047c9b2002904d0416851f40061416003e0416831f4006141607047f0b4002480
S3450800988000240c00e4b20a2c11dbc5680727b1f10a060324664317fa06f6b543dbb2b1f10a0603246643b3402b43c3600ee004690726032505fb01f516fa05f5ac43dbb211
S345080098c0032505fb01f5ab40234303611300dbb2072b0fda446b1f26551e05235d4316fa05f5ac43c9b2531e0522534399402143416324e01300dbb20d2b0fda046b1f26a1
S34508009900d51f05235d4316fa05f5ac43c9b2d31f0522534399402143016310e0c46a1f26b2f10d0505235d4316fa05f5ac43c9b2b2f10d030522534399402143c162f0bcc9
S345080099407047c0b2002805d00b48016851f40001016004e00848016831f4000101607047000000000024014000280140003c0140fffef0fffdf7f1ff082401400022006863
S34508009980c9b2084201d0012000e00020c0b2704750b1b0fa80f18840c1f19d01c905020672f1004241eb1020704741504ff0ff0c1cead0531dbf1cead1526345624543e07c
S345080099c09b1a5feacc7280ea010c42ea01211cea020c42ea0020421a38bf01eb420253f17e034fea1121b2fbf1f001fb102260f3d63c4fea0222b2fbf1f001fb102260f3b8
S34508009a00ce1c4fea0222b2fbf1f006ddff2b29da5cea500040ebc3507047c3f1020301fb1022192b40ea4c010cf0004c41f0807121dc21fa03f0c3f120039940114371f12b
S34508009a40004250eb0c00704763451abf0cead152624512e080ea010c00180cf0004c06d049181ad10cf0004c4cf0ff407047c94208bf6fea020c60467047634506d1b2eb40
S34508009a800c02f5d001f00041484070474a0212bf0846484000f0004070474ab90902b1fa81f2914043b19b18c00140f0004092e7c90141f0004152420002b0fa80f3984065
S34508009ac0d31a88e7c0f3c75181b1ff2906d0c110400721f0e04101f16051704741020cbf40f4e0016ff000410020704700f0004100020ad0b0fa80fc00fa0cf001f16051f7
S34508009b00a1eb0c5101ebd0214005704730b540f2ff7c1cea11541dbf1cea1355644565453fe0641981ea030c6ff35f530cf0004c43f48013c90241f0004141ea505ec502a2
S34508009b401100a5fb020200284ff00000eefb01204ff00001e3fb052118bf42f00102401800214941e3fb0e01a4f580640d0302d292184041494154f1010470dd450872f114
S34508009b80004250f1000051eb0451a1f5801102d441ea0c0130bd40f2ff7e4cea0e51002030bd0cea1355644518bf654581ea030c0cf0004c41d050ea410e1cbf52ea430ec4
S34508009bc002e06146002030bd24422c441bd15fea050ef6d0090302bf01460020aef1140eb1fa81f5aeeb050401fa05fe0c35c5f1200100fa05f5c8404eea000e6ff35f53b9
S34508009c0043f480139ce733f00043b3fa83f504bfb2fa82fe75440b3d641bb5f1200e2fbf02fa0ef3ab40c5f1200e22fa0efe38bf43ea0e03aa40641c7ce750ea410e14bfbb
S34508009c4052ea430e6ff000014ff4001515eb430f8ebf194615eb410f9de7b4d830bdd4f10104b4f120050fdac4f12005520828bf42f0010210fa05fe01fa05f57244e2bf20
S34508009c80e0402843e1400fe0352c9adcc5f1200452ea400220fa05f218bf42f0010231fa05f0a1400a43002172f1004250f1000051eb0c0130bd515570b491ea030f4ff08e
S34508009cc0004540f1b7806b40841a71eb030604d26e40001bb141121973414ff4001c1ceb410f34bf7ceb430683e00c0da4eb1356362e00f37c80012e45eac32341dc43eadd
S34508009d00525312bfd20292025b08240545eac12141ea5051d2ebc020994125d407d1b0fa80f610fa06f162d00020203608e0b1fa81f6b140c6f1200220fa02f21143b04097
S34508009d404feaf474b4eb465434f001064fea74040ad8d6f50016760d04f00044f04061fa06f25040f1404840c00a40ea415021f0004128bf5fea500550f1000044ebd12117
S34508009d8035e0db0a45eac121c90ab6f120050edd42ea0242120cc5f1200603fa06f6eb4042ea06056d42984161f100010de062fa06f5f240554063fa06fc82ea0c02f34049
S34508009dc05a406d42904161eb030111f4801f05d1641e620502d06d004041494121f48011430875f1004350f1000041eb045170bc70471ceb410f15d223f0004352ea4306e6
S34508009e000bd04fea4c0cbceb410f04d80c0d661e342eb7ddebe7801a994150ea410608bf0021e4e708bf1ceb430f28bf6ff00001dde70000841a71eb030603d2001bb141b8
S34508009e40121973414ff4001c1ceb410f34bf7ceb430442e00c0da4eb1356352e4fdc45eac323db0a45eac121c912b6f120050ddd63fa05f6eb4086ea0305124218bf45f0e6
S34508009e800105c01851f100010cd213e062fa06f5f2405540f3415a40b340f3405a408018594107d349085fea30005fea350528bf45f0010501f58011420875f1004250f1c1
S34508009ec0000041eb04514e0016f5001f70bc38bf70470020090d090570471ceb410f10d252ea43060bd0bceb410f05d80c0dab43661e342eb6dd02e0ab438018594170bc6b
S34508009f00704770bc70475b00c1f30a5340f21e42d31a0cddca0283f3070342ea505242f00042da4002ebe17282eae17070476feae17203f2e13008b182f000407047000075
S34508009f401a4908431a4908607047002100210f23c17800291ed01649096811f4e061d1f5e061090ad1f10402cb40417811fa02f281780b401a4312010e490378ca5401215e
S34508009f80027812f01f0291400b4a0078401142f8201009e00121027812f01f029140074a0078401142f82010704700000000fa050ced00e000e400e000e100e080e100e04b
S34508009fc090ea010f40f1728081f00041431a4ff000423ebf5340c01ac918d3095fead05c13eb400f34bfb3eb410f40e07cebd1530cd342ea012122d8d1eb402009d3400a38
S3450800a00028bf5fea500140ebcc507047401a15d04002b0fa80f2521c9040400a4fea3c23b3eb026384bf00eb730007e040f400001a16db07c2f10102d04018437047182bea
S3450800a040fcdc31fa03f202fa03f3591a38bf42f00102d2eb40203cbf0018acf1010c5feacc5cc20572f100414ceb5020704713eb400f0fd2c94209d0acebd153022b03db5d
S3450800a0804902172bdddd70479143401ac042d5d10020704713eb410fd0d36ff00000704790ea010f7ff592af81f00041421a3cbf801a8918c0f3c752ff2a4ff0004c22d0eb
S3450800a0c0c1f3c7534bb3d21ad2f119032edd4cea01214cfa03f321ea0303d1404cea00226ff3160052180fd353eac2534cea520273eb0c0c50eb1220420012f1807f38bfe4
S3450800a10070476ff31600704753ea026322ea0c0273eb0c0c50eb12207047490212bf9a4200eb5120efe7d2f11703d2d570470000f0b540f2ff7581ea030c0cf0004c15ea64
S3450800a14011541dbf15ea1357ac42af42e5e0bc41c1f31301c3f31303801a994143f4801304d2641e0018494180185941c90241ea5051b1fbf3f603fb1611a2fb0675d7eb5d
S3450800a180c020a94102d2761e80185941c90241ea5051b1fbf3fe03fb1e11a2fb0e75d7ebc020a94103d2aef1010e80185941890241ea9051760546ea8e2eb1fbf3f603fbda
S3450800a1c01611a2fb0675d7eb8020a94102d2761e80185941c90241ea50514eea060eb1fbf3f603fb1611a2fb0675d7ebc020a94102d2761e80185941c90241ea5051b1fb0e
S3450800a200f3f703fb1711a2fb0735d3ebc020a94167f100070cbf004247f0010766f3d5274fea1e31b80814f5806412ddbd0775f1004250eb0e5051eb045111f5801f5cbf25
S3450800a24041ea0c01f0bd4cf07f6141f0e0410020f0bdbd076d0840ea0e5041f48011d4f10104b4f120060adac4f120060200e04001fa06f3e1401843b24015430ee0342cab
S3450800a28013dcc6f1200445ea40056d0820fa06f2154321fa06f0a1400d43002175f1004250f1000051eb0c01f0bd00205fea0c01f0bdcfb992185b41b3fa83f704bfb2faaa
S3450800a2c082f6bf190b3fb7f120062fbf02fa06f3bb40c7f1200622fa06f638bf3343ba401cb1e419641e33e77f4231f00041b1fa81f404bfb0fa80f6a4190b3cb4f1200652
S3450800a3002fbf00fa06f1a140c4f1200620fa06f638bf3143a0403c1b1ae7ac421abf05ea1357af4212e050ea41061cbf52ea4306bfe750ea4107304661461cbf41ea055136
S3450800a340f0bd52ea430c08bfc143f0bd00204ff4001616eb410f98bf16eb430f08bf16eb410f24bfc14305e016eb430f0cbf61464cea0551f0bd000001f000428b1aa3f15d
S3450800a3806051b1f5801f0adbb1f17f6f1fd242eac102c10071f1004142eb507070470b15c3f10903212b10d2890241ea905180020128494141f0004121fa03f0c3f120030b
S3450800a3c0994071f1004150417047100070476ff0000013eb103f5cbf000e42eac0507047ff2212ead05c1dbf12ead153944593422be09c44d30780ea010243ea002043ea5d
