S34508002000e84f0020312100087db4010881bd010885bd010889bd01088dbd01080000000000000000000000000000000069b501087fb401080000000069b501086fb40108bd
S3450800204065b4010865b4010865b4010865b4010865b4010865b4010865b4010865b4010865b4010865b4010865b4010865b4010865b4010865b401089db4010865b40108fa
S3450800208065b4010865b4010865b4010817b90008c7b8000865b4010865b4010865b4010865b4010865b4010865b4010865b4010881b401088fb4010865b4010865b4010891
S345080020c065b4010865b4010865b4010865b4010865b4010865b4010865b4010865b4010865b4010865b4010865b4010865b4010865b4010865b4010865b4010865b40108b2
S3450800210065b4010865b4010865b4010865b4010865b4010865b4010865b4010865b4010865b4010865b4010865b4010865b401080249d1f800d01af011b900000020000819
S34508002140ffffffffffffffffffffffffffffffffcc325aa5002000080cc4010873c40a26303030303031373100534d537461676500322e30362e30322e323230320000ff96
S345080022002de9f84300240ff21c184ff4fa654ff47a79ff2702f01ff8002237707270b270f27032717271b27164213181b2720521b1816420f08130827082b082f08232766f
S3450800224032207076c821718306f13000f2620121017064236ff06301816042804ff4fa71016143604ff4967102734161c0f81890c0f82890c56101624562c56202634263fb
S3450800228006f1680006f1900102700a7686f8c02042608260c26042618261c2610262426206f596700a704a708a708a808a710a818a720123027042708270027343734146db
S345080022c006f5087002f0c0fe7022dff8fc0962430021104486f84c11642207708170c1708180c18001818172c1728181c18102828174c17481820b22dff8d00900eb041070
S3450800230001704170817041608160c1606243dff8c0091044641c022c41700171fff67aafbde8f183534d434d7574657800000000f8b505460026dff89c4929464ff416722e
S34508002340dff894095143182342187343134403f1a807387898b1787870b1f0b203f09ef97978491e03f016faf0b203f097f9797854f82000491e016000217960b960761c82
S34508002380062edadbf1bd70b501f086fa00f168042378012b0ed100f5aa75ee686968304603f0b0fa616803f039fb0146304603f011fc286070bd2de9f84f4ff41674dff82e
S345080023c0285d60432c188846606f164603f04afc0546304603f046fc06462846314603f091fa074603f04cfc02460b4603f06cfc82468b46404603f03dfd4ff0804103f0d1
S345080024000dfb314603f07efa03f03afc52465b4603f042fd03f070fe03f0e8fe8146394603f0d8fb314603f0f9fa294603f062fb804687f00040494603f0ccfb314603f07e
S34508002440edfa294603f056fb002103f003ff28bf404603f013ff2067206f03f003fcc4f85801bde8f18f2de9f04f054629464ff41674dff86408614300eb010909f16801cf
S3450800248085b0886803f0eefb044609f1680709f16800fe69c16809f168024ff000081161dff83428c16804914ff416704543501900f5ac71029102980168039167e0029982
S345080024c0486803f0ddfb02460b46dff8a80cdff8a81c03f0dffe04460d46404603f0d0fb22462b4603f0f0fb04f0ecf9044603980d4603f0c5fbcde90001f86803f0b2fbb1
S345080025000146039803f066fb03f0bafb82468b462046294622462b4603f0d6fb52465b4603f0d2fb02460b46dde9000103f072fd03f05cfe029989680446404603f08afec5
S3450800254024d81fe04ff07e50214603f0dbf9414603f0d0fa804638780028b0d1786903f081fb414603f05afa01460298006803f031fb0446f86803f075fb0146204604f080
S34508002580a3f903d2049803f06dfb0446761e012ed8da049803f066fb214604f095f906d209f1680520466c6003f068fe286102f02abd2de9f14f02468a4600f0cefa424336
S345080025c08e1884b0306f716f401a03f04bfb0746f06f03f047fb8046d6f8800003f042fb039006f5a875306f03f03cfba860baf1000f48bfcaf1000a384603f041fbf26fac
S34508002600044689464ff0804b12b322464b4603f05bfbcde900014046594603f0fff903f02ffb00f0caf8cde9010100f0cdf80090414600f0cdf8009903f0f0f903f020fb10
S34508002640dde9012303f028fc03f0d0fd804601e04ff00008d6f8800048b322464b461046194603f031fb044689460398594603f0d5f903f005fb02460b462046494603f0ff
S3450800268009fe0446706f894603f0ecfa8346039900f09ef8594603f0c1f903f0f1fa22464b4603f0f9fb03f0a1fd074600e000274046394603f01efa8146504603f0d2fa2e
S345080026c0494604f001f906f184042bd2607b022828d0f76fd6f880108f4208d14fea5a09cb46c7b9d6f8802022b3594615e0504604f0fef8cde900014846414603f002f92a
S3450800270003f0befa00f059f804f000f98146002faaeb090be6d03a4649469df81000fff74afe07e0404603f0a9fd8146384603f0a5fd8346aaeb0900c4f80090c4f808b064
S34508002740a0eb0b006060002028606860306f03f089fa00f038f80146384603f03bfa0746f06f03f07ffa00f032f8e860306f03f079fa00f028f80146384603f02bfa0746aa
S34508002780d6f8800003f06efa00f021f8b9f1000f286104d14046002103f05cfd01d2706f00e0306f03f05efaf0669df81000fff75afe0020a07502f026bc02460b46dde922
S345080027c0000103f067bd0746706f03f04bba0146384603f097b830b54ff41673dff80849584320446424c58a694391fbf4f14a436420b2fbf0f080b230bd10b57023dff8d0
S34508002800c8144343cc18c0b2228ae17cd2b2fff7e2ff01462078bde8104004f0a3b810b500f067f804f1180004f0eaf92178ff292ed0a07860bba08804f042fae078d0b928
S3450800284021780329c8bf012119dc218a207804f089f8a17a207804f0c3faa07c012814d104f1440004f0ccf900f049f804f1440005f0a4f909e02078032804dd002160782d
S3450800288002f088ff01e004f0f1fae08804f018fa0120a07010bd10b500f02bf8e07801281ad12278032ac8bf012119dc218a104604f058f8a17a207804f092faa07c0128ff
S345080028c014d104f1440004f09bf900f018f804f1440005f073f909e02078032804dd0021607802f057ff01e004f0c0fa0020a07010bd7021dff8d023484314187047a18a3c
S34508002900002204f1440005f067b970214843dff8b8130a5cff2a00d1704710b50c1804f1180004f06df92189002204f1180005f053f904f11800bde8104005f03fb92de9d5
S34508002940fe4305460c4600f008f9684390460e18002206f19007adf800203c70ba709946b2620b23dff868236b431344002119712846fff7ddfc307f012803d1022c1cbf63
S34508002980708af082b9f1010f03d0b9f1020f07d00fe0706c316c70673167b06cb16d05e0306df16c70673167706df16df067c6f88010012c11d018d3032c0ed015d2022030
S345080029c0787000212846fff7f4fd706eb8f1000f0cbf401c401e706607e001207870716e306e091a2846fff7e4fd06f5b27004f007f9dff8500a007808bb6a460df1010178
S34508002a00284604f0e3f89df8012064212846fff7e2fe01466800c0b203f0a4ff9df8002064212846fff7d7fe01466800421cd0b203f098fff18a284604f097f80ae001280a
S34508002a4008d101223146284605f07efd3146284605f0aafd2846fff7e2fe15b1012d0bd016e0002005f09eff01464ff080408185c0464ff0804009e0012005f093ffdff802
S34508002a80c859014628468185c046284606f024fa022c07d04ff0ff3201a906f5f47006f021fa01e0002001900198bde8fe8310b50346881a5418002a06dd00290edd002c5b
S34508002ac007d4b3b9204610bdfbd500290add0028f7d51900f5d16ff0004010bdf1d50028efdd02e0edd5002cebdd012be9d1dff8d40c10bd38b500210446adf8001000f076
S34508002b002cf8dff8402960430d181078e8b96a460df10101e0b204f059f89df80120697ee0b2fff758fe01466000c0b203f01aff9df80020697ee0b2fff74dfe64000146f1
S34508002b40641ce0b203f00eff31bd012804d100222946e0b205f0f8fc31bd4ff41670dff88815704738b500f068fc4843141804f508750021284606f0a9fa50b9032084f81d
S34508002b809100012184f838112846bde8324006f02bbb002084f8380131bd38b5040002d0012c09d017e001f065ff01f052ff01f05dff002101200ce0dff88c58002128464f
S34508002bc08185c046284606f087f901f04bff0021032003f0c7fee0b2bde8324003f0ebbfdff860180a78012a0dd10b21dff85c38484318444278012a04bf0079012802d1e5
S34508002c0040f201307047002070473eb5044601f024ff24d12046fff7e3ff40f20135a84201d128463ebd6946204605f022f9b0b99df80400002804bf9df80300002808d0da
S34508002c4000f0fbfb4c431119887a10b140f205203ebd9df8060010b14ff440703ebd00203ebd4ff41671dff880244843104490f83931012b1cbf002101660020704704f0bd
S34508002c80cdbff8b5044625464ff41670124b0f4f68430a461e183146204605f0bafa2b01f95c79b13246f918204605f08efb0b20dff898174543324629442046bde8f84064
S34508002cc005f0cebbf2bd000080430020cc460020ec4600208ca00108202a00202de9f14f90b0884600218df80c1001f063fc01f064fc8df8080001f05dfc0b9001f05afc13
S34508002d008df8070001f056fc8df8060001f052fc8df8050001f04efc01f047fcadf81e0001f048fc8df8040001f040fc099001f03dfc089001f03afcadf80a0001f03afced
S34508002d408df8030001f036fc8df8020001f02efcadf81c0000f037fe00f06ffa8df8010001f024fcadf80e0000f02dfe00f02afe049001f01ffc01f01cfc8df8000001f01d
S34508002d8015fc069001f012fc059000f01cfe0e9000f019fe0d9001f009fc824601f006fc834600f010fe0c9000f00dfe022d23da0c22dff8041c6a4311444b78ff2b08bf68
S34508002dc040f2012000f080819df840200b789a4218bf4ff4887040f077814a78032a18bf40f2032077d19df80820022abfbf0b9a022a9df80720022a6bda9df80620032a43
S34508002e0067dc9df80520022a63da0a9a022adcbf9df80420022a5cdc099b40f28b229342bcbf089e964254dadff8902b32f81530bdf80a2093424cd39df80330022bbcbfd3
S34508002e409df80220652a44dab7f1004f41d09df80120022a3ddab9f1004f1cbf049ab2f1004f36d0dff8583b1a780f2a18bf0e2a01d1042c02e00d2a02d1022c29dc05e02b
S34508002e800c2a18bf0b2a01d10e2c22dc9df80020022a1eda069b47f6f7420a3b93423ebf059b0a3b934214d20e9edff8243c9e423cbf0d9e9e420cd2aaf10a0696423cbf6c
S34508002ec0abf10a06964204d20c9a9a4238bf984202d34ff48070f7e0069a059b9a42a1bfda45089a099b9a4202da40f20620ebe0049a9742acbfb94540f22720f7db91f9c7
S34508002f00022012f1010f02bf0b9a012a4ff40a70edd091f9031011f1010f02bf0a9901294ff40c70e3d04ff416726f499df808306a438e1873700b99b1709df80720f2702b
S34508002f409df8061031719df8052072710a99b171bdf81e2032819df80410b172099ab2810899f181bdf80a203282bdf80a10f1829df8032032769df802107176bdf81c2085
S34508002f80f762728306f130079df801103970bdf80e207a80c7f804900499b9603c7306f168049df800102170069a3a61059979610e9aba610d99b962c7f81ca0c7f820b0c9
S34508002fc00c997962f862397b01b10121617006f2391a049850ea0900014618bf01219af813008af8001000284bd10421009106f59e7301220ff2d07106f5f47006f014fa21
S345080030000020029001902b46728b0ff2c871009206f5b270dff8542b06f04cfa00200290019000902b46dff8482b0ff2c07106f5c87006f03ffa7021dff8380b694300ebf2
S3450800304001090022029201924fea0503b9f81400dff81c2c25a1009009f1440006f02afa0020029001902b46b9f8082026a1009209f11800dff8fc2b06f01cfa01208af877
S345080030801300dff8c0130878012826d13178ff2918bf8df80c009df80c2001f0b7ff2b01dff8d47bf95c69b13246f918284605f08cf90b21dff89403694301443246284661
S345080030c005f0cef9010004d09df84030014601f081fd002011b0bde8f08f6278397b284603f0b6fcf5e70000202a00204272616b6543757272656e74526564756374696f83
S345080031006e54696d657200004272616b655469676874656e00000000f8b501f0f9fd01f03efe012ec8bf4ff480711fdc01f0b0fa08bf40f2012119d0515c8c4218bf4ff480
S34508003140887113d1032f18bf40f203210ed1bd490a78012a08d04ff41671dff8883c4e43991981f8690003e040f20a2101f098fa0020f2bdea2e4454fb21f93f2de9f14f25
S3450800318000f025fc064601f015fa00f056f801f014fa00f017fc044600f015fc824600f012fc012e83462ddc0c207043dff808180a185378ff2b07d140f201219df8003074
S345080031c001f008fd00f081bc9df80030085c834218bf4ff48871f1d15078032818bf40f20321ebd19749087820b9012fc8bf40f20a21e3dc062f05da022dd8bfb9f1020f5e
S3450800320000dc14b94ff48071d8e7012fd8bf02f06ffa4ff41670dff8cc2b4643182190194f43c11901f19c000460c0f804a0c0f808b0057380f80d90c4e70746404606f095
S345080032408abc2de9f14f8a4684b000f0eff8019000f0ecf88df8000000f0ecf8adf80a0000f0e8f8adf8080000f0e4f8adf8020000f0dcf800f0d9f800f0dbf8834600f06b
S34508003280d9f8804600f0d6f8814600f0cff8044600f0ccf8074600f0cdf8019901293adc0a460c214a43dff81037991891f801c0bcf1ff0f09d140f201219df81030002250
S345080032c0504606f082fc01f09dbe9df810c09a5c944518bf4ff48871efd14978032918bf40f20321e9d19df800100129dcbf012d012e10dc40f28b218b45b8bf88450ada06
S34508003300dff8b816019a31f81210494503d3012c01dc652f02db4ff48071cee7019bdff8c42a4ff416714b43d118bdf802204b8b9a4205d3097e012908bf4ff40271bcd06f
S34508003340019bdff8302870214b4313449df80020da70bdf80a109980bdf80820da80bdf8021019819d72de72a3f80cb0a3f80e80a3f810909c74df749882d878012804bfac
S34508003380d87a012805d100f03ffa10b140f2092193e70198fff77ffa95e72de9f04781468a4600f043f800f040f800f042f8074600f040f88046504606f0affb04465046b8
S345080033c006f0abfb012d22dc0c21694300f0fdfc09d140f201214b460022504606f0f5fb0020bde8f087515c894518bf4ff48871f1d1dff8c81531f81510b94228bf4145e2
S3450800340005d3012e03dc002c58bf002802d54ff48071e0e700f011f84d4351190e774f82a1f814800c624862dae70546504606f092bb0646504606f081bb4ff41671dff833
S34508003440a42970475247002000040040ec4600202de9f34f89b0084606f07dfb81460a9806f05bfb069000f0f1fe01fb09f100274418b9f1010fb846bb4604f1920a20dc35
S345080034800c2000fb09f00790dff82c5507982818049004994878ff2808bf40f2012712d09df824000a78904218bf4ff488770ad14978032918bf40f2032704d10698002839
S345080034c002d54ff4807711e1a17a4fea49064fea4900761c8df80c0011b3dff80c291078f0b9022905d14846fff757fb322003f0e7fb2078ff282dd1e289a1899df80c0081
S3450800350003f072fd5fea000b07d1e289a189f0b203f06afd5fea000b1cd040f20527e5e0702101fb09f1dff84c2653181878ff2810d0d87a012804bf987800280ad1d21cea
S34508003540505c38b900f060f95fea000b18bf40f20927e4d194f84c0130bb0421009104f59e7301220ff2602104f5f47005f05cff029701974b46628b0ff25821009204f58b
S34508003580b270dff8e82505f095ff0297019700974b46dff8dc250ff2542104f5c87005f089ff012184f84c1104f5f47006f0e6fd208ae0828af80870e81c0799405c06f0ac
S345080035c027fe8af80400aaf8067004f130052178ff2936d101f041fa04d12146484604f0f6fd2ee094f86920297b484603f030fa6a460df10101484603f0e8fa207e9df873
S345080036000120012809d1617e4846fff7e4f800f00ef99df80020617e08e064214846fff7daf800f004f99df8002064214846fff7d2f80146f0b203f095f9e18a484603f000
S3450800364094faa0782770012848d104f59676b77004998878307006f0dbfdaaf802002179032965d8dfe801f002303855012818bf03202bd14ff001080320707060790128fc
S3450800368056d1e078411e8941c90f8df800102f63069a9df800000021fff709fa00f0c0f89df8002000f0acf805904846fff7adfa059a9af8001042452dd0012932d060bb49
S345080036c000f0a7f8b84633e010b1022070702fe04ff001080220d0e7012829d1e06a2863e16a696301202070380008d00020207000229df824300a98394606f066fa0a9984
S34508003700584606f0d0f900208af800000bb0bde8f08f68b9e2e7012904d0002040f225272070e3e7010018bf0746d7d14ff002089af80000012840d02079707000212963b6
S34508003740069ae078fff7b3f900f06af8e27800f057f806464846fff758fa9af80010464523d001292cd0010021d100f052f8286b861b2e63297801290ed1e06a68636888ad
S3450800378003f09efa01230022012100f03af84846fff73bfa074601e0286b68639af8001001299fd1002121709ee7012908d001000cbf40f22527074698e7b8f1010f8dd000
S345080037c027709ce7010000804d6f7665517565756500000043757272656e74526564756374696f6e54696d6572000000456e646c6573734d6f766554696d6572000000008d
S3450800380003214846fff79bb8da899989187803f0ebbb4ff0ff3205a904f5f47005f062bb8046c5f834800120b0800123704701469df80c0003f096b870b50d46dff8242a1b
S3450800384001210446117601f065fa012805dd4ff4807100f025ff002070bd00f058f808bf40f20121f5d0515c8c4218bf4ff48871efd1032e18bf40f20321ead100f00cf8dc
S3450800388010f8903f022b08bf40f23121e1d00121042281704270dee74ff41671dff84425484310447047f8b501f032fa012805dd4ff4807100f0f4fe0020f2bd00f027f8e1
S345080038c008bf40f20121f5d0515c8c4218bf4ff48871efd1032e18bf40f20321ead14ff416764643dff8fc74b95d022914bf032940f22221ded0dff8f0241178ff2419b908
S34508003900fff74bf9bc55d7e704f03ffcfae70c214143294a53185e78ff2e70472de9f04100f054f8064600f04ef80746012ec8bf4ff4807030dc00f038f808bf40f2012096
S345080039402ad0085c844218bf4ff4887024d1032b18bf40f203201fd100f0fff814bfff2840f2212018d0012818bf40f2222013d139463046fff775f9012808bf4ff409702b
S345080039800ad000f00cf8286e3f1800f024f83046fff73bf9010001d001f01af9dae0288ae88205f5f47006f0e9bb0c20704302490a185378ff2b7047e445002054470020f2
S345080039c0504700208146404606f0a7b804468846404606f0c0b86f660223002201213046fef7adbf2de9f14f00f04cf900f046f9064600f065fa00f049f9804600f03ff9ca
S34508003a00814600f03cf9012d824631dc00f0b0ff08bf40f2012053d09df80030085c834218bf4ff488704bd15078032818bf40f2032045d100f0cbfd44182078002814bfb5
S34508003a40ff2840f221203bd0012818bf40f2222036d11f48814538bf824509d247f6f740a7f10a0181423cbfa8f10a02824202d34ff4807024e04745b8bf40f206201fdbb3
S34508003a8031462846fff7edf8012808bf4ff4097016d0208ae082c4f874802767c4f87c90c4f880a004f5f47006f068fb206e3618666600f086fd2846fff7a7f8010004d00f
S34508003ac09df80030014600f0e5f80020bde8f28f19fce7032de9f041fff778ff0646fff772ff012e07461fdcfff75fff08bf40f201202dd0085c844218bf4ff4887027d11d
S34508003b00032b18bf40f2032022d100f026f814bfff2840f221201bd0012818bf40f2222016d1b7f1004f02d14ff4807010e0686bb842a6bfa96b8f424ff4097008dbfff7d0
S34508003b402efffff748ff3046fff75ff8010001d001f03ef80020bde8f0814ff41671a148714345182878002870470000f52a0008652b0008804300202de9f84f804600f0e3
S34508003b8081f8064600f07bf800f080f8044600f097f9814600f073f8824600f070f8012e01463bdc0c207043dff8182c13185b78ff2b08bf40f2012054d0105c804518bf66
S34508003bc04ff488704ed1032b18bf40f2032049d14ff416728348724385182878002814bfff2840f221203dd0012818bf40f2222038d1b7f1004f11d0dff8cc0b824538bffe
S34508003c0081420bd20a2c09dba9f10a0047f6f742904203d247f601539c4202db4ff4807020e04c45b8bf40f206201bdb686bb842a6bfaa6b97424ff4097013db288ae88240
S34508003c40c5f874902c67c5f88010c5f87ca0fff7a8fe6f660323fff7c0fe3046fef7d5ff010003d00146434600f014f82de70000fb27000897280008cc4600200546584672
S34508003c8005f04bbf8b46584605f065bf0746584605f054bf0022584605f097bf2de9f84380468946484605f056ff0746484605f052ff0546484605f030ff012f044622dc1d
S34508003cc00c207843fff773fe07d140f2012143460022484605f079ff67e1085c804518bf4ff48871f3d1032b18bf40f20321eed100f071f83078002814bfff2840f221219d
S34508003d00e5d0012d02dd4ff48071e0e701280ad1308af082002186f8381102232a4602213846fef70cfe002cd6d006f5c875284602f066ff00222146284603f04dff2846f8
S34508003d4003f03cffc8e72de9fc4100f0e1ff074600f041f806f508780021404605f0b6f9012f09dd4ff4807100f09afc404605f03bfa0020bde8f6810c21794300f025f847
S34508003d8008bf40f20121efd0515c8c4218bf4ff48871e9d1032b18bf40f20321e4d1002802bf06f1900420780228dfd106f5c87002f026ff06f5f475284606f0dff9384675
S34508003dc0fef7e1fa00f0e9f8d0e7dff8f82953185b78ff2b70474ff4167102487943461870470000202a0020524700202de9f84f0446fff747ff00f066f8fff747ff80460b
S34508003e0000f05ef8814600f05bf8012e82461cdcfff7cbfd05d140f201212346fff73aff53e6085c844218bf4ff48871f5d1032b18bf40f20321f0d1fff78ffe14bfff28e0
S34508003e4040f22121e9d0012f02dd4ff48071e4e7288a4845acbfc14540f20621dddb28780128ddd1a9eb080002f004f80446504601f0f8fe0146204601f044fd04464046c1
S34508003e8001f0f0fe834606f03ffae88202233a4602213046fef753fd09e0214601f02afe834606f031fae882012002f009ff484601f0d8fe0146584602f006fdedd3afe7d3
S34508003ec0584605f03bbe0646584605f044be2de9f84304460f46384605f03dfe0546384605f02cfe0646384605f028fe012d814607dd4ff4807123460022384605f065fe6e
S34508003f0053e000f035fd08bf40f20121f3d0085c844218bf4ff48871edd1032b18bf40f20321e8d1fef719fe45434d19ea8ab242b8bf40f20621dedb05f1900420780228fa
S34508003f40ded11746b81b01f095ff8046484601f089fe0146404601f0d5fc8046384601f081fe81460ae04846414601f033fe814606f0caf9e882012002f0a2fe304601f0d4
S34508003f8071fe494602f0a0fcedd305f5f475284606f0f4f800f001f8b2e7032060704ff0ff326946284604f09dbf0020bde8f2832de9f14f8b4688b0fff786ff0446fff74e
S34508003fc083ff8df80000fe27fff77eff06904ff00008fff775ffadf81000fff775fffff772ff8246fff76cffadf80200fff747fe8146fff769fffff741fe711ec9b2022caa
S34508004000059002912bda0c20604300f0c0fa08bf40f2012825d09df82020085c824218bf4ff488781dd15978032918bf40f2032817d19df800000228bcbf069802280edaad
S34508004040029804280bdcbaf1070f08dab9f1000f05d4022d03da0598b0f1004f02d14ff48078d6e00298042800d009db0b21dff8ec0c6143425c012a18bf40f20628f0d119
S3450800408000f08cfa08bf4ff40a78ead000f0e3f83078002814bfff2840f22128e1d0012818bf40f22228dcd1012d17d106f59670407b01280fd1316e726b914203db9df8af
S345080040c00010002908d0b16b326e914203db9df80010012900d0002800f09580308af08206f5f47006f04af806f59670c0f80890039902980844817886f82c1106f596701d
S3450800410006f5967180f801a08d700db9c6f8608096f82c0106f07cf806f19201b9f1000f488004d1baf1020f0ed1012811d0059a316e9df80000fef7bafc012d814610d1f7
S34508004140706b484509da0be0baf1030f08bf0028edd1306e019070666be0b06b814500da814600f073f8c6f86490614300f009fabaf1040fa4bfbdf8021081809df800207d
S34508004180022303212046fef7dafb01902046fef73cfd96f89210012902d1306e019028e040f20131884203d1306e0190042720e0019848451bd0029f4ff0ff3207a906f5c6
S345080041c0f47004f08ffe0698012812d1bdf8100002f076fd019870660223002201212046fef7adfb2046fef710fd804601e040f22928012d0ad1306e716b8842bebfb06ba6
S34508004200316e884202db4ff4097802e0b8f1000f0fd09df8203000224146584605f0d5fc40f2292188451cbfb8f5097fb8f1000f08d10198594605f09bfb7f1c5946f8b26a
S3450800424005f031fc002009b0bde8f08f4ff41671dff8c40b70474ff41671dff8bc0b614346187047ec4600202de9f14f88468eb000f0a0f900f0a1f98df80000fe2600f069
S3450800428099f90b904ff0000b00f090f9adf8180000f090f9fef7d1ff814600f087f9adf80200fff790fb059000f084f90446fff78afb00f07af9824600f078f90490fff7c9
S345080042c082fb0990fff77ffb089000f073f9791ec9b2022d0790029143da0c20684300f056f908bf40f2012b3dd09df83820085c824218bf4ff4887b35d15978032918bf5a
S3450800430040f2032b2fd19df800000228bcbf0b98022826da0298042823dcb9f1070f20da059800281dd4022c1bda0a98b0f1004f17d00999dff8900481423cbf089a824206
S345080043400fd2baf10a0f0cdb04980a3847f6f741884206d247f601508245bcbf0799022902db4ff4807beae00298042800d006db0b21dff8e8096943425c012a17d100f076
S345080043800df908bf4ff40a7bedd000f020f947183878002814bfff2840f2212b09d0012818bf40f2222b04d10498824502da40f2062bc4e0ccb107f59670407b01280fd12f
S345080043c0396e7a6b914203db9df8001000290ad0b96b3a6e914203db9df80010012902d0012c08bf002800f0a480388af88204997967c7f870a00998f86707f5f4700899f3
S34508004400c7f880108df801b005f0b8fe059807f596718860039802990144887887f82c0107f5967107f5967081f8019084700cb9c7f860b097f82c0105f0eafe07f19202d3
S3450800444001465180059820b9b9f1020f0ed1012911d00a9a396e9df80000fef728fb012c824610d1786b504509da0be0b9f1030f08bf0029edd1386e019078666fe0b86bf6
S34508004480824500da8246fff7e1fec7f864a0694300f077f8b9f1040fa4bfbdf8021081809df80020032303212846fef748fa01902846fef7aafb97f89210012902d1386ee9
S345080044c001902ce040f20132904203d1386e0190042624e0010018d10198504517d0029e4ff0ff320ca907f5f47004f0fbfc0b98012814d1bdf8180002f0e2fb01987866ce
S3450800450000f05ff82846fef780fb834607e0079901208df80100012908bf40f2292b012c0ad1386e796b8842bebfb86b396e884202db4ff4097b02e05fea0b000fd09df81f
S34508004540383000225946404605f03ffb40f229218b451cbfbbf5097fbbf1000f0dd10198414605f005fa761c4146f0b205f09bfa9df80100414605f096fa00200fb0bde8d8
S34508004580f08f014401f596700122828070478d490a180392039b5a78ff2a70470299194491f9020010f1010f70470a90404605f0c5ba0446404605f0ceba0546404605f081
S345080045c0caba0323002201212846fef7b8b94ff41671dff844086943704770b500f0d4f90546012d05dd4ff4807100f03bf9002070bd00f0bdf908bf40f20121f5d0085ccf
S34508004600864218bf4ff48871efd1032b18bf40f20321ead100f0b4f900f0cbf8286e05f0a7f9686e00f017f9287800f018f9dee7f8b500f06dfb064600f093fb012e21dc09
S3450800464000f026f805d140f2012100f029f80020f2bd515c8c4218bf4ff48871f5d1032f18bf40f20321f0d1fef7e7fe4e43911991f83931012b08d14a6b8242a4bf8b6bc1
S34508004680984202da4ff48071dfe708664866dee70c2171434b4a53185f78ff2f7047014623460022284605f090ba70b500f06cf90546012d05dd4ff4807100f0d3f800205b
S345080046c070bd0c203f4968434a1c135cff2b08bf40f20121f1d00b5c9e4218bf4ff48871ebd1491c085c032818bf40f20321e4d100f046f900f05df8687805f0d4f9a87823
S3450800470000f0adf800f0aaf8287900f0a8f8687900f0a5f8a87900f0a2f800f0f4f8a87a00f09df8a88900f0eff8e88900f0ecf8288a00f0e9f8287e00f091f8687e00f0b2
S345080047408ef8688b00f0e0f8e86a214605f1300605f00ef9307800f082f8708800f0d4f8706800f078f8b06800f075f8307b00f076f815f8680f00f072f8687800f06ff878
S34508004780306900f076fa706900f073fab06900f062f8b06a00f05ff8f06900f06afa306a00f067fa706a00f056f8f06a00f053f885e74ff41670dff8601645430d442146f1
S345080047c070470000e445002019fce703f8b500f0dbf80746204605f0bef90546012fd8bf012d05dd4ff4807100f03cf80020f2bd0c207843fff7dbf808bf40f20121f3d006
S34508004800085c864218bf4ff48871edd1032b18bf40f20321e8d12146384605f044f900f0aff8fef70afe4f431820d1194543481900f19c052146287b05f035f9687b00f07f
S345080048400ef8286800f007f8686800f004f8a86800f001f8cae7214605f08ab8e878214605f021b933460022204605f0aeb970b505460c46204605f06ef9012806dd4ff4db
S3450800488080712b46fff7efff002070bdfff73ff808bf40f20121f4d0515c8d4218bf4ff48871eed1032e18bf40f20321e9d17021dff86c27484315182146287805f0f3f84b
S345080048c0fff7ccffa88800f01ff8e88800f01cf800f019f8a87afff7c2ffe87afff7bfffa88900f011f8e88900f00ef8288a00f00bf8a87cfff7b3ffe87cfff7b0ffa88a11
S3450800490000f002f8c0e72889214605f041b870b500f03af80546012d05dd4ff48071fff7a1ff002070bd00f023f808bf40f20121f5d0085c864218bf4ff48871efd1032b01
S3450800494018bf40f20321ead100f01af8fff731ff287f05f0a8f8688afff7d6ffa88afff7d3ff286afff777ff686afff774ffd8e70c206843dff8ac160a185378ff2b7047f0
S345080049802146284605f08fb806460c46204605f0e2b8f8b5fff7f8ff0546012d05dd4ff48071fff75fff0020f2bdfff7e1ff08bf40f20121f5d0085c864218bf4ff4887104
S345080049c0efd1032b18bf40f20321ead100f045f808bf40f20a21e4d015b1012d09d017e000f048f800f035f800f040f8002101200ce0dff83466002130468185c0463046dd
S34508004a0004f06afa00f02ef80021032001f0aaff284602f0d0f800f0fdfaff2232706800f289b189c0b202f0dffa07466800f289b189401cc0b202f0d7fa0646fff7a0ff14
S34508004a402146384605f02ff82146304605f02bf8a9e74ff0804004f03fbadff8d0050178012970470021022001f07cbf0021002001f078bf00214ff0804004f02bba2de9c9
S34508004a80f14f884686b0fff795fd0190fff792fd8df80200fff78efd0746fff787fd0490fff784fd0390fff781fd0290fff782fd8df80100fff77efd8df80000fff77afd35
S34508004ac046b2fff777fdfff774fdfff776fd8146fff770fd8246fff76dfd8346fff76afd01990229bcbf9df8021002291cda022fbfbf9df8011002299df80010022913dab9
S34508004b0006f14002802a0fd2022c0dda65b1102db8bfb9f1100f07dabaf1030fd8bfbbf1030f01dc022802db4ff4807047e0dff800150a780c2a18bf40f20a203fd1019a48
S34508004b40dff8f01401eb021101230b709df802204a708f70049a4a60039b8b60029adff8d834ca600b22019f57431f449df801307b70002c9df80020ba70fe707c7112bf12
S34508004b80bd710022ba7187f8079087f808a087f809b0b8724ff41670019b9f4a019d4343d4182246e8b203f010fc010005d1019822463946c0b203f053fc010004d09df8f9
S34508004bc01830014600f006f8002007b0bde8f08f014623460022404604f0f7bf70b5fff7d3fe0546022d05db4ff48071fff73afe002070bddff8380401780c2918bf40f26e
S34508004c000a21f3d1fff7bcfedff8280400eb05162146707804f047ffb078fff720fe706800f027f8b06800f024f8f06800f021f80b20dff8041445430d442146687804f05f
S34508004c4032ffa878fff70bfefff708fe6879fff706fea879fff703fee879fff700fe287afff7fdfd687afff7fafda87afff7f7fdbee7214680b204f08bbe7fb500f048f846
S34508004c800128064606dd4ff48070fff708fd002004b070bdfff7e1fe18bf40f20a20f4d16946304603f0e5f80100eed12946304604f0f9fe9df8000000f02ff89df80100cb
S34508004cc000f02bf89df8020000f027f89df8030000f023f89df8040000f01ff89df8050000f01bf89df8060000f017f89df8070000f013f89df8080000f00ff89df80900aa
S34508004d0000f00bf8bdf80a00294604f041febee704460d46284604f01ebf294604f0c3bef8b5fff7f5ff00f03af800f019f80246022ea8bf4ff480700cdabd4801780c2947
S34508004d4018bf40f20a2005d13946304602f0fcff010001d0fff7a3fc0020f2bded4600200746284604f0d9be7cb5fff7d1ff00f016f8022ea8bf4ff480760cdaac490a7849
S34508004d800c2a18bf40f20a2605d100f04cf800f045f8300001d000f04bf8002076bd0646284604f0d8bef8b5fff7b2fffff7f7fffff7d6ff0246022ea8bf4ff480700cda71
S34508004dc09b4801780b2918bf40f20a2005d13946304602f0b9ff010001d0fff760fc0020f2bd7cb5fff794fffff7d9ff022ea8bf4ff480760cda8e490a780b2a18bf40f2a5
S34508004e000a2605d100f00ff800f008f8300001d000f00ef8002076bd202a002006460098294604f0a5bd01466a46304602f0c2bf234600223146284604f0c7be2de9f34ff9
S34508004e4083b0084604f087fe0546049804f083fe4ff000098246012dc8bf4ff4807921dcfff786fd08bf40f2012915d09df80c30085c834218bf4ff4887913d15078032863
S34508004e8018bf40f203290dd100f0c4f83078002814bfff2840f2212900f0ad80012818bf40f2222940f0a780308af082baf11e0fa8bf4ff01e0ab179dff87c818df8011088
S34508004ec006f13c0759493a788df8002086f8069087f8009088f818900a78012a02d100f095f88146fff773fb014401f5f4724ff0000b029231e0514850f82a003c2404fb04
S34508004f000bf40323015bc900b9630bf1010b025bd2007a630022015b39640221005b78642846fdf70cfd454951f82a000019408801f0c6fe029805f021f9032086f8910097
S34508004f404ff0ff32029801a903f0ccff3b4850f82a100919888801f0b3fe394830f81a108b4503da98f818000128c4d100219df8010088f81810b0719df800102b483970b1
S34508004f800278012a14d100f041f82901294b8146585c68b132461944284603f016fa0b20684308eb00013246284603f059fa814615b1012d09d016e0fff75cfdfff749fdad
S34508004fc0fff754fd002101200be0174c002120468185c046204603f07ffffff743fd0021032001f0bffc284601f0e5fdff20b9f1000f307006d09df80c300498002249468f
S3450800500004f0e3fd002005b0bde8f08f3146284603f0ffb84ff416710a4869434618704780430020e4450020000400405247002050470020cc460020ec46002000000020a5
S34508005040ecc10108202a002070b504000d00160038220021200005f06bf965602661eff3108072b60f4921600f49096800290bd00d490968896a0c4a126894624c62a16205
S3450800508009490968616203e007490c606462a46206490968491c054a116080f31088002070bd00bf4554554dc8470020cc470020302800db704730b5dff8602602eb8000bf
S345080050c00229d0f8303302d101251d6006e001290ebf0024d0f8f0532c681c6002eb8101036bca781a60d0f8f0308a781a60d0f8b0314a781a60d0f870020978016030bdcf
S3450800510010b5dff81c26916a506b5369890001ebc0011068926901eb43014118dff80406cbb242700b3b042b40f60f1213d8dfe803f00e0c090603004ff496640ce04ff4c6
S34508005140c86306e04ff4fa6406e0828005e040f21453838001e0002484808488c4800b46c9b20a2940f26e2402d18480c28007e0092908bf828002d0082902d18480c480d1
S345080051800c23037010bd00218184002282850121818102850180704780b5032810d8dfe800f00205080b0a21082007e00a21092004e00a210a2001e00a210b20fff778ffbc
S345080051c0012002bd18b585b003210020fff770ff03210120fff76cff03210220fff768ff032100f069f9082100f063f9082100f05df9082100f057f9082100f051f90a217c
S3450800520000f069f9dff81c4520780d2802d00a2100f05ef90a2100f058f920780d2802d00a2100f04ff908210c20fff741ff00f045f900f031f900f02cf900f07bf800f01c
S3450800524076f809211220fff733ff00f01ff900f01af900f069f800f064f800f05ff800f05af800f055f800f050f809211d20fff71fff092100f002f909211f20fff718ff82
S3450800528000f0fef80020a07000f0ebf8dff89804fff779ff00f0cef8632200f0d4f8206840f400702060dff88444204605f04af84ff46022029200210091adf804100391df
S345080052c001228df810206946204605f064f80121204605f09af80121204605f09ef80121204605f077f8204605f07df8204605f07ff80028fad1204605f07df8204605f094
S345080053007ff80028fad106b010bd09211c20cfe609211b20cce609211a20c9e609211720c6e609211620c3e609211520c0e609211120bde609211020bae610b50221002012
S34508005340fff7b6fe09210120fff7b2fe09210220fff7aefedff8cc436078a0b100f0abf800f0a6f800f0a1f800f09cf8022100f097f800f0aff800f0aaf800f0a5f800f011
S34508005380a0f8022119e0092100f096f8092100f090f8092100f08af8092100f084f800f07ef8022100f097f8092100f091f8022100f08bf800f085f800210c20fff778fe48
S345080053c000f07cf800f068f800f063f8fff7b2fffff7adff02211220fff76afe00f056f800f051f8fff7a0fffff79bfffff796fffff791fffff78cfffff787ff0a211d2092
S34508005400fff756fe00f039f80a211f20fff750fe00f036f80120a07002f025fc00f021f8c148fff7b0fe00f005f84ff4616200f00af810bd2068be4b40f400602060812134
S34508005440bc4801807047828546f66c41018381834ff4004241f2111101841a80012181827047b54c606840f001006060606840f0020060604ff0804085e600211e2017e65b
S3450800548000212d2014e60021142011e6002113200ee600210f200be600210e2008e60021072005e60021062002e600210520ffe500210420fce500210320f9e500210d2042
S345080054c0f6e500210b20f3e500210a20f0e500210920ede500210820eae580b500f017f9026842f0007202609348016841f001010160026842f004020260016841f0080127
S345080055000160026842f010020260016821f020010160026822f040020260016821f480610160026822f480520260016821f480410160426822f480424260416821f40031a9
S345080055404160416821f480214160416821f400114160416821f480014160fff7d1fd714800780f281cbf0e280d2802d1bde8014028e60c2818bf0b2802d1bde80140dce63a
S3450800558001bd80b572b61c2100f005f81d2100f002f862b601bd8df80010002201218df801208df802108df80310684604f095bf80b55c4800780c2818bf0b2805d1002071
S345080055c002f0e3fd012002f0e0fd00210020fff76ffd00210120fff76bfd00210220fff767fdfff768fffff763fffff75efffff759fffff754fffff76dfffff768fffff7a7
S3450800560063fffff75eff00210c20fff751fdfff755fffff741fffff73cff0021fff78bfe0021fff785fe00211220fff741fdfff72dfffff728ff0021fff777fe0021fff7c2
S3450800564071fe0021fff76bfe0021fff765fe0021fff75ffe0021fff759fe00211d20fff727fdfff70aff00211f20fff721fdfff707ff3148016821f400610160426852082d
S3450800568052004260416821f002014160026822f40072026001bd80b52be0000021490a780c2a18bf0b2a07d191f8013028a206214b43d118085c704721a2105c704780b5da
S345080056c0fff7ecffbde804400921f1e410b5154b22a25c780c214c431119085c10bd0000dff8402023a1537801eb8301085c704780b500f00cf80921026842f0806202607b
S34508005700fff7ddfebde8044009210e20d0e40b48016821f0e0610160704700005c9d010800812142504700200004004000240140442c0140002c014018100240040001405c
S345080057400d0e1011121516171a1b1c1d1e1f00000d0e030405060d0e08090a0b0f14132d090b0c07030405060f14132d0304050608090a0b1200080a1200070c544951f80c
S3450800578020000168ca0754bf41f0010121f00101016070470129c8bf01214d4a52f82000016070472de9ff475ff000064ea40ff26d050ff224180ff24d0a00276421454840
S345080057c00297714300eb010901970097334652464146484603f06efe02970197009733462a46214609f12c0003f064fe09f15800761c878007608771c771042e0772dddb2d
S34508005800bde8ff8738b504466420324960430d18284601f0f5f995f85e100de038b5044664222c4962438d1805f12c0001f0e8f9002185f8601000bf2046bde8344000bf81
S3450800584010b500bf2ba454f820004ff461625143642391fbf3f1018010bdc0b2fff79cbc38b564231b4a43435831d41804f158058a88aa800b682b608a79aa71c979e971a2
S34508005880fff7deffa88850b1204601f0b9f9a9880022204602f0a0f9204602f08ff9286878b104f12c0001f0abf92968002204f12c0002f091f904f12c00bde8324002f0c0
S345080058c07db931bd6421034a48431044704700008ca00108003f002050574d526564756374696f6e0000000050574d54696d656f75740000342c0140382c01403c2c01400f
S34508005900402c01404ff0ff0c1cead0531dbf1cead1526345624543e09b1a5feacc7280ea010c42ea01211cea020c42ea0020421a38bf01eb420253f17e034fea1121b2fb01
S34508005940f1f001fb102260f3d63c4fea0222b2fbf1f001fb102260f3ce1c4fea0222b2fbf1f006ddff2b29da5cea500040ebc3507047c3f1020301fb1022192b40ea4c0127
S345080059800cf0004c41f0807121dc21fa03f0c3f120039940114371f1004250eb0c00704763451abf0cead152624512e080ea010c00180cf0004c06d049181ad10cf0004c4a
S345080059c04cf0ff407047c94208bf6fea020c60467047634506d1b2eb0c02f5d001f00041484070474a0212bf0846484000f0004070474ab90902b1fa81f2914043b19b18f3
S34508005a00c00140f0004092e7c90141f0004152420002b0fa80f39840d31a88e7ff2212ead05c1dbf12ead153944593422be09c44d30780ea010243ea002043ea01211a4070
S34508005a40a1fb0030c04238bf00187cf17f010bdbfe294ada5b0842eac15153ea006373f1004c51eb10207047d1f1080cdcf120012fdb5b0810fa01f10b4320fa0cf073f114
S34508005a8000415041704794451cbf02ead153934280ea010202f000421dd0400019d0490017d05bb9634514d00902b1fa81f39940bceb030cc00140f00040c1e70002b0faf1
S34508005ac080fc10fa0cf0b3eb0c0cc90141f00041b6e71000704740000ad0490008d010f1807f94bf11f1807f02e042f0ff407047d043704790ea010f40f1728081f00041fe
S34508005b00431a4ff000423ebf5340c01ac918d3095fead05c13eb400f34bfb3eb410f40e07cebd1530cd342ea012122d8d1eb402009d3400a28bf5fea500140ebcc5070471c
S34508005b40401a15d04002b0fa80f2521c9040400a4fea3c23b3eb026384bf00eb730007e040f400001a16db07c2f10102d04018437047182bfcdc31fa03f202fa03f3591a11
S34508005b8038bf42f00102d2eb40203cbf0018acf1010c5feacc5cc20572f100414ceb5020704713eb400f0fd2c94209d0acebd153022b03db4902172bdddd70479143401a93
S34508005bc0c042d5d10020704713eb410fd0d36ff00000704790ea010f7ff592af81f00041421a3cbf801a8918c0f3c752ff2a4ff0004c22d0c1f3c7534bb3d21ad2f1190385
S34508005c002edd4cea01214cfa03f321ea0303d1404cea00226ff3160052180fd353eac2534cea520273eb0c0c50eb1220420012f1807f38bf70476ff31600704753ea0263f7
S34508005c4022ea0c0273eb0c0c50eb12207047490212bf9a4200eb5120efe7d2f11703d2d57047000050b1b0fa80f18840c1f19d01c905020672f1004241eb1020704700003b
S34508005c80c0f3c75181b1ff2906d0c110400721f0e04101f16051704741020cbf40f4e0016ff000410020704700f0004100020ad0b0fa80fc00fa0cf001f16051a1eb0c51e8
S34508005cc001ebd0214005704730b540f2ff7c1cea11541dbf1cea1355644565453fe0641981ea030c6ff35f530cf0004c43f48013c90241f0004141ea505ec5021100a5fb59
S34508005d00020200284ff00000eefb01204ff00001e3fb052118bf42f00102401800214941e3fb0e01a4f580640d0302d292184041494154f1010470dd450872f1004250f1c0
S34508005d40000051eb0451a1f5801102d441ea0c0130bd40f2ff7e4cea0e51002030bd0cea1355644518bf654581ea030c0cf0004c41d050ea410e1cbf52ea430e02e061463c
S34508005d80002030bd24422c441bd15fea050ef6d0090302bf01460020aef1140eb1fa81f5aeeb050401fa05fe0c35c5f1200100fa05f5c8404eea000e6ff35f5343f48013f6
S34508005dc09ce733f00043b3fa83f504bfb2fa82fe75440b3d641bb5f1200e2fbf02fa0ef3ab40c5f1200e22fa0efe38bf43ea0e03aa40641c7ce750ea410e14bf52ea430e77
S34508005e006ff000014ff4001515eb430f8ebf194615eb410f9de7b4d830bdd4f10104b4f120050fdac4f12005520828bf42f0010210fa05fe01fa05f57244e2bfe0402843a0
S34508005e40e1400fe0352c9adcc5f1200452ea400220fa05f218bf42f0010231fa05f0a1400a43002172f1004250f1000051eb0c0130bd000010f0004c68b148bf4042b0fa95
S34508005e8080f18840d1f19d014ceac15c010671f100414ceb1020704770b491ea030f4ff0004540f1bf806b40841a71eb030604d26e40001bb141121973414ff4001c1cebf7
S34508005ec0410f34bf7ceb430683e00c0da4eb1356362e00f37c80012e45eac32341dc43ea525312bfd20292025b08240545eac12141ea5051d2ebc020994125d407d1b0fa13
S34508005f0080f610fa06f162d00020203608e0b1fa81f6b140c6f1200220fa02f21143b0404feaf474b4eb465434f001064fea74040ad8d6f50016760d04f00044f04061fa4f
S34508005f4006f25040f1404840c00a40ea415021f0004128bf5fea500550f1000044ebd12135e0db0a45eac121c90ab6f120050edd42ea0242120cc5f1200603fa06f6eb40f1
S34508005f8042ea06056d42984161f100010de062fa06f5f240554063fa06fc82ea0c02f3405a406d42904161eb030111f4801f05d1641e620502d06d004041494121f48011ed
S34508005fc0430875f1004350f1000041eb045170bc70471ceb410f15d223f0004352ea43060bd04fea4c0cbceb410f04d80c0d661e342eb7ddebe7801a994150ea410608bf81
S345080060000021e4e708bf1ceb430f28bf6ff00001dde7000070b491ea030f4ff000457ff543af6b40841a71eb030603d2001bb141121973414ff4001c1ceb410f34bf7ceb21
S34508006040430442e00c0da4eb1356352e4fdc45eac323db0a45eac121c912b6f120050ddd63fa05f6eb4086ea0305124218bf45f00105c01851f100010cd213e062fa06f5ca
S34508006080f2405540f3415a40b340f3405a408018594107d349085fea30005fea350528bf45f0010501f58011420875f1004250f1000041eb04514e0016f5001f70bc38bf2c
S345080060c070470020090d090570471ceb410f10d252ea43060bd0bceb410f05d80c0dab43661e342eb6dd02e0ab438018594170bc704770bc7047000040f2ff7c0b0d4dd049
S34508006100634566d230b421ea035141f4801103f2fd3c5fea5c0c01d300184941890041ea907180004ff440140023e202d50ab1f5100107d46d081dd2091b64190018494128
S34508006140491bf7d56d080ad20919641b00184941491befd56d08f7d301e0520817d0c01861419b1aac4100184941801aa941f4d452080ad0c01aa1419b186c4100184941c8
S34508006180801aa941e9d45208f4d15b1c6c4161084fea330001eb0c5130bc704750ea0103fbd030b4b1fa81f311b9b0fa80f41b190b3bb3f120042fbf00fa04f19940c3f1ec
S345080061c0200420fa04f438bf21439840d3f101039de7634514bf50ea410cdee711f5801fdbd8d943aff300807047000001f000428b1aa3f16051b1f5801f0adbb1f17f6ff1
S345080062001fd242eac102c10071f1004142eb507070470b15c3f10903212b10d2890241ea905180020128494141f0004121fa03f0c3f12003994071f1004150417047100063
S3450800624070476ff0000013eb103f5cbf000e42eac050704740ea010c1ceb0c0f4ff0807c07d305d01ceb400f9cbf1ceb410f884270471ceb400f98bf81427047c10dd1f10e
S345080062809e0104d4000240f00040c84070476feae0707047f0b540f2ff7581ea030c0cf0004c15ea11541dbf15ea1357ac42af42e5e0bc41c1f31301c3f31303801a994169
S345080062c043f4801304d2641e0018494180185941c90241ea5051b1fbf3f603fb1611a2fb0675d7ebc020a94102d2761e80185941c90241ea5051b1fbf3fe03fb1e11a2fb0d
S345080063000e75d7ebc020a94103d2aef1010e80185941890241ea9051760546ea8e2eb1fbf3f603fb1611a2fb0675d7eb8020a94102d2761e80185941c90241ea50514eea06
S34508006340060eb1fbf3f603fb1611a2fb0675d7ebc020a94102d2761e80185941c90241ea5051b1fbf3f703fb1711a2fb0735d3ebc020a94167f100070cbf004247f00107a4
S3450800638066f3d5274fea1e31b80814f5806412ddbd0775f1004250eb0e5051eb045111f5801f5cbf41ea0c01f0bd4cf07f6141f0e0410020f0bdbd076d0840ea0e5041f4ea
S345080063c08011d4f10104b4f120060adac4f120060200e04001fa06f3e1401843b24015430ee0342c13dcc6f1200445ea40056d0820fa06f2154321fa06f0a1400d43002100
S3450800640075f1004250f1000051eb0c01f0bd00205fea0c01f0bdcfb992185b41b3fa83f704bfb2fa82f6bf190b3fb7f120062fbf02fa06f3bb40c7f1200622fa06f638bfb5
S345080064403343ba401cb1e419641e33e77f4231f00041b1fa81f404bfb0fa80f6a4190b3cb4f120062fbf00fa06f1a140c4f1200620fa06f638bf3143a0403c1b1ae7ac4201
S345080064801abf05ea1357af4212e050ea41061cbf52ea4306bfe750ea4107304661461cbf41ea0551f0bd52ea430c08bfc143f0bd00204ff4001616eb410f98bf16eb430f13
S345080064c008bf16eb410f24bfc14305e016eb430f0cbf61464cea0551f0bd00002de9fc4d04460d461646dff85003dff8501322462b46fff7e9fb8b462bf00041d04ad14bda
S3450800650004f020f8074658d2cf4b0bf0004700223b435946fff7c0fc04f02ef8070047d004f046f80022c94bfff7cefb82468b464ff0a040c64952465b46fff7c5fb224600
S345080065402b46fff7a9fc04460d464ff0c040c14952465b46fff7b8fb22462b46fff79cfc04460d464ff00050bb4952465b46fff7abfb22462b46fff78ffc04460d460020b6
S34508006580b64952465b46fff79ffb22462b46fff783fc04460d464ff00050b14952465b46fff792fb22462b46fff776fc04460d4607f0030707eb06089ce068004015401c61
S345080065c008d1290340f034814ff0ff306ff00041bde8fc8d24f0000035f0004108bf002804d1002e00f025819e4d22e13846964b0bf00047594600223b43fff74dfc4b000d
S3450800660043ead0734200002b08bf002a17d040f23347a7eb5352352a04db00f0000001f000410ce0202a03dd203ad140914000e001d1002003e0002ac4bfd0409040cde90a
S345080066400001dde9000120f0000231f0004308bf002a47d0dde9002300207c49fff734fb07468b464ff0a04079493a465b46fff72bfb22462b46fff70ffc04460d464ff0e1
S34508006680c04074493a465b46fff71efb22462b46fff702fc04460d464ff000506e493a465b46fff711fb22462b46fff7f5fb04460d46002069493a465b46fff705fb22465f
S345080066c02b46fff7e9fb04460d464ff0005064493a465b46fff7f8fa22462b46fff7dcfb04460d46dde9000103f046ff00f0030000eb060825f00041002905d500224ff077
S345080067000043101b63eb010100225ff0795304d54ff00047921a67eb0303994208f0010a05dabaf1000f7bd000244e4d78e022462b4620462946fff7c7fabaf1000f0646a9
S345080067400f4631d04848494932463b46fff7bcfa474a484bfff7a0fb32463b46fff7b4fa454a464bfff798fb32463b46fff7acfa434a444bfff790fb32463b46fff7a4fa34
S34508006780414a424bfff788fb32463b46fff79cfa6ff051023e4bfff77ffb32463b46fff793fa00222f4b37e032463b4620462946fff78afa82468b463648374932463b4603
S345080067c0fff782fa354a364bfff766fb32463b46fff77afa334a344bfff75efb32463b46fff772fa314a324bfff756fb32463b46fff76afa2f4a304bfff74efb32463b46fb
S34508006800fff762fa2d4a2e4bfff746fb52465b46fff75afa22462b46fff73efb04460d465fea887004d585f000412046bde8fc8d20462946bde8fc8d83c8c96d305fe43f0f
S345080068400000a0ffffffdf410000e03f0000303efb21b9c1b41011c026a651be5c14d3bc9a833bbb0000f03f09260a1039ba213e3ba861c6f97d92be63ac30909f01fa3e67
S34508006880f6fb51166cc156bfb10255555555a53fffffdfbfb08f2fc310d8e53d8f0c73a1e1e55abe4dade44fe31dc73e3ee3b519a0012abffaf010111111813f4255555508
S345080068c05555c5bf002209e640ea010c1ceb0c0f4ff0807c07d305d01ceb400f9cbf1ceb410f814270471ceb410f98bf8842704750b1b0fa80f18840c91cc1f584610905e5
S3450800690001ebd0214005704701467047400d40f21e4c40eac120bceb115c40f0004003d48cf30701c84070476feae17070470000a94aaa49127809880f2a08bfa84a06d0b3
S345080069400e2a08bfa74a02d00d2a03d1a64a92fbf1f100e0002148434ff47a7190fbf1f080b2704710b504460846fff7e1ff032c9e490ad8dfe804f002040608088010bd7f
S34508006980888010bd088110bd888110bdf0b5984c984e00eb400567193c787d78bf780023012f1fd110b101280ed047e0335d705d371906eb050e03eb401397f840709ef8d0
S345080069c0400007eb401022e0335d705d371906eb050e03ebc00397f840709ef8400007ebc00028e010b1012814d027e0301906eb050e90f88030701990f8807003eb471331
S34508006a00371997f8c0009ef8c07000eb471003eb004313e0301906eb050e90f88030701990f8807003ebc703371997f8c0009ef8c07000ebc70003eb00439b02301990f889
S34508006a4000010870701990f8001111701846f0bd674b00eb40001844827019b1491e032905d97047082118230170437070470021102201704270704710b5b8b9042932d8eb
S34508006a80dfe801f00307090d110010201070082128e0082408e00421117000221de00220107000211ee00124147011e004291ad8dfe801f003070b101500102111703822ad
S34508006ac00be00820107038210ce0042414703c20187010bd022111703e221a7010bd012010703f21197010bd1cb504460df101036a460020fff7c0ff00f02cf898184028d3
S34508006b00acbf9df801209a180a5521444a789b18402b00db25e09df8000082184a7013bd1cb504460df101036a460120fff7a4ff00f010f8d01a4cbf9df80120d21a0a55c2
S34508006b4021444a78d31a00d50be09df80000121a4a7013bd04eb440425499df800300a5d70479df80100487013bd7cb50d460021adf8001004466a460df10101fff706fff3
S34508006b8006469df8010068436421b0fbf1f1600089b2c0b2fff7e6fe9df80000454364216400b5fbf1f1641c89b2e0b2fff7dafe1148066073bd002120b1012808bf4ff47a
S34508006bc07c4100e0e7210c4801607047dee60b4850f821100a607047504700205447002000770100b8820100486b0100342c014058470020c0bb0108100c01408ca0010876
S34508006c000830eff3108172b682692a4b1b689a4229d38269284b1b689a4224d28269274b1b689a4206d38269244b1b68d21a9210521c0fe082691f4b1b68d21a92101e4bd9
S34508006c401b68dff878c0dcf800c0b3eb0c039b105b1c9a180368212b04d30368203ad218026000e002608269002a1ed00269904209d182691268824202d1826900231360e7
S34508006c800022826111e002694369536142690369136182691268824205d10269836993618269036913600022826181f310880020704700bf94470020984700209c470020c2
S34508006cc010b513490c68002c03d012490968002901d013201ae0002801d1002016e0eff3108172b6042222630122a2630022c4f88420e06408480068401c074a106081f372
S34508006d001088200003f066fcd4f8840010bd00bf68470020e4000020804700202de9fe430600dff8a04b06d05ff0000224a104f13400fef789f900204ff0ff31ff2506221c
S34508006d4042432244401c0428157055709170d17011715171f3db00270ff274090ff271384c210123dff8840b79430844002283700221330005704270c27002718260c2606b
S34508006d80018209d002923b4664220192009249464246203002f08efb7f1c0c2fe0db0020002204eb4001401c0e280d764a76f8db1eb1bde8f743fef7f5bcbde8f7830000a9
S34508006dc0446574656374696f6e5f4d757465780053616d706c696e6754696d657200000010b504460622dff8dc3a544303281c5d3ad8dfe800f0020f1d2b00290cbf0122a0
S34508006e000022102100f05cf8002200f058f80022122128e000290cbf01220022152100f04ff80022162100f04bf8002217211ae000290cbf012200221a2100f041f80022a9
S34508006e401b2100f03df800221c210ce000290cbf012200221d2100f033f800221e2100f02ff800221f212ee010bd000010b503460621dff8502a4b430328d45c1ed8dfe8e5
S34508006e8000f002080f16012200f019f80122122113e00122162100f013f8012217210ce001221b2100f00cf801221c2105e001221e2100f005f801221f2104e010bd11216f
S34508006ec02046fff784be2046bde81040fff77fbe2de9f843002703288046dff8786b10d8dfe800f00205080cdff86c2b04e0dff86c0b05e0dff8682b326002e0dff8640bd2
S34508006f0030600d0004d100f04df81021316002e0002100f048f80120fff7d2fe1424dff8949b072301224146484603f07ffa0121484603f04ffa02e00120fff7c1fe0221ed
S34508006f40484603f0bdfa0028f6d0d9f84c00c719641ee6d11420b7fbf0f400f023f8dff8580b30602046fff7c3fcdff8502bdff8503bfef7a9fe0022dff8b83bfef7a4fe1a
S34508006f80002d07bf4ff06632dff8ac3bdff8ac2bdff8ac3bfff77ef9fff728f9bde8f24303f0b2b908210420fef782b870b50446dff81069c82106f1340002f087f84ff60e
S34508006fc0ff75c0b270b900212046fff781ff044640f28b208442a8bf2c4606f1340002f003f92546a8b270bd70b50c461546fff7ddff0026a042b8bf022602db8542b8bf40
S345080070000126304670bddff83c1b09780f2918bf0e2904d1001f082806d3002070470d29fbd1801f0628f8d2012070476428a8bf6438dff8101b0978c0b20f2918bf0e2974
S3450800704004d1001f042806d3002070470d29fbd1801f0228f8d201207047f8b504460025dff8e46ae8b2fef731fb07462046fef715fb874205d1e8b24c214843305cff282d
S3450800708004d16d1ce9b20c29ecdb01e00120f2bd0020f2bdf8b504460025dff82868e8b2fef7fcfa07462046fef710fb874205d1e8b206eb4000017eff2904d16d1ce8b289
S345080070c00e28ecdb01e00120f2bd0020f2bd0000f8b505464c21dff8700a6943461800277278012a67d1706908b1401e7061e8b203f08ef80446f078012804bfe44304f044
S3450800710001047069002804f0010450d1b07805283ed8dfe800f003132351616696f91e10a14202da0120707701e0707f08b100f06df800f06ff836d11cbb26e096f91e0064
S34508007140844202da0121717701e0707f08b100f05df800f05ff826d1bcb912e096f91e10707fa14204d000b934770120707700e008b100f04bf800f04df814d1307f8442b8
S3450800718003d1b068401c012770610020b06170774fb11e3530782246e9b202f038fc307908b100217170b0780628a8bfb477b0780628b8bfb477f1bd012c0fd0b761777740
S345080071c000f028f804bf707f0028ecd101217177b061b1687161dce7002cefd100f016f8eee796f91e00a04203d1b169491cb16103e0717fb761c9437177b069f168884243
S34508007200d1d3707f0028ced1ff21e0e7b069401cb0617047f168b069491c884270472de9f24f834682b0084602f095fc044600f0e8f8054600f0e5f840b2019000f0e1f8c9
S3450800724046b200f0def847b200f0dbf8042c4ffa80f801db042d0cdd0b2c0ada062ddcbf0198132805dc132edcbf132fb8f1130f07dd4ff4807102985b46002202f0a5fc10
S34508007280f8e2c0b2fff7bffea8b9f0b2fff7bbfe88b9f8b2fff7b7fe68b95ffa88f0fff7b2fe40b9dff89c0801780d2906d1012c18bf032c02d140f20a21dce7dff80406e0
S345080072c0c1794278437b032d06d1012c18bf032c08d14ff40871cee7042d03d1012c39dc032b39d1ff2a00d08cb3ff2901d0012c2dd0ff2b01d0022c29d090f813c0bcf146
S34508007300ff0f01d0032c22d0042908bf042d00d1ecb1042a04bf042d012c18d0bcf1040f04bf042d022c12d0042b04bf042d032c0dd0dff8189899f80010ff2901d0042c31
S3450800734005da99f87010ff2909d0042c07db4ff4007190e7032accd040f207218be7062161430844042c0090dff8e4a716da00984570032d009981f800b006d10099032041
S34508007380c871009880f806b024e0042d20d1012cd4bf8af8004089f8004071e714bf052cfef7a6f9052d04f1fc0007d189f80040c0b2fef773f989f8010061e7062d07d103
S345080073c08af80040c0b2fef769f98af8010057e7042dfcda019810f1010f1cbf0099887016f1010f1cbf0098c67017f1010f1cbf0098077118f1010f02d0009880f80580d3
S345080074003ee7029802f0a7bb10b50c46002002f0fffe00f0f8f8012002f0fafe00f0f3f8022002f0f5fe00f0eef8032002f0f0fe00f0e9f8042002f0ebfe00f0e4f805209e
S3450800744002f0e6fe00f0dff8062002f0e1fe00f0daf8072002f0dcfe00f0d5f8002010bd2de9fe43804689460621684603f056f900f040f9064600f03df9054600f03af9ff
S34508007480074600f037f90446032ed8bf022c24dc2846fff7cbfd18b93846fff7c7fd10b140f20a211be0642d03db01208df80300643d642f03db01208df80400643f01212a
S345080074c08df800108df801508df802708df805406946304602f0ddfe18b94ff4807100f004f90020bde8fe832de9fc410d4600210446009100f03bfb064600f038fb80462b
S3450800750000f035fb074600f032fb032ed8bf02280ddc01228df803008df800208df801808df802706946304602f0c9fe08b900f09bfa0020bde8f68170b500f067f8002691
S345080075400146042905db4ff4807100f02ef8002070bddff800060278012a08bf40f20a21f3d00622dff85c034a430244507803280fd10129c8bf4ff41676dff8dc05825d8e
S34508007580ff2a0fd10846fff711fd214602f000fadde7ff28f6d0a023dff8c0254b43d05c0028efd04ff40171cfe72b460022204602f00bbb70b500f029f80646032e07dd8b
S345080075c02b4600224ff48071204602f0fefa13e00621bc4800f0c8f800f010f800f012f8a87800f010f8e87800f00df8287900f00af8687900f007f8002070bd21463046ac
S3450800760002f051ba6878214602f04dba05460c46204602f0a0ba2de9f84300f05af90746404602f098fa0c2f814604db4ff4807100f04af961e03846fff7e5fc10b140f2f4
S345080076400a21f5e74c257d43dff8fc64705dff2818bf4ff40071ebd13846fff71bfd10b14ff40371e4e77455701980f80390e1e72de9f8438046894600f03cf805460c2dd0
S3450800768004db4ff4807100f030f836e04c266e43dff8b474bc5dff2c08bf40f20121f2d0fff7b1fc10b140f20a21ece7444518bf4ff48871e7d1284602f0aafd8046b819b2
S345080076c0c078012804bf6fea080000f00108b85d494602f0e8f94946284602f0e4f9494608f0010002f0dff9cfe743460022484602f06bba484602f02eba0020bde8f283c1
S3450800770070b5fff783ff06460c2e05db4ff48071fff74bff002070bdfff775fc10b140f20a21f5e74c21dff8200400f01df8fff765ffe878fff767fffff764ffa878fff724
S3450800774062ff288a214602f023f92879fff75bffa86800f004f8e86800f001f8dae72a8a2146504302f004b9714345182146287802f099b92de9f14f8a4682b0504602f0f3
S34508007780eaf90090504602f0e6f90546504602f0d5f90646504602f0def98346504602f0bcf98046504602f0b8f9814600980c28b8bf062d04da012e02ddbbf1010f08ddc6
S345080077c04ff480719df808300022504602f0fdf950e002464c20dff8701342438c182778ff2f08bf40f20121ecd00098c0b2fff70afc10b140f20a21e4e79df8080087427a
S3450800780018bf4ff48871ddd104f12000fff7f8f90098c0b202f0fcfc0746e078012804bfff4307f0010707f00107a7772682b8fbf6f0a060b9fbf6f1022de16003ddb14578
S345080078403cbf0120e0600021a1616177a57084f804b00120607004f12000228a114600f0bbf904f1200000f0a9f95146384602f01af9ade70020bde8fe8f2de9f04100f0d3
S3450800788028f80c28a8bf4ff4807115da4c264643164fbd5dff2d08bf40f201210cd0fff7b2fb10b140f20a2106e0a54202d1b919487003e04ff4887100f006f80020bde882
S345080078c0f0810000e445002023460022404602f07cb904468846404602f03db980b59948007802f0e0f8002002bd000078320020f8b505460e46304602f02df90446954800
S3450800790097490078002801eb440747d10d2c49dc1cb9087eff2851d104e0012c02d1887eff284bd1a01e032802d24a78fe2a45db621f032a02d2cb79fe2b3fdba4f10803cb
S34508007940032b04d291f80dc0bcf1fe0f36dba4f10b0cbcf1030f04d291f813e0bef1fe0f2cdb97f818e0bef1ff0f27d103283cbffe204870032a3cbffe20c871032b3cbf74
S34508007980fe204873bcf1030f3cbffe20c8742046fff763fba8b140f20b2105e00128f6d1062c08db4ff480712b460022304602f00cf90020f2bd387eff28e8d04ff4007125
S345080079c0f2e73d762046fdf77afe012cf1dcfdf762feeee72de9f0418046fff718fe0746fff716fe0e2f054605db4ff480714346fff7dcfd62e75a4800eb4706307eff289c
S34508007a0008bf40f20121f2d0804518bf4ff48871edd13846fdf742fe2946fdf7bbfe7576e8e770b500f04ef806460e2e02db00f01bf80de04a4800eb46042946207e02f0c7
S34508007a4032f82946fff7dbfd607e294602f02bf8002070bd100801402000d0004000bd0080007000001000e0234600224ff48071284602f0aab838b500f024f8042805db36
S34508007a804ff4807100f06ef8002032bd31490a78012a18bf40f20a21f4d1314901eb40010a7fff2a18bf4ff40071ebd10c77fdf7d4fee9e7002401400000f010688e066580
S34508007ac066664a3f04460d46284602f044b8f0b504460d4699b000f04af80646284616af02f039f8f87100f042f8b871284602f025f8b880284602f010f8042e169006db39
S34508007b004ff4807100f02ef8002019b0f0bd144800eb4601087fff2808bf40f20121f1d0844218bf4ff48871ecd169463046fdf797fee9e700a8864066660a4027302fa081
S34508007b40e0fcba3f504700207832002080430020f043002052470020202a002008360020e445002023460022284602f02eb8284601f0f1bf38b5fff7a5ff042802dbfff73b
S34508007b8073ff13e0fdf79efe00f158042946e07901f089ffa079294601f085ffa088294601f0f6fe2068294601f0e2fe002032bd80b50020fff7b2f8002002bd80b5016a70
S34508007bc0002902d18168002901d1172003e0083002f0a8fd002002bdeff3108372b6d0f820c0bcf1000f01d18160c26083f3108800207047020e4a70030c020a8b70ca70fa
S34508007c0008717047014688784a78000400eb0260ca78097900eb02200818704710b586b0282000900122dff8444a0ff6b02104f5c87304f5dc7001f0f7fb0121059103912b
S34508007c4000200b234ff4c871049002930191009400230ff68d120ff6942104f5f87002f0a3fd06b010bd30b5dff8040adff8044a426d85b0012111608068dff8fc5901600b
S34508007c8002f01afe00f01ff80b220121002002f048fe01220ff66c21284602f01fff01220ff6702105f11c0002f018ff00f08afa06d100f008f80c220121012002f031fe2a
S34508007cc0002005b030bd04a80021039002910091019400237047dff89819002807bf0120096c0120896d08607047dff8841900280ebf096c0020896d08607047dff870190c
S34508007d0000280cbf486cc86d0168ca0702d441f0010101e021f001010160704710b5a1f120041d2c38bf202309d3a1f16a04062c38bf102303d3b1f1100208bf082300b99f
S34508007d4000235918c8b210bd7fb5dff83059044628780b28164603d12046fff7dfff0146a1f180008df8000069463046fff742ff22461c20dff8001942438e18642130460b
S34508007d8002f0e0fe98b928780c2804d1052302aa6946204603e0052302aa6946002002f01cfe0446304602f013ff204600e0382004b070bdf8b5dff8c468054630780b2857
S34508007dc084b0144603d12846fff7a8ff014602a80022c0e900228df808106846052102f09dfc2a461c20dff8901842438f180121384602f0a7fef8b930780c2808d100f04a
S34508007e001ef8284602f0e9fd00f019f8284607e000f015f8002002f0e0fd00f010f8002002f0dbfd05466846fff7ecfe2060384602f0cefe284600e0382005b0f0bd0523ef
S34508007e406a4602a970472de9f04104460d46164698460020002700e07f1c474507d2e95d06eb87022046fff7a5ff0100f4d0bde8f0811cb50c460021217001226170a17028
S34508007e80e17021716171a171e1712272617261816a466f21fff78eff010034d10099002944bf01212170009a510044bf0122627000998a0044bf0121a1700099ca0044bf6f
S34508007ec00121e17000990a0144bf0121217100994a0144bf0121617100998a0144bf0121a1710099ca0144bf0121e171009901f01f01217200990a0444bf01216172009920
S34508007f00c1f30901618116bd087802f0b2b9024643f220001178022918bf03290bd092f83c100a2905da517e002904bf117e012901d143f2240070472de9f04edff84027e4
S34508007f40dff840a732f810000026002440f26e23dff834b7984204bfdff830a7dff830b70d46e88afdf77efedff82817fdf7cafc00f0fcf8fdf784fe52465b46fdf7a4fef5
S34508007f80fef734f9fdf77cfe0746894600f0e8f8fef72cf9dff80017fef796fc0ad238464946dff8f826dff8f836fef773f9fef71df90124fdf764fe02f040fefef7a6fc17
S34508007fc007461f2f88bf1f27297e002938463bd0288afdf747fe0646687efdf743fe3146fdf71cfddff8bc16fdf78cfc00f0bef8fdf746fe52465b46fdf766fefef7f6f8a5
S34508008000fdf73efe002c07bfdff89c26dff89c36dff88826dff88836fef73cf9fef7e6f8fdf72efe02f00afefef770fc1f2888bf1f206a8b42f6e0614a43391ab2fbf1f68d
S34508008040b60c0f2e88bf0f2600eb072000eb0640bde8f08edff82826b1f90e1032f810001f2390fbf3f3b1fbf3f07047408bb0f57a6f88bf4ff47a60c0eb002041f2c25123
S34508008080b0fbf1f0704700002de9f0411646dff8f02591f83c7032f81000dff8e845dff8e85540f26e234ff00058984204bfdff8dc45dff8dc55c88afdf7d4fddff8d4158b
S345080080c0fdf720fc00f052f8fdf7dafd22462b46fdf7fafdfef78af8fdf7d2fd00f040f8fef784f8dff8b015fef7eefb38bfdff8c0854046411d052f05da012e08bf0846fe
S3450800810000f5803014e07a1f052a07d27f1f012e08bf0846dff89c15081809e000f580300a3f4030012e08bfc01c00f180508030ffb2042f12d8dfe807f00306090c0f002a
S3450800814000f100600ae000f1e06007e000f1c06004e000f1a06001e000f18060bde8f081dff84425dff84435fef794b84ff08441fdf754bc0246dff84005517e002902bffa
S34508008180117e0129dff8340570471cb504466a466c21fff70ffe00226c2100f0a9f900222d2100f0a5f900f00df80ad12200dff8c00401d1806e02e0012c02d1406801219e
S345080081c0016013bddff8b40401780c29704710b5dff8a8341b780446dff89404826e0c2b04d123000fd10020106003e00b2b04bf0023136001222046fff746ff0246204615
S34508008200bde810402ae1012cf4d1406800220260f0e7d0b51746dff8642412780446dff850040e46816e0c2a9ab004d1220038d10020086003e00b2a04bf00220a6012a98e
S34508008240204600f057f96846dff87414482202f01ffd3a4631462046fff716ff039031462046fff769fe05903046fff7fffe07903046fff74cfe09903046fff77bff119025
S345080082800026684600ebc60120464a681df83610fff75afd010002d1761c092ef1db1ab0d0bd012ccbd1406800210160c7e738b5dff8c8331b780d46dff8b4138a6e0024aa
S345080082c00c2b90b004d1030004d001282ad101e00b2b00d11460022801d0032800d1012408a9204600f006f968460ff25441202202f0cefc0320039029462046fff7aafe40
S3450800830005900025684600ebc50120464a681df83510fff719fd010002d16d1c042df1db11b030bd022818bf0328d6d149680c60d1e77cb50546002000240090022d14bf96
S34508008340032d0124b1f90e30dff8780390fbf3f35a434ff47a7692fbf6f66a462d212046fff728fd280018bf022d05d10098400a06eb4026009605e000986ff3184000eb32
S34508008380064000902d21009a00f0b2f876bd30b585b004460d4668460ff28831142202f077fc00207cb15df825004ff48071b1fbf0f04443dff81013b1fbf4f0dff80c13dc
S345080083c0884288bf084605b030bd2de9f041804616460027307896f83c400d46ff2818bf01270a2ca8bf641fe0b20428c8bf641f6868e1b2fff7cbff024613214046fff7b0
S34508008400a3fc010015d1a868e1b2fff7c0ff024614214046fff798fc01000ad1e868e1b2fff7b5ff024615214046fff78dfc010001d0bde8f0813a4631464046fff724fe5a
S345080084406978012908bf00f58020a978012908bf00f5002002464046bde8f0416c2173e4f8b504460ff2d0200088adf800000d461df804702f7000266878012817d17f4969
S3450800848008780c2808d11046fff741fd00f5807200f02df8010029d1a878012808bf4ff0807695f90300000400f4fe0086196879012817d1a87ac00300f400408619687aa9
S345080084c0400300f4c0408619e879000200f470608619287a400100f060008619a87900f00f00861932466d2100f002f8f2bd0021204629e4f8b50ff24426376884b00c46d1
S3450800850005460097032300f01af8010015d1fff759fe0cbf04f1100204f1140204212846fff748fc0199c1f31101216001a90a7902f007026260097aa16005b0f0bd01aae9
S345080085406946fff780bc00003eb50023019304460d7e012d04bf4b7e002b19d191f83c100a2915da012a08d101aa0021fff722fc00220192fff7bbff0ae0002001218df8cd
S3450800858000008df802108df80140002200f023f880b23ebd80b501238df801008df802108df80030002212e010b50446fff7c4fc02462046bde810401021fff7c5bb80b573
S345080085c000228df801008df800208df8022000f002f880b202bd69463d4802f065bb000038b53c4c03e0002212b2fff7a2fe4ff0ff326946364800f075fc0028f7d19df801
S34508008600000090b99df801009df8021011b1012908d0ece701464ff4167251432144fff7c3ffe4e7faf72dfbe1e70128dfd19df801000246a02328495a4311449df802200c
S34508008640012a02d0022a08d0cde7b1f90e304a7c5343642593fbf5f2c6e7b1f90e204b7c5a436ff0630592fbf5f2bde7c03800208ca0010800093d009446002050470020e9
S34508008680544700208fc2f51885ebc13fa4703d0ad7a3e03f00007a440000e0400ad7a3703d0ac73f0050c3477b14ae47e17ad43f0000022000000110c8010400c8011400e7
S345080086c088bf010818e40300001bb700ffff0f00783a0020202a0020083600205472696e616d696351756575650000005472696e616d6963457865637574696f6e5468724f
S3450800870065616400544d4353656d6170686f726531000000544d4353656d6170686f7265320000000100000002000000040000000800000010000000010300000001020068
S3450800874000000000040001006c00000000000000100000000000000070000000ff04040010b500f024f8d1184b782278012b05d1012a00d124e091f83c1025e0012a00d104
S3450800878026e091f83c1027e010b500f010f81a442378517829b9012b00d111e092f83c1012e0012b00d113e092f83c1014e003464ff41671dff8f426dff8f4464b4370479e
S345080087c0bde81040fff791babde81040fef7a8b9bde81040fff77fbabde81040fef784b92de9f84300f0d4f800f5a87700f0cbf83968fdf77ff938603078c0b97069fdf738
S3450800880031fa3968fdf70af90446f068fdf72afa2146fdf76ff900f042f87168fef754f802d200f03df870607068b86035e0f868fdf726fa00f09ff800f098f800f092f8e3
S34508008840fef740f8044630690d46fdf70bfa81463069fdf707fa0146b868fdf7bbf980462046294600f07ef8fdf7c0fc4146fdf7d5f84946fdf73ef900f011f87168fef7b0
S3450800888023f802d200f00cf870603868f968fdf7e1fc02d800f004f87060bde8f1837060b068fdf7dfb92de9f84f00f071f800f5aa7700f068f83968fdf71cf938603078fc
S345080088c0a0b9b069fdf7cef93968fdf7a7f801467868fdf77ff90446f0687460fdf7c2f901462046fdf7f0ff3ad235e0f868fdf7c7f900f040f800f039f800f033f8fdf734
S34508008900e1ff7d68044688462846fdf7b9f98246f0688b46fdf7a6f901462846fdf75af9fdf7aef9054689462046414622464346fdf7caf92a464b46fdf7c6f902460b4621
S3450800894050465946fdf766fbfdf750fc7060f9683868fdf77ffc03d8f068fdf783f97060bde8f18f22462b46fdf7aeb9044638680d46fdf785b902460b46dff83805dff820
S345080089803815fdf787bc71684ff07e50fcf7babf4ff41671dff814254843104400f1680670470000f8b5054629464ff41672dff8fc044a43841804f18406777b7f1e032f92
S345080089c05fd8dfe807f03b020e1c206ffdf74af90146e06efdf778ff53d22846fff700ff4fe0606ffdf73ef9e16efdf76dff02d2d4f88000c8b90021616621661ce00b20b0
S34508008a00dff8b824414350180179012903d1206e606600217173606ffdf724f9e16efdf753ff06d2d4f8800018b12846fff73bff27e0206e60660021717322e03068002896
S34508008a4006dd2846fff7ccfe3068401e306018e07068002809dd2846fff7c2fed4f85801e0667168491e71600be0b068002806dd2846fff718ffb068401eb06001e00020c3
S34508008a8070730026e16edff83804fcf73bff054606e04ff07c502946fcf7c0ff0546761c2846dff82014fdf7d5fbf2d9b0b258b1fdf71eff02460b4600204ff0804102f0a7
S34508008ac099f901f059fd461ea4f83a61284601f01bfc401e80b2f2bd4ff41671dff8cc23484370b5161806f596750024287801f08ffb96f89410a6f894006a78062a25d819
S34508008b00dfe802f0080c0406080c1000012807e0002805e0012819d1002901e0b0b9012914d101e0884211d0a86878b9a888401ea88080b250b9002206f1600106f5f470e3
S34508008b4002f0b2f8042086f891000124a8680128a4bf401ea860204670bd2de9fe4304460c25052168466543dff85c6301f0d6fd06eb050999f8030001f04afb4ff4167123
S34508008b80ca4a01fb04f8904408f196073b78834206d099f8030001f03bfb387000217980b7f90200002848bf4042b8f80810814217da3879a8b90121397198f806000128ea
S34508008bc007d1725d04f232246946204601f065f807e0022805d11434705d0022e1b200f016ffbde8f78330b5002103464ff41674ae4a63431825d4184d43621992f8a830ec
S34508008c00012b04bf002482f8a840491c0629ecdb30bd70b50446002521464ff41672a3485143182342186b43134403f19c06307bd0b130693168401c814230610cd0b068f2
S34508008c407169814200d378b9316872697368306903fb0211884207d1e8b2fcf71ffdfcf78dfd7069401c70616d1c062dd4db70bd38b504460b22914962438d186b78012b4f
S34508008c800dd12946fff740f948b1012028714ff41670864a44431019042180f8911031bd03464ff4167110b5804a4b43d1180b7fca8a012b10d14c6e0b6ee31a48bf5b422a
S34508008cc04c6aa342b8bf8b8a05db8b6a0c6aa342b4bf4b8a0b8acb82c98a8a4205d0744a1378012b08bffff76afc002010bd2de9fe4f824688460521684601f00ffd564606
S34508008d004ff41671694a7143571807f59c797c8bb9f8020018b1401ea9f80200bae0786e396e07f19005884204bf6878002849d1387e01280ed104b9012407f5b27b584626
S34508008d40fdf75eff002221465846fef745ff5846fef734ff5046f9f743ff01460c202a78594c4643022a04bf40f20130814203d1a25d694600f091ff5046f9f7c6fd0120e2
S34508008d80387000212970002207f1600107f5f47001f08aff5046fff726ff99f80000012809d1002189f800100af11600c1b2a05d002200f02cfe0020f8660021404681850f
S34508008dc0c04667e0786e884222da032038705046fff7dafc2978032905d1687804281cbf5046fff779fe5046fff742ff2878022805d0386e35498842a4bf401e3866504663
S34508008e00fff707ffb87948b32889411e298122e0022038705046fff7a3fc2978032905d1687804281cbf5046fff756fe5046fff71fff287802281ebf386e6ff00041884280
S34508008e401cbf401c38665046fff7e3feb87928b12889401c28815046fff77ffe5046fff7a1fd014640468185c046b86a401cb862297802291cbf5046fff712ff0c4801782d
S34508008e80012903d15046fef739ff03e0f98a5046fdf76bfe404600f01ff8bde8f78f4ff08041002023e70a49012020e7202a002052470020ea2e4454fb21f93fec460020b4
S34508008ec04054894c01ff7f47e4450020020000800004004081857047028a4ff6fe710a400282704710b5eff3108372b6846a002c35d0d4f880c0bcf1000f30d0e26fd0f842
S34508008f0008c001e0091d121dd2f800e0c1f800e0bcf1010cbcf1000ff4d1216f8c4202d10021816207e0216f8162216f626f4a67616f226f0a67c16a491ec1620020a06659
S34508008f405f480068401c5e49086083f310880020c4f88400200002f079fa0020aee0d0f810c0bcf1000f71d0026ad0f808c001e0091d121dd2f800e0c1f800e0bcf1010c04
S34508008f80bcf1000ff4d18168026a12eb81010162016ac269914201d381690162002c09d14169491c41610169491e016183f31088002083e042490968491c414a116083f313
S34508008fc01088eff3108372b63d490968491e3c4a1160e26f416ad0f808c001e0091d121dd2f800e0c1f800e0bcf1010cbcf1000ff4d18168426a12eb81014162416ac2690c
S34508009000914201d381694162216f8c4202d10021816207e0216f8162216f626f4a67616f226f0a67c16a491ec1620020a06624480068401c2249086083f310880020c4f8b3
