:020000040000FA
:0415000027EF53F08E
:081508000000000000000000DB
:101510000000000000000000046ED8CF05F0E0CF0E
:1015200006F00001E9CF0CF0EACF07F0E1CF08F0B8
:10153000E2CF09F0D9CF0AF0DACF0BF0F3CF12F0F7
:10154000F4CF13F0FACF14F0F5CF15F0F6CF16F074
:10155000F7CF17F000C00EF001C00FF002C010F07E
:1015600003C011F00E01C2A1B9EF0AF0CAB1F9EF40
:1015700012F0C2A3BFEF0AF0CAB30DEF13F0C4AF6D
:10158000C5EF0AF0CCBF21EF13F0C5A9CBEF0AF0ED
:10159000CDB98FEF0FF0C5ABD1EF0AF0CDBB2CEF7B
:1015A0000EF0C5ADD7EF0AF0CDBD84EF11F0C5AF99
:1015B000DDEF0AF0CDBF00EF11F00EC000F00FC05C
:1015C00001F010C002F011C003F00CC0E9FF07C029
:1015D000EAFF078E08C0E1FF09C0E2FF0AC0D9FF99
:1015E0000BC0DAFF12C0F3FF13C0F4FF14C0FAFF00
:1015F00015C0F5FF16C0F6FF17C0F7FF045006C070
:10160000E0FF05C0D8FF1000F76A180FF66E160E3F
:10161000F7220900F5501200302E31302E30322ED4
:1016200030303030F76A340FF66E160EF7220900AC
:10163000F550120005000A00460069008C00AF005A
:10164000D200F50018015401000000000000000065
:10165000000000000000000000000000000000008A
:10166000000000000000000000000000000000007A
:1016700000300000003000000030000000300000AA
:10168000003000000030000000300000003000009A
:10169000003000000030000005000A00460069002C
:1016A0008C00AF00D200F5001801540100000000CA
:1016B000000000000000000000000000000000002A
:1016C000000000000000000000000000000000001A
:1016D000000000000030000000300000003000007A
:1016E000003000000030000000300000003000003A
:1016F000003000000030000000300000F76A0C0FDE
:10170000F66E170EF7220900F550120005001900B9
:10171000AA00FF005401A901A302BC02D502DA020B
:1017200000000000000000000000000000000000B9
:1017300000000000000000000000000000000000A9
:101740000000000000000000003000000030000039
:1017500000300000003000000030000000300000C9
:1017600000300000003000000030000000300000B9
:1017700005001900AA00FF005401A901A302BC0240
:10178000D502DA02000000000000000000000000A6
:101790000000000000000000000000000000000049
:1017A0000000000000000000000000000030000009
:1017B0000030000000300000003000000030000069
:1017C0000030000000300000003000000030000059
:1017D00000300000F76AE40FF66E170EF7220900DA
:1017E000F550120005000F00140032006400AF0035
:1017F000D200180140015401000000000000000068
:1018000071FDFFFF93FFFFFF2D00000000000000AF
:1018100000000000F7FFFFFFAFFFFFFF9EFFFFFF8D
:10182000004000000040000067660000BB3B000075
:10183000701D00005C2F00005C2F00000C370000C2
:1018400060860000F09A000005000F003200690079
:101850008C00AF00D20018014F01540100000000BD
:1018600000000000000000005F0000000000000019
:10187000000000000000000000000000B3FFFFFFB8
:10188000470100008F2200008F2200008F220000FD
:10189000F00F00000A3700000A3700000A37000086
:1018A0000A370000C18B0000B479FEFFF76ABC0F55
:1018B000F66E180EF7220900F55012000500190007
:1018C000AA00FF005401A901A302A802C602DA027D
:1018D000000000008EFFFFFF0F000000000000006E
:1018E0000000000000000000FFFFFFFF3CFFFFFFC3
:1018F000D5FFFFFFCFFFFFFF142E00005130000087
:1019000092230000142E0000142E0000142E00005C
:10191000413000002D330200F29C000027AC000093
:10192000050019003200FF005401A901C20158024C
:10193000D502DA0200000000000000009D00000057
:10194000000000000000000003000000E6FFFFFFB1
:1019500000000000F6FFFFFFC400000000200000B0
:1019600000200000A41000005C2F00005C2F00008D
:10197000402A0000225C0000142E0000A84600004F
:101980002EFCFDFFF76A940FF66E190EF722090080
:10199000F5501200000048018F02D7031F056606AC
:1019A000AE07F6083E0A860BCD0C150E5D0FA5108E
:1019B000ED113313F76AC40FF66E190EF722090002
:1019C000F5501200140023002C0063009200B000B8
:1019D000D20018013B0154015802F401F401F40152
:1019E000F401F401F401F401F401F4010000000039
:1019F00000000000000000000000000000000000E7
:101A000005000F0055007600A000AD00CE00F400E8
:101A10004C015401F401F401F401F401F401F40166
:101A2000F401F401F401580200000000000000007D
:101A3000000000000000000000000000F76A4C0FEA
:101A4000F66E1A0EF7220900F55012000E00320051
:101A5000460069008C00AF00D200F5009E02DA0259
:101A60005802F401F401F401F401F401F401F40169
:101A7000F401F4010000000000000000000000007C
:101A80000000000000000000140032004600690061
:101A90008C00AF00D200F500C602DA02F401F401B6
:101AA000F401F401F401F401F401F401F401580229
:101AB0000000000000000000000000000000000026
:101AC00000000000F76AD40FF66E1A0EF722090024
:101AD000F5501200140023002C0063009200B000A7
:101AE000D20018013B01540199017B0052004A00C9
:101AF0004A003D003D003D003D003900FA003C0039
:101B00003C003C003C003C003C003C003C007800B9
:101B100005000F0055007600A000AD00CE00F400D7
:101B20004C015401930029002100390041004E006E
:101B300062006A00770099015000280023003C00F1
:101B40003C003C003C003C003C00FA00F76A5C0FA3
:101B5000F66E1B0EF7220900F55012000E0032003F
:101B6000460069008C00AF00D200F5009E02DA0248
:101B70002D013300380046004F005A006200620019
:101B8000620062002C01320032003200320032006A
:101B90003200320032007800140032004600690042
:101BA0008C00AF00D200F500C602DA0273003D00DF
:101BB00041004F00520052006200620062002D019D
:101BC0001E001E001E001E001E001E001E0019002A
:101BD0003200FA00F76AE40FF66E1B0EF7220900D6
:101BE000F5501200C40900000000281E1400010274
:101BF00000000000F76A040FF66E1C0EF7220900C1
:101C0000F5501200D00705003200281E1400010212
:101C1000000000000A018E519003F3CF01F0F4CFD1
:101C200000F09103F35000268F519003F3500020F1
:101C3000026E000112000901ECC901F0EDC902F0C9
:101C40000001120009010DBF03D00D51020801E38C
:101C50000D2B00017EEF0FF000010E01CDABFED782
:101C600099CFA4F707010201B351000A00010DE06A
:101C7000010A32E0030A51E0010A70E0070AD8B411
:101C8000B0D00F0AD8B4F8D03ED10A018F6BB1C2E0
:101C90008EFA916BD00E906F0001BCDF01C08CFA00
:101CA000010E0A010124016E000E0220036E015094
:101CB000400FE96E000E0320EA6EA4C7EFFF020199
:101CC000B32BA4C7B2F20001B6DF02C0B5F201C067
:101CD000B4F20701A56B18D10A018F6BB1C28EFA5D
:101CE000916BD00E906F000195DF01C08CFA020E4F
:101CF0000A010124016E000E0220036E0150400F04
:101D0000E96E000E0320EA6EA4C7EFFF0701A4519D
:101D10000201B21BB32B0701F7D00A018F6BB1C2CE
:101D20008EFA916BD00E906F000174DF01C08CFAB7
:101D3000030E0A010124016E000E0220036E015001
:101D4000400FE96E000E0320EA6EA4C7EFFF070103
:101D5000A4510201B21BB32B0701D6D00A018F6B2D
:101D6000B1C28EFA916BD00E906F000153DF01C0AB
:101D70008CFA040E0A010124016E000E0220036E8B
:101D80000150400FE96E000E0320EA6EA4C7EFFF7A
:101D90000701A4510201B21B0A018F6BB1C28EFA76
:101DA000916BD00E906F000135DF02C08DFA01C03B
:101DB0008CFA010E0A010124016E000E0220036E4E
:101DC0000150400FE96E000E0320EA6EEF5205E16C
:101DD0000B0E0201B36F03D00A010201B32B0701FE
:101DE00093D00A018F6BB1C28EFA916BD00E906FB7
:101DF000000110DF02C08DFA01C08CFA050E0A0145
:101E00008C27000E8D230701A5510A018C25016E38
:101E1000000E8D21036E0150400FE96E000E03206D
:101E2000EA6EA4C7EFFF0701A4510201B21B07012C
:101E3000A52B0A018F6BB1C28EFA916BD00E906FF9
:101E40000001E8DE02C08DFA01C08CFA010E0A0121
:101E50000124016E000E0220036E0150400FE96E56
:101E6000000E0320EA6E0701A551EF5C04E10B0EA2
:101E70000201B36F070148D00701A4510201B25D0E
:101E80001BE10A018F6BB1C28EFA916BD00E906F7D
:101E90000001C0DE01C08CFACF0E0A010124016EE0
:101EA000000E0220036E0150400FE96E000E032069
:101EB000EA6EEF801AD002010A018F6BB1C28EFA6E
:101EC000916BD00E906F0001A5DE01C08CFACF0E91
:101ED0000A010124016E000E0220036E0150400F22
:101EE000E96E000E0320EA6EEF90010E0201B127A9
:101EF000B151020801E2B16B0001A4D60201B36B3B
:101F0000070102D0000107010E01CD9B0001DDEFAA
:101F10000AF00E01CDA9FED79A6E00011200000151
:101F20000E01C5990501FD51000A000111E0010AE9
:101F300034E0030A56E0010AD8B477D0070AD8B4CF
:101F4000BAD00F0AD8B407D1070AD8B40BD143D1FD
:101F50000701A76B0A018F6BFAC58EFA916BD00E41
:101F6000906F000157DE01C08CFA010E0A010124B6
:101F7000016E000E0220036E01508A0FE96E030EFF
:101F80000320EA6EEFCFA6F70701A6510001C1DFDB
:101F9000A6C7FCF50501FD2B1FD10A018F6BFAC501
:101FA0008EFA916BD00E906F000134DE01C08CFA76
:101FB000020E0A010124016E000E0220036E015080
:101FC0008A0FE96E030E0320EA6EEFCFA6F7070132
:101FD000A65100019EDF0701A6510501FC1BFD2B48
:101FE000FBD00A018F6BFAC58EFA916BD00E906F01
:101FF000000110DE01C08CFA030E0A010124016EFB
:10200000000E0220036E01508A0FE96E030E0320BA
:10201000EA6EEFCFA6F70701A65100017ADF0701AC
:10202000A6510501FC1BFD2BD7D00A018F6BFAC509
:102030008EFA916BD00E906F0001ECDD01C08CFA2E
:10204000040E0A010124016E000E0220036E0150ED
:102050008A0FE96E030E0320EA6EEFCFA6F70701A1
:10206000A651000156DF0701A6510501FC1B0A011C
:102070008F6BFAC58EFA916BD00E906F0001CADD9E
:1020800002C08DFA01C08CFA010E0A010124016E12
:10209000000E0220036E01508A0FE96E030E03202A
:1020A000EA6EEF5205E10B0E0501FD6F03D00A0148
:1020B0000501FD2B91D00A018F6BFAC58EFA916B49
:1020C000D00E906F0001A6DD02C08DFA01C08CFA1F
:1020D000050E0A018C27000E8D230701A7510A0166
:1020E0008C25016E000E8D21036E01508A0FE96E62
:1020F000030E0320EA6EEFCFA6F70701A6510001F9
:1021000008DF0701A6510501FC1B0701A72B0A01E7
:102110008F6BFAC58EFA916BD00E906F00017ADD4D
:1021200002C08DFA01C08CFA010E0A010124016E71
:10213000000E0220036E01508A0FE96E030E032089
:10214000EA6E0701A751EF5C04E10B0E0501FD6F7C
:102150000701050141D00501FC510001DADE05014E
:10216000FD2B3AD00A018F6BFAC58EFA916BD00E17
:10217000906F00014FDD8A0E0A010124E96E030E03
:102180000220EA6EEF90010E0501FA27FA510208CB
:1021900001E2FA6BFC6BFD6B0A018F6BFAC58EFADC
:1021A000916BD00E906F000135DD02C08DFA01C039
:1021B0008CFA8A0E0A010124016E030E0220036EBE
:1021C00001C0E9FFEA6EEFB003D00501FE6B0A0122
:1021D000050102D000010501FE5303E00E01C5898F
:1021E00005010E01CD990001DDEF0AF00A018C53C3
:1021F00005E138AE03D009010E2B0A0100011200DF
:1022000000010E01CDAFFED799CEABF70701030158
:102210008751000A00010BE0010A18E0030A1FE0E1
:10222000010A26E0070A36E00F0A4DE061D0ABC78D
:10223000B7F2ABC786F30301872B0001FCDC02C0B9
:1022400089F301C088F30701AC6B53D0ABC7B8F278
:102250000701AB510301861B872B07014AD0ABC78F
:10226000B9F20701AB510301861B872B070141D04F
:10227000ABC7BAF20701AB510301861B0201B7538A
:1022800005E10B0E0301876F03D002010301872BC9
:1022900007012FD0036A0701AC51BB0FE96E020E94
:1022A0000320EA6EABC7EFFFAB510301861B0701AA
:1022B000AC2BAC510201B75D04E10B0E0301876F3B
:1022C0000201070116D00701AB510301865D06E14B
:1022D0000A018C6B00018ADF06D00301010E0A019E
:1022E0008C6F000183DF0301876B070102D00001BF
:1022F00007010E01CD9F0001DDEF0AF00E01CDAD0B
:10230000FED79A6F0001120000010E01C59D070162
:10231000A151000A000111E0010A35E0030A58E06A
:10232000010AD8B47AD0070AD8B4C2D00F0AD8B4F8
:1023300010D1070AD8B414D151D1000E38B2010E11
:102340000A018D6F8F6B8E6F916BD00E906F0001B5
:1023500061DC01C08CFA010E0A010124016E000E3D
:102360000220036E01C0E9FF060E0324EA6EEFCFE0
:10237000ADF70701AE6BAD510001C0DFADC7A0F7EF
:102380000701A12B2CD1000E38B2010E0A018D6F6E
:102390008F6B8E6F916BD00E906F00013BDC01C094
:1023A0008CFA020E0A010124016E000E0220036E57
:1023B00001C0E9FF060E0324EA6EEFCFADF7070177
:1023C000AD5100019BDF0701AD51A01BA12B07D12F
:1023D000000E38B2010E0A018D6F8F6B8E6F916BFC
:1023E000D00E906F000116DC01C08CFA030E0A01BA
:1023F0000124016E000E0220036E01C0E9FF060EEB
:102400000324EA6EEFCFADF70701AD51000176DF8F
:102410000701AD51A01BA12BE2D0000E38B2010E76
:102420000A018D6F8F6B8E6F916BD00E906F0001D4
:102430000AEC0EF001C08CFA040E0A010124016EB0
:10244000000E0220036E01C0E9FF060E0324EA6EAF
:10245000EFCFADF70701AD51000150DF0701AD51DE
:10246000A01B000E38B2010E0A018D6F8F6B8E6FAC
:10247000916BD00E906F00010AEC0EF002C08DFA45
:1024800001C08CFA010E0A010124016E000E022027
:10249000036E01C0E9FF060E0324EA6EEF5205E168
:1024A0000B0E0701A16F03D00A010701A12B97D0E2
:1024B000000E38B2010E0A018D6F8F6B8E6F916B1B
:1024C000D00E906F00010AEC0EF002C08DFA01C030
:1024D0008CFA050E0A018C27000E8D230701AE51E0
:1024E0000A018C25016E000E8D21036E01C0E9FFEB
:1024F000060E0324EA6EEFCFADF70701AD510001E0
:10250000FDDE0701AD51A01BAE2B000E38B2010E4F
:102510000A018D6F8F6B8E6F916BD00E906F0001E3
:102520000AEC0EF002C08DFA01C08CFA010E0A010D
:102530000124016E000E0220036E01C0E9FF060EA9
:102540000324EA6E0701AE51EF5C02E10B0EA16FAE
:1025500046D00701A0510001D1DE0701A12B3FD0D9
:10256000000E38B2010E0A018D6F8F6B8E6F916B6A
:10257000D00E906F00010AEC0EF00A0101C0E9FFD5
:10258000060E0224EA6EEF90000E38B2010E010F23
:102590003892E8B03882000E38B2010E8D6F8F6B22
:1025A0008E6F916BD00E906F00010AEC0EF002C09E
:1025B0008DFA01C08CFA0A0101C001F0060E022456
:1025C000036E01C0E9FFEA6EEFB003D00701A26B12
:1025D0000A010701A06BA16B02D000010701A25301
:1025E00003E00E01C58D07010E01CD9D0001DDEF59
:1025F0000AF000018EB207D00701B151D8B4B2077A
:10260000B10705D000010701B12BD8B4B22B0E01E0
:10261000CA91CA910001DDEF0AF000018EB607D021
:102620000701B551D8B4B607B50705D000010701B9
:10263000B52BD8B4B62B0E01CA93CA930001DDEFB7
:102640000AF00001316A090E326E0E01CC9F0001C2
:10265000DDEF0AF00E01D2910F01106B186B256BA4
:102660002D6B970E8A6E5F0E896E1F0E886E990E07
:102670008B6E8C908C928C948C96856A200E836ED7
:10268000846A866A8C908C928C948C96876AC06AD5
:10269000BE6A010EBF6EC70EBC6E900EBD6EBA6AEA
:1026A000B86A010EB96EC70EB66E900EB76E010E07
:1026B000C66E270EC36EC46AC56A810E316F080EDE
:1026C0005A6F5B6B3F0E576F100E5C6F666A840E1D
:1026D000606E000E586F130E116F000E196F216F90
:1026E000190E266F000E2E6F030E586F0E01CA9141
:1026F000CA93C281F280C283F282080E0F01306F4A
:10270000810E2F6FC00EF212000174EF54F0F2CF61
:1027100072FAF29E71CA7FFF70CA7EFF819C819E11
:1027200081808050819C818E0A0172BFF28E016E81
:1027300000011200D2CE69FA04001200F250006EBD
:10274000F29E8ACA7FFF89CA7EFF8BCA80FF819C66
:10275000819E81840F01550E826EAA0E826E818247
:102760000050F21281B2FED78194819C818E0001CB
:1027700012007DCA57FA7BCA8AFA7ACA89FA57CAFE
:102780008BFADCDF0A017CCA57FA010E7A257E6FCC
:10279000000E7B217F6F8A6F7ECA89FA57CA8BFA37
:1027A0000001CCDF12000A0183CA57FA030E81250B
:1027B000876F000E8221886F8A6F87CA89FA57CA8D
:1027C0008BFA0001BBDF84CA83FA85CA84FA86CA01
:1027D00085FA0A01866B83CA57FA020E8125876F34
:1027E000000E8221886F8A6F87CA89FA57CA8BFACE
:1027F0000001A4DF84CA83FA85CA84FA86CA85FAEE
:102800000A01866B83CA57FA010E8125876F000E75
:102810008221886F8A6F87CA89FA57CA8BFA0001AA
:102820008DDF84CA83FA85CA84FA86CA85FA0A01CA
:10283000866B83CA57FA82CA8AFA81CA89FA57CA4A
:102840008BFA00017BDF12000A0180BF12D0805397
:1028500007E17F5305E17E5303E17D51000809E262
:1028600080CA5EFA7FCA5DFA7ECA5CFA7DCA5BFAEC
:1028700012D0FF0E7D25006EFF0E7E21016EFF0E31
:102880007F21026EFF0E80215E6F02C05DFA01C0E3
:102890005CFA00C05BFA7CCA82FA7BCA81FA5ECA23
:1028A00086FA5DCA85FA5CCA84FA5BCA83FA0001BB
:1028B0007ADF12000A01586B58510908D8A001D1DB
:1028C000000138DFD8900A015835270F766F036A68
:1028D00058CA02F0D8900236033602507425E96EC9
:1028E00075510320EA6EECCF7DFAED52EFCF7CFA02
:1028F0007B6B76CA7AFA00013CDF0A015851040D5D
:10290000F3503B0F766F196AF2BE198EF29E8F6BF1
:1029100058CA8EFA916B040E906F00010AEC0EF00B
:1029200019BEF28E02C003F00150140F016E000EAA
:10293000032201500A017425E96E75510320EA6EE5
:10294000EFCF7DFAECCF7EFAECCF7FFAECCF80FAB6
:102950007C6B76CA7BFA000177DF0A015851040DBF
:10296000F350630F766F196AF2BE198EF29E8F6B69
:1029700058CA8EFA916B040E906F00010AEC0EF0AB
:1029800019BEF28E02C003F001503C0F016E000E22
:10299000032201500A017425E96E75510320EA6E85
:1029A000EFCF7DFAECCF7EFAECCF7FFAECCF80FA56
:1029B0007C6B76CA7BFA000147DFBCDED8900A0147
:1029C00058358B0F766F036A58CA02F0D8900236DA
:1029D00003360250640F016E000E0322015074256D
:1029E000E96E75510320EA6EECCF7DFAED52EFCF20
:1029F0007CFA7B6B76CA7AFA0001BBDE0A01585179
:102A0000040DF3509F0F766F196AF2BE198EF29E75
:102A10008F6B58CA8EFA916B040E906F00010AEC0E
:102A20000EF019BEF28E02C003F00150780F016E55
:102A3000000E032201500A017425E96E755103202E
:102A4000EA6EEFCF7DFAECCF7EFAECCF7FFAECCFD7
:102A500080FA7C6B76CA7BFA0001F6DE0A015851D7
:102A6000040DF350C70F766F196AF2BE198EF29EED
:102A70008F6B58CA8EFA916B040E906F00010AECAE
:102A80000EF019BEF28E02C003F00150A00F016ECD
:102A9000000E032201500A017425E96E75510320CE
:102AA000EA6EEFCF7DFAECCF7EFAECCF7FFAECCF77
:102AB00080FA7C6B76CA7BFA0001C6DE0A01582BCD
:102AC000FBD6000137DE12000A01722D2AD0732DC9
:102AD00013D0070EEA6EBD0EE96EC80E016EF76ADE
:102AE000000E0001EAEC0BF00A000900F5CFEEFF42
:102AF000012EFBD715D00A017351020812E1070E0F
:102B0000EA6EBD0EE96EC80E016EF76A000E000196
:102B100056EC0CF00A000900F5CFEEFF012EFBD7B2
:102B20000A01070E756FBD0E746F0001C3DE12003F
:102B30000A01586B58510908D8A0DAD00001FADD13
:102B4000D8900A015835F00F766F036A58CA02F020
:102B5000D8900236033602507425E96E7551032071
:102B6000EA6EECCF7DFAED52EFCF7CFA7B6B76CA42
:102B70007AFA0001FEDDD8900A015835040F766F0D
:102B8000010E776FD8B0772B036A58CA02F0D8903D
:102B9000023603360250140F016E000E032201505C
:102BA0007425E96E75510320EA6EECCF7DFAED5283
:102BB000EFCF7CFA77CA7BFA76CA7AFA0001D9DDC0
:102BC000D8900A015835180F766F010E776FD8B07C
:102BD000772B036A58CA02F0D890023603360250A7
:102BE000280F016E000E032201507425E96E755105
:102BF0000320EA6EECCF7DFAED52EFCF7CFA77CA74
:102C00007BFA76CA7AFA0001B4DD94DDD8900A0125
:102C100058352C0F766F010E776FD8B0772B036A7B
:102C200058CA02F0D8900236033602503C0F016EAB
:102C3000000E032201507425E96E75510320EA6EDF
:102C4000ECCF7DFAED52EFCF7CFA77CA7BFA76CAE9
:102C50007AFA00018EDDD8900A015835400F766F60
:102C6000010E776FD8B0772B036A58CA02F0D8905C
:102C7000023603360250500F016E000E032201503F
:102C80007425E96E75510320EA6EECCF7DFAED52A2
:102C9000EFCF7CFA77CA7BFA76CA7AFA000169DD4F
:102CA000D8900A015835540F766F010E776FD8B05F
:102CB000772B036A58CA02F0D890023603360250C6
:102CC000640F016E000E032201507425E96E7551E8
:102CD0000320EA6EECCF7DFAED52EFCF7CFA77CA93
:102CE0007BFA76CA7AFA000144DD0A01582B22D712
:102CF000000120DD12000A01722D2AD0732D13D09D
:102D0000080EEA6E850EE96E780E016EF76A000E07
:102D1000000162EC0DF00A000900F5CFEEFF012E74
:102D2000FBD715D00A017351020812E1080EEA6EB2
:102D3000850EE96E780E016EF76A000E0001A6ECB2
:102D40000DF00A000900F5CFEEFF012EFBD70A01B6
:102D5000080E756F850E746F0001EADE12000A011D
:102D600074CAE9FF75CAEAFFECCF7DFAED52EFCFE6
:102D70007CFA7B6B170E7A6F0001FBDC020E0A01F6
:102D80007425E96E000E7521EA6EECCF7DFAED52E6
:102D9000EFCF7CFA7B6B190E7A6F0001EADC040E30
:102DA0000A017425E96E000E7521EA6EECCF7DFAFA
:102DB000ED52EFCF7CFA7B6B1B0E7A6F0001D9DCF2
:102DC000B9DC060E0A017425E96E000E7521EA6E63
:102DD000EFCF8BFA8A6B1D0E896F0001AFDC070EF7
:102DE0000A017425E96E000E7521EA6EEFCF8BFAA9
:102DF0008A6B1E0E896F0001A1DC080E0A01742582
:102E0000E96E000E7521EA6EECCF7DFAED52EFCF40
:102E10007CFA7B6B1F0E7A6F0001ABDC0A0E0A0195
:102E20007425E96E000E7521EA6EEFCF8BFA8A6B7E
:102E3000210E896F000182DC7DDC0B0E0A017425F6
:102E4000E96E000E7521EA6EEFCF83FAECCF84FABB
:102E5000ECCF85FAECCF86FA826B220E816F0001EF
:102E6000A2DC0F0E0A017425E96E000E7521EA6ED0
:102E7000EFCF8BFA8A6B260E896F00015FDC5ADC7C
:102E800012000A01722D2AD0732D13D0080EEA6E9B
:102E9000FD0EE96E100E016EF76A000E0001EAECFD
:102EA0000DF00A000900F5CFEEFF012EFBD715D07B
:102EB0000A017351020812E1080EEA6EFD0EE96E76
:102EC000100E016EF76A000E0001FAEC0DF00A0018
:102ED0000900F5CFEEFF012EFBD70A01080E756F32
:102EE000FD0E746F00013BDF1200120E0A016A250D
:102EF000016E000E6B21036E01C06CFA6D6F716B79
:102F0000120E706F000103DC6DCAEAFF6CCAE9FFA4
:102F100001C0EFFF5BEF1CF00A01586B58510A0823
:102F20001BE3070E58256A25016E000E6B21036E08
:102F300001C06CFA6D6F070E58256E6F716B706F64
:102F4000000187EC13F06DCAEAFF6CCAE9FF01C00B
:102F5000EFFF0A01582BE2D7000162EF1CF00A01D3
:102F6000836B846B010E856FDA6AD96A0A0E886FEB
:102F70007B0E876F0A0EEA6E7F0EE96E88CAE2FF4B
:102F800087CAE1FF85CA86FAD890E550EE02F35071
:102F90008323F4508423862FF7D783CADEFF84CAA5
:102FA00083FA846BD8B0842B872BD8B4882B852BDD
:102FB00085510508DFE100011200F2CF73FAF29E9D
:102FC00072CA7FFF71CA7EFF819C819E8180805082
:102FD000819C818E0A0173BFF28E756F7E6B7D6B53
:102FE0007C6B75CA7BFA010E826F816B806B7F6B85
:102FF0000001B5DF03C077FA02C076FA01C075FAA6
:1030000000C074FA010E0A017125786F000E72215A
:10301000796FF2CF7AFAF29E79CA7FFF78CA7EFF83
:10302000819C819E81808050819C818E7ABFF28EAE
:10303000796F7E6B7D6B7C6B79CA7BFA826B010E3C
:10304000816F806B7F6B00018ADF00500A0174275B
:10305000015075230250762303507723020E712509
:10306000786F000E7221796FF2CF7BFAF29E79CAE7
:103070007FFF78CA7EFF819C819E81808050819CE9
:10308000818E7BBFF28E796F196AF2BE198EF29E25
:103090008F6B79CA8EFA010E916F906B00010AEC6A
:1030A0000EF019BEF28E02C003F001500A0174271F
:1030B00003507523000E7623000E7723030E71252F
:1030C000786F000E7221796FF2CF7CFAF29E79CA86
:1030D0007FFF78CA7EFF819C819E81808050819C89
:1030E000818E7CBFF28E7425006E000E7521016EFC
:1030F000000E7621026E000E7721036E03C05EFA89
:1031000002C05DFA01C05CFA00C05BFA5BCA00F065
:103110005CCA01F05DCA02F05ECA03F00001120051
:10312000130E0A016A25016E000E6B21036E01C0A9
:103130006CFA6D6F726B130E716F00013EDF6DCA1A
:10314000EAFF6CCAE9FF00C0EFFF01C0ECFF02C05C
:10315000ECFF03C0ECFF68EF1CF00A01586B5851FC
:10316000060820E358516A25016E000E6B21036E9C
:1031700001C06CFA6D6F900E58256E6F010E6F6F67
:10318000D8B06F2B6FCA71FA6ECA70FA000187EC63
:1031900013F06DCAEAFF6CCAE9FF01C0EFFF0A0134
:1031A000582BDDD700016EEF1CF0F2CF72FAF29EC1
:1031B00071CA7FFF70CA7EFF819C819E8180805092
:1031C000819C818E0A0172BFF28E746F196AF2BE01
:1031D000198EF29E8F6B74CA8EFA010E916F906BEE
:1031E00000010AEC0EF019BEF28E02C074FA01C0A2
:1031F00073FA010E0A017025756F000E7121766F4A
:10320000F2CF77FAF29E76CA7FFF75CA7EFF819C65
:10321000819E81808050819C818E77BFF28E732544
:10322000596F000E74215A6F59CA01F05ACA02F040
:10323000000112000A01586B58510908D8A0FFD0AC
:10324000036A58CA02F0D8900236033602506A2543
:10325000016E6B51032201C06CFA03C06DFAD89065
:103260005835F00F6E6F716B706F00019EDF6DCA85
:10327000EAFF6CCAE9FF02C0ECFFED5201C0EFFFAC
:10328000036A0A0158CA02F0D89002360336025087
:10329000140F016E000E032201506A25016E6B515E
:1032A000032201C06CFA03C06DFAD8905835040FA0
:1032B0006E6F010E6F6FD8B06F2B6FCA71FA6ECA46
:1032C00070FA000172DF6DCAEAFF6CCAE9FF02C042
:1032D000ECFFED5201C0EFFF036A0A0158CA02F089
:1032E000D890023603360250280F016E000E0322DA
:1032F00001506A25016E6B51032201C06CFA03C0B4
:103300006DFAD8905835180F6E6F010E6F6FD8B0E8
:103310006F2B6FCA71FA6ECA70FA000146DF6DCA70
:10332000EAFF6CCAE9FF02C0ECFFED5201C0EFFFFB
:10333000036A0A0158CA02F0D890023603360250D6
:103340003C0F016E000E032201506A25016E6B5185
:10335000032201C06CFA03C06DFAD89058352C0FC7
:103360006E6F010E6F6FD8B06F2B6FCA71FA6ECA95
:1033700070FA00011ADF6DCAEAFF6CCAE9FF02C0E9
:10338000ECFFED5201C0EFFF036A0A0158CA02F0D8
:10339000D890023603360250500F016E000E032201
:1033A00001506A25016E6B51032201C06CFA03C003
:1033B0006DFAD8905835400F6E6F010E6F6FD8B010
:1033C0006F2B6FCA71FA6ECA70FA0001EEDE6DCA19
:1033D000EAFF6CCAE9FF02C0ECFFED5201C0EFFF4B
:1033E000036A0A0158CA02F0D89002360336025026
:1033F000640F016E000E032201506A25016E6B51AD
:10340000032201C06CFA03C06DFAD8905835540FEE
:103410006E6F010E6F6FD8B06F2B6FCA71FA6ECAE4
:1034200070FA0001C2DE6DCAEAFF6CCAE9FF02C091
:10343000ECFFED5201C0EFFF0A01582BFDD6000151
:1034400075EF1CF00A016ACA01F06BCA6DFA01C07F
:103450006CFA716B170E706F0001A7DE6DCAEAFF80
:103460006CCAE9FF02C0ECFFED5201C0EFFF020E93
:103470000A016A25016E000E6B21036E01C06CFA11
:103480006D6F716B190E706F00018FDE6DCAEAFFF0
:103490006CCAE9FF02C0ECFFED5201C0EFFF040E61
:1034A0000A016A25016E000E6B21036E01C06CFAE1
:1034B0006D6F716B1B0E706F000177DE6DCAEAFFD6
:1034C0006CCAE9FF02C0ECFFED5201C0EFFF060E2F
:1034D0000A016A25016E000E6B21036E01C06CFAB1
:1034E0006D6F716B1D0E706F000187EC13F06DCA6C
:1034F000EAFF6CCAE9FF01C0EFFF070E0A016A2567
:10350000016E000E6B21036E01C06CFA6D6F716B62
:103510001E0E706F000187EC13F06DCAEAFF6CCAD3
:10352000E9FF01C0EFFF080E0A016A25016E000ED7
:103530006B21036E01C06CFA6D6F716B1F0E706FA3
:10354000000133DE6DCAEAFF6CCAE9FF02C0ECFF7E
:10355000ED5201C0EFFF0A0E0A016A25016E000E4E
:103560006B21036E01C06CFA6D6F716B210E706F71
:10357000000187EC13F06DCAEAFF6CCAE9FF01C0D5
:10358000EFFF0B0E0A016A25016E000E6B21036E20
:1035900001C06CFA6D6F726B220E716F00010DDD50
:1035A0006DCAEAFF6CCAE9FF00C0EFFF01C0ECFF83
:1035B00002C0ECFF03C0ECFF0F0E0A016A25016E8A
:1035C000000E6B21036E01C06CFA6D6F716B260EDD
:1035D000706F000187EC13F06DCAEAFF6CCAE9FF57
:1035E00001C0EFFF7CEF1CF070CA72FA6FCA71FA6B
:1035F000E4DC03C05EFA02C05DFA01C05CFA00C000
:103600005BFA0A015E517F0809E35ECA62FA5DCA8D
:1036100061FA5CCA60FA5BCA5FFA12D0FF0E5B5DAA
:10362000006EFF0E5C59016EFF0E5D59026EFF0EBB
:103630005E59626F02C061FA01C060FA00C05FFAB1
:103640005FCA00F060CA01F061CA02F062CA03F00A
:10365000000112000A01586B58510908D8A021D165
:10366000036A58CA02F0D8900236033602506A251F
:10367000016E6B51032201C06CFA03C06DFAD89041
:103680005835270F6E6F716B706F00018EDD6DCA3C
:10369000EAFF6CCAE9FF02C0ECFFED5201C0EFFF88
:1036A000196AF2BE198EF29E0A018F6B58CA8EFA01
:1036B000916B040E906F00010AEC0EF019BEF28EB1
:1036C00002C003F00150140F016E000E03220150DE
:1036D0000A016A25016E6B51032201C06CFA03C016
:1036E0006DFA5851040DF3503B0F6E6F706B6F6F96
:1036F00000017ADF6DCAEAFF6CCAE9FF00C0EFFF84
:1037000001C0ECFF02C0ECFF03C0ECFF196AF2BE7F
:10371000198EF29E0A018F6B58CA8EFA916B040EB5
:10372000906F00010AEC0EF019BEF28E02C003F099
:1037300001503C0F016E000E032201500A016A2560
:10374000016E6B51032201C06CFA03C06DFA58512F
:10375000040DF350630F6E6F706B6F6F000144DFE9
:103760006DCAEAFF6CCAE9FF00C0EFFF01C0ECFFC1
:1037700002C0ECFF03C0ECFF036A0A0158CA02F062
:10378000D890023603360250640F016E000E0322F9
:1037900001506A25016E6B51032201C06CFA03C00F
:1037A0006DFAD89058358B0F6E6F716B706F00018A
:1037B000FCDC6DCAEAFF6CCAE9FF02C0ECFFED5207
:1037C00001C0EFFF196AF2BE198EF29E0A018F6BDB
:1037D00058CA8EFA916B040E906F00010AEC0EF03D
:1037E00019BEF28E02C003F00150780F016E000E78
:1037F000032201500A016A25016E6B51032201C0A8
:103800006CFA03C06DFA5851040DF3509F0F6E6FA0
:10381000706B6F6F0001E8DE6DCAEAFF6CCAE9FFEA
:1038200000C0EFFF01C0ECFF02C0ECFF03C0ECFFE3
:10383000196AF2BE198EF29E0A018F6B58CA8EFA6F
:10384000916B040E906F00010AEC0EF019BEF28E1F
:1038500002C003F00150A00F016E000E03220150C0
:103860000A016A25016E6B51032201C06CFA03C084
:103870006DFA5851040DF350C70F6E6F706B6F6F78
:103880000001B2DE6DCAEAFF6CCAE9FF00C0EFFFBB
:1038900001C0ECFF02C0ECFF03C0ECFF0A01582B93
:1038A000DBD6000183EF1CF00A016B6B1A0E6A6F06
:1038B000000175EF17F00A016B6B1A0E6A6F0001B9
:1038C0008CEF17F00A016B6B1A0E6A6F000128D497
:1038D0000A016B6B1A0E6A6F00013FD4080E0A01D1
:1038E0006B6F850E6A6F0001A5D4080E0A016B6F1D
:1038F000FD0E6A6F0001A6D5070E0A016B6FBD0EA3
:103900006A6F0001A7D6D5EF1CF0010E0A01716F96
:10391000750E706F000187EC13F00150AA0844E0A7
:10392000306A2F6A2E6A2D6A0A01586B58510A08AC
:103930000BE3036A5851210FE96E000E0320EA6E73
:10394000300EEF6E582BF2D7586B585106080BE328
:10395000036A58511A0FE96E000E0320EA6E300E0A
:10396000EF6E582BF2D7410E2C6E010E726F736FF3
:10397000000164EC15F0010E0A01726F736F000113
:103980007BEC16F0010E0A01726F736F000141ECBF
:1039900017F0010E0A018A6F750E896FAA0E8B6FE0
:1039A00000019EEC13F001D07FD776EF54F00A0EA1
:1039B000EA6E700EE96EEF500DE00A0E016E006ABD
:1039C000002EFED7012EFBD75F0E006E002EFED715
:1039D000EF2EF3D712001B0E0F015F6F0A01306B41
:1039E0002F6B336B335103080FE3190E706F000117
:1039F000DEDF6080000060B0FED763500A012F2731
:103A000064503023332BEED730332F3330332F3302
:103A10003F0E30171C0E0F015F6F0A01326B316BC6
:103A2000336B335103080FE3190E706F0001BFDFD2
:103A30006080000060B0FED763500A0131276450F7
:103A40003223332BEED732333133323331333F0E1F
:103A50003217000178EF54F00E01C5AB02D0010E11
:103A600001D0000E016E000138EF1DF03896F4D73A
:103A7000015204E00E01C59B38860001000E0E01C4
:103A8000CDBB010E010803E1CDABFED79950000E6E
:103A9000CDBB010E010803E1CDABFED79950000E5E
:103AA000CDBB010E010803E1CDABFED799509DA21D
:103AB00002D09D989D880201B36B38A603D00E01F9
:103AC000C58B0201010E016E000181EF1DF007019F
:103AD000AA6B0501FF530BE10E01C5990501FA6BB5
:103AE000FB6BFD6BFE6B010E0701AA6F0501070161
:103AF000AAC701F0000182EF1DF00501FF6B000174
:103B0000B5D7E5D7010E016E90EF54F00E01C58BCD
:103B1000000192EF54F00701B26BB16BB66BB56B5D
:103B2000B46BB36BB86BB76B00011200016A026A29
:103B3000006A036A0A016D5102E16C5118E0100E2F
:103B40006E6FD8906A376B37003603366D51035C61
:103B500002E16C51005C07E36C51005ED8A00306E3
:103B60006D51035ED880013602366E2FEAD7000110
:103B70001200020E0A016D5F0CE30A0EEA6E6D0E72
:103B8000E96EEF5006E003D000D000D00000EF2E29
:103B9000FBD7000112000A01366B00018CEF1EF00A
:103BA0000A017D51016A7C5D03E27CCA00F00CD001
:103BB000006A080E7E6F7C3700367D51005CD8B0FD
:103BC000006E01367E2FF7D7000112000901FC912B
:103BD000FC93FC95FD51000A000105E0010A06E096
:103BE000030A07E00AD00901FC8308D00901FC811F
:103BF00005D00901FC8502D000010901010EFD2557
:103C00000A016B6F7C6F030E7D6F0001C9DF00C07E
:103C1000FDF9BFEF1EF0C1500901EA27C250EB23A6
:103C2000C26AC16AEBC96BFAEAC96AFA070E0A01ED
:103C30006D6FD00E6C6F000179DF01C0FEF90901D4
:103C4000FE5331E1D00ED880EA550A016A6F070EA3
:103C50000901EB550A016B6FD8906B336A336BCA5D
:103C60006CFA6C2B6C07D8B405D06D69000181DF4C
:103C70000A01F8D76ACA6DFA00017BDFC150090159
:103C8000EA27C250EB23C26AC16AEBC96BFAEAC9E0
:103C90006AFA070E0A016D6FD00E6C6F000146DFE5
:103CA00001C0FEF90901196AF2BE198EF29E0A01DD
:103CB0008F6BFEC98EFA070E916FD00E906F0001C8
:103CC0000AEC0EF019BEF28E01500901EA5F0250B3
:103CD000EB5BFE51EE27000EEF23FE51F027000EA6
:103CE000F123F223F323FE51FA27000EFB23FE51AA
:103CF000EC27000EED23F3530DE1F251080811E219
:103D0000FF0A08E1F15126080CE2FF0A03E1F05135
:103D1000BF0807E200013FD70901F36BF26BF16BBB
:103D2000F06BFCA718D0FE51F427000EF523F551D7
:103D3000020811E2FF0A03E1F451E7080CE2E80E81
:103D4000F45F030EF55B010E2D26D8B02E2AD8B4F1
:103D50002F2AD8B4302AEF5102080FE2FF0A03E1FC
:103D6000EE51E7080AE2010EF627000EF723F823CA
:103D7000F923E80EEE5F030EEF5B000127D79EEFFD
:103D800054F08FB405D08FB803D0050E016E02D069
:103D9000020E016E12000A016F51715D23E303E10F
:103DA00070516E5D1FE2000ED8807055726F000E6C
:103DB0007155736F010ED8A0E806746F000ED8A07D
:103DC000E806756F6E517225006E6F517321016E9A
:103DD000000E7421026E000E7521036E01C003F007
:103DE000005007D070516E5D006E71516F59036EB7
:103DF0000050016E03C002F0000112008FB005D028
:103E00008FB203D0050E016E02D0020E016E1200B9
:103E1000B8DF0150050820E13DB01DD03DB205D00E
:103E20006DCA3FF06CCA3EF03D826DCA6FFA6CCA33
:103E30006EFA3FC071FA3EC070FAADDF02C06FFA91
:103E400001C06EFA0A016F5303E16E51190802E2D4
:103E50003D803D92000102D03D903D92CFDF015068
:103E6000050820E13AB01DD03AB205D06DCA3CF049
:103E70006CCA3BF03A826DCA6FFA6CCA6EFA3CC0EB
:103E800071FA3BC070FA87DF02C06FFA01C06EFAA8
:103E90000A016F5303E16E51190802E23A803A9227
:103EA000000102D03A903A92B0EF54F00301872D0E
:103EB0001FD000011BEC0EF002C06DFA01C06CFABD
:103EC00002C06FFA01C06EFA89C371FA88C370FA32
:103ED00062DF02C06DFA01C06CFA0A0102500008EC
:103EE00008E2FF0A03E16C515E0803E20301876BFD
:103EF0000A010201B32D1FD000011BEC0EF002C01D
:103F00006DFA01C06CFA02C06FFA01C06EFAB5C258
:103F100071FAB4C270FA3FDF02C06DFA01C06CFAE8
:103F20000A010250000808E2FF0A03E16C515E0832
:103F300003E20201B36B0A0100014EEF35F0010EFE
:103F40000201B0250A016D6F7C6F030E7D6F0001C9
:103F500027DE00C0B0F2196AF2BE198EF29E0A0185
:103F60008F6BB0C28EFA916BD00E906F00010AEC8D
:103F70000EF019BEF28E02C003F00150400F016E28
:103F8000000E032203C002F055EF35F035520FE169
:103F9000040E0A017825E96E000E7921EA6EEF50D1
:103FA0007D08D8A402D0000102D0A2D10001010EE8
:103FB0000701A96F0501FF5303E00701A96B050184
:103FC0000701A92D11D003018AB102D007010CD03D
:103FD00004015AB102D0070107D005012AB102D06D
:103FE000070102D00701A96BA92D81D1196AF2BE80
:103FF000198EF29E0A018F6BFAC58EFA916BD00E64
:10400000906F00010AEC0EF019BEF28E02C07BFA2E
:1040100001C07AFA8A0E0A010124016E030E022001
:10402000036E01C0E9FFEA6EEFB003D0FAC5FBF5FD
:1040300045D0010E0501FA250A017B6F7C6F030E46
:104040007D6F0001ADDD196AF2BE198EF29E0A0184
:104050008F6B00C08EFA916BD00E906F00010AEC4E
:104060000EF019BEF28E02C07BFA01C07AFA8A0EF7
:104070000A010124016E030E0220036E01C0E9FF54
:10408000EA6EEFB00ED0010E0501FA250A017B6F32
:104090007C6F030E7D6F000183DD00C0FBF50DD04A
:1040A0000A01020E0501FA250A017B6F7C6F030EDF
:1040B0007D6F000175DD00C0FBF50A01010E0501F1
:1040C000FF6F196AF2BE198EF29E0A018F6BFBC553
:1040D0008EFA916BD00E906F00010AEC0EF019BEB3
:1040E000F28E01C07AFA010E0A010124016E000E5F
:1040F0000220036E01508A0F016E030E0322010E8F
:104100007825E96E000E7921EA6EEFCF7CFA03C0C4
:10411000EAFF01C0E9FF7CCAEFFF196AF2BE198EFF
:10412000F29E8F6BFBC58EFA916BD00E906F0001E3
:104130000AEC0EF019BEF28E01C07AFA020E0A01E4
:104140000124016E000E0220036E01508A0F016EE1
:10415000030E0322020E7825E96E000E7921EA6E25
:10416000EFCF7CFA03C0EAFF01C0E9FF7CCAEFFF92
:10417000196AF2BE198EF29E8F6BFBC58EFA916B97
:10418000D00E906F00010AEC0EF019BEF28E01C045
:104190007AFA030E0A010124016E000E0220036E5A
:1041A00001508A0F016E030E0322030E7825E96E7B
:1041B000000E7921EA6EEFCF7CFA03C0EAFF01C05E
:1041C000E9FF7CCAEFFF196AF2BE198EF29E8F6B6F
:1041D000FBC58EFA916BD00E906F00010AEC0EF0C9
:1041E00019BEF28E01C07AFA040E0A010124016E92
:1041F000000E0220036E01508A0F016E030E03228F
:10420000040E7825E96E000E7921EA6EEFCF7CFA74
:1042100003C0EAFF01C0E9FF7CCAEFFF0701A96BF9
:10422000010E0A017825E96E000E7921EA6EEF5041
:104230000701A95D3AE2196AF2BE198EF29E0A01DF
:104240008F6BFBC58EFA916BD00E906F00010AEC5C
:104250000EF019BEF28E02C07BFA01C07AFA050E8A
:104260000A017A27000E7B230701A9510A017A254A
:10427000016E000E7B21036E01508A0F016E030E4A
:104280000322050E0701A9250A017825E96E000E13
:104290007921EA6EEFCF7CFA03C0EAFF01C0E9FFA3
:1042A0007CCAEFFF0701A92BBBD7196AF2BE198E92
:1042B000F29E0A018F6BFBC58EFA916BD00E906F48
:1042C00000010AEC0EF019BEF28E8A0E0A010124DA
:1042D000E96E030E0220EA6EEF800501FE5305E150
:1042E000010EFE6F0E01C5890501FF6B07010A0172
:1042F0000001120075CA1BF935C01CF9020E090134
:104300001A6F7F0E1D6F76CA1EF977CA1FF9090E44
:104310000A01796F190E786F000138DE120073CA36
:1043200075FA74CA76FA220E0A01776F0001E2DF8D
:104330001200355201E164D1010E0701AF6FA353A2
:1043400001E0AF6BAF2D0BD0060100B102D0070129
:1043500006D0D0B102D0070102D00701AF6BAF2D5C
:104360004FD1000E38B2010E0A016F6F196AF2BE0A
:10437000198EF29E8F6B8E6F916BD00E906F000135
:104380000AEC0EF019BEF28E02C06FFA01C06EFA8E
:104390000A0101C001F0060E0224036E01C0E9FF0C
:1043A000EA6EEFB004D0389438B2388407D0000EEB
:1043B00038B2010E010F3894E8B03884010E0701BD
:1043C000A36F000E38B4010E0A016F6F196AF2BEB6
:1043D000198EF29E8F6B8E6F916BD00E906F0001D5
:1043E0000AEC0EF019BEF28E01C06EFA010E0A013F
:1043F0000124016E000E0220036E0150060E0326FA
:10440000010E6C25E96E000E6D21EA6EEFCF70FA99
:1044100003C0EAFF01C0E9FF70CAEFFF000E38B425
:10442000010E6F6F196AF2BE198EF29E8F6B8E6F3E
:10443000916BD00E906F00010AEC0EF019BEF28E57
:1044400001C06EFA020E0A010124016E000E022064
:10445000036E0150060E0326020E6C25E96E000E57
:104460006D21EA6EEFCF70FA03C0EAFF01C0E9FFE9
:1044700070CAEFFF000E38B4010E6F6F196AF2BEFA
:10448000198EF29E8F6B8E6F916BD00E906F000124
:104490000AEC0EF019BEF28E01C06EFA030E0A018C
:1044A0000124016E000E0220036E0150060E032649
:1044B000030E6C25E96E000E6D21EA6EEFCF70FAE7
:1044C00003C0EAFF01C0E9FF70CAEFFF000E38B475
:1044D000010E6F6F196AF2BE198EF29E8F6B8E6F8E
:1044E000916BD00E906F00010AEC0EF019BEF28EA7
:1044F00001C06EFA040E0A010124016E000E0220B2
:10450000036E0150060E0326040E6C25E96E000EA4
:104510006D21EA6EEFCF70FA03C0EAFF01C0E9FF38
:1045200070CAEFFF0701AF6B010E0A016C25E96E3F
:10453000000E6D21EA6EEF500701AF5D3BE2000E09
:1045400038B4010E0A016F6F196AF2BE198EF29E1D
:104550008F6B8E6F916BD00E906F00010AEC0EF096
:1045600019BEF28E02C06FFA01C06EFA050E0A0182
:104570006E27000E6F230701AF510A016E25016EF1
:10458000000E6F21036E0150060E0326050E070173
:10459000AF250A016C25E96E000E6D21EA6EEFCFA2
:1045A00070FA03C0EAFF01C0E9FF70CAEFFF07011C
:1045B000AF2BBAD7000E38B4010E0A016F6F196A1B
:1045C000F2BE198EF29E8F6B8E6F916BD00E906F34
:1045D00000010AEC0EF019BEF28E0A0101C0E9FFDB
:1045E000060E0224EA6EEF800701A25308E138921A
:1045F00038B43882010EA26F0E01C58D0701A36B7E
:10460000000185EF35F0030E0F01586F0A0170515C
:104610003F0B0F015F6F0A01336B335102082DE32B
:10462000350E006E002EFED76080000060B0FED711
:1046300063CF34FA64CF35FA712D0BD035510208AF
:1046400007E303E13451800803E3050E016E17D040
:1046500012D0355101080FE2FF0A03E134518008FE
:104660000AE23551030807E303E13451810803E30B
:10467000050E016E04D0332BD0D7020E016E00015F
:1046800012000A016551050801E11ED0050E656F93
:10469000666B6651310809E3857A010E706F00017F
:1046A000D7EC1CF00A01662BF4D7830E0F01316F93
:1046B000010E0A01706F716B0001A5DF0150050842
:1046C00004E0020E0A01656F00011200000E0F01E6
:1046D000586F180E5F6F350E006E002EFED70A0160
:1046E000702D01D0376B6080000060B0FED763CFC3
:1046F00034FA64CF35FA3551030806E303E1345147
:10470000320802E3372B01D0376B702D22D0336B88
:104710003351010818E3350E006E002EFED760807D
:10472000000060B0FED763CF34FA64CF35FA35515C
:10473000030806E303E13451320802E3372B01D0CA
:10474000376B332BE5D73751020803E2020E016EB7
:1047500008D03751040803E2020E016E02D0050EA4
:10476000016E00011200839A030E0A01706F0001AE
:10477000D7EC1CF0050E0A01646F010E706F00018A
:10478000A5DF0150050805E0020E0A01646F838A67
:1047900000011200830E0F01316F0A01706B716B03
:1047A000000131DF0150050809E1010E0A01706FB7
:1047B000716F000128DF0150050801E002D061DFC0
:1047C000D2DF44EF24F00E01C5AF02D0010E01D0BC
:1047D000000E016E0001EFEF23F03898F4D701527C
:1047E00004E00E01C59F38880001000E0E01CDBF08
:1047F000010E010803E1CDAFFED79951000ECDBFE8
:10480000010E010803E1CDAFFED79951000ECDBFD7
:10481000010E010803E1CDAFFED799519DA302D04F
:104820009D999D890301876B38A803D00E01C58F20
:104830000301010E016E000134EF24F00701B06B9B
:10484000A35309E10E01C59D389238940701A16B6D
:10485000A26B010EB06FB0C701F0000135EF24F07C
:104860000701A36B0001B9D7E9D7010E016E45EF2F
:1048700024F00E01C58F000146EF24F0355217E1F8
:104880006ECA35F0388E86D7EBD7F3D76FCA1BF9CF
:1048900035C01CF909011A6BC10E1D6F090E0A0102
:1048A000796F190E786F0001C6EC1FF007D06FCA40
:1048B00073FA810E0A01746F000131DD57EF37F092
:1048C000020E0A01646F838A00011200020E0A01BF
:1048D000656F859A0001F4DF70EF24F0389EF6D7FB
:1048E00009011A6BC20E1D6F090E0A01796F190EAC
:1048F000786F0001C6EC1FF0356A57EF37F073CAC6
:1049000075FA74CA76FA120E0A01776F0001F2DCAA
:104910001200010E09011A6F500E1D6F050E0A01DB
:104920006C25E96E000E6D21EA6EEFCF1EF9050EC3
:104930006C25E96E000E6D21EA6EEF50000A000151
:1049400007E0020A0FE0070A49E0640A52E05CD07F
:10495000376A090E0A01796F190E786F0001C6ECEB
:104960001FF05FD0090E0A01796F190E786F0001F0
:10497000C6EC1FF0F250006EF29E010E7F6E720EBA
:104980007E6E030E806E819C819E81840F01550E88
:10499000826EAA0E826E81820050F21281B2FED720
:1049A0008194819C818EF2CF00F0F29E010E7F6E89
:1049B000760E7E6E35C080FF819C819E8184550E6F
:1049C000826EAA0E826E81820050F21281B2FED7F0
:1049D0008194819C818EFF00000123D0050E376EEB
:1049E000090E0A01796F190E786F0001C6EC1FF0ED
:1049F00018D0610E376E090E0A01796F190E786FA3
:104A00000001C6EC1FF00DD0030E0A016C25E96E03
:104A1000000E6D21EA6EEFCF73FA100E746F000175
:104A20006EDF57EF37F06ECA75FA6FCA76FA110E5D
:104A30000A01776F00015EDC120009011A6B7D0E1E
:104A40001D6F090E0A01796F190E786F0001C6EC0F
:104A50001FF057EF37F00A012BCA01F02CCA02F001
:104A6000000112000A012DCA01F02ECA02F0000155
:104A70001200620E09011D6F0A01715109011E6FBA
:104A800070CA1FF90A017051006E7151036E035014
:104A900004E10052000134E00A01010E035C05E16B
:104AA00000520001D8B4A6D00A01030E035C05E150
:104AB00000520001D8B4D0D00A01100E035C05E109
:104AC00000520001D8B4DDD00A01200E035C05E1DC
:104AD00000520001D8B41CD10A01210E035C05E18B
:104AE00000520001D8B44CD10A01220E035C06E149
:104AF00000520001D8B48BEF29F00A012FEF2BF000
:104B0000220E09011A6F020E106F0F6B0F510A0867
:104B10001EE3036A10511E0F016E090E03220A01E3
:104B200003C073FA036A09010F51210FE96E000EE9
:104B30000320EA6EEFCF74FA0A0173CAEAFF01C0DC
:104B4000E9FF74CAEFFF0901102B0F2BDFD70F6BA2
:104B50000F510B0811E3036A10511E0FE96E090E85
:104B60000320EA6E036A0F51000104EC0BF0EF6EB4
:104B70000901102B0F2BECD70F6B0F5106081EE30A
:104B8000036A10511E0F016E090E03220A0103C0B1
:104B900073FA036A09010F511A0FE96E000E032020
:104BA000EA6EEFCF74FA0A0173CAEAFF01C0E9FFA7
:104BB00074CAEFFF0901102B0F2BDFD7036A1051C6
:104BC0001E0FE96E090E0320EA6E2CC0EFFF102BBA
:104BD000036A10511E0FE96E090E0320EA6EEF6A98
:104BE000090E0A01796F190E786F0001C6EC1FF0EB
:104BF00036EF2BF03880FEEC1EF00150050805E181
:104C0000010E09010F6F03D0000109010F6B0001B4
:104C1000C1EC1EF00150050805E1010E0901106FFD
:104C200003D000010901106B060E1A6F365202E123
:104C3000206B02D031C020F932C021F90FC922F90E
:104C400010C923F9090E0A01796F190E786F000156
:104C5000C6EC1FF036EF2BF0060E09011A6F30C0BC
:104C600020F92FC021F92EC022F92DC023F9090EF9
:104C70000A01796F190E786F0001C6EC1FF036EF4C
:104C80002BF0E9DE02C012F901C011F9EBDE02C01F
:104C900014F901C013F90C0E09011A6F0701B45180
:104CA0000901206FB3C721F90701B8510901226F2B
:104CB000B7C723F90701BA31036EB931026E033267
:104CC0000232033202321F0E031602C024F9090118
:104CD0000701BC31036EBB31026E03320232033274
:104CE00002321F0E031602C025F909011251266F68
:104CF00011C927F91451286F13C929F9090E0A019E
:104D0000796F190E786F0001C6EC1FF036EF2BF0AB
:104D1000120E09011A6F0801FE510901206FFDC82A
:104D200021F90051226FFFC823F90251246F01C9F4
:104D300025F903C926F904C927F90651286F05C9C1
:104D400029F907C92AF90BC92BF9036A0AC92CF9F1
:104D50000BC901F0036A09C92DF90AC901F00BC991
:104D600002F0036A08C92EF90CC92FF9090E0A01CD
:104D7000796F190E786F0001C6EC1FF036EF2BF03B
:104D8000CA0E09011A6F210E1E6F1F6B020E106FE3
:104D90000F6B0F5109083FE3036A10511E0F016E9C
:104DA000090E03220A0103C073FAD89009010F35D6
:104DB000036ABD0FE96E070E0320EA6EECCF75FAA9
:104DC000ED52EFCF74FA0A01755173CAEAFF01C0C0
:104DD000E9FFEF6E0901102B036A10511E0F016EDF
:104DE000090E03220A0103C073FAD89009010F3596
:104DF000036ABD0FE96E070E0320EA6EEFCF74FA67
:104E00000A0173CAEAFF01C0E9FF74CAEFFF090192
:104E1000102B0F2BBED70F6B0F510908D8A088D0CD
:104E2000036A10511E0F016E090E032201C072FAAF
:104E300003C073FA09010F51040DF350036AD10F37
:104E4000E96E070E0320EA6EEFCF74FAECCF75FA25
:104E5000ECCF76FAECCF00F073CAEAFF72CAE9FF32
:104E600000C0EFFF102B036A10511E0F016E090ED8
:104E7000032201C072FA03C073FA09010F51040D35
:104E8000F350036AD10FE96E070E0320EA6EEFCFED
:104E900074FAECCF75FAECCF00F0ECCF01F073CAE6
:104EA000EAFF72CAE9FF00C0EFFF102B036A10513E
:104EB0001E0F016E090E032201C072FA03C073FABD
:104EC00009010F51040DF350036AD10FE96E070E6B
:104ED0000320EA6EEFCF74FAECCF00F0ECCF01F0D4
:104EE000ECCF02F073CAEAFF72CAE9FF00C0EFFF1D
:104EF000102B036A10511E0F016E090E032203C00E
:104F000073FA09010F51040DF350036AD10FE96ED2
:104F1000070E0320EA6EEFCF74FA0A0173CAEAFFA4
:104F200001C0E9FF74CAEFFF0901102B0F2B74D7E2
:104F30000F6B0F510908D8A088D0036A10511E0FBB
:104F4000016E090E032201C072FA03C073FA09014F
:104F50000F51040DF350036AF90FE96E070E032099
:104F6000EA6EEFCF74FAECCF75FAECCF76FAECCFAD
:104F700000F073CAEAFF72CAE9FF00C0EFFF102B0E
:104F8000036A10511E0F016E090E032201C072FA4E
:104F900003C073FA09010F51040DF350036AF90FAE
:104FA000E96E070E0320EA6EEFCF74FAECCF75FAC4
:104FB000ECCF00F0ECCF01F073CAEAFF72CAE9FF50
:104FC00000C0EFFF102B036A10511E0F016E090E77
:104FD000032201C072FA03C073FA09010F51040DD4
:104FE000F350036AF90FE96E070E0320EA6EEFCF64
:104FF00074FAECCF00F0ECCF01F0ECCF02F073CA02
:10500000EAFF72CAE9FF00C0EFFF102B036A1051DC
:105010001E0F016E090E032203C073FA09010F511E
:10502000040DF350036AF90FE96E070E0320EA6ED0
:10503000EFCF74FA0A0173CAEAFF01C0E9FF74CA2C
:10504000EFFF0901102B0F2B74D70F6B0F510908BD
:105050003FE3036A10511E0F016E090E03220A017D
:1050600003C073FAD89009010F35036A210FE96E66
:10507000080E0320EA6EECCF75FAED52EFCF74FA0A
:105080000A01755173CAEAFF01C0E9FFEF6E090119
:10509000102B036A10511E0F016E090E03220A0124
:1050A00003C073FAD89009010F35036A210FE96E26
:1050B000080E0320EA6EEFCF74FA0A0173CAEAFF02
:1050C00001C0E9FF74CAEFFF0901102B0F2BBED7F7
:1050D0000F6B0F510908D8A088D0036A10511E0F1A
:1050E000016E090E032201C072FA03C073FA0901AE
:1050F0000F51040DF350036A350FE96E080E0320BB
:10510000EA6EEFCF74FAECCF75FAECCF76FAECCF0B
:1051100000F073CAEAFF72CAE9FF00C0EFFF102B6C
:10512000036A10511E0F016E090E032201C072FAAC
:1051300003C073FA09010F51040DF350036A350FD0
:10514000E96E080E0320EA6EEFCF74FAECCF75FA21
:10515000ECCF00F0ECCF01F073CAEAFF72CAE9FFAE
:1051600000C0EFFF102B036A10511E0F016E090ED5
:10517000032201C072FA03C073FA09010F51040D32
:10518000F350036A350FE96E080E0320EA6EEFCF85
:1051900074FAECCF00F0ECCF01F0ECCF02F073CA60
:1051A000EAFF72CAE9FF00C0EFFF102B036A10513B
:1051B0001E0F016E090E032203C073FA09010F517D
:1051C000040DF350036A350FE96E080E0320EA6EF2
:1051D000EFCF74FA0A0173CAEAFF01C0E9FF74CA8B
:1051E000EFFF0901102B0F2B74D70F6B0F5109081C
:1051F000D8A088D0036A10511E0F016E090E032239
:1052000001C072FA03C073FA09010F51040DF35083
:10521000036A5D0FE96E080E0320EA6EEFCF74FAA1
:10522000ECCF75FAECCF76FAECCF00F073CAEAFF58
:1052300072CAE9FF00C0EFFF102B036A10511E0F66
:10524000016E090E032201C072FA03C073FA09014C
:105250000F51040DF350036A5D0FE96E080E032031
:10526000EA6EEFCF74FAECCF75FAECCF00F0ECCF2A
:1052700001F073CAEAFF72CAE9FF00C0EFFF102B0A
:10528000036A10511E0F016E090E032201C072FA4B
:1052900003C073FA09010F51040DF350036A5D0F47
:1052A000E96E080E0320EA6EEFCF74FAECCF00F03F
:1052B000ECCF01F0ECCF02F073CAEAFF72CAE9FF4B
:1052C00000C0EFFF102B036A10511E0F016E090E74
:1052D000032203C073FA09010F51040DF350036A4E
:1052E0005D0FE96E080E0320EA6EEFCF74FA0A0133
:1052F00073CAEAFF01C0E9FF74CAEFFF0901102B6E
:105300000F2B74D7090E0A01796F190E786F0001FF
:10531000C6EC1FF0ABD17A0E09011A6F220E1E6F78
:105320001F6B020E106F0F6B0F5109083FE3036AEA
:1053300010511E0F016E090E03220A0103C073FAF9
:10534000D89009010F35036A850FE96E080E032016
:10535000EA6EECCF75FAED52EFCF74FA0A0175518F
:1053600073CAEAFF01C0E9FFEF6E0901102B036A5F
:1053700010511E0F016E090E03220A0103C073FAB9
:10538000D89009010F35036A850FE96E080E0320D6
:10539000EA6EEFCF74FA0A0173CAEAFF01C0E9FFAF
:1053A00074CAEFFF0901102B0F2BBED70F6B0F51E3
:1053B00009083FE3036A10511E0F016E090E032214
:1053C0000A0103C073FAD89009010F35036A990FD7
:1053D000E96E080E0320EA6EECCF75FAED52EFCFBE
:1053E00074FA0A01755173CAEAFF01C0E9FFEF6E52
:1053F0000901102B036A10511E0F016E090E0322C2
:105400000A0103C073FAD89009010F35036A990F96
:10541000E96E080E0320EA6EEFCF74FA0A0173CA30
:10542000EAFF01C0E9FF74CAEFFF0901102B0F2B3F
:10543000BED70F6B0F5109083FE3036A10511E0FCF
:10544000016E090E03220A0103C073FAD890090104
:105450000F35036AAD0FE96E080E0320EA6EECCF3C
:1054600075FAED52EFCF74FA0A01755173CAEAFF6B
:1054700001C0E9FFEF6E0901102B036A10511E0FE6
:10548000016E090E03220A0103C073FAD8900901C4
:105490000F35036AAD0FE96E080E0320EA6EEFCFF9
:1054A00074FA0A0173CAEAFF01C0E9FF74CAEFFF88
:1054B0000901102B0F2BBED70F6B0F5109083FE3CB
:1054C000036A10511E0F016E090E03220A0103C068
:1054D00073FAD89009010F35036AC10FE96E080EFF
:1054E0000320EA6EECCF75FAED52EFCF74FA0A01A1
:1054F000755173CAEAFF01C0E9FFEF6E0901102B75
:10550000036A10511E0F016E090E03220A0103C027
:1055100073FAD89009010F35036AC10FE96E080EBE
:105520000320EA6EEFCF74FA0A0173CAEAFF01C0E2
:10553000E9FF74CAEFFF0901102B0F2BBED70F6BC9
:105540000F5109083FE3036A10511E0F016E090E47
:1055500003220A0103C073FAD89009010F35036AC8
:10556000D50FE96E080E0320EA6EECCF75FAED5206
:10557000EFCF74FA0A01755173CAEAFF01C0E9FF5F
:10558000EF6E0901102B036A10511E0F016E090EF8
:1055900003220A0103C073FAD89009010F35036A88
:1055A000D50FE96E080E0320EA6EEFCF74FA0A01F8
:1055B00073CAEAFF01C0E9FF74CAEFFF0901102BAB
:1055C0000F2BBED70F6B0F5109083FE3036A105131
:1055D0001E0F016E090E03220A0103C073FAD89050
:1055E00009010F35036AE90FE96E080E0320EA6E20
:1055F000ECCF75FAED52EFCF74FA0A01755173CA08
:10560000EAFF01C0E9FFEF6E0901102B036A105198
:105610001E0F016E090E03220A0103C073FAD8900F
:1056200009010F35036AE90FE96E080E0320EA6EDF
:10563000EFCF74FA0A0173CAEAFF01C0E9FF74CA26
:10564000EFFF0901102B0F2BBED7090E0A01796F4E
:10565000190E786F0001C6EC1FF008D00A016FCA5E
:1056600073FA220E746F00017FEC24F057EF37F0CD
:105670009AEC13F00A01586B5851060819E3900E82
:105680005825746F010E756FD8B0752B585172255F
:10569000E96E000E7321EA6EEFCF8BFA75CA8AFAB3
:1056A00074CA89FA00019EEC13F00A01582BE4D762
:1056B00000019AEC13F030EF2CF09AEC13F00A0191
:1056C000586B58510A0815E3070E5825746F070EDA
:1056D00058257225E96E000E7321EA6EEFCF8BFA22
:1056E0008A6B74CA89FA00019EEC13F00A01582BE8
:1056F000E8D700019AEC13F098EF2CF09AEC13F035
:10570000130E0A017225E96E000E7321EA6EEFCFC7
:1057100083FAECCF84FAECCF85FAECCF86FA826B71
:10572000130E816F0001D3EC13F09AEC13F012000A
:10573000120E0A017225E96E000E7321EA6EEFCF98
:105740008BFA8A6B120E896F00019EEC13F0120027
:10575000020E09011A6F6E0E1D6F0A016F510901C9
:105760001E6F6ECA1FF90A016E51006E6F51036EF3
:10577000035004E10052000135E00A01035006E144
:10578000010E005C0001D8B475D00A01030E035C61
:1057900005E100520001D8B4D5D00A01030E035C24
:1057A00006E1010E005C0001D8B42CD10A01200EE4
:1057B000035C05E100520001D8B4B3D10A01210E07
:1057C000035C05E100520001D8B4F4D20A01220EB4
:1057D000035C06E100520001D8B494EF32F00A01F4
:1057E00047EF34F0070E0A017025E96E000E7121B3
:1057F000EA6EEFCF1AF0080E7025E96E000E7121E7
:10580000EA6EEFCF1BF0090E7025E96E000E7121D4
:10581000EA6EEFCF1CF00A0E7025E96E000E7121C2
:10582000EA6EEFCF1DF00B0E7025E96E000E7121B0
:10583000EA6EEFCF1EF00C0E7025E96E000E71219E
:10584000EA6EEFCF1FF00D0E7025E96E000E71218C
:10585000EA6EEFCF20F0736B1A0E726F000108D75B
:10586000090E0A01796F190E786F0001C6EC1FF05E
:1058700054EF34F0070E0A017025E96E000E712115
:10588000EA6EEFCF21F0080E7025E96E000E71214F
:10589000EA6EEFCF22F0090E7025E96E000E71213D
:1058A000EA6EEFCF23F00A0E7025E96E000E71212B
:1058B000EA6EEFCF24F00B0E7025E96E000E712119
:1058C000EA6EEFCF25F00C0E7025E96E000E712107
:1058D000EA6EEFCF26F00D0E7025E96E000E7121F5
:1058E000EA6EEFCF27F00E0E7025E96E000E7121E3
:1058F000EA6EEFCF28F00F0E7025E96E000E7121D1
:10590000EA6EEFCF29F0100E7025E96E000E7121BE
:10591000EA6EEFCF2AF0110E7025E96E000E7121AC
:10592000EA6EEFCF2BF0736B1A0E726F0001C5D6C3
:10593000090E0A01796F190E786F0001C6EC1FF08D
:1059400054EF34F0070E0A017025E96E000E712144
:10595000EA6EEFCF72FA000E756B2D6A2E6A2F6A0F
:1059600075CA30F0080E7025E96E000E7121EA6EDE
:10597000EFCF72FA000E746B006A016A74CA02F00B
:10598000036A00502D2601502E2202502F22035070
:105990003022090E7025E96E000E7121EA6EEFCFFC
:1059A00072FA000E736B006A73CA01F0026A036A2E
:1059B00000502D2601502E2202502F22035030225B
:1059C000080E7025E96E000E7121EA6EEF50006E30
:1059D000016A026A036A00502D2601502E220250ED
:1059E0002F2203503022736B1A0E726F000186DE75
:1059F000090E0A01796F190E786F0001C6EC1FF0CD
:105A000054EF34F03652D8A47CD0070E0A0170252A
:105A1000E96E000E7121EA6EEF5041082CE1010E93
:105A2000366E2C5041081DE0410E2C6E736B1A0E21
:105A3000726F00017DDE010E0A01726F736F00014B
:105A400064EC15F0010E0A01726F736F00017BECBC
:105A500016F0010E0A01726F736F000141EC17F02E
:105A60000A01316A090E796F190E786F0001C6ECD0
:105A70001FF046D00A01070E7025E96E000E712155
:105A8000EA6EEF5042082FE1020E366E2C504208AB
:105A900020E0420E2C6E736B1A0E726F000148DE0E
:105AA000010E0A01726F020E736F000164EC15F0B3
:105AB000010E0A01726F020E736F00017BEC16F08B
:105AC000010E0A01726F020E736F000141EC17F0B4
:105AD0000A01316A090E796F190E786F0001C6EC60
:105AE0001FF00ED00A01030E7025E96E000E712121
:105AF000EA6EEFCF73FA2E0E746F00017FEC24F084
:105B00000ED0030E0A017025E96E000E7121EA6EB7
:105B1000EFCF73FA2E0E746F00018FEC21F054EF6B
:105B200034F0070E0A017025E96E000E7121EA6E4D
:105B3000196AF2BE198EF29E8F6BEFCF8EFA010EAC
:105B4000916F906B00010AEC0EF019BEF28E080EF8
:105B50000A017025E96E000E7121EA6EEF500124F2
:105B60000801FD6F000E0A0102200801FE6F090EF8
:105B70000A017025E96E000E7121EA6E196AF2BE03
:105B8000198EF29E8F6BEFCF8EFA010E916F906B94
:105B900000010AEC0EF019BEF28E0A0E0A01702501
:105BA000E96E000E7121EA6EEF5001240801FF6FCB
:105BB000000E0A0102200901006F0B0E0A01702578
:105BC000E96E000E7121EA6E196AF2BE198EF29E1C
:105BD0008F6BEFCF8EFA010E916F906B00010AEC84
:105BE0000EF019BEF28E0C0E0A017025E96E000E41
:105BF0007121EA6EEF5001240901016F000E0A01C4
:105C000002200901026F0D0E0A017025E96E000ED7
:105C10007121EA6EEFCF03F90E0E7025E96E000ECA
:105C20007121EA6EEFCF04F90F0E7025E96E000EB8
:105C30007121EA6E196AF2BE198EF29E8F6BEFCF58
:105C40008EFA010E916F906B00010AEC0EF019BEF6
:105C5000F28E100E0A017025E96E000E7121EA6EB7
:105C6000EF5001240901056F000E0A01022009010D
:105C7000066F110E0A017025E96E000E7121EA6EA1
:105C8000EFCF07F9120E7025E96E000E7121EA6E52
:105C9000EACF74FAE9CF73FA7E6B7D6B7C6BEFCF42
:105CA0007BFA010E826F816B806B7F6B0001AFEC22
:105CB00017F074CAEAFF73CAE9FF03C075FA02C09D
:105CC00074FA01C073FA00C072FA130E0A0170254B
:105CD000E96E000E7121EA6EEACF78FAE9CF77FA21
:105CE0007E6B7D6B7C6BEFCF7BFA826B010E816FDD
:105CF000806B7F6B0001AFEC17F078CAEAFF77CAC0
:105D0000E9FF00500A0172270150732302507423E7
:105D100003507523140E7025E96E000E7121EA6E92
:105D2000196AF2BE198EF29E8F6BEFCF8EFA010EBA
:105D3000916F906B00010AEC0EF019BEF28E0150CB
:105D40000A01722702507323000E74237523150E67
:105D50007025E96E000E7121EA6EEF50722509017F
:105D6000086F000E0A0173210901096F000E0A0174
:105D7000742109010A6F000E0A01752109010B6FD8
:105D8000160E0A017025E96E000E7121EA6EEFCF42
:105D90000CF9080E756FFD0E746F0001AFEC16F074
:105DA000090E0A01796F190E786F0001C6EC1FF019
:105DB00054EF34F0020E0901106F0F6B0F510908F8
:105DC00041E3D8900F35036ABD0F016E070E032221
:105DD00001C072FA03C073FA050E090110250A0109
:105DE0007025E96E000E7121EA6E196AF2BE198EF5
:105DF000F29E8F6BEFCF8EFA010E916F906B0001C8
:105E00000AEC0EF019BEF28E01C074FA010E0901FF
:105E10001025050F0A017025E96E000E7121EA6E4A
:105E2000EF500124016E000E022073CAEAFF72CA0D
:105E3000E9FFEC6EED5201C0EFFF020E09011027E1
:105E40000F2BBCD70F6B0F510908D8A0C2D0050E7D
:105E500010250A017025E96E000E7121EA6EEACF65
:105E600074FAE9CF73FA7E6B7D6B7C6BEFCF7BFAB4
:105E7000010E826F816B806B7F6B0001AFEC17F0BE
:105E800074CAEAFF73CAE9FF03C075FA02C074FA64
:105E900001C073FA00C072FA010E09011025050F46
:105EA0000A017025E96E000E7121EA6EEACF78FAD8
:105EB000E9CF77FA7E6B7D6B7C6BEFCF7BFA826BE1
:105EC000010E816F806B7F6B0001AFEC17F078CA19
:105ED000EAFF77CAE9FF00500A01722701507323D5
:105EE0000250742303507523020E09011025050F7B
:105EF0000A017025E96E000E7121EA6E196AF2BE80
:105F0000198EF29E8F6BEFCF8EFA010E916F906B10
:105F100000010AEC0EF019BEF28E02C003F001502F
:105F20000A01722702507323000E74237523030E97
:105F300009011025050F0A017025E96E000E712177
:105F4000EA6EEF507225006E000E7321016E000E96
:105F50007421026E000E7521E8CF18F902C017F9FE
:105F600001C016F900C015F9090118517F0812E3A4
:105F70000F51040DF350036AD10FE96E070E032091
:105F8000EA6E15C9EFFF16C9ECFF17C9ECFF18C977
:105F9000ECFF1BD00F51040DF350036AD10FE96ED3
:105FA000070E0320EA6E15C900F016C901F0026A57
:105FB000036A01AE02D00206030600C0EFFF01C073
:105FC000ECFF02C0ECFF03C0ECFF040E10270F2B08
:105FD0003AD70F6B0F510908D8A0C2D0050E102573
:105FE0000A017025E96E000E7121EA6EEACF74FA9B
:105FF000E9CF73FA7E6B7D6B7C6BEFCF7BFA010E82
:10600000826F816B806B7F6B0001AFEC17F074CAFD
:10601000EAFF73CAE9FF03C075FA02C074FA01C04F
:1060200073FA00C072FA010E09011025050F0A016A
:106030007025E96E000E7121EA6EEACF78FAE9CF99
:1060400077FA7E6B7D6B7C6BEFCF7BFA826B010EF8
:10605000816F806B7F6B0001AFEC17F078CAEAFFAD
:1060600077CAE9FF00500A017227015073230250DA
:10607000742303507523020E09011025050F0A0130
:106080007025E96E000E7121EA6E196AF2BE198E52
:10609000F29E8F6BEFCF8EFA010E916F906B000125
:1060A0000AEC0EF019BEF28E02C003F001500A0194
:1060B000722702507323000E74237523030E090107
:1060C0001025050F0A017025E96E000E7121EA6E98
:1060D000EF507225006E000E7321016E000E7421C8
:1060E000026E000E7521E8CF18F902C017F901C041
:1060F00016F900C015F9090118517F0812E30F5174
:10610000040DF350036AF90FE96E070E0320EA6EDF
:1061100015C9EFFF16C9ECFF17C9ECFF18C9ECFF52
:106120001BD00F51040DF350036AF90FE96E070EEF
:106130000320EA6E15C900F016C901F0026A036A6D
:1061400001AE02D00206030600C0EFFF01C0ECFF63
:1061500002C0ECFF03C0ECFF040E10270F2B3AD750
:106160000F6B0F51090841E3D8900F35036A210FD7
:10617000016E080E032201C072FA03C073FA050E05
:10618000090110250A017025E96E000E7121EA6EE1
:10619000196AF2BE198EF29E8F6BEFCF8EFA010E46
:1061A000916F906B00010AEC0EF019BEF28E01C0E7
:1061B00074FA010E09011025050F0A017025E96E18
:1061C000000E7121EA6EEF500124016E000E0220D4
:1061D00073CAEAFF72CAE9FFEC6EED5201C0EFFF2D
:1061E000020E090110270F2BBCD70F6B0F510908A6
:1061F000D8A0C2D0050E10250A017025E96E000E48
:106200007121EA6EEACF74FAE9CF73FA7E6B7D6B87
:106210007C6BEFCF7BFA010E826F816B806B7F6BA3
:106220000001AFEC17F074CAEAFF73CAE9FF03C0BC
:1062300075FA02C074FA01C073FA00C072FA010E56
:1062400009011025050F0A017025E96E000E712164
:10625000EA6EEACF78FAE9CF77FA7E6B7D6B7C6BDA
:10626000EFCF7BFA826B010E816F806B7F6B000139
:10627000AFEC17F078CAEAFF77CAE9FF00500A01CD
:106280007227015073230250742303507523020EAA
:1062900009011025050F0A017025E96E000E712114
:1062A000EA6E196AF2BE198EF29E8F6BEFCF8EFAEC
:1062B000010E916F906B00010AEC0EF019BEF28E88
:1062C00002C003F001500A01722702507323000E2E
:1062D00074237523030E09011025050F0A0170258B
:1062E000E96E000E7121EA6EEF507225006E000E0D
:1062F0007321016E000E7421026E000E7521E8CF2D
:1063000018F902C017F901C016F900C015F9090102
:1063100018517F0812E30F51040DF350036A350F33
:10632000E96E080E0320EA6E15C9EFFF16C9ECFFEF
:1063300017C9ECFF18C9ECFF1BD00F51040DF35027
:10634000036A350FE96E080E0320EA6E15C900F0E6
:1063500016C901F0026A036A01AE02D00206030602
:1063600000C0EFFF01C0ECFF02C0ECFF03C0ECFF78
:10637000040E10270F2B3AD70F6B0F510908D8A026
:10638000C2D0050E10250A017025E96E000E71219C
:10639000EA6EEACF74FAE9CF73FA7E6B7D6B7C6BA1
:1063A000EFCF7BFA010E826F816B806B7F6B0001F8
:1063B000AFEC17F074CAEAFF73CAE9FF03C075FABD
:1063C00002C074FA01C073FA00C072FA010E09012A
:1063D0001025050F0A017025E96E000E7121EA6E85
:1063E000EACF78FAE9CF77FA7E6B7D6B7C6BEFCFE3
:1063F0007BFA826B010E816F806B7F6B0001AFECCB
:1064000017F078CAEAFF77CAE9FF00500A0172273D
:10641000015073230250742303507523020E0901A7
:106420001025050F0A017025E96E000E7121EA6E34
:10643000196AF2BE198EF29E8F6BEFCF8EFA010EA3
:10644000916F906B00010AEC0EF019BEF28E02C043
:1064500003F001500A01722702507323000E7423C7
:106460007523030E09011025050F0A017025E96E39
:10647000000E7121EA6EEF507225006E000E73213E
:10648000016E000E7421026E000E7521E8CF18F91E
:1064900002C017F901C016F900C015F90901185119
:1064A0007F0812E30F51040DF350036A5D0FE96E8C
:1064B000080E0320EA6E15C9EFFF16C9ECFF17C9D5
:1064C000ECFF18C9ECFF1BD00F51040DF350036A09
:1064D0005D0FE96E080E0320EA6E15C900F016C9BB
:1064E00001F0026A036A01AE02D00206030600C090
:1064F000EFFF01C0ECFF02C0ECFF03C0ECFF040E95
:1065000010270F2B3AD7070E0A01756FBD0E746F57
:1065100000015AEC14F0090E0A01796F190E786F18
:106520000001C6EC1FF0C0D1020E0901106F0F6B05
:106530000F51090841E3D8900F35036A850F016EAA
:10654000080E032201C072FA03C073FA050E090196
:1065500010250A017025E96E000E7121EA6E196A94
:10656000F2BE198EF29E8F6BEFCF8EFA010E916FF5
:10657000906B00010AEC0EF019BEF28E01C074FAA5
:10658000010E09011025050F0A017025E96E000EA4
:106590007121EA6EEF500124016E000E022073CAD1
:1065A000EAFF72CAE9FFEC6EED5201C0EFFF020E86
:1065B000090110270F2BBCD70F6B0F51090841E3BE
:1065C000D8900F35036A990F016E080E032201C09F
:1065D00072FA03C073FA050E090110250A0170252D
:1065E000E96E000E7121EA6E196AF2BE198EF29EF2
:1065F0008F6BEFCF8EFA010E916F906B00010AEC5A
:106600000EF019BEF28E01C074FA010E09011025B8
:10661000050F0A017025E96E000E7121EA6EEF5038
:106620000124016E000E022073CAEAFF72CAE9FF5C
:10663000EC6EED5201C0EFFF020E090110270F2B87
:10664000BCD70F6B0F51090841E3D8900F35036A8F
:10665000AD0F016E080E032201C072FA03C073FA77
:10666000050E090110250A017025E96E000E712141
:10667000EA6E196AF2BE198EF29E8F6BEFCF8EFA18
:10668000010E916F906B00010AEC0EF019BEF28EB4
:1066900001C074FA010E09011025050F0A017025C9
:1066A000E96E000E7121EA6EEF500124016E000EBA
:1066B000022073CAEAFF72CAE9FFEC6EED5201C014
:1066C000EFFF020E090110270F2BBCD70F6B0F51E4
:1066D000090841E3D8900F35036AC10F016E080E17
:1066E000032201C072FA03C073FA050E09011025D6
:1066F0000A017025E96E000E7121EA6E196AF2BE78
:10670000198EF29E8F6BEFCF8EFA010E916F906B08
:1067100000010AEC0EF019BEF28E01C074FA010EEF
:1067200009011025050F0A017025E96E000E71217F
:10673000EA6EEF500124016E000E022073CAEAFFD8
:1067400072CAE9FFEC6EED5201C0EFFF020E0901C3
:1067500010270F2BBCD70F6B0F51090841E3D890BE
:106760000F35036AD50F016E080E032201C072FABD
:1067700003C073FA050E090110250A017025E96EA0
:10678000000E7121EA6E196AF2BE198EF29E8F6BAD
:10679000EFCF8EFA010E916F906B00010AEC0EF0B4
:1067A00019BEF28E01C074FA010E09011025050F01
:1067B0000A017025E96E000E7121EA6EEF50012486
:1067C000016E000E022073CAEAFF72CAE9FFEC6E86
:1067D000ED5201C0EFFF020E090110270F2BBCD7AD
:1067E0000F6B0F51090841E3D8900F35036AE90F89
:1067F000016E080E032201C072FA03C073FA050E7F
:10680000090110250A017025E96E000E7121EA6E5A
:10681000196AF2BE198EF29E8F6BEFCF8EFA010EBF
:10682000916F906B00010AEC0EF019BEF28E01C060
:1068300074FA010E09011025050F0A017025E96E91
:10684000000E7121EA6EEF500124016E000E02204D
:1068500073CAEAFF72CAE9FFEC6EED5201C0EFFFA6
:10686000020E090110270F2BBCD7080E0A01756F05
:10687000850E746F000198EC15F0090E0A01796F0E
:10688000190E786F0001C6EC1FF00ED00A01030E3E
:106890007025E96E000E7121EA6EEFCF73FA2E0EAD
:1068A000746F00017FEC24F07AEF36F06DCA75FA50
:1068B0006ECA76FA210E0A01776F00017AEC21F098
:1068C0008BEF36F0010E09011A6F710E1D6F6ECA43
:1068D0001EF9090E0A01796F190E786F0001C6ECD6
:1068E0001FF0660E396E0901E96B00011200660E99
:1068F000396E0A016D51000A000117E0010A23E018
:10690000030A30E0060A31E0010A3EE0020A4BE0E9
:10691000010AD8B466D0AC0AD8B482D0FF0AD8B481
:106920008ED0330AD8B49AD099D0362C01D009D061
:10693000E9C973FA310E0A01746F00017FEC24F08B
:1069400095D0396A93D0362C01D009D0E9C973FAB1
:10695000310E0A01746F00017FEC24F087D0010E24
:10696000396E84D0020E396E81D03650020809E0AB
:10697000E9C973FA310E0A01746F00017FEC24F04B
:1069800075D0040E396E72D03650020809E0E9C99C
:1069900073FA310E0A01746F00017FEC24F066D0A7
:1069A000050E396E63D0315212E0315006080FE007
:1069B000312C01D00CD0E9C973FA310E0A01746F81
:1069C00000018FEC21F00901E96B09D00001020EF2
:1069D000346E070E0A016E6F000174DF09010001B9
:1069E00045D0315212E0315006080FE0312C01D071
:1069F0000CD0E9C973FA310E0A01746F00018FECF3
:106A000021F00901E96B0AD00001010E346E060E77
:106A10000A016E6F000156DF0901E96B000126D003
:106A20003750610809E0E9C973FA310E0A01746F41
:106A300000017FEC24F01AD0AA0E396E17D037501F
:106A4000610809E0E9C973FA310E0A01746F0001A7
:106A50007FEC24F00BD0550E396E08D0E9C973FADB
:106A6000310E0A01746F00017FEC24F09FEF36F0C5
:106A7000315003080BE03150040808E03150090898
:106A800005E031500A0802E0312C03D0010E016EFE
:106A900002D0000E016E120056EF1FF009010D53D7
:106AA00001E108D200019FEF1FF002C06BFA01C0A4
:106AB0006AFACF0E0A016A25016E000E6B21036E81
:106AC00001C0E9FFEA6EEFB017D0030E6A25E96E48
:106AD000000E6B21EA6EEFCF73FA040E6A25E96EA1
:106AE000000E6B21EA6EEFCF74FA00018FEC21F0FB
:106AF00009010D07DFD10A0138AE08D06BCA6DFA63
:106B00006ACA6CFA000199EF21F00A01030E6A25A6
:106B1000E96E000E6B21EA6EEFCF1BF9020E6A25BB
:106B2000E96E000E6B21EA6EEFCF1CF9020E6A25AA
:106B3000E96E000E6B21EA6E3550EF5C0AE0020E42
:106B40006A25E96E000E6B21EA6EEF50FE08D8A4AC
:106B5000AFD1040E6A25E96E000E6B21EA6EEF508C
:106B6000810A000114E0030A27E0920A28E0010AE2
:106B70002DE02C0A41E01F0A42E00C0AD8B476D07E
:106B80001F0AD8B4B8D0230AD8B4DAD07CD1050E05
:106B90000A016A25E96E000E6B21EA6EEFCF6EFAEC
:106BA000030E6A25E96E000E6B21EA6EEFCF6FFAD5
:106BB00000013EEF24F07BD16EEF24F078D16BCA58
:106BC0006DFA6ACA6CFA89EF24F071D13750AA08BD
:106BD00002E037520FE1030E0A016A25E96E000E4A
:106BE0006B21EA6EEFCF6EFA110E6F6F000113EC9E
:106BF00025F001D0FF005BD11DEF25F058D1030E29
:106C00000A016A25E96E000E6B21EA6EEFCF6CFA7D
:106C1000050E6A25E96E000E6B21EA6E196AF2BE56
:106C2000198EF29E8F6BEFCF8EFA010E916F906BE3
:106C300000010AEC0EF019BEF28E02C06EFA01C01D
:106C40006DFA060E0A016A25E96E000E6B21EA6EE6
:106C5000EF506D27000E6E236CCA6FFA6ECA71FA80
:106C60006DCA70FA000139EF25F021D13750AA081A
:106C700002E037520FE1030E0A016A25E96E000EA9
:106C80006B21EA6EEFCF6EFA2E0E6F6F000113ECE0
:106C900025F030D0050E0A016A25E96E000E6B2141
:106CA000EA6E196AF2BE198EF29E8F6BEFCF8EFAE2
:106CB000010E916F906B00010AEC0EF019BEF28E7E
:106CC00002C06DFA01C06CFA060E0A016A25E96E6F
:106CD000000E6B21EA6EEF506C27000E6D236DCA1B
:106CE0006FFA6CCA6EFA6BCA71FA6ACA70FA00015E
:106CF000A8EF2BF0DCD0395066080EE0030E0A0135
:106D00006A25E96E000E6B21EA6EEFCF6DFA310E47
:106D10006E6F0001CBD513D0030E0A016A25E96E10
:106D2000000E6B21EA6EEFCFE9F9050E6A25E96ED8
:106D3000000E6B21EA6EEFCF6DFA0001D8D5B7D007
:106D40003750AA0802E037520FE1030E0A016A2504
:106D5000E96E000E6B21EA6EEFCF6EFA120E6F6FC6
:106D6000000113EC25F08ED083DE012C0FD0030E32
:106D70000A016A25E96E000E6B21EA6EEFCF73FA05
:106D8000120E746F00018FEC21F07CD0306A2F6AF4
:106D90002E6A2D6A0A01736B1A0E726F00017EEC67
:106DA0002BF0362C16D0010E0A01726F736F0001A2
:106DB00064EC15F0010E0A01726F736F00017BEC39
:106DC00016F0010E0A01726F736F000141EC17F0AB
:106DD0004DD03650020819E1010E0A01726F020E01
:106DE000736F000164EC15F0010E0A01726F020E60
:106DF000736F00017BEC16F0010E0A01726F020E38
:106E0000736F000141EC17F031D02C50410816E1AE
:106E1000010E0A01726F736F000164EC15F0010E30
:106E20000A01726F736F00017BEC16F0010E0A010C
:106E3000726F736F000141EC17F018D0010E0A0158
:106E4000726F020E736F000164EC15F0010E0A01FF
:106E5000726F020E736F00017BEC16F0010E0A01D7
:106E6000726F020E736F000141EC17F009011A6B8B
:106E7000520E1D6F090E0A01796F190E786F00010D
:106E8000C6EC1FF014D0030E0A016A25E96E000E4D
:106E90006B21EA6EEFCF6EFA040E6A25E96E000EE2
:106EA0006B21EA6EEFCF6FFA000113EC25F00A01B7
:106EB00009010D070001BAEF54F0355201E173D119
:106EC000010E0701A86F0501FF5303E00701A86B3E
:106ED00005010701A82D11D003018AB102D00701D5
:106EE0000CD004015AB102D0070107D005012AB124
:106EF00002D0070102D00701A86BA82D54D1196A4E
:106F0000F2BE198EF29E0A018F6BFAC58EFA916B52
:106F1000D00E906F00010AEC0EF019BEF28E02C086
:106F20006BFA01C06AFA8A0E0A010124016E030E8F
:106F30000220036E01C0E9FFEA6EEFB003D0FAC58C
:106F4000FBF548D0010E0501FA250A016B6F7C6F35
:106F5000030E7D6F0001D0EC1DF0196AF2BE198E90
:106F6000F29E0A018F6B00C08EFA916BD00E906F6B
:106F700000010AEC0EF019BEF28E02C06BFA01C0DD
:106F80006AFA8A0E0A010124016E030E0220036EC2
:106F900001C0E9FFEA6EEFB00FD0010E0501FA253E
:106FA0000A016B6F7C6F030E7D6F0001D0EC1DF04A
:106FB00000C0FBF50ED00A01020E0501FA250A01F8
:106FC0006B6F7C6F030E7D6F0001D0EC1DF000C075
:106FD000FBF50A01010E0501FF6F196AF2BE198E59
