S3450800200048200020ed200008556b0008d56f0008df6f0008e96f0008f36f000800000000000000000000000000000000156c0008576b000800000000156c0008476b00082b
S345080020403d6b00083d6b00083d6b00083d6b00083d6b00083d6b00083d6b00083d6b00083d6b00083d6b00083d6b00083d6b00083d6b00083d6b00083d6b00083d6b000852
S345080020803d6b00083d6b00083d6b0008f73700087f3700083d6b00083d6b00083d6b00083d6b00083d6b00083d6b00083d6b00083d6b00083d6b0008fd5400083d6b0008d5
S345080020c03d6b00083d6b00083d6b00083d6b00083d6b00083d6b00088f5400083d6b00083d6b00083d6b00083d6b00080249d1f800d005f05fb8000000200008fffffffff3
S34508002140ffffffffffffffffffffffffffffffffcc325aa500200008f3710008783953a13030303030313034004e455747454e5f52454147454e545f464c55494400312e4b
S3450800218030302e30302e323430310000ffffffffffffffffffffffffffffffffffffffffffffffffffffffffffffffffffffffffffffffffffffffffffffffffffffffff62
S3450800220010b500202ce03c21dff8e02a03009bb24b43134400249c7603009bb24b43134400245c6203009bb24b43134400249c6203009bb24b43134400245c6003009bb223
S345080022404b4313440400a4b2640883f8214003009bb201fb03f11144002281f82020401c010089b20229cedb0020dff8841a088001f0bcf810bd2de9f24f040015001e00d0
S3450800228001f07afa0700e4b25fea4408d0e04046c0b209fb00f05044406828444146c9b209fb01f14af801006ee05ff03c09dff83caa4046c0b209fb00f050440021017742
S345080022c04046c0b209fb00f050440021c1764046c0b209fb00f05044002101764046c0b209fb00f050443900c9b211f01f013a00d2b2120212f4005211434246d2b292016e
S3450800230012f0400211434246d2b2d20112f4407211434246d2b2920012f0200211434246d2b2d20112f4c052114311f5c07181814ff0ff0b4046c0b209fb00f0504480f831
S3450800234019b04046c0b209fb00f05044a02181764046c0b209fb00f05044009981604046c0b209fb00f050443100490841604046c0b22100c9b2b0eb410f88d14046c0b2e1
S3450800238009fb00f04af800504046c0b209fb00f05044002141624046c0b209fb00f05044042181624046c0b209fb00f050440021c1624046c0b209fb00f0504400210163f4
S345080023c04046c0b209fb00f05044002141634046c0b209fb00f05044002141774046c0b209fb00f00aeb0001dff8002c4346dbb21c20434302eb030088630022b6a140469a
S34508002400c0b209fb00f05044806b01f0c5fa4046c0b209fb00f050440021c1774046c0b209fb00f90aeb090080f81eb018f101084046c0b22100c9b24900891c8842fff694
S3450800244034af0022a5a1dff8a83b2500edb21c20454303eb050001f09ffa0122a0a1dff8940b01f099fadff8900b182100222300dbb24b43c2542200d2b24a430244002329
S345080024805370e4b24c432044ff218170bde8f18f80b58a6a0b689854521c4868824200d30022486a824205d100220021042000f0a9fb03e08a62486b401c486301bd10b4db
S345080024c0ca6a002308e00c68a054000a521c4c68a24200d300225b1c042bf4d310bc704710b504002100606bfff7e9ff00206063a06ae062a06a002100e0491c04290dd2f4
S34508002500401c6268904200d30020626a9042f4d100220021042000f075fb00e0a06210bd426a016b8a1841688a4201d34168521a426200210163704780b50200100080b258
S34508002540c01110f00f000300dbb2db1e082b26d20300dbb2db1e92b2d21012f00c0212eb6302c00706d5d2b20021092000f04afbff202ee000200870100702d5083a0120dd
S3450800258008701000c0b2002806d0d2b20021052000f038fbff201ce01000c0b219e00100c9b20c2901d1ff2013e0c0b201280ad14ff4fa7001f024fa00220021092000f06f
S345080025c021fbff2005e000220021052000f01afbff2002bd806800e0083002780b00dbb29a4202d00278002af6d1704738b584b001a801f02ff810f1010f67d0bdf804009d
S34508002600002813d19df8060002280ed19df8080081280ad101f0b0f89df80910c0b2814203d100f023ff01f03dfa52e06946bdf80400fff781ffdff8b4269df8003013ebad
S3450800264040033c214b4302eb0304ff2841d09df8061000293dd09df8081011f00f01627e914236d09df8081011f00f016176217f00290ad19df80810090606d40200d2b245
S345080026800021012000f0befa23e0012508e0210001a82a00d2b210440079fff7f9fe6d1c28009df80610c0b28842f0d39df80800400608d5002020772000fff711ffa06bdc
S345080026c001f0fafa05e01020207702e0012001f097f905b030bd00006161000071630000646c730038b50400dff800262000c0b2c9b211eb40013c20414302eb01055ff0e2
S34508002700ff31a86b01f00efba87fff2811d0dff8a01c2200d2b21820424301eb020001784078814205d02100c9b2280000f002f927e0280000f09cf9280000f082f968779d
S34508002740697f2800fff746ff02005088296b884204d050884ff6ff71884205d129002000c0b25268904706e02300dbb200221c21280000f0b1f92800fff7d2fe280000f0be
S345080027806df831bd10b5002410e0dff8281c220092b23c20424301eb0200807e002804d100220021112000f02dfa641c200080b20028ead000f038fe01f04efb00f048ffbe
S345080027c000281dd1dff8ec4b2100fe20fff760fe00f0d2ff002809d1002200211a2000f011fa21000020fff753fe03e021000120fff74efe2000fff773fea06b01f05cfa11
S34508002800fff7f4fefce738b504000d0029002000c0b200f0b0f829002000000ac0b200f0aaf829002000000cc0b200f0a4f82900240e2000c0b200f09ef831bd38b5040072
S345080028400d0029002000c0b200f095f82900a4b2240a2000c0b200f08ef831bd10b50400e07e002809d11020e0760320a073607f60740020a07480202074207c50f0400046
S345080028802074217c207e41182174207e401c10f00f002076e07f00280fd114f10c0000f079fe5ff0ff3100b288420ad194f8212000210a2000f0a6f903e014f10c0000f06e
S345080028c046fe0020a0730020e076a020a07610bd38b5dff824470500edb218235d4304eb05039c78ff2c24d05c781c442171597803eb81018a605978491c11f003010a002c
S345080029001c78d2b2a24206d10200d2b20021262000f078f90de05970dff8981ac0b29a7812eb40023c20424301eb0200806b01f0c3f931bd38b50400dff8742ac9b21820f8
S34508002940414302eb0105fb206077210028782844007900f010f82100287805eb80008068fff751ff2878401c10f0030028702000fff774ff31bd38b504000d00e87e002849
S3450800298009d10320a873687f68740020a8741020e87680202874a87b082823db297c287e41182974287e401c10f00f002876e87f00280fd115f10c0000f0ecfd5ff0ff310e
S345080029c000b288420ad195f8212000210a2000f019f903e015f10c0000f0b9fd0120a87300202874a87b28440474a87b401ca87331bd006b704738b50400200000f021f8f9
S34508002a000500200000f01df815eb0025200000f018f815eb0045200000f013f815eb0065280032bd38b50400200000f00af80500adb2200000f005f815eb0025280080b24a
S34508002a4032bd0100086b002801d100200fe0086b401e086308684a6a805c4a6a521c4a624a6a4b689a4201d300224a62c0b2704770b50400616a206b41186162606a616896
S34508002a80884203d3616a6068091a6162606ae16a884201d101201ee0042020630026002506e0360a2000fff7ccff16eb00666d1c2800c0b20428f4db6068b04209d20020ec
S34508002ac0e06a6062012200211b2000f09bf8012001e02663002070bdfeb507000d0014001e0000f049fe8030adf8000008208df80200f87e002835d10320b873787f7874d9
S34508002b003c217a4a3000c0b2484310443300dbb24b43134493f820305b1c80f820303000c0b24843104490f8200000280cd13000c0b2484310443300dbb24b43134493f847
S34508002b4020305b1c80f820303000c0b201fb00f102eb010090f82000b8741020f8768020387405e03200d2b20021032000f04af828008df80400adb22d0a8df80550b6f1a4
S34508002b8080008df806005949f6b23c20464301eb060090f820008df80700002c0dd004200100c9b2082915da21786a460300dbb21a441171641c401cf2e7042006e0002145
S34508002bc06a460300dbb21a441171401c0100c9b20829f4db684600f0ddfc10f1010f10d100f0a8fc684600f0d5fc00208df8040002208df8050080208df80600684600f045
S34508002c00c9fcf7bd7fb506000c00150000f0b4fd8030adf8000008208df8020096f4004630008df80400b6b2360a8df80560b5f180008df80600002c0dd003200100c9b299
S34508002c40082915da21786a460300dbb21a441171641c401cf2e7032006e000216a460300dbb21a441171401c0100c9b20829f4db012001f017f91e4c2188082919da26888f
S34508002c802188491c218001f00df900200100c9b2082910da310089b204ebc1010200d2b211446a460300dbb21a4412798a70401cece701f0f7f8684600f06cfc10f1010f68
S34508002cc011d100f037fc684600f064fc02208df8040000208df80500b5f180008df80600684600f057fc7fbd000000003415002060160020c17770472de9f04704000d0044
S34508002d0000202800fff775fe062808d22300dbb200221c212800fff7dffe002064e12800fff78ffe82462800fff765fe81462800fff787fe80465046c0b2b0280bd05046e8
S34508002d40c0b2b32807d05046c0b2e12803d05046c0b2c02805d1002601212800fff7caff00e046462800fff744fef6b2b04208d02300dbb200221c212800fff7adfe002012
S34508002d8032e19c4e4ff4fa61300000f0cbff0700380080b2002808d02300dbb200223d212800fff799fe00201ee15ffa8afabaf1000f20d0baf1a20f4bd0baf1a30f72d06e
S34508002dc0baf1b00f00f08180baf1b20f6fd0baf1b30f00f0bd80baf1b50f00f0e980baf1c00f00f08a80baf1c10f05d0baf1c20f00f0c880e1e0e7e0b9f5805f07d2404671
S34508002e00c0b210eb090041f20101884201d340271ee009f1006919f5fe29002708e02800fff70ffedff890153a00d2b288547f1c38004146c0b2c9b28842f0d3dff87825a6
S34508002e405ffa88f8414689b2484600f015ff0700bae0002708e02800fff7f3fddff858153a00d2b288547f1c38004146c0b2c9b28842f0d3dff84405814512d34046c0b2e4
S34508002e8010eb0900dff8381588420ad2dff828255ffa88f8414689b2484600f0edfe070000e00f2790e0002000f0d8fd8ce0dff80c05814501d20e2703e0484600f00afe11
S34508002ec00700002000f0cafd7ee029004046c0b2fff751fd5ff0000a08e0290099f80000fff749fd19f101091af1010a50464146c0b2c9b28842f0d366e0b9f5805f07d27f
S34508002f004046c0b210eb090041f20101884201d340271ce009f1006919f5fe2929004046c0b2fff728fd5ff0000a0ae0484600f0b7fd2900c0b2fff71efd19f101091af13d
S34508002f40010a50464146c0b2c9b28842eed33be029004046c0b2fff70efd5ff0000a0ae0484600f09dfd2900c0b2fff704fd19f101091af1010a50464146c0b2c9b288427b
S34508002f80eed321e0484600f069fd0700dff82c8405e0404600f09efd070018f50068380080b2002803d1dff81c048045f1d30be0484600f053fd070006e02300dbb20022ff
S34508002fc02e212800fff788fd380080b2002807d02300dbb20022390089b22800fff77cfd300000f069fe0020bde8f087a4160020681700204c1700208417002080b50300d9
S345080030000800dbb200220621fff766fd012002bdf8b507000c002000fff713fd06003000c0b200280dd121000220fff7a4fc21000020fff7a0fc21000d20fff79cfc00202f
S3450800304070e03000c0b2ff280dd100f031ff050021000220fff78ffc2100e86a80b2fff7edfb00205ee03000c0b2072802dadff8585319e03000c0b20c2803dadff84c5330
S34508003080f61f11e03000c0b2132803dadff840530c3e09e000253b00dbb2002208212000fff71afd00e06d1c3000c0b2002812d0761e0027280000f0f3fc0028f3d06d1cf5
S345080030c07f1c380080b23328f4db21000020fff752fc012026e000263000c0b2401900f0dffc00280ad0761c3000c0b23328f3db21000020fff73ffc012013e021003000c5
S34508003100c0b2fff738fc08e0280000f0c9fc6d1c2100c0b2fff72ffc761e3000c0b20028f2d10120f2bd38b505000c002000fff788fcc0b2002806d0022824d022d30428ab
S345080031402ad021d330e021000020fff714fc2100a0480068800b10f0010090f00100c0b2fff709fc21009c480078fff704fc2000fff774fb142000f043fc00f077f900f066
S3450800318091fc18e017e016e04ff40040934908600020914908700ee04ff400409049086001208d49087006e02b00dbb2002207212000fff791fc21000120fff7dcfb21007a
S345080031c084480068800b10f0010090f00100c0b2fff7d1fb210080480078fff7ccfb012032bd38b504000d002800fff72afcc0b200280ad0012813d17a49e4b21c2044433f
S3450800320001eb040000f058fd11e05ff0ff31754ae4b21c20444302eb040000f083fd06e02300dbb2002225212800fff755fc012032bd70b504000d002800fff702fc06008d
S345080032403000c0b2ff2809d1ff21594ae4b21820444302eb04008170a97727e03000c0b200281cd10020a87752492200d2b27820424301eb0200a84208d100214c4ae4b22a
S345080032801820444302eb040081700fe00121484ae4b21820444302eb0400817006e02300dbb2002225212800fff716fc29003000c0b2fff760fb29000020fff7a4fa01203d
S345080032c070bd2de9f0410c002000fff7bafb05002800c0b2ff2822d1434d21002888c0b2c000c0b2fff747fb002610e021003000c0b205ebc0003a00d2b210448078fff7f6
S345080033003afb7f1c3800c0b20828efdb761c3000c0b2298880b2884246d20027f2e7002000210ce00a00d2b206ebc202127912f007022b00dbb29a4200d1401c491c2a4e6e
S345080033400a00d2b2338892b29a42ebd32100c0b2c000c0b2fff70ffb002711e021003800c0b206ebc0004246d2b210448078fff702fb18f101084046c0b20828eedb7f1cd6
S345080033803800c0b2318880b288420dd23800c0b206ebc000007910f007002900c9b28842edd15ff00008e6e70120bde8f08100008417002034150020080d002000f0070807
S345080033c001000808ffff0708600100081002000860210008081001403a180020141001401010014068170020601600200848016851f46051016007490a68074802430a60ff
S345080034004ff48040054908600548064908607047181002401c1002403f40021004000140a4444444040c014080b572b61e208df8000001208df8010000208df8020001200c
S345080034408df80300684600f03efd26208df8000001208df8010000208df8020001208df80300684600f02ffd62b601bd70470ee002684368024408305feac37c44bf4b4429
S345080034805b1e52f804cb43f804cb091ff9d150f8041b0029ecd1704710b40022dff86c341878aa2800d01a221879552800d01a2258780100c9b2002903d00100c9b240295a
S345080034c000db1a220100dc78c9b2a14200d01a229978c9b2c9430300dbb2c9b28b4200d01a2292b2002a01d1c0b200e0002010bc70470022dff814140879552800d01a220c
S34508003500c879552800d01a2248790300dbb2042b00db1a228979c9b2c9430300dbb2c9b28b4200d01a2292b2002a01d1c0b200e0002070470120dff8d81308700020dff8f4
S34508003540d41308700020dff8d0130870704770b50400dff8c053dff8c06331782878081a0100c9b215290cdb14380ae0012000f047fa31782878081a0100c9b2152900db34
S345080035801438c0b20b28f1da200000f003f8c0b200b270bdf8b50500012000f083fc0400dff874231178491c0800c0b2142800db0021dff8603310781e78b0420ad1dff865
S345080035c050030078002805d1200000f06bfc5ff0ff303ce00c20dff84463177847433744d5f804c0c7f804c0177847433744d5f808c0c7f808c017784743374495f802c0fe
S3450800360087f802c02d88177800fb07f0355211701578d5f1140518784519dff8f412087800280ed000200870dff8f402016851f001010160dff8ec020068400101d500f09a
S34508003640daf8200000f02efcedb2280000b2f2bd0020704770b5b44c2178002902d05ff0ff3031e00c21b14db14a2b784b43d35a03802b784b4313449b7883702b784b4323
S3450800368013445b6843602b7801fb03f11144896881602e78761c3000c0b20b2800db0026012000f0fffb3100a24a1278c9b2914206d1012121702e7000f0f4fb002003e06d
S345080036c02e7000f0effb012070bd38b54ff40072994b1a60994c226832f0f00230322260974a136833f4c04313f5804313600022884b1a700022884b1a700122844b1a7051
S3450800370000228a4b1a7000228a4b1a700122864b1a708c4a11708c4a012313608b4b1d68ed07fbd58a4dc0b255f82000894d2860106850f004001060106840084000106068
S345080037401868c007fcd4c9b2080080b200f096f8022073490860206830f0f000b030206031bd4ff40070744908607448016831f0f00130310160704772480078704730b470
S345080037806c4a1178491c0800c0b20b2800db00211078664b1b78984207d163480078002803d120206c49086023e00c20604b6b4c2468640d157845435c53147844431c44ef
S345080037c0674d2d6815f00f05a570147844431c44644d2d686560147800fb04f01844624b1b68836020205c4b186000204e4b1870117030bc704730b44549087800280ad024
S34508003800474801684908490001604648016851f00101016030e0554a0c233e483f4c05785d4325446d68956005785d432544ad68d56005785d432544ad785560057803fb02
S3450800384005f3e35a5b055b1c13600278521c1300dbb2142b00db002213002f4c2478dbb2a34208d101230b702d490b685b085b000b60027000e0027030bc70473c490122c2
S345080038800a603c4a0123136013685b085b0013600022394b1a600022384b1a6080b2400110f17870364a10603648374a10600120364a106000200860704718b4194b1a68cb
S345080038c012f0e052b2f1e05ff8d1284ac0b2304c14eb00649460d16008205060194800782c4911eb40511160186810f0e050b0f1e05ff9d10020009002e00098401c00905f
S345080039000098b0f57a6ff8d311bc7047f0ff00203d1800203b1800203c180020080f00201464004008640040401800203e180020b01300203f180020100c0140040c014008
S3450800394004000140411800200064004004640040d07100081c6400400c640040b0650040b4650040b8650040bc6500408065004000660040046600400c6600401466004029
S34508003980406600400000e0ff446600401c660040150080000100001070b504000d0016001c220021200000f0c9fa6560a660eff3108072b60f4921600f49096800290bd059
S345080039c00d49096889690c4a126894614c61a16109490968616103e007490c606461a46106490968491c054a116080f31088002070bd00bf414d4553dc170020e017002052
S34508003a0010b513490c68002c03d012490968002901d013201ae0002801d1002016e0eff3108172b6042222630122a2630022c4f88420e06408480068401c074a106081f364
S34508003a401088200000f084fad4f8840010bd00bfbc17002000000020d4170020002807d1002071490860802070490860002016e06d4a6f494840106011686e4841406e4832
S34508003a80814209d16d48116801606d490160002066490860002002e0002010602c2070470078704780b55ff0ff3066490860664908606649086066490860fff752fe6549b7
S34508003ac065480860002000e0401c6428fcd36348086001bd54490968002901d1272016e0524902220a605e4a1060086850f0400008605c490800411e002803d05a4800682b
S34508003b00c007f7d4002901d10b2000e000207047ff2056490870564908700020554908600020704710b44f4b0122404c226001801a00531e002a03d04b4a1268d207f7d473
S34508003b40002b01d1192006e0008889b2814201d1002000e0282010bc704780b5454a1068002809d0414800784149097811eb002189b21068fff7d6ff002002bd2de9f041ee
S34508003b8004000d00002028490968002901d1272047e0384e316800290ed16108490031603349ff220a70314b1a703268a24201d10d7035e01d7033e030686108490088425e
S34508003bc014d13068a04202d12948057001e027480570264800782649097811eb002189b23068fff79fff0021316019e01f4fdff88080387898f8001011eb002189b2306850
S34508003c00fff790ffff2188f8001039706108490031603168a14202d188f8005000e03d7080b2bde8f0810000b01700201020024055af23505231c2ab7130a5ee0420024007
S34508003c40ab89efcd80e100e084e100e080e200e084e200e00ced00e00400fa050100fa051420024040420f000c2002404218002043180020ac170020f8b506000c0015003b
S34508003c80fff746ff002701e0761c7f1c3800210080b289b288420bd2380080b2295c3000fff76cff010089b20029edd080b202e0fff753ff0020f2bd80b50100eff31082a2
S34508003cc072b6c868002806d18868401c886082f31088002023e0036f984202d10023cb600be0036fcb60036fd0f874c0c3f874c0436fd0f870c0c3f870c00b695b1e0b61bb
S34508003d000021816606490968491c054b196082f310880021c0f8841000f0bef9002002bdd417002010b5eff3108272b68368002b06d08168491e816082f3108800202fe0ba
S34508003d4000292ad0174b1c68174ba366e066c368002b0ad0c3682367c3685b6f6367c3685b6f1c67c3685c6702e0c4602467646703695b1c0361062020630120a063e164bc
S34508003d800a480068401c0949086082f31088200000f0def8d4f8840002e082f310880d2010bd00bfbc170020fd6f0008d417002080b572b6244825490860fff7d2fc012044
S34508003dc000f002fa212000f039fa0028fad0002000f00bfa5ff4803000f0daf9312000f02dfa0028fad05ff480115ff4803000f0eff9012000f0f5f9392000f01ffa0028f6
S34508003e00fad04ff4404000f011fa002000f005fa4ff4806000f0f9f9002000f0eef9022000f036fa002000f03cfa102000f043fa022000f0daf940f2fd10054908605ff0d3
S34508003e4090500449086001bd0020000808ed00e0181002401c10024080b572b64ff4407000f02cf814208df8000001208df8010000208df8020001208df80300684600f05a
S34508003e8022f813208df8000001208df8010000208df8020001208df80300684600f013f862b601bdeff3108180f310880846704701480068704700bfbc1700201a49084361
S34508003ec01a4908607047002100210f23c17800291ed01649096811f4e061d1f5e061090ad1f10402cb40417811fa02f281780b401a4312010e490378ca540121027812f071
S34508003f001f0291400b4a0078401142f8201009e00121027812f01f029140074a0078401142f82010704700000000fa050ced00e000e400e000e100e080e100e010b50400de
S34508003f4010000a000100200000f0c2f9200010bd10b504004848006884420ad1e06c002807d05ff0ff31884203d014f14c0000f0e3f9eff3108072b640490968491e3f4af6
S34508003f801160a16b002964d00021a163e16a226aa2421ad0226a636a5362626a236a1362374a52f82120a24253d1354a236a42f82130344909688c424bd133490968304a89
S34508003fc052f821102f4a116043e02d4a002342f821302e4a1268012313fa01f1c94311402a4a11600021294a1268d3b2002b20d1120ad3b20831002b1bd1120ad3b2083135
S34508004000002b16d1120ad3b20831002b11d11e4920220a601b4900220a6080f310881c480068164909680843002823d100f0c6f920e0184a9a5c5118134a1160114909685f
S345080040408c4206d1104909680d4a52f821100d4a116080f31088084800680a490968884208d00b480068054909680843002801d100f0a4f910bd00bfbc170020d41700202a
S3450800408034140020c0170020d0170020cc17002000000020080e002010b50400606e002804d014f14c0000f08bf901e00020e064eff3108072b62f490968491e2d4a1160c4
S345080040c0a16b00290ad0216b012940d0216b02293dd00021a1630021216338e0216b002935d0616b002904d000216163032121632de000212163e16a1f4a52f82120002a0c
S3450800410005d0516a0c625462616222621fe01a4a42f8214024626462184a126801238b401a43164b1a60164a1268002a04d1144a1460144a11600ae0124b1b68994206d232
S34508004140104b1960d26b914201d20d490c6080f310880d4800680a490968884208d00b480068044909680843002801d100f026f910bd00bfd417002034140020cc170020bb
S34508004180c0170020d0170020bc17002000000020dff8e4100a6832f480320a600a6832f480220a60b0f5803f03d0b0f5802f05d009e0086850f48030086004e0086850f410
S345080041c0a0200860ffe77047c0b22d490860704700222a4b1a6832f47c121043084318607047c0b22749086070470021234a11688908890008431060704700211f4a1168b4
S3450800420031f0f00108431060704700211b4a116831f4e0610843106070470021174a116831f4605151eac001116070470021134a116831f4404108431060704700210021cf
S3450800424000210100c9b24909c9b2012902d10a49096806e0022902d10b49096801e00b490968c0b210f01f00c140c80701d5012000e00020c0b2704700100240041002408d
S34508004280000042426000424220100240241002400021dff83820116811f03801084310607047dff828100a6832f008020a600a68104308607047dff814100a6832f010028f
S345080042c00a600a6810430860704700000020024062f30f2262f31f42401810f0030308d0c91a1fd3db0748bf00f8012d28bf20f8022d130030b414461546103928bf20e997
S345080043003c00fad8490728bf20e90c0048bf40f8042d890028bf20f8022d48bf00f8012d30bc7047c91818bf00f8012dcb0728bf00f8012d70470000eff3108172b60268a5
S34508004340002a30d002685ff0ff339a422bd08269002a28d10268212a01d31f2201e00268521e134b1b6813eb8202124b1b689a4207d3104b1b68d21a92100f4b1b6813eb70
S3450800438082021368002b0ad01368036113685b6943614369186113685861826103e0006140618261106081f310880020704700bf201800201c1800201818002000df704781
S345080043c0eff3108172b68269002a1ed00269904209d182691268824202d18269002313600022826111e002694369536142690369136182691268824205d1026983699361e7
S345080044008269036913600022826181f31088002070470000f8b505000c002000fef7ebfa811c40f60202914209d32b00dbb200224ff47a712000fef74ffb002055e010f1c1
S34508004440020f05d1dff8141c00220a6100224a61002802d4dff8041c4861dff8005c28696969884203db28696e69861b04e0286910f500606e69861b652e00db6426210096
S345080044806869fef7c0f92100300080b2fef7d6f9dff8cc7b3878002806d021000120fef76afa0020387003e021000020fef763fa002715e0380000b2b04210dadff8a40b1b
S345080044c06969405c2100c0b2fef755fa6869401c68616869b0f5006f01db002068617f1c380000b26428e5db0020f2bd38b50c00dff8685b21002868fef785f921002879b0
S34508004500fef739fa21006879fef735fa2100a879fef731fa002032bd38b505000c002000fef78ffa0100c9b2082909db2b00dbb200224ff47a712000fef7cefa002011e08b
S34508004540dff8241b0200d2b201eb82025268c0b201eb4000808cb2fbf0f0210080b2fef76df9002032bd38b504000d002800fef768fa0100c9b2082909db2300dbb2002293
S345080045804ff47a712800fef7a7fa002009e02900dff8d42ac0b202eb4000808cfef74ef9002032bd70b506000d002800fef749fa0100c9b2082909db3300dbb200224ff4b6
S345080045c07a712800fef788fa00201be00c21dff89c2a0300dbb24b43d35c442b07d1dff8903a1c68c0b24843104440880440a4b2002c01d0002000e001202900c0b2fef724
S34508004600baf9002070bdf8b505000e003000fef718fa04002000c0b2082809db2b00dbb200224ff47a713000fef756fa002019e00c25dff8387a31002000c0b26843384491
S345080046404079fef798f931002000c0b268433844c079fef790f9e4b26c4307eb04000021c1710020f2bd38b504000d002800fef7e8f90100c9b2082909db2300dbb2002290
S345080046804ff47a712800fef727fa00200be0dff8dc29c0b20c21484310440089290080b2fef7ccf8002032bd70b506000d002800fef7c7f90100c9b2062909db3300dbb20b
S345080046c000224ff47a712800fef706fa00201be00e21dff81c2c0300dbb24b43d35c452b07d1dff8943c1c68c0b24843104440880440a4b2002c01d0002000e0012029001c
S34508004700c0b2fef738f9002070bd70b506000d002800fef796f90100c9b2062909db3300dbb200224ff47a712800fef7d5f900201be00e21dff8b82b0300dbb24b43d35cc7
S34508004740452b07d1dff8343c1c68c0b24843104480880440a4b2002c01d0012000e000202900c0b2fef707f9002070bdf8b505000e003000fef765f904002000c0b2062823
S3450800478009db2b00dbb200224ff47a713000fef7a3f9002019e00e25dff8547b31002000c0b268433844c079fef7e5f831002000c0b268433844407afef7ddf8e4b26c43a4
S345080047c007eb0400002141720020f2bd38b504000d002800fef735f90100c9b2062909db2300dbb200224ff47a712800fef774f900200be0dff8f82ac0b20e21484310442c
S345080048004089290080b2fef719f8002032bd70b505000c002000fef714f906003000c0b2102809db2b00dbb200224ff47a712000fef752f9002013e02100dff8d02b330074
S34508004840dbb20e204343d05cc0b2fef794f83000c0b200f095fd2100c0b2fef78cf8002070bd70b505000c002000fef7eaf80100c9b2022909db2b00dbb200224ff47a718d
S345080048802000fef729f900203be00025dff8802b0100c9b209011144097b44290ad1dff8d01709680300dbb21b011344db89194200d1012500260100c9b209011144097abe
S345080048c044290ad1dff8a81709680300dbb21b0113445b89194200d101262100c0b20001105cfef748f80020edb2012d00d1401cf6b2012e00d1801c2100c0b2fef73bf8d3
S34508004900002070bd80b5dff80c0b0078fef733f8002002bd70b505000c002000fef791f80100c9b2032909db2b00dbb200224ff47a712000fef7d0f8002025e00100c9b29c
S34508004940002903d1dff8d01a096800260100c9b2012904d1dff8c41a0e6816f04006c0b2022804d1dff8b40a066816f08006f6b2002e04d121000020fdf7fdff03e0210002
S345080049800120fdf7f8ff002070bd0020704710b401000020dff8c4369a68521cb2f5807f01d300249c60dc68a24204d09a60dff8703a995401e040f22c6080b210bc704741
S345080049c0f8b504000d002800fef72cf80600300080b2002803d0300080b2652809db2300dbb200224ff47a712800fef775f8002020e00020002706e02800fef722f8c0b2f4
S34508004a00fff7c5ff7f1c3900320089b292b2914203d2010089b20029eed0010089b2002907d02300dbb20022010089b22800fef753f80020f2bd2de9f04105000e00300053
S34508004a40fdf7d9ff0400dff8dc09844209d32b00dbb200224ff47a713000fef73df8002043e03000fdf7edff07003800c0b2c01f022809d32b00dbb200224ff47a71300077
S34508004a80fef72af8002030e03000fdf7daff80464046c0b2002803d04046c0b2032809db2b00dbb200224ff47a713000fef714f800201ae03000fdf7c4ff0100c9b2032902
S34508004ac009db2b00dbb200224ff47a713000fef703f8002009e0dff884150c600f7181f80580887100f063fe0020bde8f08170b505000e003000fdf7a4ff04002000c0b224
S34508004b00082809db2b00dbb200224ff47a713000fdf7e2ff002024e03000fdf783ff0100080080b2002805d0080080b242f21072904209db2b00dbb200224ff47a71300066
S34508004b40fdf7caff00200ce0dff81c052200d2b200eb420291840021e4b200eb84004160002070bd38b504000d002800fdf769ff010089b2102909db2300dbb200224ff478
S34508004b807a712800fdf7a8ff00201de0dff8841808704ff47061dff8902811600021c20701d511f50061820701d511f58061420701d511f50071000701d511f5807189b20b
S34508004bc0dff868080160002032bd38b504000d002800fdf736ff0100c9b2022909db2300dbb200224ff47a712800fdf775ff00200ee0c0b2002805d14ff48070dff83018b6
S34508004c00086004e04ff48070dff828180860002032bd2de9f04782460c00002600252000fdf70fff07003800c0b2022809db5346dbb200224ff47a712000fdf74dff002016
S34508004c409de02000fdf7eefe8046404680b2002805d0404680b242f21171884209db5346dbb200224ff47a712000fdf735ff002085e02000fdf7d6fe8146484680b26528d3
S34508004c8009db5346dbb200224ff47a712000fdf723ff002073e0dff878a73800c0b200015044007b44280ad1dff8c40300683900c9b209015144c989084200d101253800c8
S34508004cc0c0b200011af8000000284ad100203900c9b209015144c8803800c0b201f0b7fb3800c0b200015044a0f806903800c0b2000150444088dff8401708600120390072
S34508004d00c9b209010af801003800c0b200015044a0f804800220fef773fe3800c0b200015044007a442809d1d14800683900c9b2090151444989084200d101263000c0b271
S34508004d4001280ed100203900c9b209015144c8803800c0b201f07bfb0020ffb239010af801000020edb2012d00d1401cf6b2012e00d1801c2100c0b2fdf7fdfd0020bde89f
S34508004d80f08770b504000d002800fdf75afe06003000c0b2022809db2300dbb200224ff47a712800fdf798fe00200ae03000c0b201f04dfb0020dff85816f6b2320188545b
S34508004dc0002070bd70b505000e003000fdf739fe04002000c0b2062809db2b00dbb200224ff47a713000fdf777fe00202ee03000fdf727fe0100c9b2022909db2b00dbb2c2
S34508004e0000224ff47a713000fdf766fe00201de00e21dff8dc242300dbb24b43d35c452b13d1c0b2012808d1e4b24c4302eb04008088dff80816086007e0e4b24c4302ebc0
S34508004e4004008088dff8f8150860002070bdf8b506000f003800fdf7f4fd05002800c0b2062809db3300dbb200224ff47a713800fdf732fe002039e03800fdf7e2fd01003e
S34508004e80c9b2042909db3300dbb200224ff47a713800fdf721fe002028e00e22dff850342900c9b25143595c452908d1dff8c8140c682900c9b25143194449880c40e4b2a7
S34508004ec0002c01d0002100e001212c00e4b254431c44a1712900c9b25143194400248c81edb2554303eb0501c8710020f2bd70b505000e003000fdf7a4fd04002000c0b22d
S34508004f00062809db2b00dbb200224ff47a713000fdf7e2fd002021e03000fdf783fd010089b242f21172914209db2b00dbb200224ff47a713000fdf7cffd00200ee00e21a2
S34508004f40dff8ac232300dbb24b4313445881e4b24c4302eb040000218181002070bdf8b506000f003800fdf76cfd05002800c0b2082809db3300dbb200224ff47a71380037
S34508004f80fdf7aafd002037e03800fdf75afd0100c9b2042909db3300dbb200224ff47a713800fdf799fd002026e00c222f4b2900c9b25143595c442907d12d490c6829001c
S34508004fc0c9b25143194449880c40e4b2002c01d0002100e001212c00e4b254431c4421712900c9b25143194400244c81edb2554303eb050148710020f2bd70b505000e00a8
S345080050003000fdf71efd04002000c0b2082809db2b00dbb200224ff47a713000fdf75cfd00201ae03000fdf7fdfc010089b242f21172914209db2b00dbb200224ff47a710b
S345080050403000fdf749fd002007e0084ae4b20c214c4302eb04010881002070bd301700203418002004000020dc160020ac1500200814014070b505000c002000fdf7e1fcd7
S3450800508006003000c0b2102809db2b00dbb200224ff47a712000fdf71ffd002021e02000fdf7c0fc010089b2002905d0010089b242f21172914209db2b00dbb200224ff4f4
S345080050c07a712000fdf708fd00200ae0010089b23000c0b200f01ff82100c0b2fdf74bfc002070bd38b504000d002800fdf7a9fc0100c9b2102909db2300dbb200224ff427
S345080051007a712800fdf7e8fc002003e0c0b200f0f1f8002032bd2de9f84306000f005ff00e08dff8e8923000c0b208fb00f019f90000002840f0ce803000c0b208fb00f01b
S345080051404844002141803000c0b208fb00f04844007a452804d032d3472821d010d32ee03000c0b208fb00f0484481883000c0b208fb00f04844c0880143b14801601ee052
S345080051803000c0b208fb00f0484481883000c0b208fb00f04844c0880143aa4801600ee03000c0b208fb00f0484481883000c0b208fb00f04844c0880143a3480160300076
S345080051c0c0b208fb00f04844007b412804d020d3432815d00ad31ce09c4804683000c0b208fb00f048444089044012e0984804683000c0b208fb00f048444089044008e00a
S34508005200864804683000c0b208fb00f04844408904403000c0b208fb00f04844007a452804d01dd3472813d009d319e03000c0b208fb00f0484480888049086010e030008b
S34508005240c0b208fb00f0484480888249086007e03000c0b208fb00f0484480887e4908600a20fef7cdfb3000c0b208fb00f04844007b412804d020d3432815d00ad31ce0d9
S34508005280724805683000c0b208fb00f048444089054012e06e4805683000c0b208fb00f048444089054008e05c4805683000c0b208fb00f04844408905403000c0b208fb79
S345080052c000f0484447800120f6b208fb06f609f8060001e0002401250020a4b2002c00d00120adb2002d00d1801cc0b2bde8f2830c16002010b40e21444a0300dbb24b436a
S34508005300134400245c8000230400e4b24c4313550300dbb24b4313441b7a452b04d029d3472b1bd00dd325e00300dbb24b4313449b88c0b248431044c08803434048036066
S3450800534018e00300dbb24b4313449b88c0b248431044c08803433b4803600be00300dbb24b4313449b88c0b248431044c08803433548036010bc7047081801400c1801403f
S3450800538010b400210e23214c0200d2b25a432244127b412a04d01dd3432a13d009d319e02a4909680200d2b25a4322445289114010e0274909680200d2b25a432244528924
S345080053c0114007e0154909680200d2b25a43224452891140c0b2584320560a0092b2904200d0012189b2002901d0012000e0002010bc704780b5002000904ff49673174ae3
S3450800540017490020fcf737ff01bd0000f80f002010170020391800200c10014008100140080c00200184030014140140101401401410014010100140100801401018014050
S3450800544014180140141c01401420014008080140080c0140101c014010200140dc0a00204c67000810b504002100c9b20020fdf739f9f9e706214843401e0021814205d230
S34508005480b1f1805f00d1491c491cf7e7704730b4dff8e417088810f00f0f04d040f22d60dff8d8271080088810f0300f1cd0dff8d0070288dff8cc4723695b1cb3f5006fd9
S345080054c000db00236069834204d140f22c60dff8ac572880dff8a4070088002807d1dff8a807c254236102e0dff8940700880a884ff6fd7002400a8030bc70472de9f041fd
S34508005500dff888170a884ff6fe7002400a80dff880576888dff87c1708600220fff7aaffdff874673188dff8747797f9000005eb800297f9000005eb8000436897f900003b
S3450800554005eb8000406897f900c005eb4c0cbcf824c0b0fbfcf01b1a536097f9000005eb800097f9002005eb8202526889b2891841605ff000082be0dff824174046c0b28f
S34508005580000108448088002820d04046c0b2000108448088401e4246d2b212010a4490804046c0b200010844808800280ed14046c0b20001085c022808da02204246d2b25d
S345080055c0120188544046c0b200f012ff18f101084046c0b20228cfdb00233ce01800c0b248431044b0f804c01800c0b248431044c08850ea0c0cdff8ac06c0f800c01800a7
S34508005600c0b248431044c088dff89cc6ccf8000019e01800c0b248431044b0f804c01800c0b248431044c08850ea0c0cdff87c06c0f800c01800c0b248431044c088dff89c
S3450800564070c6ccf8000002209c465ffa8cfc01fb0cf150545b1c1800c0b210284fda0e21dff850261800c0b248431044b0f902000128efdb1800c0b2484310449c465ffa17
S345080056808cfc01fb0cfc9444bcf802c0bcf1010ca0f802c01800c0b248431044b0f902000028d7d11800c0b2484310560228d1da1800c0b248431044007a452804d0c2d301
S345080056c047288bd0a5d3bee71800c0b248431044b0f804c01800c0b248431044c08850ea0c0cdff8d405c0f800c01800c0b248431044c088dff8c4c5ccf80000a3e7dff87f
S345080057008405c1688268914214d0dff86c15098809060fd5c168491cc160c168b1f5807f01db0021c160dff89815c068085cdff8501508800520fff79dfe3878401c387053
S3450800574097f90000082801db0020387097f9000000280bd002280fd00bd3042812d00ed3062815d011d3072815d016e04ff4444413e04ff4144410e04ff454440de04ff4f9
S3450800578024440ae04ff4644407e04ff4344404e04ff4744401e04ff404446888dff8241508600220fff766fe3480bde8f08130b4dff8141500200880dff8c824dff80c05cc
S345080057c01368b0fbf3f3dff808051468b0fbf4f46420444324096420b4fbf0f500fb154420016424b0fbf4f010eb0310dff8e4341880107907280ad19079022803d1088801
S3450800580050f400700880088850f4806008801079082811d1907900280ed09079022803d1088850f400700880088850f480600880088850f4805008800220dff85824106018
S34508005840088850f004000880088850f008000880088850f020000880088850f4005008800020dff81814088030bc704738b50e23dff864440200d2b25a43a25c452a08d1e6
S34508005880dff8581409680200d2b25a43224452881140c9b2002901d0002200e001220100c9b259432144c979002900f0a28011000500edb25d432544ad79c9b2a94205d1be
S345080058c0c0b2584320440021818192e01100c9b2002944d10100c9b259432144897901293dd10100c9b2594321440500edb25d432544ad896d1c8d810100c9b2594321449f
S3450800590049890500edb25d432544ad89a94270d20100c9b2594321448a710100c9b259432144c979012906d00100c9b259432144c97903295dd10100c9b2594321440200a8
S34508005940d2b203fb02f304eb0302527a521c4a72c0b20200fa210020fcf7baff49e01100c9b2012945d10100c9b259432144897900293ed10100c9b2594321440500edb290
S345080059805d432544ad896d1c8d810100c9b25943214449890500edb25d432544ad89a94227d20100c9b2594321448a710100c9b259432144c979022906d00100c9b259439d
S345080059c02144c979032914d10100c9b2594321440200d2b203fb02f304eb0302527a521c4a72c0b210f57a700200fa210020fcf76fff31bd38b50c23b94c0200d2b25a43d0
S34508005a00a25c442a07d1b74909680200d2b25a43224452881140c9b2002901d0002200e001220100c9b2594321444979002900f0a28011000500edb25d4325442d79c9b2fc
S34508005a40a94205d1c0b2584320440021418192e01100c9b2002944d10100c9b259432144097901293dd10100c9b2594321440500edb25d4325446d896d1c4d810100c9b29d
S34508005a805943214409890500edb25d4325446d89a94270d20100c9b2594321440a710100c9b2594321444979012906d00100c9b259432144497903295dd10100c9b259438d
S34508005ac021440200d2b203fb02f304eb0302d279521cca71c0b202007d210020fcf7f8fe49e01100c9b2012945d10100c9b259432144097900293ed10100c9b2594321440e
S34508005b000500edb25d4325446d896d1c4d810100c9b25943214409890500edb25d4325446d89a94227d20100c9b2594321440a710100c9b2594321444979022906d001008e
S34508005b40c9b2594321444979032914d10100c9b2594321440200d2b203fb02f304eb0302d279521cca71c0b210f57a7002007d210020fcf7adfe31bd10b500f0b9f800f0e7
S34508005b80d2f800f0ebf800f004f900f01df900f036f900f04df90a20fff76cfc00f0aff900f030fa00f012fb00f078fb00f0d6fb00f059f900f0eff900f0fafb00f0ebf9c4
S34508005bc000f0e9f900f0e7f900f0fef96420fdf717ff2c484ff416510160082101710121417100218171fff7e2fd01203e4908800120fdf705ff3d490888401c0880b1f9bd
S34508005c000000fb2801db00200880b1f90000002803d14ff40040234a1060b1f900000a2803d14ff40040204a1060b1f900001e2803d14ff480401b4a1060b1f90000282806
S34508005c4003d14ff4804018490860002404e02000c0b2fff70bfe641c2000c0b20628f6db00242000c0b20828c2da2000c0b2fff7c1fe641cf5e700000044004034180020b7
S34508005c8004440040301700200400002010080040dc160020100801400c30014038180020101700201420014010200140141c0140101c0140f80f002014180140101801400b
S34508005cc0080c0020140801400c4400401055220000512502084400400c16002008180140ac150020081401400c08004036180020dff89007dff8901708605ff04430dff859
S34508005d008c1708600020dff8881708600020dff8841708600020dff8801708600020dff87c17086070475ff04430dff874170860dff87007dff8701708600020dff86c1798
S34508005d4008600020dff8681708600020dff8641708600020dff86017086070475ff04430dff858170860dff85807dff8581708600020dff8541708600020dff85017086083
S34508005d800020dff84c1708600020dff84817086070475ff04430dff840170860dff83c07dff83c1708600020dff8381708600020dff8341708600020dff83017086000207b
S34508005dc0dff82c17086070475ff03430dff824170860dff82407dff8241708600020dff8201708600020dff81c1708600020dff8181708600020dff81417086070475ff06d
S34508005e002230dff80c170860dff8081708600020dff8041708600020dff8001708600020dff8fc1608600020dff8f816086070475ff02230dff8f0160860dff8f006dff833
S34508005e40f01608600020dff8ec1608600020dff8e81608600020dff8e41608600020dff8e016086070475ff08040002101800021dff8d02611800021dff8cc2611800021b7
S34508005e80dff8c82611800021dff8c42611800021dff8c026118046f66801dff8bc2611800021dff8b82611801121dff8b42611800021dff8b02611801121dff8ac26118007
S34508005ec0c821dff8a82611801021dff8a42611801021dff8a02611800021dff89c2611800021dff8982611800021dff8942611800021dff890261180012101807047dff86e
S34508005f008806002101800021dff8802611800021dff87c2611800021dff8782611800021dff8742611800021dff8702611800021dff86c2611800021dff86826118000210d
S34508005f40dff8642611800021dff8602611801121dff85c2611804ff47a61dff8582611800021dff8542611800021dff8502611800021dff84c2611800021dff848261180fe
S34508005f800021dff8442611800021dff840261180012101807047dff8380640f62c0101800421dff8302611800021dff82c2611800021dff8282611800021dff82426118036
S34508005fc040f66c01018070470020dff8181608800020dff81416088040f6a660dff80c1608800c20dff8081608800020dff8041608800020dff8001608800020dff8fc15c6
S3450800600008807047f0b5dff8f805452101724ff4805181804ff40052c280412303734ff400734381452484754ff4804444824ff400458582412686764ff480660683462741
S3450800604080f824700127078402274784422780f828700127c784462780f832700427c78508270786422780f8367002278786462780f84070102787872027c787422780f8ac
S3450800608044700427a0f84270462780f84e704027a0f84a708027a0f84c70422780f852702027a0f85070462780f85c704ff48077a0f85870a0f85a305ff0420c80f860c06e
S345080060c05ff0400ca0f85ec05ff0460c80f86ac0a0f866604ff4006ca0f868c05ff0420e80f86ee05ff0800ea0f86ce05ff0460e80f878e0a0f87410a0f87620422180f873
S345080061007c10a0f87a60462180f88610a0f88240a0f88450432180f88a100121a0f88810472180f894100121a0f890100221a0f89210432180f898100221a0f896104721c8
S3450800614080f8a2100421a0f89e100821a0f8a010432180f8a6100421a0f8a410472180f8b0101021a0f8ac102021a0f8ae10432180f8b4100821a0f8b210472180f8be107b
S345080061804021a0f8ba108021a0f8bc10432180f8c2101021a0f8c010472180f8cc10a0f8c870a0f8ca30432180f8d0102021a0f8ce10472180f8da10a0f8d660a0f8d8c069
S345080061c0432180f8de10a0f8dc60f0bd30b4dff83414452008700120488002208880452088730420088208204882452008771020c88320200884452081f82a0040208885b3
S345080062008020c885452081f838004ff4807048874ff400708887452081f846004ff48060a1f848004ff40060a1f84a0030e00e231000c0b2584301eb0004dff8cc0305687a
S345080062401000c0b25843084440880540a5711000c0b2584308440024c4711000c0b258430844002404721000c0b258430844002444721000c0b2584308440024448110001a
S34508006280c0b203fb00f301eb030000238381521c1000c0b20628cadb30bc704730b4db494420087001204880442008730220c8814420087604204883442081f824000820e0
S345080062c0c884442081f8300010204886442081f83c002020c887442081f848004020a1f84a00442081f854008020a1f856002fe00c231000c0b2584301eb0004c4480568a5
S345080063001000c0b2584308444088054025711000c0b258430844002444711000c0b258430844002484711000c0b2584308440024c4711000c0b2584308440024048110009b
S34508006340c0b203fb00f301eb030000234381521c1000c0b20828cbdb30bc7047ad48002101704121417001214180002181800021c180442101724ff48051418144210173e5
S345080063804ff48041c181002101744121417402214182002181820021c182442101764ff400514183442101774ff40041c183704799494120087010204880002006e0002203
S345080063c00300dbb201eb83035a60401c0200d2b2082af4db002006e00a220300dbb201eb43039a84401c0200d2b2082af4db704725490a680300dbb2002b02d0012b11d0ca
S3450800640020e0844bc0b200011844c08880b24000574b188001204f4b18801209120152f009020fe07b4bc0b200011844c08880b24000504b18800120464b188032f0f0021f
S3450800644052f090020a6000204249088070470e4a11680300dbb2002b02d0012b05d008e00909090151f0010103e031f0f00151f0100111606749c0b2000108444088064902
S34508006480086070471149b3b400080140040801400c080140100801401408014018080140000c0140a444b2b4040c01400c0c0140100c0140140c0140180c01400010014033
S345080064c042444444041001400c1001401010014014100140181001400014014022224444041401400c14014010140140141401401814014000180140343422220418014027
S345080065000c180140101801401418014018180140001c0140041c01400c1c0140101c0140141c0140181c01400020014022224422042001400c200140102001401420014064
S345080065401820014004000040080000400c0000401000004014000040180000401c0000402000004024000040280000402c00004034000040380000403c00004040000040e4
S34508006580480000404c0000400008004004080040080800400c0800401008004014080040180800401c0800402008004024080040280800402c080040340800403808004055
S345080065c03c08004040080040480800404c0800400030014004300140083001400c300140103001400044004004440040084400400c44004010440040144400401844004010
S34508006600f80f00200c16002008180140ac1500200814014010170020dc16002030b583b0002400200190eff3108072b642490968002903d141490968002902d180f3108869
S3450800664078e03d4901220a603d490968096800910099002902d0009900aa8a613849096800220a6036490968091d354a116034490968344a1268914203d13149324a126865
S345080066800a602e4900220a6080f31088eff3108072b619e00022aa6180f310880800002801d020008847eff3108072b6a96901aa914209d10021a96180f310882800fdf743
S345080066c03bfeeff3108072b60099002928d0009d009909698d4202d1002100910ae029696a694a6169692a690a61296900aa8a61296900912968212907d3296820392960c7
S34508006700002101aaaa612d61c6e7a968ec686a682a602a68002abdd001aaaa612d61bbe70649096800297ff481af034900220a6080f3108837bd00bf301800202418002063
S34508006740201800201c180020181800202e000100634800082a000100674500082900010019450008280001000f4800082b000100a94600082c0001000b4700084800010043
S345080067806d47000844000100cd4700082d000100a5450008490001000746000845000100674600082f0000000549000838000100154900086b010400154400086c01000092
S345080067c0ed4400080a0000008b490008200003007550000821000100e550000822000300ef4a000823000100654b000824000200c54d0008400002004f4e00084100030070
S34508006800ef4e0008420002005f4f000843000300fb4f000830000100cb4b000826000500134c000827000100834d000864010700374a00086501ffffc1490008fa0001002c
S34508006840c3320008fb00010033320008fc000100e3310008fd00fffff92c0008fe00010027310008ff000100113000080000fffffd2f00082de9fb4f040093460c9d0d9ef8
S345080068800e9fddf83ca0ddf84090ddf844803200ef212800fdf752fbb0088000061fa42200212000fdf74afb0198a062c4f844b00298a064e56066617019401e2061e76240
S345080068c0c4f89470c4f81890c4f81c90574502d00020e06300e0e7630320206323486065a4652349200000f04df8eff3108072b62049216020490968002910d01e49096824
S34508006900d1f88c101c4a1268c2f88c40c1f88840c4f88c1018490968c4f8881005e016490c60c4f88840c4f88c4014490968491c124a116012490968491c114a116080f353
S345080069401088b8f1000f03d02000fdf7a5fb09e0eff3108072b60a490968491e084a116080f310880020bde8fe8f00bfb17000087970000844524854c4170020c81700205f
S34508006980d41700200269a2f1400222f003024ff00003136053609360d36013615361c36893614ff00003d361136253629362d36213634ff0ff33536391634ff08073d363cf
S345080069c08260704710b5fdf7f3f9fbf719fcfcf763fd0400fcf78dfd2100c9b2c0b2fcf774fefef707fd00f069f8002010bd70b586b00120059000200490012003900a2023
S34508006a000290c8200190224800900023214a1fa12148fff72fff00241fe00120059000200490012003900a200290c82001901b492200d2b2c820424301eb020000902300da
S34508006a40dbb2174a1749184d2600f6b2a420464305eb0600fff70eff641c2000c0b20228dbdb0120059000200490012003900a200290c82001900d48009000230c4a0d4948
S34508006a800d48fff7f7fe06b070bd000063647000d810002085270008681200200408002065540008e071000894090020a0110020795b0008e87100080c13002080b50d483e
S34508006ac000680d49884207d00a485ff0f031016000f016f800f04ef806485ff0f031016006480068fff783ff02480021016000f083f801bd00000020f1f0f0f0b4170020c4
S34508006b001548164a10604ff0e0201549c0f8081d14481349096801604ff0e020124941614ff0070101610021c0f8181d0f49c0f81c1d0f49c0f8201d7047fee700b500f04c
S34508006b40a9f800f0b3b800b500f0a4f800f0d0f800f0acb8fee7fee79c170020b417002000200008b81700203f190100000000ff0000ff4080b500f007f900f053f91248cd
S34508006b80002101601148002101601148002101601048002101601048002101600f48002101600f48002101600e48002101600e48002101600d48002101600d4800210160cb
S34508006bc00c480021016001bddc170020e0170020e4170020e8170020ec170020f0170020fc170020001800200418002008180020f4170020f817002072b64ff0e0204ff05e
S34508006c0001010160016941f00101016162b600dfefbe70471c4801681c4a79b1eff3098c2ce9f00fc1f808c0dff864c0dcf8005025b18d614ff00005ccf80050136893b126
S34508006c4003605c6804f101045c60dff844c09d69ccf80050d3f808c0bce8f00f8cf309886ff0020e704772b61368036023b962b630bfbff36f8ff6e74ff000644ff0e0256b
S34508006c80c5f8044d62b6dce7bc170020c0170020101800200448016801f1010101604df804ad4ff0000a7047000000200c480168a1f101010160bde800440a48006800280e
S34508006cc01dbf094909688142704708480068002802bf4ff080504ff0e021c1f8040d704700000020c0170020bc170020d41700201e49086800f1010008601d4b1a68002aa2
S34508006d0008d0a2f101021a60002a03d1194b4ff001001860184908680268002a04d0174b4ff001021a6008e000f10400144b1a68904201d1134b186808600e4b1a68002a3f
S34508006d4003d10e49086800280fd04df804ed0b490868002801d0fff761fc064b1a68002a01d000f0a1f85df804eb70470c180020101800201418002020180020241800203f
S34508006d801c1800201818002080b51b48002101601a4800210160042200211948fdf7cef8184820210160184800210170174b012008e05208491c94461cf0010ff9d019705b
S34508006dc05b1c401cff2802d802000021f3e7802200210f48fdf7b2f80e48002101600e48002101600d48002101600d48006850f0c5700b49086001bdbc170020c0170020df
S34508006e00cc170020d0170020080e0020090e002034140020c4170020c8170020d4170020d817002080b5144800210160134800210160134800210160124800210160802206
S34508006e4000211148fdf77af810480f49016010480d4901600f48104901600e480068001d0c4908600d48002101600d48002101600c480021016001bd0c180020101800208d
S34508006e801418002024180020b414002018180020201800201c1800203015002030180020281800202c18002014480168eff3108072b6134a0023136000291bd00a6b002aa2
S34508006ec018d1ca698a610a6a8a4210d0ca6acb6b9a420cd1ca6a0b4b096a43f822100a490968084a52f82110084a116002e08969074a116080f31088704700bfbc17002072
S34508006f001418002034140020d0170020c01700201018002080b522490968c0b2fcf7cdfc20480168a020fcf7c8fc1f480168a120fcf7c3fc1d480168a220fcf7befc1c48de
S34508006f400168a320fcf7b9fc1a480168a420fcf7b4fc002000900be06846009950f8211000982038c0b2fcf7a8fc0098401c009000981328f0d35ff0ff300f4908600f49f9
S34508006f8008600f4908600f4908600f490f480860002000e0401c6428fcd30d48086001bd24ed00e028ed00e02ced00e030ed00e034ed00e038ed00e080e100e084e100e02a
S34508006fc080e200e084e200e00ced00e00400fa050100fa0580b50320fff79cff01bd80b50420fff797ff01bd80b50520fff792ff01bd80b50620fff78dff01bd80b5c16e37
S34508007000eff3108272b6836e002b2dd000292bd00b68dff85cc0634526d100238366036f984202d10023cb600be0036fcb60036fd0f874c0c3f874c0436fd0f870c0c3f8a1
S3450800704070c00b695b1e0b61016b06290cd10d21c0f8841007490968491c064b196082f31088fdf719f801e082f3108801bd00bf414d4553d417002010b50b480468a06c59
S34508007080616c8847eff3108072b6012121630121a16306490968491c044a116080f310882000fcf755ff10bdbc170020d417002080b5eff3108172b6026b042a09d1094a07
S345080070c01268521c074b1a6081f31088fcf7e4ff06e0826e81f310881100002900d0904701bd00bfd417002030b4002512e050f8042bd30744bf4a44521e091f042942f8c5
S34508007100045bfad213468c0744bf15809b1cc90748bf1d7050f8041b0029e8d130bc704710b5074979441831064c7c44163404e00a68081d114488470146a142f8d110bdb5
S345080071400800000028000000a1ffffff40180000040000200000000017c3ffff0400000090000000000000200000000000f00df8002801d0fff7d4ffaff300800020aff390
S345080071800080fff71ffc00f002f80120704700f001b800000746384600f002f8fbe7000080b5aff30080024a11001820abbefbe7260002000548014603b4684680f30988d2
S345080071c0aff30080aff30080fff7d0ffa5edf5fe02001801050018010b001801170018014465766963655f00416374696f6e0000f0f0f0f0ffffffffffffffffffffffffa5
