S3450800200028f400203121000811e90008d5fb0008dffb0008e9fb0008f3fb00080000000000000000000000000000000035ea000813e900080000000035ea000803e9000818
S34508002040f9e80008f9e80008f9e80008f9e80008f9e80008f9e80008f9e80008f9e80008f9e80008f9e80008f9e80008f9e80008f9e80008f9e8000835020108f9e800086b
S34508002080f9e80008f9e80008f9e80008b35c00083b5c0008f9e80008f9e80008f9e80008f9e80008f9e80008f9e80008f9e80008f9e8000869e90008f9e80008f9e800082d
S345080020c0f9e800084de900085be90008f9e80008f9e8000815e9000823e9000831e90008f9e80008f9e80008f9e80008f9e80008f9e80008f9e80008f9e80008f9e8000809
S34508002100f9e80008f9e80008f9e80008f9e800083fe90008f9e80008f9e80008f9e80008f9e80008f9e80008f9e80008f9e800080249d1f800d00df0c1bf000000200008d5
S34508002140ffffffffffffffffffffffffffffffffcc325aa5002000089b030108aa0fc20430303030303235380046757365626f61726400312e30332e30342e3233303000a5
S3450800218000ffffffffffffffffffffffffffffffffffffffffffffffffffffffffffffffffffffffffffffffffffffffffffffffffffffffffffffffffffffffffffffff50
S345080022000a8bcb8a9a4203d13f21017000200ee0ca8a0a4492f822200270c88a401c020092b2b2f5a06f00db0020c8820120704710b401000020ca8a06e0521c13009bb283
S34508002240b3f5a06f00db002213000c8b9bb2a3420ad0401c0b7b1400a4b20c4494f82240a342ead100b201e05ff0ff3010bc70478a8b0a4482f82205888b401c020092b26f
S34508002280b2f5a06f00db002002004b8b92b29a4201d1002001e08883012070470100c88a098b081a010089b240f20152914201db10f5a06080b270470100488b898b081a40
S345080022c0010089b240f20152914201db10f5a06080b270472de9f04104000d0016003000006bc04607005ff0000801e018f10108b84511d2300001f0f2fe2100c0b2fff798
S34508002300b7ffc0b20028f1d12b00dbb2002240f20721300001f02fffd4f8240ac06850f08000d4f8241ac86042f2107104f6442002f0c4fb0020bde8f0812de9fc479846b5
S345080023404ff6ff71884502d15ff0ff3802e00a2101fb08f80b9d0a9e1700814601213800c177c046a9f8206089f81250002089f814002800c0b2002804d04846fff758ff7b
S34508002380824601e05ff0ff3a4846fff787ff0024310080b289b2884215d2504600b2002811d5414609f6282002f088fb0400002c09d1edb2002d04d04846fff739ff82469a
S345080023c001e05ff0ff3a4ff4a060a9f82000002089f812004846fff761ff050099f81400002804d03900022001f015fe15e0002c0fd1504600b2002804d53900002001f032
S345080024000afe0ae03900032001f005fe5546adb203e03900012001f0fefd3000290080b289b2884200d32e003900300080b201f055fd002409e049466846fff7e1fe390062
S345080024409df8000001f0e7fd641c2000310080b289b28842efd30020bde8f6872de9fc4104000d000026042100226f46380002f06bfb0020280001f032fe0700280001f039
S345080024802efe80463800c0b2042802db4ff480760fe04046c0b2022802db4ff4807608e002f09afb002804d100213800c0b202f04ffd40f67c20dff8541c3a00d2b2424338
S345080024c08a5612f1010f01d04ff49076320092b2002a24d13a00d2b242430a449278012a27d05ffa88f8b8f1000f03d1ffb24743cc551ee05ff0ff323b00dbb24343ca54c4
S345080025003a00d2b242430a4401239370ffb2474301eb070010f5266003f0b4f909e08df803702300dbb26a46310089b2280001f022fe0020bde8f6812de9f14f84b00c00c4
S3450800254000250421002203ae300002f0fdfadff8c00c0026200001f0c2fd0700200001f098fd0290200001f0bafd8046200001f0b6fd8146200001f0b2fd8df8040040f6a7
S345080025807c2adff888bb3800c0b20afb00f058440090200001f0a3fd009948733800c0b20afb00f058440090200001f098fd009988733800c0b20afb00f05844009020008d
S345080025c001f08dfd0099c8733800c0b20afb00f058440090200001f073fd009908823800c0b20afb00f058440090200001f077fd0099c8743800c0b20afb00f0584400901f
S34508002600200001f06cfd0099c8723800c0b20afb00f058440090200001f061fd009908733800c0b2042802db4ff4807541e00298b0f51670dff8a81c884202d340f201258e
S3450800264037e04046c0b2c01f032802d340f202252fe04846c0b2032802db40f2032528e09df80400032802db40f2062521e03800c0b20afb00f01bf9000010f1010f0ad1ee
S345080026803800c0b20afb00f058448078012802d040f221150de03800c0b20afb00f01bf900009df8101000b209b2884201d04ff48875280080b2002840f009813800c0b2f3
S345080026c00afb00f05844029941603800c0b20afb00f0584480f808803800c0b20afb00f0584480f809903800c0b20afb00f058449df8041081723800c0b2002802d0dff826
S34508002700100b01e0dff8dc0b0299b0fbf1f03900c9b20afb01f15944d1f8241a88604046c0b2072825d13800c0b20afb00f05844d0f8240a3900c9b20afb01f15944d1f814
S34508002740241ac96831f48051c1603800c0b20afb00f05844d0f8240a02213a00d2b20afb02f25a44d2f8242ad26861f34a22c2604be04046c0b2082816d14846c0b2002886
S3450800278012d13800c0b20afb00f05844d0f8240a3900c9b20afb01f15944d1f8241ac96831f48051c16030e04046c0b2082816d14846c0b2002812d03800c0b20afb00f098
S345080027c05844d0f8240a3900c9b20afb01f15944d1f8241ac96851f48051c16015e04046c0b2092811d13800c0b20afb00f05844d0f8240a3900c9b20afb01f15944d1f840
S34508002800241ac96851f48051c1605ffa89f9b9f1000f04d0b9f1020f2dd018d33ee05ffa88f8b8f1070f11d03800c0b20afb00f05844d0f8240a3900c9b20afb01f15944c9
S34508002840d1f8241ac96831f4c061c16026e03800c0b20afb00f05844d0f8240a02213a00d2b20afb02f25a44d2f8242ad26861f34a22c26012e03800c0b20afb00f058449b
S34508002880d0f8240a3900c9b20afb01f15944d1f8241ac96851f4c061c160ffe79df80400002803d0022806d002d307e0002605e04ff4405602e04ff40056ffe7ffb20afbdc
S345080028c007f70beb0700d0f8240a066109e08df80f709df8103003aa290089b2200001f04afc002005b0bde8f08ff8b506000c000027042100226d46280002f025f9200017
S3450800290001f0edfb05002800c0b2042802db4ff4807714e040f67c20dff8cc192a00d2b242438a5612f1010f09d12a00d2b200fb02f008448078012801d040f221173800d1
S3450800294080b2002871d140f67c26dff89c7921002800c0b27043385cc0b201f05cfb21002800c0b201f057fb21002800c0b270433844807801f04ffb21002800c0b27043a4
S345080029803844406801f08ffa21002800c0b270433844007a01f03ffb21002800c0b270433844407a01f037fb21002800c0b270433844807a01f02ffb21002800c0b27043a8
S345080029c03844407b01f027fb21002800c0b270433844807b01f01ffb21002800c0b270433844c07b01f017fb21002800c0b270433844008a01f072fa21002800c0b2704328
S34508002a003844c07c01f007fb21002800c0b270433844c07a01f0fffa2100edb2754307eb0500007b01f0f7fa09e08df803503300dbb26a46390089b2200001f09cfb002096
S34508002a40f2bd2de9ff4104000d005ff000080421002202ae300002f077f8280001f03ffb0600280001f02cfb0700280001f028fb01003000c0b2042802db4ff4807823e08d
S34508002a80080080b240f20152904202db4ff480781ae040f67c20dff850283300dbb24343d35613f1010f02d140f221180ce03300dbb200fb03f010562200d2b200b212b267
S34508002ac0904201d04ff48878404680b2002812d1dff81428f6b240f67c20464302eb06000022019289b200913b002a002100c9b2fff723fc09e08df80b602300dbb202aa4a
S34508002b00414689b2280001f036fb002004b0bde8f081f8b504000d000026042100226f46380002f011f8280001f0d9fa0100c9b2042902db4ff480761ae040f67c21dff82f
S34508002b40ec2c0300dbb24b43d35613f1010f02d140f221160ce00300dbb201fb03f151562200d2b209b212b2914201d04ff48876310089b200290cd1dff8b02cc0b240f6ae
S34508002b807c21484310442a002100c9b2fff7a2fb09e08df803002300dbb26a46310089b2280001f0e8fa0020f2bd2de9fe4304000d005ff000090421002202ae300001f053
S34508002bc0c3ff280001f08bfa8046280001f078fa0600280001f074fa07004046c0b2042802db4ff4807923e0380080b240f20151884202db4ff480791ae040f67c20dff8ce
S34508002c002c1c4246d2b242438a5612f1010f02d140f221190ce04246d2b200fb02f008562100c9b200b209b2884201d04ff48879484680b200281ad1dff8f01b5ffa88f8c2
S34508002c4040f67c2000fb08f888442a002100c9b24046fff73ffb00200190bfb2009733002a002100c9b24046fff767fb09e08df80b802300dbb202aa494689b2280001f069
S34508002c807afa0020bde8fe832de9ff4104000d005ff000080421002202ae300001f054ff280001f01cfa0600280001f009fa0700280001f005fa01003000c0b2042802db07
S34508002cc04ff4807823e0080080b240f20152904202db4ff480781ae040f67c20dff84c2b3300dbb24343d35613f1010f02d140f221180ce03300dbb200fb03f010562200e2
S34508002d00d2b200b212b2904201d04ff48878404680b2002812d1dff8142bf6b240f67c20464302eb06000122019289b200913b002a002100c9b2fff700fb09e08df80b6089
S34508002d402300dbb202aa414689b2280001f013fa002004b0bde8f0812de9fe4304000d005ff000090421002202ae300001f0ecfe280001f0b4f98046280001f0a1f9060010
S34508002d80280001f09df907004046c0b2042802db4ff4807923e0380080b240f20151884202db4ff480791ae040f67c20dff87c1a4246d2b242438a5612f1010f02d140f27c
S34508002dc021190ce04246d2b200fb02f008562100c9b200b209b2884201d04ff48879484680b200281ad1dff8441a5ffa88f840f67c2000fb08f888442a002100c9b240469a
S34508002e00fff768fa01200190bfb2009733002a002100c9b24046fff790fa09e08df80b802300dbb202aa494689b2280001f0a3f90020bde8fe832de9fe4304000d005ff0a2
S34508002e4000090421002202ae300001f07dfe280001f045f98046280001f032f90600280001f02ef907004046c0b2042802db4ff4807923e0380080b240f20151884202db25
S34508002e804ff480791ae040f67c20dff8a0194246d2b242438a5612f1010f02d140f221190ce04246d2b200fb02f008562100c9b200b209b2884201d04ff48879484680b2be
S34508002ec000281fd1dff864195ffa88f840f67c2000fb08f88844002088f8140098f81400002819d101200190380080b2009033002a002100c9b24046fff71ffa280000f02a
S34508002f00fdffebe78df80b802300dbb202aa494689b2280001f02ff90020bde8fe83f8b504000d000026042100226f46380001f00bfe280001f0d3f80100c9b2042902db7c
S34508002f404ff480761ae040f67c21dff8e0280300dbb24b43d35613f1010f02d140f221160ce00300dbb201fb03f151562200d2b209b212b2914201d04ff48876310089b23e
S34508002f80002911d140f67c21dff8a0280300dbb24b43134401241c75c0b24843104400f6282002f06ffc09e08df803002300dbb26a46310089b2280001f0ddf80020f2bd75
S34508002fc0f8b504000d000026042100226f46380001f0bafd280001f082f80100c9b2042902db4ff480761ae040f67c21dff83c280300dbb24b43d35613f1010f02d140f249
S3450800300021160ce00300dbb201fb03f151562200d2b209b212b2914201d04ff48876310089b200290dd140f67c21dff800280300dbb24b431344c0b248431044008bd8823e
S3450800304009e08df803002300dbb26a46310089b2280001f090f80020f2bdf8b506000c000027042100226d46280001f06dfd200001f035f805002800c0b2042802db4ff409
S3450800308080771ae040f67c20dff8a0172a00d2b242438a5612f1010f02d140f221170ce02a00d2b200fb02f008563100c9b200b209b2884201d04ff48877380080b20028e1
S345080030c018d140f67c26dff864772800c0b270433844fff7e3f8210080b200f0fffeedb2754307eb0500fff7e7f8210080b200f0f5fe09e08df803503300dbb26a463900b2
S3450800310089b2200001f037f80020f2bd240000202de9f84304000d000026042100226f46380001f011fd280000f0d9ff0700280000f0c6ff3900c9b2042902db4ff480766d
S3450800314017e040f67c21dff8e4263b00dbb24b4313449b78012b0cd03b00dbb201fb03f1515611f1010f02d140f2211601e040f22316310089b2002938d14ff6ff718842b8
S3450800318002d15ff0ff3001e00a21484340f67c28dff898963900c9b208fb01f119f901102200d2b209b212b291421bd001003800c0b208fb00f0484410f5266001f07efc6b
S345080031c000280ad13800c0b208fb00f809f808402900002000f01fff08e02900012000f01aff03e02900022000f015ff300080b2002809d08df803702300dbb26a46310020
S3450800320089b2280000f0b7ff0020bde8f2830000005125022de9f84304000d000026042100226f46380001f08ffc280000f057ff07003800c0b2042802db4ff4807624e028
S3450800324040f67c20dff8e4153a00d2b242438a562300dbb212b21bb29a4202d04ff4887613e03a00d2b242430a449278012a0cd03a00d2b200fb02f0085610f1010f02d1c9
S3450800328040f2211601e040f22316300080b2002814d140f67c28dff894953800c0b208fb00f0484410f5266002f0ecfa5ff0ff303900c9b208fb01f809f80800300080b2dd
S345080032c0002809d08df803702300dbb26a46310089b2280000f04fff0020bde8f2830000a9bf010000a24a0424000020f8b504002000c0b2002805d0022843d022d3032821
S3450800330060d07fe040f67c20dff820152200d2b242430a44dff81835c2f8243a2200d2b242430a44d2f8242a40f2712393602200d2b200fb02f00844d0f8240a42f20c01fd
S34508003340c1605fe040f67c20dff8e0142200d2b242430a44dff8dc34c2f8243a2200d2b242430a44d2f8242a4ff49c7393602200d2b200fb02f00844d0f8240a42f20c01de
S34508003380c1603fe040f67c20dff8a0142200d2b242430a44dff8a034c2f8243a2200d2b242430a44d2f8242a4ff49c7393602200d2b200fb02f00844d0f8240a42f20c013a
S345080033c0c1601fe040f67c20dff860142200d2b242430a44dff86434c2f8243a2200d2b242430a44d2f8242a4ff49c7393602200d2b200fb02f00844d0f8240a42f20c0196
S34508003400c160ffe740f67c25dff820645ff0ff302100c9b2694370542000c0b26843304444702000c0b268433044002181702000c0b2684330445ff4e13141602000c0b24a
S3450800344068433044082101722000c0b268433044002141722000c0b268433044002181722000c0b2684330440221c1722000c0b268433044032101732000c0b26843304438
S34508003480002141732000c0b268433044002181732000c0b2684330440021c1732000c0b268433044002101822000c0b2684330440021c1822000c0b268433044002101839d
S345080034c02000c0b268433044002141832000c0b268433044002181832000c0b268433044002181742000c0b2684330440021c1832000c0b2684330444ff4a0610184dff824
S345080035004073002239002000c0b26843304400f6282002f0edf9002239002000c0b26843304400f6442002f0e3f90022c5492000c0b26843304410f5266002f0d9f9e4b2ae
S345080035406c4306eb0400d0f8240a42f22c01c160f1bd70b5b54cd4f8245a2e6830061dd5a08b618b884219d0608b204490f822056860608b401c6083608bb0f5a06f01db10
S3450800358000206083a08b618b884207d1e86830f08000e86004f6442002f074f9b00632d56d68208b204480f82250208b401c2083208bb0f5a06f01db00202083208be18a03
S345080035c0884206d14ff40170e08304f6282002f059f9218be08a081a010089b240f20152914201db10f5a060218c80b2884206d2a07c002807d0207bedb2854203d104f667
S34508003600282002f03ff970bd70b58f4cd4f8245a2e6830061dd5a08b618b884219d0608b204490f822056860608b401c6083608bb0f5a06f01db00206083a08b618b8842bc
S3450800364007d1e86830f08000e86004f6442002f019f9b00632d56d68208b204480f82250208b401c2083208bb0f5a06f01db00202083208be18a884206d14ff40170e083c9
S3450800368004f6282002f0fef8218be08a081a010089b240f20152914201db10f5a060218c80b2884206d2a07c002807d0207bedb2854203d104f6282002f0e4f870bd70b552
S345080036c0624cd4f8245a2e6830061dd5a08b618b884219d0608b204490f822056860608b401c6083608bb0f5a06f01db00206083a08b618b884207d1e86830f08000e860dd
S3450800370004f6442002f0bef8b00632d56d68208b204480f82250208b401c2083208bb0f5a06f01db00202083208be18a884206d14ff40170e08304f6282002f0a3f8218bf9
S34508003740e08a081a010089b240f20152914201db10f5a060218c80b2884206d2a07c002807d0207bedb2854203d104f6282002f089f870bd70b5364cd4f8245a2e6830062a
S345080037801dd5a08b618b884219d0608b204490f822056860608b401c6083608bb0f5a06f01db00206083a08b618b884207d1e86830f08000e86004f6442002f063f8b0067f
S345080037c032d56d68208b204480f82250208b401c2083208bb0f5a06f01db00202083208be18a884206d14ff40170e08304f6282002f048f8218be08a081a010089b240f256
S345080038000152914201db10f5a060218c80b2884206d2a07c002807d0207bedb2854203d104f6282002f02ef870bd000024000020003801400044004000480040004c004026
S3450800384090030108bc020108a00a00201c150020981f002010b500202ce03c21dff8282b03009bb24b43134400249c7603009bb24b43134400245c6203009bb24b431344b6
S3450800388000249c6203009bb24b43134400245c6003009bb24b4313440400a4b2640883f8214003009bb201fb03f11144002281f82020401c010089b21029cedb0020dff80b
S345080038c0cc1a088001f0f0fb10bd2de9f24f040015001e0002f0aef90700e4b25fea4408d0e04046c0b209fb00f05044406828444146c9b209fb01f14af801006ee05ff02e
S345080039003c09dff884aa4046c0b209fb00f05044002101774046c0b209fb00f050440021c1764046c0b209fb00f05044002101764046c0b209fb00f050443900c9b211f0f1
S345080039401f013a00d2b2120212f4005211434246d2b2920112f0400211434246d2b2d20112f4407211434246d2b2920012f0200211434246d2b2d20112f4c052114311f512
S34508003980c07181814ff0ff0b4046c0b209fb00f0504480f819b04046c0b209fb00f05044a02181764046c0b209fb00f05044009981604046c0b209fb00f050443100490888
S345080039c041604046c0b22100c9b2b0eb410f88d14046c0b209fb00f04af800504046c0b209fb00f05044002141624046c0b209fb00f05044042181624046c0b209fb00f00a
S34508003a0050440021c1624046c0b209fb00f05044002101634046c0b209fb00f05044002141634046c0b209fb00f05044002141774046c0b209fb00f00aeb0001dff85029cb
S34508003a404346dbb21c20434302eb030088630022b6a14046c0b209fb00f05044806b01f047ff4046c0b209fb00f050440021c1774046c0b209fb00f90aeb090080f81eb058
S34508003a8018f101084046c0b22100c9b24900891c8842fff634af0022a5a1dff8f8382500edb21c20454303eb050001f021ff0122a0a1dff8e40801f01bffa420dff8f41cea
S34508003ac000222300dbb24343ca542200d2b242430a4400235370e4b2444301eb0400ff218170bde8f18f80b58a6a0b689854521c4868824200d30022486a824205d10022d3
S34508003b000021042000f0cdfb03e08a62486b401c486301bd10b4ca6a002308e00c68a054000a521c4c68a24200d300225b1c042bf4d310bc704710b504002100606bfff728
S34508003b40e9ff00206063a06ae062a06a002100e0491c04290dd2401c6268904200d30020626a9042f4d100220021042000f099fb00e0a06210bd426a016b8a1841688a428d
S34508003b8001d34168521a426200210163704780b50200100080b2c01110f00f000300dbb2db1e082b26d20300dbb2db1e92b2d21012f00c0212eb6302c00706d5d2b20021b9
S34508003bc0092000f06efbff202ee000200870100702d5083a012008701000c0b2082806dbd2b20021052000f05cfbff201ce01000c0b219e00100c9b20c2901d1ff2013e0d8
S34508003c00c0b201280ad14ff4fa7002f023f900220021092000f045fbff2005e000220021052000f03efbff2002bd806800e0083002780b00dbb29a4202d00278002af6d10b
S34508003c40704738b584b001a801f062ff10f1010f67d0bdf80400002813d19df8060002280ed19df8080081280ad101f0e3ff9df80910c0b2814203d101f03bfa02f03af9bc
S34508003c8052e06946bdf80400fff781ffff284bd0dff8f4269df8003013eb40033c214b4302eb03049df8061000293dd09df8081011f00f01627e914236d09df8081011f0c8
S34508003cc00f016176217f00290ad19df80810090606d40200d2b20021012000f0e2fa23e0012508e0210001a82a00d2b210440079fff7f9fe6d1c28009df80610c0b2884226
S34508003d00f0d39df80800400608d5002020772000fff711ffa06b01f0b5fd05e01020207702e0012002f096f805b030bd6161000071630000646c730038b50400dff8482687
S34508003d402000c0b2c9b211eb40013c20414302eb01055ff0ff31a86b00f0b0fea87fff2811d0dff8501a2200d2b2a420424301eb020001784078814205d02100c9b228000e
S34508003d8000f028f927e0280000f0c0f9280000f0a6f96877697f2800fff747ff02005088296b884204d050884ff6ff71884205d129002000c0b25268904706e02300dbb20f
S34508003dc000221c21280000f0d6f92800fff7d3fe280000f093f831bd10b5002410e0dff8a815220092b23c20424301eb0200807e002804d100220021112000f052fa641c22
S34508003e00200080b20828eadb01f0c0f902f0d0f902f0f4f902f0e5fb0020c04600281dd1dff864452100fe20fff75dfe01f002ff002809d1002200211a2000f032fa21001d
S34508003e400020fff750fe03e021000120fff74bfe2000fff770fea06b01f014fdfff7f1fefce780b500f01ff801bd38b50400200000f00ff90090009d290049000800001653
S34508003e80401c002801d0002100e00902002908d094f821306a462f21200000f06cf9ee20a076280032bd38b504000d0029002000c0b200f0b0f829002000000ac0b200f0ff
S34508003ec0aaf829002000000cc0b200f0a4f82900240e2000c0b200f09ef831bd38b504000d0029002000c0b200f095f82900a4b2240a2000c0b200f08ef831bd10b50400bc
S34508003f00e07e002809d11020e0760320a073607f60740020a07480202074207c50f040002074217c207e41182174207e401c10f00f002076e07f00280fd114f10c0001f05b
S34508003f4089fd5ff0ff3100b288420ad194f8212000210a2000f0a5f903e014f10c0001f056fd0020a0730020e076a020a07610bd38b5dff840480500edb2a4235d4304eb67
S34508003f8005039c78ff2c24d05c781c442171597803eb81014a625978491c11f01f010a001c78d2b2a24206d10200d2b20021262000f077f90de05970dff8c41ac0b29a7895
S34508003fc012eb40023c20424301eb0200806b01f059fc31bd38b50400dff8d827c9b2a420414302eb0105fb206077210028782844007900f010f82100287805eb8000406a9e
S34508004000fff751ff2878401c10f01f0028702000fff774ff31bd38b504000d00e87e002809d10320a873687f68740020a8741020e87680202874a87b082823db297c287ef9
S3450800404041182974287e401c10f00f002876e87f00280fd115f10c0001f0fcfc5ff0ff3100b288420ad195f8212000210a2000f018f903e015f10c0001f0c9fc0120a8734c
S3450800408000202874a87b28440474a87b401ca87331bd38b50400200000f021f80500200000f01df815eb0025200000f018f815eb0045200000f013f815eb0065280032bd42
S345080040c038b50400200000f00af80500adb2200000f005f815eb0025280080b232bd0100086b002801d100200fe0086b401e086308684a6a805c4a6a521c4a624a6a4b68e2
S345080041009a4201d300224a62c0b2704770b50400616a206b41186162606a6168884203d3616a6068091a6162606ae16a884201d101201fe0042020630026002506e0360a9a
S345080041402000fff7ccff16eb00666d1c2800c0b20428f4db6068b0420ad200202063e06a6062012200211b2000f09bf8012001e02663002070bdfeb507000d0014001e00b3
S3450800418001f058fd8030adf8000008208df80200f87e002835d10320b873787f78743c21794a3000c0b2484310443300dbb24b43134493f820305b1c80f820303000c0b2d0
S345080041c04843104490f8200000280cd13000c0b2484310443300dbb24b43134493f820305b1c80f820303000c0b201fb00f102eb010090f82000b8741020f87680203874aa
S3450800420005e03200d2b20021032000f04af828008df80400adb22d0a8df80550b6f180008df806005849f6b23c20464301eb060090f820008df80700002c0dd0042001000a
S34508004240c9b2082915da21786a460300dbb21a441171641c401cf2e7042006e000216a460300dbb21a441171401c0100c9b20829f4db684601f0eefb10f1010f10d101f099
S34508004280b9fb684601f0e6fb00208df8040002208df8050080208df80600684601f0dafbf7bd7fb506000c00150001f0c3fc8030adf8000008208df8020096f40046300005
S345080042c08df80400b6b2360a8df80560b5f180008df80600002c0dd003200100c9b2082915da21786a460300dbb21a441171641c401cf2e7032006e000216a460300dbb244
S345080043001a441171401c0100c9b20829f4db012002f012fb1d4c2188082919da26882188491c218002f008fb00200100c9b2082910da310089b204ebc1010200d2b2114460
S345080043406a460300dbb21a4412798a70401cece702f0f2fa684601f07dfb10f1010f11d101f048fb684601f075fb02208df8040000208df80500b5f180008df806006846fe
S3450800438001f068fb7fbd000060c1002074e80020e4d20020d0e20020d4ea00202de9ff4704000d0000202800006bc046062808d22300dbb200221c212800fff7dcfe0020c7
S345080043c0f5e12800fff78bfe82462800fff761fe81462800fff783fe80465046c0b2b0280bd05046c0b2b32807d05046c0b2e12803d05046c0b2c02805d100260121280032
S34508004400c177c04600e046462800006bc046f6b2b04208d02300dbb200221c212800fff7aafe0020c3e1dff85c664ff4fa61300000f044fb0700380080b2002808d02300f6
S34508004440dbb200223d212800fff795fe0020aee15ffa8afabaf1000f32d0baf1a20f5dd0baf1a30f00f08480baf1b00f00f09280baf1b20f00f08080baf1b30f00f0cd80dc
S34508004480baf1b50f00f0f980baf1c00f00f09a80baf1c10f15d0baf1c20f00f0d880baf1e10f00f0ef80baf1e20f00f01181baf1e30f00f02981baf1e40f00f03f815fe191
S345080044c065e1b9f5805f07d24046c0b210eb090041f20101884201d340271ee009f1006919f5be29002708e02800fff7f8fddff898153a00d2b288547f1c38004146c0b26a
S34508004500c9b28842f0d3dff880255ffa88f8414689b2484601f0d8fd070038e1002708e02800fff7dcfddff860153a00d2b288547f1c38004146c0b2c9b28842f0d3dff843
S345080045404c05814512d34046c0b210eb0900dff8401588420ad2dff830255ffa88f8414689b2484601f0b0fd070000e00f270ee1002001f09dfc0ae1dff81005814501d24a
S345080045800e2703e0484601f0cdfc0700002001f08ffcfce029004046c0b2fff73cfd5ff0000a08e0290099f80000fff734fd19f101091af1010a50464146c0b2c9b288429e
S345080045c0f0d3e4e0b9f5805f07d24046c0b210eb090041f20101884201d340271ce009f1006919f5be2929004046c0b2fff713fd5ff0000a0ae048460078c0462900c0b225
S34508004600fff709fd19f101091af1010a50464146c0b2c9b28842eed3b9e029004046c0b2fff7f9fc5ff0000a0ae048460078c0462900c0b2fff7effc19f101091af1010a17
S3450800464050464146c0b2c9b28842eed39fe0484601f02efc0700dff8348405e0404601f061fc070018f50068380080b2002803d1dff820048045f1d389e0484601f018fcbe
S34508004680070084e0dff800a452464146c9b289b2484602f04cf80700380080b2002816d129004046c0b2fff7b6fc5ff0000908e029004846c0b21af80000fff7acfc19f101
S345080046c0010948464146c0b2c9b28842f0d35ee0002708e02800fff702fddff8ac133a00d2b288547f1c38004146c0b2c9b28842f0d3dff894235ffa88f8414689b24846ee
S3450800470002f068f8070042e002ab6a4601a90df1010001f0adff29000198fff7c4fb29009df80100fff777fc29009df80000fff772fc29000298fff7b6fb28e02800fff7fc
S34508004740a8fc01902800fff7cafc8df801002800fff7c5fc8df800002800fff79afc0290029b9df8002001999df8010001f08fff0700380080b2002801d001f032ff06e06f
S345080047802300dbb200222e212800fff7f4fc380080b2002807d02300dbb20022390089b22800fff7e8fc300001f06cf8002004b0bde8f087d481002080b503000800dbb254
S345080047c000220621fff7d7fc012002bdf8b507000c002000fff783fc06003000c0b200280dd121000220fff716fc21000020fff712fc21000f20fff70efc002070e0300036
S34508004800c0b2ff280dd102f09df8050021000220fff701fc2100e86a80b2fff75ffb00205ee03000c0b2072802dadff86c5219e03000c0b20c2803dadff86052f61f11e061
S345080048403000c0b2132803dadff854520c3e09e000253b00dbb2002208212000fff78bfc00e06d1c3000c0b2002812d0761e002728000078c0460028f3d06d1c7f1c38002e
S3450800488080b23328f4db21000020fff7c4fb012026e000263000c0b240190078c04600280ad0761c3000c0b23328f3db21000020fff7b1fb012013e021003000c0b2fff7c3
S345080048c0aafb08e028000078c0466d1c2100c0b2fff7a1fb761e3000c0b20028f2d10120f2bd38b505000c002000fff7f8fbc0b2002806d0022824d022d304282ad021d334
S3450800490030e021000020fff786fb210065480068800b10f0010090f00100c0b2fff77bfb210061480078fff776fb2000fff7e6fa142001f08ffa00f0dcfb01f0dbfa18e0ae
S3450800494017e016e04ff40040584908600020564908700ee04ff400405549086001205249087006e02b00dbb2002207212000fff702fc21000120fff74efb21004948006837
S34508004980800b10f0010090f00100c0b2fff743fb210045480078fff73efb012032bd38b504000d002800fff79afbc0b200280ad0012813d13f49e4b21c20444301eb0400ce
S345080049c000f060ff11e05ff0ff313a4ae4b21c20444302eb040000f071f806e02300dbb2002225212800fff7c6fb012032bd70b504000d002800fff772fb06003000c0b26d
S34508004a00ff2809d1ff212c4ae4b2a420444302eb04008170a97727e03000c0b200281cd10020a87716492200d2b27820424301eb0200a84208d100211f4ae4b2a4204443b3
S34508004a4002eb040081700fe001211b4ae4b2a420444302eb0400817006e02300dbb2002225212800fff787fb29003000c0b2fff7d2fa29000020fff716fa012070bd000045
S34508004a8060c10020d4ea0020e4de002000f0050801000608ffff0508600100081002000860210008081001401aec00201410014010100140d0e20020d481002010b5eff391
S34508004ac0108272b68368002b06d08168491e816082f3108800202fe000292ad0174b1c68174ba366e066c368002b0ad0c3682367c3685b6f6367c3685b6f1c67c3685c67d1
S34508004b0002e0c4602467646703695b1c0361062020630120a063e1640a480068401c0949086082f31088200001f012ffd4f8840002e082f310880d2010bd00bf84eb00202c
S34508004b407dfe00089ceb002062f30f2262f31f42401810f0030308d0c91a1fd3db0748bf00f8012d28bf20f8022d130030b414461546103928bf20e93c00fad8490728bf4f
S34508004b8020e90c0048bf40f8042d890028bf20f8022d48bf00f8012d30bc7047c91818bf00f8012dcb0728bf00f8012d70470ee002684368024408305feac37c44bf4b44cc
S34508004bc05b1e52f804cb43f804cb091ff9d150f8041b0029ecd17047dff8c80b0078704710b504002000c0b2fef780fb0120dff8b81be4b2085510bd80b50021002001f07f
S34508004c004bff02f006fa02f0fffd03f052ff03f090ff04f0b2ff05f015fe06f013f906f0a8fb01bddff8d81ad1f83c010068002804d10120d1f83c11086003e00020d1f8d1
S34508004c403c110860704730b4020092b2502a56da0a00d2b2022a08d10122dff8a43a0400a4b253f824301a601ae00a00d2b2012a08d10022dff8883a0400a4b253f82430c8
S34508004c801a600de0dff87c2a03009bb252f823201268dff86c3a0400a4b253f824301a60dff8082b0b00dbb202eb8303db78dff8004b0500adb254f8254023600b00dbb201
S34508004cc002eb83039b78dff8ec4a0500adb254f8254023600b00dbb202eb83035b78dff8d84a0500adb254f825402360c9b212f82110dff8c82a80b252f82000016030bca4
S34508004d0070470200d2b2042a44dadff8b40a026852f400620260dff8ac0a0a00d2b230f81200dff8a42a1080dff8a00a0a00d2b250f82200dff8982a1080dff8980a0a0024
S34508004d40d2b230f81200dff8902a1080dff88c0a0a00d2b230f81200dff8842a1080dff8840a0a00d2b230f81200dff87c2a1080dff8780a0a00d2b230f81200dff8702a30
S34508004d801080dff8700ac9b230f81100dff8681a08809be00200d2b2121f042a44d2dff8200a026852f400520260dff8180a0a00d2b230f81200dff8442a1080dff80c0a11
S34508004dc00a00d2b250f82200dff8342a1080dff8040a0a00d2b230f81200dff8282a1080dff8f8090a00d2b230f81200dff8182a1080dff8f0090a00d2b230f81200dff8ca
S34508004e000c2a1080dff8e4090a00d2b230f81200dff8fc291080dff8dc09c9b230f81100dff8f019088051e0c0b2083804284dd2dff8e409026852f4805202600068dff899
S34508004e40dc291060dff8d809026852f004020260dff870090a00d2b230f81200dff8c4291080dff868090a00d2b250f82200dff8b8291080dff85c090a00d2b230f81200eb
S34508004e80dff8a8291080dff854090a00d2b230f81200dff89c291080dff848090a00d2b230f81200dff88c291080dff840090a00d2b230f81200dff880291080dff834096c
S34508004ec0c9b230f81100dff8741908807047dff84809016851f4006101600068dff83c190860dff83c09016851f002010160dff85009018851f0010101804ff6ff70dff887
S34508004f004419088040f2cf20dff83c190880dff83c190a884ff2ff3002400a8008880005000d0880088850f4807008800a884ff6ff5002400a80dff81809018851f0100174
S34508004f400180dff81009018851f004010180704770b504000d00dff8c8180a68dff8f8082300dbb250f8230002430a60dff850180a68dff8e8082300dbb250f823000243d3
S34508004f800a60dff894180a68dff8d4082300dbb250f8230002430a600868dff880180860dff8c0680a212000c0b2305c80b2fff74afe00212000c0b2305c401c80b2fff745
S34508004fc042fedff8a468601c2100c9b206f82100601c2100c9b206eb81014870edb2012d1cd1dff8885800212000c0b2285c80b2fff729fe0a212000c0b2285c401c80b240
S34508005000fff721fe601c2100c9b206eb81018870601c2100c9b206eb8101c870dff888072100c9b2405c002803d12000c0b2fff7d7fd70bd70b5040021000420fef7ebff97
S3450800504000251ee021002800c0b2fef7e4ffdff81868210016f82500fef7ddff210006eb85004078fef7d7ff210006eb85008078fef7d1ff210006eb8500c078fef7cbfff4
S345080050806d1c042ddedb70bd80b5dff8e40706f0b1f901bddff86806d0f838110968c943d0f8380101607047e0b509214e20fff7cafd09214f20fff7c6fddff84406002183
S345080050c0d0f8382111600021d0f83c010160002002904ff4fa7001904ff4fa7000900023dff89027dff89017dff8840706f090f907bd10b5fff780fddff8740706f0cef941
S34508005100002406e000212000c0b280b2fff79bfd641c2000c0b25028f4dbdff8a406016831f400610160016831f400510160dff8f006016831f00401016010bddff8dc0637
S34508005140006830f0e060dff8d01608607047dff8c806016831f0e06101600068dff8bc1608600020dff8141708707047dff8a8060221026861f31a6202600068dff89c16ad
S3450800518008600120dff8f4160870704780b572b621208df8000001208df8010000208df8020001208df80300684606f0acf922208df8000001208df8010000208df80200d0
S345080051c001208df80300684606f09df925208df8000001208df8010000208df8020001208df80300684606f08ef926208df8000001208df8010000208df8020001208df813
S345080052000300684606f07ff927208df8000001208df8010000208df8020001208df80300684606f070f934208df8000001208df8010000208df8020001208df803006846f3
S3450800524006f061f91d208df8000001208df8010000208df8020001208df80300684606f052f962b601bd2de9f04f95b004000d0000265ff000085ff0000900208df800002d
S3450800528000272800fef72bff0100c9b2522906d00100c9b22a2902d04ff404763ce00100c9b2522916d15ff0000807e02800fef716ff01a901f8080018f10108b8f1500f18
S345080052c0f4db2800fef70bff80462800fef707ff814621e0c0b22a281ed15ff0000810e02800fef7fcfe0100c9b2090901aa02f8181010f00f0001a901eb4801487018f1de
S345080053000108b8f1280febdb2800fef7e8fe80462800fef7e4fe8146300080b2002840f03581fff769fcdff858a59df81100504490f8d000192802d1fff709ff01e0fff707
S3450800534015ff5ff0000b3ae001a85fea0b11514410f80b20895c0a00d2b2032a22d00a00d2b2122a1ed00a00d2b2042a1ad00a00d2b2052a16d00a00d2b2062a12d00a0084
S34508005380d2b2072a0ed00a00d2b2082a0ad00a00d2b2092a06d00a00d2b20a2a02d0c9b213290ad16a465fea0b11514410f80b00095c584680b202f008fb1bf1010bbbf14a
S345080053c0500fc1db5ff0000b07e004e00121584680b2fff738fc1bf1010bbbf1500f80f2b08001a85fea0b11514410f80b20895c002924d0012935d0022925d00b2936d03d
S345080054000c293fd00d294dd00e2950d00f2953d0102958d011291cd014293ed0172900f08280192900f084801a2900f08280fd2900f08180fe297dd0ff29c7d0c5e7584612
S3450800544080b203f0befbc6e7584680b203f0f3fbc1e758460100c9b23800c0b202f030fd7f1cb8e7584680b201f0f6fdb3e75fea0b11514410f80b00095c584680b204f099
S345080054800dfca8e75fea0b11514410f80b00095c584680b204f002fc9de7584680b204f0befc98e7584680b205f027fa93e7584680b202f012fd8ee7bbf11a0f02d1002023
S345080054c006f05cf887e7bbf10b0f04d101210020fff73efd26e0bbf1160f04d100210020fff736fd1ee0bbf1330f04d101210120fff72efd16e0bbf1350f04d100210120a0
S34508005500fff726fd0ee0bbf1380f04d100210220fff71efd06e0bbf12a0f03d100210320fff716fd57e7584680b205f09efc52e751e750e74fe70121584680b2fff783fb6d
S3450800554049e74046c0b2002815d0022095490870c74f380006f04efbfa22fa21380006f0a9fb380005f046ff4946c9b24046c0b201f092fa0ae001208a490870bc4806f099
S3450800558039fb00205e49d1f838110860300080b2002807d02300dbb20022310089b22800fef7e9fd002015b0bde8f08f2de9f841a1b004000d0000262800fef790fd794f74
S345080055c03978022902d040f211264de00100c9b2802906d00100c9b2202902d04ff4047642e00100c9b280290fd15ff00008404680b2802838da2800fef771fd01a942465d
S3450800560092b2885418f10108f1e7c0b220282bd15ff0000824e02800fef761fdc0f3011101aa43469bb202f823100100c9b2890901aa43469bb202eb8302517010f003018d
S3450800564001aa43469bb202eb83029170c0f3810001a9424692b201eb8201c87018f10108404680b22028d6db300080b2002836d15ff0000807e004e018f1500080b203f0e3
S34508005680dafa18f10108404680b2802818da01a8414689b2405c002805d002280ad003d30328e9d0e7e7ece718f1500080b201f0d3fce6e718f1500080b203f082fae0e768
S345080056c001a80090684601f00ffa03203870684806f090fa00200a49d1f838110860300080b2002807d02300dbb20022310089b22800fef740fd002022b0bde8f0810000d2
S3450800570064ee0008a4f1000870b504000d00002601212800c177c046290022480078fef77afc290055480078fef775fc01f039fc2900c0b2fef76ffc01f037fc2900c0b286
S34508005740fef769fc01f035fc2900c0b2fef763fc280001f032fc280001f0bbfe280003f0f2f8280003f026f9280003f095ff280004f0b6fe280006f0ebf82800fff75afc64
S34508005780280005f0b9fb300080b2002807d02300dbb20022310089b22800fef7ecfc002070bd000006ec002064eb0020e0ff0008e4f4000824f6000864f70008a4f80008a8
S345080057c01810024028030108002c0140500201082c2c014030030108182c0140380301081c2c014040030108202c014048030108442c014050030108142c014000340140de
S345080058002c340140183401401c34014020340140443401401434014068eb0020040001401c100240000800402c080040180800401c080040200800404408004014080040ce
S34508005840000400402c0400402804004018040040200400400c0400405401010864010108740101089803010828eb00205ac2000860e90020955000084402010807ec0020ed
S3450800588070de000880b50100eff3108272b6c868002806d18868401c886082f31088002023e0036f984202d10023cb600be0036fcb60036fd0f874c0c3f874c0436fd0f853
S345080058c070c0c3f870c00b695b1e0b610021816606490968491c054b196082f310880021c0f8841006f0f4f9002002bd9ceb002070b504000d0016001c220021200006f08c
S3450800590063fa6560a660eff3108072b60f4921600f49096800290bd00d49096889690c4a126894614c61a16109490968616103e007490c606461a46106490968491c054a62
S34508005940116080f31088002070bd00bf414d4553cceb0020d0eb002010b40022dff868341878aa2800d01a221879552800d01a2258780100c9b2002903d00100c9b24029ab
S3450800598000db1a220100dc78c9b2a14200d01a229978c9b2c9430300dbb2c9b28b4200d01a2292b2002a01d1c0b200e0002010bc70470022dff810140879552800d01a222b
S345080059c0c879552800d01a2248790300dbb2042b00db1a228979c9b2c9430300dbb2c9b28b4200d01a2292b2002a01d1c0b200e0002070470120dff8d41308700020dff814
S34508005a00d01308700020dff8cc130870704770b50400dff8bc53dff8bc6331782878081a0100c9b215290cdb14380ae0012000f011fa31782878081a0100c9b2152900db95
S34508005a401438c0b20b28f1da200000f003f8c0b200b270bdf8b50500012000f06dff0400dff870231178491c0800c0b2142800db0021dff85c3310781e78b0420ad1dff89b
S34508005a804c030078002805d1200000f055ff5ff0ff303ce00c20dff84063177847433744d5f804c0c7f804c0177847433744d5f808c0c7f808c017784743374495f802c034
S34508005ac087f802c02d88177800fb07f0355211701578d5f1140518784519dff8f012087800280ed000200870dff8f002016851f001010160dff8e8020068400101d500f0c2
S34508005b00d8f8200000f018ffedb2280000b2f2bd70b5b44c2178002902d05ff0ff3031e00c21b14db14a2b784b43d35a03802b784b4313449b7883702b784b4313445b6810
S34508005b4043602b7801fb03f11144896881602e78761c3000c0b20b2800db0026012000f0ebfe3100a24a1278c9b2914206d1012121702e7000f0e0fe002003e02e7000f036
S34508005b80dbfe012070bd38b54ff40072994b1a60994c226832f0f00230322260974a136833f4c04313f5804313600022884b1a700022884b1a700122844b1a7000228a4b14
S34508005bc01a7000228a4b1a700122864b1a708c4a11708c4a012313608b4b1d68ed07fbd58a4dc0b255f82000894d2860106850f00400106010684008400010601868c00734
S34508005c00fcd4c9b2080080b200f096f8022073490860206830f0f000b030206031bd4ff40070744908607448016831f0f00130310160704772480078704730b46c4a117893
S34508005c40491c0800c0b20b2800db00211078664b1b78984207d163480078002803d120206c49086023e00c20604b6b4c2468640d157845435c53147844431c44674d2d6800
S34508005c8015f00f05a570147844431c44644d2d686560147800fb04f01844624b1b68836020205c4b186000204e4b1870117030bc704730b44549087800280ad04748016890
S34508005cc04908490001604648016851f00101016030e0554a0c233e483f4c05785d4325446d68956005785d432544ad68d56005785d432544ad785560057803fb05f3e35ae1
S34508005d005b055b1c13600278521c1300dbb2142b00db002213002f4c2478dbb2a34208d101230b702d490b685b085b000b60027000e0027030bc70473c4901220a603c4a22
S34508005d400123136013685b085b0013600022394b1a600022384b1a6080b2400110f17870364a10603648374a10600120364a106000200860704718b4194b1a6812f0e052a2
S34508005d80b2f1e05ff8d1284ac0b2304c14eb00649460d16008205060194800782c4911eb40511160186810f0e050b0f1e05ff9d10020009002e00098401c00900098b0f571
S34508005dc07a6ff8d311bc7047f0ff00201eec00201cec00201dec0020e0e10020146400400864004021ec00201fec00208ce5002020ec0020100c0140040c01400400014086
S34508005e0022ec00200064004004640040140201081c6400400c640040b0650040b4650040b8650040bc6500408065004000660040046600400c660040146600404066004018
S34508005e400000e0ff446600401c660040150080000100001010b513490c68002c03d012490968002901d013201ae0002801d1002016e0eff3108172b6042222630122a263de
S34508005e800022c4f88420e06408480068401c074a106081f31088200000f05afdd4f8840010bd00bf84eb00201c0000209ceb0020002807d100207049086080206f49086077
S34508005ec0002016e06c4a6e494840106011686d4841406d48814209d16c48116801606c490160002065490860002002e0002010602c20704780b55ff0ff3066490860664930
S34508005f0008606649086066490860fff788fe654965480860002000e0401c6428fcd36348086001bd54490968002901d1272016e0524902220a605e4a1060086850f040007f
S34508005f4008605c490800411e002803d05a480068c007f7d4002901d10b2000e000207047ff2056490870564908700020554908600020704710b44f4b0122404c22600180d1
S34508005f801a00531e002a03d04b4a1268d207f7d4002b01d1192006e0008889b2814201d1002000e0282010bc704780b5454a1068002809d0414800784149097811eb0021f3
S34508005fc089b21068fff7d6ff002002bd2de9f04104000d00002028490968002901d1272047e0384e316800290ed16108490031603349ff220a70314b1a703268a24201d19c
S345080060000d7035e01d7033e0306861084900884214d13068a04202d12948057001e027480570264800782649097811eb002189b23068fff79fff0021316019e01f4fdff8e5
S345080060408080387898f8001011eb002189b23068fff790ffff2188f8001039706108490031603168a14202d188f8005000e03d7080b2bde8f081000078eb002010200240c8
S3450800608055af23505231c2ab7130a5ee04200240ab89efcd80e100e084e100e080e200e084e200e00ced00e00400fa050100fa051420024040420f000c20024023ec002053
S345080060c024ec002074eb0020f8b506000c001500fff746ff002701e0761c7f1c3800210080b289b288420bd2380080b2295c3000fff76cff010089b20029edd080b202e07c
S34508006100fff753ff0020f2bd80b572b6244825490860fff784fd012005f07cfe212005f0c1fe0028fad0002005f085fe5ff4803005f054fe312005f0b5fe0028fad05ff48d
S3450800614080115ff4803005f069fe012005f06ffe392005f0a7fe0028fad04ff4404005f08bfe002005f07ffe4ff4806005f073fe002005f068fe022005f0c0fe002005f0f8
S34508006180c6fe102005f0cdfe022005f054fe40f2fd10054908605ff090500449086001bd0020000808ed00e0181002401c10024080b572b64ff4407005f0a0f914208df8b1
S345080061c0000001208df8010000208df8020001208df80300684605f096f913208df8000001208df8010000208df8020001208df80300684605f087f962b601bd80b5d14872
S34508006200016851f480410160cf48016831f4700111f530010160016821f0704111f130410160ca48016851f0010101608020c84908609020c7490860c748c8490860c849da
S3450800624008600e208df8000003208df8010000208df8020001208df803000720c14908805420c14908800022c049c148fff740fb0122c049c048fff73bfb684605f043f999
S3450800628001bd2de9f04104002000c0b2152801db3b20c5e0dff8e4e25ff0000c0800c0b21d2801d33b20bbe0089d06980c26b44fa0465ffa88f806fb08f8b844a8f8065071
S345080062c0b04dc9b255f821102500edb2754379512100c9b2714339440a712100c9b271433944a14a128892b232f03b028a60c0b200280bd02000c0b2704338442100c9b25b
S3450800630071433944896851f0020181600798dbb2002b10d02100c9b2714339442200d2b272433a44926852f001028a6003e01cf1010c5fea5e0e704503d26146c9b2072974
S34508006340f5db0998c0f800e02000c0b2704338442100c9b27143394489685ffa8cfc5feacc0c1ffa8cfc5cea010cc0f808c02000c0b27043395801222000c0b27043384457
S3450800638090f9040082400a612000c0b2704338440079082822db2000c0b2704339582000c0b27043385842680f232000c0b270433844007910f00700c0b2800083409a4354
S345080063c00323e4b2744307eb0400007910f00700c0b2800083409a184a6020e02000c0b27043385801680f222000c0b270433844007910f00700c0b2800082409143032238
S345080064002000c0b270433844007910f00700c0b2800082405118e4b27443385901600020bde8f0812de9f84f0400884691469a462000c0b2152801db3b2076e00c25504e6a
S345080064402000c0b268433058002801d13f206ce0494f64213800fef731fb002801d0382063e0c3462000c0b26843304480683e4908803948018889f80010008889f8000045
S345080064805ff001082000c0b2684330582100c9b2694331440979103118fa01f101612000c0b268433044c088fff7d4fc2848016849084900016027490a68520852000a6040
S345080064c0314ac2f80090314ac2f800b05246d2b22f4b1a605ffa8afa2e4ac2f800a04ff480522d4b1a60026852f00b020260086850f00100086014211d48fef7dffa210061
S34508006500c9b269437258e4b26c4306eb040191f9041018fa01f8c2f81080002801d0392003e03800fff7aef90020bde8f28f80b5074801680909090101600d48fff7a2f98e
S3450800654001bd00001c100240040c01401410024044000240580002400c3800404c00024060000240043800400038004088030108f0ea0020240201080ceb002080a8120153
S34508006580e4e00020000000205000024064000240480002405c0002400400024010b4dff88c43a378002b0bd0c0b230f0080013005b0913f00803184308704a70881c0ee05a
S345080065c00870637804e01800c0b20a54120a5b1e1800c0b20028f6d160780844401c10bc704778b585b00020dff844130878002801d000203ae001200870ce4c23000822fa
S345080066004ff40051012000f042f804a803900020029001940020009000230c2201210020fff72ffe010089b2002901d080b21de0be4c0620a07214f14e0514f10a06012349
S345080066402a0031000020fff7edfe010089b2002901d080b20ae00120a0720020e07201232a0031000020fff7ddfe80b206b070bd30b4ae4c2578057060680860e07810703c
S3450800668021894ff47a704143196030bc704730b585b00400a54d69602c701000c0b2412800db40221000c0b2002801d0ea7001e00820e870b1f5007f04d10120a87001202e
S345080066c0687019e0002203e0686840086860521c2879c00702d468680028f5d10120904068606868884201d036201ee00020a870d2b2d208521c6a70e4b2022c01d1402020
S34508006700e87004a803900020029001930020009000230c2201210020fff7b3fd04984ff47a71b0fbf1f02881002005b030bd2de9f84306000d0014007d480078002801d115
S345080067403e2045e0794f7868290089b28919884201d235203ce05ff040080fe00a782270491c641c401c0200434692b29bb29a42f4d3b5eb0805404680b28619280080b2d4
S34508006780002824d017f10a09320049460320fff705ff2800414680b289b2884200d2a8467b7813eb08035b1cdbb217f14e0249460020fff737fe010089b2002905d17878b3
S345080067c0384410f14f010020cde780b200e00020bde8f2832de9f047554b1b78002b01d13e20a1e08146514c60680b009bb213eb0903984201d2352096e094f803a088463f
S34508006800170001e094f803a0404680b2002800f08a800620a07214f14e0514f10a0601232a0031000020fff7fdfd4a4631000220fff7b4fee178491e19ea010f13d141464c
S34508006840524689b292b2914200d2c24600210a00534692b29bb29a4224d23a7802707f1c401c491cf3e794f803a01aeb090ae178491ec94311ea0a0abaeb090a41465246cc
S3450800688089b292b2914200d2c246002104e03a7802707f1c401c491c0a00534692b29bb29a42f4d3637813eb0a035b1cdbb22a0031000020fff7b6fdb8eb0a081ffa8afae2
S345080068c01aeb09095ff00a0a207801289ad1baf1010a0120fff7befa0520a07202232a0031000020fff79efd0100080080b200280cd194f84f00c0070bd50120c0b200287a
S3450800690009d0504680b20028e1d104e0080080b20ae00020f2e71ffa8afabaf1000f7ff471af342000e00020bde8f087f8e400201bec002080841e00eff3108180f31088b0
S345080069400846704701480068704700bf84eb002010b504004848006884420ad1e06c002807d05ff0ff31884203d014f14c0005f0e5faeff3108072b640490968491e3f4adc
S345080069801160a16b002964d00021a163e16a226aa2421ad0226a636a5362626a236a1362374a52f82120a24253d1354a236a42f82130344909688c424bd133490968304a5f
S345080069c052f821102f4a116043e02d4a002342f821302e4a1268012313fa01f1c94311402a4a11600021294a1268d3b2002b20d1120ad3b20831002b1bd1120ad3b208310b
S34508006a00002b16d1120ad3b20831002b11d11e4920220a601b4900220a6080f310881c480068164909680843002823d105f0c8fa20e0184a9a5c5118134a1160114909682d
S34508006a408c4206d1104909680d4a52f821100d4a116080f31088084800680a490968884208d00b480068054909680843002801d105f0a6fa10bd00bf84eb00209ceb0020c0
S34508006a8010e7002088eb002098eb002094eb00201c000020e4df002070b504000d00dff8e0633078012805d1dff8d80305f08afa0020307000200ce00021dff8cc230300e5
S34508006ac0dbb2d1540021dff8c4230300dbb2d154401c0100c9b28029eedbdff8b4030570dff8b003047070bd2de9f04f8bb00700dff8a043dff8a053207805ebc000867869
S34508006b005ff000095ff0000b5ff0000a102100220df11c084046fef717f839685ff0000800221be01af1010a17e007ab5846c0b21f5cdff86803d4465ffa8cfc10f80c008d
S34508006b4007405846c0b21f54491c5046c0b20728e8db5ff0000a1bf1010b521ccc4f1300dbb297f800c03000c0b200fb0cfcb3ebcc0f2fda00200b78002b05d0022b0dd021
S34508006b8007d3032b0fd013e0207805ebc00080790ee0207805ebc000807909e0207805ebc000807904e0207805ebc000c079ffe7c0b20128b9d107ab5846c0b21f5cb848a6
S34508006bc0d4465ffa8cfc10f80c0007435846c0b21f54b9e75ff0000a23e007aa4346dbb2d25c04ab8c465ffa8cfc63445a7018f10108491c0a003300d2b2dbb29a42ecd387
S34508006c00012102910121019100210091002303aa711cc9b2c0b204f030fe19f101091af1010a50463978c0b2884214d204a80390207815f830004a46d2b2217805ebc101b9
S34508006c40497801fb0200217805ebc10149798df810100021cee78a4c2078002815d10120059000200490012003900a2002904ff47a7001908b48009000230ff2e5128a495a
S34508006c80804805f0d7f9012020700bb0bde8f08f2de9f84189b007a9844ad2e90034c1e9003400240568002601e0641c761c300077490978c0b288424ad2764fdff8d8816e
S34508006cc0387808ebc000c0788df80c0003a8069005a80490012002900120019004a80090042306aa0121387818f830c0a6465ffa8efe387808ebc000407800fb0ecc604627
S34508006d00c0b204f0bafd002000e0401c01003a7808ebc2029278c9b29142c6d2002102e001222a7011e00a00d2b2082aedda05aa0300dbb2d25c07ab8c465ffa8cfc13f85d
S34508006d400c301a42ecd100222a706d1c491ceae70ab0bde8f081f0b58db00ba9544ad2e90034c1e9003400240568002644e008a9002200235ff0000c81e80c10017807eb48
S34508006d80c10109798df8201008a99df818204a7006aa53788b709378cb70d3780b7113794b7153798b719379cb71d2790a7208a9059103a90491012102910121019104a954
S34508006dc00091002305aa017807ebc1018978491cc9b290f800c017f83cc0a6465ffa8efe007807ebc000407800fb0ecc6046c0b204f043fd641c761c300025490978c0b24a
S34508006e0088422bd20821002206af3800fdf79cfe002117e0287801280dd106aa0800c0b2175c0ba89c465ffa8cfc10f80c0007430800c0b217546d1c5b1c1800c0b20828e8
S34508006e40e8db491c1348144f0a00037807ebc3039b78d2b29a428ad20023eee70db0f0bde0b5094801900948009001a8fff710ff6846fff770ff6420fef7ecfff5e7000057
S34508006e8019ec0020b0e3002010e6002090e6002017ec002018ec0020f8fe00088003010878030108789a0020b00201086803010870030108f8b50024012769e03800c0b222
S34508006ec016f8200055f820000068c0b2002852d13800c0b216f8200055f8200000683900c9b206eb8101c978c0b2884243d03a00d2b21221dff844050078fdf739f8641c32
S34508006f0039e0dff83c653800c0b206eb8000407801283cd13800c0b206eb8000807801f064f8012833d12000c0b206282fdadff814553800c0b216f8200055f82000006866
S34508006f40c0b20128bad13800c0b216f8200055f8200000683900c9b206eb8101c978c0b28842abd03a00d2b20321dff8d0040078fcf7feff641c3800c0b216f8200055f877
S34508006f80200000683900c9b206eb8101c8707f1cdff8b40400883900c9b289b28842b0d2f1bddff8a80400787047dff8900400787047dff89c0400787047f8b50400dff8c7
S34508006fc0886421003088c0b2fdf725f801251ce021002800c0b2fdf71ef8dff86474210007eb85004078fdf716f8210007eb85008078fdf710f8210017f82500fdf70bf87b
S3450800700021000020fdf707f86d1c3088a842dfdaf1bd10b5dff83c442078012805d1dff8380404f03bfa002020700020dff81814088001200de0dff80814002201f82020d6
S34508007040002201eb80035a70ff2201eb80018a70401cc828efdb10bddff8ec13dff8e0230b8802eb8303187100200b8802eb830250710888401c088070472de9fe43040091
S345080070800d0000262800fdf72af880462800fdf726f88146fdf7a0fd002802d140f212265be0fdf799fd022802d140f2122654e04046c0b2042802db4ff480764de048463f
S345080070c0c0b2022802db4ff4807646e04846c0b2012802d140f215263fe0300080b200283bd1dff8687387f80080dff8640380f80090dff848030470dff8588398f80000bd
S34508007100002815d1dff8540301210291397830f811100191397830f8110000900023d04ad049cd4804f074f9012088f8000014e0012088f80000dff82083404604f05afdfd
S34508007140c648397830f81120397830f81110404604f0b0fd404604f04df9300080b2002807d02300dbb20022310089b22800fdf702f80020bde8fe832de9f84f04000d009f
S345080071805ff000082800fcf7aaff060000271ce0404680b2002817d1a9485946c9b200eb810181f801905ffa8bfb00eb8b0080f802a009e05046c0b21028e9db5046c0b2cf
S345080071c0ff28e5d04ff480787f1c38003100c0b2c9b288422ed22800fcf781ff83462800fcf77dff81462800fcf779ff8246fdf7f3fc002802d140f21228e5e7fdf7ecfca0
S34508007200022802d140f21228dee75846c0b2002806d08d4800885946c9b289b2884202d24ff48078d0e74846c0b20228c2db4ff48078c9e7404680b2002807d02300dbb2a9
S345080072400022414689b22800fcf795ff0020bde8f28f2de9f04104000d0000262800fcf73eff0700fdf7b8fc002802d140f2122640e0fdf7b1fc022802d140f2122639e0fc
S345080072803800c0b2002806d06f4800883900c9b289b2884202d24ff480762be0300080b2002827d129003800c0b2fcf7b4fedff890813800c0b208eb8000807800f095fe8e
S345080072c001280cd129005f483a00d2b218f8222050f822000068c0b2fcf79dfe03e029000020fcf798fe2900ffb208eb87008078fcf791fe300080b2002807d02300dbb234
S345080073000022310089b22800fcf735ff0020bde8f0812de9f047b2b004000d0000262800fcf7ddfe07005ff000091ae0e8462800fcf7d5fe4946c9b208f801004846c0b2d0
S3450800734018f80000002808d03f4800884946c9b218f8011089b2884201d24ff4807619f1010948463900c0b2c9b28842ded3fdf733fc002811d140f21226300080b2002840
S3450800738007d02300dbb20022310089b22800fcf7f2fe002032b0bde8f087fdf71dfc022802d140f21226e8e7300080b20028e4d101212800c177c04629003800c0b2fcf7b1
S345080073c02afe5ff000080fe029000020fcf723fe29004046c0b21af8000009eb80008078fcf719fe18f1010840463900c0b2c9b28842c2d2ea4629004046c0b21af800008c
S34508007400fcf709fedff838904046c0b21af8000009eb8000807800f0e8fd0128d4d1290008484246d2b21af8022019f8222050f822000068c0b2fcf7eefdc9e70bec002097
S3450800744040c80020a4f10008fceb002008ec002009ec00200aec00208ce9002058030108b56e0008840101080100ff221000c9b2032917d0042919d0052919d0062919d03c
S34508007480072919d0082919d0092919d00a2919d00e291bd0122907d0132915d0ff2916d1100014e0012012e0022010e003200ee004200ce005200ae0062008e0072006e07c
S345080074c0082004e0092002e00a2000e00b20c0b27047f8b5040021001020fcf79cfd00254fe02100dff8240b07fb05f232449278805cfcf790fd0de021000320fcf78bfd7f
S3450800750007fb05f030448078ff28ead12100ff20fcf781fd21000720fcf77dfd210007fb05f03044007bfcf776fd210007fb05f030440069fcf795fc210007fb05f0304420
S345080075404069fcf78efc210007fb05f030440079fcf761fd210007fb05f03044006afcf780fc210007fb05f03044c069fcf779fc210007fb05f706eb07008069fcf771fc9f
S345080075806d1c102d2ada21002800c0b2fcf743fd2827dff8086d210007fb05f03044c078fcf739fd07fb05f0305cfff75dff2100c0b2fcf730fd210007fb05f030444078b1
S345080075c0fcf729fd07fb05f0305cfff74dffff2892d121000020fcf71efd91e7f1bd2de9f04106000f002824dff8b05c380080b2390089b2484304f0a5fd3100c9b26143c6
S345080076002944096a04f0b0fd8046bfb2380004f017fe3100c9b261432944c96904f0a4fd414604f01bfef6b2664305eb0601896904f014febde8f0812de9f84300249ce0e4
S34508007640380004f0bdfe02000b00904699462000c0b268433044006904f0b2fedff8a42adff8a43a04f0d0fe42464b4604f0a2ff18d32000c0b268433044406904f0a0fef4
S34508007680dff8882adff8883a04f0befe02000b0090469946380004f093fe42464b4604f089ff69d22000c0b26843304490f8250032281fd12000c0b268433044007b01289e
S345080076c011d12000c0b26843304490f82400002809d12200d2b213212000c0b268433044c078fcf745fc2000c0b268433044012180f824102000c0b2684330442100c9b278
S3450800770005fb01f506eb050191f82510491c80f8251031e038002100c9b269433144096904f062ff8cd22000c0b268433044007b012811d12000c0b26843304490f82400bf
S34508007740012809d12200d2b201212000c0b268433044c078fcf70cfc2000c0b268433044002180f824102000c0b205fb00f506eb0500002180f82510641c2000c0b2102839
S3450800778040dadff81c0b2100c9b230f811102000c0b2fff724ff07002825dff8006b2000c0b2684330444069390004f01dffb1d22000c0b268433044007b012811d1200000
S345080077c0c0b26843304490f82400012809d12200d2b202212000c0b268433044c078fcf7c7fb2000c0b268433044002180f824102000c0b205fb00f506eb0500002180f840
S345080078002510b9e7bde8f1833eb5dff8984a2078012807d1dff8900a03f040fedff8500c04f0f6fedff8840a016851f400710160dff87c5a280004f063ff0121280004f0fc
S345080078408fff280004f099ff280004f09bff0028fad1280004f09fff280004f0a1ff0028fad1002044e02821dff8302aff2301fb00f515446b7001fb00f51544eb7001fb00
S3450800788000f51544ab70002301fb00f515442b71002301fb00f51544ab60002301fb00f515442b73002301fb00f515442b61002301fb00f515446b61002301fb00f5154426
S345080078c0ab61002301fb00f51544eb61002301fb00f515442b62002301fb00f5154485f82430002301fb00f1114481f82530401c1028b8dbdff87c1b00200860dff8782bb3
S3450800790000201060dff8740b036853f001030360dff86c0bdff86c3b1860dff88409dff8683b18601020dff8643b1860106850f480501060136840f2a2700343136010689a
S3450800794050f0010010604ff49070dff8442b10604ff481700860dff83c0bdff83c2b1060dff8380bdff8382b1060dff8380bdff8382b1060dff8340bdff8342b1060dff8cc
S34508007980340bdff8342b1060086850f001000860086850f001000860012002900a2001900a2000900023dff8142bdff8141bdff8f80803f02dfd0022dff8081bdff8b00a9a
S345080079c004f0fefe0120207037bdf8b504000f0015001026200080b200281ed001281ed002281ed003281ed004281ed005281ed006281ed007281ed010281ed011281ed06e
S34508007a0020281ed021281ed022281ed023281ed024281ed025281ed01fe000261de001261be0022619e0032617e0042615e0052613e0062611e007260fe008260de00926a0
S34508007a400be00a2609e00b2607e00c2605e00d2603e00e2601e00f26ffe73000c0b2102880f22d820321200080b2fdf7ecf82820dff828183200d2b242430a4454703a0050
S34508007a80d2b2032a1ad0042a00f08b80052a00f0ba80062a00f0e980072a00f01781082a00f04581092a00f074810a2a00f0a581122a3bd0132a00f0d38100e23200d2b2af
S34508007ac042430a44042313713200d2b242430a44dff82c3c13613200d2b242430a44dff8243c53613200d2b242430a44002393613200d2b242430a440023d3613200d2b214
S34508007b0042430a44002313623200d2b242430a44dff8f43b93603200d2b242438f54f6b2464301eb0600ff218170c8e13200d2b242430a44042313713200d2b242430a4492
S34508007b40dff8bc3b13613200d2b242430a44dff8b43b53613200d2b242430a44002393613200d2b242430a440023d3613200d2b242430a44002313623200d2b242430a4488
S34508007b80dff8843b93603200d2b242438f54f6b2464301eb0600297881702878401c28708de13200d2b242430a44022313713200d2b242430a44dff8183c13613200d2b249
S34508007bc042430a44dff80c3c53613200d2b242430a44002393613200d2b242430a44dff8f83bd3613200d2b242430a44002313623200d2b242438f54f6b2464301eb060008
S34508007c00ff2181705be13200d2b242430a44022313713200d2b242430a44dff8c03b13613200d2b242430a44dff8b43b53613200d2b242430a44002393613200d2b242430a
S34508007c400a44dff8a03bd3613200d2b242430a44002313623200d2b242438f54f6b2464301eb0600ff21817029e13200d2b242430a44022313713200d2b242430a44002367
S34508007c8013613200d2b242430a44dff85c3b53613200d2b242430a44002393613200d2b242430a44dff8443bd3613200d2b242430a44002313623200d2b242438f54f6b2fd
S34508007cc0464301eb0600ff218170f8e03200d2b242430a44022313713200d2b242430a44002313613200d2b242430a44dff8003b53613200d2b242430a440023936132009f
S34508007d00d2b242430a44dff8ec3ad3613200d2b242430a44002313623200d2b242438f54f6b2464301eb0600ff218170c7e03200d2b242430a44032313713200d2b2424325
S34508007d400a44dff8b43a13613200d2b242430a44dff8a83a53613200d2b242430a44002393613200d2b242430a44dff8943ad3613200d2b242430a44002313623200d2b29f
S34508007d8042438f54f6b2464301eb0600ff21817095e03200d2b242430a44072313713200d2b242430a44dff85c3a13613200d2b242430a44dff8503a53613200d2b242432a
S34508007dc00a44002393613200d2b242430a440023d3613200d2b242430a44002313623200d2b242438f54f6b2464301eb0600297881702878401c287061e03200d2b242432c
S34508007e000a44032313713200d2b242430a44002313613200d2b242430a44dff8f03953613200d2b242430a44002393613200d2b242430a440023d3613200d2b242430a44d6
S34508007e40002313623200d2b242438f54f6b2464301eb0600297881702878401c28702ee03200d2b242430a44022313713200d2b242430a44002313613200d2b242430a440c
S34508007e80dff8643953613200d2b242430a44002393613200d2b242430a44dff85039d3613200d2b242430a44002313623200d2b200fb02f00f54dff858090670ffe7f1bd66
S34508007ec080b50a00dff84c19c0b20a540721d2b2100080b2fcf7b7fe01bd10b50400200080b2042828d1dff83009016851f0005101600321200080b2fcf7a5fedff81c0921
S34508007f00016851f0010101600020dff8141908602820dff81019220092b242430a4454700e2223009bb24343ca54a4b2444301eb0400022101712be0200080b2052827d12d
S34508007f40dff8d408016851f0005101600321200080b2fcf778fedff8c408016851f4803101600020dff8c01808602820dff8b418220092b242430a4454700e2223009bb2e3
S34508007f804343ca54a4b2444301eb04000221017110bd80b5002104f013fadff89028dff8903804f031fa0022dff8883804f03cfc04f06afd80b2dff86818086001bd80b518
S34508007fc0002104f0fdf9dff86428dff8643804f01bfa0022dff85c3804f026fc04f054fd80b2dff84418086001bd0100c9b2112901db012007e0dff82c28c0b2282148430b
S34508008000104490f82400c0b27047000038eb0020f8b5050000200024a1482900c9b230f81160dff8ec271178ff2919d0117830f811101078fff7d3fa0700300004f000f9e5
S34508008040964aedb228214d4302eb0501896804f037fd0100380004f087f804f0bdfd0600dff8d457b5f90000864202d3dff8cc073ae0b5f9da00b04203d3dff8c40733e018
S34508008080641c2000c0b235f910008642f8d3641e2000c0b235f91000861b300004f0d0f806002000c0b235f910002100c9b205eb4101b1f90210401a04f044f801003000d5
S345080080c004f0fefc0500e4b2200004f0b9f80100280004f0c3f804f073f90022dff8643704f0a2fb04f084fddff85c1704f0b4fd04d9dff80c1604f077fa01d2dff84c072b
S34508008100f2bd0000295c8fc2f528f03fae47e17a14aeef3f2de9f14f84b00c0000252000fbf7ddff8df80100002657e0280080b2002852d13800c0b2504318449df81010a1
S34508008140c1703800c0b2504318449df8001001733800c0b250431844029901613800c0b250431844019941615ffa88f8b8f1010f33d14846c0b2002805d03800c0b25043d3
S34508008180184480f804903800c0b250431844039901623800c0b250431844c0f81ca0ffb2574303eb0700c0f818b016e09df80000022810da0298019904f04efd0bd9484660
S345080081c0c0b20c2807da4046c0b2022803da3800c0b21028aadb4ff48075761c30009df80110c0b2884248d22000fbf778ff07002000fbf774ff8df800002000fbf735feaf
S3450800820002902000fbf731fe01902000fbf767ff80462000fbf763ff81462000fbf725fe03902000fbf721fe82462000fbf71dfe8346fcf7d1fc002802d140f21225cce7c5
S34508008240fcf7cafc022802d140f21225c5e72822dff8d0353800c0b2504318444078ff2802d140f22115b8e73800c0b25043185c0e289bd140f22315afe7280080b20028d8
S3450800828007d09df810300022290089b22000fbf772ff002005b0bde8f08f000070ce0020b4ea00200cec0020b8e9002018100240002401402de9f84f04000d000026280082
S345080082c0fbf70dff0700fcf787fc002802d140f21226bde0fcf780fc022802d140f21226b6e0300080b2002840f0b280dff880814ff47a71404604f0c3fcc0b2002840f092
S3450800830099805ff02809dff81ca53800c0b209fb00f050448078ff2816d03800c0b209fb00f01af800000a280ed0dff82405dff8e4143a00d2b209fb02f252449278895cfd
S3450800834050f82100012101603800c0b209fb00f050448068002104f07ffc0ad23800c0b209fb00f050448068fff713fec820fdf771fd3800c0b209fb00f01af80000032837
S3450800838007d03800c0b209fb00f01af80000122805d13800c0b2fff73bfe834615e03800c0b209fb00f01af800000e2802d1dff89cb40ae0dff89c043900c9b230f8111043
S345080083c03800c0b2fff70bf9834629003800c0b2fbf721fe29005846fbf743fd29003800c0b209fb00f050440079fbf714fe3800c0b209fb00f050448078ff2816d03800de
S34508008400c0b209fb00f01af800000a280ed0dff84004dff80014ffb209fb07f70aeb07029278895c50f8210000210160404604f0b5fc0de029003800c0b2fbf7ecfd290026
S34508008440dff8c403fbf70dfd29000020fbf7e3fd300080b2002807d02300dbb20022310089b22800fbf787fe0020bde8f28f0000b8e80020082401400800024014100240d8
S345080084804c24014010000240140002400c00024004240140922449000c2401409224491210240140acb9f7002c240140e6a0a416302401402088410a3424014039760008a3
S345080084c094010108a40101082de9f14f86b00c0000252000fbf703fe8df80000002607e02000fbf7fcfd01a93200d2b28854761c30009df80010c0b28842f1d3fcf76cfbb8
S34508008500002802d140f2122505e0fcf765fb022801d140f21225280080b2002840f0de8021009df80000fbf776fd00265be0210001a83200d2b2805cfbf76dfd2100b248cd
S34508008540fbf78ffc21000020fbf765fd4ae0c1483100c9b21af8011030f811103000c0b21af80000fff73bf8834621003000c0b21af80000fbf74ffd21005846fbf771fcb9
S3450800858021003000c0b21af8000008fb00f048440079fbf740fd3000c0b21af8000008fb00f048448078ff2819d03000c0b21af8000008fb00f019f800000a280fd0a448c1
S345080085c094493200d2b21af8022008fb02f809eb08029278895c50f8210000210160380004f0dcfb761c30009df80010c0b2884274d2994f4ff47a71380004f041fbc0b2f5
S34508008600002894d15ff02808dff818920df1040a3000c0b21af8000008fb00f048448078ff2818d03000c0b21af8000008fb00f019f800000a280ed0854876493200d2b24f
S345080086401af8022008fb02f24a449278895c50f82100012101603000c0b21af8000008fb00f048448068002104f0f6fa0cd23000c0b21af8000008fb00f048448068fff749
S3450800868088fcc820fdf7e6fb3000c0b21af8000008fb00f019f80000032809d03000c0b21af8000008fb00f019f80000122807d13000c0b21af80000fff7aafc834654e791
S345080086c03000c0b21af8000008fb00f019f800000e287ff43cafdff874b146e7280080b2002808d09df81830dbb20022290089b22000fbf740fd002007b0bde8f08f000063
S34508008700000010c1cdccc742000040402de9f04104000d0000262800fbf7e1fc07002800fbf7a3fb8046fcf757fa002802d140f212262fe0fcf750fa022802d140f21226e2
S3450800874028e03800c0b2012804d1364890f8a0000e2808d13800c0b2022807d1314890f8c8000e2802d040f2211613e03800c0b203280dda3800c0b2002809d04046374940
S3450800878004f06afa04d94046002103f02dff01d24ff48076300080b2002809d1ffb2012f03d14046fff7f5fb02e04046fff707fc300080b2002807d02300dbb2002231005a
S345080087c089b22800fbf7d7fc0020bde8f0810000cdccac413333d3414350093c33331742cdcc38427742743c333353406740533a000020410596523c6f12833b0ad7a33c44
S34508008800820dc4360000a04000401c469a9949402000002038eb00201c100240007400400874004070ce0020147400408c2ebae8a26393400000e03ffcfb00080000c8c200
S345080088400000c842000022c00100c6425cff794464ee0008b4ea0020b8e8002034335340f8b5dff8840b0088adf80000002661e03000c0b2604328440021417125e00624b1
S34508008880dff8685b3000c0b260432844407800284fd0dff85c7b3000c0b26043285c57f8200000683100c9b2614329440979c0b28842ddd03000c0b2604328443100c9b28d
S345080088c0614329444979491c4171dff8280b3100c9b261432944497830f811003100c9b261432944497989b2884222d23200d2b268463100c9b2614329440979415c3000d7
S34508008900c0b260432844c078fbf732fb3000c0b260432844002141713000c0b2604328443100c9b204fb01f4295d57f8211009680171761c3000c0b2dff8bc1a098880b2ef
S3450800894088429cd3f1bd2de9f0410400dff8a85a21002888c0b2fbf75efb002625e021003000c0b2fbf757fb0627dff8808a210007fb06f018f80000fbf74dfb210007fb8a
S3450800898006f04044c078fbf746fb210007fb06f040444078fbf73ffb210007fb06f708eb07008078fbf737fb761c28888642d6dbbde8f081f8b50400dff8406a2100308831
S345080089c0c0b2fbf728fb002512e021002800c0b2fbf721fbdff8807c210017f82500fbf71afb210007eb85004078fbf714fb6d1c30888542e9dbf1bd10b400202fe0030012
S34508008a00dbb211f8233052f823300400e4b211f8241052f82110096831f0010119601de0d2b2012a1ad1dff8042c0300dbb211f8233052f823301b78db07e0d40300dbb263
S34508008a4011f8233052f823300400e4b211f8241052f82110096851f001011960401c0100c9b2dff89829128889b2914215d20022dff8e41b0300dbb201eb83039b78022b37
S34508008a8002d0032b02d0cbe70122c9e7dff8cc3b1b78012b00d10122c2e7dff8c00b0178491c01700178022901db0021017010bc70471fb50020dff84019088000201be0ca
S34508008ac00621dff82829002301fb00f41355002301fb00f414446370002301fb00f41444a370ff2301fb00f41444e370002301fb00f111444b71401cc628e1dbdff8604b7c
S34508008b002078012803d1dff85c0b02f0c7fc0120029064200190642000900023dff8482bdff8481bdff83c0b02f072fc012020701fbd7fb50020dff8c4180880002421e05d
S34508008b40142c11da3025dff8286b05fb04f0305c012805d105fb04f03044001d02f09efc002005fb04f57055dff8ec0a002100f82410002100eb84029170072100eb84004b
S34508008b804170641cc52cdbdbdff8e84a2078012803d1dff8e40a02f081fc012002904ff4fa7001904ff4fa7000900023dff8cc2adff8cc1adff8c00a02f02afc01202070b8
S34508008bc07fbd10b50621dff83048dff8202823884b43d054238801fb03f11144897880b2fcf731f82088401c208010bddff8681adff8382a11f8203052f823301b78db07c7
S34508008c000cd411f8203052f8233011f8200052f82000006850f0010018600be011f8203052f8233011f8200052f82000006830f00100186070477fb5dff8c047dff8181a55
S34508008c40228801f82200228801eb8201497880b2fbf7f9ff2088142818da3025dff8106a0120029000200190002000902388dff8142adff8141a208868433044001d02f000
S34508008c80c7fb0120218805fb01f570552088401c20807fbdfeb5040015000800c0b2022814dbdff8b409dff884292300dbb210f8233052f8232012682300dbb200eb8303d5
S34508008cc0da70e4b200eb8400817073e0dff8880900222300dbb200eb83039a70c9b2012912d1dff848192200d2b210f8222051f822202300dbb210f8230051f82000006837
S34508008d0050f00100106011e0dff820192200d2b210f8222051f822202300dbb210f8230051f82000006830f001001060280080b200283fd02000c0b214283bda3026dff81a
S34508008d4030792000c0b27043385c00281ad10120029000200190adb24ff47a70454300952300dbb2dff81c29dff81c192000c0b270433844001d02f04bfb0120e4b27443e7
S34508008d80385517e02000c0b270433844001d02f031ff0022adb229002000c0b270433844001d02f087ffe4b2744307eb0400001d02f020fbf7bd70b50c004ff47a75060097
S34508008dc0854210da2078002806d12800fdf742f8761bb542f6db00e007e0012e05db3000fdf738f801e0fdf735f870bd70b504000d00e66804e02900a068fff7dcff761e17
S34508008e00012e14db2878002811d1002201212078fff740ff29006068fff7cdff002200212078fff737ff28780028e4d0ffe770bd2de9f04105000e001700ec685ff00008e6
S34508008e40002c0dd15ff001080ae03900287800013044fff7cbff3900a868fff7acff641e012c03da4046c0b201280ad13878002807d139006868fff79eff38780028e4d040
S34508008e80ffe7bde8f0812de9f14f82b00d0000262800fbf724f98df80000002753e0300080b200284ed1dff844955ff0060a4046c0b20afb00f0484444704046c0b20afbf5
S34508008ec000f048449df80810c1705846c0b2002816d04046c0b20afb00f04844bbf1010181704046c0b20afb00f0484481784046c0b20afb00f019f8000080b2fbf7a3fe9f
S34508008f00e4b2002c1ed04046c0b20afb00f04844002141714046c0b20afb00f04844dff8d0145ffa88f80afb08fa19f80a2051f822100968017105e05846c0b20428aedbd0
S34508008f404ff480767f1c38009df80010c0b288422bd22800fbf7c3f880462800fbf7bff804002800fbf7bbf88346fbf735fe002802d140f21226e5e7fbf72efe022802d182
S34508008f8040f21226dee74046c0b2dff86c14098880b2884202d34ff48076d3e72000c0b20628c9db4ff48076cce7300080b2002807d09df808300022310089b22800fbf7aa
S34508008fc0daf80020bde8fe8ff8b504000d0000262800fbf784f80700fbf7fefd002802d140f2122629e0fbf7f7fd022802d140f2122622e03800c0b2dff8fc13098880b2c1
