S34508022000d8cb0020f9960008039700080f9700081b970008279700083397000800000000000000000000000000000000b5900008f78f000800000000b5900008e78f0008ee
S345080220403f9700083f9700083f9700083f9700083f9700083f9700083f9700083f9700083f9700083f9700083f9700083f9700083f9700083f9700083f9700083f97000870
S345080220803f9700083f9700083f9700086b6000085b5f00083f9700083f9700083f9700083f9700083f9700083f9700083f970008a59900083f9700083f9700083f970008ef
S345080220c03f9700083f9700083f9700083f9700083f9700083f9700083f9700083f9700083f9700083f9700083f970008000000000000000000000000000000000000000046
S3450802210000000000000000003f9700083f9700083f9700083f9700083f9700083f970008899900083f9700083f9700083f9700083f970008979900083f970008eb60000850
S34508022140dd5f00083f9700083f9700083f970008cc325aa5002000080c9a0008c9f3d0253030303030323639004c414e5f746f5f43414e00312e30302e31322e30303631c9
S345080221800000ffffffffffffffffffffffffffffffffffffffffffffffffffffffffffffffffffffffffffffffffffffffffffffffffffffffffffffffffffffffffffff4d
S3450802220010b50c46204601f083fc02f01ff900bf03a002f06afc204601f045fa002010bd02c0020000400000f8b504460d46284601f084fc060000d18026284601f07efcd7
S345080222400746284601f07afc02463946304602f059f8010004d023460022284601f0befc2946802001f09efb0020f2bd10b50c4602f067f8214601f07dfb002010bd2de990
S34508022280f0410d46284601f059fc0646dff868460120206003f072f9dff860764ff4007038604ff0807038604ff000080be0012003f064f92946606c80b201f073fb0120b7
S345080222c0206008f10108404680b2b042efdb4ff4807038604ff0007038600020bde8f081f8b504460d46284601f00efc412828460bdb01f030fc0646284601f02cfc0746e3
S34508022300284601f028fc02460ae001f024fc0746284601f020fc02461646760902f01f023046022808db2346002240f20f11284601f054fc0020f2bd394603f0f8f9002068
S34508022340f2bd38b504460d46284601f0e1fbdff8b015884208d0234600224ff48171284601f03cfc002032bd03f07cfb0446002504e02846c0b203f0f4fc6d1c2846c0b24c
S34508022380a042f6db002032bd30b585b00c46204601f0e1fb0146684603f04aff002506e02146684650f8250001f0e4fa6d1c052df6d3002005b030bd78b587b00c462046bd
S345080223c001f0a2fb942801d1042500e00725684603f04cf8002606e02146684650f8260001f0c8fa761cae42f6d3002008b070bd70b50c4603f036fb0546214601f072fb5a
S3450802240000260ae02146dff8dc2c4e235843104490f8490001f066fb761c3046c0b2a842f0db002070bd70b50c4603f01bfb0546214601f057fb00260ae02146dff8a42ca4
S345080224404e235843104490f84a0001f04bfb761c3046c0b2a842f0db002070bd38b5044612a003f02fffa07803f037ff11a003f029ffe07803f031ff10a003f023ff0025eb
S3450802248009e0284680b22044007903f026ff88a003f018ff6d1c2846218880b28842f0d384a0bde8324003f00dbf00004d73672049643a00204465763a0000002064203a7e
S345080224c0200000002de9fe4304460d46284601f042fb8046284601f03efb0646284601f03afb0746284601f036fbb8f1020f08db2346002240f20f11284601f06ffb00209e
S3450802250057e0102804d14ff02009b00606d409e0202850d14ff04009b00603d547f0040726f0200626f0400606eb4816012002900020019038460090012330460246d2b2e6
S345080225400021484603f082f88046012002900020019038460090002330460246d2b21946484603f073f840ea080801200290019038460090012330460246d2b200214846a6
S3450802258003f064f840ea0808012002900190009700233246d2b21946484603f057f850ea080805d0234600224146284601f016fb0020bde8fe83402802d14ff04009b3e715
S345080225c0002819d1202e08db234600224ff48871284601f003fb0020ebe73846082808db2346002240f21111284601f0f7fa0020dfe74ff0000997e72346002240f2011137
S34508022600284601f0ebfa0020d3e770b504460d46284601f07dfaba49884208d0234600224ff48171284601f0d9fa002070bd284601f091fa0646022808db2346002240f2f0
S345080226400f11284601f0cafa002070bd284601f05ffadff8641b88421fd0dff8601b884219d0dff85c1b884213d0dff8581b884215d10021304603f0f7f9010004d0234641
S345080226800022284601f0aafa304603f08cfb002070bd0121eee70221ece70321eae72346002240f20311284601f098fa002070bd200000000a00000010b500f140046179b9
S345080226c000293cd00e293ad0812912d082291fd0832934d0842930d1002121706178002904d00078e0718120607128e00020607125e02179002906d1e17901f01f010144c5
S34508022700072281f820202178405c02f0e4ff16e0a17900290ed1e17901f01f010144082281f8202003212278805c03f012f88320607104e0481ea07101e00e2060716079d3
S3450802274010bd0000f8b50446a178dff89829c1f340134e204343d518002705f140067079002800f084800e2800f08180812804d082283bd083283ed075e0f079814216d00b
S34508022780042105f1200200f01f00115405f12000a17801f01f01052242544ff4837700bf34a003f08ffd2046fff758fe14e02079fe2802d1607900280ed0062005f12002b7
S345080227c001f01f01505440f2071700bf2fa003f079fd2046fff742fe380004d11420b0718220707143e00e20707140e040f217170e2070713be0f079814208d04ff483772f
S345080228001ca003f05ffd2046fff728fe0ee02079fe2802d16079002808d040f2071700bf1aa003f04ffd2046fff718fe380017d105f12000f17901f01f0102224254307815
S34508022840401c307001467278c9b2914202d3002070710ce0c0b2285cf0718120707106e00e20707103e00e20707140f215173846f2bd000044432077726f6e6720736c618c
S34508022880766520616e73776572730a00444320776520646f6e2774206c696b652074686520616e737765720a0000000030b400210fe0d01890f82000002806d103eb4110df
S345080228c0257850552078401c20705b1c202bf0db491c01290ddcdff80c084e224a43024402f141040020207060780028f0d10123ece730bc704700000824014010180140b6
S34508022900ce5a531a2de9f84f86b004460d464ff6ff7003f007fd03f0a5f80746284601f0f3f810f00f0f01d1ff2600e0002600200fe0dff8b0174e2242431144403100224b
S345080229404a700e71c8700a7084224a7100220a72401c0128eddd0020dff8501c07e080220a6003e00028fad020220a60401c0128f8dd4ff0000820e040460146002003f0b6
S3450802298030fd404603f00ffa002805d0234600220146284601f022f9dff8140c4e2101fb08f1405c002804d14fea4810c0b202f0a8fe08f101085ffa88f8b845dcdb0020d1
S345080229c0adf80e00300040f08180284601f0c3f88046284601f09af8804507d0234600221c21284601f0faf8002077e3b8f1400f08db2346002240f20d11284601f0eef8b8
S34508022a0000206be30020cdf80080804621e0b94242da9af8010000284bd19af804000d280ad18df810108df811b0234604aa40f21911284601f0d2f89af8000009f800b08e
S34508022a409af80000401c8af8000008f101081ffa88f80098804539da284601f07cf88346cbf34011dff87c064e224a4300eb020909f1410a01208af807000129c7dd8df892
S34508022a8010108df811b0234604aa40f20f11284601f0a4f8002021e38df810108df811b0234604aa40f21311284601f097f8002014e38df810108df811b0234604aa4ff476
S34508022ac08a71284601f08af8002007e34ff00008dff810a63ce04ff04e094146c9b2c1f3401109fb01f1514400f01f000844002180f820100b460a464046c0b202f0d2fd4a
S34508022b0000f0e000202821d00af14200c8f3401109fb01f910f80900002817d10120029000200190009003464246d2b22146602002f08cfd0120029001900020009003462c
S34508022b404246d2b22146602002f080fd08f101084046c0b24028bedb8df8004003f09bfc4ff0010836e0dff8480a4e21614301440878002821d1c8780d281ed008eb441a6c
S34508022b8000231a4611465046c0b202f08bfd814609f0e009b9f1200f08d05046c0b202f0b0fd00215046c0b202f0d3fdb9f1200f03d15046c0b202f0a4fd641ce4b2bc4261
S34508022bc0d1db012002f0dafc9df8000002f0fefd08f10108b8f1200f01da0024efe74ff064084ff00309002009e0dff8381a4e224243114400220a704a70401cc0b2b8426f
S34508022c00f3dbb8f1000f35d0484680b2002831d00a2002f0b3fca8f101084ff0000bda461de00120a07216e0dff8b8044e2101fb0af1084400f14104207800280bd0504667
S34508022c4002f0f0ff0028ecd04ff0010b607a401c60720020a0720af1010a5ffa8afaba45e2dbbbf1000f02d1a9f10109c9e74ff00309c6e74ff4167002f080fc9df80000b5
S34508022c8002f0a4fd002414e0dff824094e2161430144087800280ad1c8780d2807d0487a012804d160011f30c0b202f014fd641ce4b2bc42e8db012002f060fc4ff01008ac
S34508022cc09df80090bdf80ea04b4603aa05a9012002f060fd040031d1059880780146c1f3401b00231a46114600f01f0000eb4b10c0b202f0d7fc014601f0e0014e22dff829
S34508022d00e43303f1420002fb0bfb10f80b00002810d120290ed0059880780146c1f340114a43991800f01f000844032180f820104ff48b7abdf80c0002f06ffda8f10108a1
S34508022d40002c02d1b8f1000fbed18df800905146084680b2002804d04b460022284600f03dff0124dff87ca330e04ff04e0909fb08f90af1420000eb0901087800281bd1fc
S34508022d80c8780d2818d004eb481b00231a4611465846c0b202f086fc00f0e00020280bd00aeb0900204490f82000002804d102215846c0b202f0cdfc08f101085ffa88f833
S34508022dc0b845d2db012002f0d9fb641c202c02da4ff00008f4e7012002f0d0fb4ff064089df800904b4603aa05a9012002f0d2fc040032d1059880780146c1f3401a0023d9
S34508022e001a46114600f01f0000eb4a10c0b202f049fc014601f0e0014e22b24b03f1420002fb0afa10f80a00002812d1202910d005980079fe280cd1059880780146c1f322
S34508022e4040114a43991800f01f000844012180f82010bdf80c0002f0e0fca8f10108002c02d1b8f1000fbdd1300001d0fff71efd0024dff870a211e04ff4000101600be078
S34508022e8002200af1490101f80800dff82007002cf2d04ff400110160641ce4b2bc420eda4ff04e0808fb04f8204603f0edfc0028e6d103200af1490101f80800e5e7b84615
S34508022ec0142002f05bfb4ff0000a40f698074b4603aa05a9504602f05dfc04001fd1dff8d01605988078c0f340124e204243885c002810d10598fff725fc01000bd04b460f
S34508022f00059a284600f06afe4a460598011d47f6ff7000f0abfebdf80c0002f07efc002cd5d05446a3460be06e484e2101fb0bf10844fff7c1fb04430bf1010b5ffa8bfbd7
S34508022f40c345f1db012002f019fb7f1e200601d5002fbcd1002e2dd1002f2bd153464e21604a01e05b1c9bb203f01f00402b08dac3f340144c431444044494f82040022c91
S34508022f80f0ddc3f340148df8104004ac03f01f066670c3f3401359431144084490f82000a0701220e0704b4604aa40f20511284600f014fe02f03ffc002805d04b465246ed
S34508022fc00146284600f00afe2946402000f08afd5446444f1de004f01f094e262946c4f3401070433844484490f8200000f07afdc4f3401070433844484490f82000002842
S3450802300006d0c4f340104643b819012180f84810641c402cdfdb5046c0b2402823da00231a4611465046c0b202f03cfb00f0e000202815d0012002900190002000900346ff
S345080230405246d2b2014602f001fb0120029000200190009003465246d2b2014602f0f6fa0af1010ad7e7002432e08021016014e0204603f009fc002809d138464e2161438c
S34508023080084448304178022901d101214170dff81c05002ce9d020210160204602f0f9fcdff884054e216143405c00280ed0012003f004fc0546204602f023fe284603f099
S345080230c0fdfb20460146012003f08bf9641ce4b24445cddb3c2003f025f9002007b0bde8f08f0000a8b0002038b504460d46284600f031fd022808db2346002240f20f115c
S34508023100284600f06bfd002032bdaa22dff81c354e214843184480f84220002032bdf0b400f01f04202c16daff240025844600e03446dff8fc74ff2c14d12e46f6b217f896
S345080231401670bc45f4d06d1c2e46dff8e8743f78f6b2be42edd31a46002140f20b10f0bc00f084bd07eb4400002902d0032141701fe04178012910d0812904d0822911d028
S34508023180832914d015e01146012901d102214170022a0ed1822141700be0062141700121417006e0012a04d10121417001e001214170f0bc7047000048e8010090d00300fa
S345080231c020a1070040420f002de9f84785b080468946dff8605400202870484600f094fc00f00f00022801d1ff2431e00024484600f0b1fc0646484600f088fc864207d08b
S34508023200434622461c21484600f0e8fc20464ee1402e08db4346224640f20d11484600f0ddfc204643e1274610e0484600f093fc2a781346dff8f81301f813008120491c8d
S3450802324001f81300521c2a707f1cbfb2b742ecdb0026dff860a354e000231a461146304602f020fa00f0e000202849d04e270af14200c6f340117943405c002840d101202f
S3450802328002900020019000900346304602464146602002f0dbf9012002900190002000900346304602464146602002f0cff9002c26d006f01f01c6f34010784350440844bf
S345080232c090f8200000281bd028780246dff8603303f812604ff0810c03f1010e0ef812c0c6f3401c07fb0cf75744394491f82010012903d183215b1c03f81210401c287088
S34508023300761c402ea8db404602f060fa42f6e06600273c460ee0c84911f81010802900db0024401c80b229788842f4db012002f025f9761e304680b2002848d0002c46d179
S3450802334038462978c0b2884208d20121b8483a46d2b210f8120002f0fcf97f1c434603aa04a9002002f016fa04002bd1904804998978c1f340114e225143405c002821d10c
S3450802338004980079fe2803d10498c07800280ed04346049a40f20911484600f01ffc42460498411d47f6ff7000f060fc06e043460498827941798078fff7b1febdf80c0070
S345080233c002f02bfa002cc9d001240020abe7142002f0d4f8404602f0f9f903f05cf8002410e000231a461146204602f05bf900f0e000202805d1204602f06df9012002f00e
S34508023400bdf8641c402cecdb4946402000f06afb002424e0864911f81020a2420ad1491c11f810603146812900d104263146822900d10526401c80b229788842eadb02f019
S34508023440faf9002805d0434600220146484600f0c5fb4946304600f045fb641ce4b2402c24da00231a461146204602f01bf900f0e000202817d0012002900190002000902e
S345080234800346204602461946084602f0dff8012002900020019000900346204602461946084602f0d3f800263046c5e7002006b0bde8f0872de9f041044602f0d3fa054665
S345080234c0002606e030460146002002f08aff761cf6b2ae42f6db002727e054484e217143084400f142010878002813d1c8780d2810d007eb461800231a4611464046c0b2ed
S3450802350002f0d0f800f0e000202803d04046c0b202f0f7f8761cf6b2ae42dedb012002f02df8204602f052f97f1c202f01da0026f2e70020bde8f0811c484ff4807101604c
S345080235404ff0007101600020704718484ff4007101604ff080710160002070471cb500240be0002013494e226243114481f842002146c9b202f035ff641c012cf1d9002452
S3450802358010e0002000904ff480730a4804ebc41100eb410000f19c0228492046c0b200f085f8641c012cecd913bd000010180140eab00020a8b0002010b50446012c03d1b1
S345080235c002f0f2fd03f0a2f9002016e080220a6103e00028fad020220a6114494e2242431144403100224a700a71c8700a7084224a7100220a724a72401c11490228e8db28
S34508023600086820f4700000f500100860086820f0704000f1005008602046c0b200f073f9fae70000f2b00020f0b00020a8b0002090b60020d7b9002091b6002024950008f3
S3450802364000180140dff8743c1a78002a13d1c0225a700022da701a7101229a7032225a7100229a71d8711972090a597210465881187308201870704710b5dff8404c002083
S3450802368020701823202204f11c0104f15c0003f0adfa0023202204f1680104f1a800bde8104003f0a3ba002181737047f8b50546dff80c6c05eb450406eb0414aa2727738b
S345080236c0a1606360226000216173a1610421e161002121626162a1622174a1730121a174e021e174e073c5ebc50006eb80006030e0620020607402469da1e06a03f0d6fae4
S345080237004ff6ff70e082f1bdca690b689854521c4868824200d300228869824203d1002211460420a2e2ca61886a401c8862704710b40a6a002308e00c68a054000a521c65
S345080237404c68a24200d300225b1c042bf4d310bc704710b504462146a06afff7e9ff0020a062e0692062e069002100e0491c04290dd2401c6268904200d30020a2699042ee
S34508023780f4d1002211460420bde810406ee2e06110bd8269416a8a1841688a4200d3521a826100214162aa21017370472de9f041044615461e460a46022a04db00211120be
S345080237c0bde8f04152e20798dff8f43a02eb420713eb0717f874280608d5387c002805d00a4600210120bde8f0413fe24ff0000806e014f8010b3946fff786ff08f10108c7
S3450802380040463146c0b28842f3d3680609d5002078733846fff79dfff86abde8f04103f079ba10207873bde8f081feb5dff88c4a207800281ed002a901a801f095fa21463a
S345080238402278521dd2b2824212da002007e011f8013b019d2b70019b5b1c0193401c0346dbb29342f3db029800881218029802800020207004f1a8076946384603f0e2f943
S3450802388000282cd102a901a801f06efabdf800201a214a43a11801f1b4052e78761df6b286421cda6946384603f0b8f9002007e015f8011b019a11700199491c0191401c7c
S345080238c00146c9b2b142f3db02980088361802980680bdf8001004f15c0003f0bff9f7bd10b4dff8dc2900eb400302eb031080680c4600e0083002781346a34201d0002a5d
S34508023900f8d110bc704738b50446dff8b409214601eb410210eb02154ff0ff31e86a03f02ffa284600f02af9284600f014f90146a9732046fff7d4ff0246508801466b6a21
S34508023940994203d04ff6ff71884204d1294620465268904705e0234600221c21284600f03df92846fff715ff2846bde83240a5e06161000038b504460d46c0b200f0b2f8b4
S3450802398029462046000ac0b200f0acf829462046000cc0b200f0a6f82946240e2046bde834409fe038b504460d46c0b200f09af82946240a2046bde8344093e0f8b504468e
S345080239c00d46dff8f868687c00281ed105f1160106f15c0003f022f9010003d00120bde8f4402fe606f1b401ea8a1a20424388188021417000210170e97b0171e97cc17012
S34508023a00022181701021697405e006f1b401ea8a1a2042438818017815292bdb4778e98a06f1a80003f01af9010003d00220bde8f44007e605f1160106f15c0003f0eef867
S34508023a40010005d00320fff7fdfd00206874f1bd06f1b401ea8a1a20424388187f1c07f00f07477000210170e97b0171e97cc17002218170017801444c710178491c0170e9
S34508023a80f1bd10b50446607c002816d0dff82c28e18a1a2041435018b430417841f040014170e18a02f1a80003f0d8f8010002d00420fff7c7fd0020607410bd10b5044689
S34508023ac0607c002809d1a07b00280ad02146fff775ff21460020fff771ff2046bde81040cfe710bd38b504460d46687c002806d1a87bfff763ff29460020fff75fff2946e5
S34508023b002046bde8344059e7807b7047406a704738b5044600f01ff80546204600f01bf805eb0025204600f016f805eb0045204600f011f805eb0065284632bd38b50446bb
S34508023b4000f009f80546204600f005f805eb0025284680b232bd0146486a002801d100207047401e48628a690868805c521c8a614b689a4201d300228a61704770b5044602
S34508023b80a169606a4118a1616068814201d3091aa161a069216a884201d1012070bd0420606200252e4606e02046fff7d4ff000600eb1525761c3046c0b20428f4db6068c8
S34508023bc0a84208d2206aa061012200211b2000f04df8012070bd6562002070bdfeb505460e4614461f46687c002811d1a87c401ca8740146c9b2002901d1401ca874294611
S34508023c00a87bfff7dbfe2946a87cfff7d7fe07e0287bab2804d03a460021032000f026f8a87c8df80000002c0bd000200df101030146c9b204290fda14f8012b5a54401c35
S34508023c40f6e7002002460df1010301e05a54401c0146c9b20429f9db3a46694646f40046304600f003f8ab202873f7bdf8b506460c46174686f40046dff84056694605f19b
S34508023c805c0002f0cbff010003d00520fff7dafcf1bdbdf800101a2041436818b430c0214170082101700771dff81416c97cc170012181703146090a81714671a7f1800108
S34508023cc0c171002c0ad00321461d0a46d2b2072a0edc14f8013bb354491cf6e703210023441d01e0a354491c0a46d2b2072af9ddbdf8001005f1a80002f0b0ff010002d0de
S34508023d000620fff79ffcf1bd80b50346084600220621fff763ff012002bd2de9f04104460d462846fff717ff07000dd129460220fff7d8fe29463020fff7d4fe294600200b
S34508023d40fff7d0fe002052e0072802dadff8746512e00c2803dadff87065ff1f0ce0132803dadff868650c3f06e000262346324608212846fff732ff3846c0b2002810d0ff
S34508023d807f1e4ff00008741c304603f089f800282646f1d008f10108404680b23328f2db0ce000242046c0b2801903f079f800280ad0641c2046c0b23328f3db2946002067
S34508023dc0fff790fe012012e029462046c0b2fff789fe07e0304603f063f8761c2946fff781fe641e2046c0b20028f3d10120bde8f08110b5dff8d84422460421dff8d404c6
S34508023e0003f03ef82068dff8d01488421bd1221d0421dff8c80403f033f8606800f17840dff8bc1488420ed204f108020421dff8b40403f025f8a0686168814203d2dff866
S34508023e40a814884201d3132010bd04f10c020421dff8980403f014f82069e168884201d1002010bd002010bd0000000038b505460c462046fff76ffe05285fd8dfe800f088
S34508023e8003646424313c21460020fff72bfe002002f0fafc0546012002f0f6fc214605eb40052846c0b2fff71dfe2146dff840040078fff717fe2046fff700fe142001f087
S34508023ec05dfb02f0c2ff3fe0dff828044ff4000101604ff4001101600020dff81414087032e0dff8100480210160202101600120dff8fc13087027e021460420fff7f2fdfd
S34508023f00002002f0c1fc0546012002f0bdfc214605eb40052846c0b2fff7e4fd2146dff8d0030078fff7defd2046fff7c7fd4ff4fa6001f023fb02f088ff05e02b46002221
S34508023f4007212046fff74afe21460120fff7cafd002002f099fc0546012002f095fc214605eb40052846c0b2fff7bcfd2146dff880030078fff7b6fd012032bd2de9ff4711
S34508023f8005460c464ff000082046fff7bffd06281cd32046fff7dffd81462046fff7b8fd07462046fff7d7fd0646b9f1b00f05d0b9f1b30f02d0b9f1e10f01d1c24600e02f
S34508023fc0b2462046fff7a2fd504507d02b4642462b212046fff702fe40466ce1b9f1000f00f05f81b9f1a10f2bd0b9f1a20f3cd0b9f1a30f60d0b9f1a40f62d0b9f1b00f15
S3450802400063d0b9f1b10f72d0b9f1b20f00f0ac80b9f1b30f00f0b380b9f1b50f00f0c880b9f1e10f00f0cc80b9f1e20f00f0eb80b9f1e30f00f0fd80b9f1e40f00f01381df
S345080240402de10a2001f09afa384602f0dffeaa4802f028ff8046002800f023812b46002241462046fff7bafd1be1c14607e02046fff771fda14901f80a0009f10109ca46b7
S345080240805ffa8afab245f2db9b4887420dd3f0199549884209d2012001f070fa974a3146384602f0c3ff8046fbe02b4642460f212046fff793fdf4e0404602f0a7fe8046c4
S345080240c0efe0fff796fe8046ebe021463046fff709fdc1464846c0b2b04280f2e28021463878fff7fffc7f1c09f10109f2e7f019652807d32b4642460f212046fff76efd40
S345080241004046d8e0012001f039fa7d48c719dff8ec81424630460146384602f0b1fe4ff0000906e02046fff716fd08f80a0009f10109ca465ffa8afab2450bda18f80a0011
S34508024140ff28efd02b46002229212046fff746fd0020b0e042463146384602f067ff002002f054fe80469ce06348874202d24ff00e0896e0384602f0aafe804691e02146d9
S345080241803046fff7affcdff874914a4630460146384602f075fe47463846c0b2b04280f28080214619f80000fff79cfc7f1cf3e70a2001f0e3f9384602f028fe804670e0cd
S345080241c0dff838914a4630460146384602f023fc8046002807d02b46002241462046fff7fdfc4ff0000821463046fff77bfc00273846c0b2b04254da214619f80000fff7c9
S3450802420071fc7f1cf4e7dff8f49006e02046fff7a2fc09f80a0008f10108c2465ffa8afab245f3db4a463146384602f042fc804637e001ab6a4602a90df1010002f0a1fb73
S3450802424021460298fff796fb21469df80100fff749fc21469df80000fff744fc21460198fff788fb1de02046fff752fc02902046fff771fc8df801002046fff76cfc8df8f2
S3450802428000002046fff744fc019003469df8002002999df8010002f083fb804601e04ff00c084046002805d02b46002241462046fff794fc002004b0bde8f08784ad00205e
S345080242c0f8b50020600100081002000860210008c8b8002050210008cc325aa554210008ffff030058210008000004085c210008d4b90020101801400000010848b30020f5
S345080243005001000810b4034640f20144a34202db4ff4a06013e00b46092b02db4ff4a0600de0134640f2e934a34202db4ff4a06005e0dff8143d988419845a84002010bcc9
S345080243407047dff8040d406d704700002de9f843dff8f45c5ff000023aa105f12c0002f0a5fc4ff47a7002f07dfedff8204b0823102242f2f800211842f2ec00204402f0bd
S3450802438035fc0023102242f22410211842f21810204402f02bfc0023102242f25010211842f24410204402f021fc4ff47a7000f04df8dff8dc6a01220021304602f0b3fff3
S345080243c0dff8d07adff8d08a08224146384602f0caff0020687381460de017eb09140121204602f0e3ff4ff48840606008eb8920a06009f10109b9f1080feedb0020dff85b
S345080244009c1a03e030680843306001200028f9d0284603f074f8dff8341c28786a7842ea00220a60a878ea78120442ea0062287942ea0022687902434a60bde8f14302f070
S3450802444021bf0000436f6d53656d610080b5c82800d2c82002f006fedff8ec0b002181600165818301bddff8e80b0021dff8d83b04e01a44127c00f8012b491c0a4692b218
S34508024480062af6db7047dff8c80b002204e01944097c00f8011b521c13469bb2dff8a81b062bf4db002203e0cb5c00f8013b521c13469bb2062bf7db0822027000224270f9
S345080244c0452282700022c2708271c2714022027200224272402282721122c272002202734273ca6c120e8273ca6c120cc273ca6c120a0274ca6c42748a6c120e82748a6c9a
S34508024500120cc2748a6c120a0275896c4175c1218175e021c175092101766321417600210177417770472de9fe4f834600249bf81a009bf81b904fea094909eb00699bf83a
S345080245401c0009eb00299bf81d0081449bf810009bf8115005eb00250e35adb2b5f5797f01dd4ff47975b22d00d101240bf1220a9af800109af8010000eb012080b240f2dc
S34508024580033188421bd19af81e009af81f1001eb002140f6631089b2814240f0cf80dff8a80a818b0a46ff2a01da491c8183c18b0a46ff2a80f2c280491cc183bee0b0f5a6
S345080245c0006f40f0bb80dff8106c4ff480203060dff8b878694642f2ec00384402f01efb002840f0ab804ff48168bdf8000008fb00f03844c21d0020014606e0401c0beb5d
S3450802460001039b7902f8013b491c0629f6db002304e0401cc95c02f8011b5b1cdff8281a062bf6db0823137000235370452393700023d370a5f10e031b1213712b460e3b10
S34508024640537100239371d3714023137200235372402393720123d372002313735373cb6c1b0e9373cb6c1b0cd373cb6c1b0a1374c96c51744946090e91744946090cd17470
S345080246804946090a117582f8159000219175d1759af804109af805301b0403eb01639af8061003eb01239af80710cb180021117651761946090e91761946090cd17619460c
S345080246c0090a11771e308246537702f11e092a20cdf804b0834614e0019810f80b0009f8010b0ae00af1010a002cf5d058462a3880b200f0cffe09f8010b0bf1010b1ffade
S345080247008bfbab45eedbbdf8000008fb00f8002007eb0801488027f808a0bdf8001042f21810384402f09afa002805d0dff8c01c4ff48e7002f044ff04203060bde8f78fa8
S345080247402de9f041054605f12407dff8fc683878797801eb002140f6631089b2814203d0b06d401cb06579e0306d401c3065b87900284dd1002004e0291889793218117411
S34508024780401c0628f8dbfff76efeb878f97801eb0021a1f10b04a4b297f80780387a96f90b10411a49b2002900ddf072002c55d0b4f5757f39da96f90800a8eb000040b238
S345080247c0012816d102f067fc86f80880012070722d3500e00024002c15d02e78761db6b2b442f7db284601f071fe3544a41ba4b2f1e7002802d10120707204e04ff40020e2
S34508024800dff8d41908600420dff8cc19086025e0012820d1b878f97801eb0021a1f10b04a4b22d35b4f5757f07db002211464ff40170bde8f04196e10024002c0ed02e7801
S34508024840761db6b2b442f7db284601f03ffe3544a41ba4b2f1e7b06d401cb065bde8f0812de9f843dff8244642f2441025186946284602f0e7f9002840f07f804ff48166f8
S34508024880bdf8000070432118dff8bc2792f90b3091f905001b1a5bb2002b0ed46946284602f0bcf9bdf8000008285fdbdff8401b4ff4c47002f084fe58e0538c178b488860
S345080248c03f1abfb2bb4258d291f8070400283fd0506d401c506542f218102718384602f0def98046284602f0daf981461ae06946284602f093f9bdf80000082805dbdff84b
S34508024900f01a4ff4cb7002f05bfebdf80000704304f207410a5c521e0a54bdf80010384602f09cf94846a0f1010980b20028ded14046a0f1010880b200281ed06946384629
S3450802494002f06cf9bdf80010384602f087f9efe76946284602f062f9bdf80000082805dbdff88c1a40f2a11002f02afebdf8001042f2ec00204402f071f9bde8f1832de9c8
S34508024980f843dff80c452068002800f1a780dff8b856e88cdff8f4644ff6ff77b8422dd000ebc011c9007218138848f2010c634515db331d595c012911d0298b5180082834
S345080249c005dbdff82c1a4ff4dd7002f0f9fde98c42f24410304402f041f9ef840ee0082805dbdff80c1a4ff4df7002f0e9fde98c42f2ec00304402f031f9ef8442f21810c9
S34508024a0006eb000905f12601484602f007f9002801d0ef8467e0e98c0a464ff4816808fb02f0305a000438d5287b002806d1484602f026f9ef84bde8f143d1e3082a05db48
S34508024a40dff8ac1940f2cf1002f0bafde88c08fb00f836f80800c0f30e0142f2d002324401f11f039bb21b0a137000f11f0353700b3189b2090a917500f10b01d175c01c5f
S34508024a80dff8a81a01ea00412a31616006f50350a060301d4044e06013e0082a05dbdff850194ff4ec7002f08bfde88c08fb00f836f80800c0f30c00606006eb0800c01d4e
S34508024ac0a060dff86c0a2060dff8680a0169490709d5042101610021016004e04ff48030dff8f4160860bde8f18338b504462078401db0f5806f35dadff89053694642f24a
S34508024b00ec00284402f08af800282bd1bdf80000072805dddff8d8184ff4fc7002f050fdbdf8000000ebc01105ebc10001210171002181714171217847f6fb72891a018018
S34508024b40002104e0625c4318da71491c89b22278521d9142f6dbbdf8001042f21810284402f07cf831bd18b587b008238df80030c0238df8013001238df8023000238df88e
S34508024b8003308df8042003468df80530000a8df8060042f080028df8072000290ad1032000220df105030146c9b207290edc5a54401cf8e703200df1050403e011f8013bab
S34508024bc0a354401c0246d2b2072af7dd6846fff78cff08b010bdf8b506460f4614461d46dff864040685012001f068fea84801680029fcd4a54901220a7100228a714a71ca
S34508024c002a460c320a80ea1dca71c0220a7201224a7200224a810e73360a4e7380228a73cf733a46120a0a743a46120c4a743f0e8f7401f11302002304e014f8016b02f817
S34508024c40016b5b1c2e46b342f7d30a88c2f30e0342f2d0040c4403f11f05adb22d0a257002f11f0565700b339bb21b0aa37502f10b03e375d21cdff8b43803ea02432a33ce
S34508024c80436001f503528260091dc160dff8a0180160dff8a0080169490703d50421016100210160f1bdf8b5784c4ff6ff75dff89863708da84213d106f12a0142f2ec000c
S34508024cc0204401f0abff002801d07585f1bd708d00ebc011c80000212152318ba21c11524ff48167708d78432118707a002802d10888002837d0002070720871307a887134
S34508024d000888002802d0b07a401cb072b07a4871088840f400400880708d318c07fb00f2224482f80714082805dbdff8c41640f27a2002f045fc718d42f21810204401f0aa
S34508024d408dff06f12a0142f2ec00204401f066ff002801d07585f1bd708d47430020e053308ba11cc853f1bd70b4b74a538d4ff6ff74a34201d1002014e04ff48164634389
S34508024d80dff8b457ee18eb5a3344db1d0360508d604328440860918c508d4443285b091a481f80b270bc704738b5dff82c444ff400302060a44d1420a873402002f00efb2b
S34508024dc04ff4803002f00afb012002f007fb022020604ff08040dff86417086005f12c00bde8324001f096bf80b5dff85417488b401c4883486b002803d101f12c0001f09b
S34508024e0089ffbde8014002f050b938b58e4c214d22e02968090cc1f30e012844806800f0e9fa607b014609014ff000426a50dff81427d3681b0603d58023d3600023136019
S34508024e4029444a6822f000424a60401c6073c0b2082801db00206073607b000129580029d7d531bd7848c16cdff8dc06411811298041c00f7047dff8d0160a18112a04d2d5
S34508024e800122dff8c8361844425470478828002000b9002010b70020004a00200000e0302de9f041002402f0c0fccb4d022028600420286008202860634e2046f07301463f
S34508024ec0dff8882601e01154401c1128fbd306f10f0002f049fbf064f07b022807d12046f0734ff4807028604ff00070286020463083dff85c76b8461ce04ff0804202609d
S34508024f0016e0b8464ff480302860fff7ccfefff736fdfff77aff0120286000f02ffbb17bdff818060a46812ae7db4ff480420260481eb073318b0846b0f5967f1fdadff875
S34508024f4014060068c0f3c0200028dbd1491c3183084680b26528d5db11f0030fd2d1f07b002802d0f06c804502d1404600f0c4f9dff8e4058045c4d208f10108c2e7f07bef
S34508024f80002815d0f16cdff8c0054118112907d2dff8b805405c002804d02046f07301e02046f073f07b002816d12046f06413e0204600e0401c11280ed2dff89015095c0d
S34508024fc00029f7d13818f06402f0c2fa4ff4007028604ff080702860708b308304e04ff48040dff858150860002c05d0dff8001440f2353002f0e4fa012028604ff0ff31c0
S3450802500006f12c0001f0bcfe4ff480302860308b718b814203d0401c3083012700e02746fff7f3fe01f004fbfef7fffb002f03d0fff716fcfff737fefff7a1fcb07b002865
S34508025040cdd0401eb073cfe71400002040800240484900202de9fc410446a68ab6f5807f03d0b6f5007f40f0b480207f657f2d0405eb0065a07f05eb0025e07f451904f19e
S345080250802600017890f801804fea084808eb0168817808eb0128c0788044504fb86c854217d1002005e004f11601095c3a181174401c0628f7db387b002808d1fff7d2fead
S345080250c0002806d0fff7dff90120387301e0fff7caf9b6f5007f03d12846fff7ccfe78e0f86c804575d1dff85064694642f2ec00304401f093fd00286bd14ff48160bdf8ef
S34508025100001041433144ca1d00210b4607e0491c04f1160c1cf803c002f801cb5b1c062bf5db002305e0491c17f803c002f801cb5b1c062bf7db002307e0491c0ff2244c26
S345080251401cf803c002f801cb5b1c0a2bf5d3002305e0491c17f803c002f801cb5b1c062bf7dbfb6c1b0e1370fb6c1b0c5370fb6c1b0a9370091dfb6cd370131d002206e094
S34508025180491c04f11607bf5c03f8017b521c062af6db2a46120e1a702a46120c5a702a46120a9a70dd70bdf800205043002233185a80091d3152bdf8001042f21810304425
S345080251c001f04cfd002804d0894940f28d3002f0f7f9bde8f38100001018014014000020f8b5dff85c43e06db0f57a7f02d2401ce065f1bd0020e065cf4d694642f2ec008f
S34508025200284401f00bfd002804d0794940f2a33002f0d6f94ff48160bdf8001041432944ca1d00210b4604e0491cff2602f8016b5b1c1e46f6b2062ef6db002304e0491c7a
S34508025240a65d02f8016b5b1c1e46f6b2062ef6db002308e0491c0ff218361f46ffb2f65d02f8016b5b1c1e46f6b20a2ef2d3002304e0491ca65d02f8016b5b1c1e46f6b2c7
S34508025280062ef6dbe36c1b0e1370e36c1b0c5370e36c1b0a9370091de36cd370121d002304e0491cff2602f8016b5b1c1e46f6b2062ef6dba36c1b0e1370a36c1b0c537014
S345080252c0a36c1b0a9370a36cd370bdf80020504300222b185a80091d2952bdf8001042f21810284401f0ccfc002804d040494ff46c7002f065f9f1bdf8b504468e4d694664
S3450802530042f2ec00284401f089fc002804d0384940f2be3002f054f94ff48160bdf8001041432944ca1d00210b4604e0491cff2602f8016b5b1c1e46f6b2062ef6db0023cd
S345080253407f4f04e0491cbe5d02f8016b5b1c1e46f6b2062ef6db002307e0491c84a61f46ffb2f65d02f8016b5b1c1e46f6b20a2ef3d30023724f04e0491cbe5d02f8016b66
S345080253805b1c1e46f6b2062ef6db0023137053709370091dd370121d04e0491cff2602f8016b5b1c1e46f6b2062ef6db23461b0e137023461b0c537023461b0a9370d470b8
S345080253c0bdf80020504300222b185a80091d2952bdf8001042f21810284401f051fc002804d0034940f2cb3002f0eaf8f1bd00009c98000830b4037b427b02eb032292b2e2
S34508025400b2f5006f1ed1c37d4d4c827fc57f2d0405eb026590f8202005eb022590f821205519e26c95421fd1112b02d130bcfff787b9012b02d130bcfff775b8a06d401cde
S34508025440a06511e040f606039a4201d130bc01e63b48816d491c48f6a4039a42816503d14ff400203d49086030bc70473c4a136b0360d16acb180360d16d416030498b6de9
S3450802548083601268c2608a8b026100228a83c98b4161704770b50400274d42d10020de2205f5015301e05a54401c014689b28029f9db42f248002e184ff0aa30306020482e
S345080254c0816d716026490968b160416df160016d31614bf6bb31b182018df182cc213176817a7176c17ab176017af176818b3177c08b707742f2ec00284401f0d0fbb0777d
S3450802550042f21810284401f0cafbf07742f268002e1842f24410284401f0c1fb3070dd20707005f50150005d70bd00000000ff1f0000e0f00490024088280020100c0140b0
S345080255401400002008900240f099573fdcb800201066a8c0080801402066a8c0101801406881024008060001080006040002000008060001080006040001000010b5134923
S345080255800c68002c03d012490968002901d013201ae0002801d1002016e0eff3108172b6042222630122a2630022c4f88420e06408480068401c074a106081f31088200030
S345080255c002f088fad4f8840010bd00bf58b900207400002070b900207cb500251fe00ff2544000f06ffe04eb052042f20c614618304600f083febaa000f064fe4ff480701d
S345080256000090334601220ff23841c5ebc50004ebc00042f29c54204402f000fb6d1cdff80044012ddbd91423202242f20c00211804f5005001f0dafa0020014602e004f850
S345080256402010401cb0f5006ff9d373bd70b506460c461d460499059801f0070101eb4211ed0005f008056d18000100f010004519adb2b5f5006f04dbdff8a813472001f0d2
S345080256809fffdff8a403415d01f01f0176184655dff88c03002100f8251000eb85004470084670bd10b50c4602f0070202eb4012e40004f00804a4181b0103f010031c194b
S345080256c0a4b2b4f5006f03dbd649622001f078ffd548005d10bde0b50146090201f40051adf8001002218df8021001218df8041000f01f008df80500684600f0faf980b24b
S345080257000ebde0b50146090201f40051adf8001002218df8021081218df8041000f01f008df80500684600f0e4f980b20ebde0b54003adf8000002208df802008df80410e7
S3450802574002f07f028df80520684600f0d2f980b20ebd3eb504460d4664011034204680b2b0f5006f03dbaf499b2001f029ff6a46214689b2fe2000f063f86a46214689b2fa
S34508025780284600f05df86946204680b200f0aaf800203ebd7cb50c461546a14e02466946c3ebc30006ebc00042f29c53184402f07bfa00992980009901eb011206eb820118
S345080257c042f24c021144216080b276bd7cb5054601260122694692482b46c3ebc30400ebc40042f29c53184402f05efa040005d1009880b200f011f800260ae00a2c08d074
S3450802580091a000f05ffd204600f078fd34a000f059fd002cddd0304676bd80b50146834801f01cfa40b2002803d07e49d02001f0c7fe002002bd7e49088800220a80704733
S34508025840f8b504460f4616463d46b5f5006f03db7449e62001f0b4fe7349485d00f0e00060283cd16e4810f8252012f0f00f15d142f0a00200f825204ef2e00202eac702f8
S34508025880380200f440708218c7f34410821802f5c07232800120b07080203071b078082818db30794a5d02f01f0210183071485d00f0e002401c00f00f0080184855304667
S345080258c000f017f90120b07000203071301db1784454f1bd311d0c54b078401cb070f1bd0a00000038b504460d46b4f5006f04db4c494ff4827001f063fe4b48015d0a46f2
S3450802590002f0e002602a17d12a7901f00f01403189182971015d01f0e002491c01f00f0189180155284600f0e4f83d4810f8241001f00f0100f8241031bdf8b504460d46d3
S345080259402e46b6f5006f04db36494ff48d7001f037fe334f17f8260010f00f0f28d1694607f5005001f05af940b200281bd117f8260040f00a0007f82600bdf80000b91c94
S3450802598021f8260042f24c003844bdf8001001eb011200eb82000021018005f00701c1706d0985700ee04ff48d7021490880f1bd42f24c003844b91c31f8261001eb011233
S345080259c000eb82000188402904db40f21b1018490880f1bd01440c710188491c0180f1bd38b50446b4f5006f04db0e494ff4a07001f0e6fd0a4800eb840461880091002279
S34508025a0069466378c3ebc30500ebc50042f29c53184402f03dfa207800f0f000207031bd7c000020c8970008849d00207c200020d0b90020496e697420534c4620000000a6
S34508025a406c6f6d7100000000717565756520726563656976652076616c7565202d2d3e2000000000022070470a46042a02db40f203107047022802db40f20f107047dff80a
S34508025a80dc3740f61c625043184480f8181e0020704710b50446012000f010ff022c0cdadff8b82740f61c614c43111901f5616101228a7000220a704a70bde8104000f026
S34508025ac0fdbe10b50446012000f0f8fe022c0cdadff8882740f61c614c43111901f6136101228a7000220a704a70bde8104000f0e5be2de9f0418046b8f80040640b14f0e9
S34508025b00010402d1dff8585701e0dff85857012000f0d4fe0646dff8440740f61c616143014401f561677878421c1346dbb2c82b00db00223b7898420bd1b878002808d127
S34508025b40304600f0bbfe4ff40c70f8804ff0ff303ae00c207b7843430b44d8f804c0c3f804c07b7843430b44d8f808c0c3f808c07b7843430b4498f802c083f802c07b7803
S34508025b805843b8f800300b527a7097f80180c8f1c80838788044b87800280fd00020b870686940f001006861a868400106d5002c02d100f05afa01e000f097fa304600f085
S34508025bc07dfe5ffa88f84046bde8f08110b50446022c01db002010bd012000f06ffedff87c2640f61c614c43111901f561629178002901d0002410e051781378994205d266
S34508025c000b4611785b1aa3f1380406e01c460c1b2146c9b2002900d1c82400f04ffee4b2204610bd0146022901db00207047002802d1dff82c0601e0dff82806806800f011
S34508025c40e050b0f1e05f01d1002070470120704770b5dff814361c78641c04f001041c7040f61c65dff8f46521466943721892f8151e00290cd0641c04f001041c706c43aa
S34508025c80321992f8151e002902d04ff0ff3070bd02f613640c2125784d431544b5f860591b7805eb4335058023784b43134493f86239837023784b431344d3f8643943600a
S34508025cc0237859431144d1f86819816025786d1c2846c0b2642800db0025012000f0eefd29466278c9b2914206d10121a170257000f0e4fd002070bd257000f0dffd012079
S34508025d0070bd0246022a02db40f20f107047010002d1dff84c1501e0dff84815896911f007010cd04b0703d500f5047080b2704711f0030f03d000f5147080b27047dff83a
S34508025d401c3540f61c614a431a44b2f8161e002905d00023a2f8163e401880b270470020704710b50146ff290ad100242046c0b2022816da2046c0b2fff7f3ff641cf5e7de
S34508025d80022902db40f20f1010bddff8e0140028086803d140f00070086002e040f000600860002010bd70b505462a46022a02db40f20f1070bddff8a4040ff2ec43dff8ba
S34508025dc0ac142c000ed10a6842f000720a60dff8906490f8180e53f820000a6822f000720a6011e00c6844f000640c60dff8746400f6186440f61c604243a05c53f82000dc
S34508025e000a6822f000620a60012131607168c907fcd5316841f004013160f061284600f0aaf930684008400030600220706132247068c00705d5641e0120fff79ffb002c52
S34508025e40f6d12846fff725fe002c04d105f51075284680b270bd002070bd70b5dff81004016809090901891c0160016821f0f00120310160016821f4706101f5007101605b
S34508025e80016821f4704101f500510160dff8e4434ff400702061606820f0f00030306060dff8d403016821f4c04101f58041016040212161216821f0706101f1407121602a
S34508025ec0016841f480010160002511e02846c0b2fff7dffd2846c0b2fff7f3fd0020dff87c1340f61c625643314481f8180e6d1c2e46f6b2022ee9dbdff864030121016043
S34508025f004168c907fcd5dff87413c161026842f004020260dff84c03012202604268d207fcd5c161016841f004010160002504e02846c0b200f01ff96d1c2846c0b20228de
S34508025f40f6db606820f0f000b0306060206820f0706000f13060206070bd70b4bf4901f6136255786b1c1846c0b2642800db0023107885420ad19078002807d12020c04a80
S34508025f8010604ff40870a1f8160e25e00c20bd4c45430d442668760da5f86069557845430d44666806f00f0685f86269557845430d44a668c5f86469557868430844e1684d
S34508025fc0c0f868192020ae490860002090705370ad480178491c017070bc7047f0b49f4941f62f400a1855786b1c1846c0b2642800db0023107885420bd19078002808d179
S345080260002020a24a10604ff4087041f63242885229e00c209e4c45430d4441f27c7627687f0daf53557845430d4441f27e76676807f00f07af55557845430d4405f5bc55dc
S34508026040a6682e6055786843084441f28471e468445020208d4908600020907053708a480178491c0170f0bc704710b47b4a02f561618878002809d08648c16849084900ef
S34508026080c160016841f0010101602ce082480c230c785c431444646884600c785c431444a468c4600c785c431444a47844600c786343d25a5205521c02600a78521c1046d9
S345080260c0c0b2c82800db002210464b78c0b2984208d1012088706f48c3685b085b00c3600a7000e00a7010bc704710b45b4a41f62c4011188878002809d06848c168490860
S345080261004900c160016841f00101016031e064480c230c785c431444d4f8204e84600c785c431444d4f8244ec4600c785c43144494f81e4e44600c7863431a44b2f81c2ef3
S345080261405205521c02600a78521c1046c0b2c82800db002210464b78c0b2984208d1012088704e48c3685b085b00c3600a7000e00a7010bc7047002801d1394800e0394817
S3450802618000f5007001210160416041684908490041600021c16041610164424941640121c16100210160704780b572b64ff4407001f014ff14208df8000001208df80100b8
S345080261c000208df8020001208df80300684601f00aff13208df8000001208df8010000208df8020001208df80300684601f0fbfe40208df8000001208df8010000208df81f
S34508026200020001208df80300684601f0ecfe3f208df8000001208df8010000208df8020001208df80300684601f0ddfe62b601bd0a46022a11da002901d1094900e0094909
S345080262408a69120e02608a69c2f3074242604a6882600022c260896901617047006a00200064004000680040d5b900201010024000180140000c0140040001400200180137
S345080262800c640040b0650040d6b900200c680040b0690040086400408065004008680040806900400000e0ff02001801050018010b001801170018010e490a881206fcd525
S345080262c08880704710b5044603e014f8010bfff7f3ff20780028f8d110bd38b50446064d0011285cfff7e8ff04f00f04285dbde83240e1e7003801400000002010b5044678
S34508026300000efff7eaff2046000cc0b2fff7e5ff2046000ac0b2fff7e0ff2046c0b2bde81040dae75049488070477cb50025012600f060f84c4c1be0fff748fc6188814207
S3450802634014d2207830432070012060700ee02078314608422846c0b2eed0fff737fc142804da2078b04320700120607076006d1c2846c0b20128eadd6078002830d001a9ee
S345080263806846fef7f1fc07282adb0120009908700098401c0090c020009908700098401c00900020009908700098401c00900020009908700098401c009000200099087043
S345080263c00098401c00902078009908700098401c009001980088801d019908800020607073bd0246521e9241d243d20f1f4808448270704710b51d4c2178a01c0a46805c50
S34508026400002827d00846fff77cfc2178a21c525c012a0ad101001dd000221146fdf726fc0220a11c2278885414e0022a0fd102464ff6f0710a40b2f5107f0bd100221146d1
S34508026440fdf714fc0020a11c2278885402e00020a21c50542078401c2070c0b2022801db0020207010bd00007800002048b90020002008e01021dff8f02311540021dff89f
S34508026480ec231154401cb0f5006ff3db0020dff8e013c86070470020dff8cc130a4610e0c3060cd4137813f0e00f01d110231370137803f0e003602b01d170231370401c5d
S345080264c0521c01f500639a42ead370472de9fe4f02461078029054789378d078117902f1050b022b01d0032b6cd1002801d0e02809d10190009302980346dbb22246584626
S34508026500fdf754f991e00d4605f0070515eb4015d80000f0080045191035adb2b5f5006f07db0a4600212d2003b0bde8f04ffdf79dbbd04e4ef2e00101eac501280200f474
S3450802654040704118c5f34410411801f5c07131800027dff8148318f8059009f00f090fe01bf8012b1a54491c0846c0b28245f7da0af10100b0703046fff7bbfa5744ffb298
S34508026580029887421bda8246aaeb070a5ffa8afabaf1070f08dd4ff0070a04f080004844307124f0800403e004f0c0004844307109f1010909f00f090121331dd4e708f8f3
S345080265c0059032e0052b20d11bf8013ba94a01f07f0101ebc311000200f46040411801f5c07111800121029804e01bf8014b1344dc70491c0b46dbb29842f6da401e9070bc
S345080266001046bde8fe4ffff774ba062b05d1abf10500bde8fe4f01f08ebf072b05d1abf10500bde8fe4f02f009b8bde8f78f00002de9fc41fff779fe01a96846fef794fbf1
S34508026640040000f00e81009d2146894e07e0032802d1304602f041f8611b0098411889b20f2940f3f7803046fff7f2fa10f1010f00f0ee80b6f8007080a03946c1f3c31190
S34508026680405c022840f0a5803846a0f5c07041f61c4101eae001001200f0030040187f0107f478773f18bfb2b7f5006f03db7249cf2000f085ff6c49ca5d12f0e00035d1a2
S345080266c0307900f00f0002f01f0203469a42c3d0c855b078401e2870317964480a0602d50022c25504e0c25d521c02f00f02c25501f0c001c05d41186970c7f3c000801cc4
S34508026700a87038464011e87007f007072f716d1d01200146b278c9b291429dd2311d0246d2b2895c05f8011b401cf2e7202826d1b078401c2870c02068700520a870308837
S34508026740000a00f0e000e870307800f07f0028713088a0f5c070c01100f007006871ad1d00200146b278c9b29142bff475af311d0246d2b2895c05f8011b401cf1e74028d5
S3450802678003d1f068401cf06066e760287ff464afb7f5006f03db3849f62000f011ff4ff0010809e038460146301d4246d2b2805cfff7c3f808f101084046b178c0b288423d
S345080267c0f0d3307940067ff547af3846fff708f942e701287ff43baf08202870c02068700120a87030880146090a01f0e0010246803a1d4b41f61c4707eae207121202f0c0
S345080268000302d219470107f47877ba1892b29a5c02f0e002202a06d1e970307800f07f0028716d1d08e000f01f000818e870b07900f07f0028716d1d0020321d0146c9b237
S345080268400829bff609af515c05f8011b401cf5e7002104e7019800882d1800982d1a01980580bde8f3810000849d002084a50020f0b8002020b90020589800080001050299
S34508026880020202020202020306a100eb400201eb8201486880684989c84000f0010080f001007047001801400018014005000400001801400018014007000600eff31081fc
S345080268c080f310880846704710b4c24ca378002b0ad000f0f70013465b0903f00803184308704a70881c0ee00870607804e00346dbb2ca54120a401e0346dbb2002bf6d15b
S3450802690060780844401c10bc7047000010b501f0efffb04c0620a072012204f14e0104f10a0002f04af80120a0720020e072012204f14e0104f10a0002f03ff89f20a072cd
S345080269400a2204f14e0104f10a0002f036f8a24b94f85600242806d180224ff40031022000f01ef805e080224ff40041022000f017f8012299a104f1940000f097f9002096
S3450802698010bd30b4934c2578057060680860e078107021894ff47a704143196030bc704770b504468b4d69602c701046412800db4022100001d0ea7001e00820e870b1f5bc
S345080269c0007f03d10120a870687016e0002202e040086860521c6868c60701d40028f7d1012090406860884201d0362070bd0020a870d2b2d208521c6a70022c01d1402034
S34508026a00e870184601f0c1ff4ff47a71b0fbf1f02881002070bd2de9f04707460c4691466c4d6868c919884201d235203fe04ff0400805f19406c821304600f0a1f980b2be
S34508026a4000280ed0372032e010f8012b09f8012b491c0a4692b24245f6dba4eb0804a4b24744002c1fd03a4605f10a010320fff72bff444500daa0466a784244521cd2b2e7
S34508026a8005f14e0105f10a0001f097ff8246002804d1687828444f300021dae7304600f039f9504603e0304600f034f90020bde8f0872de9f84306461446464f78680a46ec
S34508026ac09219904201d2352082e097f803800d4607f19409c821484600f052f980b2002803d0372074e097f80380002d6cd00620b872012207f14e0107f10a0001f05dff77
S34508026b00324607f10a010220fff7defe0146f8780246521e16420dd1454500daa8460020024692b242451cda14f8012b01f8012b401cf5e78046b044d24302ea0808a8ebc3
S34508026b4006081ffa88f8454500daa846002004e014f8012b01f8012b401c024692b24245f6db7a784244521cd2b207f14e0107f10a0001f022ffa5eb0805adb246444ff0e1
S34508026b800a0838780128aed1a8f101080120fef7f5fc0520b872022207f14e0107f10a0001f00bff97f84f00c00703d5404680b20028e9d11ffa88f8b8f1000f93d14846a1
S34508026bc000f0a8f8342003e0484600f0a3f80020bde8f28348b50020002d310170657273697374656e745f6d656d000070b504461d46002020806080501ea080a1600026d9
S34508026c0005e0314689b2204600f028f8761c3046294680b28842f4d3002070bd028843889a4204d14ff6fe70088001207047836833f812200a800288521c81880a400280f8
S34508026c4000207047028843889a4201d101207047806830f8120008800020704730b443885c1c8288144002882546aa4201d1022004e0826822f813104480002030bc7047e5
S34508026c800288531e8288134042889a4201d102207047826822f81310038000207047014648880a88801a89880840704770b504000d0016001c220021200001f0e7fe6560e1
S34508026cc0a660eff3108072b60f4921600f49096800290bd00d49096889690c4a126894614c61a16109490968616103e007490c606461a46106490968491c054a116080f3cb
S34508026d001088002070bd00bf414d455378b900207cb9002080b50100eff3108272b6c868002806d18868401c886082f31088002023e0036f984202d10023cb600be0036fa4
S34508026d40cb60036fd0f874c0c3f874c0436fd0f870c0c3f870c00b695b1e0b610021816606490968491c054b196082f310880021c0f8841001f094fe002002bd70b9002072
S34508026d8010b5eff3108272b68368002b06d08168491e816082f3108800202fe000292ad0174b1c68174ba366e066c368002b0ad0c3682367c3685b6f6367c3685b6f1c6733
S34508026dc0c3685c6702e0c4602467646703695b1c0361062020630120a063e1640a480068401c0949086082f31088200000f072fed4f8840002e082f310880d2010bd00bf8b
S34508026e0058b900207d96000870b90020784a002808d1002090607748c16841f08001c1600020704774494840906074494140744b994206d16f490860724808600020c860da
S34508026e407047002090602c20704710b572b66e484ff0ff310160416081606c480160416081606b4c0020206000f01afc69486060002000e0401c6428fcd36748606010bdeb
S34508026e8030b400230d4604e0047802f8014b401c5b1c1c46a4b2ac42f6d3002030bc70470078704710b5044600205c498c4208d24f4988600e2010bd204600f008f804f548
S34508026ec0006457498c4201d20100f5d010bd48498968002901d127207047524a022151609060506840f0400050604f490846411e002802d01068c007f8d4002901d10b2027
S34508026f007047002070473a48ff2101704170002141600846704710b44ff48013414c0122626001801a46531e002a02d02268d207f8d4002b01d1282005e00846814201d192
S34508026f40002000e0282010bc704780b528494868002806d00a78497801eb022189b2fff7daff002002bd70b505460e460021204ca068002801d1272070bd606800280bd114
S34508026f80680840006060ff2262702270a84201d166702ae0267028e06908b0eb410f10d1a84201d1667000e026702178627802eb0122114689b2fff7aeff0146002060606e
S34508026fc013e02178627802eb0122114689b2fff7a2ff0146ff2060702070680840006060a84201d1667000e02670084670bd00002cb900200420024055af23505231c2ab57
S345080270007130a5eeab89efcd80e100e080e200e008ed00e00400fa050100fa0500200008ffef03080c20024040420f00f8b504460d461646fff767ff002701e0641c7f1c7c
S345080270403846294680b2884208d2384680b2315c2046fff788ff0100f0d0f2bdfff775ff0020f2bd1449884200d9084613491422b0fbf2f048804ff0804049884900491ebf
S345080270808185002181844ff4347101850121818105210180704709490878002804d14888074a10800120087070470020054908800249087070470000f6ff09004cb9002041
S345080270c0240000401000004081b0dff87403016841f4804101600021009102e00099491c009100990a29f9db016821f48041016001b0704718b4002100910091dff8442375
S34508027100116921f01c0111611368dff83c130b4041680b4381680b43c1680b4301690b4341690b4381690b43c1690b43016a0b43416a0b43816a0b43c16a0b43016b0b4316
S34508027140416b0b431360836bc16b0b43016c0b43416c0b43816c0b43c16c0b43016d0b43416d0b435360816d9160c16dd16093694ff641710b40016e43ea0143416e0b43fa
S34508027180816e0b43c16e0b43016f0b43416f0b439361836fc16f0b43d361dff8b022946900f18403dff8a8120c40d0f880000443186804435868044398680443d86804438b
S345080271c0186904435869044398690443d86904439461196a586a0143986a0143d86a0143186b41ea8001586b014341f400011160012012bc70470021016041608160c160ed
S34508027200016141618161c161016241628162c162016341638163c163402101642021416400218164c164016541658165c16501668021416600218166c16601674167816755
S34508027240c1674ff08061c0f8801084304ff0007101604ff0807242604ff4001282600022c260026142618261c2610162114641624ff4003181624ff48071c1621146016389
S345080272804163704780b5012000f033f800f0aaf8012000f03bf8012000f0abf80120bde80240b3e081b000220092dff8b421136803f01c03c00200f478401843890101f467
S345080272c0f861084340f001001060dff898110098401c00901068c00702d500988842f6d30098884201d1002001e0506880b201b07047dff850110028086803d040f0080092
S345080273000860704720f0080008607047dff834110028086803d040f004000860704720f004000860704730b40023dff82841206012e0e0600fe000eb03144ff48015256093
S345080273404ff4be655d430d44a560551eab42f0d204f11005e5605b1c9342ecd3dff80811086030bc704730b40023dff8f040206015e0e06012e000eb03144ff0004525606a
S3450802738044f2f05565604ff4be655d430d44a560551eab42edd204f11005e5605b1c9342e9d3dff8c810086030bc70474268002903d022f000424260704742f00042426088
S345080273c07047dff89400016841f0010101607047dff88400006800f001007047dff8901008607047dff88c00016841f4801101607047dff880100028086803d040f40050a6
S345080274000860704720f4005008607047dff864100028086803d040f002000860704720f0020008607047dff850200029116802d008431060704721ea000010607047000003
S3450802744028100240008002400f8120ff00900240233fdef838b900200090024040b9002010800240ffff0400109002400c90024014900240189002401c90024010b40023d2
S345080274801a460a600278002a13d03a2a0eda302a0cdb0a6802eb820410f8012b02f00f0202eb44020a605b1c0a2bebd94ff0ff3000e0002010bc704710b400231c4610303b
S345080274c08c4208d20278002a00d1641c401c5b1c812bf5d3002010bc704710b50024fff7ebff002806d00178002906d0401c641c812cf8d34ff0ff3010bd204610bd7cb5c3
S3450802750005462c4e03213046fff7d6ff04000dd003213046fff7e1ff0b2802d32044a0f10a0469462046fff7a9ff02e041f2342000900220287068700098000ea870009821
S34508027540000ce8700098000a28710098687173bd19494ff055320a604860c2438a60c8604ff0aa300861704730b40146012213480068400519d5104b1868b0f1553f00d00d
S34508027580022258689c68c543ac4200d00222dc68844200d002221b69b3f1aa3f00d002220a70022a03d1002001e00020087030bc7047000050010008e0ff00200818014077
S345080275c038b504460d46002300e05b1c1946c9b2685c002801d03c29f7dbdbb22a4621463c20fdf7f8fa00bf24a0fef76bfe2046fef784fe27a0fef765fe2846fef762fe63
S3450802760018a0fef75ffe002042f2107100e0401c8842fcd3144915480860002000e0401c6428fcd312480860fee780b50146eff3088228231520fdf7cefaeff3098228232a
S3450802764001211520fdf7c7fa18230a4a02211520fdf7c1fa0020084900e0401c8842fcd3fee700000a0000000ced00e00400fa050100fa0524ed00e0a086010020617373c8
S34508027680657274696f6e206f6e206c696e65203a200000002066696c65203a2000000000dff8e4130120086048680028fcd0dff8dc03426892089200426000220a6601688c
S345080276c021f4a0210160fff7ffbcdff8c013086840f4a020086008688003fcd5dff8b003026842f0100202600268920892000260026842f002020260486848604868486014
S34508027700486840f480604860486820f4404040f400404860486820f47c104860486840f488104860ca6adb480240ca62c86a40f4853040f09400c862086840f0806008609b
S3450802774008680001fcd5086840f08070086002e0800880004860086880014868f8d540f002004860486800f00c000828fad17047c948016821f4706101f530610160c7492f
S345080277800a6822f4704202f530420a600a6822f4702202f530220a600a6822f4700202f530020a60be490a6822f0f002b0320a60026822f0f00240320260026822f0704219
S345080277c002f1804202600a6822f4702202f580220a600a6822f4700202f580020a604268120912010b3242600a6822f470620a600a6822f470420a60416821f0f0019031dd
S3450802780041607047a7480021016041604ff4801181620c2101634ff0ff31816001214160416841f004014160704780b54ff4a06000f0d4fb3d208df8000003208df801007a
S3450802784000208df8020001208df80300684600f0cafb4ff4a06000f0c1fb1c208df8000003208df8010000208df8020001208df80300684600f0b7fb62b601bd2de9f84127
S34508027880afb0894889490860804c206840f00100206061688648014061602168854801402160206820f480202060606820f4fe006060206820f0a05020604ff47f00a06078
S345080278c00020e062fff701ffe1697b480143e161606940f4e0306061a06940f4844040f07d00a061754d286820f0704000f1005028604ff00046ee606848c660016821f012
S34508027900704101f1005101604ff48044c460016821f0706101f100710160fff729ff4ff40040e8604ff48070e8604ff40077ef60286800090001801c2860286820f0f000ed
S34508027940203028605e48016841f400010160fff70ffffff7b9fbfff734fdfff739fd0128fbd00125dff85c8146e00021284680b2fff798fca8f800000121284680b2fff7e1
S3450802798091fca8f800000221284680b2fff78afca8f800000321284680b2fff783fca8f800000421284680b2fff77cfca8f800000521284680b2fff775fca8f8000006210b
S345080279c0284680b2fff76efca8f800000721284680b2fff767fca8f800001521284680b2fff760fca8f800001f21284680b2fff759fca8f800006d1c202db6d96846fff77a
S34508027a00fafb0020009007900a970b900e9611901390149015904ff4806009904ff4006008900594002020904ff00070219021a94ff400128a6000220a614a61ca610862f7
S34508027a404ff4803048624ff4800088624ff40050c8624c63294689b26846fff74bfb01211948fff7e0fc1948016841f400610160174842f20c01818040f271210180fff7ba
S34508027a80c1fe30b0bde8f08100004242001002400020024000f0feff00080140040c014000100140042401400020000808ed00e00000fff0fffff6fe010002060418014044
S34508027ac004000140d2b9002041000100008002400838014010b504004848006884420ad1e06c002807d05ff0ff31884203d014f14c0001f051f8eff3108072b64049096819
S34508027b00491e3f4a1160a16b002964d00021a163e16a226aa2421ad0226a636a5362626a236a1362374a52f82120a24253d1354a236a42f82130344909688c424bd13349c6
S34508027b400968304a52f821102f4a116043e02d4a002342f821302e4a1268012313fa01f1c94311402a4a11600021294a1268d3b2002b20d1120ad3b20831002b1bd1120a4a
S34508027b80d3b20831002b16d1120ad3b20831002b11d11e4920220a601b4900220a6080f310881c480068164909680843002823d101f034f820e0184a9a5c5118134a116041
S34508027bc0114909688c4206d1104909680d4a52f821100d4a116080f31088084800680a490968884208d00b480068054909680843002801d101f012f810bd00bf58b9002001
S34508027c0070b9002090b700205cb900206cb9002068b900207400002048b400202de9f04105000e0017001c00ddf8188038220021280000f02bff6e60af60b800b8fbf0f03a
S34508027c4000fb07f1ac6114eb8101e9612c626c626861e860eff3108072b6104929601049096800290bd00e490968496b0c4a126855630d6369630a490968296303e00849ae
S34508027c800d602d636d6307490968491c054a116080f310880020bde8f08100bf5545555180b9002084b9002010b5eff3108372b6846a002c35d0d4f880c0bcf1000f30d0c2
S34508027cc0e26fd0f808c001e0091d121dd2f800e0c1f800e0bcf1010cbcf1000ff4d1216f8c4202d10021816207e0216f8162216f626f4a67616f226f0a67c16a491ec162b7
S34508027d000020a0665f480068401c5e49086083f310880020c4f88400200000f0c1fe0020aee0d0f810c0bcf1000f71d0026ad0f808c001e0091d121dd2f800e0c1f800e09e
S34508027d40bcf1010cbcf1000ff4d18168026a12eb81010162016ac269914201d381690162002c09d14169491c41610169491e016183f31088002083e042490968491c414a90
S34508027d80116083f31088eff3108372b63d490968491e3c4a1160e26f416ad0f808c001e0091d121dd2f800e0c1f800e0bcf1010cbcf1000ff4d18168426a12eb810141624b
S34508027dc0416ac269914201d381694162216f8c4202d10021816207e0216f8162216f626f4a67616f226f0a67c16a491ec1620020a06624480068401c2249086083f310880a
S34508027e000020c4f88400200000f04afe002037e0002a32d0dff870c0dcf80040dff86cc0c4f868c0e066e1670021c4f88010816a00290ad0816a2167816a496f6167816a63
S34508027e40496f0c67816a4c6702e0846224676467c16a491cc162052020630120a063e26408480068401c0749086083f310882000fff730fed4f8840002e083f310880a20be
S34508027e8010bd00bf70b9002058b90020f595000810b5eff3108372b6d0f814c0bcf1000f5cd0826a002a23d14269521e42610269521c0261426ad0f808c001e0121d091dbe
S34508027ec0d1f800e0c2f800e0bcf1010cbcf1000ff4d18168426a12eb81014162416ac269914201d38169416283f3108800206de0846a226f944202d1002282620be0226f0e
S34508027f008262226fd4f874c0c2f874c0626fd4f870c0c2f870c0c26a521ec2620022a2662b4a1268521cdff8a8c0ccf8002083f31088e26fd0f808c001e0121d091d086818
S34508027f401060bcf1010cbcf1000ff6d10020c4f88400200000f0a4fd002037e0002a32d0dff870c0dcf80040dff86cc0c4f868c0e066e1670021c4f88010816a00290ad0e5
S34508027f80816a2167816a496f6167816a496f0c67816a4c6702e0846224676467c16a491cc162052020630120a063e26408480068401c0749086083f310882000fff78afdc5
S34508027fc0d4f8840002e083f310880b2010bd00bf70b9002058b90020f59500081849084318490860704770b403781c460122c17800291bd013490b6803f4e063c3f5e063cd
S345080280001b0a4578c3f104018d4081780f26de4031400d432d010c490d55017801f01f0082400a48491140f8212007e003f01f0302fa03f30648641140f8243070bc704746
S345080280400000fa050ced00e000e400e000e100e080e100e002b582b08df8000068469df8081041709df8091081709df80a10c1709df80b008df80400002269463120fbf71c
S34508028080f5fd07bd2de9fe4f04460d4600212e4606eb4606dff8447807eb060898f80200ff282ad101a9dff83808fef7b7fd010003d00120fff7ceff6be0bdf8040088f83b
S345080280c00200dff82028bdf804301a204343d0180122027005f07f020271ad0805f0e005c570802242704471ba5dd20602d40722827049e00622827046e0adf804004ff042
S345080281001a09dff8e0a709fb00f050440278152a35db90f801b00bf00f0bbdf80410dff8c807fef79bfd009001a9dff8b407fef775fd0099014389b2bdf8040088f802008d
S34508028140bdf8040009fb00f90aeb09000bf1010b0bf00f0b80f801b00122027005f07f020271ad0805f0e005c5704471ba5dd20602d40722827007e00622827004e00244f3
S3450802818054710278521c0270002902d00220fff761ffbde8f78f38b504460d46c0b2fff771ff29462046000ac0b2fff76bff29462046000cc0b2fff765ff2946240e20462b
S345080281c0bde834405ee710b5dff8101700eb40000c18a078ff2804d1ff210320bde8104038e7dff800171a22424311444a7842f040024a700146dff8f006fef72ffd01006a
S3450802820002d00220fff726ffff20a07010bd10b40a89531cdbb2562b00db00234c89a34201d1012006e00a4450730b810868401c0860002010bc704701464a89104608448e
S34508028240407b521c1346dbb2562b00db0022d2b24a81704701464a89104609890b46914201d3181a70475633181a70472de9ff4707463c4604eb4404dff86056281941781d
S3450802828064204143681800f540763046fff7e2ff814607f07f00b90101f46041081800f5c060adf8000008208df802004ff00008b9f10e0f10d2307b04280ddd30687168f6
S345080282c00831884208d239460220fff7dbfe3846fff779ff40463073285d10f01f0f6ed130680828c0f07f80707cb17c00eb0120f17c00eb0140317d00eb016070600528ee
S345080283000cd3285d00f0e000123028553046fff793ff072721208df804007ae031680830814260d3285d00f0e000103028557068c0f10400800000f00c0023308df804002c
S345080283403046fff779ff474607e03046fff774ff0df1050101f808007f1cb8465ffa88f8b8f1030ff1db002703e03046fff764ff7f1c3846c0b20328f7dd0020024602ab40
S3450802838001e05a54401c0146c9b20329f9dd174607e03046fff750ff02a93a46d2b288547f1c3846c0b271688842f2d3285d40f0200028556846fdf79cfb012056e0810618
S345080283c001d5032052e0726808323168511a4944b9f1070f05d30727072910d14ff001080de0894501d2022040e00f46ffb2c7f107084fea480808f00e0808f10108014601
S34508028400c90801f0100141448df8041080f0800028554ff0000908e03046fff70dff0df1050101f80a0009f10109ca465ffa8afaba45f1db00210df1050201e011547f1c5c
S345080284403846c0b20728f9db285d40f0200028556846fdf74efb5feac87006d5285d00f0e00014302855012000e0002004b0bde8f08710b5dff8642400eb40001418617805
S34508028480ff2905d002f50360fef7e8fbff206070a178ff2905d0dff84804fef7dffbff20a0700020207010bd3eb5044604f07f00a10101f46041081800f5c060adf8000018
S345080284c008208df8020004eb4404dff81054285dc00800f0100060308df804000120002201ab01e05a54401c0146c9b20829f9db6846fdf7fefa285d80f08000285537bdc4
S3450802850018b40020dff8d44308e000eb4001214400220a70ff224a708a70401cb0f5807ff3d30c23402204f5f66104f5036001b010bcfef75bbb2de9fc470446e578ad002f
S3450802854005f46075207900f07f004519adb2b5f5807f05dbdff894134ff4b670fff730f8617805eb4506dff87473b85d400608d5080628d50420fff76dfd2846fff779ff55
S345080285805ae0080658d52846fff773ff4020b855694607f50360fef741fb002804d001460520fff757fd47e0b819bdf80010417007f54071427864204243881800214181a1
S345080285c001810160017307f54071b81942786420424301eb020898f80c00401c88f80c004ff0000ad1460ae041464846c0b220444079fff70cfe40ea0a0a09f1010948469b
S345080286002178c0b28842efd3504680b2002809d01ffa8afa51460e20fff71cfd2846fff728ff09e02846fff721fe6078400603d5b85d00f0bf00b855bde8f387feb504467f
S34508028640e778bf0007f46077207900f07f00c719bfb2b7f5807f04dba4494ff4d370fef7afff61782078042801d1c02903d00620fff7f0fcf7bd07eb4705984e715d0029ff
S3450802868005d00720fff7e6fc3846fff7f2fe07f07f00b90101f46041081800f5c060adf8000008208df8020040208df80400012001aa03e0211849791154401c0428f9dbcf
S345080286c00420002101e01154401c0828fbdb6846fdf70ffa01207055f7bd2de9f8430446208800f07f05800900f4607045192e46b6b2b6f5807f04db7c4940f2c310fef7b2
S345080287005fffa178082907d00820fff7a3fc284680b2bde8f243ace6207900f0e00006eb46066e4f80281bd10020e071b85dc006294689b203d40020fff72dfd02e00120da
S34508028740fff7a0fc284680b2fff73dfd0022e11d3020fbf78bfa284680b2bde8f24388e6b95d01f0df01b95511f01f0200f0b380012a0cd0022a53d0102a7bd0122a00f077
S345080287808080132a7dd0142a00f08a809ee02179402841d1880722d50020b8552079c10705d5c0f38106c6f10406f6b200e00426294689b23046fff7eefc002706e029463e
S345080287c089b22044007afff75dfc7f1c3846c0b2b042f4db284680b2bde8f243f3e4c8070ed54ff004084046c0b207280ddc294689b2221d105cfff745fc08f10108f2e7f0
S34508028800294689b20020fff7c6fc0220b855284680b2bde8f24347e60920bde8f44319e42179002821d1c1f34208c8f107085ffa88f84ff0000907e0294689b22044407985
S34508028840fff720fc09f101094846c0b24045f3db2079c007284680b204d5fff7b4fc0020b85538e0bde8f2431ee60a20bde8f443fff7f0bb602815d021790b20fff7eafb29
S3450802888019e0602801d0202804d1284680b2bde8f243ebe421790c20bde8f443fff7dabb202808d1294689b20020fff7ebfb284680b2fff788fcbc19617807f50360fef7e0
S345080288c0cdf9ff2060700020b85504e00d20fff7c1fb0020b855bde8f183000048950020e0ad002038ae00202cae0020149800081cb55548016841f0805101605348816861
S3450802890041f40041816052490a6822f4706202f530620a600a6822f4702202f530220a604c490a6822f4702202f540320a60016841f00201016048488021016090214161b6
S3450802894046498160c16138208df8000003208df8010000208df8020001208df80300404807218180542101803e4c002241a12046fef79cf95ff0010240a104f11c00fef721
S3450802898095f96846fff72ffb13bd10b401463648002201e0521c4008814203d21346dbb2072bf7db2e4b1c884ff6c7710c40d2b204ebc2041c8010bc7047f8b505460e462d
S345080289c01746284c642104f11c00fef7d9f9002801d03820f2bd21480188317000883070224841684908490041608169490849008161066145628760c761012101601c4dc1
S34508028a004ff480112960416841f00b014160816941f0010181610a212046fef7b1f910212960002801d03920f2bd04f11c00fef771f90020f2bd08480168090909010160e3
S34508028a400848fef767b9000004000140141002400410014000080140080402400c3c0040003c004090b8002080a8120104040240100801407370695f696e74007370695fff
S34508028a807265736f757263650000000010b5040010000a000100200000f0c2f8200010bd10b50400606e002804d014f14c0000f007f901e00020e064eff3108072b62f4978
S34508028ac00968491e2d4a1160a16b00290ad0216b012940d0216b02293dd00021a1630021216338e0216b002935d0616b002904d000216163032121632de000212163e16a1e
S34508028b001f4a52f82120002a05d0516a0c625462616222621fe01a4a42f8214024626462184a126801238b401a43164b1a60164a1268002a04d1144a1460144a11600ae05b
S34508028b40124b1b68994206d2104b1960d26b914201d20d490c6080f310880d4800680a490968884208d00b480068044909680843002801d100f052f810bd00bf70b90020de
S34508028b8090b7002068b900205cb900206cb9002058b9002074000020eff3108172b60268002a30d002685ff0ff339a422bd08269002a28d10268212a01d31f2201e00268aa
S34508028bc0521e134b1b6813eb8202124b1b689a4207d3104b1b68d21a92100f4b1b6813eb82021368002b0ad01368036113685b6943614369186113685861826103e000616f
S34508028c0040618261106081f310880020704700bfbcb90020b8b90020b4b9002000df704762f30f2262f31f42401810f0030308d0c91a1fd3db0748bf00f8012d28bf20f8f0
S34508028c40022d130030b414461546103928bf20e93c00fad8490728bf20e90c0048bf40f8042d890028bf20f8022d48bf00f8012d30bc7047c91818bf00f8012dcb0728bfe8
S34508028c8000f8012d704730b4002513e050f8042bd30744bfa9f101039a18091f042942f8045bfad213468c0744bf15809b1cc90748bf1d7050f8041b0029e7d130bc7047e3
S34508028cc0eff3108172b68269002a1ed00269904209d182691268824202d18269002313600022826111e002694369536142690369136182691268824205d10269836993619c
S34508028d008269036913600022826181f3108800207047000080b5fef7b1fdfcf75dfcfaf71dfcfdf7a5fbfaf7a7fcfdf796f800bf36a0fdf7c7fafff7e3fbfbf707fb00f097
S34508028d4085f8002002bd81b0002000902a490098401c0090009800988842f8d100200090f5e7000038b586b0244c01200590002004900120039002904ff4487001900094fd
S34508028d8000231f4a24a104f5487000f081f8002519e001200590002004900520039002904ff4487001906843204400f5717000902b46144a1ba1a4206843204400f60420ed
S34508028dc000f066f86d1c012de3d901200590002004900a20039002904ff44870019004f64c3000900023084a13a104f66c6000f04ff807b030bd000080841e00388600208d
S34508028e00a14e0008b9350008478d000843414e20696e69740a000000436f6d5f5468726561640000436f6e74726f6c5f5468726561645f58000000004261636b67726f7556
S34508028e406e645f54687265616400000080b50d4800680d49884207d00a485ff0f031016000f09ef800f0d6f806485ff0f031016006480068fff776ff02480021016000f00d
S34508028e800bf901bd74000020f1f0f0f050b900202de9fb4f040093460c9d0d9e0e9fddf83ca0ddf84090ddf844803200ef212800fff7ecfdb0088000061fa4220021200088
S34508028ec0fff7e4fd0198a062c4f844b00298a064e56066617019401e2061e762c4f89470c4f81890c4f81c90574502d00020e06300e0e7630320206323486065a465234913
S34508028f00200000f017f9eff3108072b62049216020490968002910d01e490968d1f88c101c4a1268c2f88c40c1f88840c4f88c1018490968c4f8881005e016490c60c4f88c
S34508028f408840c4f88c4014490968491c124a116012490968491c114a116080f31088b8f1000f03d02000fff79bfd09e0eff3108072b60a490968491e084a116080f31088d4
S34508028f800020bde8fe8f00bf19990008e19800084452485460b9002064b9002070b900201548164a10604ff0e0201549c0f8081d14481349096801604ff0e02012494161f7
S34508028fc04ff0070101610021c0f8181d0f49c0f81c1d0f49c0f8201d7047fee700b500f0c9f800f0d3b800b500f0c4f800f0f0f800f0ccb8fee7fee710b9002050b900200e
