S34508024000187a0120b1b70008bbb70008c7b70008d3b70008dfb70008ebb70008000000000000000000000000000000005dbd00089fbc0008000000005dbd00088fbc000879
S3450802404007b800080bb800080fb8000813b8000817b800081bb800081fb8000823b8000827b800082bb800082fb800081dc6000833b8000837b800083bb800083fb80008f8
S3450802408043b8000847b800084bb8000873800008637f00084fb8000853b8000857b800085bb800085fb8000863b8000867b8000839c600086fb8000873b8000877b8000899
S345080240c07bb800087fb8000883b8000887b800088bb800088fb8000893b8000897b800089bb800089fb80008a3b80008a7b80008abb80008afb80008b3b80008b7b8000820
S34508024100bbb80008bfb80008c3b80008c7b80008cbb80008cfb80008d3b80008d7b80008dbb80008dfb80008e3b80008e7b80008ebb800082bc60008efb80008f3800008d5
S34508024140e57f0008f3b80008f7b80008fbb80008ffb8000803b9000807b900080bb900080fb9000813b9000817b900081bb900081fb9000823b9000827b900082bb9000897
S345080241802fb90008ffffffffffffffffffffffffcc325aa500400008a1c600084ec3c7473030303030323831004c414e5f746f5f7369785f43414e00312e30302e31322e2e
S345080241c0303036310000ffffffffffffffffffffffffffffffffffffffffffffffffffffffffffffffffffffffffffffffffffffffffffffffffffffffffffffffffffff22
S3450802420010b50c46204601f043fc02f023f900bf03a002f04efc204601f005fa002010bd02c0020000400000f8b504460d46284601f044fc060001d14ff4c076284601f035
S345080242403dfc0746284601f039fc02463946304602f05cf8010004d023460022284601f07dfc29464ff4c07001f05cfb0020f2bd10b50c4602f069f8214601f03bfb002048
S3450802428010bd2de9f0410d46284601f017fc0646dff860460120206003f03cf9dff8587640203880802078804ff000080be0012003f030f92946606c80b201f033fb012012
S345080242c0206008f10108404680b2b042efdb80203880402078800020bde8f081f8b504460d46284601f0d0fb412828460bdb01f0f2fb0646284601f0eefb0746284601f083
S34508024300eafb02460ae001f0e6fb0746284601f0e2fb02461646760902f01f023046062808db2346002240f20f11284601f016fc0020f2bd394603f0c6f90020f2bd38b534
S3450802434004460d46284601f0a3fbdff8b015884208d0234600224ff48171284601f0fefb002032bd03f04afb0446002504e02846c0b203f018fd6d1c2846c0b2a042f6db9f
S34508024380002032bd30b585b00c46204601f0a3fb0146684603f050ff002506e02146684650f8250001f0a6fa6d1c052df6d3002005b030bd78b587b00c46204601f064fb76
S345080243c0942801d1042500e00725684603f01af8002606e02146684650f8260001f08afa761cae42f6d3002008b070bd70b50c4603f004fb0546214601f034fb00260ae098
S345080244002146dff8d02c4e235843104490f8490001f028fb761c3046c0b2a842f0db002070bd70b50c4603f0e9fa0546214601f019fb00260ae02146dff8982c4e2358434f
S34508024440104490f84a0001f00dfb761c3046c0b2a842f0db002070bd38b5044612a003f032ffa07803f03aff11a003f02cffe07803f034ff10a003f026ff002509e02846af
S3450802448080b22044007903f029ff88a003f01bff6d1c2846218880b28842f0d384a0bde8324003f010bf00004d73672049643a00204465763a0000002064203a200000008c
S345080244c02de9fe4304460d46284601f004fb8046284601f000fb0646284601f0fcfa0746284601f0f8fab8f1060f08db2346002240f20f11284601f031fb002057e0102863
S3450802450004d14ff02009b00606d409e0202850d14ff04009b00603d547f0040726f0200626f0400606eb4816012002900020019038460090012330460246d2b20021484686
S3450802454003f050f88046012002900020019038460090002330460246d2b21946484603f041f840ea080801200290019038460090012330460246d2b20021484603f032f87c
S3450802458040ea0808012002900190009700233246d2b21946484603f025f850ea080805d0234600224146284601f0d8fa0020bde8fe83402802d14ff04009b3e7002819d1a3
S345080245c0202e08db234600224ff48871284601f0c5fa0020ebe73846082808db2346002240f21111284601f0b9fa0020dfe74ff0000997e72346002240f20111284601f047
S34508024600adfa0020d3e770b504460d46284601f03ffaba49884208d0234600224ff48171284601f09bfa002070bd284601f053fa0646062808db2346002240f20f11284695
S3450802464001f08cfa002070bd284601f021fadff8201b88421fd0dff81c1b884219d0dff8181b884213d0dff8141b884215d10021304603f0ccf9010004d0234600222846d6
S3450802468001f06cfa304603f0befb002070bd0121eee70221ece70321eae72346002240f20311284601f05afa002070bd200000000a00000010b500f14004617900293cd03e
S345080246c00e293ad0812912d082291fd0832934d0842930d1002121706178002904d00078e0718120607128e00020607125e02179002906d1e17901f01f010144072281f838
S3450802470020202178405c02f0b2ff16e0a17900290ed1e17901f01f010144082281f8202003212278805c02f0e0ff8320607104e0481ea07101e00e206071607910bd0000e6
S34508024740f8b50446a2781146dff888390d466d114e2045431d44002605f140077879002800f083800e2800f08080812804d082283ad083283dd074e0f879824215d00421f0
S3450802478005f1200200f01f00115405f12000a17801f01f01052242544ff4837634a003f092fd2046fff758fe14e02079fe2802d1607900280ed0062005f1200201f01f0168
S345080247c0505440f2071600bf2fa003f07cfd2046fff742fe300004d11420b8718220787143e00e20787140e040f217160e2078713be0f879824208d04ff483761ca003f050
S3450802480062fd2046fff728fe0ee02079fe2802d16079002808d040f2071600bf1aa003f052fd2046fff718fe300017d105f12000f97901f01f01022242543878401c387093
S3450802484001467a78c9b2914202d3002078710ce0c0b2285cf8718120787106e00e20787103e00e20787140f215163046f2bd000044432077726f6e6720736c6176652061e5
S345080248806e73776572730a00444320776520646f6e2774206c696b652074686520616e737765720a0000000030b400210fe0d01890f82000002806d103eb411025785055d9
S345080248c02078401c20705b1c202bf0db491c06290ddadff800084e224a43024402f141040020207060780028f0d10123ece730bc704700000820014018180240ce5a531a47
S345080249002de9f84f86b004460d4603f00bfd010004d023460022284601f020f94ff6ff7003f06afe03f06af88146284601f0acf810f00f0f01d1ff2600e0002600200fe00c
S34508024940dff8601c4e2242431144403100224a700e71c8700a7084224a7100220a72401c0628eddb002703e0384603f0ebfe7f1c062ff9db00271ce038460146002003f0b8
S345080249809afe384603f03ffa002805d0234600220146284601f0e2f8dff80c0c4e217943405c002803d17801c0b202f076fe7f1cffb24f45e0db0020adf80e0030007cd1af
S345080249c0284601f088f80746284601f05ff8874207d0234600221c21284601f0bff800205ae3c02f08db2346002240f20d11284601f0b4f800204fe30020009707461fe0dd
S34508024a00494540da9af80100002849d19af804000d280ad18df810108df811b0234604aa40f21911284601f099f89af8000008f800b09af80000401c8af800007f1cbfb237
S34508024a400098874239da284601f045f8834659464909dff8500b4e224a4300eb020808f1410a01208af807000629c9db8df810108df811b0234604aa40f20f11284601f0c4
S34508024a806df8002008e38df810108df811b0234604aa40f21311284601f060f80020fbe28df810108df811b0234604aa4ff48a71284601f053f80020eee20027dff8e4aa04
S34508024ac036e080464fea68184e2101fb08f80aeb080100f01f000844002180f820100b460a463846c0b202f0a9fd00f0e00020281dd00af1420010f80800002817d10120d8
S34508024b00029000200190009003463a46d2b22146602002f067fd0120029001900020009003463a46d2b22146602002f05bfd7f1c3846c0b2c028c4db8df8004003f03bfe93
S34508024b40012740e0dff8600a4e2161430144087800282cd1c8780d2829d007eb441a00231a4611465046c0b202f068fd804608f0e008b8f1200f13d05046c0b202f08dfdc3
S34508024b8000215046c0b202f0b0fd012c08d1012f06d1b9f1020f03d10021212002f0a5fdb8f1200f03d15046c0b202f076fd641ce4b24c45c6db012002f0acfc9df80000da
S34508024bc002f0d0fd7f1c202f01da0024f1e764240327002009e0dff8d4194e224243114400220a704a70401cc0b24845f3db002c37d0384680b2002833d00a2002f08afc2d
S34508024c00641e4ff0000bda4622e0012088f80a001ae0dff890094e2101fb0af1084400f1410898f8000000280ed0504603f003f80028ead04ff0010b98f80900401c88f8b9
S34508024c400900002088f80a000af1010a5ffa8afaca45dedbbbf1000f01d17f1ec7e70327c5e74ff4167002f055fc9df8000002f079fd002414e0dff830094e21614301448f
S34508024c80087800280ad1c8780d2807d0487a012804d160011f30c0b202f0e9fc641ce4b24c45e8db012002f035fc10279df80080bdf80ea0434603aa05a9012002f036fdd5
S34508024cc0040030d10598807883464fea5b1b00231a46114600f01f0000eb4b10c0b202f0adfc014601f0e0014e22dff8b83803f1420002fb0bfb10f80b0000280fd1202969
S34508024d000dd005988078014649114a43991800f01f000844032180f820104ff48b7abdf80c0002f046fd7f1e002c01d1002fc1d18df800805146084680b2002804d04346b0
S34508024d400022284600f00aff0124dff858a82ee04ff04e0808fb07f80af1420000eb0801087800281bd1c8780d2818d004eb471b00231a4611465846c0b202f05ffc00f05f
S34508024d80e00020280bd00aeb0800204490f82000002804d102215846c0b202f0a6fc7f1cffb24f45d4db012002f0b4fb641c202c01da0027f5e7012002f0acfb64279df83e
S34508024dc000a0534603aa05a9012002f0affc040032d10598807880464fea581800231a46114600f01f0000eb4810c0b202f026fc014601f0e0014e22dff8a83703f142001f
S34508024e0002fb08f810f80800002811d120290fd005980079fe280bd105988078014649114a43991800f01f000844012180f82010bdf80c0002f0bdfc7f1e002c01d1002f3c
S34508024e40bfd1300001d0fff72ffd4ff00008dff8547717e0022007f1490108550be04e2404fb08f4404603f083fc0028f2d1032007f149010855404603f06ffc08f10108eb
S34508024e805ffa88f8c845eadbc846142002f042fb4ff0000940f69807534603aa05a9484602f044fc04001ed1dff8fc160598827852114e204243885c002810d10598fff7ac
S34508024ec03ffc01000bd05346059a284600f046fe52460598011d47f6ff7000f087febdf80c0002f066fc002cd6d04c46a3460ce0dff8b0064e2101fb0bf10844fff7dafbe4
S34508024f0004430bf1010b5ffa8bfbc345f0db012002f000fb7f1e200601d5002fbcd1002e2ed1002f2cd14b464e21dff8782601e05b1c9bb203f01f00c02b08dac3f342149f
S34508024f404c431444044494f82040022cf0ddc3f342148df8104004ac03f01f066670c3f3421359431144084490f82000a0701220e070534604aa40f20511284600f0eefd32
S34508024f8002f025fc002805d053464a460146284600f0e4fd2946c02000f064fd4c46dff804761de004f01f0a4e262946c4f3421070433844504490f8200000f053fdc4f337
S34508024fc0421070433844504490f82000002806d0c4f342104643b819012180f84810641cc02cdfdb4846c0b2c02823da00231a4611464846c0b202f021fb00f0e000202886
S3450802500015d00120029001900020009003464a46d2b2014602f0e6fa0120029000200190009003464a46d2b2014602f0dbfa09f10109d7e7002429e038464e2161430844e6
S3450802504000f14805204603f093fb002804d16878022801d101206870204603f073fb204602f0f2fc287800280ed0012003f09cfd0546204602f05cfe284603f095fd204673
S345080250800146012003f017fb641ce4b24445d3db3c2003f0b1fa002007b0bde8f08f38b504460d46284600f016fd062808db2346002240f20f11284600f050fd002032bd8e
S345080250c0aa22dff8e0344e214843184480f84220002032bd7c590120f0b400f01f04202c16daff240025844600e03446dff8c074ff2c14d12e46f6b217f81670bc45f4d0c4
S345080251006d1c2e46dff8ac743f78f6b2be42edd31a46002140f20b10f0bc00f067bd07eb4400002902d0032141701fe04178012910d0812904d0822911d0832914d015e067
S345080251401146012901d102214170022a0ed1822141700be0062141700121417006e0012a04d10121417001e001214170f0bc704748e8010090d0030020a1070040420f0046
S345080251802de9f84785b080468946dff8285400202870484600f078fc00f00f00022801d1ff2431e00024484600f095fc0646484600f06cfc864207d0434622461c214846d4
S345080251c000f0ccfc20464de1c02e08db4346224640f20d11484600f0c1fc204642e1274610e0484600f077fc2a781346dff8c01301f813008120491c01f81300521c2a7064
S345080252007f1cbfb2b742ecdb0026dff898a354e000231a461146304602f010fa00f0e000202849d04e270af14200314649117943405c002840d101200290002001900090a1
S345080252400346304602464146602002f0cbf9012002900190002000900346304602464146602002f0bff9002c26d006f01f01c6f3421078435044084490f8200000281bd015
S3450802528028780246dff8283303f812604ff0810c03f1010e0ef812c0c6f3421c07fb0cf75744394491f82010012903d183215b1c03f81210401c2870761cc02ea8db404610
S345080252c002f050fa42f6e06600273c460ee0ba4911f81010802900db0024401c80b229788842f4db012002f015f9761e304680b2002847d0002c45d138462978c0b2884278
S3450802530008d20121aa483a46d2b210f8120002f0ecf97f1c434603aa04a9002002f006fa04002ad1a0480499897849114e225143405c002821d104980079fe2803d10498a6
S34508025340c07800280ed04346049a40f20911484600f004fc42460498411d47f6ff7000f045fc06e043460498827941798078fff7b3febdf80c0002f01cfa002ccad001247c
S345080253800020ace7142002f0c5f8404602f0eaf903f011fa002410e000231a461146204602f04cf900f0e000202805d1204602f05ef9012002f0aef8641cc02cecdb49464b
S345080253c0c02000f04ffb002424e0794911f81020a2420ad1491c11f810603146812900d104263146822900d10526401c80b229788842eadb02f0ebf9002805d0434600224d
S345080254000146484600f0aafb4946304600f02afb641ce4b2c02c24da00231a461146204602f00cf900f0e000202817d001200290019000200090034620460246194608460a
S3450802544002f0d0f8012002900020019000900346204602461946084602f0c4f800263046c5e7002006b0bde8f0872de9f041044602f0c4fa0546002606e03046014600206d
S3450802548003f019f9761cf6b2ae42f6db002727e044484e217143084400f142010878002813d1c8780d2810d007eb461800231a4611464046c0b202f0c1f800f0e0002028b9
S345080254c003d04046c0b202f0e8f8761cf6b2ae42dedb012002f01ef8204602f043f97f1c202f01da0026f2e70020bde8f08133488021018040214180002070472f484021f7
S34508025500018080214180002070471cb500240be0002024494e226243114481f842002146c9b203f0c8f8641c062cf1d3002410e0002000904ff480731a4804ebc41100ebf9
S34508025540410000f5ea721e492046c0b200f06ef8641c012cecd913bd38b50446012c03d102f026fe03f048fb002512e0284603f0e9f80c484e2169430844403000214170d8
S345080255800171c5700170842141710021017241726d1c062deadb2046c0b200f074f9fae7000000007c590120be590120c65901207860012012680120796001201818024020
S345080255c0e0c10008dff8043d1a78002a13d1c0225a700022da701a7101229a7032225a7100229a71d8711972090a597210465881187308201870704710b5dff8d04c002073
S3450802560020701823202204f11c0104f15c0003f063fc0023202204f1680104f1a800bde8104003f059bc002181737047f8b50546dff89c6c05eb450406eb0414aa272773eb
S34508025640a1606360226000216173a1610421e161002121626162a1622174a1730121a174e021e174e073c5ebc50006eb80006030e0620020607402469da1e06a03f08cfc8c
S345080256804ff6ff70e082f1bdca690b689854521c4868824200d300228869824203d1002211460420a2e2ca61886a401c8862704710b40a6a002308e00c68a054000a521cc6
S345080256c04c68a24200d300225b1c042bf4d310bc704710b504462146a06afff7e9ff0020a062e0692062e069002100e0491c04290dd2401c6268904200d30020a26990424f
S34508025700f4d1002211460420bde810406ee2e06110bd8269416a8a1841688a4200d3521a826100214162aa21017370472de9f041044615461e460a46022a04db002111201e
S34508025740bde8f04152e20798dff8843b02eb420713eb0717f874280608d5387c002805d00a4600210120bde8f0413fe24ff0000806e014f8010b3946fff786ff08f1010896
S3450802578040463146c0b28842f3d3680609d5002078733846fff79dfff86abde8f04103f02fbc10207873bde8f081feb5dff81c4b207800281ed002a901a801f0bafa21462d
S345080257c02278521dd2b2824212da002007e011f8013b019d2b70019b5b1c0193401c0346dbb29342f3db029800881218029802800020207004f1a8076946384603f098fbec
S3450802580000282cd102a901a801f093fabdf800201a214a43a11801f1b4052e78761df6b286421cda6946384603f06efb002007e015f8011b019a11700199491c0191401cff
S345080258400146c9b2b142f3db02980088361802980680bdf8001004f15c0003f075fbf7bd10b4dff86c2a00eb400302eb031080680c4600e0083002781346a34201d0002a74
S34508025880f8d110bc704738b50446dff8440a214601eb410210eb02154ff0ff31e86a03f0e5fb284600f02af9284600f014f90146a9732046fff7d4ff0246508801466b6a3a
S345080258c0994203d04ff6ff71884204d1294620465268904705e0234600221c21284600f03df92846fff715ff2846bde83240a5e06161000038b504460d46c0b200f0b2f815
S3450802590029462046000ac0b200f0acf829462046000cc0b200f0a6f82946240e2046bde834409fe038b504460d46c0b200f09af82946240a2046bde8344093e0f8b50446ee
S345080259400d46dff88869687c00281ed105f1160106f15c0003f0d8fa010003d00120bde8f4402fe606f1b401ea8a1a20424388188021417000210170e97b0171e97cc1702a
S34508025980022181701021697405e006f1b401ea8a1a2042438818017815292bdb4778e98a06f1a80003f0d0fa010003d00220bde8f44007e605f1160106f15c0003f0a4fa59
S345080259c0010005d00320fff7fdfd00206874f1bd06f1b401ea8a1a20424388187f1c07f00f07477000210170e97b0171e97cc17002218170017801444c710178491c01704a
S34508025a00f1bd10b50446607c002816d0dff8bc28e18a1a2041435018b430417841f040014170e18a02f1a80003f08efa010002d00420fff7c7fd0020607410bd10b50446a1
S34508025a40607c002809d1a07b00280ad02146fff775ff21460020fff771ff2046bde81040cfe710bd38b504460d46687c002806d1a87bfff763ff29460020fff75fff294645
S34508025a802046bde8344059e7807b7047406a704738b5044600f01ff80546204600f01bf805eb0025204600f016f805eb0045204600f011f805eb0065284632bd38b504461c
S34508025ac000f009f80546204600f005f805eb0025284680b232bd0146486a002801d100207047401e48628a690868805c521c8a614b689a4201d300228a61704770b5044663
S34508025b00a169606a4118a1616068814201d3091aa161a069216a884201d1012070bd0420606200252e4606e02046fff7d4ff000600eb1525761c3046c0b20428f4db606828
S34508025b40a84208d2206aa061012200211b2000f04df8012070bd6562002070bdfeb505460e4614461f46687c002811d1a87c401ca8740146c9b2002901d1401ca874294671
S34508025b80a87bfff7dbfe2946a87cfff7d7fe07e0287bab2804d03a460021032000f026f8a87c8df80000002c0bd000200df101030146c9b204290fda14f8012b5a54401c96
S34508025bc0f6e7002002460df1010301e05a54401c0146c9b20429f9db3a46694646f40046304600f003f8ab202873f7bdf8b506460c46174686f40046dff8d056694605f16c
S34508025c005c0003f081f9010003d00520fff7dafcf1bdbdf800101a2041436818b430c0214170082101700771dff8a416c97cc170012181703146090a81714671a7f1800127
S34508025c40c171002c0ad00321461d0a46d2b2072a0edc14f8013bb354491cf6e703210023441d01e0a354491c0a46d2b2072af9ddbdf8001005f1a80003f066f9010002d08d
S34508025c800620fff79ffcf1bd80b50346084600220621fff763ff012002bd2de9f04104460d462846fff717ff07000dd129460220fff7d8fe29463020fff7d4fe294600206c
S34508025cc0fff7d0fe002052e0072802dadff8046612e00c2803dadff80066ff1f0ce0132803dadff8f8650c3f06e000262346324608212846fff732ff3846c0b2002810d0ae
S34508025d007f1e4ff00008741c304603f042fa00282646f1d008f10108404680b23328f2db0ce000242046c0b2801903f032fa00280ad0641c2046c0b23328f3db2946002051
S34508025d40fff790fe012012e029462046c0b2fff789fe07e0304603f01cfa761c2946fff781fe641e2046c0b20028f3d10120bde8f08110b5dff8684522460421dff8640549
S34508025d8003f0f7f92068dff8601588421ad1221d0421dff8580503f0ecf9606800f17840dff84c1588420dd204f108020421dff8440503f0def9a0686168814202d2b0f18e
S34508025dc0016f01d3132010bd04f10c020421dff8280503f0cef92069e168884201d1002010bd002010bd000038b505460c462046fff771fe052875d8dfe800f0037a7a2480
S34508025e003b5221460020fff72dfe002002f0b0fc0546012002f0acfc214605eb40052846c0b2fff71ffe2146dff8d0040078fff719fe2046fff702fe142001f06bfb03f059
S34508025e407df955e0002002f088fc012002f085fc022002f082fc032002f07ffc042002f07cfc052002f079fc0020dff8901408703ee0002002f066fc012002f063fc0220c8
S34508025e8002f060fc032002f05dfc042002f05afc052002f057fc0120dff86014087027e021460420fff7defd002002f061fc0546012002f05dfc214605eb40052846c0b257
S34508025ec0fff7d0fd2146dff834040078fff7cafd2046fff7b3fd4ff4fa6001f01bfb03f02df905e02b46002207212046fff736fe21460120fff7b6fd002002f039fc054668
S34508025f00012002f035fc214605eb40052846c0b2fff7a8fd2146dff8e4030078fff7a2fd012032bd2de9ff4705460c464ff000082046fff7abfd06281cd32046fff7cbfd2f
S34508025f4081462046fff7a4fd07462046fff7c3fd0646b9f1b00f05d0b9f1b30f02d0b9f1e10f01d1c24600e0b2462046fff78efd504507d02b4642462b212046fff7eefdf1
S34508025f8040469fe1b9f1000f00f09281b9f1a10f38d0b9f1a20f49d0b9f1a30f6dd0b9f1a40f6fd0b9f1b00f79d0b9f1b10f00f08880b9f1b20f00f0c180b9f1b30f00f0f8
S34508025fc0c880b9f1b50f00f0dd80b9f1e10f00f0e180b9f1e20f00f00081b9f1e30f00f01281b9f1e40f00f02881b9f1f10f00f04081b9f1f20f00f04081b9f1f30f00f0ef
S34508026000518153e10a2001f085fa384603f074f8bb4803f0c0f88046002800f049812b46002241462046fff799fd41e1c14607e02046fff750fdb34901f80a0009f10109b5
S34508026040ca465ffa8afab245f2dbad4887420dd3f019b0f1016f09d2012001f05bfaa94a3146384603f08af9804621e12b4642460f212046fff772fd1ae1404603f03cf8a3
S34508026080804615e1fff775fe010004d02b4642462046fff763fd02f045f9804608e121463046fff7dffcc1464846c0b2b04280f2ff8021463878fff7d5fc7f1c09f101092d
S345080260c0f2e7f019652807d32b4642460f212046fff744fd4046f5e0012001f01bfa8a48c719dff82082424630460146384603f040f84ff0000906e02046fff7ecfc08f874
S345080261000a0009f10109ca465ffa8afab2450bda18f80a00ff28efd02b46002229212046fff71cfd0020cde042463146384603f025f9002002f0e0ff8046b9e070488742fa
S3450802614002d24ff00e08b3e0384603f040f88046aee021463046fff785fcdff8a8914a4630460146384603f004f847463846c0b2b04280f29d80214619f80000fff772fc5e
S345080261807f1cf3e70a2001f0c5f9384602f0b4ff80468de0dff86c914a4630460146384602f0affd8046002807d02b46002241462046fff7d3fc4ff0000821463046fff7ca
S345080261c051fc00273846c0b2b04271da214619f80000fff747fc7f1cf4e7dff8289106e02046fff778fc09f80a0008f10108c2465ffa8afab245f3db4a463146384602f053
S34508026200cefd804654e001ab6a4602a90df1010002f02dfd21460298fff76cfb21469df80100fff71ffc21469df80000fff71afc21460198fff75efb3ae02046fff728fc0a
S3450802624002902046fff747fc8df801002046fff742fc8df800002046fff71afc019003469df8002002999df8010002f00ffd80461ee002f072f880461ae04746dff88480c0
S3450802628005e02046fff727fc08f809007f1cb9465ffa89f9b145f4db3146404602f099f8804605e002f0a6f8804601e04ff00c084046002805d02b46002241462046fff779
S345080262c04dfc002004b0bde8f0870000545d0120a86401206001000810020008a0410008f866012090410008cc325aa594410008ffff0f00984100089c410008106801204c
S3450802630000000108f86101205001000810b4034640f20144a34202db4ff4a06013e00b46092b02db4ff4a0600de0134640f2e934a34202db4ff4a06005e0dff8a83c9884fa
S3450802634019845a84002010bc7047dff8980c406d704700002de9f843dff8885c5ff000023aa105f12c0002f017fe4ff47a7003f021f8dff8d44a0823102242f2f8002118bf
S3450802638042f2ec00204402f0a7fd0023102242f22410211842f21810204402f09dfd0023102242f25010211842f24410204402f093fd4ff47a7000f04df8dff82c6c0122ed
S345080263c00021304603f059f9dff8207cdff8208c08224146384603f070f90020687381460de017eb09140121204603f089f94ff48840606008eb8920a06009f10109b9f150
S34508026400080feedb0020dff8ec1b03e030680843306001200028f9d0284603f01afadff8d81b28786a7842ea00220a60a878ea78120442ea0062287942ea00226879024352
S345080264404a60bde8f14303f0c7b80000436f6d53656d610080b5c82800d2c82002f0aaffdff8800b002181600165818301bddff88c0b0021dff86c3b04e01a44127c00f897
S34508026480012b491c0a4692b2062af6db7047dff86c0b002204e01944097c00f8011b521c13469bb2dff8dc1c062bf4db002203e0cb5c00f8013b521c13469bb2062bf7db4b
S345080264c00822027000224270452282700022c2708271c2714022027200224272402282721122c272002202734273ca6c120e8273ca6c120cc273ca6c120a0274ca6c42740c
S345080265008a6c120e82748a6c120cc2748a6c120a0275896c4175c1218175e021c175092101766321417600210177417770472de9f84f06460024b07e96f81b904fea09490f
S3450802654009eb0069307f09eb0029707f8144307c757c05eb00250e35adb2b5f5797f01dd4ff47975b22d00d1012406f1220a9af800109af8010000eb012080b240f2033158
S3450802658088421bd19af81e009af81f1001eb002140f6631089b2814240f0c480dff8440a818b0a46ff2a01da491c8183c18b0a46ff2a80f2b780491cc183b3e0b0f5006fd0
S345080265c040f0b080dff88078694642f2ec00384402f09afc002840f0a5804ff48168bdf8000008fb00f03844c21d0020014605e0401c73189b7902f8013b491c0629f7dbfa
S34508026600002304e0401cc95c02f8011b5b1cdff8d419062bf6db0823137000235370452393700023d370a5f10e031b1213712b460e3b537100239371d371402313720023be
S345080266405372402393720123d372002313735373cb6c1b0e9373cb6c1b0cd373cb6c1b0a1374c96c51744946090e91744946090cd1744946090a117582f81590002191751c
S34508026680d1759af804109af805301b0403eb01639af8061003eb01239af80710cb180021117651761946090e91761946090cd1761946090a11771e308246537702f11e09c5
S345080266c04ff02a0b13e016f80b0009f8010b0ae00af1010a002cf6d058462a3880b200f0a5fe09f8010b0bf1010b1ffa8bfbab45eedbbdf8000008fb00f8002007eb08011e
S34508026700488027f808a0bdf8001042f21810384402f01afc002805d0dff87c1c4ff48e7003f0f8f8bde8f18f2de9f041054605f12407dff8506a3878797801eb002140f638
S34508026740631089b2814203d0b06d401cb0656fe0306d401c3065b879002843d1002004e02918897932181174401c0628f8dbfff77efeb878f97801eb0021a1f10b04a4b263
S3450802678097f80780387a96f90b10411a49b2002900ddf072002c4bd0b4f5757f2fda96f90800a8eb000040b2012816d102f01bfe86f80880012070722d3500e00024002cda
S345080267c036d02e78761db6b2b442f7db284602f00df83544a41ba4b2f1e7002828d10120707225e0012820d1b878f97801eb0021a1f10b04a4b22d35b4f5757f07db002264
S3450802680011464ff40170bde8f04190e10024002c0ed02e78761db6b2b442f7db284601f0e5ff3544a41ba4b2f1e7b06d401cb065bde8f0812de9f843dff80c4642f2441010
S3450802684025186946284602f073fb002840f07f804ff48166bdf8000070432118dff8842792f90b3091f905001b1a5bb2002b0ed46946284602f048fbbdf8000008285fdb95
S34508026880dff8141b4ff4c47003f044f858e0538c178b48883f1abfb2bb4258d291f8070400283fd0506d401c506542f218102718384602f06afb8046284602f066fb81464b
S345080268c01ae06946284602f01ffbbdf80000082805dbdff8c41a4ff4cb7003f01bf8bdf80000704304f207410a5c521e0a54bdf80010384602f028fb4846a0f1010980b2da
S345080269000028ded14046a0f1010880b200281ed06946384602f0f8fabdf80010384602f013fbefe76946284602f0eefabdf80000082805dbdff8601a40f2a11002f0eaff13
S34508026940bdf8001042f2ec00204402f0fdfabde8f1832de9f843dff890462068002800f1a680dff88056e88cdff8dc644ff6ff77b8422dd000ebc011c9007218138848f229
S34508026980010c634515db331d595c012911d0298b5180082805dbdff8001a4ff4dd7002f0b9ffe98c42f24410304402f0cdfaef840ee0082805dbdff8e0194ff4df7002f063
S345080269c0a9ffe98c42f2ec00304402f0bdfaef8442f2181006eb000905f12601484602f093fa002801d0ef8461e0e98c0a464ff4816808fb02f0305a000438d5287b002841
S34508026a0006d1484602f0b2faef84bde8f143bbe3082a05dbdff8801940f2cf1002f07affe88c08fb00f836f80800c0f30e0142f2d002324401f11f039bb21b0a137000f17e
S34508026a401f0353700b3189b2090a917500f10b01d175c01cdff86c1a01ea00412a31616006f50350a060301d4044e06013e0082a05dbdff824194ff4ec7002f04bffe88c06
S34508026a8008fb00f836f80800c0f30c00606006eb0800c01da060dff8300a2060dff82c0a0169490703d50421016100210160bde8f18338b504462078401db0f5806f35da1f
S34508026ac0dff88453694642f2ec00284402f01cfa00282bd1bdf80000072805dddff8b8184ff4fc7002f016ffbdf8000000ebc01105ebc1000121017100218171417121783a
S34508026b0047f6fb72891a0180002104e0625c4318da71491c89b22278521d9142f6dbbdf8001042f21810284402f00efa31bd18b587b008238df80030c0238df801300123ab
S34508026b408df8023000238df803308df8042003468df80530000a8df8060042f080028df8072000290ad1032000220df105030146c9b207290edc5a54401cf8e703200df19d
S34508026b80050403e011f8013ba354401c0246d2b2072af7dd6846fff78cff08b010bdf8b506460f4614461d46dff838040685012001f0faffdff8300401680029fcd4a249b0
S34508026bc001220a7100228a714a712a460c320a80ea1dca71c0220a7201224a7200224a810e73360a4e7380228a73cf733a46120a0a743a46120c4a743f0e8f7401f113023b
S34508026c00002304e014f8016b02f8016b5b1c2e46b342f7d30a88c2f30e0342f2d0040c4403f11f05adb22d0a257002f11f0565700b339bb21b0aa37502f10b03e375d21cc7
S34508026c40dff8803803ea02432a33436001f503528260091dc160dff870180160dff86c080169490703d50421016100210160f1bdf8b5754c4ff6ff75dff86863708da842cb
S34508026c8013d106f12a0142f2ec00204402f03cf9002801d07585f1bd708d00ebc011c80000212152318ba21c11524ff48167708d78432118707a002802d10888002837d0c0
S34508026cc0002070720871307a88710888002802d0b07a401cb072b07a4871088840f400400880708d318c07fb00f2224482f80714082805dbdff8a01640f27a2002f00afeb9
S34508026d00718d42f21810204402f01ef906f12a0142f2ec00204402f0f7f8002801d07585f1bd708d47430020e053308ba11cc853f1bd70b4ab4a538d4ff6ff74a34201d1d1
S34508026d40002014e04ff481646343dff88457ee18eb5a3344db1d0360508d604328440860918c508d4443285b091a481f80b270bc704710b59b4c1420a073402002f0d8fc42
S34508026d804ff4803002f0d4fc012002f0d1fc4020dff84017088004f12c00bde8104002f02fb980b5dff83017488b401c4883486b002803d101f12c0002f022f9bde801401b
S34508026dc002f01bbb38b5874c884d22e02968090cc1f30e012844806800f0e0fa607b014609014ff000426a50dff8f026d3681b0603d58023d3600023136029444a6822f078
S34508026e0000424a60401c6073c0b2082801db00206073607b000129580029d7d531bd7148c16cdff8bc06411811298041c00f7047dff8ac160a18112a04d20122dff8a4369d
S34508026e40184442547047000034bd00202de9f041002402f027ff634d2046e8730146dff8842601e01154401c1128fbd305f10f0002f025fde864e87b022807d12046e87358
S34508026e80dff86406802101814021418120462883dff85866b046dff8587614e0402179810fe0b046fff7e4fefff753fdfff78aff012000f02ffba87b01468129eedb4021b0
S34508026ec03981401ea873298b0846b0f5967f24da3868c0f300100028e4d1dff80c060068c0f3c0200028ddd0491c2983084680b26528d7db11f0030fd4d1e87b002802d0b7
S34508026f00e86c804502d1404600f0caf9dff8e4058045c6d208f10108c4e7e87b002815d0e96cdff8bc054118112907d2dff8b405405c002804d02046e87301e02046e873fe
S34508026f40e87b002816d12046e86413e0204600e0401c11280ed2dff88c15095c0029f7d13018e86402f09ffcdff87c054021018180214181688b28834ff4007703e0402007
S34508026f80dff86c150881002c05d0dff80c1440f2353002f0bffcdff8506537814ff0ff3105f12c0002f062f87781288b698b814203d0401c2883012600e02646fff702ffdd
S34508026fc001f0c6fcfef7f1fb002e03d0fff732fcfff74efefff7bdfca87b0028cfd0401ea873d0e7140000203067012040650120b0de00200000e03040800240f4dd00205a
S345080270002de9fc410446a68ab6f5807f03d0b6f5007f40f0b480207f657f2d0405eb0065a07f05eb0025e07f451904f12600017890f801804fea084808eb0168817808eb00
S345080270400128c07880444f4fb86c854217d1002005e004f11601095c3a181174401c0628f7db387b002808d1fff7d9fe002806d0fff70dfa0120387301e0fff7f8f9b6f506
S34508027080007f03d12846fff7d3fe78e0f86c804575d1dff83c64694642f2ec00304401f033ff00286bd14ff48160bdf8001041433144ca1d00210b4607e0491c04f1160c92
S345080270c01cf803c002f801cb5b1c062bf5db002305e0491c17f803c002f801cb5b1c062bf7db002307e0491c0ff2104c1cf803c002f801cb5b1c0a2bf5d3002305e0491ca2
S3450802710017f803c002f801cb5b1c062bf7dbfb6c1b0e1370fb6c1b0c5370fb6c1b0a9370091dfb6cd370131d002206e0491c04f11607bf5c03f8017b521c062af6db2a464a
S34508027140120e1a702a46120c5a702a46120a9a70dd70bdf800205043002233185a80091d3152bdf8001042f21810304401f0ecfe002804d0884940f28d3002f0cbfbbde839
S34508027180f381000014000020f8b5d34ce06db0f57a7f02d2401ce065f1bd0020e065cc4d694642f2ec00284401f0aefe002804d0794940f2a33002f0adfb4ff48160bdf8b1
S345080271c0001041432944ca1d00210b4604e0491cff2602f8016b5b1c1e46f6b2062ef6db002304e0491ca65d02f8016b5b1c1e46f6b2062ef6db002308e0491c0ff20836bd
S345080272001f46ffb2f65d02f8016b5b1c1e46f6b20a2ef2d3002304e0491ca65d02f8016b5b1c1e46f6b2062ef6dbe36c1b0e1370e36c1b0c5370e36c1b0a9370091de36c72
S34508027240d370121d002304e0491cff2602f8016b5b1c1e46f6b2062ef6dba36c1b0e1370a36c1b0c5370a36c1b0a9370a36cd370bdf80020504300222b185a80091d295288
S34508027280bdf8001042f21810284401f06ffe002804d041494ff46c7002f03cfbf1bd0000f8b504468a4d694642f2ec00284401f02bfe002804d0384940f2be3002f02afb80
S345080272c04ff48160bdf8001041432944ca1d00210b4604e0491cff2602f8016b5b1c1e46f6b2062ef6db00237b4f04e0491cbe5d02f8016b5b1c1e46f6b2062ef6db00238d
S3450802730007e0491c80a61f46ffb2f65d02f8016b5b1c1e46f6b20a2ef3d300236e4f04e0491cbe5d02f8016b5b1c1e46f6b2062ef6db0023137053709370091dd370121d45
S3450802734004e0491cff2602f8016b5b1c1e46f6b2062ef6db23461b0e137023461b0c537023461b0a9370d470bdf80020504300222b185a80091d2952bdf8001042f21810fb
S34508027380284401f0f3fd002804d0034940f2cb3002f0c0faf1bd0000c4c4000830b4037b427b02eb032292b2b2f5006f1ed1c37d494c827fc57f2d0405eb026590f820202d
S345080273c005eb022590f821205519e26c954217d1112b02d130bcfff7a7b9012b02d130bcfff7a5b8a06d401ca06509e040f606039a4201d130bc03e63748816d491c8165c2
S3450802740030bc70473c4a136b0360d16acb180360d16d416030498b6d83601268c2608a8b026100228a83c98b4161704770b50400274d42d10020de2205f5015301e05a54e1
S34508027440401c014689b28029f9db42f248002e184ff0aa3030602048816d716026490968b160416df160016d31614bf6bb31b182018df182cc213176817a7176c17ab176e6
S34508027480017af176818b3177c08b707742f2ec00284401f07afdb07742f21810284401f074fdf07742f268002e1842f24410284401f06bfd3070dd20707005f50150005df4
S345080274c070bd00000000ff1f0000e0f00490024034bd00201a1002401400002008900240f099573f0c670120101802401066a8c0101002402066a8c068810240080600017b
S34508027500080006040002000008060001080006040001000010b513490c68002c03d012490968002901d013201ae0002801d1002016e0eff3108172b6042222630122a26300
S345080275400022c4f88420e06408480068401c074a106081f31088200002f0ccfbd4f8840010bd00bf9067012074000020a86701207cb500251fe00ff2544000f0a4fe04eb58
S34508027580052046f20c614618304600f0b7febaa000f099fe4ff480700090334601220ff23841c5ebc50004ebc00046f29c54204402f044fc6d1cdff80044012ddbd914231f
S345080275c0202246f20c00211804f5c04001f084fc0020014602e004f82010401cb0f5c05ff9d373bd70b506460c461d460499059801f0070101eb4211ed0005f008056d18b5
S34508027600000100f010004519adb2b5f5c05f04dbdff8a813472002f07df9dff8a403415d01f01f0176184655dff88c03002100f8251000eb85004470084670bd10b50c46b3
S3450802764002f0070202eb4012e40004f00804a4181b0103f010031c19a4b2b4f5c05f03dbd649622002f056f9d548005d10bde0b50146090201f46041adf8001002218df8ca
S34508027680021001218df8041000f01f008df80500684600f019fa80b20ebde0b50146090201f46041adf8001002218df8021081218df8041000f01f008df80500684600f048
S345080276c003fa80b20ebde0b54003adf8000002208df802008df8041002f07f028df80520684600f0f1f980b20ebd3eb504460d4664011034204680b2b0f5c05f03dbaf49b4
S345080277009b2002f007f96a46214689b2fe2000f063f86a46214689b2284600f05df86946204680b200f0aaf800203ebd7cb50c461546a14e02466946c3ebc30006ebc000f2
S3450802774046f29c53184402f0bffb00992980009901eb011206eb820146f24c021144216080b276bd7cb5054601260122694692482b46c3ebc30400ebc40046f29c53184454
S3450802778002f0a2fb040005d1009880b200f011f800260ae00a2c08d091a000f094fd204600f0acfd34a000f08efd002cddd0304676bd80b50146834801f0c6fb40b20028da
S345080277c003d07e49d02002f0a5f8002002bd7e49088800220a807047f8b504460f4616463d46b5f5c05f03db7449e62002f092f87349485d00f0e00060283cd16e4810f832
S34508027800252012f0f00f15d142f0a00200f825204ef2e00202eac702380200f440708218c7f34410821802f5c07232800120b07080203071b078082818db30794a5d02f01a
S345080278401f0210183071485d00f0e002401c00f00f0080184855304600f036f90120b07000203071301db1784454f1bd311d0c54b078401cb070f1bd0a00000038b5044673
S345080278800d46b4f5c05f04db4c494ff4827002f041f84b48015d0a4602f0e002602a17d12a7901f00f01403189182971015d01f0e002491c01f00f0189180155284600f006
S345080278c003f93d4810f8241001f00f0100f8241031bdf8b504460d462e46b6f5c05f04db36494ff48d7002f015f8334f17f8260010f00f0f28d1694607f5c04001f004fb12
S3450802790040b200281bd117f8260040f00a0007f82600bdf80000b91c21f8260046f24c003844bdf8001001eb011200eb82000021018005f00701c1706d0985700ee04ff437
S345080279408d7021490880f1bd46f24c003844b91c31f8261001eb011200eb82000188402904db40f21b1018490880f1bd01440c710188491c0180f1bd38b50446b4f5c05f17
S3450802798004db0e494ff4a07001f0c4ff0a4800eb840461880091002269466378c3ebc30500ebc50046f29c53184402f081fb207800f0f000207031bd8000002040c40008d6
S345080279c0b0fe0020806000200e680120496e697420534c46200000006c6f6d7100000000717565756520726563656976652076616c7565202d2d3e2000000000dff8740810
S34508027a000078002801d0062070470220704718b40a46042a02db40f2031013e00246062a02db40f20f100de0dff84c3840f61c645443234483f8181e022a02db14bc02f092
S34508027a4087bc002012bc704738b50546012001f0abf80446294602290ddadff81c2840f61c604143501800f561600121817000210170417007e0dff8fc070078002802d05e
S34508027a80284602f0fbfc2046bde8324001f08cb810b50446012001f087f8022c0cdadff8d82740f61c614c43111901f6136101228a7000220a704a70bde8104001f074b8c7
S34508027ac0dff8b017087070472de9f0418046b8f80040640b022c13dbdff898070078002801d1002070e0012001f05ef80446404602f018fd0546204601f056f8284663e0e9
S34508027b00002c02d1dff8745701e0dff87457012001f04af80646dff8600740f61c616143014401f561677878421c1346dbb2c82b00db00223b7898420bd1b878002808d11b
S34508027b40304601f031f84ff40c70f8804ff0ff303ae00c207b7843430b44d8f804c0c3f804c07b7843430b44d8f808c0c3f808c07b7843430b4498f802c083f802c07b7872
S34508027b805843b8f800300b527a7097f80180c8f1c80838788044b87800280fd00020b870686940f001006861a868400106d5002c02d100f05efa01e000f09bfa304600f05d
S34508027bc0f3ff5ffa88f84046bde8f08110b50446022c0adbdff89c160978002903d0bde8104002f0f0bb002010bd012000f0dcffdff8842640f61c614c43111901f56162d5
S34508027c009178002901d0002410e051781378994205d20b4611785b1aa3f1380406e01c460c1b2146c9b2002900d1c82400f0bcffe4b2204610bd0146022908dbdff83416d7
S34508027c400978002901d002f0b0bb00207047002802d1dff8280601e0dff82406806800f0e050b0f1e05f01d1002070470120704770b5dff800365c78641c04f001045c70af
S34508027c8040f61c65dff8f06521466943721892f8151e002913d0641c04f001045c706c43321992f8151e002909d01978002903d0bde8704002f053bc4ff0ff3070bd02f6f7
S34508027cc013640c2125784d431544b5f860595b7805eb4335058023784b43134493f86239837023784b431344d3f864394360237859431144d1f86819816025786d1c2846b5
S34508027d00c0b2642800db0025012000f04dff29466278c9b2914206d10121a170257000f043ff002070bd257000f03eff012070bd0246062a02db40f20f107047022a08dba7
S34508027d40dff830150978002901d002f0c9ba00207047010002d1dff8241501e0dff82015896911f007010cd04b0703d500f5047080b2704711f0030f03d000f5147080b25b
S34508027d807047dff8f43440f61c614a431a44b2f8161e002905d00023a2f8163e401880b270470020704710b50146ff290ad100242046c0b2062824da2046c0b2fff7f3ff63
S34508027dc0641cf5e7062902db40f20f1010bd02290bdbdff8a0140978002903d0bde8104002f0fbba40f2131010bddff898140028086803d140f00070086002e040f080602d
S34508027e000860002010bd70b505462a46062a02db40f20f1070bd022a0cdbdff858040078002804d02846bde8704002f0e8ba40f2131070bddff840040ff27843dff84414d9
S34508027e402c000ed10a6842f000720a60dff82c6490f8180e53f820000a6822f000720a6011e00c6844f080640c60dff8146400f6186440f61c604243a05c53f820000a68cd
S34508027e8022f080620a60012131607168c907fcd5316841f004013160f061284600f06ff930684008400030600220706132247068c00705d5641e0120fff72cfb002cf6d18b
S34508027ec02846fff7c1fd002c04d105f51075284680b270bd002070bd38b5002411e02046c0b2fff7b1fd2046c0b2fff7d1fd0020dff8841340f61c625543294481f8180eb6
S34508027f00641c2546edb2062de9dbdff868030078002801d002f0c0fadff86003012101604168c907fcd5dff86013c161026842f004020260d248012202604268d207fcd5e7
S34508027f40c161016841f004010160002404e02046c0b200f014f9641c2046c0b20628f6db31bd70b4c44901f6136255786b1c1846c0b2642800db0023107885420ad1907830
S34508027f80002807d12020c14a10604ff40870a1f8160e25e00c20be4c45430d442668760da5f86069557845430d44666806f00f0685f86269557845430d44a668c5f86469ee
S34508027fc0557868430844e168c0f868192020af490860002090705370ae480178491c017070bc7047f0b4a44941f62f400a1855786b1c1846c0b2642800db0023107885422a
S345080280000bd19078002808d12020a34a10604ff4087041f63242885229e00c209f4c45430d4441f27c7627687f0daf53557845430d4441f27e76676807f00f07af555578b9
S3450802804045430d4405f5bc55a6682e6055786843084441f28471e468445020208e4908600020907053708b480178491c0170f0bc704710b4804a02f561618878002809d075
S345080280808748c16849084900c160016841f0010101602ce083480c230c785c431444646884600c785c431444a468c4600c785c431444a47844600c786343d25a5205521cce
S345080280c002600a78521c1046c0b2c82800db002210464b78c0b2984208d1012088707048c3685b085b00c3600a7000e00a7010bc704710b4604a41f62c4011188878002895
S3450802810009d06948c16849084900c160016841f00101016031e065480c230c785c431444d4f8204e84600c785c431444d4f8244ec4600c785c43144494f81e4e44600c78c6
S3450802814063431a44b2f81c2e5205521c02600a78521c1046c0b2c82800db002210464b78c0b2984208d1012088704f48c3685b085b00c3600a7000e00a7010bc70470028b2
S3450802818001d13e4800e03e4800f5007001210160416041684908490041600021c16041610164434941640121c16100210160704780b572b64ff4407002f044fa14208df854
S345080281c0000001208df8010000208df8020001208df80300684602f03afa13208df8000001208df8010000208df8020001208df80300684602f02bfa40208df8000001202a
S345080282008df8010000208df8020001208df80300684602f01cfa3f208df8000001208df8010000208df8020001208df80300684602f00dfa62b601bd0a46022a12da0029b9
S3450802824001d10e4900e00e498a69120e02608a69c2f3074242604a6882600022c260896901617047034a1278002a01d002f00eb870470000086801208c6800200064004019
S34508028280006800402038024001001b010c640040b0650040116801200c680040b0690040086400408065004008680040806900400000e0ff01001b0103001b0107001b01bb
S345080282c00f001b01704710b5044603e014f8010bfff7f8ff20780028f8d110bd38b50446054d0011285cfff7edff04f00f04285dbde83240e6e700000000002010b50446a0
S34508028300000efff7ebff2046000cc0b2fff7e6ff2046000ac0b2fff7e1ff2046c0b2bde81040dbe780b5a8480068c0f3c03090f0010f01d0a54800e0a54802f012fa0028c8
S3450802834002d140f2064002bda248008802bda2490a889207fcd58880704710b49f4b4ff400741c819e484ff4804101804ff4805141805c819b490a4600e0521e1868c0f336
S34508028380c010002801d0002af7d1002a02d14ff480601ce01868c0f38010002802d040f2014014e01c8100e0491e1868c0f38010002801d10029f7d1002902d140f20240b0
S345080283c005e0894804218180c4210180002010bc704770b504460d46002604e014f8010bfff7b5ff761c30462946c0b28842f5d3002070bd10b5002403e00020fff7a7ffaa
S34508028400641c322cf9d375480068c0f3c010002802d140f2034010bd4ff4804073490880002010bd2de9fc410020fff749fb6b4c4ff400712181644d4ff480462e814ff403
S34508028440805068816181674a009202e00098401e00902068c0f3c010002802d000980028f4d10098002807d14ff4806059490880a7e00098401e00902068c0f38010002837
S3450802848002d000980028f4d10098002804d140f20140504b188094e02181009202e00098401e00902068c0f38010002802d100980028f4d10098002804d140f20240454928
S345080284c008807ee0484804218180c42101802868c0f3c03090f0010f01d03c4f00e03c4f38684349884204d040f204403949088067e07969642904d3386941183d488142c7
S3450802850004d340f20540334908805ae0384602f028f900900098002804d140f206402d4908804ee0d7f810800020009006e018f8010bfff70cff0098401c00900098796935
S345080285408842f4d30020009005e00098401c00900020fff7fcfe0098322804d22068c0f3c0100028f1d02068c0f3c010002804d140f203401749088023e0154887421cd1fa
S345080285800020009005e00020fff7e1fe0098401c0090009844f63e118842f4d30d4c01f042fe208001f03ffe208001f03cfe2080002806d10120fff783fa6e810020054938
S345080285c00880bde8f68100001018024000000b08000004080a680120083c00401014024018180240a0860100003c00401a18024041475046ffff0f085049488070477cb5bc
S345080286000025012600f060f84c4c1be0fff7defa6188814214d2207830432070012060700ee02078314608422846c0b2eed0fff7cdfa142804da2078b0432070012060704f
S3450802864076006d1c2846c0b20628eadb6078002830d001a96846fef76cfb06282add0120009908700098401c0090c020009908700098401c00900020009908700098401cdf
S3450802868000900020009908700098401c00900020009908700098401c00902078009908700098401c009001980088801d019908800020607073bd0246521e9241d243d20f02
S345080286c01f4808440271704710b51d4c2178201d0a46805c002827d00846fff729fb2178221d525c012a0ad101001dd000221146fdf77cfa0220211d2278885414e0022a83
S345080287000fd102464ff6f0710a40b2f5107f0bd100221146fdf76afa0020211d2278885402e00020221d50542078401c2070c0b2062801db0020207010bd00007800002060
S345080287405067012000eb40018900104a012350180089834050580383704700eb400189000a4a0123501800898340505843837047064900eb400201eb820148680069498969
S34508028780c84000f0010080f001007047b4c30008002008e01021dff8f02311540021dff8ec231154401cb0f5c05ff3db0020dff8e013c86070470020dff8cc130a4610e048
S345080287c0c3060cd4137813f0e00f01d110231370137803f0e003602b01d170231370401c521c01f5c0539a42ead370472de9fe4f02461078029054789378d078117902f163
S34508028800050b022b01d0032b6cd1002801d0e02809d10190009302980346dbb222465846fcf784ff91e00d4605f0070515eb4015d80000f0080045191035adb2b5f5c05f0f
S3450802884007db0a4600212d2003b0bde8f04ffdf7cdb9d04e4ef2e00101eac501280200f440704118c5f34410411801f5c07131800027dff8148318f8059009f00f090fe0a9
S345080288801bf8012b1a54491c0846c0b28245f7da0af10100b0703046fff716f95744ffb2029887421bda8246aaeb070a5ffa8afabaf1070f08dd4ff0070a04f080004844c2
S345080288c0307124f0800403e004f0c0004844307109f1010909f00f090121331dd4e708f8059032e0052b20d11bf8013ba94a01f07f0101ebc311000200f46040411801f509
S34508028900c07111800121029804e01bf8014b1344dc70491c0b46dbb29842f6da401e90701046bde8fe4ffff7cfb8062b05d1abf10500bde8fe4f02f0b5b9072b05d1abf115
S345080289400500bde8fe4f02f031babde8f78f00002de9fc41fff753fe01a96846fef7e9f9040000f00e81009d2146894e07e0032802d1304602f069fa611b0098411889b269
S345080289800f2940f3f7803046fff772f910f1010f00f0ee80b6f8007080a03946c1f3c311405c022840f0a5803846a0f5c07041f61c4101eae001001200f0030040187f019f
S345080289c007f478773f18bfb2b7f5c05f03db7249cf2000f09fff6c49ca5d12f0e00035d1307900f00f0002f01f0203469a42c3d0c855b078401e2870317964480a0602d525
S34508028a000022c25504e0c25d521c02f00f02c25501f0c001c05d41186970c7f3c000801ca87038464011e87007f007072f716d1d01200146b278c9b291429dd2311d0246f8
S34508028a40d2b2895c05f8011b401cf2e7202826d1b078401c2870c02068700520a8703088000a00f0e000e870307800f07f0028713088a0f5c070c01100f007006871ad1d5d
S34508028a8000200146b278c9b29142bff475af311d0246d2b2895c05f8011b401cf1e7402803d1f068401cf06066e760287ff464afb7f5c05f03db3849f62000f02bff4ff070
S34508028ac0010809e038460146301d4246d2b2805cfef7fffe08f101084046b178c0b28842f0d3307940067ff547af3846fef744ff42e701287ff43baf08202870c0206870a2
S34508028b000120a87030880146090a01f0e0010246803a1d4b41f61c4707eae207121202f00302d219470107f47877ba1892b29a5c02f0e002202a06d1e970307800f07f0081
S34508028b4028716d1d08e000f01f000818e870b07900f07f0028716d1d0020321d0146c9b20829bff609af515c05f8011b401cf5e7002104e7019800882d1800982d1a0198e1
S34508028b800580bde8f3810000b0fe0020b0160120206701205c67012084c40008000105020202020202020203eff3108180f310880846704710b4c24ca378002b0ad000f0f8
S34508028bc0f70013465b0903f00803184308704a70881c0ee00870607804e00346dbb2ca54120a401e0346dbb2002bf6d160780844401c10bc7047000010b502f031fab04c49
S34508028c000620a072012204f14e0104f10a0002f072fa0120a0720020e072012204f14e0104f10a0002f067fa9f20a0720a2204f14e0104f10a0002f05efaa24b94f8560071
S34508028c40242806d180224ff40031022000f01ef805e080224ff40041022000f017f8012299a104f1940000f097f9002010bd30b4934c2578057060680860e078107021897d
S34508028c804ff47a704143196030bc704770b504468b4d69602c701046412800db4022100001d0ea7001e00820e870b1f5007f03d10120a870687016e0002202e0400868607f
S34508028cc0521c6868c60701d40028f7d1012090406860884201d0362070bd0020a870d2b2d208521c6a70022c01d14020e870184602f0e9f94ff47a71b0fbf1f02881002072
S34508028d0070bd2de9f04707460c4691466c4d6868c919884201d235203fe04ff0400805f19406c821304600f0a1f980b200280ed0372032e010f8012b09f8012b491c0a4600
S34508028d4092b24245f6dba4eb0804a4b24744002c1fd03a4605f10a010320fff72bff444500daa0466a784244521cd2b205f14e0105f10a0002f0bff98246002804d16878b5
S34508028d8028444f300021dae7304600f039f9504603e0304600f034f90020bde8f0872de9f84306461446464f78680a469219904201d2352082e097f803800d4607f1940939
S34508028dc0c821484600f052f980b2002803d0372074e097f80380002d6cd00620b872012207f14e0107f10a0002f085f9324607f10a010220fff7defe0146f8780246521e54
S34508028e0016420dd1454500daa8460020024692b242451cda14f8012b01f8012b401cf5e78046b044d24302ea0808a8eb06081ffa88f8454500daa846002004e014f8012b49
S34508028e4001f8012b401c024692b24245f6db7a784244521cd2b207f14e0107f10a0002f04af9a5eb0805adb246444ff00a0838780128aed1a8f101080120fef74bfb052043
S34508028e80b872022207f14e0107f10a0002f033f997f84f00c00703d5404680b20028e9d11ffa88f8b8f1000f93d1484600f0a8f8342003e0484600f0a3f80020bde8f28379
S34508028ec0f8630120002d310170657273697374656e745f6d656d000070b504461d46002020806080501ea080a160002605e0314689b2204600f028f8761c3046294680b2bb
S34508028f008842f4d3002070bd028843889a4204d14ff6fe70088001207047836833f812200a800288521c81880a40028000207047028843889a4201d101207047806830f8c9
S34508028f40120008800020704730b443885c1c8288144002882546aa4201d1022004e0826822f813104480002030bc70470288531e8288134042889a4201d1022070478268f1
S34508028f8022f81310038000207047014648880a88801a89880840704770b504000d0016001c220021200002f00ff96560a660eff3108072b60f4921600f49096800290bd0e7
S34508028fc00d49096889690c4a126894614c61a16109490968616103e007490c606461a46106490968491c054a116080f31088002070bd00bf414d4553b0670120b4670120b0
S3450802900080b50100eff3108272b6c868002806d18868401c886082f31088002023e0036f984202d10023cb600be0036fcb60036fd0f874c0c3f874c0436fd0f870c0c3f804
S3450802904070c00b695b1e0b610021816606490968491c054b196082f310880021c0f8841002f0bcf8002002bda867012010b5eff3108272b68368002b06d08168491e8160b4
S3450802908082f3108800202fe000292ad0174b1c68174ba366e066c368002b0ad0c3682367c3685b6f6367c3685b6f1c67c3685c6702e0c4602467646703695b1c03610620d7
S345080290c020630120a063e1640a480068401c0949086082f31088200000f00cfed4f8840002e082f310880d2010bd00bf9067012039c30008a8670120914a002808d100203d
S3450802910090609048c16841f00041c160002070478d49484090608d4941408d4b994209d18849ca68002a02d508608a4808600020c8607047002090602c20704710b572b6ed
S3450802914085484ff0ff310160416081608348016041608160824c0020206000f09cfc81486060002000e0401c6428fcd37e48606010bd30b400230d4604e0047802f8014b89
S34508029180401c5b1c1c46a4b2ac42f6d3002030bc70470078704738b57449884204d20020674988600e2032bd0024714d00e0641c55f824108142fad355f8240010f1010f77
S345080291c003d000f004f8641cf6e7002032bd5c498968002901d1272070476649002200e0521c634b53f822308342f9d3624b586820f440705860586840f4007058605868e5
S3450802920020f0f80058605868d20042f0020202435a60586840f4803058600846411e002802d01868c003f8d4002901d10b207047002070474248ff21017041700021416043
S345080292400846704710b402464ff480134a4c1846431e002802d02068c003f8d4606820f440706060606840f480706060606840f00100606011801846431e002802d020680e
S34508029280c003f8d4002b01d1282005e00846814201d1002000e0282010bc704780b528494868002806d00a78497801eb022189b2fff7c8ff002002bd70b505460e460021d5
S345080292c01f4ca068002801d1272070bd606800280bd1680840006060ff2262702270a84201d166702ae0267028e06908b0eb410f10d1a84201d1667000e0267021786278ca
S3450802930002eb0122114689b2fff79cff01460020606013e02178627802eb0122114689b2fff790ff0146ff2060702070680840006060a84201d1667000e02670084670bd7d
S3450802934068670120043c024055af23505231c2ab7130a5eeab89efcd80e100e080e200e008ed00e00400fa050100fa0500400008e8c5000840420f000c3c0240f8b5044676
S345080293800d461646fff756ff002701e0641c7f1c3846294680b2884208d2384680b2315c2046fff789ff0100f0d0f2bdfff776ff0020f2bd1449884200d908461349142212
S345080293c0b0fbf2f048804ff0804049884900491ec162002141624ff4167101850121818105210180704709490878002804d14888074a106001200870704700200549088029
S345080294000249087070470000f6ff090084670120240000401000004081b0dff87803016841f0007101600021009102e00099491c009100990a29f9db016821f000710160e6
S3450802944001b0704718b4002100910091dff84823116921f01c0141f0040111611368dff83c130b4041680b4381680b43c1680b4301690b4341690b4381690b43c1690b43e2
S34508029480016a0b43416a0b43816a0b43c16a0b43016b0b43416b0b431360836bc16b0b43016c0b43416c0b43816c0b43c16c0b43016d0b43416d0b435360816d9160c16dc5
S345080294c0d16093694ff641710b40016e43ea0143416e0b43816e0b43c16e0b43016f0b43416f0b439361836fc16f0b43d361dff8b022946900f18403dff8a8120c40d0f83f
S3450802950080000443186804435868044398680443d8680443186904435869044398690443d86904439461196a586a0143986a0143d86a0143186b41ea8001586b014341f463
S3450802954000011160012012bc70470021016041608160c160016141618161c161016241628162c162016341638163c163402101642021416400218164c164016541658165b1
S34508029580c16501668021416600218166c166016741678167c1674ff08061c0f8801084304ff0007101604ff0807242604ff4001282600022c260026142618261c26101628d
S345080295c0114641624ff4003181624ff48071c162114601634163704780b5012000f033f800f0aaf8012000f03bf8012000f0abf80120bde80240b3e081b000220092dff84b
S34508029600b421136803f01c03c00200f478401843890101f4f861084340f001001060dff898110098401c00901068c00702d500988842f6d30098884201d1002001e05068f9
S3450802964080b201b07047dff850110028086803d040f008000860704720f0080008607047dff834110028086803d040f004000860704720f004000860704730b40023dff824
S345080296802841206012e0e0600fe000eb03144ff4801525604ff4be655d430d44a560551eab42f0d204f11005e5605b1c9342ecd3dff80811086030bc704730b40023dff880
S345080296c0f040206015e0e06012e000eb03144ff00045256044f2f05565604ff4be655d430d44a560551eab42edd204f11005e5605b1c9342e9d3dff8c810086030bc7047ac
S345080297004268002903d022f000424260704742f0004242607047dff89400016841f0010101607047dff88400006800f001007047dff8901008607047dff88c00016841f4d8
S34508029740801101607047dff880100028086803d040f400500860704720f4005008607047dff864100028086803d040f002000860704720f0020008607047dff85020002990
S34508029780116802d008431060704721ea000010607047000010380240008002400f8120ff00900240233fdef874670120009002407c67012010800240ffff0400109002401d
S345080297c00c90024014900240189002401c90024010b400231a460a600278002a13d03a2a0eda302a0cdb0a6802eb820410f8012b02f00f0202eb44020a605b1c0a2bebd9cf
S345080298004ff0ff3000e0002010bc704710b400231c4610308c4208d20278002a00d1641c401c5b1c812bf5d3002010bc704710b50024fff7ebff002806d00178002906d0d8
S34508029840401c641c812cf8d34ff0ff3010bd204610bd7cb505462c4e03213046fff7d6ff04000dd003213046fff7e1ff0b2802d32044a0f10a0469462046fff7a9ff02e0ca
S3450802988041f23420009002202870062068700098000ea8700098000ce8700098000a28710098687173bd19494ff055320a604860c2438a60c8604ff0aa300861704730b4c5
S345080298c00146012212480068c00519d50f4b1868b0f1553f00d0022258689c68c543ac4200d00222dc68844200d002221b69b3f1aa3f00d002220a70022a03d1002001e04a
S345080299000020087030bc704750010008e0ff01201018024038b504460d46002300e05b1c1946c9b2685c002801d03c29f7dbdbb22a4621463c20fdf732f900bf24a0fef7f0
S34508029940c2fc2046fef7dafc27a0fef7bcfc2846fef7b9fc18a0fef7b6fc002042f2107100e0401c8842fcd3144915480860002000e0401c6428fcd312480860fee780b59e
S345080299800146eff3088228231520fdf708f9eff30982282301211520fdf701f918230a4a02211520fdf7fbf80020084900e0401c8842fcd3fee700000a0000000ced00e096
S345080299c00400fa050100fa0524ed00e0a086010020617373657274696f6e206f6e206c696e65203a200000002066696c65203a2000000000f0b401463ee0083a9200456a3f
S34508029a00934025ea030394402343436233e04383530003249c40e443066826404f7907f003079f403e4306604668954026ea05054e79c6f3c006964035434560856825406e
S34508029a408e7906f003069e4035438560c5682c404d79c5f3011505fa03f32343c360cc790f23082ac9da9200056a934025ea030394402343036208310868002809d00b79e8
S34508029a801a46012505fa03f34c792406bfd50383bee7f0bc7047704778b5afb071487249086072b6714e306840f00100306030688007fcd5b06880088000b060b068c0f3c0
S34508029ac081000028fad14ff00110306068487060684840f203610160016801f003010329fad1306840f08070306030688001fcd56148b060b0688008800040f00200b06039
S34508029b00b068c0f381000228fad17f2030635b4830644ff4804474644ff0007535614ff4000057490860002030615648fff762ff042055490880554830630120b0634ff064
S34508029b40204041f21101016000218160016181614f4941604f480160fff75efcfff7dbfdfff7e0fd0128fbd0012632e00021304680b2fff741fd0121304680b2fff73cfd44
S34508029b800221304680b2fff737fd0321304680b2fff732fd0421304680b2fff72dfd0521304680b2fff728fd0621304680b2fff723fd0721304680b2fff71efd1521304667
S34508029bc080b2fff719fd1f21304680b2fff714fd761c212ecad36846fff7b7fc0020009007904ff400700a9000200b904ff000400e90002011901390149015904ff4806017
S34508029c0009904ff400600890059400202090219521a84ff400118160002101614161c16105624ff4803141624ff4800181624ff40051c1624463314689b26846fff702fc85
S34508029c4001211548fff799fd1448016841f400610160134842f20c0181804ff40271018030b070bd0040000808ed00e0003802400c3c4005003c024000940c000180000663
S34508029c800438014050b40008181002407f00001eff20ff0f040100a041000100008002400814014080b54ff4a06000f0cbfc3d208df8000003208df8010000208df8020070
S34508029cc001208df80300684600f0c1fc4ff4a06000f0b8fc1c208df8000003208df8010000208df8020001208df80300684600f0aefc01bd10b504004848006884420ad147
S34508029d00e06c002807d05ff0ff31884203d014f14c0001f0dffaeff3108072b640490968491e3f4a1160a16b002964d00021a163e16a226aa2421ad0226a636a5362626a8f
S34508029d40236a1362374a52f82120a24253d1354a236a42f82130344909688c424bd133490968304a52f821102f4a116043e02d4a002342f821302e4a1268012313fa01f125
S34508029d80c94311402a4a11600021294a1268d3b2002b20d1120ad3b20831002b1bd1120ad3b20831002b16d1120ad3b20831002b11d11e4920220a601b4900220a6080f368
S34508029dc010881c480068164909680843002823d101f0c2fa20e0184a9a5c5118134a1160114909688c4206d1104909680d4a52f821100d4a116080f31088084800680a4992
S34508029e000968884208d00b480068054909680843002801d101f0a0fa10bd00bf90670120a8670120c065012094670120a4670120a067012074000020f86201202de9f041d5
S34508029e4005000e0017001c00ddf8188038220021280001f0b9f96e60af60b800b8fbf0f000fb07f1ac6114eb8101e9612c626c626861e860eff3108072b6104929601049a4
S34508029e80096800290bd00e490968496b0c4a126855630d6369630a490968296303e008490d602d636d6307490968491c054a116080f310880020bde8f08100bf5545555166
S34508029ec0b8670120bc67012010b5eff3108372b6846a002c35d0d4f880c0bcf1000f30d0e26fd0f808c001e0091d121dd2f800e0c1f800e0bcf1010cbcf1000ff4d1216f60
S34508029f008c4202d10021816207e0216f8162216f626f4a67616f226f0a67c16a491ec1620020a0665f480068401c5e49086083f310880020c4f88400200001f04ff90020f2
S34508029f40aee0d0f810c0bcf1000f71d0026ad0f808c001e0091d121dd2f800e0c1f800e0bcf1010cbcf1000ff4d18168026a12eb81010162016ac269914201d3816901623d
S34508029f80002c09d14169491c41610169491e016183f31088002083e042490968491c414a116083f31088eff3108372b63d490968491e3c4a1160e26f416ad0f808c001e04c
S34508029fc0091d121dd2f800e0c1f800e0bcf1010cbcf1000ff4d18168426a12eb81014162416ac269914201d381694162216f8c4202d10021816207e0216f8162216f626fcd
S3450802a0004a67616f226f0a67c16a491ec1620020a06624480068401c2249086083f310880020c4f88400200001f0d8f8002037e0002a32d0dff870c0dcf80040dff86cc0df
S3450802a040c4f868c0e066e1670021c4f88010816a00290ad0816a2167816a496f6167816a496f0c67816a4c6702e0846224676467c16a491cc162052020630120a063e2648e
S3450802a08008480068401c0749086083f310882000fff730fed4f8840002e083f310880a2010bd00bfa867012090670120b1c2000810b5eff3108372b6d0f814c0bcf1000fff
S3450802a0c05cd0826a002a23d14269521e42610269521c0261426ad0f808c001e0121d091dd1f800e0c2f800e0bcf1010cbcf1000ff4d18168426a12eb81014162416ac269a3
S3450802a100914201d38169416283f3108800206de0846a226f944202d1002282620be0226f8262226fd4f874c0c2f874c0626fd4f870c0c2f870c0c26a521ec2620022a266b2
S3450802a1402b4a1268521cdff8a8c0ccf8002083f31088e26fd0f808c001e0121d091d08681060bcf1010cbcf1000ff6d10020c4f88400200001f032f8002037e0002a32d00f
S3450802a180dff870c0dcf80040dff86cc0c4f868c0e066e1670021c4f88010816a00290ad0816a2167816a496f6167816a496f0c67816a4c6702e0846224676467c16a491c64
S3450802a1c0c162052020630120a063e26408480068401c0749086083f310882000fff78afdd4f8840002e083f310880b2010bd00bfa867012090670120b1c200080246120c83
S3450802a20001f1c0439b1c1a8001f1c04108807047014601f1c040008801f1c041891c098800eb0140704770b502241be0dff8bc0310eb4435dff8b86329463046fff7deffcf
S3450802a2402846fff7e5ffb0421bd1dff8a86329463046fff7d3ff2846fff7daffb04210d1641ce4b2062c0fdadff88c0310eb4430fff7ceffdff884138842d7d040f20740e8
S3450802a28070bd4ff4816070bd002070bdf8b504460d460120fef788fc0646d94f17eb45373846fff7b5ffc0f3074020603846fff7afffc0f308006060d24810eb4530fff72e
S3450802a2c0a7ffa060cc4810eb45352846fff7a0ffe060002020613046bde8f240fef764bc70b50546c74e06eb40363046fff790ff04463146c448fff781ffc448044001d18d
S3450802a300002070bde00704d505f50475284680b270bda00704d505f51475284680b270bde00004d505f50875284680b270bda00104d505f50c75284680b270bd200704d531
S3450802a34005f51475284680b270bd002070bd0000f8b504460d46062c03dbad497520fff7d9fa022c03daaa497620fff7d3fa042d03dba7497720fff7cdfa0120fef714fcb2
S3450802a3800646a44f07eb44374fea0701a9a050f82500fff733ff39464ff08070fff72eff3046fef701fc0020f2bd80b5954901eb40310846fff72cff00f40040401e804188
S3450802a3c0c043c00f02bd80b5934901eb40310846fff71effc0f3080002bd38b504460120fef7e2fb05468c4901eb44314ff08020fff704ff2846fef7d7fb002032bd2de996
S3450802a400f04104460120fef7cffb054626467d4f17eb463739460320fff7f0fedff8f88108eb463841464ff08020fff7e7fe41460020fff7e3fe774810eb463631464ff0bd
S3450802a4408070fff7dbfe2846fef7aefb0a20fdf761f80120fef7a8fb05463846fff7d8fe06462846fef7a0fbf00704d504f51074204680b200e00020bde8f08110b5664c80
S3450802a48004eb403421464ff40040fff7b7fe21460020bde81040b1e610b5604c10212046fff7acfe42f210012046fff7a7fe44f210012046fff7a2fe46f210012046fff7ab
S3450802a4c09dfe40f604014ff00040fff797fe42f604014ff00040fff791fe44f604014ff00040fff78bfe46f604014ff00040fff785fe4ff400614ff00040fff77ffe4ff4dc
S3450802a50020514ff00040fff779fe4ff490414ff00040fff773fe4ff4d0414ff00040bde810406be638b50446258805f46045a5f5804505f108016068fff760fe05f10c019c
S3450802a540a068fff75bfe291d2088c0f30c00fff755fe2946a078fff751fe002032bdf8b5044600262e4d00e0761c3046c0b2042839da2878401c2870c0b2062801db022040
S3450802a58028702f78244810eb4730fff741fe25490842e9d0244810eb47373846fff738fe60602978214800eb4130fff731fea0602e7831461e4800eb4130fff729fe00eb07
S3450802a5c0463020802878801e4003fff721fe00f00f00a07028780b4901eb40318020fff70dfe0120f2bd4ff0ff30f2bd04c8ffff55555580aaaaaa8020c0ffff555a090450
S3450802a6001cc0ffff18c0ffff030000120b000012fcc3000810c0ffff24c0ffff819400807c0000200000ff1f08c0ffff0cc0ffff04c0ffff81940080819402808194068049
S3450802a64081940e801849084318490860704770b403781c460122c17800291bd013490b6803f4e063c3f5e0631b0a4578c3f104018d4081780f26de4031400d432d010c498e
S3450802a6800d55017801f01f0082400a48491140f8212007e003f01f0302fa03f30648641140f8243070bc70470000fa050ced00e000e400e000e100e080e100e02de9f047ad
S3450802a6c00446002003e03a4a42f82010401cff280cd801460022082af5d20b465b08c907194601d5334b5940521cf4e7a668761c67680c344ff0ff35dff8b48008f580691a
S3450802a70010e010f8011b694001f0ff0158f8211081ea152509eb0a018842f2d35744a74200d13f1db74216d2a6eb070abaf1200f01d94ff0200a0aeb0700844203d2a742d6
S3450802a74001d2a4eb070a4a46514689b23846fef710fd4846dee74ff0ff3045402846bde8f08710b50446606800f17841b1f5801f01d3002010bda16801f17842b2f5801f22
S3450802a78001d3002010bd884201d3002010bd081a10380949884201d3002010bd2046fff78dffe168884201d0002010bd012010bd5c5501202083b8edf1ffff0002b582b05d
S3450802a7c08df8000068469df8081041709df8091081709df80a10c1709df80b008df80400002269463120fbf701fa07bd2de9fe4f04460d4600212e4606eb4606dff84c78d0
S3450802a80007eb060898f80200ff282ad101a9dff84008fef779fb010003d00120fff7ceff6be0bdf8040088f80200dff82828bdf804301a204343d0180122027005f07f0221
S3450802a8400271ad0805f0e005c570802242704471ba5dd20602d40722827049e00622827046e0adf804004ff01a09dff8e8a709fb00f050440278152a35db90f801b00bf049
S3450802a8800f0bbdf80410dff8d007fef75dfb009001a9dff8bc07fef737fb0099014389b2bdf8040088f80200bdf8040009fb00f90aeb09000bf1010b0bf00f0b80f801b062
S3450802a8c00122027005f07f020271ad0805f0e005c5704471ba5dd20602d40722827007e00622827004e0024454710278521c0270002902d00220fff761ffbde8f78f38b59c
S3450802a90004460d46c0b2fff771ff29462046000ac0b2fff76bff29462046000cc0b2fff765ff2946240e2046bde834405ee710b5dff8181700eb40000c18a078ff2804d1a1
S3450802a940ff210320bde8104038e7dff808171a22424311444a7842f040024a700146dff8f806fef7f1fa010002d00220fff726ffff20a07010bd10b40a89531cdbb2562b98
S3450802a98000db00234c89a34201d1012006e00a4450730b810868401c0860002010bc704701464a8910460844407b521c1346dbb2562b00db0022d2b24a81704701464a8919
S3450802a9c0104609890b46914201d3181a70475633181a70472de9ff4707463c4604eb4404dff868562819417864204143681800f510663046fff7e2ff814607f07f00b901e4
S3450802aa0001f46041081800f5c060adf8000008208df802004ff00008b9f10e0f10d2307b04280ddd306871680831884208d239460220fff7dbfe3846fff779ff4046307363
S3450802aa40285d10f01f0f6ed130680828c0f07f80707cb17c00eb0120f17c00eb0140317d00eb0160706005280cd3285d00f0e000123028553046fff793ff072721208df8c3
S3450802aa8004007ae031680830814260d3285d00f0e000103028557068c0f10400800000f00c0023308df804003046fff779ff474607e03046fff774ff0df1050101f808002e
S3450802aac07f1cb8465ffa88f8b8f1030ff1db002703e03046fff764ff7f1c3846c0b20328f7dd0020024602ab01e05a54401c0146c9b20329f9dd174607e03046fff750ff27
S3450802ab0002a93a46d2b288547f1c3846c0b271688842f2d3285d40f0200028556846fcf7d3ff012056e0810601d5032052e0726808323168511a4944b9f1070f05d307274e
S3450802ab40072910d14ff001080de0894501d2022040e00f46ffb2c7f107084fea480808f00e0808f101080146c90801f0100141448df8041080f0800028554ff0000908e061
S3450802ab803046fff70dff0df1050101f80a0009f10109ca465ffa8afaba45f1db00210df1050201e011547f1c3846c0b20728f9db285d40f0200028556846fcf785ff5fea90
S3450802abc0c87006d5285d00f0e00014302855012000e0002004b0bde8f08710b5dff86c2400eb400014186178ff2906d041f290701044fef7a9f9ff206070a178ff2905d0ae
S3450802ac00dff84c04fef7a0f9ff20a0700020207010bd3eb5044604f07f00a10101f46041081800f5c060adf8000008208df8020004eb4404dff81454285dc00800f010006f
S3450802ac4060308df804000120002201ab01e05a54401c0146c9b20829f9db6846fcf734ff285d80f08000285537bd18b40020dff8dc4308e000eb4001214400220a70ff2238
S3450802ac804a708a70401cb0f5407ff3d32423402241f21070211841f29070204401b010bcfef71ab92de9fc470446e578ad0005f46075207900f07f004519adb2b5f5407f30
S3450802acc005dbdff898134ff4b670fef723fe617805eb4506dff87473b85d400608d5080629d50420fff76afd2846fff776ff5be0080659d52846fff770ff4020b85569468d
S3450802ad0041f290703844fef7fff8002804d001460520fff753fd47e0b819bdf80010417007f5106142786420424388180021418101810160017307f51061b81942786420c6
S3450802ad40424301eb020898f80c00401c88f80c004ff0000ad1460ae041464846c0b220444079fff708fe40ea0a0a09f1010948462178c0b28842efd3504680b2002809d0aa
S3450802ad801ffa8afa51460e20fff718fd2846fff724ff09e02846fff71dfe6078400603d5b85d00f0bf00b855bde8f387feb50446e778bf0007f46077207900f07f00c7196c
S3450802adc0bfb2b7f5407f04dba4494ff4d370fef7a1fd61782078042801d1c02903d00620fff7ecfcf7bd07eb4705984e715d002905d00720fff7e2fc3846fff7eefe07f05d
S3450802ae007f00b90101f46041081800f5c060adf8000008208df8020040208df80400012001aa03e0211849791154401c0428f9db0420002101e01154401c0828fbdb6846bb
S3450802ae40fcf742fe01207055f7bd2de9f8430446208800f07f05800900f4607045192e46b6b2b6f5407f04db7c4940f2c310fef751fda178082907d00820fff79ffc284619
S3450802ae8080b2bde8f243a8e6207900f0e00006eb46066e4f80281bd10020e071b85dc006294689b203d40020fff729fd02e00120fff79cfc284680b2fff739fd0022e11d6b
S3450802aec03020faf793fe284680b2bde8f24384e6b95d01f0df01b95511f01f0200f0b480012a0cd0022a53d0102a7bd0122a00f08080132a7dd0142a00f08a809fe021796f
S3450802af00402841d1880722d50020b8552079c10705d5c0f38106c6f10406f6b200e00426294689b23046fff7eafc002706e0294689b22044007afff759fc7f1c3846c0b285
S3450802af40b042f4db284680b2bde8f243efe4c8070ed54ff004084046c0b207280ddc294689b2221d105cfff741fc08f10108f2e7294689b20020fff7c2fc0220b855284628
S3450802af8080b2bde8f24344e60920bde8f44315e42179002821d1c1f34208c8f107085ffa88f84ff0000907e0294689b220444079fff71cfc09f101094846c0b24045f3db9f
