S34508002000c01c0020ed20000805680008556c0008596c00085d6c0008616c000800000000000000000000000000000000c56800080768000800000000c5680008f767000889
S34508002040ed670008ed670008ed670008ed670008ed670008ed670008ed670008ed670008ed670008ed670008ed670008ed670008ed670008ed670008ed670008ed67000892
S34508002080ed670008ed670008ed67000817590008bf580008ed670008ed670008ed670008ed670008ed670008ed670008ed670008494e0008ed670008ed670008ed67000830
S345080020c0ed670008ed670008ed670008ed670008ed670008ed670008c94d0008ed670008ed670008ed670008ed6700080249d1f800d004f08fbe000000200008ffffffffd3
S34508002140ffffffffffffffffffffffffffffffffcc325aa5002000084b6e0008c158368e303030303031303200484434385f4d6f64756c6500312e30302e30322e3234304b
S34508002180320000ffffffffffffffffffffffffffffffffffffffffffffffffffffffffffffffffffffffffffffffffffffffffffffffffffffffffffffffffffffffffff1c
S34508002200f8b50746dff86c4b4ff480556560dff8486cb0f5807f02db0b20308001e003203080012001f0defb07f0ff073780012001f0d8fb308800203080012001f0d2fba5
S3450800224036882560012001f0cdfb3046c0b2f2bd38b5dff8204b4ff480556560012001f0c1fb0620dff8f01b0880012001f0bafb25600120bde8324001f0b4bb2de9f843fd
S34508002280074688464ff00509dff8e84a4ff48055dff8c46ba9f10109fff7daff6560012001f0a0fb384680b2b0f5807f04db0a203080a7f5807701e002203080012001f037
S345080022c091fb3780012001f08dfb40463080012001f088fb2560082001f084fb384680b2fff78eff4146884203d04846c0b20028d0d14846c0b2401e8041c00fbde8f283e3
S3450800230038b50446a40004f12c00fff779ff05462d342046fff774ff00eb052080b232bd38b50446a40004f12e00fff769ff05462f342046fff764ff00eb052000b232bdff
S3450800234010205de71cb50446fff75aff8df80000601c80b2fff754ff8df80100a01c80b2fff74eff8df80200e41c204680b2fff747ff8df80300009816bd38b5dff8584c88
S345080023800920207001250ce005f1f40080b2fff737ff6055002802d105f1ff0020706d1cedb20a2d02da20780928edd031bd38b5dff8284c0b20207001250ce005f2e91023
S345080023c080b2fff71dff6055002802d105f1ff0020706d1cedb20c2d02da20780b28edd031bd70b504460d460026a400090a04f12c00fff743ff002800d001262946c9b2a2
S345080024002d342046fff73aff002800d00126304670bd70b504460d460026a400284600120146c9b204f12e00fff728ff002800d001262946c9b22f342046fff71fff0028ba
S3450800244000d00126304670bd31b50c4600259df800102046fff712ff002800d001259df80110601c80b2fff709ff002800d001259df80210a01c80b2fff700ff002800d035
S3450800248001259df80310e41c204680b2fff7f6fe002800d00125284632bd80b501461020fff7ecfe401e8041c043c00f02bdf8b5002440f2366502212046fff7dffe0028e5
S345080024c000d02c4600210120fff7d8fe002800d02c460320fff7e1ff002800d02c4612210020fff7b1ff002800d02c4616210020fff7aaff002800d02c461a210020fff79d
S34508002500a3ff002800d02c461e210020fff79cff002800d02c4622210020fff795ff002800d02c4626214ff07e50fff78dff002800d02c46002616e0dff8500c00eb460709
S34508002540b7f824113046c0b2fff74bff002800d02c46b7f9c4103046c0b2fff75aff002800d02c46761c302ee6db2046f2bd70b5dff8684a2578012609e0a15d06f2e910a2
S3450800258080b2fff77bfe00280fd1761cf6b2b542f3da0b2d07da002105f5f5752846fff76dfe002801d1002070bd012070bd70b5dff8244a2578012609e0a15d06f1f40064
S345080025c080b2fff75bfe00280ed1761cf6b2b542f3da092d06da0021f5352846fff74efe002801d1002070bd012070bd38b5dff8c04c2078002811d1002506e02078012863
S345080026000cd0012001f0eef96d1c284680b242f210718842f2db4ff0ff3032bd002032bd38b504460d46fff7e1ff002808d02346002240f24d41284601f0b6fd002032bd0a
S3450800264029464ff4877001f07dfc002032bd38b504460d46fff7caff002808d02346002240f24d41284601f09ffd002032bd284601f04afd302808db234600224ff47a71f2
S34508002680284601f091fd002032bd2946dff8d00c008801f057fc002032bd38b504460d46fff7a4ff002808d02346002240f24d41284601f079fd002032bd2946dff8cc0aa5
S345080026c0b0f8c20001f03efc002032bd2de9fe4f05468946fff78aff002808d02b46002240f24d41484601f05ffd0020bee0484601f00afd0646302e08db2b4600224ff457
S345080027007a71484601f050fd0020afe0484601f0e5fc42f6aa24a04207db2b4600221146484601f041fd0020a0e0dff8901c06eb460211ebc20510f1010f00d06860d5f8bf
S345080027400480287d012801d12f6800e0af684946304601f0f7fb4946286901f0dbfb474503d2e719a7eb080701e0a7eb0807322f00d932274946384680b201f0e3fbe96854
S345080027802869091aa142494603d9092001f069fc02e0002001f065fc4ff0d04045f254517143084400eb4800dff86c1c08600020cdf80890cdf8048080464ff6ef79dff801
S345080027c0cca90aeb460b41e000eb4800dff8a41c405e80b209e0dff8400c006801994144a142f1d230f9180080b20146494525dcbbf88411401a02f08df80090bbf9c400b2
S3450800280002f088f80aeb8601d1f8e41102f094f80146009802f086f902f0e0f9bbf824114843dff8bc1c90fbf1f0bbf884110818484500dd4846002800d50020029980b26d
S3450800284001f080fb08f101085ffa88f8b845c2d328693818286168683f18a74201d26f6003e0dff8800cc7196f600020bde8fe8f70b504460d46fff7b9fe002808d0234636
S34508002880002240f24d41284601f08efc002070bd284601f039fc302808db234600224ff47a71284601f080fc002070bd00eb4001cc00dff8086b29463019007d01f0d1fb0e
S345080028c02946305901f026fb002070bdf8b504460d46fff78bfe002808d02346002240f24d41284601f060fc0020f2bdfff745fddff8e44620780646401c2070002703e0c2
S34508002900205c01f0aefb7f1c3846c0b286422946f6da002001f0a5fb0020f2bdf8b504460d46fff763fe002808d02346002240f24d41284601f038fc0020f2bdfff737fde9
S34508002940dff8984620780646401c2070002703e0205c01f086fb7f1c3846c0b286422946f6da002001f07dfb0020f2bd2de9f04105460e46fff73afe002808d02b4600223b
S3450800298040f24d41304601f00ffc002082e0304601f0bafb04464ff6ff70302c0adb844208d02b4600224ff47a71304601f0fcfb00206fe0844238d10027302f69dadff85f
S345080029c0cc0700eb470400f5f27550f82710b0f9c20091fbf0f0b4f88411401a01f09aff8046b4f9c40001f095ff55f8271001f0a3ff0146404602f095f88046b4f8240133
S34508002a0002f000f9414602f00bf9dff84c1c01f093ff55f8271002f003f902f0dff8314680b201f08ffa7f1cc7e7dff8600700eb440500f5f27750f82410b0f9c20091fb74
S34508002a40f0f0b5f88411401a01f064ff8046b5f9c40001f05fff57f8241001f06dff0146404602f05ff88046b5f8240102f0caf8414602f0d5f8dff8e01b01f05dff57f8fb
S34508002a80241002f0cdf802f0a9f8314680b201f059fa0020bde8f08138b504460d46fff7a5fd002808d02346002240f24d41284601f07afb002032bd284601f025fb302840
S34508002ac008db234600224ff47a71284601f06cfb002032bddff8a01901eb40042946b4f8240101f02ffa2946b4f8c40001f02afa002032bd70b504460d46fff777fd0028e6
S34508002b0008d02346002240f24d41284601f04cfb002070bd284601f0f7fa0646302e08db234600224ff47a71284601f03dfb002070bddff84449294604eb8600d0f8e40102
S34508002b4001f0cbf9294604eb4600b0f8840101f0f9f9002070bd38b504460d46fff746fd002808d02346002240f24d41284601f01bfb002032bd1220fff7e4fb294601f098
S34508002b80acf9002032bd38b504460d46fff72efd002808d02346002240f24d41284601f003fb002032bd1620fff7ccfb294601f094f9002032bd38b504460d46fff716fd6f
S34508002bc0002808d02346002240f24d41284601f0ebfa002032bd1a20fff7b4fb294601f07cf9002032bd38b504460d46fff7fefc002808d02346002240f24d41284601f042
S34508002c00d3fa002032bd1e20fff79cfb294601f064f9002032bd38b504460d46fff7e6fc002808d02346002240f24d41284601f0bbfa002032bd2220fff784fb294601f02c
S34508002c404cf9002032bd38b504460d46fff7cefc002808d02346002240f24d41284601f0a3fa002032bd2620fff76cfb294601f034f9002032bd38b505460c46fff7b6fce1
S34508002c80002808d02b46002240f24d41204601f08bfa002032bd204601f043fa002801d0052808db2b4600224ff47a71204601f07bfa002032bd401ec0b20022002805d19f
S34508002cc0dff8801c0968490700d50122012805d1dff8741c0968490600d50122022805d1dff8601c0968c90700d50122032805d1dff8500c0068800700d501222146104618
S34508002d0001f0aff9002032bd38b505460c46fff76dfc002808d02b46002240f24d41204601f042fa002032bd204601f0faf9010001d0052908db2b4600224ff47a712046ab
S34508002d4001f032fa002032bd451e2846c0b201f0e1ff214601f085f9dff82c0cedb200eb8501887800228a70214601f07af9002032bd0000100c0140f8b505460c46fff77d
S34508002d8035fc002808d02b46002240f24d41204601f00afa0020f2bd204601f09ff9811cdff8e82b914208d32b4600224ff47a71204601f0f9f90020f2bddff8d45b10f153
S34508002dc0020f02d1002129616961002800d4686168692e69864201db361a02e006f54036361a642e00dd6426214601f093f82146304680b201f0a6f8dff8987b388800285c
S34508002e00214605d0012001f02cf90020388002e0002001f026f9002711e0b0420eda2146dff8740b6a69805c01f01bf96869401c6861b0f5403f01db002068617f1c3846cc
S34508002e4000b26428e9dbe879022803db0220dff84c1b08600020f2bd0c38004038b504460d46fff7c3fb002808d02346002240f24d41284601f098f9002032bddff8104b04
S34508002e802946206801f046f82946207901f0e9f82946607901f0e5f82946a07901f0e1f82946e07901f0ddf8002032bd38b504460d46fff79bfb002808d02346002240f22c
S34508002ec04d41284601f070f9002032bd284601f028f9002801d0052808db234600224ff47a71284601f060f9002032bd2946dff8982a401ec0b212f8200001f0b2f8002099
S34508002f0032bd38b504460d46fff770fb002808d02346002240f24d41284601f045f9002032bd284601f0f0f80146b1f5007f08db234600224ff47a71284601f035f90020b6
S34508002f4032bdfff75df9294601f08bf8002032bd38b504460d46fff749fb002808d02346002240f24d41284601f01ef9002032bddff82c0a0188002904d0234600222846f6
S34508002f8001f012f9002032bd38b504460d46fff72dfb002808d02346002240f24d41284601f002f9002032bd284601f0adf8002803d040f2e931884208db234600224ff4d6
S34508002fc07a71284601f0f0f8002032bddff8a814a1f8c200002032bd0c000020000000202de9f04706460f46fff700fb002808d03346002240f24d41384601f0d5f80020a3
S345080030006fe0384601f080f80546302d03db4ff6ff70854207d1384601f076f804464ff6f270844208da334600224ff47a71384601f0baf8002054e04ff0000a4ff6ff70c2
S34508003040854202d14ff0010a0025182606fb05f9dff8687307eb0900007d012840d14ff080480020a8f80000a8f80c00012000f0b9fcbaf1010f18d1002042f6aa234ff057
S34508003080d045302827da06fb00f17a589a420ad203fb002225f812407a58521c7a509a4201d100227a50401cebe757f8091042f6aa2081420fd24ff0d04200fb051522f829
S345080030c0154057f80910491c47f80910814202d1002047f809000120a8f80000a8f80c000020bde8f087f8b504460e46fff77efa002808d02346002240f24d41304601f036
S3450800310053f80020f2bd304600f0feff05464ff6ff77302d0adbbd4208d0234600224ff47a71304601f040f80020f2bd4ff0804400202080a081012000f054fcbd4212d197
S34508003140002030281dda9d4900eb400201ebc2010a684a600a688a600022ca600a6101220a75401cede7954805eb450100ebc10001684160016881600021c1600161012136
S34508003180017501202080a0810020f2bd4c0a0020f8b505460c46fff729fa002808d02b46002240f24d41204600f0feff0020f2bd204600f0a9ff06464ff6ff77302e0adb44
S345080031c0be4208d02b4600224ff47a71204600f0ebff0020f2bd4ff0804500202880a881012000f0fffbbe4211d100200be000eb4001ca0071498b5801f10806b350002373
S3450800320014318b54401c3028f1db00260ae006eb4600c1006948425800f108035a5000221430425401202880a881644806eb460100ebc100c068002801d1002503e03221e8
S34508003240b0fbf1f56d1c214600f064fe2146284600f060fe0020f2bd38b504460d46fff7c5f9002808d02346002240f24d41284600f09aff002032bd284600f02ffedff88a
S34508003280241702f003f804d3dff81c1702f012f808d8234600224ff47a71284600f084ff002032bd1221fff7cff8002032bd0000f013002038b504460d46fff797f9002818
S345080032c008d02346002240f24d41284600f06cff002032bd284600f001fedff8c81601f0d5ff04d3dff8c01601f0e4ff08d8234600224ff47a71284600f056ff002032bd3b
S345080033001621fff7a1f8002032bd38b504460d46fff76cf9002808d02346002240f24d41284600f041ff002032bd284600f0d6fddff8701601f0aaff04d3dff86c1601f084
S34508003340b9ff08d8234600224ff47a71284600f02bff002032bd1a21fff776f8002032bdbc14002038b504460d46fff73ff9002808d02346002240f24d41284600f014ff45
S34508003380002032bd284600f0a9fddff8181601f07dff04d3dff8101601f08cff08d8234600224ff47a71284600f0fefe002032bd1e21fff749f8002032bd0000cc050020b2
S345080033c038b504460d46fff711f9002808d02346002240f24d41284600f0e6fe002032bd284600f07bfddff8bc1501f04fff04d3dff8b41501f05eff08d8234600224ff469
S345080034007a71284600f0d0fe002032bd2221fff71bf8002032bd00003814002038b504460d46fff7e3f8002808d02346002240f24d41284600f0b8fe002032bd284600f06a
S345080034404dfddff8681501f035ff04d94ff07c5101f01cff08d2234600224ff47a71284600f0a2fe002032bd2621fef7edff002032bd0000acaaffff4c0a002070b5044676
S345080034800d46fff7b3f8002808d02346002240f24d41284600f088fe002070bd284600f033fe0646302e08db234600224ff47a71284600f079fe002070bd284600f00efd2e
S345080034c00446284600f020fedff8e41401eb8602c2f8e44101eb4601a1f88401002070bdf0d8ffff56d5ffff2de9f04106460f46fff77cf8002808d03346002240f24d419c
S34508003500384600f051fe00203ae0384600f0fcfd0446302c17da384600f0f6fd05462946dff89004411843f6992081420bd2384600f0eafd804600b200f51c50103044f66f
S345080035402161884208d3334600224ff47a71384600f02afe002013e0dff8540400eb4400a0f82451a0f8c48029462046c0b2fef738ff414609b22046c0b2fef74aff002072
S34508003580bde8f081f8b504460e46fff72ff8002808d02346002240f24d41304600f004fe0020f2bddff81054304600f0bafd28700a2801db09202870012706e0304600f0ca
S345080035c0b0fd3946c9b268547f1c28783946c9b28842f3d2fef7ebff002806d02346002240f23661304600f0dffd0020f2bdf8b504460e46fef7faff002808d02346002290
S3450800360040f24d41304600f0cffd0020f2bddff8ac53304600f085fd28700c2801db0b202870012706e0304600f07bfd3946c9b268547f1c28783946c9b28842f3d2fef737
S3450800364096ff002806d02346002240f23661304600f0aafd0020f2bd00401cc670b504460d46fef7c3ff002808d02346002240f24d41284600f098fd002070bd284600f0f5
S3450800368050fd060007d0052805da284600f049fd0146022908db234600224ff47a71284600f082fd002070bd701ec0b201f056fb002070bd2de9f84305460e46fef796ffe1
S345080036c0002808d02b46002240f24d41304600f06bfd00203ae0304600f016fd040001d0652c08db2b4600224ff47a71304600f05bfd00202ae00027b84618e040f22c6714
S3450800370013e0a3488168491cb1f5803f00d30021c2689142f2d08160a949806801eb0009304600f0fefc89f8000008f10108404680b2a04201da3800e3d0380005d02b46c6
S3450800374000223946304600f02ffd0020bde8f2832de9f84306460f46fef748ff002808d03346002240f24d41384600f01dfd002035e0384600f0b2fc0546924885421ad294
S34508003780384600f0cefc8046a8f10700022812d2384600f0c6fc04000dd0032c0bda384600f0bffc8146032805da384600f0b9fc0146032908dd334600224ff47a7138466e
S345080037c000f0f2fc00200ae071490d6081f804804c7181f80690c87101f012fc0020bde8f283f8b504460d46fef700ff002808d02346002240f24d41284600f0d5fc002099
S34508003800f2bd284600f08dfc002809d0042807dc461ef6b2284600f084fc0746032808dd234600224ff47a71284600f0bdfc0020f2bd554800eb8604304601f06bfa607040
S34508003840277095f82100e0700020f2bd38b504460d46fef7cbfe002808d02346002240f24d41284600f0a0fc002032bd284600f04bfc302803db4ff6ff7188420cd1284695
S3450800388000f042fcfa2810d0c8280ed0a7280cd07d280ad0642808d0234600224ff47a71284600f081fc002032bd4749088001f09dfd002032bd70b504460d46fef796fece
S345080038c0002808d02346002240f24d41284600f06bfc002070bd284600f016fc42f20f71884206d1284600f00ffc0646b0f5007f08db234600224ff47a71284600f054fc75
S34508003900002070bd284600f00cfc01463046fef7b5fc002070bd38b500240fe0244800eb44052046c0b2fef7ebfca5f824012046c0b2fef7f5fca5f8c400641c302ceddb3d
S3450800394031bd00000c1001400c1c014010b5fef7f7fcc01e62280bd3114c01f075fd072803d1fef7a4fd208010bd40f24c40208010bd80b5002000904ff49673134a1449b6
S3450800398000f07ff801bd00000414002002000300d4130020f41300200000126810080140be140020000020c101002041010000404c0a002078ecffff0c00002000000020fc
S345080039c00000156801840300bc140020780e00207c62000810b504462146c9b2002000f0f4f9f9e710b513490c68002c03d012490968002901d013201ae0002801d10020c9
S34508003a0016e0eff3108172b6042222630122a2630022c4f88420e06408480068401c074a106081f31088200001f03efdd4f8840010bd00bf44140020180000205c14002005
S34508003a400020034615e0dff8701cc0eb001201eb82011a468a7601f12402136053601a464a600246521081f821201a4681f82020401c0228e7db1846dff8401c088001f0d4
S34508003a80b7bd2de9f84f04460d4616461f4601f013ff80464fea44095ffa89f94ff0ff0a62e07018cbf8000038e0dff80c1cc9eb091201eb820b00218bf81c108bf81b10ed
S34508003ac08bf818104feac91108f01f024fea082303f400531a434fea891303f040031a4301f440731a434fea890303f020031a4301f4c051114301f5c071abf80c108bf86e
S34508003b0019a0a0218bf81a10cbf8085039464908cbf804108145c4d1cbf800600020cbf824000420cbf828000020cbf82c00cbf83000cbf834008bf81d00dff8800cc9eb4a
S34508003b40c90100eb810000f58c70cbf838000022c2a101f07dff00208bf81f008bf81ea009f101095ffa89f9a3464fea4b00811c89459adbdff8444c0022b9a1cbebcb0090
S34508003b8004eb800000f5b67001f062ff0122b5a104f5a87001f05cff0beb4b0004ebc00000210170417080f802a0bde8f18f8a6a0b689854521c4868824200d30022486af7
S34508003bc0824203d100221146042066e38a62486b401c4863704710b4ca6a002308e00c68a054000a521c4c68a24200d300225b1c042bf4d310bc704710b504462146606b3b
S34508003c00fff7e9ff00206063a06ae062a06a002100e0491c04290dd2401c6268904200d30020626a9042f4d1002211460420bde8104032e3a06210bd426a016b8a184168c6
S34508003c408a4200d3521a426200210163704780b50246c00900f00f00c31e082b21d2d21002f00c0202eb6302c00706d5d2b20021092000f012fbff2002bd002008701007d1
S34508003c8002d5083a012008701046c0b2002806d0d2b20021052000f000fbff2002bd002002bd0c2801d1ff2002bd01280ad14ff4fa70fff797fe00221146092000f0edfa73
S34508003cc0ff2002bd00221146052000f0e6faff2002bd10b480680c4600e0083002781346a34201d0002af8d110bc704738b584b001a801f068fd10f1010f61d0bdf804005c
S34508003d00002812d19df8060002285cd19df80800812858d101f0d0fd9df80910814252d101f0a2fc01f0e7fe4de06946fff78fffdff884199df8002002eb4002c2eb0213d8
S34508003d4011eb8304ff283ed09df8061000293ad09df808100a4602f00f02637e9a4232d001f00f016176217f002909d19df80810090605d402460021012000f08efa22e0cc
S34508003d80012507e0214602a82a46d2b2805cfff70eff6d1c28469df80610c0b28842f1d39df80800400608d5002020772046fff723ffa06b01f07aff05e01020207702e06a
S34508003dc00120fff70ffe05b030bd70b504462646dff8e40801eb4601c1eb011210eb82054ff0ff31a86b01f097ffa87fff280ed006eb4600c000dff8f01a0a5c0844407866
S34508003e00824204d021462846bde8704009e1284600f09af9284600f084f9687701462846fff757ff0246508801462b6b994203d04ff6ff71884204d12946204652689047b7
S34508003e4005e0234600221c21284600f0adf92846fff7f2fe2846bde870407fe06161000071630000646c730010b500200ae0dff84808807e002804d100221146112000f0a9
S34508003e800cfa01200028f2d001f0ccfb01f0dcff01f097fc00281dd1dff81c482146fe20fff785fe01f008fd002809d1002211461a2000f0f2f921460020fff778fe03e030
S34508003ec021460120fff773fe2046fff795fea06b01f0ecfefff70afffce71be07cb5044600f0fcf800900546690008460016401c01d0002100e00902002909d004f11a06bc
S34508003f00f3796a462f21204600f04ef9ee203070284676bd38b504460d46c0b200f0a1f829462046000ac0b200f09bf829462046000cc0b200f095f82946240e2046bde846
S34508003f4034408ee038b504460d46c0b200f089f82946240a2046bde8344082e010b50446e07e002809d11020e0760320a073607f60740020a07480202074217c41f0400111
S34508003f802174207e41182174207e401c00f00f002076e07f002804f10c000bd101f0c8fb10f1010f08d194f8212000210a2000f074f901e001f09dfb0020a073e076a02019
S34508003fc0a07610bd30b40346dff8f04703eb430504ebc504a578ff2d21d0657825442971617804eb81018a606178491c01f003010a462578aa4204d102460021262030bcdd
S345080040004be16170dff8b006a17801eb4301c1eb011200eb8200806b30bc01f047be30bc7047f8b50446fb20607701eb4100c500dff8b46877192146705d3844007900f08c
S3450800404010f82146705d07eb80008068fff762ff705d401c00f0030070552046bde8f2407ce738b504460d46e87e002809d10320a873687f68740020a8741020e876802067
S345080040802874a87b08281fdb297c287e41182974287e401c00f00f002876e87f002805f10c000bd101f044fb10f1010f08d195f8212000210a2000f0f0f801e001f019fbcb
S345080040c00120a8730020287405f11000a97b4454a87b401ca87331bd006b704738b5044600f01ff80546204600f01bf805eb0025204600f016f805eb0045204600f011f84f
S3450800410005eb0065284632bd38b5044600f009f80546204600f005f805eb0025284680b232bd0146086b002801d100207047401e08634a6a0868805c521c4a624b689a4258
S3450800414001d300224a62704770b50446616a206b411861626068814201d3091a6162606ae16a884201d1012070bd0420206300252e4606e02046fff7d4ff000600eb152533
S34508004180761c3046c0b20428f4db6068a84208d2e06a6062012200211b2000f07ef8012070bd2563002070bd2de9ff4180460d4614461e4601f080fb8030adf800000820c6
S345080041c08df80200dff8f0043146c1eb011210eb820798f81b0000281cd1032088f80e0098f81d0088f8110097f82000401c87f82000c0b2002802d1012087f8200097f890
S34508004200200088f81200102088f81b00802088f8100004e032460021032000f03ef828468df804002d0a8df80550a6f180008df8060097f820008df80700002c0ad00420ee
S3450800424001ab0146c9b207290edc14f8012b5a54401cf6e70420002201ab01e05a54401c0146c9b20729f9dd684601f061fa10f1010f10d101f035fa684601f059fa0020c6
S345080042808df8040002208df8050080208df80600684601f04dfabde8ff817fb506460c46154601f009fb8030adf8000008208df8020086f4004630468df80400360a8df8db
S345080042c00560803d8df80650002c08d0032001aa08280cda14f8011b1154401cf8e70320002101aa01e01154401c0828fbdb012001f0d0fddff8c44321880e46082e0eda94
S34508004300491c218001f0c6fd0020082809da04ebc601014401aa125c8a70401cf5e701f0b9fd684601f004fa10f1010f0fd101f0d8f9684601f0fcf902208df804000020e6
S345080043408df805008df80650684601f0f1f97fbdc17770472de9f84f80460f463846fff7bbfe062823d33846fff7dbfe83463846fff7b4fe04463846fff7d3fe0546bbf18b
S34508004380b00f08d0bbf1b30f05d0bbf1e10f02d0bbf1c00f05d1002601213846fff7d8ff00e02e463846fff797feb04207d0434600221c213846fff7f7fe0020f7e0dff87e
S345080043c0fc6306f5a8794ff4fa61484601f0a4fc824680b2002807d0434600223d213846fff7e2fe0020e2e0bbf1000f00f0d080bbf1a20f37d0bbf1a30f64d0bbf1b00fe3
S3450800440065d0bbf1b20f53d0bbf1b30f00f08f80bbf1b50f00f0b180bbf1c00f67d0bbf1c10f04d0bbf1c20f00f09380aae0b4f5805f63d22819b0f5805f5fd804f100648d
S3450800444004f5fe244ff0000bda465ffa8afaaa4526da3846fff765fe06f1180101f80a000bf1010bf0e74ff0000b08e03846fff758fe06f1180101f80a000bf1010bda46dd
S345080044805ffa8afaaa45f1dbdff86004844204d32819dff85c14884202d34ff00f0a77e006f118022946204601f0e4fb82466fe0dff83804844202d24ff00e0a03e020468e
S345080044c001f02ffb8246002001f0f6fa60e039462846fff7c6fd00263046c0b2a84257da39462078fff7bdfd641c761cf4e7b4f5805f03d22819b0f5805f02d94ff0400a81
S3450800450046e004f1006404f5fe2439462846fff7a8fd00263046c0b2a84239da204601f0e8fa3946fff79dfd641c761cf2e739462846fff796fd00263046c0b2a84227da9e
S34508004540204601f0d6fa3946fff78bfd641c761cf2e7204601f0b0fadff8904382465046002815d1dff88c03844211d2204601f0d8fa824604f50064f1e7204601f09cfae5
S34508004580824605e0434600222e213846fff70cfe504680b2002806d043460022514689b23846fff701fe484601f080fb0020bde8f28f80b50346084600220621fff7f4fdd6
S345080045c0012002bd2de9f04104460d462846fff7a8fd06000dd129460220fff742fd29460020fff73efd29460d20fff73afd00205fe0ff280dd101f053fc0446294602202e
S34508004600fff72ffd2946e06a80b2fff79bfc00204fe0072801dab84f10e00c2802dab74ff61f0be0132802dab54f0c3e06e0002723463a4608212846fff7b6fd3046c0b2e9
S34508004640002810d0761e4ff000087c1c384601f050fa00282746f1d008f10108404680b23328f2db0ce000242046c0b2c01901f040fa00280ad0641c2046c0b23328f3db51
S3450800468029460020fff7edfc012012e029462046c0b2fff7e6fc07e0384601f02afa7f1c2946fff7defc641e2046c0b20028f3d10120bde8f081000018130020901300206d
S345080046c038b505460c462046fff72bfd042832d8dfe800f003373721290021460020fff7c0fc214687480068800b00f0010080f00100fff7b6fc214683480078fff7b1fc3d
S345080047002046fff72bfc1420fff76cf900f0acff01f0f1f915e04ff400407a49c8600020794908700de04ff400407649886001207549087005e02b46002207212046fff7bc
S3450800474033fd21460120fff78cfc21466d480068800b00f0010080f00100fff782fc214669480078fff77dfc012032bd38b504460d462846fff7d5fc00280bd0012815d130
S345080047805948c4ebc40100eb810000f5b67001f08dfa11e04ff0ff315348c4ebc40200eb820000f5b67001f0b7fa05e02346002225212846fff7f8fc012032bdf00c002003
S345080047c070b506460c462046fff7abfc0546ff2808d1ff20444906eb460201ebc2018870a0771be0280013d10020a0773e4806eb460100ebc1004549c6eb061201ebc20149
S34508004800a14202d10021817008e00121817005e03346002225212046fff7c6fc21462846fff71ffc21460020fff774fb012070bd2de9f0410d462846fff773fc0646344c6a
S345080048402288ff2e19d12946d000c0b2fff709fc00260de0294604ebc60210448078fff700fc7f1c3846c0b20728f3dd761cf6b22088864234da0027f4e70020014609e0b2
S34508004880231d13f8313003f00703b34200d1401c491cc9b213469942f2db2946c000c0b2fff7dffb00270ee0294604ebc70210448078fff7d6fb08f101084046c0b2072855
S345080048c0f2dd7f1cffb22088874209da201d10f8370000f00700b042f3d14ff00008ece70120bde8f0810000f00c002000f0070801000808ffff0708600100081002000805
S34508004900602100080810014037140020181300209013002010f0004c68b148bf4042b0fa80f18840d1f19d014ceac15c010671f100414ceb102070474ff0ff0c1cead0534f
S345080049401dbf1cead1526345624543e09b1a5feacc7280ea010c42ea01211cea020c42ea0020421a38bf01eb420253f17e034fea1121b2fbf1f001fb102260f3d63c4fea44
S345080049800222b2fbf1f001fb102260f3ce1c4fea0222b2fbf1f006ddff2b29da5cea500040ebc3507047c3f1020301fb1022192b40ea4c010cf0004c41f0807121dc21fa22
S345080049c003f0c3f120039940114371f1004250eb0c00704763451abf0cead152624512e080ea010c00180cf0004c06d049181ad10cf0004c4cf0ff407047c94208bf6fea3f
S34508004a00020c60467047634506d1b2eb0c02f5d001f00041484070474a0212bf0846484000f0004070474ab90902b1fa81f2914043b19b18c00140f0004092e7c90141f07a
S34508004a40004152420002b0fa80f39840d31a88e7431a4ff000423ebf5340c01ac918d3095fead05c13eb400f34bfb3eb410f40e07cebd1530cd342ea012122d8d1eb40206a
S34508004a8009d3400a28bf5fea500140ebcc507047401a15d04002b0fa80f2521c9040400a4fea3c23b3eb026384bf00eb730007e040f400001a16db07c2f10102d040184394
S34508004ac07047182bfcdc31fa03f202fa03f3591a38bf42f00102d2eb40203cbf0018acf1010c5feacc5cc20572f100414ceb5020704713eb400f0fd2c94209d0acebd15344
S34508004b00022b03db4902172bdddd70479143401ac042d5d10020704713eb410fd0d36ff00000704790ea010f7ff592af81f00041421a3cbf801a8918c0f3c752ff2a4ff0f3
S34508004b40004c22d0c1f3c7534bb3d21ad2f119032edd4cea01214cfa03f321ea0303d1404cea00226ff3160052180fd353eac2534cea520273eb0c0c50eb1220420012f171
S34508004b80807f38bf70476ff31600704753ea026322ea0c0273eb0c0c50eb12207047490212bf9a4200eb5120efe7d2f11703d2d570470ee002684368024408305feac37c47
S34508004bc044bf4b445b1e52f804cb43f804cb091ff9d150f8041b0029ecd17047c0f3c751d1f19e0108dd020242f00042ca4002ebe07282eae07070477feae07080f00040d5
S34508004c007047000050b1b0fa80f18840c1f19d01c905020672f1004241eb102070470000ff2212ead05c1dbf12ead153944593422be09c44d30780ea010243ea002043ea4e
S34508004c4001211a40a1fb0030c04238bf00187cf17f010bdbfe294ada5b0842eac15153ea006373f1004c51eb10207047d1f1080cdcf120012fdb5b0810fa01f10b4320fa06
S34508004c800cf073f100415041704794451cbf02ead153934280ea010202f000421dd0400019d0490017d05bb9634514d00902b1fa81f39940bceb030cc00140f00040c1e74b
S34508004cc00002b0fa80fc10fa0cf0b3eb0c0cc90141f00041b6e71000704740000ad0490008d010f1807f94bf11f1807f02e042f0ff407047d043704706214843401e00218e
S34508004d00814205d2b1f1805f00d1491c491cf7e7704700000146002003291ed8dfe801f002091017dff808150968090615d501207047dff8fc140968c9050ed50120704790
S34508004d40dff8f0140968090707d501207047dff8e4140968c90600d501207047012919d1032830d8dfe800f002070c110420dff8c814086070474020dff8c0140860704715
S34508004d800120dff8b414086070470220dff8a81408607047032816d8dfe800f002070c110420dff89414486070474020dff88c14486070470120dff88014486070470220f7
S34508004dc0dff874144860704730b4dff87424dff87414088810f00f0f02d040f22d601084088810f0300f16d08c8815696b1cb3f5403f00db00235069834202d140f22c6060
S34508004e001084108c002807d1dff83c04284490620470136100e08888d07901280cdd6433b3f5403f01dba3f540335069834203d10220dff8182410600a884ff6fd7002406a
S34508004e400a8030bc704700002de9f843dff800140a884ff6fe7002400a80dff8f8531020e8600120fff748ffdff8d0634ff4606030600120fff740ff1020a860dff8d87365
S34508004e803a88dff8d83303f1c008dff8b49398f90000b9f91e1001ebc00189b253f821c0b8f90200bcfbf0f0aceb000c944443f821c0dff8ac0301eb410300ebc303187d04
S34508004ec001281bd14ff6ef709446844500dd024642f6aa2c4ff0d04e18680cfb01010eeb4100c9f8240002801868401c1860604501d100201860d868401cd8600420fff73d
S34508004f00fbfed9f80c20d9f8080082421ed0dff834130888000619d52868c00705d499f80700002801d0022810d1521cc9f80c20b2f5803f02db0020c9f80c00c948d9f807
S34508004f400c201044c9f82c0000788880b9f81e00401ca9f81e0000b2072802dd0020a9f81e00b9f91e00014607291cd8dfe801f004070a0d101316194ff4444413e04ff445
S34508004f80144410e04ff454440de04ff424440ae04ff4644407e04ff4344404e04ff4744401e04ff4044400280ad198f80000401c88f8000040b2062802db002088f800005a
S34508004fc01020e8600120fff797fe002098f90010ca0701d44ff400708a0701d440f48060490701d440f4006070600120fff784fe1020a8600220fff77ffe3c80bde8f18327
S3450800500030b49949002088808d4a10686423974cb4fbf0f45c432409954db5fbf0f01d46b4fbf5f503fb15431b016424b3fbf4f303eb00130b80107907280ad1907902280d
S3450800504003d1888840f400708880888840f4806088801079082810d1907900280dd0022803d1888840f400708880888840f480608880888840f48050888002207d4908606c
S345080050800020108430bc704738b57b4c002020800120fef7a7fc714800f1c0010a224a8000220a7011461ee000eb41020023a2f8c43042f21073a2f82431704b00eb81055b
S345080050c0c5f8e43147f6ff73a2f88431644a01eb410302ebc3020023136053609360d36013611375491c3029dedb0120208031bd70b50646fff70efe0446614800eb8605d5
S34508005100287800281ed0012801d003280ad1012c08d16878002805d106f2e9326421e878fef750ff2878022801d003280ad1002c08d16878012805d1761c32466421e87817
S34508005140fef740ff6878a04202d0a878401ca8706c7070bd38b5fff797ff394c0720e0834ff480504749086000f0b8f800f0c3f800f0ccf800f0d6f800f0e0f800f0e9f8d3
S3450800518000f0f2f800f0fbf800f016f900f022f94ff41650206008202071012060710020e080fff72dfffdf7cbf8fef7cffbfef7b2fbfdf7e2f8c82000f018f9012020771d
S345080051c033e02846c0b2fff793ff6d1c284680b20428f6db0120fef705fc608c401c608400b2fb2801db00206084b4f92200002803d14ff4004024490860b4f922000a28e4
S3450800520003d14ff4004020494860b4f922001e2803d14ff480401c490860b4f92200282803d14ff48040184948600025cee70000081c01400810014010100140101c0140da
S34508005240d413002000440040000012681408014010000040080801400c3001404c0a0020cc05002000001568084400400051250210552200100801400c0000405f5e803d12
S3450800528004140020100c01401020014040ea010c1ceb0c0f4ff0807c07d305d01ceb400f9cbf1ceb410f814270471ceb410f98bf8842704740ea010c1ceb0c0f4ff0807c52
S345080052c007d305d01ceb400f9cbf1ceb410f884270471ceb400f98bf814270475d485e4901604ff0443141601021c160002101614161816170475948594901605949416048
S345080053000021c16001614161816170475648574901604ff0443141600021c16001614161816170475248534901604ff0bb3141600021c16001614161816170474e484ff096
S34508005340bb31016041600021c16001614161816170474a484a4901604a4941600021c1600161416181617047474848490160484941600021c16001614161816170474ff0e8
S3450800538080400021018081800181012181810021018281820183818301848184112101854ff4d0718185002181860187818739480180018181817047374840f63c01018073
S345080053c004218180002101818181018240f67c010180704731483c2101800421818000210181818101827c210180704738b504464ff0804500202880a8810120fef7f2fabe
S345080054002046642817d07d2811d0a7280bd0c82805d0fa2812d140f24d10a8850ee04ff4d070a8850ae04ff4fa70a88506e040f29b20a88502e040f24130a88518480480d7
S3450800544001202880a88131bd16480068c0b2400970470000000801401449b3b4000c014044448488a444b2b4001001402242444400140140bb44bb4400180140001c014084
S34508005480bbbbbb422422bbbb00200140bbbbbb44444b4422400000400030014000380040bc140020080c014010b504004848006884420ad1e06c002807d05ff0ff31884240
S345080054c003d014f14c0000f0f1fceff3108072b640490968491e3f4a1160a16b002964d00021a163e16a226aa2421ad0226a636a5362626a236a1362374a52f82120a242a9
S3450800550053d1354a236a42f82130344909688c424bd133490968304a52f821102f4a116043e02d4a002342f821302e4a1268012313fa01f1c94311402a4a11600021294acb
S345080055401268d3b2002b20d1120ad3b20831002b1bd1120ad3b20831002b16d1120ad3b20831002b11d11e4920220a601b4900220a6080f310881c48006816490968084349
S34508005580002823d100f0d4fc20e0184a9a5c5118134a1160114909688c4206d1104909680d4a52f821100d4a116080f31088084800680a490968884208d00b48006805496c
S345080055c009680843002801d100f0b2fc10bd00bf441400205c1400201812002048140020581400205414002018000020a40f00200949486840f4605048608a6807480243bc
S345080056008a604ff48a700860054843f2d10101604ff0ff3141607047141002403f400210100000a080b572b61c208df8000001208df8010000208df8020001208df8030095
S34508005640684600f07cfc26208df8000001208df8010000208df8020001208df80300684600f06dfc62b601bd7047000010b40021dff890231078aa2800d01a2110795528d6
S3450800568000d01a215078030001d0402b00db1a21d478a34200d01a219278d243d2b2934200d01a21002900d0002010bc70470021dff850231079552800d01a21d079552817
S345080056c000d01a2150790346042b00db1a219279d243d2b2934200d01a21002900d000207047dff8240301218170002101704170704738b50446dff8105369782878081ac7
S34508005700c0b215280cdb1438c0b209e00120fef769f969782878081ac0b2152800db1438c0b20b28f2da204600f002f8c0b232bdf8b50546012000f0adfb0446b2494e784f
S34508005740721c1046c0b2142800db002288780b789e4207d1002805d1204600f09bfb4ff0ff30f2bd06eb4607be00a84f07eb060cd5f804e0ccf804e0d5f808e0ccf808e099
S3450800578095f802e0bf1c07f806e02d88acf800504a704d78c5f114055d1900280bd0002088709b48c16841f00101c1600068400101d500f0b0f8204600f06cfbedb22846e3
S345080057c0f2bd0020704738b58f4c6179002902d04ff0ff3032bde5788e492a4602eb420301eb83010a8802808a7882704a684260896881606d1c2846c0b20b2800db00250b
S34508005800012000f047fb29462279c9b2914206d101216171e57000f03dfb002032bde57000f038fb012032bd38b57b4c4ff40072e260226822f0f00230322260774a136877
S3450800584023f4c04303f5804313606f4a002313705370012393700023d37013710123537191716f4d1a462a606a68d207fcd500bf73a252f82000e861286840f004002860c0
S3450800588028684008400028606868c007fcd4084600f079f802206861206820f0f000b030206031bd5c484ff40071c160016821f0f00130310160704753488079704710b4f7
S345080058c051490b795a1c1046c0b20b2800db0022c878834206d14879002803d120205149086016e04b4803eb430400eb84004e4b1c68640d04805c6804f00f0484709c6831
S345080059004460db6883602020464b1860002048710a7110bc704710b43b498878002809d03b48c16849084900c160016841f00101016026e00878354a034603eb430402eb52
S3450800594084023a4b54689c609468dc6094785c6012885205521c1a60401c0246d2b2142a00db002002464b78d2b29a4208d101228a70274ad3685b085b00d360087000e0c6
S34508005980087010bc70472a4901220a604a604a68520852004a600022ca604a61400100f178700864234848640120c86110460860704718b4164a136803f0e053b3f1e05f29
S345080059c0f9d11a4b1c4c04eb00649c60d960082058600d488079194901eb40511960106800f0e050b0f1e05ff9d10020009002e00098401c00900098b0f57a6ff8d311bcde
S34508005a0070470000f0ff002030140020a41000200864004094110020040c014004000140006400400c640040b065004080650040006600400000e0ff15008000010000105a
S34508005a4002001801050018010b0018011700180170b504000d0016001c220021200000f0a5fa6560a660eff3108072b60f4921600f49096800290bd00d49096889690c4a17
S34508005a80126894614c61a16109490968616103e007490c606461a46106490968491c054a116080f31088002070bd00bf414d45536414002068140020614a002806d10020ac
S34508005ac0906080205f49c860002070475e49484090605e4941405e4b994206d1594908605c4808600020c8607047002090602c2070470078704780b557484ff0ff310160c4
S34508005b004160564801604160fff7ccfe544855490160002100e0491c6429fcd35249016001bd47498968002901d1272070474f4a022151609060506840f0400050604c49fb
S34508005b400846411e002802d01068c007f8d4002901d10b207047002070473948ff2101704170002141600846704710b4404b3f4c0122626001801a46531e002a02d0226890
S34508005b80d207f8d4002b01d1192005e00846814201d1002000e0282010bc704780b528494868002806d00a78497801eb022189b2fff7dbff002002bd70b505460e460021f4
S34508005bc01f4ca068002801d1272070bd606800280bd1680840006060ff2262702270a84201d166702ae0267028e06908b0eb410f10d1a84201d1667000e026702178627803
S34508005c0002eb0122114689b2fff7afff01460020606013e02178627802eb0122114689b2fff7a3ff0146ff2060702070680840006060a84201d1667000e02670084670bd90
S34508005c40241400200420024055af23505231c2ab7130a5eeab89efcd80e100e080e200e00ced00e00400fa050100fa050c20024040420f00f8b504460d461646fff76dff67
S34508005c80002701e0641c7f1c3846294680b2884208d2384680b2315c2046fff78dff0100f0d0f2bdfff77aff0020f2bd80b50100eff3108272b6c868002806d18868401cd0
S34508005cc0886082f31088002023e0036f984202d10023cb600be0036fcb60036fd0f874c0c3f874c0436fd0f870c0c3f870c00b695b1e0b610021816606490968491c054bc1
S34508005d00196082f310880021c0f8841000f058f9002002bd5c14002010b5eff3108272b68368002b06d08168491e816082f3108800202fe000292ad0174b1c68174ba36684
S34508005d40e066c368002b0ad0c3682367c3685b6f6367c3685b6f1c67c3685c6702e0c4602467646703695b1c0361062020630120a063e1640a480068401c0949086082f3cb
S34508005d8010882000fff790fbd4f8840002e082f310880d2010bd00bf44140020656c00085c14002080b572b6244825490860fff779fd012000f09af9212000f0c9f90028f9
S34508005dc0fad0002000f0a0f94ff4803000f074f9312000f0bdf90028fad04ff480114ff4803000f086f9012000f08bf9392000f0aff90028fad04ff4404000f0a2f90020cd
S34508005e0000f097f94ff4806000f08cf9002000f082f9022000f0b6f9002000f0bbf9102000f0c2f9022000f06ff9064840f2fd1101604ff09051416001bd00000020000841
S34508005e4008ed00e01810024080b572b64ff4407000f070f814208df8000001208df8010000208df8020001208df80300684600f066f813208df8000001208df80100002002
S34508005e808df8020001208df80300684600f057f862b601bdeff3108180f310880846704701480068704700bf44140020eff3108172b60268002a30d002685ff0ff339a42c9
S34508005ec02bd08269002a28d10268212a01d31f2201e00268521e134b1b6813eb8202124b1b689a4207d3104b1b68d21a92100f4b1b6813eb82021368002b0ad013680361e3
S34508005f0013685b6943614369186113685861826103e0006140618261106081f310880020704700bfa8140020a4140020a014002000df70471849084318490860704770b4ec
S34508005f4003781c460122c17800291bd013490b6803f4e063c3f5e0631b0a4578c3f104018d4081780f26de4031400d432d010c490d55017801f01f0082400a48491140f839
S34508005f80212007e003f01f0302fa03f30648641140f8243070bc70470000fa050ced00e000e400e000e100e080e100e010b5040010000a000100200000f002f9200010bdf8
S34508005fc010b50400606e002804d014f14c0000f02bf901e00020e064eff3108072b62f490968491e2d4a1160a16b00290ad0216b012940d0216b02293dd00021a1630021a5
S34508006000216338e0216b002935d0616b002904d000216163032121632de000212163e16a1f4a52f82120002a05d0516a0c625462616222621fe01a4a42f821402462646246
S34508006040184a126801238b401a43164b1a60164a1268002a04d1144a1460144a11600ae0124b1b68994206d2104b1960d26b914201d20d490c6080f310880d4800680a4984
S345080060800968884208d00b480068044909680843002801d1fff74cff10bd00bf5c1400201812002054140020481400205814002044140020180000202e490a6822f4803269
S345080060c00a600a6822f480220a60b0f5803f03d0b0f5802f05d07047086840f4803008607047086840f4a02008607047224908607047224a136823f47c131843084310605a
S3450800610070471f49086070471c490a68920850ea82000860704719490a6822f0f00210430860704715490a6822f4e06210430860704712490a6822f4605242eac0020a60f6
S3450800614070470e490a6822f4404210430860704701464009074a012801d1106804e0022801d1106a00e0506a01f01f01c84000f00100704700100240000042420410024052
S3450800618060004242dff834100a6802f03802104308607047dff824100a6822f008020a600a68104308607047dff810100a6822f010020a600a68104308607047002002409e
S345080061c062f30f2262f31f42401810f0030308d0c91a1fd3db0748bf00f8012d28bf20f8022d130030b414461546103928bf20e93c00fad8490728bf20e90c0048bf40f88f
S34508006200042d890028bf20f8022d48bf00f8012d30bc7047c91818bf00f8012dcb0728bf00f8012d70470000eff3108172b68269002a1ed00269904209d182691268824246
S3450800624002d18269002313600022826111e002694369536142690369136182691268824205d10269836993618269036913600022826181f310880020704700000a01000069
S34508006280512f000820010200892f0008210108007d34000825010400e12f00082601ffff8535000827010600e934000828010200e730000829010200913100083101040090
S345080062c04d38000850010400b5320008510104000b330008520104006533000853010400c13300085501040059320008560104001d340008600102005d36000862010200d4
S34508006300e337000864010800513700086501ffffb53600089001ffffef35000892010500b7380008010100002126000822010200f52a00082a0100009b2600082b010200d0
S345080063406d2900082c010600cd2600082d010200712800082e010000cd2800082f010200992a0008390102004f26000858010000872b000859010000b72b00085a010000de
S34508006380e72b00085b010000172c00085d010000572b00085e010000472c000868010100772c000869010100092d00086a010100ad2e00086b010400792d00086c010000b4
S345080063c05d2e0008980100001d2900089a010200032f0008fa00010031480008fb000100c1470008fc0001006d470008fd00ffff55430008fe000100c1460008ff00010054
S34508006400c54500080000ffffb345000830b583b0002400200190eff3108072b642490968002903d141490968002902d180f3108878e03d4901220a603d4909680968009158
S345080064400099002902d0009900aa8a613849096800220a6036490968091d354a116034490968344a1268914203d13149324a12680a602e4900220a6080f31088eff31080e1
S3450800648072b619e00022aa6180f310880800002801d020008847eff3108072b6a96901aa914209d10021a96180f310882800fff7fdfceff3108072b60099002928d0009d43
S345080064c0009909698d4202d1002100910ae029696a694a6169692a690a61296900aa8a61296900912968212907d3296820392960002101aaaa612d61c6e7a968ec686a68aa
S345080065002a602a68002abdd001aaaa612d61bbe70649096800297ff481af034900220a6080f3108837bd00bfb8140020ac140020a8140020a4140020a01400202de9fb4fbe
S34508006540040093460c9d0d9e0e9fddf83ca0ddf84090ddf844803200ef212800fff726fdb0088000061fa42200212000fff71efd0198a062c4f844b00298a064e560666153
S345080065807019401e2061e762c4f89470c4f81890c4f81c90574502d00020e06300e0e7630320206323486065a4652349200000f04df8eff3108072b6204921602049096897
S345080065c0002910d01e490968d1f88c101c4a1268c2f88c40c1f88840c4f88c1018490968c4f8881005e016490c60c4f88840c4f88c4014490968491c124a1160124909685a
S34508006600491c114a116080f31088b8f1000f03d02000fff7d5fc09e0eff3108072b60a490968491e084a116080f310880020bde8fe8f00bf196d0008e16c000844524854fc
S345080066404c140020501400205c1400200269a2f1400222f003024ff00003136053609360d36013615361c36893614ff00003d361136253629362d36213634ff0ff335363e5
S3450800668091634ff08073d3638260704710b5fff789fbfdf7d5f9fef7e9ff0446fff707f82146fff7c1f8fdf764f900f05ff8002010bd000038b586b0244c012005900020b6
S345080066c00490012003900a200290c8200190009400231f4a1ca104f1c800fff72fff002519e00120059000200490012003900a200290c82001906843204400f5b670009026
S345080067002b46144a15a1a4206843204400f53f70fff714ff6d1c022de3db0120059000200490012003900a200290c820019004f2444000900023084a0aa104f20c50fff70b
S34508006740fdfe07b030bd0000636470001c000020693e0008d5390008555100084465766963655f00416374696f6e000080b50d4800680d49884207d00a485ff0f03101606d
S3450800678000f016f800f04ef806485ff0f031016006480068fff78eff02480021016000f083f801bd18000020f1f0f0f03c1400201548164a10604ff0e0201549c0f8081d3a
S345080067c014481349096801604ff0e020124941614ff0070101610021c0f8181d0f49c0f81c1d0f49c0f8201d7047fee700b500f0a9f800f0b3b800b500f0a4f800f0d0f842
S3450800680000f0acb8fee7fee7141400203c14002000200008401400203f190100000000ff0000ff4080b500f007f900f053f91248002101601148002101601148002101604e
S345080068401048002101601048002101600f48002101600f48002101600e48002101600e48002101600d48002101600d48002101600c480021016001bd64140020681400207e
S345080068806c14002070140020741400207814002084140020881400208c140020901400207c1400208014002072b64ff0e0204ff001010160016941f00101016162b600dfd7
S345080068c0efbe70471c4801681c4a79b1eff3098c2ce9f00fc1f808c0dff864c0dcf8005025b18d614ff00005ccf80050136893b103605c6804f101045c60dff844c09d6905
S34508006900ccf80050d3f808c0bce8f00f8cf309886ff0020e704772b61368036023b962b630bfbff36f8ff6e74ff000644ff0e025c5f8044d62b6dce744140020481400208f
S34508006940981400200448016801f1010101604df804ad4ff0000a7047180000200c480168a1f101010160bde800440a48006800281dbf09490968814270470848006800288f
S3450800698002bf4ff080504ff0e021c1f8040d70471800002048140020441400205c1400201e49086800f1010008601d4b1a68002a08d0a2f101021a60002a03d1194b4ff0ae
S345080069c001001860184908680268002a04d0174b4ff001021a6008e000f10400144b1a68904201d1134b186808600e4b1a68002a03d10e49086800280fd04df804ed0b49e0
S34508006a000868002801d0fff701fd064b1a68002a01d000f0a1f85df804eb704794140020981400209c140020a8140020ac140020a4140020a014002080b51b4800210160b3
S34508006a401a4800210160042200211948fff7aefa184820210160184800210170174b012008e05208491c94461cf0010ff9d019705b1c401cff2802d802000021f3e7802205
S34508006a8000210f48fff792fa0e48002101600e48002101600d48002101600d48006850f0c5700b49086001bd44140020481400205414002058140020a40f0020a50f0020ec
S34508006ac0181200204c140020501400205c1400206014002080b5144800210160134800210160134800210160124800210160802200211148fff75afa10480f49016010489e
S34508006b000d4901600f48104901600e480068001d0c4908600d48002101600d48002101600c480021016001bd94140020981400209c140020ac14002098120020a0140020c3
S34508006b40a8140020a414002014130020b8140020b0140020b414002014480168eff3108072b6134a0023136000291bd00a6b002a18d1ca698a610a6a8a4210d0ca6acb6bbe
S34508006b809a420cd1ca6a0b4b096a43f822100a490968084a52f82110084a116002e08969074a116080f31088704700bf441400209c1400201812002058140020481400209f
S34508006bc0981400201cb51e4ca169fef7f2fee169a020fef7eefe216aa120fef7eafe616aa220fef7e6fea16aa320fef7e2fee16aa420fef7defe002000900be068460099b2
S34508006c0050f8211000982038c0b2fef7d2fe0098401c009000981328f0d30a484ff0ff310160416008480160416008482060002000e0401c6428fcd30548206013bd000053
S34508006c400ced00e080e100e080e200e00400fa050100fa050320b5e70420b3e70520b1e70620afe780b5c16eeff3108272b6836e002b2dd000292bd00b68dff85cc0634566
S34508006c8026d100238366036f984202d10023cb600be0036fcb60036fd0f874c0c3f874c0436fd0f870c0c3f870c00b695b1e0b61016b06290cd10d21c0f8841007490968d0
S34508006cc0491c064b196082f31088fff779f901e082f3108801bd00bf414d45535c14002010b50b480468a06c616c8847eff3108072b6012121630121a16306490968491c0a
S34508006d00044a116080f310882000fef7cdfb10bd441400205c14002080b5eff3108172b6026b042a09d1094a1268521c074b1a6081f31088fff744f906e0826e81f310885c
S34508006d401100002900d0904701bd00bf5c14002030b4002512e050f8042bd30744bf4a44521e091f042942f8045bfad213468c0744bf15809b1cc90748bf1d7050f8041b0a
S34508006d800029e8d130bc704710b5074979441831064c7c44163404e00a68081d114488470146a142f8d110bd0800000028000000a1ffffffa41400001c00002000000000a8
S34508006dc0f3ddffff1c00000068000000000000200000000000f00df8002801d0fff7d4ffaff300800020aff30080fff74ffc00f002f80120704700f001b800000746384681
S34508006e0000f002f8fbe700002021090326311820abbef9e70548014603b4684680f30988aff30080aff30080fff7d4ffa5edf5fe6162630000000000000000003132330008
S34508006e400000000000000000f0f0f0f0ffffffffffffffffffffffffffffffffffffffffffffffffffffffffffffffffffffffffffffffffffffffffffffffffffffffff78
