S3450800200018fc00203121000839ff0008990d0108a30d0108ad0d0108b70d0108000000000000000000000000000000004d0001083bff0008000000004d0001082bff0008ac
S3450800204021ff000821ff000821ff000821ff000821ff000821ff000821ff000821ff000821ff000821ff000821ff000821ff000821ff000821ff00088913010821ff000855
S3450800208021ff000821ff000821ff0008bdc400089913010821ff000821ff000821ff000821ff000821ff000821ff000821ff000821ff000821ff000821ff000821ff0008a4
S345080020c021ff000821ff000821ff000821ff000821ff000859ff000867ff000875ff000821ff000821ff000821ff000821ff000821ff000821ff000821ff000821ff000880
S3450800210021ff000821ff000821ff000821ff000883ff000821ff00083dff00084bff000821ff000821ff000821ff000821ff00080249d1f800d00ff09db9000000200008a8
S34508002140ffffffffffffffffffffffffffffffffcc325aa500200008f914010806bc7e6d3030303030313730005265736f7572636548616e646c696e67436f6e74726f6ca3
S345080021806c657200312e30342e30322e303030300000ffffffffffffffffffffffffffffffffffffffffffffffffffffffffffffffffffffffffffffffffffffffffffffbb
S34508002200f0b4002100224ff49473dff86c4a0200d2b25a432244b2f91e500200d2b25a432244b2f840205519002d07d50022dff84c5a0600f6b27601aa5312e042f2ad6230
S34508002240954208db42f2ac62dff8305a0600f6b27601aa5305e0dff8242a0600f6b2760195530200d2b25a432244b2f91e500200d2b25a432244b2f84220aa1a002a08d5b8
S345080022800022dff8f8590600f6b2760135446a8014e042f2ad65aa4209db42f2ac62dff8dc590600f6b2760135446a8006e0dff8cc590600f6b2760135446a800200d2b26e
S345080022c05a432244b2f91e500200d2b25a432244b2f844205519002d08d50022dff89c590600f6b276013544ea8014e042f2ad62954209db42f2ac62dff880590600f6b21d
S3450800230076013544ea8006e0dff870290600f6b276013244d5800200d2b25a432244b2f91e500200d2b25a432244b2f84620aa1a002a08d50022dff844590600f6b276012e
S3450800234035442a8114e042f2ad65aa4209db42f2ac62dff828590600f6b2760135442a8106e0dff818590600f6b2760135442a81dff8205e00260700ffb205225743ee5590
S3450800238000260700ffb20522574305eb0702567000260700ffb20522574305eb0702967000260700ffb20522574305eb0702d67000260700ffb20522574305eb0702167116
S345080023c0dff8b85800220600f6b276012e44727500220600f6b276012e44327100220600f6b276012e44b2720200d2b25a4322440026c2f890600200d2b25a432244002607
S34508002400c2f894600200d2b25a4322440026c2f898600200d2b25a4322440026c2f89c600200d2b25a432244002682f8a0604ff47a760200d2b25a4322440700ffb25f43db
S3450800244027447f8a774357610200d2b25a432244926c72430700ffb27f012f44fa600200d2b252012a44d268002a0ad00200d2b252012a44d2680700ffb27f012f443a61db
S3450800248005e001220700ffb27f012f443a610200d2b25a432244126d06fb02f60200d2b252012a44d66100220600f6b276013544ea750200d2b25a432244002582f85e504c
S345080024c00200d2b25a432244002582f86150c0b258432044002280f86520080080b2f0bc70472de9fe4f80460027002000208df80000002600250024052100220df10409f1
S34508002500484603f001fc1c204ff49479dff868a7dff8601d4246d2b209fb02f25244527842430a4492f90a20022a3bd14246d2b209fb02f25244072313774746ffb207f59d
S34508002540c057103701aa4346dbb209fb03f353445b7843430b44db8a13714346dbb209fb03f353445b7800fb03f00844b0f916000012d0704046c0b209fb00f01af9000048
S3450800258010f1010f00f073835ffa88f809fb08f81af808000200d2b201a9380080b204f0e7f864e34246d2b209fb02f25244527842430a4492f90a20032a3bd14246d2b23a
S345080025c009fb02f25244082313774746ffb207f5c057123701aa4346dbb209fb03f353445b7843430b441b8b13714346dbb209fb03f353445b7800fb03f00844b0f9180057
S345080026000012d0704046c0b209fb00f01af9000010f1010f00f02b835ffa88f809fb08f81af808000200d2b201a9380080b204f09ff81ce34046c0b209fb00f05044007f72
S34508002640022819dadff834164046c0b240010844c068002810d04046c0b24001084402694046c0b209fb00f050448089121a4046c0b2400108440261dff800b64046c0b247
S34508002680400158440069012847dadff8081b4246d2b20520424301eb0200007900283cd101224346dbb20520434301eb030002714046c0b209fb00f050440521017747463f
S345080026c0ffb207f5c057bf1c01a84146c9b209fb01f15144098c01714146c9b209fb01f15144b1f920100912c1704046c0b209fb00f01af9000010f1010f00f0b8825ffaaa
S3450800270088f809fb08f81af808000200d2b201a9380080b204f02cf8a9e24046c0b209fb00f05044c078ff283dd04046c0b209fb00f00aeb00014046c0b209fb00f0504462
S34508002740b0f920204046c0b209fb00f05044b0f92200121aca624046c0b209fb00f05044c06a00280fd54046c0b209fb00f00aeb00014046c0b209fb00f05044c26a5ff02c
S34508002780ff304243ca624046c0b209fb00f05044b0f84c004146c9b209fb01f15144c96a884200da01244046c0b209fb00f05044b0f920004146c9b249013bf8011088428b
S345080027c011da4046c0b24001584440884146c9b209fb01f15144b1f92010884203da01208df800001ee04046c0b209fb00f05044b0f920004146c9b249015944c988884244
S345080028000fda4046c0b24001584400894146c9b209fb01f15144b1f92010884201da012600e001259df80000002800f082804046c0b240015844407d401c4146c9b2490121
S345080028405944487500204146c9b249015944087100204146c9b24901594488724046c0b240015844407ddff8501c0978884260d3dff820194246d2b205204243885c002846
S3450800288057d101224346dbb205204343ca5400224346dbb20520434301eb0300427000224346dbb20520434301eb030082704046c0b240015844c068002809d04046c0b2a2
S345080028c040015844c0684146c9b24901594408614046c0b209fb00f05044016d4ff47a7041434046c0b240015844c1614046c0b209fb00f050440221017718f150014046e2
S34508002900c0b209fb00f01af9000010f1010f10d04046c0b209fb00f05044b0f92020c9b24046c0b209fb00f01af80000c0b203f098fdf6b2002e00f0b68000204146c9b225
S345080029404901594448754046c0b2400158440079401c4146c9b249015944087100204146c9b2490159448872dff828684146c9b20520414306eb01004078002837d0404625
S34508002980c0b240015844c069002830d04046c0b240015844c1694046c0b209fb00f050448089091a4046c0b240015844c1614046c0b240015844c069012818da0020414607
S345080029c0c9b249015944c86118f154014046c0b209fb00f05044b0f92020c9b24046c0b209fb00f01af80000c0b203f03afd4046c0b2400158440079dff8dc1c09788842fa
S34508002a0051d34146c9b20520414306eb01004078002848d14146c9b205204143705c012808d04146c9b20520414306eb01008078012838d100214246d2b205204243b154b3
S34508002a4001214246d2b20520424306eb0200417000214246d2b20520424306eb020081704046c0b209fb00f050440321017718f152014046c0b209fb00f01af9000010f199
S34508002a80010f10d04046c0b209fb00f05044b0f92020c9b24046c0b209fb00f01af80000c0b203f0defcedb2002d00f0848000204146c9b249015944487500204146c9b24f
S34508002ac04901594408714046c0b240015844807a401c4146c9b24901594488724046c0b240015844807adff8f41b0978884262d3dff8a0164246d2b20520424301eb0200f4
S34508002b008078002857d14246d2b205204243885c012808d04246d2b20520424301eb02004078012847d100224346dbb205204343ca5400224346dbb20520434301eb030034
S34508002b40427001224346dbb20520434301eb030082704046c0b209fb00f05044042101774746ffb217f5c05701a84146c9b209fb01f15144098c01714146c9b209fb01f11d
S34508002b805144b1f920100912c1704046c0b209fb00f01af9000010f1010f0cd04046c0b209fb00f01af800000200d2b201a9380080b203f0ddfde4b2002c51d04046c0b220
S34508002bc040015844c07d401c4146c9b249015944c8754046c0b240015844c07ddff8f81a0978884243d30121dff8a8254346dbb20520434302eb0300c1704046c0b209fb2b
S34508002c0000f05044062101774746ffb207f5c0573f1d01a84146c9b209fb01f15144c96a01714146c9b209fb01f15144c96a0912c1704046c0b209fb00f01af9000010f1cf
S34508002c40010f14d05ffa88f809fb08f81af808000200d2b201a9380080b203f089fd06e000205ffa88f85fea48115944c875380080b2bde8fe8f0000e8d1002054f1002013
S34508002c80f8b505001400c9b2002900f04b824ff49476dff84c7a2800c0b2704338448079002800f0c2802800c0b27043384481794ff4347041436420b1fbf0f0a0420dd3d9
S34508002cc02800c0b2704338442900c9b27143394491f86110491c80f861100de02800c0b270433844002180f85f102800c0b270433844002180f861102800c0b27043384486
S34508002d0090f86100dff8dc190978884206d32800c0b270433844012180f85f102800c0b27043384490f85f00002841d02800c0b27043384490f86000002839d12800c0b274
S34508002d40704338442900c9b27143394491f85f1080f860102800c0b270433844002180f861105420dff880192a00d2b272433a442b00dbb273433b441b7943430b44db7820
S34508002d8082f862302a00d2b272433a44127900fb02f008442900c9b2714339444979c17001212800c0b270433844007904f0fdf92800c0b27043384490f85f00002834d161
S34508002dc02800c0b27043384490f8600000282cd02800c0b2704338442900c9b27143394491f85f1080f860102800c0b270433844002180f86110dff8f0182800c0b2704373
S34508002e00384402795420424301eb02002900c9b27143394491f86210c17001212800c0b270433844007904f0c0f92800c0b270433844407a002800f0c2802800c0b270436a
S34508002e403844417a4ff4347041436420b1fbf0f0a0420dd32800c0b2704338442900c9b27143394491f86510491c80f865100de02800c0b270433844002180f863102800f8
S34508002e80c0b270433844002180f865102800c0b27043384490f86500dff848180978884206d32800c0b270433844012180f863102800c0b27043384490f86300002841d081
S34508002ec02800c0b27043384490f86400002839d12800c0b2704338442900c9b27143394491f8631080f864102800c0b270433844002180f865105420dff8ec172a00d2b284
S34508002f0072433a442b00dbb273433b44db7943430b44db7882f866302a00d2b272433a44d27900fb02f008442900c9b271433944097ac17001212800c0b270433844c079c5
S34508002f4004f033f92800c0b27043384490f86300002834d12800c0b27043384490f8640000282cd02800c0b2704338442900c9b27143394491f8631080f864102800c0b249
S34508002f8070433844002180f86510dff85c172800c0b270433844c2795420424301eb02002900c9b27143394491f86610c17001212800c0b270433844c07904f0f6f8002c5a
S34508002fc00dd12800c0b2704338442900c9b27143394491f85e10491c80f85e100de02800c0b270433844012180f85c102800c0b270433844002180f85e102800c0b270432c
S34508003000384490f85e00dff8dc160978884206d32800c0b270433844002180f85c102800c0b27043384490f85c00002838d02800c0b27043384490f85d00002830d1280089
S34508003040c0b2704338442900c9b27143394491f85c1080f85d102800c0b270433844002180f85e102800c0b2704338440079ff2807d001212800c0b270433844007904f08a
S3450800308094f82800c0b270433844c079ff2807d001212800c0b270433844c07904f085f82800c0b27043384490f85c00002870d12800c0b27043384490f85d00002868d0bd
S345080030c02800c0b2704338442900c9b27143394491f85c1080f85d102800c0b270433844002180f85e102800c0b2704338440079ff2807d000212800c0b2704338440079d7
S3450800310004f053f82800c0b270433844c079ff283fd00021edb2754307eb0500c07904f044f836e04ff49474dff8b4652800c0b2604330440079ff2807d000212800c0b2fe
S3450800314060433044007904f030f82800c0b260433044c079ff2807d000212800c0b260433044c07904f021f82800c0b260433044002180f85d102800c0b26043304400210c
S3450800318080f85c10edb2654306eb0500002180f85e10f1bd70f300200022002203e030230b70491c521c8242f9d30020704710b4002805d52d2313705ff0ff3358430fe0d5
S345080031c02b2313700ce00a2390fbf3f403fb140330330c00e4b213550a2390fbf3f0491e0128f0da002010bc70472de9f84304004ff49475dff8e8642000c0b268433044d6
S34508003200876e2000c0b268433044c06e2100c9b269433144d1f878905ff00008002104f015ff08d25ff0804104f022ff0100484604f08aff80462000c0b2684306eb000996
S345080032405ff07e50414604f0fdff390004f010ffc9f88400e4b26c433444dff89004414604f0f0ff390004f003ffc4f88800bde8f183000008f200202de9f84f05004ff44e
S345080032809476dff85c742800c0b270433844d0f868802800c0b270433844c06e2900c9b2714339440c6f2900c9b271433944496f2900c9b271433944d1f878a000215ff0dc
S345080032c0000900210021002104f0c0fe08d25ff0804104f0cdfe0100504604f035ff81462000514604f030ff82462800c0b2704307eb00045ff07e50514604f0a3ff4946b5
S3450800330004f0a0ff414604f0b3fec4f884002800c0b2704307eb000bdff8d003414604f0a7fe04005ff07e50494604f0fdff81465ff08040514604f09bfe494604f082ffce
S34508003340210004f095fecbf88800edb2754307eb05044046514604f08bfec4f88c00bde8f18f2de9f04704000020002000200020080005f019f805f029f80022dff8703362
S3450800338005f048f805f06af905004ff49476dff850732000c0b270433844d0f88400290004f066fe80462000c0b270433844d0f888102000c0b270433844d0f8980004f0fc
S345080033c057fe414604f03eff2100c9b271433944d1f8901004f036ff80462000c0b2704338444069002807d02000c0b270433844007c05f067f906e02000c0b270433844eb
S34508003400c07b05f05ff9dff8ec1204f09dfe81464846414605f064f900d2c8462000c0b270433844c07a022810d1dff8c0a24846514604f01dfe0100404605f051f90cd26d
S345080034404846514604f014fe804606e04046002105f046f901d25ff000082000c0b270433844c0f890802000c0b270433844c0f89850e4b2744307eb04004069002807d08d
S34508003480dff87402414604f0f3fd05f03bf906e0dff86402414604f0ebfd05f033f940f2bd21884201db4ff42f70dff83018884200da0800bde8f0875b8600082de9f047c1
S345080034c004000020002000200020080004f06cff04f07cff0022dff8183204f09bff05f0bdf805004ff49476dff8f4712000c0b27043384490f8a000002812d12000c0b2d5
S3450800350070433844012180f8a0102000c0b270433844c0f898502000c0b270433844c0f89c502000c0b270433844d0f88400290004f09efd2100c9b271433944d1f8901043
S3450800354004f080fe80462000c0b270433844d0f888102000c0b270433844d0f8980004f087fd414604f06efe80462000c0b270433844d0f88c102000c0b270433844d0f8f0
S345080035809c0004f075fd414604f05cfe80462000c0b2704338444069002807d02000c0b270433844007c05f08df806e02000c0b270433844c07b05f085f8dff8381104f0d8
S345080035c0c3fd81464846414605f08af800d2c8462000c0b270433844c07a022810d1dff80ca14846514604f043fd0100404605f077f80cd24846514604f03afd804606e022
S345080036004046002105f06cf801d25ff000082000c0b270433844c0f890802000c0b2704338442100c9b271433944d1f89810c0f89c102000c0b270433844c0f89850e4b26f
S34508003640744307eb04004069002807d0dff8a800414604f00dfd05f055f806e0dff89800414604f005fd05f04df840f2bd21884201db4ff42f70dff86416884200da080000
S34508003680bde8f08770b5002400204ff49475dff86c602000c0b2684330442100c9b26943314491f8ae10084410f1a6020821012005f073f92000c0b268433044e4b26c433d
S345080036c006eb040191f8dc10084410f1b4022821092005f062f970bd2783000826830008e8d100205a86000838dc0020000080bf000059400000c84200003444e8d10020d4
S345080037002de9f04f85b0804689465ff0000a0421002204ac200002f0f7fa484602f041ff0400484602f03dff8346484602f039ff0500484602f035ff0600484602f031ff99
S345080037408df80100484602f02cff8df80a00484602f027ff8df80900484602f022ff8df80000484602f01dff8df80800484602f018ff8df80700484602f013ff8df80600b8
S34508003780484602f00eff8df80500484602f0fafeadf80c00484602f004ff8df80400484602f0fffe8df80300484602f0fafe8df80200484602f0e6feadf80e00484602f014
S345080037c0e1fe0700484602f0ddfe01002000c0b2022802db4ff4807a03e15846c0b2022802db4ff4807afce02800c0b2062802db4ff4807af5e03000c0b2062806db3000f7
S34508003800c0b2ff2802d04ff4807aeae09df80100042806db9df80100ff2802d04ff4807adfe09df80a00652802db4ff4807ad8e09df80900652802db4ff4807ad1e09df851
S345080038400000042806db9df80000ff2802d04ff4807ac6e09df80800652802db4ff4807abfe09df80700652802db4ff4807ab8e09df80600022802db4ff4807ab1e09df8f9
S345080038800500032802db4ff4807aaae0bdf80c0064384ff68552904202d34ff4807aa0e09df80400022802db4ff4807a99e09df80300652802db4ff4807a92e09df80200ab
S345080038c0652802db4ff4807a8be0bdf80e004ff6e952904202db4ff4807a82e0380080b242f21172904202db4ff4807a79e0080080b24cf25132904202db4ff4807a70e07a
S34508003900dff8000d8279521e5b46dbb29a4202da40f2051a65e00279521e2b00dbb29a4202da40f2051a5ce00279521e3300dbb29a4206da3200d2b2ff2a02d040f2051a5d
S345080039404fe04279521e9df801309a4206da9df80120ff2a02d040f2051a42e04079401e9df80020904206da9df80000ff2802d040f2051a35e0dff85c2d2300dbb24ff474
S3450800398094704343d05610f1010f02d04ff4907a27e0dff8442d5b46dbb21c204343d05610f1010f02d04ff4907a1ae0dff82c2d06202b00dbb24343d35613f1010f02d0e7
S345080039c04ff4907a0de03300dbb2ff2b09d03300dbb200fb03f0105610f1010f01d04ff4907a504680b2002840f069814ff49479dff8e0ac2000c0b209fb00f00af80080b4
S34508003a002000c0b209fb00f0504480f801b02000c0b209fb00f0504485702000c0b209fb00f05044c6702000c0b209fb00f050449df8012002712000c0b209fb00f0504479
S34508003a409df80a2042712000c0b209fb00f050449df8092082712000c0b209fb00f050449df80020c2712000c0b209fb00f050449df8082002722000c0b209fb00f0504494
S34508003a809df8072042722000c0b209fb00f050449df8062082722000c0b209fb00f050449df80520c2722000c0b209fb00f05044bdf80c2082812000c0b209fb00f050449f
S34508003ac09df8042082739df80300622807db2000c0b209fb00f050446122c27307e02000c0b209fb00f050449df80320c2739df80200622807db2000c0b209fb00f0504429
S34508003b006122027407e02000c0b209fb00f050449df8022002742000c0b209fb00f05044bdf80e2042822000c0b209fb00f0504407832000c0b209fb00f0504441831c22cf
S34508003b40dff8943b5ffa8bfb02fb0bfb03f80b802000c0b209fb00f050444078504318449df904c080f802c0380080b2002809d02000c0b209fb00f05044407850431844a8
S34508003b8007810ae02000c0b209fb00f0504440785043184442f6f82707812000c0b209fb00f05044407802fb00f203eb020001822000c0b209fb00f05044407804f0b8ff34
S34508003bc0dff8180b06212a00d2b24a4300f802802a00d2b24a4302440023537040f6b8322b00dbb24b4303445a80edb24d4300eb050320251d713300dbb2ff2b14d03300fd
S34508003c00dbb24b4300f803803300dbb24b43034400255d703300dbb24b4303445a80f6b24e433044202101712000c0b209fb00f050440079ff2807d12000c0b209fb00f072
S34508003c405044c079ff2817d02000c0b209fb00f05044012180f85b102000c0b209fb00f05044002180f85c102000c0b209fb00f05044002180f85d102000c0b209fb00f077
S34508003c805044fc3005f0a2fdbdf80c200a212000c0b209fb00f05044fc3005f0f7fd2000c0b209fb00f0504400210177e4b209fb04f40aeb0400fc3005f0f6fd09e08df8a7
S34508003cc013404346dbb204aa514689b2484602f0b3fc002005b0bde8f08f000044fdffff2de9fc41070088460024042100226d46280002f009f8404602f053fc05004046b3
S34508003d0002f04ffc0600404602f03cfc2900c9b2022902db4ff480742ae03100c9b2022902db4ff4807423e0010089b242f2ad62914202db4ff480741ae04ff49471dff828
S34508003d4094292b00dbb24b43d35613f1010f02d140f221140ce02b00dbb201fb03f151563a00d2b209b212b2914201d04ff48874210089b2002932d14ff49477dff85489d6
S34508003d802900c9b2794341440e772900c9b279434144c883dff840292900c9b2794341444b781c214b4302eb03014e70f6b2012e1fd12900c9b279434144ff2281f8af20e4
S34508003dc0010089b22800c0b2fef71afa0400edb27d4308eb0500fc3005f066fd09e08df803503b00dbb26a46210089b2404602f023fc200080b2bde8f681f8b505000c009f
S34508003e000026042100226f46380001f07dff200002f0c7fb07003800c0b2022802db4ff480760ce0dff8ac183a00d2b24ff494704243885610f1010f01d140f2211630007d
S34508003e4080b2002840f0b3804ff49475dff8846821003800c0b26843305cc0b202f048fb21003800c0b202f043fb21003800c0b268433044407802f03bfb21003800c0b22f
S34508003e8068433044807802f033fb21003800c0b268433044c07802f02bfb21003800c0b268433044007902f023fb21003800c0b268433044407902f01bfb21003800c0b29a
S34508003ec068433044807902f013fb21003800c0b268433044c07902f00bfb21003800c0b268433044007a02f003fb21003800c0b268433044407a02f0fbfa21003800c0b2d7
S34508003f0068433044807a02f0f3fa21003800c0b268433044c07a02f0ebfa21003800c0b268433044808902f05dfa21003800c0b268433044807b02f0dbfa21003800c0b2cd
S34508003f4068433044c07b02f0d3fa21003800c0b268433044007c02f0cbfa21003800c0b268433044408a02f03dfa21003800c0b268433044008b02f035fa21003800c0b2bf
S34508003f8068433044408b02f02dfa21003800c0b268433044007f02f0abfa2100ffb26f4306eb0700c08b80b202f01cfa09e08df803702b00dbb26a46310089b2200002f028
S34508003fc03bfb0020f2bd2de9f14f82b00c000025042100226e46300001f096fe200002f0e0fa0600200002f0dcfa8346200002f0b2fa0700200002f0aefa8046200002f04b
S34508004000aafa8146200002f0a6fa82463000c0b2022802db4ff480753de05ffa8bfbbbf1020f02db4ff4807535e0dff82c0d381adff8281d884202d34ff480752be0dff892
S34508004040200d804502d34ff4807524e0814502d34ff480751fe0824502d34ff480751ae04ff49470dff86c163200d2b242438a5612f1010f02d140f221150ce03200d2b2e4
S3450800408000fb02f008569df8081000b209b2884201d04ff48875280080b2002840f0ab804ff49474dff82c563000c0b26043284407633000c0b2604305eb000b380004f0aa
S345080040c073f9cbf868003000c0b2604305eb00073000c0b260432844806edff8881c04f033f8b8663000c0b260432844c0f834803000c0b2604305eb0007404604f0e2fad9
S34508004100f8663000c0b2604305eb00073000c0b260432844c06edff84c1c04f015f8f8663000c0b260432844c0f838903000c0b2604305eb0007484604f0c4fa38673000de
S34508004140c0b2604305eb00073000c0b260432844006fdff8101c03f0f7ff38673000c0b260432844c0f83ca03000c0b2604305eb0007504604f0a6fa78673000c0b26043ab
S3450800418005eb00073000c0b260432844406fdff8d41b03f0d9ff78673000c0b2604305eb00073000c0b260432844808904f08afab8673000c0b2604305eb00073000c0b2bf
S345080041c060432844806fdff89c1b03f0bdffb8673000c0b204fb00f405eb0400807a002804d03000c0b2fff747f80ee03000c0b2fef7fbff09e08df803609df808306a4634
S34508004200290089b2200002f017fa0020bde8fe8f2de9fc4106000c000027042100226d46280001f071fd200002f0bbf90500200002f0b7f980462800c0b2022802db4ff453
S34508004240807713e04046c0b2022802db4ff480770ce0dff880142a00d2b24ff494704243885610f1010f01d140f22117380080b200282ed121002800c0b202f039f9210080
S345080042804046c0b202f034f94ff49476dff8447421002800c0b270433844006b02f087f821002800c0b270433844406b02f07ff821002800c0b270433844806b02f077f803
S345080042c02100edb2754307eb0500c06b02f06ff809e08df803503300dbb26a46390089b2200002f0a9f90020bde8f6812de9f14f82b00c0000250421002201ae300001f058
S3450800430003fd200002f04df90600200002f03af9adf80000200002f035f90700200002f031f98046200002f02df98146200002f012f98246200002f025f98346200002f0ef
S345080043400af93100c9b2022902db4ff480754fe041f27f31bdf800200a3a8a4202d34ff4807545e03a0092b20a3a8a4202d34ff480753de0424692b20a3a8a4202d34ff46b
S34508004380807535e04a4692b20a3a8a4202d34ff480752de0dff8c829924502d34ff4807526e05b469bb20a3b8b4202d34ff480751ee0904202d34ff4807519e04ff494710a
S345080043c0c44a3300dbb24b43d35613f1010f02d140f221150ce03300dbb201fb03f151569df8082009b212b2914201d04ff48875290089b200292ed14ff49471b54a330072
S34508004400dbb24b431344bdf80040a3f840403300dbb24b431344a3f842703300dbb24b431344a3f844803300dbb24b431344a3f846903300dbb24b431344c3f848a0330065
S34508004440dbb24b431344a3f84cb0f6b24e4302eb0601086509e08df807609df8083001aa290089b2200002f0e7f80020bde8fe8ff8b505000c000026042100226f4638007f
S3450800448001f042fc200002f08cf807003800c0b2022802db4ff480760be08e493a00d2b24ff494704243885610f1010f01d140f22116300080b2002845d121003800c0b257
S345080044c002f016f84ff49475824e21003800c0b268433044b0f8400001f084ff21003800c0b268433044b0f8420001f07bff21003800c0b268433044b0f8440001f072ffd5
S3450800450021003800c0b268433044b0f8460001f069ff21003800c0b268433044806c01f046ff21003800c0b268433044b0f84c0001f058ff2100ffb26f4306eb0700006d21
S3450800454001f035ff09e08df803702b00dbb26a46310089b2200002f06ff80020f2bdf8b504000d000026042100226f46380001f0cbfb280002f015f807003800c0b202283a
S3450800458002db4ff480761ae04ff49470dff8481d3a00d2b242438a5612f1010f02d140f221160ce03a00d2b200fb02f008562100c9b200b209b2884201d04ff488763000de
S345080045c080b2002811d129003800c0b201f090ff2900dff8042dffb24ff49470474302eb0700007f01f084ff09e08df803702300dbb26a46310089b2280002f01df8002088
S34508004600f2bd00007cf30020f8b506000c000027042100226d46280001f076fb200001f0c0ff05002800c0b2022802db4ff480771ae04ff49470dff8a01c2a00d2b242430d
S345080046408a5612f1010f02d140f221170ce02a00d2b200fb02f008563100c9b200b209b2884201d04ff48877380080b2002824d121002800c0b201f03bff4ff49476dff890
S34508004680587c21002800c0b270433844008c80b201f0a8fe21002800c0b270433844408c80b201f09ffe2100edb2754307eb0500c08b80b201f096fe09e08df803503300fe
S345080046c0dbb26a46390089b2200001f0b5ff0020f2bd0000e8d1002008f2002094f200202de9f8478fb006000f005ff0000a042100226c46200001f007fb0aa8dff8dc1b40
S34508004700142205f0dff803a8dff8d41b91e81c0080e81c0006a8dff8cc1b102205f0d2f801a8dff8c41bd1e90023c0e90023380001f037ff0400380001f033ff050038007f
S3450800474001f02fff8046380001f01cff81462000c0b2022802db4ff4807a37e02800c0b2042802db4ff4807a30e0b8f1650f02db4ff4807a2ae0b8f1650f02db4ff4807ae6
S3450800478024e0484680b264384ff68551884202d34ff4807a1ae04ff49470dff83c1b2200d2b242438a5612f1010f02d140f2211a0ce02200d2b200fb02f008563100c9b23e
S345080047c000b209b2884201d04ff4887a504680b2002840f0a2804ff49476dff8fc7a2000c0b270433844012180f855102000c0b27043384480f854502000c0b27043384424
S34508004800a0f80c902000c0b270433844a0f856804ff4347000fb08f84046642190fbf1f140f2bd20814201db4ff42f71dff8bc2a2000c0b27043384443781c20434302eb34
S345080048400300012242700b009bb22000c0b270433844827b01212000c0b270433844407804f007fb2000c0b270433844fc3004f0adff1ffa89f94a460a212000c0b2704383
S345080048803844fc3005f002f82000c0b270433844fc3005f009f80aaa13212800c0b205f085f901aa03212000c0b270433844b0f85600fef77cfc0df1050203212000c0b2c5
S345080048c07043384490f85400c0b205f06ff903aa0a212800c0b205f069f901a90620fef75bfc01aa05212000c0b2704338448089fef75dfc0df105020521e4b2744307eb98
S34508004900040090f85400c0b205f050f906aa0e212800c0b205f04af909e08df803403300dbb26a46514689b2380001f085fe002010b0bde8f087f8b505000e000027042181
S3450800494000226c46200001f0dff9300001f029fe04002000c0b2022802db4ff480771ae04ff49470dff870192200d2b242438a5612f1010f02d140f221170ce02200d2b2bf
S3450800498000fb02f008562900c9b200b209b2884201d04ff48877380080b2002841d14ff49475dff834692000c0b268433044002180f855102000c0b26843304400218181c9
S345080049c02000c0b2684330440021a0f856102000c0b2684330440021a0f858102000c0b268433044fc3004f0f1fe00232000c0b268433044827b00212000c0b268433044a4
S34508004a00407804f036fadff8e418e4b26c4306eb040042781c20424301eb02000021417009e08df803402b00dbb26a46390089b2300001f001fe0020f2bd2de9f84191b038
S34508004a4006000f005ff00008042100226c46200001f05af901a8dff8b41d142204f032ff06a8dff8ac1d2c2204f02cff380001f098fd0400380001f094fd05002000c0b2e5
S34508004a80022802db4ff4807821e02800c0b2042802db4ff480781ae04ff49470dff838182200d2b242438a5612f1010f02d140f221180ce02200d2b200fb02f008563100f5
S34508004ac0c9b200b209b2884201d04ff48878404680b200281dd14ff49470dff8fc172200d2b242430a4482f85450e4b2444301eb0400012180f85a1001aa11212800c0b2c4
S34508004b0005f054f806aa2a212800c0b205f04ef809e08df803403300dbb26a46414689b2380001f089fd002012b0bde8f081f8b504000d000026042100226f46380001f0c3
S34508004b40e3f8280001f02dfd0100c9b2022902db4ff480761ae04ff49471dff87c270300dbb24b43d35613f1010f02d140f221160ce00300dbb201fb03f151562200d2b240
S34508004b8009b212b2914201d04ff48876310089b200290ad10022dff84037c0b24ff494714843184480f85a2009e08df803002300dbb26a46310089b2280001f03dfd002060
S34508004bc0f2bdf8b506000c000027042100226d46280001f099f8200001f0e3fc05002800c0b2002802d04ff480770ce0dff8e8162a00d2b24ff494704243885610f1010f81
S34508004c0001d140f22117380080b2002840f0988021002800c0b201f06bfc4ff49476dff8b87621002800c0b270433844b0f8a40080b201f0d7fb21002800c0b270433844d6
S34508004c40d0f8b00001f0b3fb2800c0b2704338440021a0f8a4102800c0b2704338440021c0f8b0102800c0b270433844002180f8ae101ae02800c0b2704338442900c9b2f0
S34508004c807143394491f8ae100844002180f8a6102800c0b2704338442900c9b27143394491f8ae10491c80f8ae102800c0b27043384490f8ae000828dcdb2800c0b2704320
S34508004cc03844002180f8ae102800c0b270433844002180f8dc102800c0b270433844002180f8dc101ae02800c0b2704338442900c9b27143394491f8dc100844002180f845
S34508004d00b4102800c0b2704338442900c9b27143394491f8dc10491c80f8dc102800c0b27043384490f8dc002828dcdbedb2754307eb0500002180f8dc10fef7a3fc09e041
S34508004d408df803503300dbb26a46390089b2200001f072fc0020f2bd6079feff410d030081841e0000007a442de9f04f8db0002003a8dff8a01ad1e90023c0e9002305a8cf
S34508004d80dff8941a202204f09dfd0521002201ac200000f0b9ff0024002600254ff47a7006f05ef958e100232000c0b278434044827b00212000c0b278434044407804f022
S34508004dc058f8002200212000c0b2fdf759ff2000c0b278434044fc3004f0f8fccae02000c0b278434044007f01280dd02000c0b278434044007f022806d02000c0b27843b2
S34508004e004044007f0328ced12000c0b2784308eb00012000c0b278434044b0f91e202000c0b278434044b0f92000121a8a622000c0b278434044807a00280ad02000c0b28d
S34508004e4078434044816a2000c0b2fef737fb060009e02000c0b278434044816a2000c0b2fef77ffa06002000c0b2fdf73afb01002000c0b278434044406900281dd0200025
S34508004e80c0b2784308eb00022000c0b27843404443692000c0b27843404480891b1a53612000c0b2784340444069002805d52000c0b2784340440022426189b200293ed1fd
S34508004ec02000c0b278434044c07a022815d1002e0cd55ff0ff3909fb06f92000c0b278434044857bed4315f001050de02000c0b278434044857bb14606e0002e03d55ff0f4
S34508004f000009002600e0b1462000c0b27843404490f85b00002805d04a4601212000c0b2fdf7aefe4b469bb22a00d2b201212000c0b278434044407803f09bff1ae00023e7
S34508004f402000c0b278434044827b00212000c0b278434044407803f08cff002200212000c0b2fdf78dfe2000c0b278434044fc3004f02cfc2000c0b27843404490f85a000d
S34508004f80012869d105a90520fef706f90df11a010520fef701f908a90420fef7fdf80df125010620fef7f8f805aa04212000c0b278434044b0f92000fef7f9f82000c0b2b8
S34508004fc078434044c078ff280ad00df11a0204212000c0b278434044b0f92200fef7e7f8642046434ff4347096fbf0f608aa03213000fef7dcf803f0c7fddff8f0925ff0e3
S345080050001c0a0df1250205212000c0b27843404440780afb00f04844b0f91600fef7c7f80baa05212000c0b27843404440780afb00fa09eb0a00b0f91800fef7b8f805aafe
S3450800504020212000c0b207fb00f708eb070090f85400c0b204f0aafd4ff49477dff878825ff0ff312000c0b278434044e03006f025f80028f0d12000c0b278434044210006
S34508005080c9b279434144098c8184dff890975ff0ff31484606f058f82000c0b2784308eb000a2000c0b278434044807806f0daf8aaf8200042f2ad6a2000c0b27843404482
S345080050c0b0f9200050452bdb2000c0b210f5c1502100c9b27943414409220a7701a92200d2b27a434244128c0a712200d2b27a434244b2f920201212ca702100c9b27943d7
S3450800510018f9011011f1010f0ad02100c9b2794318f801100a00d2b201a980b201f028fbdff8fcb62000c0b278434044b0f9200058452cda2000c0b200f5c050223021008c
S34508005140c9b2794341440a220a7701a92200d2b27a434244128c0a712200d2b27a434244b2f920201212ca702100c9b2794318f9011011f1010f0ad02100c9b2794318f80c
S3450800518001100a00d2b201a980b201f0f1fa2000c0b278434044c078ff2877d02000c0b27843404400902000c0b278434044c07806f058f8009948842000c0b2784340442d
S345080051c0b0f9220050452cdb2000c0b200f5c05024302100c9b2794341440b220a7701a92200d2b27a434244528c0a712200d2b27a434244b2f922201212ca702100c9b208
S34508005200794318f9011011f1010f0ad02100c9b2794318f801100a00d2b201a980b201f0a7fa2000c0b278434044b0f9220058452cda2000c0b200f5c05026302100c9b259
S34508005240794341440c220a7701a92200d2b27a434244528c0a712200d2b27a434244b2f922201212ca702100c9b2794318f9011011f1010f0ad02100c9b2794318f8011031
S345080052800a00d2b201a980b201f072fa484606f0b3fa2000c0b27843404490f9550001287ff49dad03a90520fdf776ff03aa04212000c0b278434044b0f92000fdf777ff43
S345080052c003aa07212000c0b27843404490f85400c0b204f06bfc4de6e8d10020401201082c14010878130108a014010808f200202de9f04f8db0002003a8dff8b019d1e97f
S345080053000023c0e9002305a8dff8a419202204f0d9fa0521002201ac200000f0f5fc01240026002532e100232000c0b278434044827b00212000c0b278434044407803f01f
S3450800534098fd002200212000c0b2fdf799fc2000c0b278434044fc3004f038faa4e02000c0b278434044007f01280dd02000c0b278434044007f022806d02000c0b2784392
S345080053804044007f0328ced12000c0b2784308eb00012000c0b278434044b0f91e202000c0b278434044b0f92000121a8a622000c0b278434044807a00280ad02000c0b208
S345080053c078434044816a2000c0b2fef777f8060009e02000c0b278434044816a2000c0b2fdf7bfff06002000c0b2fdf77af880b200283ed12000c0b278434044c07a0228f4
S3450800540015d1002e0cd55ff0ff3909fb06f92000c0b278434044857bed4315f001050de02000c0b278434044857bb14606e0002e03d55ff00009002600e0b1462000c0b24b
S345080054407843404490f85b00002805d04a4601212000c0b2fdf714fc4b469bb22a00d2b201212000c0b278434044407803f001fd1ae000232000c0b278434044827b002183
S345080054802000c0b278434044407803f0f2fc002200212000c0b2fdf7f3fb2000c0b278434044fc3004f092f92000c0b27843404490f85a00012869d105a90520fdf76cfefa
S345080054c00df11a010520fdf767fe08a90420fdf763fe0df125010620fdf75efe05aa04212000c0b278434044b0f92000fdf75ffe2000c0b278434044c078ff280ad00df17c
S345080055001a0204212000c0b278434044b0f92200fdf74dfe642046434ff4347096fbf0f608aa03213000fdf742fe03f02dfbdff8f4925ff01c0a0df1250205212000c0b2d2
S345080055407843404440780afb00f04844b0f91600fdf72dfe0baa05212000c0b27843404440780afb00fa09eb0a00b0f91800fdf71efe05aa20212000c0b207fb00f708eb27
S34508005580070090f85400c0b204f010fb4ff49477dff84c875ff0ff312000c0b278434044e03005f08bfd0028f0d12000c0b2784340442100c9b279434144098c8184dff8ac
S345080055c05c925ff0ff31484605f0befd2000c0b2784308eb000a2000c0b278434044807805f040feaaf8200042f2ad6a2000c0b278434044b0f9200050452bdb2000c0b2d8
S3450800560010f5c1502100c9b27943414409220a7701a92200d2b27a434244128c0a712200d2b27a434244b2f920201212ca702100c9b2794318f9011011f1010f0ad0210058
S34508005640c9b2794318f801100a00d2b201a980b201f08ef8dff8c8b12000c0b278434044b0f9200058452cda2000c0b200f5c05022302100c9b2794341440a220a7701a939
S345080056802200d2b27a434244128c0a712200d2b27a434244b2f920201212ca702100c9b2794318f9011011f1010f0ad02100c9b2794318f801100a00d2b201a980b201f06e
S345080056c057f82000c0b278434044c078ff2877d02000c0b27843404400902000c0b278434044c07805f0befd009948842000c0b278434044b0f9220050452cdb2000c0b28d
S3450800570000f5c05024302100c9b2794341440b220a7701a92200d2b27a434244528c0a712200d2b27a434244b2f922201212ca702100c9b2794318f9011011f1010f0ad0f1
S345080057402100c9b2794318f801100a00d2b201a980b201f00df82000c0b278434044b0f9220058452cda2000c0b200f5c05026302100c9b2794341440c220a7701a92200be
S34508005780d2b27a434244528c0a712200d2b27a434244b2f922201212ca702100c9b2794318f9011011f1010f0ad02100c9b2794318f801100a00d2b201a980b200f0d8ff77
S345080057c0484606f019f82000c0b27843404490f9550001287ff4c3ad03a90520fdf7dcfc03aa04212000c0b278434044b0f92000fdf7ddfc03aa07212000c0b278434044cf
S3450800580090f85400c0b204f0d1f94de65412010804110108a814010878110108d0f100207cfcffff08f20020f8b500204ff49474dff8ac545ff0ff360100c9b261436e5471
S345080058400100c9b26143294400224a700100c9b26143294400228a700100c9b2614329440022ca700100c9b26143294400228a720100c9b2614329440022ca720100c9b20d
S345080058806143294400228a810100c9b26143294400228a730100c9b2614329446122ca730100c9b26143294400220a830100c9b26143294400220a770100c9b261432944aa
S345080058c00022ca830100c9b26143294400220a840100c9b26143294400220a630100c9b26143294400224a630100c9b26143294400228a630100c9b2614329440022ca63fe
S345080059000100c9b26143294481f854600100c9b2614329440022a1f856200100c9b2614329440022a1f858200100c9b261432944002281f85a200100c9b2614329440022d0
S3450800594081f85b200100c9b261432944002281f85c200100c9b261432944002281f85d200100c9b261432944002281f85e200100c9b261432944002281f85f200100c9b213
S3450800598061432944002281f860200100c9b261432944002281f861200100c9b261432944002281f862200100c9b261432944002281f863200100c9b261432944002281f887
S345080059c064200100c9b261432944002281f865200100c9b261432944002281f866200100c9b2614329440022a1f8a4200100c9b261432944002281f8ae20ff270100c9b216
S34508005a006143294481f8af700100c9b2614329440022c1f8b0200100c9b261432944002281f8dc200022af49c0b260432844e03006f002f801200100c9b261436e540100b4
S34508005a40c9b26143294400224a700100c9b26143294400228a700100c9b2614329440022ca700100c9b26143294400228a720100c9b2614329440022ca720100c9b2614368
S34508005a80294400228a810100c9b26143294400228a730100c9b2614329446122ca730100c9b26143294400220a830100c9b26143294400220a770100c9b26143294400222a
S34508005ac0ca830100c9b26143294400220a840100c9b26143294400220a630100c9b26143294400224a630100c9b26143294400228a630100c9b2614329440022ca6301001d
S34508005b00c9b26143294481f854600100c9b2614329440022a1f856200100c9b2614329440022a1f858200100c9b261432944002281f85a200100c9b261432944002281f856
S34508005b405b200100c9b261432944002281f85c200100c9b261432944002281f85d200100c9b261432944002281f85e200100c9b261432944002281f85b200100c9b26143ea
S34508005b802944002281f85c200100c9b261432944002281f85d200100c9b261432944002281f85e200100c9b261432944002281f85f200100c9b261432944002281f86020b9
S34508005bc00100c9b261432944002281f861200100c9b261432944002281f862200100c9b261432944002281f863200100c9b261432944002281f864200100c9b26143294460
S34508005c00002281f865200100c9b261432944002281f866200100c9b2614329440022a1f8a4200100c9b261432944002281f8ae200100c9b26143294481f8af700100c9b2e5
S34508005c40614329440022c1f8b0200100c9b261432944002281f8dc2000222349c0b260432844e03005f0e8fef1bd80b51f4805f017ff01bd1fb51a4c00221a4914f1e00085
S34508005c8005f0dafe002002900a2001900a2000900023174a174914f1fc0005f037ff1fbd80b5154805f0fcfe01bd0000b0140108981101081fb50a4c0022104914f5027018
S34508005cc005f0bafe002002900a2001900a20009000230b4a0b4914f5097005f017ff1fbde8d100203814010844140108c8d200206b5c000850140108f0d300205c140108ac
S34508005d00a15c00086814010862f30f2262f31f42401810f0030308d0c91a1fd3db0748bf00f8012d28bf20f8022d130030b414461546103928bf20e93c00fad8490728bf1d
S34508005d4020e90c0048bf40f8042d890028bf20f8022d48bf00f8012d30bc7047c91818bf00f8012dcb0728bf00f8012d704730b4002513e050f8042bd30744bfa9f10103a7
S34508005d809a18091f042942f8045bfad213468c0744bf15809b1cc90748bf1d7050f8041b0029e7d130bc704710b500202ce03c21dff8b82903009bb24b43134400249c766e
S34508005dc003009bb24b43134400245c6203009bb24b43134400249c6203009bb24b43134400245c6003009bb24b4313440400a4b2640883f8214003009bb201fb03f11144a6
S34508005e00002281f82020401c010089b21029cedb05f0c2fe10bd2de9f24f040015001e0006f00bfb0700e4b25fea4408d0e04046c0b209fb00f05044406828444146c9b27b
S34508005e4009fb01f14af801006ee05ff03c09dff81ca94046c0b209fb00f05044002101774046c0b209fb00f050440021c1764046c0b209fb00f05044002101764046c0b25c
S34508005e8009fb00f050443900c9b211f01f013a00d2b2120212f4005211434246d2b2920112f0400211434246d2b2d20112f4407211434246d2b2920012f020021143424639
S34508005ec0d2b2d20112f4c052114311f5c07181814ff0ff0b4046c0b209fb00f0504480f819b04046c0b209fb00f05044a02181764046c0b209fb00f05044009981604046d6
S34508005f00c0b209fb00f050443100490841604046c0b22100c9b2b0eb410f88d14046c0b209fb00f04af800504046c0b209fb00f05044002141624046c0b209fb00f050441c
S34508005f40042181624046c0b209fb00f050440021c1624046c0b209fb00f05044002101634046c0b209fb00f05044002141634046c0b209fb00f05044002141774046c0b2ac
S34508005f8009fb00f00aeb0001dff8f02b4346dbb21c20434302eb030088630022b6a14046c0b209fb00f05044806b05f045fd4046c0b209fb00f050440021c1774046c0b258
S34508005fc009fb00f90aeb090080f81eb018f101084046c0b22100c9b24900891c8842fff634af0022a5a1dff8983b2500edb21c20454303eb050005f01ffd0122a0a1dff843
S34508006000a80c05f019fd5420dff8a01c00222300dbb24343ca542200d2b242430a4400235370e4b2444301eb0400ff218170bde8f18f80b58a6a0b689854521c486882420a
S3450800604000d30022486a824205d100220021042000f08efb03e08a62486b401c486301bd10b4ca6a002308e00c68a054000a521c4c68a24200d300225b1c042bf4d310bc01
S34508006080704710b504002100606bfff7e9ff00206063a06ae062a06a002100e0491c04290dd2401c6268904200d30020626a9042f4d100220021042000f05afb00e0a06201
S345080060c010bd426a016b8a1841688a4201d34168521a426200210163704780b50200100080b2c01110f00f000300dbb2db1e082b26d20300dbb2db1e92b2d21012f00c0201
S3450800610012eb6302c00706d5d2b20021092000f02ffbff202ee000200870100702d5083a012008701000c0b2082806dbd2b20021052000f01dfbff201ce01000c0b219e0dc
S345080061400100c9b20c2901d1ff2013e0c0b201280ad14ff4fa7004f083ff00220021092000f006fbff2005e000220021052000f0fffaff2002bd806800e0083002780b00ce
S34508006180dbb29a4202d00278002af6d1704738b584b001a806f0b2f810f1010f67d0bdf80400002813d19df8060002280ed19df8080081280ad106f040f99df80910c0b2e9
S345080061c0814203d105f0e8fe06f070fa52e06946bdf80400fff781ffdff8702c9df8003013eb40033c214b4302eb0304ff2841d09df8061000293dd09df8081011f00f0180
S34508006200627e914236d09df8081011f00f016176217f00290ad19df80810090606d40200d2b20021012000f0a3fa23e0012508e0210001a82a00d2b210440079fff7f9fe30
S345080062406d1c28009df80610c0b28842f0d39df80800400608d5002020772000fff711ffa06b05f01dfc05e01020207702e0012004f0f6fe05b030bd616100007163000030
S34508006280646c730038b50400dff8c02b2000c0b2c9b211eb40013c20414302eb01055ff0ff31a86b04f00affa87fff2811d0dff8a01b2200d2b25420424301eb0200017867
S345080062c04078814205d02100c9b2280000f0eff827e0280000f07cf9280000f062f96877697f2800fff747ff02005088296b884204d050884ff6ff71884205d129002000f1
S34508006300c0b25268904706e02300dbb200221c21280000f091f92800fff7d3fe280000f071f831bd10b5002410e0dff8201b220092b23c20424301eb0200807e002804d13c
S3450800634000220021112000f013fa641c200080b20828eadb05f0e1fd06f006fb06f02afb02f009fa0020c04600281dd1dff8dc4a2100fe20fff75dfe06f05ff8002809d1e5
S34508006380002200211a2000f0f3f921000020fff750fe03e021000120fff74bfe2000fff770fea06b05f07cfbfff7f1fefce738b504000d0029002000c0b200f099f8290067
S345080063c02000000ac0b200f093f829002000000cc0b200f08df82900240e2000c0b200f087f831bd38b504000d0029002000c0b200f07ef82900a4b2240a2000c0b200f0a4
S3450800640077f831bd10b50400e07e002809d11020e0760320a073607f60740020a07480202074207c50f040002074217c207e41182174207e401c10f00f002076e07f0028f2
S3450800644004d114f10c0005f0fbfe03e014f10c0005f0d3fe0020a0730020e076a020a07610bd38b5dff844480500edb254235d4304eb05039c78ff2c18d05c781c44217145
S34508006480597803eb81014a615978491c11f00f015970dff8b819c0b29a7812eb40023c20424301eb0200806b05f0fafa31bd38b50400dff89c29c9b25420414302eb0105e3
S345080064c0fb206077210028782844007900f010f82100287805eb80004069fff768ff2878401c10f00f0028702000fff78bff31bd38b504000d00e87e002809d10320a873f2
S34508006500687f68740020a8741020e87680202874a87b082818db297c287e41182974287e401c10f00f002876e87f002804d115f10c0005f085fe03e015f10c0005f05dfe1b
S345080065400120a87300202874a87b28440474a87b401ca87331bd38b50400200000f021f80500200000f01df815eb0025200000f018f815eb0045200000f013f815eb006538
S34508006580280032bd38b50400200000f00af80500adb2200000f005f815eb0025280080b232bd0100086b002801d100200fe0086b401e086308684a6a805c4a6a521c4a624d
S345080065c04a6a4b689a4201d300224a62c0b2704770b50400616a206b41186162606a6168884203d3616a6068091a6162606ae16a884201d101201ee0042020630026002576
S3450800660006e0360a2000fff7ccff16eb00666d1c2800c0b20428f4db6068b04209d20020e06a6062012200211b2000f0a1f8012001e02663002070bdfeb507000d00140044
S345080066401e0005f0fafe8030adf8000008208df80200f87e002836d10320b873787f78743c21dff8e8273000c0b2484310443300dbb24b43134493f820305b1c80f82030a4
S345080066803000c0b24843104490f8200000280cd13000c0b2484310443300dbb24b43134493f820305b1c80f820303000c0b201fb00f102eb010090f82000b8741020f8766f
S345080066c08020387405e03200d2b20021032000f04ff828008df80400adb22d0a8df80550b6f180008df80600dff86017f6b23c20464301eb060090f820008df80700002c2a
S345080067000dd004200100c9b2082915da21786a460300dbb21a441171641c401cf2e7042006e000216a460300dbb21a441171401c0100c9b20829f4db684605f081fd10f1fb
S34508006740010f10d105f04cfd684605f079fd00208df8040002208df8050080208df80600684605f06dfdf7bd00000000c8ae00207fb506000c00150005f05ffe8030adf8ea
S34508006780000008208df8020096f4004630008df80400b6b2360a8df80560b5f180008df80600002c0dd003200100c9b2082915da21786a460300dbb21a441171641c401cf3
S345080067c0f2e7032006e000216a460300dbb21a441171401c0100c9b20829f4db684605f02ffd10f1010f10d105f0fafc684605f027fd00208df8040002208df80500802028
S345080068008df80600684605f01bfd7fbd2de9ff4706000c0000202000006bc046062808d23300dbb200222b212000fff705ff0020a0e12000fff7b5fe82462000fff78bfe88
S3450800684080462000fff7adfe07005046c0b2b02807d05046c0b2b32803d05046c0b2e12805d1002501212000c177c04600e03d002000006bc046edb2a84208d03300dbb2b4
S3450800688000222b212000fff7d7fe002072e1dff818544ff4fa61280004f010fc8146484680b2002808d03300dbb200223d212000fff7c2fe00205de15ffa8afabaf1000f63
S345080068c024d0baf1a20f22d0baf1a30f5cd0baf1b00f7cd0baf1b20f5ad0baf1b30f00f08c80baf1b50f00f0a080baf1e10f00f0a080baf1e20f00f0c780baf1e30f00f080
S34508006900eb80baf1e40f00f0018128e12ee15ff0000a09e02000fff744fedff838155246d2b288541af1010a50463900c0b2c9b28842efd3dff82005804511d33800c0b253
S3450800694010eb0800dff81415884209d2dff80425ffb2390089b2404605f092ff814606e03300dbb200220f212000fff765fe484680b2002807d03300dbb20022494689b28d
S345080069802000fff759fef1e0002005f06dfeede0dff8c404804507d23300dbb200220e212000fff749fe0ee0404605f097fe010089b2002907d03300dbb20022010089b23b
S345080069c02000fff739fe002005f04efecee021003800c0b2fff78cfd002607e0210098f80000fff785fd18f10108761c30003900c0b2c9b28842f1d3b8e021003800c0b2c2
S34508006a00fff776fd002609e040460078c0462100c0b2fff76dfd18f10108761c30003900c0b2c9b28842efd3a0e0404605f01cfe9ce0dff820944a463900c9b289b2404632
S34508006a4001f048ff010089b2002907d03300dbb20022010089b22000fff7eefd21003800c0b2fff745fd002607e021003000c0b219f80000fff73cfd761c30003900c0b2f5
S34508006a80c9b28842f1d371e05ff0000909e02000fff787fddff8bc134a46d2b2885419f1010948463900c0b2c9b28842efd3dff8a423ffb2390089b2404601f06eff010001
S34508006ac089b2002907d03300dbb20022010089b22000fff7b1fd49e001ab6a4602a90df1010001f098fe21000298fff760fc21009df80100fff7fcfc21009df80000fff757
S34508006b00f7fc21000198fff752fc2fe001f033fe2000fff720fd02902000fff742fd8df801002000fff73dfd8df800002000fff712fd0190019b9df8002002999df8010078
S34508006b4001f078fe010089b2002907d03300dbb20022010089b22000fff76efd06e03300dbb200222e212000fff766fd280004f097ff002004b0bde8f087000038d4002067
S34508006b80cceb002080b503000800dbb200220621fff752fd012002bdf8b507000c002000fff7fffc06003000c0b200280dd121000220fff79dfc21000020fff799fc210077
S34508006bc00a20fff795fc00206de03000c0b2ff280dd106f0bff8050021000220fff788fc2100e86a80b2fff7fdfb00205be03000c0b2072801da9a4d17e03000c0b20c2805
S34508006c0002da984df61f10e03000c0b2132802da954d0c3e09e000253b00dbb2002208212000fff709fd00e06d1c3000c0b2002812d0761e002728000078c0460028f3d0fd
S34508006c406d1c7f1c380080b23328f4db21000020fff74efc012026e000263000c0b240190078c04600280ad0761c3000c0b23328f3db21000020fff73bfc012013e0210005
S34508006c803000c0b2fff734fc08e028000078c0466d1c2100c0b2fff72bfc761e3000c0b20028f2d10120f2bdb8f2002048cf002038b505000c002000fff773fcc0b2002828
S34508006cc006d0022824d022d304282ad021d330e021000020fff70cfc210064480068800b10f0010090f00100c0b2fff701fc21005f480078fff7fcfb2000fff783fb142098
S34508006d0004f0aef905f048f905f0d0fc18e017e016e04ff40040574908600020544908700ee04ff400405449086001205049087006e02b00dbb2002207212000fff77cfcf0
S34508006d4021000120fff7d4fb210048480068800b10f0010090f00100c0b2fff7c9fb210043480078fff7c4fb012032bd38b504000d002800fff715fcc0b200280ad00128f9
S34508006d8013d13e49e4b21c20444301eb040004f087fe11e05ff0ff31384ae4b21c20444302eb040004f08af906e02300dbb2002225212800fff740fc012032bd70b5040054
S34508006dc00d002800fff7edfb06003000c0b2ff2809d1ff211e4ae4b25420444302eb04008170a97727e03000c0b200281cd10020a87716492200d2b27820424301eb0200a1
S34508006e00a84208d10021124ae4b25420444302eb040081700fe001210d4ae4b25420444302eb0400817006e02300dbb2002225212800fff701fc29003000c0b2fff758fb89
S34508006e4029000020fff7b3fa012070bdc8ae002048cf0020dce8002000f0070800000808600100081002000860210008081001400cf400201410014010100140cceb0020e8
S34508006e8070b5002443e006e005fb04f03044007adff8741c0880002005fb04f131444861022005fb04f13144887005fb04f030448078012814d105fb04f030444068002844
S34508006ec005d105fb04f030440069002808d005fb04f030444069643005fb04f13144486105fb04f03044807802280fd105fb04f030440069002809d005fb04f030444069d8
S34508006f00643005fb04f506eb05014861641c042c78da5425dff8f46b05fb04f030448078012805d005fb04f0304480780228edd105fb04f03044006900282ad005fb04f0d8
S34508006f403044006905fb04f131444969884220d1dff8bc1b0a8801232000c0b2800083409a430a80002005fb04f131444861032005fb04f13144887005fb04f03044026924
S34508006f8014f13c01c9b205fb04f0305cc0b2fff768fa05fb04f030444068002885d005fb04f03044807802283ff47faf05fb04f03044406805fb04f13144496988427ff4db
S34508006fc074af002c06d0022c14d00bd3032c3ff45baf58e705fb04f03044007adff8341b088058e705fb04f03044007adff8281b088050e705fb04f03044007adff81c1b49
S34508007000088048e770bd2de9f84f0400142540f6b830adf800004ff47a77fa205ff00009dff8fc8a80b2c8f80000dff8f80a2100c9b250f821100968012909d10021220066
S34508007040d2b250f8220001604ff4fa7004f008f8dff8d46a01202100c9b256f821100860642003f0fdff5ff0000a0fe0012003f0f7ff0221584605f077ff0028f6d0dff8a3
S345080070805c0d006810eb09091af1010a2800c0b282450ddadff848bd072301222100c9b2584605f0f3fe0121584605f0aefee0e72800c0b2b9fbf0f0800040f2e931884251
S345080070c033d20027bdf80000c8f80000642003f0c7ff5ff000080ee0012003f0c1ff0221484605f041ff0028f6d0dff8f00c0068c71918f101082800c0b280450ddadff86d
S34508007100e09c072301222100c9b2484605f0befe0121484605f079fee1e71e37edb2b7fbf5f00321b0fbf1f031e040f6a17188422dd25ff00009bfb2c8f80070642003f0ec
S345080071408fff00270ee0012003f08aff0221404605f00aff0028f6d0dff8800c006810eb09097f1c2800c0b287420ddadff8708c072301222100c9b2404605f087fe012191
S34508007180404605f042fee1e7edb2b9fbf5f00021e4b256f82420116043f68161884201d343f6ef6080b2bde8f28f30b4c9b201291ed15421dff854290300dbb24b431344fd
S345080071c0db78dff80c4d0500edb254f8254023600123dff850490500edb254f8254023600300dbb201fb03f1114401228a700fe00021dff8dc2c0300dbb252f8232011604b
S345080072000021dff820290300dbb252f8232011600022dff8f838c0b2542148431844426130bc7047f8b504000d000026042100226f463800fef768fd2800fff7b2f90700f2
S345080072402800fff7aef93900c9b2042902db4ff480761de00100c9b2022902db4ff4807616e0dff8701c4979491e3a00d2b2914202da40f205160be0dff890283b00dbb20c
S3450800728054214b43d15611f1010f01d04ff49076310089b200291dd10100c9b2002907d1dff868183a00d2b2542042438c5411e05421dff858285ff0ff33bc465ffa8cfc5b
S345080072c001fb0cfc02f80c303b00dbb201fb03f111444870300080b2002809d08df803702300dbb26a46310089b22800fff7a4f90020f2bd2de9f14f86b00d005ff00009df
S345080073000421002202ac2000fef7fefc2800fff748f906002800fff744f98df804002800fff73ff98df801002800fff714f904902800fff736f98df800002800fff731f93d
S3450800734007002800fff71ef9adf806002800fff719f980462800fff7fef803902800fff720f904003000c0b2042802db4ff4807966e09df80400022802db4ff480795fe0f8
S345080073809df80100652802db4ff4807958e09df80000652802db4ff4807951e03800c0b2032802db4ff480794ae043f68160bdf80610814202db4ff4807941e0414689b223
S345080073c0814202db4ff480793ae02000c0b2022802db4ff4807933e0dff8f80a4079401e3100c9b2884202da40f2051928e05421dff8402c3000c0b24843105610f1010fab
S3450800740009d13000c0b2484310444078002802d140f2211914e03000c0b2484310569df8183000b21bb298420ad03000c0b201fb00f102eb01004078002801d14ff48879ba
S34508007440484680b2002840f03e812000c0b200280ad19df80410dff8dc2b3300dbb25420434302eb030081705ff0540adff8c4bb3000c0b20afb00f058449df80110c17063
S3450800748064203100c9b20afb01f15944049a6423b2fbf3f242434a603100c9b20afb01f159449df800200a723100c9b20afb01f159444f723100c9b20afb01f15944bdf8ad
S345080074c006204a813100c9b20afb01f15944a1f80c803100c9b20afb01f15944039a6423b2fbf3f200fb02f008613800c0b2022803d03800c0b2012833d13000c0b20afbb7
S3450800750000f05844002141763000c0b20afb00f0584400903000c0b2fff775fd009948833000c0b20afb00f05844408bbdf80610884216d23000c0b20afb00f058440421d5
S3450800754081703000c0b20afb00f05844012141763000c0b20afb00f05844002101764ff4c069ffb2012f20d13000c0b20afb00f05844408b1ffa88f8804516d23000c0b211
S345080075800afb00f05844042181703000c0b20afb00f05844022141763000c0b20afb00f058440021017640f20169e4b2002c00f07f80484680b200287ad19df804000028fd
S345080075c03fd03000c0b20afb00f05844007eff280dd03000c0b20afb00f058443100c9b20afb01f15944097e491c017601e040f20369484680b2002865d13000c0b20afb9f
S3450800760000f05844807801285dd03000c0b20afb00f058448078022855d03000c0b20afb00f058449df8041081703000c0b20afb00fa0beb0a0081783000c0b2fff7b5fd37
S3450800764041e03000c0b20afb00f05844007e00280dd03000c0b20afb00f058443100c9b20afb01f15944097e491e017601e040f20269484680b2002825d13000c0b20afb4a
S3450800768000f05844007e00281dd13000c0b20afb00f05844002181703000c0b20afb00fa0beb0a0081783000c0b2fff77efd0ae03000c0b20afb00fa0beb0a0081783000f6
S345080076c0c0b2fff772fd484680b2002809d08df80b609df8183002aa494689b22800fef7abff002007b0bde8f08f2de9f84304000d000026042100226f463800fef704fb2f
S345080077002800fef74eff07003800c0b2042802db4ff4807687e05ff05408dff8f0933800c0b208fb00f019f9000010f1010f0ad13800c0b208fb00f048444078002802d1fb
S3450800774040f221166fe0dff88c074079401e3900c9b2884202da40f2051664e0300080b2002860d129003800c0b208fb00f019f80000c0b2fef7bcfe29003800c0b2fef75c
S34508007780b7fe29003800c0b208fb00f048444078fef7aefe29003800c0b208fb00f048448078fef7a5fe29003800c0b208fb00f04844c078fef79cfe29003800c0b208fb8a
S345080077c000f048444068fef7f2fd29003800c0b208fb00f04844007afef78afe29003800c0b208fb00f04844407afef781fe29003800c0b208fb00f048444089fef7f2fdab
S3450800780029003800c0b208fb00f048448089fef7e9fd29003800c0b208fb00f809eb08000069fef7c4fd300080b2002809d08df803702300dbb26a46310089b22800fef7d7
S34508007840fbfe0020bde8f2832de9f84304000d000026042100226f463800fef755fa2800fef79ffe07003800c0b2042802db4ff4807633e0dff85c064079401e3900c9b203
S34508007880884202da40f2051628e05421dff8a4273800c0b24843105610f1010f09d13800c0b2484310444078002802d140f2211614e03800c0b2484310562300dbb200b28c
S345080078c01bb298420ad03800c0b201fb00f102eb01004078002801d14ff48876300080b2002837d15ff05408dff8489729003800c0b208fb00f019f80000c0b2fef7f8fd5b
S3450800790029003800c0b2fef7f3fd29003800c0b208fb00f048448078fef7eafd29003800c0b208fb00f04844407efef7e1fd29003800c0b208fb00f04844408bfef752fd17
S3450800794029003800c0b208fb00f809eb0800007efef7cefd300080b2002809d08df803702300dbb26a46310089b22800fef764fe0020bde8f2832de9fc4704000d00002681
S34508007980042100226f463800fef7bef92800fef708fe07003800c0b2042802db4ff4807633e0dff830054079401e3900c9b2884202da40f2051628e05421dff878263800bc
S345080079c0c0b24843105610f1010f09d13800c0b2484310444078002802d140f2211614e03800c0b2484310562300dbb200b21bb298420ad03800c0b201fb00f102eb01008f
S34508007a004078002801d14ff48876300080b2002869d15ff05408dff81c963800c0b208fb00f009eb000a3800c0b2fff7ecfaaaf81a003800c0b208fb00f048440021817035
S34508007a403800c0b208fb00f04844002141763800c0b208fb00f04844408b3900c9b208fb01f149444989884206d23800c0b208fb00f04844012141763800c0b208fb00f0ba
S34508007a80484480893900c9b208fb01f14944498b884206d23800c0b208fb00f048440221417629003800c0b208fb00f019f80000c0b2fef71dfd29003800c0b2fef718fd3f
S34508007ac029003800c0b208fb00f04844407efef70ffd29003800c0b208fb00f809eb0800408bfef77ffc300080b2002809d08df803702300dbb26a46310089b22800fef71e
S34508007b009bfd0020bde8f687402c014038dc0020202c0140342c0140382c01403c2c014008740040d8120108c81201082de9f14f84b00c005ff000090421002201ad280063
S34508007b40fef7e2f82000fef72cfd05002000fef728fd8df800002000fef7fdfc03902000fef7f9fc02902000fef70cfdadf802002000fef716fd06002000fef703fd0700da
S34508007b802000fef7fffc80462800c0b2042802db4ff4807963e09df80000652802db4ff480795ce00398002802d14ff4807956e00298002802d14ff4807950e0bdf8020088
S34508007bc0002802d14ff4807949e03000c0b2032802db4ff4807942e043f68160390089b2814202db4ff4807939e0414689b2814202db4ff4807932e0b6484079401e29009e
S34508007c00c9b2884202da40f2051928e05421dff824242800c0b24843105610f1010f09d12800c0b2484310444078002802d140f2211914e02800c0b2484310569df81030c7
S34508007c4000b21bb298420ad02800c0b201fb00f102eb01004078002801d14ff48879484680b2002840f0a8805ff0540adff8c4b32800c0b20afb00f058449df80010c1701c
S34508007c802800c0b20afb00f058440399c1612800c0b20afb00f05844029901622800c0b20afb00f05844bdf8021081842800c0b20afb00f0584446722800c0b20afb00f03b
S34508007cc0584447812800c0b20afb00f05844a0f80c803000c0b2022803d03000c0b2012832d12800c0b20afb00f05844002141762800c0b20afb00f0584400902800c0b2fe
S34508007d00fff781f9009948832800c0b20afb00f05844408bbfb2b84216d22800c0b20afb00f05844042181702800c0b20afb00f05844012141762800c0b20afb00f05844a8
S34508007d40002101764ff4c069f6b2012e20d12800c0b20afb00f05844408b1ffa88f8804516d22800c0b20afb00f05844042181702800c0b20afb00f058440221417628007f
S34508007d80c0b20afb00f058440021017640f20169484680b200280fd12800c0b20afb00f05844002181702800c0b20afb00fa0beb0a00283001f078fd484680b2002809d061
S34508007dc08df807509df8103001aa494689b22000fef732fc002005b0bde8f08f4c3c0140003c014070b504005425924e05fb04f03044006a05fb04f13144c98c88420fd30e
S34508007e0005fb04f030448078012809d001212000c0b2fff7caf9012005fb04f13144887005fb04f03044006a05fb04f13144c98c88420fd205fb04f030448078002809d045
S34508007e4000212000c0b2fff7b0f9002005fb04f13144887005fb04f03044c08c05fb04f13144c96988420ed3002005fb04f13144c88405fb04f03044808c401e05fb04f188
S34508007e803144888408e005fb04f03044c08c401c05fb04f13144c88405fb04f03044808c002813d105fb04f03044283001f08efc002005fb04f131448870002214f14001e0
S34508007ec0c9b26c43305dc0b2fef7cbfa70bd0000e81201087cf300203eb500226fe0542054495ff0ff331400e4b244430b551300dbb243430b4400245c701300dbb24343c0
S34508007f000b4400249c701300dbb243430b440024dc701300dbb243430b4400245c601300dbb243430b4400241c721300dbb243430b4401245c721300dbb243430b44002452
S34508007f405c811300dbb243430b4400249c811300dbb243430b4400241c611300dbb243430b4400245c611300dbb243430b4400241c761300dbb243430b44ff245c7613004c
S34508007f80dbb243430b4400245c831300dbb243430b440024dc611300dbb243430b4400241c621300dbb243430b4400249c841300dbb200fb03f008440021c184521c1000ea
S34508007fc0c0b204288bdb1c4c1a4d00200290012001900120009000232200184915f1280003f094fd00200290012001900120009001232200124915f17c0003f087fd002064
S3450800800002900120019001200090022322000d4915f1d00003f07afd00200290012001900120009003232200074915f5927003f06dfd37bd38dc0020e57d00083813010864
S345080080404813010858130108681301084ff0807c1ceb400f94bf1ceb410f05e040ea010c1ceb0c0f01d28142704718bf88427047ff2212ead05c1dbf12ead1539445934285
S345080080802be09c44d30780ea01021a4043ea002043ea0121a1fb0030c04238bf40007cf17f010bdbfe294ada5b0842eac15153ea006373f1004c51eb10207047d1f1080c7d
S345080080c0dcf120012fdb5b0810fa01f10b4320fa0cf073f100415041704794451cbf02ead153934280ea010202f000421dd0400019d0490017d05bb9634514d00902b1faf4
S3450800810081f39940bceb030cc00140f00040c1e70002b0fa80fc10fa0cf0b3eb0c0cc90141f00041b6e71000704740000ad0490008d010f1807f94bf11f1807f02e042f02e
S34508008140ff407047d043704710b5ff2313ead0541dbf13ead1529c429a4239e0a41ada0780ea0103134042ea012142ea0020421a3cbf641e01eb4202090ab2fbf1fe01fbac
S345080081801e221202b2fbf1f001fb10226ef30f201202b2fbf1fe4eea00207f3406ddfe2c24da53ea500050ebc45010bdd4f1020401fb1e2240f08071192c1ddc21fa04f02d
S345080081c0c4f12004a140114371f10042584110bd9c421abf03ead1529a420fe080ea010e0ef00043400004d0490016d143f0ff4010bd490008bfd343180010bd9c4205d1cb
S34508008200d21af7d001f00041484010bd4a0212bf0846484000f0004010bd4ab90902b1fa81f2914044b1a418c00140f000409ee7c90141f0004152420002b0fa80f4a040d2
S34508008240141b94e790ea010f40f1748081f00041431a4ff000423ebf5340c01ac91800bfd3095fead05c13eb400f34bfb3eb410f40e07cebd1530cd342ea012122d8d1ebf0
S34508008280402009d3400a28bf5fea500140ebcc507047401a15d04002b0fa80f2521c9040400a4fea3c23b3eb026384bf00eb730007e040f400001a16db07c2f10102d04057
S345080082c018437047182bfcdc31fa03f202fa03f3591a38bf42f00102d2eb40203cbf4000acf1010c5feacc5cc20572f100414ceb5020704713eb400f0fd2c94209d0acebad
S34508008300d153022b03db4902172bdddd70479143401ac042d5d10020704713eb410fd0d36ff000007047020890ea010f7ff590af81f00041421a3cbf801a89184ff0004c38
S34508008340c0f3c752ff2a24d0c1f3c75313b3d21ad2f1190327dd4cea01214cfa03f321ea0303d140c20d4cea0020401834bf20ea0c004cea5000d20553ea006373eb0c0cf4
S3450800838052eb1020420012f1807f38bf7047c00dc0057047490212bf9a4200eb5120f8e7d2f11703d9d57047c2175040801ab0fa80f10ad08840d1f19d01d20742eac1515b
S345080083c0020672f1004241eb10207047c0f3c75181b1ff2906d0c110400721f0e04101f16051704741020cbf40f4e0016ff000410020704700f0004100020ad0b0fa80fc43
S3450800840000fa0cf001f16051a1eb0c5101ebd02140057047f0b540f2ff7581ea030c0cf0004c15ea11541dbf15ea1357ac42af42e5e0bc41c1f31301c3f31303801a994174
S3450800844043f4801304d2641e4000494180185941c90241ea5051b1fbf3f603fb1611a2fb0675d7ebc020a94102d2761e80185941c90241ea5051b1fbf3fe03fb1e11a2fb43
S345080084800e75d7ebc020a94103d2aef1010e80185941890241ea9051760546ea8e2eb1fbf3f603fb1611a2fb0675d7eb8020a94102d2761e80185941c90241ea50514eea65
S345080084c0060eb1fbf3f603fb1611a2fb0675d7ebc020a94102d2761e80185941c90241ea5051b1fbf3f703fb1711a2fb0735d3ebc020a94167f100070cbf004247f0010703
S3450800850066f3d5274fea1e31b80814f5806412ddbd0775f1004250eb0e5051eb045111f5801f5cbf41ea0c01f0bd4cf07f6141f0e0410020f0bdbd076d0840ea0e5041f448
S345080085408011d4f10104b4f120060adac4f120060200e04001fa06f3e1401843b24015430ee0342c13dcc6f1200445ea40056d0820fa06f2154321fa06f0a1400d4300215e
S3450800858075f1004250f1000051eb0c01f0bd00205fea0c01f0bdcfb992185b41b3fa83f704bfb2fa82f6bf190b3fb7f120062fbf02fa06f3bb40c7f1200622fa06f638bf14
S345080085c03343ba401cb1e419641e33e77f4231f00041b1fa81f404bfb0fa80f6a4190b3cb4f120062fbf00fa06f1a140c4f1200620fa06f638bf3143a0403c1b1ae7ac4260
S345080086001abf05ea1357af4212e050ea41061cbf52ea4306bfe750ea4107304661461cbf41ea0551f0bd52ea430c08bfc143f0bd00204ff4001616eb410f98bf16eb430f71
S3450800864008bf16eb410f24bfc14305e016eb430f0cbf61464cea0551f0bd0a1901f000428b1aa3f16051b1f5801f0adbb1f17f6f1fd242eac102c10071f1004142eb5070df
S3450800868070470b15c3f10903212b10d2890241ea905180020128494141f0004121fa03f0c3f12003994071f1004150417047100070476ff0000013eb103f5cbf000e42ea38
S345080086c0c050704700280ad0b0fa80f18840d1f19d01c905020672f1004241eb102070474ff0807c1ceb400f94bf1ceb410f05e040ea010c1ceb0c0f01d28842704718bf2e
S3450800870081427047c0f3c7517e390eddc217d1f1200106dd000240f00040c840104450407047d04380f00040704700207047000010b4dff8e043a378002b0bd0c0b230f0ce
S34508008740080013005b0913f00803184308704a70881c0ee00870637804e01800c0b20a54120a5b1e1800c0b20028f6d160780844401c10bc704778b585b00020dff898130b
S345080087800878002801d0002043e001200870dff88c43230008224ff40071012000f04af804a803900020029001940020009000230c220121002004f040f9010089b2002901
S345080087c001d080b225e0dff84c430620a07214f14e0514f10a0601232a003100002004f0fef9010089b2002901d080b211e00120a0720020e07201232a003100002004f03d
S34508008800eef904000122c649c64803f015f9200080b206b070bd30b4be4c2578057060680860e078107021894ff47a704143196030bc704730b585b00400b64d69602c70c4
S345080088401000c0b2412800db40221000c0b2002801d0ea7001e00820e870b1f5007f04d10120a8700120687019e0002203e0686840086860521c2879c00702d468680028de
S34508008880f5d10120904068606868884201d036201ee00020a870d2b2d208521c6a70e4b2022c01d14020e87004a803900020029001930020009000230c220121002004f084
S345080088c0bcf804984ff47a71b0fbf1f02881002005b030bd2de9f047884615008e490978002901d13e2056e004008a4e7068414689b20919884201d235204ce04027dff8ea
S345080089002492c821484602f0d9fb80b2002811d0372040e00a782a70491c6d1c401c02003b0092b29bb29a42f4d3b8eb0708380080b20419404680b2002828d016f10a0a81
S34508008940220051460320fff7f3fe4046390080b289b2884200d247467378db195b1cdbb216f14e025146002004f039f98246504680b2002805d17078304410f14f0100205f
S34508008980cde7484603f08cf8504680b203e0484603f086f80020bde8f0872de9f84f15005d4a1278002a01d13e20b1e08146594c60680a0092b212eb0902904201d23520f8
S345080089c0a6e094f803a08846c821564802f076fb80b2002803d037209ae094f803a0404680b2002800f090800620a072012314f14e0214f10a01002004f0f1f84a4614f19c
S34508008a000a010220fff794fee178491e19ea010f13d14146524689b292b2914200d2c24600210a00534692b29bb29a4224d22a7802706d1c401c491cf3e794f803a01aebde
S34508008a40090ae178491ec94311ea0a0abaeb090a4146524689b292b2914200d2c246002104e02a7802706d1c401c491c0a00534692b29bb29a42f4d32b4e2c4f637813ebf0
S34508008a800a035b1cdbb232003900002004f0a7f8b8eb0a081ffa8afa1aeb09095ff00a0a2078012899d1baf1010a012002f0d8fa0520a072022332003900002004f08ff885
S34508008ac08346584680b2002816d194f84f00c00718d50120c0b2002803d0504680b20028e1d11ffa8afabaf1000f7ff476af0d4802f0d6ff34200be00a4802f0d1ff584605
S34508008b0080b205e00020e5e7064802f0c9ff0020bde8f28f3cef00200df4002080841e0068120108d4f200208aef002046ef0020f8b50500002400260de0012002f090fa6b
S34508008b400221380004f010fa0028f6d0dff8580c00680419761c0a2e0ddadff8507c07230122e91dc9b2380004f090f90121380004f04bf9e4e7dff8381cedb21c2045431e
S34508008b8001eb05008482f1bd2de9fe43052100226c462000fdf7b8f8002000240de0002005fb04f506eb0501c88205e0002005fb04f506eb05018872641c022c7cda1c252e
S34508008bc0dff8ec6b05fb04f0304490f901000128e5d100275ff0000818e0dff8d09b04230122e11dc9b2484604f050f90121484604f00bf90221484604f0b6f90028f9d035
S34508008c00dff8a40b0068c71918f10108b8f10a0fe3db05fb04f03044b0f914003f1adff8940b474340f2a94097fbf0f0401d0a2190fbf1f10a20414305fb04f03044c1826d
S34508008c40002902d55ff0ff30414305fb04f03044b0f908008842a9da022005fb04f1314488720023002200212000c0b200f001f9032005fb04f131444870684605fb04f12e
S34508008c803144c98a017105fb04f13144b1f916100912c17005fb04f0305610f1010f8bd005fb04f5705d0200d2b2694614f5b85080b2fdf75dfd7fe7bde8f783feb5002517
S34508008cc0052100226c462000fdf71ef8dff8e04a208a002803d094f90100012806d0a08d00287dd094f91d00012879d1002616e0dff8b87a042301220621380004f0c6f8d0
S34508008d000121380004f081f80221380004f02cf90028f9d0dff8900a00684519761c0a2ee6db0a2095fbf0f140f6e44041430b2041434ff4805091fbf0f03230642190fb1e
S34508008d40f1f5642045434cf25130854201db4cf25035002642e01c2707fb06f02044058307fb06f02044008a854236da07fb06f0204490f9010001282fd1032007fb06f177
S34508008d80214488720023002200213000c0b200f070f8032007fb06f121444870684607fb06f12144098b017107fb06f12144b1f918100912c17007fb06f0205610f1010fa0
S34508008dc00bd007fb06f7e05d0200d2b2694606f5b850801c80b2fdf7cbfc761c022ebadbf7bd70b5002441e005fb04f03044408a401c05fb04f506eb0501488235e01c257a
S34508008e00dff8ac6905fb04f03044c06800282cd005fb04f0304490f90100012825d105fb04f03044b0f9120005fb04f13144c9688842d9d30023002200212000c0b200f057
S34508008e4018f8022005fb04f13144487005fb04f03044c2686420424314f14a01c9b205fb04f5705dc0b2fdf7fcfa641c022cc6db70bd70b4c9b201296cd1d2b2002a30d1d7
S34508008e80dff834190200d2b2520001eb8202526800241460dff824290400e4b2640002eb8404646800252560dff814490500edb26d0004eb85056d6801262e600125060065
S34508008ec0f6b254f8364025609bb20400e4b251f834100b6001210300dbb252f8332011602fe0dff8d41800220400e4b251f834402260dff8c82800240500edb252f83550ab
S34508008f002c60dff8bc480500edb26d0004eb85056d6801262e6001250600f6b254f8364025600400e4b2640001eb840149689bb20b600100c9b2490002eb810149680122ad
S34508008f400a600122dff86838c0b21c2148431844427037e0dff860180200d2b2520001eb8202526800231360dff850280300dbb25b0002eb83035b6800241c600023040062
S34508008f80e4b251f834100b6000210300dbb252f833201160dff8281800220300dbb251f833301a600200d2b2520001eb8201496800220a600022dff8f837c0b21c21484381
S34508008fc01844427070bc70472de9f041040000250020dff8e4672000c0b2400006eb8000406800210160dff8d4772000c0b2400007eb800040680021016000202100c9b207
