S34508002000e01e0020ed2000080d730008d5780008d9780008dd780008e178000800000000000000000000000000000000cd7300080f73000800000000cd730008ff720008d8
S34508002040f5720008f5720008f5720008f5720008f5720008f5720008f5720008f5720008f5720008f5720008f5720008f5720008f5720008f5720008f5720008f572000862
S34508002080f5720008f5720008f57200088f6600082f660008f5720008f5720008f5720008f5720008f5720008f5720008f572000889430008f5720008f5720008f572000801
S345080020c0f5720008f5720008f5720008f5720008f5720008f5720008dd420008f5720008f5720008f5720008f57200080249d1f800d005f0c9bc000000200008ffffffffd3
S34508002140ffffffffffffffffffffffffffffffffcc325aa500200008af7a0008814747953030303030333134004d4f44554c41525f5a00312e30312e30322e3230303100d1
S3450800218000ffffffffffffffffffffffffffffffffffffffffffffffffffffffffffffffffffffffffffffffffffffffffffffffffffffffffffffffffffffffffffffff50
S3450800220038b505464ff0804400202080a081012001f086ffdff8280d05eb850100ebc105a868698b401a02f0b9fee96902f0defe02f048ff698b081801212180a18180b21f
S3450800224032bd38b504464ff48050dff8f81c4860ff2c04dd0b20dff85c1c088003e00320dff8501c0880012002f04effdff8445ce0b22880012002f047ff288800202880c3
S34508002280012002f041ff2c884ff48050dff8b41c0860012002f038ff2046c0b232bd38b5dff8a04c4ff480556560012002f02cff0620dff8001c0880012002f025ff2560ae
S345080022c00120bde8324002f01fbff8b506460c460525dff8e07b6d1efff7e1ff4ff48050dff8601c4860012002f00effb6b2ff2e05dd0a2039460880a6f5807602e0022055
S3450800230039460880012002f0fffe3e80012002f0fbfe3c80012002f0f7fe4ff48050dff8241c0860082002f0effe304680b2fff788ffa04202d0edb2002dccd12846c0b22f
S34508002340401e8041c00f40b2f2bd10b50920dff8701d087001240ee004f5fa7080b2fff770ffdff85c1d6054002802d12046401e0870641ce4b20a2c03da0846007809288e
S34508002380ead010bd10b50b20dff8681d087001240ee004f2e91080b2fff753ffdff8541d6054002802d12046401e0870641ce4b20c2c03da084600780b28ead010bd38b57d
S345080023c0840004f13c0080b2fff73bff054604f13d0080b2fff735ff00eb052080b232bd38b5840004f13e0080b2fff72aff054604f13f0080b2fff724ff00eb052000b22d
S3450800240032bd10201de710b582b00446fff719ff8df80000601c80b2fff713ff8df80100a01c80b2fff70dff8df80200e01c80b2fff707ff8df80300009816bd38b5dff803
S34508002440b40c047801250be0dff8a80c295c05f2e91080b2fff739ff00280dd16d1cedb2ac42f1da0b2c09da002104f5f57080b2fff72bff002801d0012032bd002032bdb7
S3450800248038b5dff83c0c047801250be0dff8300c295c05f5fa7080b2fff717ff00280dd16d1cedb2ac42f1da092c09da002104f2f51080b2fff709ff002801d0012032bde7
S345080024c0002032bd70b504460d460026290aa0003c3080b2fff7f9fe002800d001262946c9b2a0003d3080b2fff7effe002800d00126304670bd70b504460d460026291269
S34508002500c9b2a0003e3080b2fff7dffe002800d001262946c9b2a0003f3080b2fff7d5fe002800d00126304670bd31b50c4600259df800102046fff7c8fe002800d00125e8
S345080025409df80110601c80b2fff7bffe002800d001259df80210a01c80b2fff7b6fe002800d001259df80310e01c80b2fff7adfe002800d00125284632bd80b5014610202d
S34508002580fff7a3fe401e8041c043c00f40b202bd38b5002402212046fff797fe002801d040f2366400210120fff78ffe002801d040f236640520fff7e0ff002801d040f23b
S345080025c0366412210020fff7b0ff002801d040f2366416210020fff7a8ff002801d040f236641a210020fff7a0ff002801d040f236641e210020fff798ff002801d040f2f1
S34508002600366422214ff07e50fff78fff002801d040f2366426210020fff787ff002801d040f236642a210020fff77fff002801d040f236642e210020fff777ff002801d039
S3450800264040f2366432210020fff76fff002801d040f2366436214ff07e50fff766ff002801d040f2366400251fe0dff8d40805eb850100ebc100c1892846c0b2fff722ff26
S34508002680002801d040f23664dff8b40805eb850100ebc100b0f90c102846c0b2fff72bff002801d040f236646d1c082ddddb204632bd10b500240520fff75fff002801d0e2
S345080026c040f23664204610bd38b5002410e0dff8700804eb840100ebc1052046c0b2fff76efee8812046c0b2fff77afea881641c082cecdb31bd10b5fff783fe0446601fd8
S345080027002d2817d302f0b7fd00280ed1042c05d1fff7cfffdff8381d088010bd2046fff737ffdff82c1d088010bd40f24c40dff8201d088010bd70b50c46fff706fedff8de
S3450800274080090578691c0170002605e0dff87009305c03f0c3f8761cf6b2b5422146f5da002003f0bbf8002070bd70b50c46fff709fedff880090578691c0170002605e0ee
S34508002780dff87009305c03f0a9f8761cf6b2b5422146f5da002003f0a1f8002070bdf8b505460c46204603f0def8811cdff8a42c914208d32b4600224ff47a71204603f0b6
S345080027c034f90020f2bd10f1020f04d1dff8885c002129616961002802d4dff87c1c4861dff8745c28696969884201db461a02e000f54030461a652e00db6426214628461e
S34508002800406902f0c1ff2146304680b202f0d1ffdff8480c00880028214607d0012003f05df80020dff8341c088002e0002003f055f8002712e0b7420fda2146dff8200c66
S345080028406a69105c03f04af86869401c6861b0f5403f02db0020294648617f1c3fb2642fe9db2846c079022803db0220dff81c1d08600020f2bd38b50c46dff8dc5b2868cf
S3450800288002f082ff2146287903f028f82146687903f024f82146a87903f020f82146e87903f01cf8002032bd38b504460d46284603f06ef8082808db234600224ff47a7197
S345080028c0284603f0b2f8002032bddff8741600eb800201ebc200008c01281dd0022815d004280dd0082806d010281ad129467d2002f05fff15e02946fa2002f05aff10e03c
S3450800290029464ff4fa7002f054ff0ae029464ff47a7002f04eff04e029464ff4fa6002f048ff002032bd70b504460d46284603f02ff8082808db234600224ff47a712846a7
S3450800294003f073f8002070bd00eb40018c00dff82c6d2946a019007a02f0c0ff2946a05902f012ff002070bd38b504460d46284603f00ef8082808db234600224ff47a71ae
S34508002980284603f052f8002032bdfff739fc294602f00fff002032bdf0b585b005460c460020014600aa02e022f81010401c0928fadb204602f0ecff0646082e0fda20468c
S345080029c002f0f2ff0746f81e072808d2781e07ebd771491000ebd070b1eb600f08d02b4600224ff47a71204603f01ff8002035e04ff08040002101808181012001f090fb9d
S34508002a00002006ebc60313e0dff8e01c7156091a49b2002900d50931dff8282d02eb430249b232f8111000aa22f81010401c40b2b842e9db4ff08040012101808181394614
S34508002a4049b200a801f012fa214600a807ebd772521030f8120002f0acfe002005b0f0bd2de9f84306460c46204602f091ff0546082d05da204602f076ffb0f5803f08db5a
S34508002a80334600224ff47a71204602f0ceff002075e010f1010f06d0dff8e01b05eb450201eb820148602146284602f082fe05eb45004fea8008dff8c49b08eb09072146c1
S34508002ac0786802f061fe58f809007968461a332e00db3226002e00d500262146304680b202f067fe36b20020494605eb450292005158b1f5803f00d10920214602f0eefe2d
S34508002b00680400f1d040494605eb450201eb8201496800eb4100dff8e01c0860002723e0dff8d40c006830f9170080b201464ff6f072914213dadff8081405eb850201eb0e
S34508002b40c208b8f81a10401a02f028fad8f81c1002f04cfa02f0b6fab8f81a100818214680b202f026fe7f1cffb2b742d8db05eb450009eb80077868301878600020bde849
S34508002b80f28338b504460d46284602f001ff082808db234600224ff47a71284602f045ff002032bddff8981300eb800201ebc2042946e06902f0d0fd2946608b02f0f9fdcf
S34508002bc0002032bd38b504460d46284602f0e0fe082808db234600224ff47a71284602f024ff002032bdd64900eb800201ebc2042946e08902f0ddfd2946a08902f0d9fd50
S34508002c00002032bd38b504460d46284602f0c0fe082808db234600224ff47a71284602f004ff002032bdc64900eb800201ebc2042946a08802f0bdfd2946a08a02f0b9fddf
S34508002c402946e08a02f0b5fd2946207c02f046fe2946607c02f042fe002032bd38b505460c46204602f0a0fe0146042908db2b4600224ff47a71204602f0d7fe002032bd28
S34508002c800020002905d002290ed009d303290fd014e0dff8e81c0968c9070fd501200de0dff8d81c096809e0dff8d01c096805e0dff8c81c0968090700d50120214602f02d
S34508002cc00dfe002032bd10b50c4694f82110002902d11220fff797fb94f82110012902d12620fff790fb214602f036fd002010bd10b50c4694f82110002902d11620fff72c
S34508002d0082fb94f82110012902d12a20fff77bfb214602f021fd002010bd10b50c4694f82110002902d11e20fff76dfb94f82110012902d13220fff766fb214602f00cfd03
S34508002d40002010bd10b50c4694f82110002902d11a20fff758fb94f82110012902d12e20fff751fb214602f0f7fc002010bd10b50c4694f82110002902d12220fff743fb3c
S34508002d8094f82110012902d13620fff73cfb214602f0e2fc002010bd38b504460d46284602f0f6fd082808db234600224ff47a71284602f03afe002032bddff86c1c34229f
S34508002dc002fb001000f114042946a07d02f086fd2946206980b202f0ecfc2946206880b202f0e7fc2946607f02f078fd002032bd70b504460d46284602f0cafd082808dbec
S34508002e00234600224ff47a71284602f00efe002070bddff8141c342202fb0014261d2946306880b202f0c5fc2946b08a02f0c1fc2946b08c02f0bdfc2946308d02f0b9fcf4
S34508002e402e342946207802f049fd2946607802f045fd2946a078401cc0b202f03ffd002070bd38b504460d46284602f091fd082808db234600224ff47a71284602f0d5fde2
S34508002e80002032bddff8d01c00eb400201eb42042946208802f08dfc2946608802f089fc2946207902f01afd2946607902f016fd002032bd0c38004038b505460c46204692
S34508002ec002f072fd010001d0062908db2b4600224ff47a71204602f0a8fd002032bd491ec9b20020002905d1dff8702c1268120500d50120012905d1dff8602c1268520682
S34508002f0000d50120022905d1dff8502c1268920500d50120032905d1dff8402c1268520500d50120042905d1dff8081d0968490700d50120214602f0d1fc002032bd00003b
S34508002f409c0c0020100c014070b504460d46284602f02afd060001d0062e08db234600224ff47a71284602f060fd002070bd761e3046c0b201f0e2f8294602f0affcdff8fa
S34508002f80480df6b200eb8601887800228a70294602f0a4fc002070bd38b504460d46284602f002fd002801d0062808db234600224ff47a71284602f038fd002032bd29466b
S34508002fc0dff8042d401ec0b212f8200002f086fc002032bd38b504460d46284602f0d8fcb0f5007f08db234600224ff47a71284602f01bfd002032bdfff723f9294602f0c6
S345080030006dfc002032bd80b503460846dff840140988002905d00022dff83414098802f004fd002002bd70b504460d46284602f0bbfc234908700a2801db0920087001264d
S3450800304005e0284602f0b0fc1d497054761c08460078f6b2b042f4d2fff712fa002806d02346002240f23661284602f0defc002070bd70b504460d46284602f095fc1d497b
S3450800308008700c2801db0b200870012605e0284602f08afc17497054761c08460078f6b2b042f4d2fff7caf9002806d02346002240f23661284602f0b8fc002070bd00009d
S345080030c00c0000204ff0ff30dff88c130a6949698a420ed0dff880134a69dff88403105c521c4a61b2f5403f03db0021dff8682351617047000000200021dff85c23926862
S34508003100521cb2f5803f00d30a46d34bdb689a4206d0d14b9a60dff8502d9b68985401e040f22c61084670472de9f84304460020ca4908800546c84e3061706107460a20e9
S3450800314001f0e2ff30697169884200d00127012f72d14ff0090921e0fff7b4ff804630697169884201d04445f6d1012001f0ccff7f1e444502d03fb2012ff0daa9f1010944
S345080031805ffa89f9b9f1000f04d13fb2002f01d140f23165444501d14ff00009b9f1000f06d02046fff7a8ff32274ff0ff38e0e7642001f0a9ff0020306170610a2001f059
S345080031c0a3ff30697169884203d0002d01d140f23265002d30d04ff4fa6001f095ff2046fff78aff32274ff0ff380ce0fff76aff804630697169884201d04445f6d10120b4
S3450800320001f082ff7f1e444502d03fb2012ff0da444500d10025642001f076ff0020306170610a2001f070ff30697169884203d0002d01d140f232652846bde8f2832de940
S34508003240f14f82b00c46204602f0aefb050001d0652d09db9df8083000224ff47a71204602f0e3fb002071e0204602f09dfb8df80000fff759ff060008d09df808300022db
S345080032803146204602f0d1fb00205fe0012d5cd071480021016141616d1eedb2002d4bd0204602f081fb07466d1e00264ff0050805e0002e03d09df80000fff735ff5ffa40
S345080032c088f8b8f1000fe8d0a8f101084ff0090926e0614801694069814202d0fff7f2fe8246012001f010ffabf1010b574504d00ffa8bfbbbf1010febdaa9f101095ffa92
S3450800330089f9b9f1000f06d10ffa8bfbbbf1000f01d140f23166574502d14ff00009c846b9f1000fc5d03846fff7e6fe06464ff0320b4ff0000ad9e7002e06d09df808307b
S3450800334000223146204602f070fb0020bde8fe8f2de9f84304460d46284602f019fb060001d0652e06db234600224ff47a71284602f05bfb0027b84603e040f22c6708f1af
S3450800338001081ffa88f8b04519da002f17d132488068401cb0f5803f00d300202e49c9688842ead02c498860dff8bc0a896801eb0009284602f0f8fa89f80000dfe7002f75
S345080033c005d0234600223946284602f02efb0020bde8f2832de9f84304460d46284602f0c2fa0646b6f5613f1cd8284602f0dcfa0746f81f022815d2284602f0d5fa8046e8
S34508003400b8f1000f0ed0b8f1030f0bda284602f0cbfa8146b9f1030f04da284602f0c4fa042808db234600224ff47a71284602f0fcfa00200ae008490e600f7181f805803f
S3450800344081f80690c87101f0cffb0020bde8f283d816002002000300c4150020f6150020000012682de9f04782460c46204602f08ffa0546082d17da204602f089fa8146f5
S34508003480b9f1000f10d0b9f57a7f0ddc204602f07ffa0746204602f07bfa8046204602f083fa0646042e08db534600224ff47a71204602f0bafa002066e04ff08040002173
S345080034c001808181012000f02bfedff8400a05eb850100ebc100a0f80490474511d10122202194f8210002f0acf9dff8200a05eb850100ebc100002181824ff6ff71c1823d
S345080035001ae0b84511d20222202194f8210002f098f9dff8f80905eb850100ebc100002181824ff6ff71c18206e0dff8e00900ebc1008782a0f81680dff8d00905eb850149
S3450800354000ebc100067494f82110017601890022c08a884201da022209e0dff8b00905eb850300ebc300808a814200da0122dff89c0905eb850100ebc10042744ff0804068
S345080035800121018081810020bde8f0871008014070b504460d46284602f006fa0646042e04da284602f000fa022808db234600224ff47a71284602f038fa002070bd01281d
S345080035c01bd1002e05d0022e0dd007d3032e0fd02ee00120dff83819086029e00420dff83019086024e00220dff8241908601fe00820dff81c1908601ae0002e05d0022ef9
S345080036000dd007d3032e0fd012e00120dff8001948600de00420dff8f818486008e00220dff8ec18486003e00820dff8e4184860002070bd70b504460d46284602f0a8f947
S345080036400646082e08db234600224ff47a71284602f0ebf9002070bd284602f07ef80446284602f095f9dff8a41806eb860201ebc201cc614883002070bd0000d814002073
S34508003680f8b506460f46384602f082f90446082c0ada384602f07cf90546dff87808401943f69921884208d3334600224ff47a71384602f0baf90020f2bd384602f068f95d
S345080036c00646dff8480804eb840100ebc107fd8129462046c0b2fef7f5febe81314609b22046c0b2fef707ff0020f2bdb012002070b504460d46284602f04af90646082e99
S3450800370008db234600224ff47a71284602f08df9002070bd4ff0804400202080a081012000f0fefc1b4806eb460100eb81000021016041600121017208462080a0810020cf
S3450800374070bd0000b812002038b504460d46284602f01ef9082808db234600224ff47a71284602f062f9002032bd00eb400188000849002243181a7244582946204602f01c
S3450800378003f829463220b4fbf0f0401c01f0fcff002032bdd814002070b504460d46284601f0dbffdff8701702f004fd04d3dff86c1702f011fd08d8234600224ff47a7137
S345080037c0284602f032f9002070bd95f82110002900d11226012900d12626314689b2fef7a4fe002806d02346002240f23661284602f01bf9002070bd5416002070b5044657
S345080038000d46284601f0a9ffdff80c1702f0d2fc04d3dff8081702f0dffc08d8234600224ff47a71284602f000f9002070bd95f82110002900d11626012900d12a263146d7
S3450800384089b2fef772fe002806d02346002240f23661284602f0e9f8002070bd70b504460d46284601f079ffdff8ac1602f0a2fc04d3dff8a81602f0affc08d82346002284
S345080038804ff47a71284602f0d0f8002070bd95f82110002900d11e26012900d13226314689b2fef742fe002806d02346002240f23661284602f0b9f8002070bd70b5044602
S345080038c00d46284601f049ffdff84c1602f072fc04d3dff8481602f07ffc08d8234600224ff47a71284602f0a0f8002070bd95f82110002900d11a26012900d12e26314612
S3450800390089b2fef712fe002806d02346002240f23661284602f089f8002070bd70b504460d46284601f019ffdff8f41502f054fc04d94ff07c5102f03dfc08d223460022e5
S345080039404ff47a71284602f070f8002070bd95f82110002900d12226012900d13626314689b2fef7e2fd002806d02346002240f23661284602f059f8002070bd0810014070
S34508003980f8b506460f46384602f002f80446082c05da384602f008f80546022d08db334600224ff47a71384602f03ff80020f2bd012d10d1192001f0a7fb4ff080460020d8
S345080039c03080b081012000f0abfb204601f0bbf801203080b081dff84c05342101fb040080f82a500020f2bd70b504460d46284601f0ceff0646082e04da284601f0d4ff57
S34508003a00032808db234600224ff47a71284602f00cf8002070bddff80c15342202fb061181f82f00002070bdfc0a00202de9f84f04460d46284601f0abff0646082e35daef
S34508003a40284601f0a5ff070030d041f2893087422cda284601f09cff8046b8f1000f25d041f28930804521da284601f09dff8146b9f1000f1ad0b9f1fb0f17da284601f0f1
S34508003a8087ff8246baf1000f10d0baf57a7f0ddc284601f089ff8346bbf1030f06da284601f082ff002801d0062808db234600224ff47a71284601f0b8ff00204ae000210d
S34508003ac0dff86024342303fb06225268ba4211d1dff8502403fb0622121db2f91420424508d1dff8402403fb0622121db2f924204a4500d00121dff82c2403fb0622131dec
S34508003b001f60a3f81480a3f82490a3f828a02e3282f800b0401e907095f82120dff80834c0b2c0ebc00403eb44004273012910d1192001f0e9fa4ff0804400202080a0818a
S34508003b40012000f0edfa304600f0fdff01202080a0810020bde8f28f001600200c1c01402de9f84381460c46204601f011ff0546082d0eda204601f00bff0746204601f0d8
S34508003b8007ff8046204601f00fff060001d0062e08db4b4600224ff47a71204601f045ff002044e0b84510d10122212194f8210001f047fedd4805eb450100eb41004ff626
S34508003bc0ff710180002141801ae0474510d20222212194f8210001f034fed44805eb450100eb41004ff6ff7101800021418007e0ce4805eb450100eb41000780a0f80280b0
S34508003c00711eca4805eb450200eb4200017194f82120c54bc9b2c1ebc10403eb44014a73002141710a46007900f0b4fa0020bde8f28300000c140140f8b506460f463846a5
S34508003c4001f0a6fe0446082c07da384601f0a0fe05464ff6f270854208da334600224ff47a71384601f0e1fe0020f2bdb04804eb440100eb8100007a012822d14ff0804087
S34508003c80002101808181012000f04afaa84804eb440189000858b0f5803f0dd204eb44008000a349425802eb0442520002f1d04215804258521c42504ff080400121018019
S34508003cc081810020f2bd0000e015002070b504460d46284601f068fe060006d0062e04da284601f061fe022808db234600224ff47a71284601f099fe002070bd95f82110d6
S34508003d00894ac6ebc60302eb430202f8011c00220146701ec0b200f03dfa002070bdf8b504460d46284601f03ffe060007d0062e05da284601f038fe0746042f08db2346cb
S34508003d4000224ff47a71284601f06ffe0020f2bd784800eb8600041f701ec0b200f0eef96070277095f82100e0700020f2bd70b504460d46284601f00bfe42f20f71884243
S34508003d8006d1284601f004fe0646b6f5007f08db234600224ff47a71284601f046fe002070bd284601f000fe01463046fef78dfa002070bd70b505460e46304601f0e8fdc8
S34508003dc00446082c0fda304601f0e2fd7d2813d0fa2811d0b0f5fa7f0ed0b0f57a7f0bd0b0f5fa6f08d02b4600224ff47a71304601f01bfe002070bd7d280bd0fa2811d011
S34508003e00b0f5fa7f16d0b0f57a7f1bd0b0f5fa6f20d026e010203d4904eb840201ebc20108841ee00820394904eb840201ebc201088416e00420354904eb840201ebc20169
S34508003e4008840ee00220314904eb840201ebc201088406e001202d4904eb840201ebc2010884002070bd000000001568f0b489b201ebd172521019e020f814602c466500ab
S34508003e806d1cadb28d420fda6e1c8e4208da30f8156000eb45077f88be4201d26d1cadb230f81560b342e7db20f8143092b2002a04d0521e92b230f812300ae0491e89b2e6
S34508003ec0002901d1f0bc704730f81130048820f81140144655006d1cadb2d3e738b50ff27004154d002000904ff496732a46214601f009fa002000904ff4967305f596721e
S34508003f002146012001f0fff931bd00009c0c00201010014078ecffff000020c10100204101000040fc0a00203815002000160020d8140020e0150020a408002010b5044640
S34508003f4004f001016008c0b201f07afbf8e700000a010000073000082001090065340008210108003536000825010400393c00082601ffff27300008270106008136000854
S34508003f8028010200f13600082901020049370008300102009135000831010400b53d0008400103008139000841010300e939000842010b002d3a000850010400fd370008f1
S34508003fc0510104005d38000852010400bd3800085501040099370008560104001d39000857010700613b000860010200cd3c0008620102001f3d000864010800d5330008c4
S345080040006501ffff513300086701ffff3f3200089001ffff73300008920105006f3d000822010200832b00082a010200052c00082b010200692900087001030099290008d6
S345080040402c010600612a00082d010200272900082e010000372700082f010200c52b0008380101005d2c000839010200a928000858010000f12c0008590100001b2d00081d
S345080040805a010000452d00085d010000c72c00085e0100006f2d00085f010200632e000848010200992d000849010200f12d000868010100b92e000869010100492f0008f7
S345080040c06a010100992f00086b0104009f2700086c01000077280008980100006b2700089a010200d52f0008fa000100cb600008fb00010051600008fc000100fd5f000804
S34508004100fd00fffff55b0008fe0001004d5f0008ff0001006b5e00080000ffff575e000806225043401e00221100814205d2b1f1805f00d1491c491cf7e7704701460020e1
S34508004140042926d8dfe801f0030a11181f00dff8741b096849061cd501207047dff8641b0968090615d501207047dff8581b0968c9050ed501207047dff8481b09688905f5
S3450800418007d501207047dff81c1c0968090700d50120704710b40129dff80c1cc0ebc0034dd15b00595c002926d10121dff8f83bc0ebc0046400e154002a03d0022a13d017
S345080041c009d319e01946c0ebc00201eb42014a78521c4a7010e01946c0ebc00201eb42014a79521c4a7107e01946c0ebc00201eb42014a7a521c4a7204286dd8dfe800f028
S3450800420003090e141a004ff40060dff8a01b086062e04020dff8941b08605de04ff40070dff8881b086057e04ff48060dff87c1b086051e00420dff8781b08604ce05b004b
S34508004240595c012926d10021dff85c3bc0ebc0046400e154002a03d0022a13d009d319e01946c0ebc00201eb42018a78521c8a7010e01946c0ebc00201eb42018a79521c21
S345080042808a7107e01946c0ebc00201eb42018a7a521c8a7204281fd8dfe800f003090e141a004ff40060dff8041b486014e04020dff8f81a48600fe04ff40070dff8ec1ade
S345080042c0486009e04ff48060dff8e01a486003e00420dff8dc1a486010bc704710b4dff8681c09880f22114204d040f22d61dff8c42a5186dff8501c09883022114223d0b4
S34508004300dff8440c8188dff8ac0a0069401cb0f5403f00db0020dff89c2a5269904204d140f22c62dff88c3a5a86dff8882a528e002a0cd1dff87c2adff8103c1469e3180a
S3450800434093631970106102e0dff8fc1b8988dff8641ac97902290edb6430b0f5403f01dba0f54030dff84c1a4969884203d10220dff8dc1b0860dff8d00b01884ff6fd7246
S345080043801140018010bc70472de9f843dff8c40b01884ff6fe72114001801020dff8b81b8860dff8b80b0588dff8087ab7f930102820dff8ac2b00fb0120416a6918416280
S345080043c0418c491c4184008c89b28142c0f02783b7f93010282000fb012000214184416a028cb1fbf2f100224262428b891ab0f90c20891ac289514342f2107291fbf2f120
S34508004400408b45184ff6f070854201db4ff6ef75002d00d50025b7f93010dff8480b0a5c521c0a54d2b2092a06d10020dff8341b3a46b2f930205054b7f93010dff8240bf9
S3450800444001ebc10200eb4202085c02eb400005812820dff80c2b00fb012002688368d21aaa180260b0f90430b2fbf3f28260dff8f80a01eb41025100085a4ff6ff718842d7
S345080044803dd0b7f93010dff8e00a01eb41025200105adff8cc2a01eb810302ebc3018968884212da0626dff8c08a01221146b7f9300006fb00800079fff76cfeb7f93000cf
S345080044c006fb00800121417119e0dff89c0a3946b1f9301001eb410200eb4200407901280dd101220021dff8800a3b46b3f9303003eb430600eb46000079fff74bfedff835
S34508004500680a3946b1f9301001eb410200eb4200408800283bd00846dff8441a00eb800201ebc2018968dff8402a00eb400302eb43004088814211da06269046012211461a
S34508004540b7f9300006fb00800079fff723feb7f9300006fb00800221417118e010463946b1f9301001eb410200eb4200407902280dd101220021dff8f0093b46b3f9303091
S3450800458003eb430600eb46000079fff703fedff8dc093946b1f9301001eb410200eb8200007a012827d1dff8c40991000858b0f5803f20d22e46304680b24ff6f071884242
S345080045c001db4ff6ef76b7f93000dff8a0190c2202fb00131b6803eb0040400000f1d043dff88009983043601e80b7f9300050434258521c4250b7f930104ff0340808fba0
S3450800460001f0dff86c9950f80910491c40f80910b1f5005f08db002049463a46b2f93020434603fb02110860b7f93010dff8440908fb0192126802eb413100eb4101dff8ed
S345080046402409983001600d80b7f9300008fb009090f82a00012840f06981b7f9302008fb029707f108018869281888614869401c4861b0f5005f0adb4846dff83817b1f92d
S345080046803010424602fb0100083000214161dff82477b7f9302008fb029707f10801dff8d4084b6903eb423200eb4202dff8b4089830026088691288801a8861b1f920206f
S345080046c090fbf2f0c8610868401c0860b0f5005f09db00204946dff8dc26b2f93020434603fb02118860dff8cc76b7f9302008fb029707f10801dff87c080b6803eb42320f
S3450800470000eb4202dff85c089830026088681288101888604868401c4860b0f5005f0adb4846dff89016b1f93010424602fb0100083000214160dff87c76b7f9302008fb5f
S34508004740029707f10801dff82c084b6803eb423200eb4202dff80c089830026088681288801a8860b1f9102090fbf2f0c86007f12a004079022840f0a580dff83876b7f923
S34508004780302008fb029707f10801c869c968461a304601f033fd07f12a01b1f9021088421eda4846dff80c16b1f93010424602fb01002a30c079002812d0dff8f875022208
S345080047c00021b7f9300008fb00902a308079fff7e1fcb7f9300008fb0090002180f83110002e4846dff8cc15b1f93010424602fb0100b0f92c0032d48642c0f297804846c6
S34508004800dff8b015b1f9301002fb01002c30807800280ad04846dff89c15b1f9301002fb01002c30807802280dd1022201214846dff88035b3f93030454605fb03002c30e0
S345080048400079fff7a7fc02204946dff86825b2f93020434603fb021181f8310066e04042b04263db4846dff84c15b1f9301002fb01002c30807801280ad04846dff8341519
S34508004880b1f9301002fb01002c30807802280dd1022201214846dff81c35b3f93030454605fb03002c300079fff774fc01204946dff80025b2f93020434603fb021181f81b
S345080048c0310033e04846dff8ec14b1f93010424602fb01002a30407900280dd1002211464846dff8d034b3f93030454605fb03002a308079fff74efc4846dff8b814b1f98e
S345080049003010424602fb010090f82f0001280dd1002201214846dff89c34b3f93030454605fb03002f304078fff734fcdff83006dff88014b1f9301001eb810200ebc20017
S34508004940007c002867d000262820dff86874dff8102600fb0120c18a8068814200da02262820b7f9301000fb01208168808a814200da012610463946b1f9301001eb8102d3
S3450800498000ebc200007c012806d0dff8d40500ebc200007c03280dd1012e0bdbdff8c00500ebc200407c002804d1dff8b40500ebc2008674dff8a8053946b1f9301001ebb8
S345080049c0810200ebc200007c022806d0dff8900500ebc200007c032813d1002e11d1dff880053946b1f9301000ebc200407c002807d02820dff8682500fb0120417c891cf2
S34508004a008174dff85c053946b1f9301001eb810200ebc20046740120fff782fb02e00520fff77efbdff88c73f868b968884226d0dff814050088000621d5dff81c05006807
S34508004a40c00707d43846c079002803d03846c079022814d1f868401cf860b0f5803f02db00203946c860dff81005f9680918dff8f404983081600878dff8cc148880388e07
S34508004a80401c388600b2082802db0020394608863846b0f9300007281cd8dfe800f004070a0d101316194ff4444413e04ff4144410e04ff454440de04ff424440ae04ff454
S34508004ac0644407e04ff4344404e04ff4744401e04ff404441020dff88014c8600120fff71ffbdff878040480bde8f183002027e0dff86c1400eb800201ebc20104220a84e1
S34508004b0001228a8000220a608a8142f21072ca8100228a824ff6ff72ca824ff07e52ca6147f6ff724a830721dff8882211860021dff8382400eb400302eb83021172401caa
S34508004b400828d5db704770b40022114618e0dff82034342404fb00331c68dff8185404eb403635f81650aa18641e1c6007d541f6ff73dff8fc43342505fb00442360491ca7
S34508004b800a29e4db0a21b2fbf1f1dff8e423342303fb00235a68b3f91840a21841f6ff745d68651b9d6092b2a21ada60b3f92820a21ada6189b2b3f918204a431a61b3f981
S34508004bc028204a431a62596159621c60dff8a42302eb8030002202e020f8021b521cb2f5005ff9db70bc704730b4dff8900300218180dff88c130a686423dff88843b4fb96
S34508004c00f2f45c432409dff88053b5fbf2f21d46b4fbf5f503fb15431b016424b3fbf4f303eb02120280087907280fd108468079022805d1dff84403818841f400718180c2
S34508004c40dff83803818841f480618180dff830030079082819d1dff828038079002814d0dff81c038079022805d1dff81003818841f400718180dff80403818841f48061ca
S34508004c808180818841f4805181800220dff8fc120860dff8e802818841f004018180818841f008018180818841f020018180818841f4005181800020dff8c412488630bcae
S34508004cc0704700000820014038b50446fff736fa0546ab4800eb8400007f002838d0a84800eb8400007f012805d0a54800eb8400007f032810d1012d0ed1a14800eb8400a5
S34508004d00407f002808d104f2e93264219c4800eb8400c07f00f095fd994800eb8400007f022805d0964800eb8400007f03280fd1002d0dd1924800eb8400407f012807d142
S34508004d40621c64218e4800eb8400c07f00f079fd8b4800eb8400407fa84205d0884800eb8400817f491c8177854800eb8400457731bd7b4900eb800201ebc201897c0029e8
S34508004d8000d1704710b5764901ebc2044ff47a71a27c01fb0022c821207e00f052fd0020a07410bd0814014038150020101c014010140140c415002010b54ff4fa7000f0ff
S34508004dc0a3f94ff480507349086000f0cbf900f0d5f900f0dff900f0eaf900f0f4f900f0fdf900f006fa00f00ffa00f02afa00f036fa63494ff41650086008200871012066
S34508004e0048710020c880fff7effefff76ffe00201ce05b4901eb800100220a774a778a77ca775b49c0ebc00201eb420100220a704a708a70ca700a714a728a72ca720a7374
S34508004e404a718a71ca710a724a73401c0528e0dbfdf7d7fafdf74ffcfdf736fcfdf775fa0020414a09e000eb400149004ff6ff738b52002389184b80401c0828f3db4ff064
S34508004e808040012101808181192000f03df9002416e03748342101fb0400011d32220a604ff4fa728a8205228a8419220a852e3001210170022141702046fff744fe641cb9
S34508004ec0082ce6db012000f01ff92d49888e401c888600b2fb2801db002088860846b0f93400002803d14ff400402b4948602448b0f934000a2803d14ff400402649086042
S34508004f001f48b0f934001e2803d14ff48040224948601b48b0f93400282803d14ff480401d490860002404e02046c0b2fff7ccfe641c052cf8db0024082cc3da2046c0b2c9
S34508004f40fff717ff641cf7e700440040000012681408014010000040080801400c3001409c0c0020b012002000160020d8140020fc0a0020000010680000156808440040ad
S34508004f80c415002000512502105522001008014038150020100c014010200140002840f10780f446404200f003f850f0004060470ad0b0fa80f18840d1f19d01c9050206b6
S34508004fc072f1004241eb1020704750f8041b61b150f8042bd30744bfa9f101039a180023091f42f8043bfad1efe77047ff2212ead05c1dbf12ead153944593422be09c44d4
S34508005000d30780ea01021a4043ea002043ea0121a1fb0030410038bf40007cf17f010bdbfe294ada5b0842eac15153ea006373f1004c51eb10207047d1f1080cdcf12001eb
S345080050402fdb5b0810fa01f10b4373f1004120fa0cf05041704794451cbf02ead153934280ea010202f000421dd0400019d0490017d05bb9634514d00902b1fa81f3994045
S34508005080bceb030cc00140f00040c1e70002b0fa80fc10fa0cf0b3eb0c0cc90141f00041b6e71000704740000ad0490008d010f1807f94bf11f1807f02e042f0ff40704736
S345080050c0d04370474100090e7f3915d4d1f11f0114d4400007d2c00140f00040c84048bf6ff000407047c00140f00040c8404cbf4ff00040404270470020704700424ff012
S34508005100004058bfc043704710b513490c68002c03d012490968002901d013201ae0002801d1002016e0eff3108172b6042222630122a2630022c4f88420e06408480068cd
S34508005140401c074a106081f31088200001f05af8d4f8840010bd00bf6016002018000020781600204648474901604ff0443141600021c160016141618161704742484ff0c1
S3450800518044310160414941600021c16001614161816170473e483f4901603f49416040f60f01c160002101614161816170473b483b4901604ff0bb3141600021c16001616c
S345080051c041618161704737484ff0bb31016041600021c1600161416181617047324833490160334941600021c1600161416181617047304830490160304941600021c160da
S3450800520001614161816170474ff080400021018081800181818101828182018381830184818411210185fa2181850021818601878187234900220a800a818a810121018023
S345080052407047204840f62c01018004218180002101818181018240f66c01018070471a483c2101800421818000210181818101827c210180704715480068c0b2400970475a
S34508005280000801401449b3b4000c0140a444b2b400100140222244444424444400140140bb42bb4400180140001c0140bbbbbb422422bbbb00200140bbbbbb44444b44222a
S345080052c0400000400030014000380040080c0140002010e0dff8201dc0eb001201eb8201091d00228a750a624a620a6042104a7700220a77401c0428ecdb0020dff8481d68
S34508005300088001f023b82de9f04704460d4616461f4601f089f980464fea44095ffa89f92ae0daf804008019caf800000020caf824000420caf828000020caf82c00caf8a7
S345080053403000caf834008af81d00dff8000dc9ebc90100eb81003030caf838000022b7a101f02efa00208af81f00ff208af81e0009f101095ffa89f96000801c81453bda69
S34508005380dff8740cc9eb091100eb810a00208af81c008af81b008af8180008f01f0008f0200140ea012009f0010140ea811009f0060140eac11009f0080140ea810009f07d
S345080053c0300140eac11000f5c070aaf80c00ff208af81900a0208af81a00caf808507808caf80400b9eb440fdff80c0cc9eb091197d189000e5099e7dff8505c0022d4a18d
S34508005400c4ebc40005eb8000bc3001f0d9f90122d0a105f1a00001f0d3f904eb440005ebc000002101704170ff218170bde8f0878a6a0b68d054501c4a68904200d3002024
S345080054404a6a904203d10022114604206ce38862486b401c4863704710b4ca6a002308e00c681055000a521c4c68a24200d300225b1c042bf4d310bc704710b50446214636
S34508005480606bfff7e9ff00206063a06ae062a06a002100e0491c04290dd2401c6268904200d30020626a9042f4d1002211460420bde8104038e3a06210bd416a026b51183f
S345080054c04268914200d3891a416200210163704780b5c20902f00f02d31e082b1fd2c01000f00c0000eb6300d20707d50246d2b20021092000f018fbff2002bd00220a7052
S34508005500020702d5083801220a70c0b202281ddb02460021052000f007fbff2002bd0c2a01d1ff2002bd012a0ad14ff4fa70fff7ebfd00221146092000f0f6faff2002bdd7
S3450800554000221146052000f0effaff2002bd806800e0083002788a4201d0002af9d1704730b585b000a800f0e2ff10f1010f60d0bdf80000002812d19df8020002285bd185
S345080055809df80400812857d101f04ef89df80510814251d1c046c04601f068f94ce003a9fff796ff0246dff8d80b9df80c1001eb4201c1eb011300eb8304ff2a3cd09df80e
S345080055c00200002838d09df8040000f00f00617e884231d09df8040000f00f006076207f002808d19df80400000604d40021012000f09afa20e0012506e0214600a8281883
S345080056000079fff715ff6d1c9df80200edb28542f3d39df80400400608d5002020772046fff72bffa06b01f003fa05e01020207702e00120fff768fd05b030bd616100002d
S3450800564038b50446dff8380b01eb4401c1eb011200eb82054ff0ff31a86b01f01ffaa87fff280ed0dff8e40904eb440100ebc10001784078814204d021462846bde8344057
S345080056800ce1284600f0a3f9284600f08df9687701462846fff75bff02465088296b884203d04ff6ff71884204d1294620465268904705e0234600221c21284600f0b5f969
S345080056c02846fff7fafe2846bde832407ce010b500240ee0dff8a80ac4eb041100eb8100807e002804d100221146112000f01cfa641c022ceedb00f043fe01f067fa00200a
S34508005700c046002820d1dff8781afe20fff790fe00f08aff00280ad1002211461a2000f003fadff85c1a0020fff782fe04e0dff8501a0120fff77cfedff8444a2046fff7bb
S345080057409cfea06b01f074f9fff70afffce7000071630000646c730016e070b582b0044600f001f90090054601f056fa022809d104f11a06f37900aa2f21204600f055f95f
S34508005780ee203070284676bd38b504460d46c0b200f0a4f82946200ac0b200f09ff82946200cc0b200f09af82946200ebde8344094e038b504460d46c0b200f08ff82946d7
S345080057c0200abde8344089e010b5044604f10e00407b00280bd104f10e001021417303210170c17bc170002101718021817004f10e00817841f040018170827a511881705a
S34508005800817a491c01f00f018172407c002804f10c000cd100f044fe10f1010f09d104f10e00c27c00210a2000f07ef901e000f017fe04f10e00002101704173a0210173d0
S3450800584010bd18b4dff8043800eb400403ebc4039c78ff2c20d05c78e4182171597803eb81018a605978491c01f003011a78914204d102460021262018bc55e15970dff810
S3450800588000199a7802eb4000c0eb001201eb8200806b12bc01f0ccb811bc704738b50446dff8a80701eb410200ebc205fb206077214628784019007900f010f8214628783d
S345080058c005eb80008068fff75fff2878401c00f0030028702046bde8324075e738b504460d4605f10e00407b00280bd105f10e0003210170c17bc1700021017110214173c3
S3450800590080218170a87b082824db05f10e008178827a51188170817a491c01f00f018172407c002805f10c000cd100f0b9fd10f1010f09d105f10e00c27c00210a2000f0fd
S34508005940f3f801e000f08cfd05f10e00012101700021817005f10e00017849190c740178491c017031bd38b5044600f01df80546204600f019f805eb0025204600f014f82a
S3450800598005eb0045204600f00ff805eb006032bd38b5044600f008f80546204600f004f805eb002080b232bd016b002901d100207047491e0163426a0168515c521c426236
S345080059c043689a4201d3002242620846704770b50446606a216b081860626168884201d3401a6062606ae16a884201d1012070bd0420206300252e4606e02046fff7d4fff5
S34508005a00000600eb1525761c042ef6db6068a84208d2e06a6062012200211b2000f084f8012070bd2563002070bdfeb507460e4614461d4600f0f8fd8030adf8000008207f
S34508005a408df80200f87e002828d10320b873787f7874dff82c07c5eb051100eb810090f82010491c80f82010c9b2002908d10120dff80c17c5eb051201eb820181f8200061
S34508005a80dff8fc06c5eb051100eb810090f82000b8741020f8768020387404e02a460021032000f041f830468df80400300a8df80500a5f180008df80600dff8c406c5eb99
S34508005ac0051100eb810090f820008df80700002c09d0042008280fda14f8011b00aa82181171401cf6e70420002103e000aa82181171401c0828f9db00a800f0d1fc10f1c5
S34508005b00010f10d100f0a4fc00a800f0c9fc00208df8040002208df8050080208df8060000a800f0bdfcf7bd70b584b006460d46144600f079fd8030adf8000008208df83a
S34508005b40020086f4004001468df80410000a8df80500a4f180008df80600002d09d0032008280fda15f8011b00aa82181171401cf6e70320002103e000aa82181171401c94
S34508005b800828f9db012001f05df8dff8bc140988082914dadff8b0140d886a1c0a8001f051f8002008280cdadff89c1401ebc501411800aa821812798a70401cf2e701f0e4
S34508005bc041f800a800f06cfc10f1010f11d100f03ffc00a800f064fc02208df8040000208df80500a4f180008df8060000a800f057fc7fbd2de9f84304460d462846006b65
S34508005c00c046062824d32846fff7cefe80462846fff7a9fe06462846fff7c6fe0746b8f1b00f08d0b8f1b30f05d0b8f1e10f02d0b8f1c00f06d14ff0000901212846c1771f
S34508005c40c04600e0b9462846006bc046484507d0234600221c212846fff7e7fe0020f8e04ff4fa61dff81c0500f018ff81461ffa89f9b9f1000f07d0234600223d212846ff
S34508005c80fff7d3fe0020e4e0b8f1000f00f0d480b8f1a20f36d0b8f1a30f62d0b8f1b00f63d0b8f1b20f51d0b8f1b30f00f09180b8f1b50f00f0b580b8f1c00f67d0b8f1c6
S34508005cc0c10f04d0b8f1c20f00f09780aee0b6f5805f63d2b819b0f5805f5fd806f1006606f5fe264ff000085ffa88f8b84522da2846fff759fedff8901408f8010008f1d3
S34508005d000108f1e74ff0000808e02846fff74cfedff8741408f8010008f101085ffa88f8b845f2dbdff8640486420cd3b819dff86014884207d2dff850243946304600f0bd
S34508005d405ffe814678e04ff00f0975e0dff83c04864202d24ff00e0903e0304600f09cfd8146002000f060fd66e029463846fff7b5fd4ff000085ffa88f8b8455cda294631
S34508005d803078fff7abfd761c08f10108f3e7b6f5805f03d2b819b0f5805f02d94ff040094ae006f1006606f5fe2629463846fff795fd4ff000085ffa88f8b8453cda304646
S34508005dc00078c0462946fff789fd761c08f10108f1e729463846fff781fd4ff000085ffa88f8b84528da30460078c0462946fff775fd761c08f10108f1e7304600f014fd92
S34508005e008146dff88863b9f1000f15d1dff88403864211d2304600f03ffd814606f50066f1e7304600f000fd814605e0234600222e212846fff7f9fdb9f1000f05d0234647
S34508005e40002249462846fff7f0fdce4800f0f0fd0020bde8f28310b50c460346002206212046fff7e2fd012010bdf8b504460d462846fff799fd06000dd129460220fff764
S34508005e802dfd29460020fff729fd29460d20fff725fd0020f2bdff2e0dd100f0d9fe044629460220fff71afd2946e06a80b2fff780fc0020f2bd072e01dab74f12e00c2e54
S34508005ec002dab64ff61f0de0132e02dab44f0c3e08e0002723463a4608212846fff7a5fd00e07f1cf6b2002e0cd0761e002438460078c0460028f4d07f1c641ca4b2332c83
S34508005f00f5db09e00024e0190078c046002809d0641ce4b2332cf6db29460020fff7defc0120f2bd29462046fff7d8fc07e038460078c0467f1c2946fff7d0fc641ee4b223
S34508005f40002cf4d10120f2bd0000000038b505460c462046fff728fd042832d8dfe800f003373721290021460020fff7b7fc21468c480068800b00f0010080f00100fff7e9
S34508005f80adfc214688480078fff7a8fc2046fff71bfc1420fff7b8f8c046c04600f066fc15e04ff400407f49c86000207e4908700de04ff400407b49886001207a490870f7
S34508005fc005e02b46002207212046fff72efd21460120fff783fc214672480068800b00f0010080f00100fff779fc21466e480078fff774fc012032bdd010002038b504464c
S345080060000d462846fff7d0fc00280ad0012813d10e48c4ebc40100eb8100bc3000f008fd10e04ff0ff310948c4ebc40200eb8200bc3000f033fd05e02346002225212846e7
S34508006040fff7f3fc012032bd80150020dc0f002070b506460c462046fff7a6fc0546ff2d08d1ff20514906eb460201ebc2018870a07720e0002d18d10020a0774048c6eb16
S34508006080061100ebc100a04207d10020474906eb460201ebc20188700de00120434906eb460201ebc201887005e03346002225212046fff7bafc21462846fff70ffc214636
S345080060c00020fff761fb012070bdf8b50c462046fff76afc0746ff2f1bd1214634480088c000c0b2fff7fafb00250ce02146304800ebc50030188078fff7f0fb761c082e99
S34508006100f4db6d1cedb22a480088854235da0026f5e7002630460ae0254901ebc001097901f00701b94200d1761c401cc0b2204909888842f0db2146f000c0b2fff7cefb29
S3450800614000250ce021461a4800ebc50030188078fff7c4fb761c082ef4db6d1cedb214480088854209da124800ebc500007900f00700b842f1d10026ede70120f2bd000045
S34508006180d01000207c100020dc0d002000f0070801000808ffff07086001000810020008602100080810014053160020dc0f0020801500204ff0807c1ceb400f94bf1ceb66
S345080061c0410f05e040ea010c5fea4c0c01d28842704718bf814270474ff0807c1ceb400f94bf1ceb410f05e040ea010c5fea4c0c01d28142704718bf88427047002848bf13
S345080062004042704710b504004848006884420ad1e06c002807d05ff0ff31884203d014f14c0000f01bfdeff3108072b640490968491e3f4a1160a16b002964d00021a16372
S34508006240e16a226aa2421ad0226a636a5362626a236a1362374a52f82120a24253d1354a236a42f82130344909688c424bd133490968304a52f821102f4a116043e02d4aa6
S34508006280002342f821302e4a1268012313fa01f1c94311402a4a11600021294a1268d3b2002b20d1120ad3b20831002b1bd1120ad3b20831002b16d1120ad3b20831002b3a
S345080062c011d11e4920220a601b4900220a6080f310881c480068164909680843002823d100f0fefc20e0184a9a5c5118134a1160114909688c4206d1104909680d4a52f849
S3450800630021100d4a116080f31088084800680a490968884208d00b480068054909680843002801d100f0dcfc10bd00bf6016002078160020d8130020641600207416002087
S345080063407016002018000020dc0e00200948416841f4605141608168074a114381604ff48a710160054843f2d10101604ff0ff3141607047141002403f400210100000a075
S3450800638080b572b61c208df8000001208df8010000208df8020001208df8030000a800f0a6fc26208df8000001208df8010000208df8020001208df8030000a800f097fc93
S345080063c062b601bd0021dff8b4030078aa2800d01a21dff8a8030079552800d01a21dff89c034078002801d0402800db1a21dff88c23d278904200d01a21dff8802392785c
S34508006400d243d2b2904200d01a21002900d0002070470021dff864030079552800d01a21dff85803c079552800d01a21dff84c034079042800db1a21dff840239279d2433a
S34508006440d2b2904200d01a21002900d000207047dff82c0301218170002101704170704710b50446dff8180341780078081ac0b215280edb1438c0b20be00120fef744fedd
S34508006480bf4841780078081ac0b2152801db1438c0b20b28f1da204600f002f8c0b210bd70b50546012000f0cdfb0446b4484078461cf6b2142e00db0026b14841780078e0
S345080064c0814209d1ae488078002805d1204600f0b9fb4ff0ff3070bda948aa49427802eb420301eb83016a684a60aa688a60aa788a702a880a8046704178c1f114010278a0
S345080065005618807800280cd000209d4988709e48c16841f00101c1600068400101d500f0b6f8204600f08efbf6b2304670bd10b593494979002902d04ff0ff3010bd9049c9
S34508006540c978924a01eb410302eb8302138803809378837053684360926882604c1ce4b20b2c00db0024012000f06cfb844909798c42834906d101224a71cc7000f062fb25
S34508006580002010bdcc7000f05dfb012010bd80b57f4a4ff40073d360136823f0f003303313607c4a136823f4c04303f580431360734a002313705370012393700023d370f4
S345080065c013710123537191711a46734b1a601a465268d207fbd51a460ff2d41353f82000d061106840f004001060106840084000106010464068c007fbd4084600f07df80d
S34508006600022065494861624a106820f0f000b030106001bd5e484ff40071c160016821f0f00130310160704755488079704710b453480079401cc0b20b2800db0020504988
S345080066400a79c9788a4207d14d494979002903d120205249086018e049494c4a0b7903eb430402eb84024e4b1c68640d14805c6804f00f0494709c685460db68936020229f
S34508006680464b1a6000224a71087110bc70473c488078002809d03c48c16849084900c160016841f001010160704735490878354900eb400201eb82013a4a4b6893608b681a
S345080066c0d3608b78536009884905491c1160421cd2b2142a00db002229484078824209d12749012088702848c3685b085b00c3600a7070472248027070472b4901220a6040
S345080067004a604a68520852004a600022ca604a61400100f178700864244848640120c86110460860704781b0174a126802f0e052b2f1e05ff8d11b4a000600f500001530c5
S345080067409060d160082050600d488079400500f18050401c10600c48006800f0e050b0f1e05ff8d10020009002e00098401c00900098b0f57a6ff8d301b07047f0ff0020ef
S345080067804c160020c01100200864004054130020040c014004000140006400400c640040b065004080650040006600400000e0ff02001801050018010b00180117001801af
S345080067c070b504000d0016001c220021200000f0c7fa6560a660eff3108072b60f4921600f49096800290bd00d49096889690c4a126894614c61a16109490968616103e06f
S3450800680007490c606461a46106490968491c054a116080f31088002070bd00bf414d45538016002084160020002807d100206749886080206649c8600020704765494840f6
S3450800684062498860644948406449884209d160485e4989680160624901600021c160084670470020594988602c20704780b55d484ff0ff31016041605b4801604160fff76a
S34508006880c9fe5a485a490860002000e0401c6428fcd35848086001bd4c498968002901d127207047544902224a608860486840f04000486051480146481e002903d04e4966
S345080068c00968c907f7d4002801d10b207047002070473e48ff2101704170002141600846704710b4454a0123434c6360018013465a1e002b03d023461b68db07f7d4002a60
S3450800690001d1192005e00846814201d1002000e0282010bc704780b52c484068002808d02a480178427802eb012189b24068fff7d8ff002002bd70b504460d4600202349c9
S345080069408968002901d1272070bd2049496800290dd1610849001d4e7160ff2272703270a142314601d14d7070bd0d7070bd08466108b0eb410f13d114484068a04213486e
S3450800698001d1457000e0057006463078717801eb002189b27068fff7a4ff0021716070bd0a4e3078717801eb002189b27068fff798ffff2272703270610849007160a14297
S345080069c0314601d14d7070bd0d7070bd401600200420024055af23505231c2ab7130a5eeab89efcd80e100e080e200e00400fa050ced00e00100fa050c20024040420f00e7
S34508006a00f8b504460d461646fff763ff002701e0641c7f1cbfb2af4206d2b95d2046fff78aff0028f4d0f2bdfff775ff0020f2bd80b50100eff3108272b6c868002806d11d
S34508006a408868401c886082f31088002023e0036f984202d10023cb600be0036fcb60036fd0f874c0c3f874c0436fd0f870c0c3f870c00b695b1e0b6100218166064909689c
S34508006a80491c054b196082f310880021c0f8841000f070f9002002bd7816002010b5eff3108272b68368002b06d08168491e816082f3108800202fe000292ad0174b1c6877
S34508006ac0174ba366e066c368002b0ad0c3682367c3685b6f6367c3685b6f1c67c3685c6702e0c4602467646703695b1c0361062020630120a063e1640a480068401c0949b0
S34508006b00086082f310882000fff77cfbd4f8840002e082f310880d2010bd00bf60160020e57800087816002080b572b6244825490860fff76ffd012000f0b2f9212000f0b6
S34508006b40e1f90028fad0002000f0b8f94ff4803000f08cf9312000f0d5f90028fad04ff480114ff4803000f09ef9012000f0a3f9392000f0c7f90028fad04ff4404000f068
S34508006b80baf9002000f0aff94ff4806000f0a4f9002000f09af9022000f0d0f9002000f0d5f9102000f0dcf9022000f087f9064840f2fd1101604ff09051416001bd00005b
S34508006bc00020000808ed00e01810024080b572b64ff4407000f086f814208df8000001208df8010000208df8020001208df8030000a800f07cf813208df8000001208df848
S34508006c00010000208df8020001208df8030000a800f06df862b601bdc0f3c751ff290ad011b14ff0ff307047400202d06ff00100704700207047400201d00220704701205f
S34508006c4070470000eff3108180f310880846704701480068704700bf60160020eff3108172b60268002a30d002685ff0ff339a422bd08269002a28d10268212a01d31f2246
S34508006c8001e00268521e134b1b6813eb8202124b1b689a4207d3104b1b68d21a92100f4b1b6813eb82021368002b0ad01368036113685b69436143691861136858618261c9
S34508006cc003e0006140618261106081f310880020704700bfc4160020c0160020bc16002000df70471949084319490860704730b4c17800291fd01649096801f4e061c1f515
S34508006d00e061090a4278c1f104039a4083780f242546cd4005ea0301114309010d4a037899540078012100f01f0291400a4a401142f8201008e00078012100f01f029140ff
S34508006d40064a401142f8201030bc70470000fa050ced00e000e400e000e100e080e100e010b5040010000a000100200000f004f9200010bd10b50400606e002804d014f143
S34508006d804c0000f02df901e00020e064eff3108072b62f490968491e2d4a1160a16b00290ad0216b012940d0216b02293dd00021a1630021216338e0216b002935d0616b4b
S34508006dc0002904d000216163032121632de000212163e16a1f4a52f82120002a05d0516a0c625462616222621fe01a4a42f8214024626462184a126801238b401a43164b12
S34508006e001a60164a1268002a04d1144a1460144a11600ae0124b1b68994206d2104b1960d26b914201d20d490c6080f310880d4800680a490968884208d00b480068044924
S34508006e4009680843002801d1fff74aff10bd00bf78160020d813002070160020641600207416002060160020180000202f490a6822f480320a600a6822f480220a60b0f5bd
S34508006e80803f03d0b0f5802f05d07047086840f4803008607047086840f4a02008607047234908607047234a136823f47c1318430843106070472049086070471d490a6816
S34508006ec0920850ea8200086070471a490a6822f0f00210430860704716490a6822f4e06210430860704713490a6822f4605242eac000086070470f490a6822f440421043d3
S34508006f00086070474109012902d10849096805e00229064901d1096a00e0496a00f01f000a46c24002f001007047000000100240000042420410024060004242dff83410ae
S34508006f400a6802f03802104308607047dff824100a6822f008020a600a68104308607047dff810100a6822f010020a600a681043086070470020024062f30f2262f31f4293
S34508006f80401810f0030308d0c91a1fd3db0748bf00f8012d28bf20f8022d130030b414461546103928bf20e93c00fad8490728bf20e90c0048bf40f8042d890028bf20f844
S34508006fc0022d48bf00f8012d30bc7047c91818bf00f8012dcb0728bf00f8012d70470000eff3108172b68269002a1ed00269904209d182691268824202d1826900231360de
S345080070000022826111e002694369536142690369136182691268824205d10269836993618269036913600022826181f3108800207047000010b5fff777fdfef749f9fff79e
S34508007040c1f90446fff7e5f92146fff7a0fafcf745ff00f087f8002010bd30b587b035480121059100210491012103910a210291c8210191009000232f4a2da1c83000f0c8
S3450800708093f80024a4251ae02a480121059100210491012103910a210291c821019101fb040101f5b67100912346244a0ff2940105fb040000f53f7000f076f8641c022cb1
S345080070c0e2db002419e00121059100210491012103910a210291c821019101fb040101f244410091a31c154a0ff2640105fb040000f2d45000f058f8641c022c0d48e2dba3
S345080071000121059100210491012103910a210291c821019100f21c7100910023084a0ff23c0100f2e47000f03ff807b030bd0000636470001c000020cf5600083d3f0008ec
S34508007140b94d0008446576696365305f00000000446576696365315f00000000416374696f6e000080b50d4800680d49884207d00a485ff0f031016000f09ef800f0d6f886
S3450800718006485ff0f031016006480068fff765ff02480021016000f00bf901bd18000020f1f0f0f0581600202de9fb4f040093460c9d0d9e0e9fddf83ca0ddf84090ddf824
S345080071c044803200ef212800fff7cafdb0088000061fa42200212000fff7c2fd0198a062c4f844b00298a064e56066617019401e2061e762c4f89470c4f81890c4f81c904b
S34508007200574502d00020e06300e0e7630320206323486065a4652349200000f017f9eff3108072b62049216020490968002910d01e490968d1f88c101c4a1268c2f88c40d0
S34508007240c1f88840c4f88c1018490968c4f8881005e016490c60c4f88840c4f88c4014490968491c124a116012490968491c114a116080f31088b8f1000f03d02000fff79c
S3450800728079fd09e0eff3108072b60a490968491e084a116080f310880020bde8fe8f00bf997900086179000844524854681600206c160020781600201548164a10604ff035
S345080072c0e0201549c0f8081d14481349096801604ff0e020124941614ff0070101610021c0f8181d0f49c0f81c1d0f49c0f8201d7047fee700b500f0c9f800f0d3b800b500
S3450800730000f0c4f800f0f0f800f0ccb8fee7fee73016002058160020002000085c1600203f190100000000ff0000ff4080b500f027f900f073f91248002101601148002141
S3450800734001601148002101601048002101601048002101600f48002101600f48002101600e48002101600e48002101600d48002101600d48002101600c480021016001bd6b
S345080073808016002084160020881600208c1600209016002094160020a0160020a4160020a8160020ac160020981600209c16002072b64ff0e0204ff001010160016941f08b
S345080073c00101016162b600dfefbe70471c4801681c4a79b1eff3098c2ce9f00fc1f808c0dff864c0dcf8005025b18d614ff00005ccf80050136893b103605c6804f101043c
S345080074005c60dff844c09d69ccf80050d3f808c0bce8f00f8cf309886ff0020e704772b61368036023b962b630bfbff36f8ff6e74ff000644ff0e025c5f8044d62b6dce7db
S345080074406016002064160020b41600200269a2f1400222f003024ff00003136053609360d36013615361c36893614ff00003d361136253629362d36213634ff0ff33536351
S3450800748091634ff08073d363826070470448016801f1010101604df804ad4ff0000a7047180000200c480168a1f101010160bde800440a48006800281dbf094909688142b2
S345080074c0704708480068002802bf4ff080504ff0e021c1f8040d7047180000206416002060160020781600201e49086800f1010008601d4b1a68002a08d0a2f101021a6013
S34508007500002a03d1194b4ff001001860184908680268002a04d0174b4ff001021a6008e000f10400144b1a68904201d1134b186808600e4b1a68002a03d10e49086800285c
S345080075400fd04df804ed0b490868002801d000f0a7f8064b1a68002a01d000f039f95df804eb7047b0160020b4160020b8160020c4160020c8160020c0160020bc16002013
S3450800758080b51b48002101601a4800210160042200211948fff7e4fb184820210160184800210170174b012008e05208491c94461cf0010ff9d019705b1c401cff2802d808
S345080075c002000021f3e7802200210f48fff7c8fb0e48002101600e48002101600d48002101600d48006850f0c5700b49086001bd60160020641600207016002074160020fa
S34508007600dc0e0020dd0e0020d8130020681600206c160020781600207c16002080b5144800210160134800210160134800210160124800210160802200211148fff790fb36
S3450800764010480f49016010480d4901600f48104901600e480068001d0c4908600d48002101600d48002101600c480021016001bdb0160020b4160020b8160020c816002035
S3450800768058140020bc160020c4160020c0160020d4140020d4160020cc160020d016002030b583b0002400200190eff3108072b642490968002903d141490968002902d1bd
S345080076c080f3108878e03d4901220a603d490968096800910099002902d0009900aa8a613849096800220a6036490968091d354a116034490968344a1268914203d13149c0
S34508007700324a12680a602e4900220a6080f31088eff3108072b619e00022aa6180f310880800002801d020008847eff3108072b6a96901aa914209d10021a96180f31088d8
S345080077402800fff78bfaeff3108072b60099002928d0009d009909698d4202d1002100910ae029696a694a6169692a690a61296900aa8a61296900912968212907d32968ae
S3450800778020392960002101aaaa612d61c6e7a968ec686a682a602a68002abdd001aaaa612d61bbe70649096800297ff481af034900220a6080f3108837bd00bfd4160020ab
S345080077c0c8160020c4160020c0160020bc16002014480168eff3108072b6134a0023136000291bd00a6b002a18d1ca698a610a6a8a4210d0ca6acb6b9a420cd1ca6a0b4bc2
S34508007800096a43f822100a490968084a52f82110084a116002e08969074a116080f31088704700bf60160020b8160020d81300207416002064160020b416002010b582b03b
S345080078401f4ca169fef76fffe169a020fef76bff216aa120fef767ff616aa220fef763ffa16aa320fef75fffe16aa420fef75bff002000900be000a8009950f821100098c2
S345080078802038c0b2fef74fff0098401c009000981328f0d30b484ff0ff31016041600a48016041600948214608600020009001e0401c009000986428fad30548086013bd68
S345080078c00ced00e080e100e080e200e00400fa050100fa050320b1e70420afe70520ade70620abe780b5c16eeff3108272b6836e002b2dd000292bd00b68dff85cc06345ea
S3450800790026d100238366036f984202d10023cb600be0036fcb60036fd0f874c0c3f874c0436fd0f870c0c3f870c00b695b1e0b61016b06290cd10d21c0f884100749096843
S34508007940491c064b196082f31088fff713fa01e082f3108801bd00bf414d45537816002010b50b480468a06c616c8847eff3108072b6012121630121a16306490968491cc4
S34508007980044a116080f310882000fef73bfc10bd601600207816002080b5eff3108172b6026b042a09d1094a1268521c074b1a6081f31088fff7def906e0826e81f310888b
S345080079c01100002900d0904701bd00bf7816002010b450f8041b79b10268436812180830dc0744bfa9f10104e31852f8044b43f8044b091ff9d1ece710bc704710b50749a1
S34508007a0079441831064c7c44163404e00a68081d511888470146a142f8d110bd0800000028000000a7d5ffffc01600001c000020000000009dffffff1c0000005800000099
S34508007a4000000020000000000120c046002801d0fff7d4ff0020c046c046fff7ebfa00f000f800f001b800000746384600f002f8fbe7000080b5c046c046024a11001820ea
S34508007a80abbefbe726000200c046c046c046c046fff7daff414243000000000000000000313233000000000000000000f0f0f0f0ffffffffffffffffffffffffffffffff52
