:020000040000FA
:0400000000EF02F01B
:0400080004EF02F00F
:040018000CEF02F0F7
:0404000031EF03F0E5
:04040800BCEF02F053
:04041800CEEF02F031
:10050000806A896A3F0E926E816A8A6A110E936EC2
:10051000826A8B6AA00E946E836A8C6A0A0E956E4C
:10052000846A8D6A070E966EC290090EC16E070E20
:10053000B46EF26A9D6AA06A9E6AA16A9F6AA26A04
:10054000A56AD08EEBEC05F092EC0DF0B8EC0AF059
:1005500088EC0DF0B3EC02F03FEC28F01200D08EE6
:100560001200D09E1200AFEC02F0200E9F6E000E23
:10057000A26E000EA56E1200036ED8CF04F0E0CF7D
:1005800005F09EBADEEF02F0C6EF02F0C8EF02F00F
:1005900005C0E0FF04C0D8FF03501000036ED8CFA1
:1005A00004F0E0CF05F09EB0D8EF02F0E6EF02F0E5
:1005B0009D909E90AAEC0DF0E8EF02F053EC28F02D
:1005C000E8EF02F0A192A192E8EF02F0E8EF02F06A
:1005D00005C0E0FF04C0D8FF035010000401116BF8
:1005E000010E126F0501006B016B026B036B046B54
:1005F000056B106B116B126B136B206B216B226BF5
:10060000236B246B256B066B076B166B176B266BC6
:10061000276B0401136B246B286B296976EC20F09F
:1006200008EC2CF02A6B2B6B3A6B8380B5EC05F051
:10063000876B000E5A6E73EC33F08F6B3E6BAD69B7
:10064000AC6B026B4F6A506A5A6A8E6BE76BE90EAD
:10065000E86F030EE96FEA6BEB6B0D6B050E676FCE
:1006600012000401AA6BAB6BA96B80EC02F0EEECFC
:1006700002F003EC19F092EC0DF0B8EC0AF088EC03
:100680000DF00B6A24EC0EF0BBEC27F0D2EC27F057
:10069000E7EC2BF00DEC2CF0E7670DEF04F0000E0B
:1006A0001119D8B448EF03F0010E1119D8B48DEF29
:1006B00003F0020E1119D8B4AFEF03F0060E1119B2
:1006C000D8B43BEF04F0050E1119D8B444EF04F090
:1006D0000B0E1119D8B44DEF04F00A0E1119D8B44D
:1006E00066EF04F0080E1119D8B47FEF04F0090E7C
:1006F0001119D8B495EF04F00C0E1119D8B4ABEF62
:1007000004F00D0E1119D8B4B0EF04F00E0E11194B
:10071000D8B4BCEF04F048EF03F00D6B8E69050E02
:10072000676F3A6B88EC0DF00B6B296924EC0EF0C7
:100730004FEC20F0336B30EC29F08E6B000E116F14
:1007400048EC20F0D7EC0DF01367ADEF03F0286B09
:100750008F6748EF03F044EF04F048EF03F08E6931
:1007600052EC20F0EA67B7EF03F0B9EF03F0D0EFF7
:1007700003F08D67BEEF03F0CDEF03F073EC33F0C1
:100780003E69A867C6EF03F0CDEF03F0A8C4A7F455
:10079000EBEC05F0A72FC8EF03F073EC33F03E69E4
:1007A000BBEC27F0010E8819D8A4FDEF03F0D9EFB8
:1007B00003F03A6B52EC20F042EC2AF01367EBEFB7
:1007C00003F0000E116F48EC20F067EC1AF03E6B5E
:1007D0008E6B48EF03F0AC6BF28CF28E3369F1EC68
:1007E00029F0000E116F48EC20F03E6B8E6BF28CFE
:1007F000F28E4DEC28F048EF03F08BEC14F03369E7
:10080000000E116F48EC20F0D4EC2BF03E6BF28C14
:10081000F28E4DEC28F048EF03F0010EE85F000E79
:10082000E95BE9671EEF04F0E8671EEF04F0E76B91
:10083000E90EE86F030EE96F48EF03F0000EEB19C5
:10084000D8B42FEF04F0010EEB19D8B433EF04F055
:10085000020EEB19D8B437EF04F048EF03F0010EA5
:10086000EB6F66EF04F0020EEB6FAFEF03F0000EDC
:10087000EB6F4DEF04F03A6B6EEC20F0D4EC2BF004
:10088000000E116F48EF03F03A6B76EC20F008ECA5
:100890002CF0000E116F48EF03F012C4B0F48E6913
:1008A0003A6B52EC20F0BBEC27F0010E8819D8A46B
:1008B0005DEF04F035EC2CF08E6B000E116F1367BA
:1008C00048EF03F0B0C412F448EF03F012C4B0F4E0
:1008D0008E693A6B52EC20F0BBEC27F0010E8819C0
:1008E000D8B476EF04F050EC2CF08E6B000E116F44
:1008F000136748EF03F0B0C412F448EF03F012C4DA
:10090000B0F48E693A6B52EC20F0D2EC27F0010E75
:100910008919D8A48FEF04F0ACEC2CF08E6B000E8C
:10092000116FB0C412F448EF03F012C4B0F48E6932
:100930003A6B52EC20F0D2EC27F0000E8919D8A4C3
:10094000A5EF04F013EC2DF08E6B000E116FB0C408
:1009500012F448EF03F049EC07F0FF00ABEF04F0AE
:100960003A6B52EC20F05AEC2DF08E6B000E116FAA
:10097000B0C412F448EF03F012C4B0F48E693A6BBD
:1009800052EC20F0D2EC27F0000E8919D8A4CCEF5D
:1009900004F0FDEC2CF08E6B000E116FB0C412F45D
:1009A00048EF03F0040124EEBFF0D9CFB8F4DACF5A
:1009B000B9F4200EB76F12000401D2EC04F0DE6A25
:1009C000B72FDFEF04F0D2EC04F012000401B8C43A
:1009D000D9FFB9C4DAFFB6C4DEFFD9CFB8F4DACF95
:1009E000B9F4B72F000C010C0401B8C4D9FFB9C485
:1009F000DAFFDECFB6F4D9CFB8F4DACFB9F4B72F37
:100A0000000C010C040125EEE0F0D9CFBCF4DACFE4
:100A1000BDF4200EBB6F1200040102EC05F0DE6A8B
:100A2000BB2F0FEF05F002EC05F012000401BCC46F
:100A3000D9FFBDC4DAFFBAC4DEFFD9CFBCF4DACF28
:100A4000BDF4BB2F000C010C0401BCC4D9FFBDC414
:100A5000DAFFDECFBAF4D9CFBCF4DACFBDF4BB2FC6
:100A6000000C010C12000401030E0919D8B445EF63
:100A700005F00D0E0919D8B43FEC05F01200230E55
:100A8000BF19D8B445EC05F0120047EF05F0A9EC0A
:100A90000FF012001200010AD8B41200B5EC05F0F4
:100AA000B5EC05F0B5EC05F0B5EC05F0B5EC05F0EE
:100AB000B5EC05F0B5EC05F0B5EC05F0B5EC05F0DE
:100AC000B5EC05F0120017EC06F017EC06F017EC89
:100AD00006F017EC06F017EC06F017EC06F017EC32
:100AE00006F017EC06F017EC06F017EC06F017EC22
:100AF00006F017EC06F017EC06F017EC06F017EC12
:100B000006F017EC06F017EC06F017EC06F017EC01
:100B100006F017EC06F017EC06F017EC06F017ECF1
:100B200006F017EC06F017EC06F0120017EC06F0D2
:100B300017EC06F017EC06F017EC06F017EC06F0D1
:100B400017EC06F017EC06F017EC06F017EC06F0C1
:100B500017EC06F017EC06F017EC06F017EC06F0B1
:100B600017EC06F017EC06F0120017EC06F017EC85
:100B700006F017EC06F017EC06F017EC06F0120082
:100B800033EC06F033EC06F033EC06F033EC06F011
:100B900033EC06F0120051EC06F051EC06F051EC8B
:100BA00006F051EC06F051EC06F012006DEC06F088
:100BB0006DEC06F06DEC06F06DEC06F06DEC06F0F9
:100BC0006DEC06F06DEC06F06DEC06F06DEC06F0E9
:100BD0006DEC06F012006DEC06F06DEC06F06DECBD
:100BE00006F06DEC06F06DEC06F0120082EC06F0FB
:100BF00082EC06F082EC06F082EC06F082EC06F065
:100C0000120097EC06F097EC06F097EC06F097ECE4
:100C100006F097EC06F01200BFEC06F0BFEC06F011
:100C2000BFEC06F0BFEC06F0BFEC06F01200080EB9
:100C3000000000000F6E640E000000000E6EF90E42
:100C4000000000000D6E000000000D2E23EF06F0E6
:100C5000000000000E2E1FEF06F0000000000F2E17
:100C60001BEF06F0000C040E000000000F6E640E77
:100C7000000000000E6E00000000F80E00000000F2
:100C80000D6E000000000D2E41EF06F00000000088
:100C90000E2E3BEF06F0000000000F2E37EF06F09F
:100CA000000C020E000000000F6E960E0000000007
:100CB0000E6EA50E000000000D6E000000000D2E4F
:100CC0005DEF06F0000000000E2E59EF06F0000068
:100CD00000000F2E55EF06F01200660E0000000017
:100CE0000E6E00000000C20E000000000D6E00003D
:100CF00000000D2E77EF06F0000000000E2E71EFC1
:100D000006F01200330E000000000E6E000000001E
:100D1000C20E000000000D6E000000000D2E8CEFD2
:100D200006F0000000000E2E86EF06F0000C0A0E02
:100D3000000000000E6E0000C60E000000000D6EE8
:100D4000000000000D2EA0EF06F0000000000E2EA7
:100D50009BEF06F0000C050E000000000E6E000078
:100D6000C60E000000000D6E000000000D2EB4EF56
:100D700006F0000000000E2EAFEF06F0000CC70ECC
:100D8000000000000D6E000000000D2EC3EF06F005
:100D9000000C260E0D6E0D2ECBEF06F00000000CA1
:100DA00010C0A9FFAA6AA69EA69CA680A8CF11F093
:100DB000A6B0D8EF06F0120011C0A8FF10C0A9FF1E
:100DC000AA6AA69EA69CA684F29E550EA76EAA0E9F
:100DD000A76EA682F28EA694A6B2ECEF06F01200E1
:100DE000006A106ADCEC06F0103EFAD71200106AB6
:100DF000D0EC06F0DCEC06F0103EF9D71200080E3D
:100E00001226000E1222000E1222120014C0F8FF49
:100E100013C0F7FF12C0F6FF0900F5CF15F0090067
:100E2000F5CF16F0120014C0F8FF13C0F7FF12C080
:100E3000F6FFA68EA69CA684A688F29E550EA76EE7
:100E4000AA0EA76EA6820000F28E0A00080E176E88
:100E5000EE50F56E0F00172EFBD7A68EA69CA6842B
:100E6000F29E550EA76EAA0EA76EA6820000F28E05
:100E7000A6941200A69EA69CA684F29E550EA76E6E
:100E8000AA0EA76EA682F28EA694A6B245EF07F030
:100E90001200000EA86EFF0EA96E030EAA6E3AECA9
:100EA00007F01200300E2A6E296E286E276E266E0D
:100EB000256E246E236E226E216E1200206E300E7F
:100EC000205C12002A505EEC07F0306E29505EEC78
:100ED00007F0206E203A2050301228505EEC07F0C8
:100EE000316E27505EEC07F0206E203A2050311210
:100EF00026505EEC07F0326E25505EEC07F0206E57
:100F0000203A2050321224505EEC07F0336E23500A
:100F10005EEC07F0206E203A20503312346A120043
:100F20000F0B2B26D8A099EF07F0010E2C26D8B076
:100F30002D2AD8902B34356E2C34366E2D34376EE6
:100F4000D8902B362C362D36D8902B362C362D3685
:100F5000D8902B362C362D3635502B26D8A0B5EF11
:100F600007F0010E3626D8B0372A36502C26D8B0D6
:100F7000372A37502D2612002B6A2C6A2D6A2E6ACA
:100F80002F6A333A33500F0B2B6E99EC07F0333A3C
:100F9000335090EC07F0323890EC07F0325090EC80
:100FA00007F0313890EC07F0315090EC07F0303812
:100FB00090EC07F030500F0B2B26D8A01200010E3A
:100FC0002C26D8B02D2A12002A6A296A286A276A94
:100FD000266A256A246A236A226A216A34500F0B22
:100FE000216E300E2126343A34500F0B226E300E13
:100FF000222633500F0B236E300E2326333A335004
:101000000F0B246E300E242632500F0B256E300E3F
:101010002526323A32500F0B266E300E26263150DE
:101020000F0B276E300E2726313A31500F0B286EEA
:10103000300E282630500F0B296E300E2926303AFC
:1010400030500F0B2A6E300E2A261200030EEF24AA
:10105000386E38B6EF6E300EEF24386E38BEEF6E55
:101060001200D86AD890200E396E306A316A326A1E
:10107000336A346A2B362D362E362F3634363336D5
:10108000323631363036392E47EF08F0120000EE96
:1010900034F026EC08F000EE33F026EC08F000EE19
:1010A00032F026EC08F000EE31F026EC08F000EE0D
:1010B00030F026EC08F03AEF08F03C6E300807E01C
:1010C00007E200E63C50390802E001E201E6010CCB
:1010D000000C3C6E410811E011E200E63C505A0859
:1010E0000CE00CE200E63C50610807E007E200E695
:1010F0003C507A0802E002E201E6010C000C3C6E72
:10110000410807E007E200E63C505A0802E002E22C
:1011100001E6010C000C3C6E610807E007E200E606
:101120003C507A0802E002E201E6010C000C476A3A
:10113000486A446A010E456E466A4050496E415005
:101140004A6E4250495ED8B0ACEF08F0A8EF08F004
:10115000010E4A5ED8A0448A43504A5ED8A0448A11
:10116000B2EF08F044AAB7EF08F0D2EF08F045500C
:101170004726D8B0482A4650482646AEC3EF08F066
:101180004480C8EF08F044A0CAEF08F0C8EF08F0A8
:10119000A1EF08F0D89042364336D890453646360F
:1011A000A1EF08F0449A42504926D8B04A2A435049
:1011B0004A26DBEF08F045A0E0EF08F0EBEF08F07F
:1011C000D89043324232D89046324532E8EF08F0A8
:1011D000448EA1EF08F01200140E1B6ED9EC0CF037
:1011E0001CC01EF01DC01FF01EC00EF41FC00FF467
:1011F000D8901F321E32D8901F321E321200000EBD
:101200001F18D8A40BEF09F0000E1E18D8A40BEF7E
:1012100009F03EEF0EF0000E1F1805E1FA0E1E60F9
:1012200013EF09F0120027EC0EF012004F50511886
:101230001DE051C052F00A5052264F50525ED8A0C5
:101240002CEF09F051C052F00A50525E52504F5CE0
:10125000D8A030EF09F00AD03E682BEC20F0120045
:101260003E6688EC0DF003EC20F012003E6808ECBE
:1012700020F01200000E0718D8B449EF09F0010E53
:101280000718D8B44AEF09F0020E0718D8B468EF6F
:1012900009F0120008C023F40401D8902337D89035
:1012A000233723510E27000E0F23D8B05AEF09F031
:1012B000040112000401000E0E6F020E0F6F0401F4
:1012C00012000401C80E0E27000E0F2304011200A5
:1012D00008C023F40401D8902337D8902337235132
:1012E0000E5F000E0F5BD8B083EF09F0000E0E6F9B
:1012F000000E0F6F040112000401C80E0E5E000EF6
:101300000F5A0401120004011200ECEC08F0FFEC8B
:1013100008F03AEC09F00EC45BF40FC45CF4D8900A
:101320005C335B33D8905C335B335BC44FF016ECBB
:1013300009F01200140E1B6EBCEC0CF01CC01EF069
:101340001DC01FF0D8901F321E32D8901F321E329F
:101350001200000E1F18D8A4B5EF09F0000E1E18D9
:10136000D8A4B5EF09F073EF0EF0000E1F1805E1D9
:10137000FA0E1E60BDEF09F0120067EC0EF01200CD
:101380005050511819E051C052F00A505226505096
:10139000525ED8A0D6EF09F051C052F00A50525E0A
:1013A0005250505CD8A0D9EF09F006D036EC20F0AE
:1013B000120030EC20F0120033EC20F01200000E8E
:1013C0005418D8B4EEEF09F0010E5418D8B4EFEF6A
:1013D00009F0020E5418D8B4FCEF09F01200555071
:1013E000320807E655505026D8A01200FF0E506E66
:1013F0001200320E502612005550320807E65550A2
:10140000505ED8B01200000E506E1200320E505EC8
:1014100012009AEC09F0A9EC09F01EC050F0DFECC4
:1014200009F0C0EC09F01200140E1B6EF6EC0CF083
:101430001CC01EF01DC01FF0D8901F321E32D89065
:101440001F321E321200280E1E5E000E1F5AD8A830
:1014500012001E6A1F6A1200000E1F18D8A438EF6F
:101460000AF0000E1E18D8A438EF0AF0A7EF0EF00D
:10147000000E1F1807E1FA0E1E6042EF0AF01EC0B0
:101480005AF012000D2B050E0D651200B3EC0EF094
:101490001200260E5A5C0DE0260E5A6459EF0AF02F
:1014A000320E5A5C0FE0320E5A645EEF0AF062EFC1
:1014B0000AF03EEC20F00D6B6DEF0AF039EC20F0F5
:1014C0006DEF0AF00D2B050E0D656DEF0AF043EC84
:1014D00020F0A1EC0EF06DEF0AF00A0EEC5D02E0D8
:1014E00001E71200EC6B240E5A5C06E005E6260EBE
:1014F0005A5C05E004E7120073EC33F0120077EC5D
:1015000033F01200000E5C18D8B491EF0AF0010E0F
:101510005C18D8B492EF0AF0020E5C18D8B49FEFB2
:101520000AF012005D50190807E65D505A26D8A04F
:101530001200FF0E5A6E1200190E5A2612005D504C
:10154000190807E65D505A5ED8B01200000E5A6EB8
:101550001200190E5A5E12005B6A14EC0AF023ECBA
:101560000AF02CEC0AF082EC0AF049EC0AF01200C6
:101570000401C4EC0BF04B6A4C6A4D6AF16BF26BE0
:10158000F36BF46BF56BF96BFA6BFB6BFF0EFC6F97
:10159000FD6BEE6BED6BE66BE56BF66B120051C00D
:1015A00010F40401000E1D6FD89010371D37D8902D
:1015B00010371D37040E1027000E1D230E50106229
:1015C000ECEF0AF00F501D62ECEF0AF0000E4E6EC9
:1015D000010E4D6E0401120010510E5D1D510F5988
:1015E00002E610E71BE00E51105D926F000E1D59D0
:1015F0000F511D5D936F0F511D59936F000E4D6E6E
:101600000401120010510E5D926F000E93591D518E
:101610000F5D936F020E4D6E04011200000E4E6EB0
:10162000010E4D6E04011200AC6722EF0BF0AD69A4
:1016300085EC09F02867C4EF0BF0AD6B28EC0BF0DC
:1016400027EF0BF0AD6B28EC0BF027EF0BF012003F
:101650002867C4EF0BF00B66C9EF0BF0A5EC0BF09D
:10166000CFEC0AF0000E4D18D8B445EF0BF0010E88
:101670004D18D8B445EF0BF0020E4D18D8B442EF18
:101680000BF01200F86BC9EF0BF0000EF119D8B493
:101690005DEF0BF0010EF119D8B474EF0BF0020EF0
:1016A000F119D8B481EF0BF0030EF119D8B497EF0C
:1016B0000BF05BEF0BF0F16B120051C0EFF40D0E6D
:1016C000EF5D4F6466EF0BF06FEF0BF0F467120005
:1016D000640EF86FF8C4F7F4F66BF4691200F12B9E
:1016E000F26BF86BC4EF0BF0190EF2657AEF0BF0AA
:1016F0007CEF0BF0C4EF0BF0F12BF36BF46BC4EF4A
:101700000BF0040EF36587EF0BF093EF0BF0330E45
:1017100092651200F4671200320EF86FF8C4F7F405
:10172000F66BF4691200F46BF12BF86B1200010EEA
:10173000FE659DEF0BF09EEF0BF01200FE6BA1EF2C
:101740000BF0E669CBEC0BF01200F62B640EF6659D
:10175000ACEF0BF0B6EF0BF0F767B1EF0BF0B4EFB7
:101760000BF0F7078280120082901200F8C4F7F4A1
:10177000F66BF4691200F86FF8C4F7F4F66BF469CD
:10178000120082804B6A120082904B6A1200286914
:101790001200829012000401000E9319D8A423EFC6
:1017A0000CF0640E926126EF0CF05A0E926129EF54
:1017B0000CF0500E92612CEF0CF0460E92612FEF60
:1017C0000CF03C0E926132EF0CF0320E926135EF6C
:1017D0000CF0280E926138EF0CF01E0E92613BEF78
:1017E0000CF0140E92613EEF0CF00F0E926141EF7F
:1017F0000CF00A0E926144EF0CF0090E926147EF73
:101800000CF0080E92614AEF0CF0070E92614DEF5A
:101810000CF0060E926150EF0CF0050E926153EF42
:101820000CF0040E926156EF0CF0030E926159EF2A
:101830000CF0020E92615CEF0CF0010E92615FEF12
:101840000CF062EF0CF0640EBBEF0BF0640EBBEF1C
:101850000BF0640EBBEF0BF05A0EBBEF0BF0500E0B
:10186000BBEF0BF0460EBBEF0BF03C0EBBEF0BF0EB
:10187000320EBBEF0BF0280EBBEF0BF01E0EBBEFD2
:101880000BF0190EBBEF0BF0170EBBEF0BF0140EA5
:10189000BBEF0BF0130EBBEF0BF0100EBBEF0BF01A
:1018A0000D0EBBEF0BF00B0EBBEF0BF00A0EBBEFF8
:1018B0000BF0070EBBEF0BF0060EBBEF0BF0050EA7
:1018C000BBEF0BF0170EBBEF0BF01B0EC16EBC0E87
:1018D000C06E800EC26EC2809E9CAFEC0CF0C282C5
:1018E0009EBC75EF0CF070EF0CF0C29012001B0E56
:1018F000C16EBC0EC06E840EC26EC2809E9CAFECE8
:101900000CF0C2829EBC87EF0CF082EF0CF0C2900C
:1019100012001B0EC16EBC0EC06E880EC26EC2805D
:101920009E9CAFEC0CF0C2829EBC99EF0CF094EF41
:101930000CF0C2901200170EC16EBC0EC06E9C0E51
:10194000C26EC2809E9CAFEC0CF0C2829EBCABEF1C
:101950000CF0A6EF0CF0C2900B0EC16E1200280E18
:10196000000000000C6E000000000C2EB3EF0CF025
:1019700000000000000012001BC018F01C6A1D6A65
:1019800065EC0CF0C3501C26000E1D22C4501D2611
:101990001B2EC0EF0CF01CC040F01DC041F018C061
:1019A00042F0436A97EC08F047C01CF048C01DF0B5
:1019B00012001BC018F01C6A1D6A77EC0CF0C350B3
:1019C0001C26000E1D22C4501D261B2EDDEF0CF020
:1019D0001CC040F01DC041F018C042F0436A97ECB3
:1019E00008F047C01CF048C01DF012001BC018F0E2
:1019F0001C6A1D6A89EC0CF0C3501C26000E1D22C7
:101A0000C4501D261B2EFAEF0CF01CC040F01DC068
:101A100041F018C042F0436A97EC08F047C01CF050
:101A200048C01DF012009BEC0CF0C3503A6EC4503D
:101A30003B6E12001BC018F03A6A3B6A9BEC0CF03C
:101A4000C3503A26000E3B22C4503B261B2E1EEFED
:101A50000DF03AC040F03BC041F018C042F0436A7C
:101A600097EC08F047C03AF048C03BF01200640E13
:101A70009C613DEF0DF04FEF0DF09C6B9D2B3C0EEC
:101A80009D19D8A44FEF0DF09D6B9E2B3C0E9E1917
:101A9000D8A44FEF0DF09E6B9F2B4FEF0DF054EC41
:101AA0000DF07FEC0DF012003E6612002B675AEF2E
:101AB0000DF012000A0E9E19D8A462EF0DF033EC5F
:101AC0000EF01200010E9E19D8A4120068EF0DF05E
:101AD0004F50515C3F6E0A0E3F5C02E001E601E7A9
:101AE00012004FC014F43451145F06E60A0E145F5E
:101AF000D8A812007CEF0DF033EC0EF01200010EAE
:101B00009E19D8A412003E6612002B67296B1200A2
:101B100004013E6A9C6B9D6B9E6B9F6B1200070ECF
:101B2000D5121200CD6AB40ECD6E9D80E70ECF6E39
:101B30009E0ECE6E0401906B006B9C6B9D6B9E6B3A
:101B4000016B006BEC6BF26BF36BFE6BF06BF26B8B
:101B5000CD8012000401902B012B630E0165C7EFAD
:101B60000DF0002BF22BF32BFE2BF02BF22B016B45
:101B7000EC2BAC67C6EF0DF08E67C7EF0DF0ACEC49
:101B80000AF0026909EC0AF0FFEC0DF0026B9C2BE5
:101B900014EC0BF00B66CFEF0DF037EC0DF0E70E09
:101BA000CF6E9E0ECE6E9D8012009D9012009D8085
:101BB0001200532A630E5360DFEF0DF01200010E86
:101BC000536E12005306010E53601200E8EF0DF041
:101BD000630E536E53061200512AC80E5160F2EF85
:101BE0000DF01200190E516E12005106190E5160BF
:101BF0001200FBEF0DF0C80E516E510612004F504F
:101C0000505C02E004E608D0010E3F6F1200505015
:101C10004F5C276F11EF0EF04F50505C276F11EFA4
:101C20000EF027515F5C0BE001E609D0000E3F6F1C
:101C3000672F1200BFEC0EF0050E676F1200010E49
:101C40003F6F050E676F1200000E136F1200010E3A
:101C5000136F59EC20F0D5EC0DF00B69C7EC0BF0CD
:101C6000C4EC0BF01200020E136F59EC20F0D5EC0F
:101C70000DF0C7EC0BF0C4EC0BF01200296712005A
:101C8000030E136F59EC20F0D5EC0DF00B69C7EC87
:101C90000BF0C4EC0BF01200040E136F59EC20F0A3
:101CA000D5EC0DF0C7EC0BF0C4EC0BF01200050EF8
:101CB000136F59EC20F0D5EC0DF0C7EC0BF0C4EC31
:101CC0000BF01200060E136F59EC20F01200080EF4
:101CD000136F59EC20F0D5EC0DF00B69C7EC0BF04D
:101CE000C4EC0BF0120029671200090E136F59ECB7
:101CF00020F0D5EC0DF00B69C7EC0BF0C4EC0BF049
:101D000012000B0E136F59EC20F012000C0E136F23
:101D100059EC20F0D5EC0DF0C7EC0BF0C4EC0BF057
:101D200012000D0E136F59EC20F0D5EC0DF0C7EC3E
:101D30000BF0C4EC0BF01200100E136F59EC20F0F6
:101D40001200110E136F59EC20F00B691200120EE5
:101D5000136F59EC20F0D5EC0DF00B69C7EC0BF0CC
:101D6000C4EC0BF01200130E136F59EC20F0D5ECFD
:101D70000DF00B69C7EC0BF0C4EC0BF01200030E76
:101D80001219D8B41200000E4F18D8B440EF0EF05C
:101D9000000E5018D8B475EF0EF0140E136F59ECF6
:101DA00020F0D5EC0DF00B69C7EC0BF0C4EC0BF098
:101DB0001200150E136F59EC20F00B691200160E6D
:101DC000136F59EC20F00B691200170E136F59ECCA
:101DD00020F01200180E136F59EC20F01200190EAB
:101DE000136F59EC20F012001A0E136F59EC20F00B
:101DF0001200020EBF5D01E002D0A06B1200A069CC
:101E00001200A26B200EA36FD2EC04F0F4EC04F0ED
:101E1000F4EC04F00D0EB619D8B416EF0FF0B6516D
:101E2000A227A32F08EF0FF030EF0FF0B651A22733
:101E3000A26DF4EC04F0B6C4BEF4F4EC04F0B6C445
:101E4000B5F4F4EC28F0BE51A219D8A42AEF0FF093
:101E50002CEF0FF0A1691200A16B1200A169120012
:101E6000A16912007AEC28F07DEC28F04DEC28F006
:101E70001200520EBFEC28F0530EBFEC28F0C251F6
:101E8000BFEC28F0C351BFEC28F03D0EBFEC28F0AA
:101E9000450EBFEC28F0520EBFEC28F0520EBFECFE
:101EA00028F00D0EBFEC28F032EF0FF0520EBFEC11
:101EB00028F0530EBFEC28F0C251BFEC28F0C351FC
:101EC000BFEC28F03D0EBFEC28F04F0EBFEC28F021
:101ED0004B0EBFEC28F00D0EBFEC28F032EF0FF0E8
:101EE0000000000000007AEF0FF00000000000008A
:101EF0007AEF0FF0520EBFEC28F0530EBFEC28F033
:101F00003F0EBFEC28F03F0EBFEC28F03D0EBFECBB
:101F100028F0420EBFEC28F0410EBFEC28F0440E32
:101F2000BFEC28F0430EBFEC28F0480EBFEC28F0C1
:101F30004B0EBFEC28F0530EBFEC28F0550EBFEC53
:101F400028F04D0EBFEC28F00D0EBFEC28F032EF5C
:101F50000FF004014BEC28F0230EBF19D8B49EEF0C
:101F600020F0F9EC0EF0A06770EF0FF001EC0FF02D
:101F7000A16775EF0FF0520EC019D8A439EF0FF01A
:101F8000530EC119D8A439EF0FF0300EC219D8B4CE
:101F9000E0EF0FF0310EC219D8B419EF10F0320E85
:101FA000C219D8B42FEF10F0330EC219D8B468EFAD
:101FB00010F0390EC219D8B47EEF10F039EF0FF0DF
:101FC0000D0EC319D8B439EF0FF0300EC319D8B4C1
:101FD00080EF10F0310EC319D8B489EF10F0320E33
:101FE000C319D8B492EF10F0330EC319D8B4B4EFBC
:101FF00010F0340EC319D8B46FEF11F0350EC319B9
:10200000D8B49BEF11F0360EC319D8B423EF12F0F9
:10201000370EC319D8B474EF12F0380EC319D8B400
:102020009DEF12F0390EC319D8B4ABEF12F039EFAF
:102030000FF00D0EC319D8B439EF0FF0330EC319DA
:10204000D8B4D7EF12F0340EC319D8B4E1EF12F0C0
:10205000390EC319D8B42AEF13F039EF0FF00D0E73
:10206000C319D8B439EF0FF0300EC319D8B496EFB6
:1020700013F0310EC319D8B4F0EF13F0320EC319B8
:10208000D8B456EF14F0330EC319D8B4C5EF14F01A
:10209000340EC319D8B427EF15F0350EC319D8B4D0
:1020A00057EF15F0360EC319D8B483EF15F0370E7D
:1020B000C319D8B4A9EF15F0380EC319D8B41DEF61
:1020C00016F0390EC319D8B49EEF16F039EF0FF0A1
:1020D0000D0EC319D8B439EF0FF0310EC319D8B4AF
:1020E000CEEF16F0330EC319D8B4F6EF17F0340E56
:1020F000C319D8B4FFEF17F039EF0FF039EF0FF035
:102100000D0EC419D8A439EF0FF0050E116F56EF5C
:102110000FF00D0EC419D8A439EF0FF0060E116F91
:1021200056EF0FF00D0EC419D8A439EF0FF0010EC1
:102130001219D8A44FEF12F0000E5618D8B443EF7E
:1021400012F0020E5618D8B447EF12F0000E5718CE
:10215000D8B443EF12F0020E5718D8B447EF12F07C
:10216000020E116F56EF0FF00D0EC419D8B443EFE5
:1021700011F00D0EC819D8B407EF11F00D0EC719E4
:10218000D8B4E4EF10F00D0EC619D8B4CAEF10F0B1
:1021900039EF0FF052EC07F0C5515DEC08F0010A81
:1021A000D8A439EF0FF0C5C42AF062EC07F0BCECFC
:1021B00007F02BC051F0000E2C18D8B433EF11F0FB
:1021C000FF0E516E33EF11F052EC07F0C5515DEC8C
:1021D00008F0010AD8A439EF0FF0C5C429F0C651A0
:1021E0005DEC08F0010AD8A439EF0FF0C6C42AF05C
:1021F00062EC07F0BCEC07F02BC051F0000E2C187D
:10220000D8B433EF11F0FF0E516E33EF11F052ECF2
:1022100007F0C5515DEC08F0010AD8A439EF0FF0C2
:10222000C5C428F0C6515DEC08F0010AD8A439EF06
:102230000FF0C6C429F0C7515DEC08F0010AD8A41C
:1022400039EF0FF0C7C42AF062EC07F0BCEC07F0DE
:102250002BC051F0000E2C18D8B433EF11F0FF0E44
:10226000516E33EF11F0F1EC18F0010AD8B43DEFE4
:1022700011F08BEC19F056EF0FF092EC19F039EFEA
:102280000FF032EF0FF00D0EC419D8A439EF0FF094
:1022900051C02BF02C6A2D6A2E6A2F6A31EC08F09F
:1022A000E4EC07F0520EBFEC28F0530EBFEC28F020
:1022B000300EBFEC28F0330EBFEC28F03D0EBFEC23
:1022C00028F02350BFEC28F02250BFEC28F021501A
:1022D000BFEC28F00D0EBFEC28F032EF0FF00D0E22
:1022E000C419D8A439EF0FF04FC02BF02C6A2D6A17
:1022F0002E6A2F6A31EC08F0E4EC07F0520EBFECC6
:1023000028F0530EBFEC28F0300EBFEC28F0340E4E
:10231000BFEC28F03D0EBFEC28F02350BFEC28F0B6
:102320002250BFEC28F02150BFEC28F00D0EBFEC7E
:1023300028F032EF0FF00D0EC419D8B4F7EF11F0FA
:102340000D0EC719D8B4C6EF11F00D0EC619D8B4CA
:10235000ACEF11F039EF0FF052EC07F0C5515DEC26
:1023600008F0010AD8A439EF0FF0C5C42AF062ECD6
:1023700007F0BCEC07F02BC053F0000E2C18D8B4BB
:10238000E9EF11F0FF0E536EE9EF11F052EC07F098
:10239000C5515DEC08F0010AD8A439EF0FF0C5C4AF
:1023A00029F0C6515DEC08F0010AD8A439EF0FF00E
:1023B000C6C42AF062EC07F0BCEC07F02BC053F067
:1023C000000E2C18D8B4E9EF11F0FF0E536EE9EFB0
:1023D00011F0FAEC18F0010AD8B4F3EF11F07AEC2E
:1023E00019F056EF0FF081EC19F039EF0FF00D0EE8
:1023F000C419D8A439EF0FF053C02BF02C6A2D6A02
:102400002E6A2F6A31EC08F0E4EC07F0520EBFECB4
:1024100028F0530EBFEC28F0300EBFEC28F0350E3C
:10242000BFEC28F03D0EBFEC28F02350BFEC28F0A5
:102430002250BFEC28F02150BFEC28F00D0EBFEC6D
:1024400028F032EF0FF00D0EC419D8A439EF0FF0B9
:10245000010E1219D8A44FEF12F0000E5618D8B47E
:1024600043EF12F0020E5618D8B447EF12F0000EE8
:102470005718D8B443EF12F0020E5718D8B447EFEC
:1024800012F04BEF12F0000E1F6F55EF12F0020E1C
:102490001F6F55EF12F0010E1F6F55EF12F012C4AF
:1024A0001FF4300E1F2757EF12F0300E1F27520E69
:1024B000BFEC28F0530EBFEC28F0300EBFEC28F034
:1024C000360EBFEC28F03D0EBFEC28F0300EBFEC0E
:1024D00028F0300EBFEC28F01F51BFEC28F00D0E95
:1024E000BFEC28F032EF0FF00D0EC419D8A439EF6D
:1024F0000FF013C42BF02C6A2D6A2E6A2F6A31EC70
:1025000008F0E4EC07F0520EBFEC28F0530EBFECDD
:1025100028F0300EBFEC28F0370EBFEC28F03D0E4F
:10252000BFEC28F02250BFEC28F02150BFEC28F07F
:102530000D0EBFEC28F032EF0FF00D0EC419D8A429
:1025400039EF0FF0040E1219D8B439EF0FF0010E65
:10255000116F56EF0FF00D0EC419D8A439EF0FF01C
:1025600050C02BF02C6A2D6A2E6A2F6A31EC08F0CD
:10257000E4EC07F0520EBFEC28F0530EBFEC28F04D
:10258000300EBFEC28F0390EBFEC28F03D0EBFEC4A
:1025900028F02350BFEC28F02250BFEC28F0215047
:1025A000BFEC28F00D0EBFEC28F032EF0FF00D0E4F
:1025B000C419D8A439EF0FF03A692CEC2CF056EF7F
:1025C0000FF00D0EC419D8A439EF0FF0520EBFEC66
:1025D00028F0530EBFEC28F0310EBFEC28F0340E7B
:1025E000BFEC28F03D0EBFEC28F005C42BF006C46C
:1025F0002DF007C42EF008C42FF031EC08F0E4EC05
:1026000007F02A50BFEC28F02950BFEC28F02850E2
:10261000BFEC28F02750BFEC28F02650BFEC28F084
:102620002550BFEC28F02450BFEC28F02350BFEC1D
:1026300028F02250BFEC28F02150BFEC28F00D0EFE
:10264000BFEC28F032EF0FF00D0EC419D8A439EF0B
:102650000FF0FF000D0EC419D8B450EF13F00D0E9B
:10266000D119D8A439EF0FF0C5C44DF5C6C44EF545
:10267000C7C44FF5C8C450F5C9C451F5CAC452F512
:10268000CBC453F5CCC454F5CDC455F5CEC456F5E2
:10269000CFC457F5D0C458F589EC1DF056EF0FF0B4
:1026A000520EBFEC28F0530EBFEC28F0310EBFECF9
:1026B00028F0390EBFEC28F03D0EBFEC28F040ECBE
:1026C0001DF04DC582F4BEEC28F04EC582F4BEEC80
:1026D00028F04FC582F4BEEC28F050C582F4BEEC61
:1026E00028F051C582F4BEEC28F052C582F4BEEC4D
:1026F00028F053C582F4BEEC28F054C582F4BEEC39
:1027000028F055C582F4BEEC28F056C582F4BEEC24
:1027100028F057C582F4BEEC28F058C582F4BEEC10
:1027200028F00D0EBFEC28F032EF0FF00D0EC4199B
:10273000D8B4B6EF13F00D0ECE19D8A439EF0FF0C0
:10274000C5C459F5C6C45AF5C7C45BF5C8C45CF521
:10275000C9C45DF5CAC45EF5CBC45FF5CCC460F5F1
:10276000CDC461F53AEC1EF056EF0FF0520EBFECFF
:1027700028F0530EBFEC28F0320EBFEC28F0300EDC
:10278000BFEC28F03D0EBFEC28F003EC1EF059C55D
:1027900082F4BEEC28F05AC582F4BEEC28F05BC58A
:1027A00082F4BEEC28F05CC582F4BEEC28F05DC576
:1027B00082F4BEEC28F05EC582F4BEEC28F05FC562
:1027C00082F4BEEC28F060C582F4BEEC28F061C54E
:1027D00082F4BEEC28F00D0EBFEC28F032EF0FF0C3
:1027E0000D0EC419D8B414EF14F00D0ED019D8A4DE
:1027F00039EF0FF0C5C462F5C6C463F5C7C464F50C
:10280000C8C465F5C9C466F5CAC467F5CBC468F524
:10281000CCC469F5CDC46AF5CEC46BF5CFC46CF5F4
:10282000D9EC1EF056EF0FF0520EBFEC28F0530E0D
:10283000BFEC28F0320EBFEC28F0310EBFEC28F0D0
:102840003D0EBFEC28F096EC1EF062C582F4BEECA3
:1028500028F063C582F4BEEC28F064C582F4BEECB7
:1028600028F065C582F4BEEC28F066C582F4BEECA3
:1028700028F067C582F4BEEC28F068C582F4BEEC8F
:1028800028F069C582F4BEEC28F06AC582F4BEEC7B
:1028900028F06BC582F4BEEC28F06CC582F4BEEC67
:1028A00028F00D0EBFEC28F032EF0FF00D0EC4191A
:1028B000D8B48BEF14F03D0EC419D8A439EF0FF043
:1028C0000D0EC619D8A439EF0FF0300EC519D8B4C3
:1028D00071EF14F0310EC519D8B47EEF14F071EF1A
:1028E00014F075EF14F039EF0FF0040E1219D8B48C
:1028F00039EF0FF00B0E116F56EF0FF082EF14F05F
:1029000039EF0FF0040E1219D8B439EF0FF00A0E98
:10291000116F56EF0FF0BBEC27F0520EBFEC28F012
:10292000530EBFEC28F0320EBFEC28F0320EBFEC95
:1029300028F03D0EBFEC28F0000E8819D8B4ADEF9A
:1029400014F0010E8819D8B4B5EF14F0020E8819EE
:10295000D8B4BDEF14F0BDEF14F0300EBFEC28F08A
:102960000D0EBFEC28F032EF0FF0310EBFEC28F067
:102970000D0EBFEC28F032EF0FF0320EBFEC28F056
:102980000D0EBFEC28F032EF0FF00D0EC419D8B4C5
:10299000FAEF14F03D0EC419D8A439EF0FF00D0E64
:1029A000C619D8A439EF0FF0300EC519D8B4E0EF2E
:1029B00014F0310EC519D8B4EDEF14F0EDEF14F0AA
:1029C000E4EF14F039EF0FF0040E1219D8B439EF18
:1029D0000FF0080E116F56EF0FF0F1EF14F039EF12
:1029E0000FF0040E1219D8B439EF0FF0090E116F61
:1029F00056EF0FF0D2EC27F0520EBFEC28F0530E3A
:102A0000BFEC28F0320EBFEC28F0330EBFEC28F0FC
:102A10003D0EBFEC28F0000E8919D8B417EF15F061
:102A2000010E8919D8B41FEF15F01FEF15F0300E05
:102A3000BFEC28F00D0EBFEC28F032EF0FF0310E96
:102A4000BFEC28F00D0EBFEC28F032EF0FF00D0EAA
:102A5000C419D8B439EF15F00D0EC719D8A439EF41
:102A60000FF0C5C46DF5C6C46EF556EC1FF056EFF9
:102A70000FF0520EBFEC28F0530EBFEC28F0320ED0
:102A8000BFEC28F0340EBFEC28F03D0EBFEC28F070
:102A900049EC1FF06DC582F4BEEC28F06EC582F4DF
:102AA000BEEC28F00D0EBFEC28F032EF0FF00D0E4B
:102AB000C419D8A439EF0FF05AC02BF02C6A2D6A34
:102AC0002E6A2F6A31EC08F0E4EC07F0520EBFECEE
:102AD00028F0530EBFEC28F0320EBFEC28F0350E74
:102AE000BFEC28F03D0EBFEC28F02350BFEC28F0DF
:102AF0002250BFEC28F02150BFEC28F00D0EBFECA7
:102B000028F032EF0FF00D0EC419D8A439EF0FF0F2
:102B100087C42BF02C6A2D6A2E6A2F6A31EC08F0DC
:102B2000E4EC07F0520EBFEC28F0530EBFEC28F097
:102B3000320EBFEC28F0360EBFEC28F03D0EBFEC95
:102B400028F02150BFEC28F00D0EBFEC28F032EF3A
:102B50000FF00D0EC419D8B4F4EF15F00D0EC7190F
:102B6000D8B4CDEF15F00D0EC619D8B4BAEF15F0E4
:102B700039EF0FF052EC07F0C5515DEC08F0010A97
:102B8000D8A439EF0FF0C5C42AF062EC07F0BCEC12
:102B900007F02BC0A8F4E9EF15F052EC07F0C5518F
:102BA0005DEC08F0010AD8A439EF0FF0C5C429F094
:102BB000C6515DEC08F0010AD8A439EF0FF0C6C485
:102BC0002AF062EC07F0BCEC07F02BC0A8F4E9EFA8
:102BD00015F0A853630804E001E602D0630EA86F65
:102BE0001BEC1AF056EF0FF00D0EC419D8A439EFF4
:102BF0000FF0A8C42BF02C6A2D6A2E6A2F6A31ECD4
:102C000008F0E4EC07F0520EBFEC28F0530EBFECD6
:102C100028F0320EBFEC28F0370EBFEC28F03D0E46
:102C2000BFEC28F02250BFEC28F02150BFEC28F078
:102C30000D0EBFEC28F032EF0FF00D0EC419D8B412
:102C400075EF16F00D0EC719D8B441EF16F00D0E42
:102C5000C619D8B42EEF16F039EF0FF052EC07F08A
:102C6000C5515DEC08F0010AD8A439EF0FF0C5C4D6
:102C70002AF062EC07F0BCEC07F02BC05FF05DEFD0
:102C800016F052EC07F0C5515DEC08F0010AD8A42B
:102C900039EF0FF0C5C429F0C6515DEC08F0010A08
:102CA000D8A439EF0FF0C6C42AF062EC07F0BCECF0
:102CB00007F02BC05FF05DEF16F05F6664EF16F073
:102CC000010E5F6E39EF0FF05F50190806E001E664
:102CD00004D0190E5F6E39EF0FF00AEC1AF05FC0E6
:102CE0000AF09CEC19F056EF0FF00D0EC419D8A4A1
:102CF00039EF0FF05FC02BF02C6A2D6A2E6A2F6A15
:102D000031EC08F0E4EC07F0520EBFEC28F0530E63
:102D1000BFEC28F0320EBFEC28F0380EBFEC28F0E4
:102D20003D0EBFEC28F02250BFEC28F02150BFEC44
:102D300028F00D0EBFEC28F032EF0FF00D0EC41985
:102D4000D8A439EF0FF03AC02BF03BC02CF02D6A1D
:102D50002E6A2F6A31EC08F0E4EC07F0520EBFEC5B
:102D600028F0530EBFEC28F0320EBFEC28F0390EDD
:102D7000BFEC28F03D0EBFEC28F02450BFEC28F04B
:102D80002350BFEC28F02250BFEC28F02150BFECBC
:102D900028F00D0EBFEC28F032EF0FF00D0EC41925
:102DA000D8B4C9EF17F03D0EC419D8A439EF0FF00D
:102DB0000D0EC619D8B4F3EF16F00D0EC719D8B41E
:102DC00008EF17F00D0EC819D8B426EF17F00D0E46
:102DD000C919D8B44DEF17F00D0ECA19D8B47DEF4C
:102DE00017F039EF0FF052EC07F0C5515DEC08F029
:102DF000010AD8A439EF0FF0C5C42AF062EC07F03D
:102E0000BCEC07F02BC004F52CC005F5B6EF17F0AD
:102E100052EC07F0C5515DEC08F0010AD8A439EF77
:102E20000FF0C5C429F0C6515DEC08F0010AD8A422
:102E300039EF0FF0C6C42AF062EC07F0BCEC07F0E3
:102E40002BC004F52CC005F5B6EF17F052EC07F0D7
:102E5000C5515DEC08F0010AD8A439EF0FF0C5C4E4
:102E600028F0C6515DEC08F0010AD8A439EF0FF044
:102E7000C6C429F0C7515DEC08F0010AD8A439EFA7
:102E80000FF0C7C42AF062EC07F0BCEC07F02BC0CF
:102E900004F52CC005F5B6EF17F052EC07F0C5515C
:102EA0005DEC08F0010AD8A439EF0FF0C5C427F093
:102EB000C6515DEC08F0010AD8A439EF0FF0C6C482
:102EC00028F0C7515DEC08F0010AD8A439EF0FF0E3
:102ED000C7C429F0C8515DEC08F0010AD8A439EF45
:102EE0000FF0C8C42AF062EC07F0BCEC07F02BC06E
:102EF00004F52CC005F5B6EF17F052EC07F0C551FC
:102F00005DEC08F0010AD8A439EF0FF0C5C426F033
:102F1000C6515DEC08F0010AD8A439EF0FF0C6C421
:102F200027F0C7515DEC08F0010AD8A439EF0FF083
:102F3000C7C428F0C8515DEC08F0010AD8A439EFE5
:102F40000FF0C8C429F0C9515DEC08F0010AD8A4FB
:102F500039EF0FF0C9C42AF062EC07F0BCEC07F0BF
:102F60002BC004F52CC005F5B6EF17F00501110EC6
:102F7000045D270E055902E7C4EF17F00501100E96
:102F8000046F270E056F040104011FEC1BF056EFC0
:102F90000FF004C52BF005C52DF02E6A2F6A31EC19
:102FA00008F0E4EC07F0520EBFEC28F0530EBFEC33
:102FB00028F0330EBFEC28F0310EBFEC28F03D0EA8
:102FC000BFEC28F02550BFEC28F02450BFEC28F0CF
:102FD0002350BFEC28F02250BFEC28F02150BFEC6A
:102FE00028F00D0EBFEC28F032EF0FF00D0EC419D3
:102FF000D8A439EF0FF00C0E116F56EF0FF03D0E05
:10300000C419D8A439EF0FF00D0EC619D8B41FEFAC
:1030100018F00D0EC719D8B434EF18F00D0EC819FA
:10302000D8B452EF18F00D0EC919D8B479EF18F0D2
:103030000D0ECA19D8B4A9EF18F039EF0FF052EC01
:1030400007F0C5515DEC08F0010AD8A439EF0FF084
:10305000C5C42AF062EC07F0BCEC07F02BC0E0F42A
:103060002CC0E1F4E2EF18F052EC07F0C5515DEC32
:1030700008F0010AD8A439EF0FF0C5C429F0C651F1
:103080005DEC08F0010AD8A439EF0FF0C6C42AF0AD
:1030900062EC07F0BCEC07F02BC0E0F42CC0E1F4CC
:1030A000E2EF18F052EC07F0C5515DEC08F0010AB0
:1030B000D8A439EF0FF0C5C428F0C6515DEC08F074
:1030C000010AD8A439EF0FF0C6C429F0C7515DEC4E
:1030D00008F0010AD8A439EF0FF0C7C42AF062EC57
:1030E00007F0BCEC07F02BC0E0F42CC0E1F4E2EFF9
:1030F00018F052EC07F0C5515DEC08F0010AD8A4B5
:1031000039EF0FF0C5C427F0C6515DEC08F0010A95
:10311000D8A439EF0FF0C6C428F0C7515DEC08F011
:10312000010AD8A439EF0FF0C7C429F0C8515DECEB
:1031300008F0010AD8A439EF0FF0C8C42AF062ECF5
:1031400007F0BCEC07F02BC0E0F42CC0E1F4E2EF98
:1031500018F052EC07F0C5515DEC08F0010AD8A454
:1031600039EF0FF0C5C426F0C6515DEC08F0010A36
:10317000D8A439EF0FF0C6C427F0C7515DEC08F0B2
:10318000010AD8A439EF0FF0C7C428F0C8515DEC8C
:1031900008F0010AD8A439EF0FF0C8C429F0C951CA
:1031A0005DEC08F0010AD8A439EF0FF0C9C42AF089
:1031B00062EC07F0BCEC07F02BC0E0F42CC0E1F4AB
:1031C000E2EF18F0D10EE05D070EE15902E7EDEFF6
:1031D00018F0D10EE06F070EE16F0D0E116F56EF74
:1031E0000FF0190E5160F6EF18F0010CC80E516483
:1031F000000C010C010E5360FFEF18F0010C630E80
:103200005364000C010C6CEC19F0046753EF19F0D7
:10321000010E046F73EC19F00EEF19F099EC19F030
:103220008BEC19F088EC19F07AEC19F05EEC1AF0DE
:1032300045EC1AF0C7EC19F0ADEC19F0AAEC19F056
:103240009CEC19F0E6EC19F0CCEC19F08BEC1AF0D0
:103250007DEC1AF0C0EC1AF08EEC1AF00FEC1DF0B9
:10326000C6EC1CF0D2EC1DF089EC1DF071EC1EF0E8
:103270003AEC1EF01CEC1FF0D9EC1EF063EC1FF0D2
:1032800056EC1FF005EC1AF0EBEC19F018EC1AF004
:103290000AEC1AF029EC1AF01BEC1AF07EEC1FF085
:1032A0006CEC1FF0120092EC19F081EC19F02CEC90
:1032B0001AF0BAEC19F0A3EC19F0D9EC19F084EC7F
:1032C0001AF0A7EC1AF0F8EC19F011EC1AF022EC55
:1032D0001AF075EC1FF01200000E106ED0EC06F024
:1032E00011C004F41200000E106E04C411F0DCECE6
:1032F00006F01200010E106E53C011F0DCEC06F067
:103300001200010E106ED0EC06F011C053F0120046
:103310000A0E536E1200020E106E51C011F0DCEC5A
:1033200006F01200020E106ED0EC06F011C051F043
:103330001200A50E516E1200030E106E0AC011F09D
:10334000DCEC06F01200030E106ED0EC06F011C09B
:103350000AF01200030E0A6E1200040E106E08C06E
:1033600011F0DCEC06F0050E106E07C011F0DCEC7D
:1033700006F01200040E106ED0EC06F011C008F03A
:10338000050E106ED0EC06F011C007F012000A0E08
:10339000086E020E076E1200060E106E55C011F078
:1033A000DCEC06F0070E106E54C011F0DCEC06F0F9
:1033B0001200060E106ED0EC06F011C055F0070E8C
:1033C000106ED0EC06F011C054F012000A0E556ECB
:1033D000020E546E12000E0E106E5DC011F0DCEC89
:1033E00006F00F0E106E5CC011F0DCEC06F012005F
:1033F0000E0E106ED0EC06F011C05DF00F0E106EC8
:10340000D0EC06F011C05CF012000A0E5D6E020EE8
:103410005C6E1200110E106E5FC011F0DCEC06F055
:103420001200110E106ED0EC06F011C05FF0120009
:10343000030E5F6E1200120E106EA8C411F0DCECC9
:1034400006F01200120E106ED0EC06F011C0A8F4B7
:103450001200000EA86F1200080E106ED0EC06F0DD
:1034600011C005F4090E106ED0EC06F011C006F480
:103470000A0E106ED0EC06F011C007F40B0E106EA1
:10348000D0EC06F011C008F41200080E106E05C44E
:1034900011F0DCEC06F0090E106E06C411F0DCEC45
:1034A00006F00A0E106E07C411F0DCEC06F00B0EED
:1034B000106E08C411F0DCEC06F01200000E056F6F
:1034C000000E066F000E076F000E086F1200010E4F
:1034D0000527000E0623000E0723000E0823800E8A
:1034E000086176EF1AF045EC1AF01200056B066BD6
:1034F000076B086B45EC1AF012000C0E106E0CC432
:1035000011F0DCEC06F012000C0E106ED0EC06F0A0
:1035100011C00CF41200000E0C6E1200D9EC1AF05F
:10352000FCEC1AF01FEC1BF065EC1BF088EC1BF0B8
:10353000ABEC1BF0F1EC1BF014EC1CF037EC1CF0C6
:1035400042EC1BF0CEEC1BF05AEC1CF01200E6EC47
:103550001AF009EC1BF02CEC1BF072EC1BF095EC54
:103560001BF0B8EC1BF0FEEC1BF021EC1CF044EC63
:103570001CF04FEC1BF0DBEC1BF067EC1CF01200B6
:10358000F3EC1AF016EC1BF039EC1BF07FEC1BF09F
:10359000A2EC1BF0C5EC1BF00BEC1CF02EEC1CF0AD
:1035A00051EC1CF05CEC1BF0E8EC1BF074EC1CF034
:1035B0001200800E106E00C511F0DCEC06F0810EDA
:1035C000106E01C511F0DCEC06F01200800E106EDA
:1035D000D0EC06F011C000F5810E106ED0EC06F0B4
:1035E00011C001F51200000E586E58C000F5000E13
:1035F000586E58C001F51200820E106E02C511F00F
:10360000DCEC06F0830E106E03C511F0DCEC06F066
:103610001200820E106ED0EC06F011C002F5830E7F
:10362000106ED0EC06F011C003F51200000E586EBB
:1036300058C002F5000E586E58C003F51200840EF3
:10364000106E04C511F0DCEC06F0850E106E05C599
:1036500011F0DCEC06F01200840E106ED0EC06F0D7
:1036600011C004F5850E106ED0EC06F011C005F502
:103670001200000E586E58C004F5000E586E58C067
:1036800005F51200860E106E06C511F0DCEC06F092
:10369000870E106E07C511F0DCEC06F01200860EE6
:1036A000106ED0EC06F011C006F5870E106ED0EC4F
:1036B00006F011C007F51200000E586E58C006F54E
:1036C000000E586E58C007F51200900E106E10C50F
:1036D00011F0DCEC06F0910E106E11C511F0DCEC6F
:1036E00006F01200900E106ED0EC06F011C010F52E
:1036F000910E106ED0EC06F011C011F51200E80E1C
:10370000586E58C010F5030E586E58C011F51200CF
:10371000920E106E12C511F0DCEC06F0930E106ED6
:1037200013C511F0DCEC06F01200920E106ED0EC16
:1037300006F011C012F5930E106ED0EC06F011C019
:1037400013F51200000E586E58C012F5000E586E98
:1037500058C013F51200940E106E14C511F0DCEC75
:1037600006F0950E106E15C511F0DCEC06F0120097
:10377000940E106ED0EC06F011C014F5950E106E7C
:10378000D0EC06F011C015F51200000E586E58C0AE
:1037900014F5000E586E58C015F51200960E106EF6
:1037A00016C511F0DCEC06F0970E106E17C511F07F
:1037B000DCEC06F01200960E106ED0EC06F011C094
:1037C00016F5970E106ED0EC06F011C017F512002A
:1037D000000E586E58C016F5000E586E58C017F5FA
:1037E0001200A00E106E20C511F0DCEC06F0A10E48
:1037F000106E21C511F0DCEC06F01200A00E106E68
:10380000D0EC06F011C020F5A10E106ED0EC06F041
:1038100011C021F51200000E586E58C020F5000EA0
:10382000586E58C021F51200A20E106E22C511F07C
:10383000DCEC06F0A30E106E23C511F0DCEC06F0F4
:103840001200A20E106ED0EC06F011C022F5A30EED
:10385000106ED0EC06F011C023F51200000E586E69
:1038600058C022F5000E586E58C023F51200A40E61
:10387000106E24C511F0DCEC06F0A50E106E25C507
:1038800011F0DCEC06F01200A40E106ED0EC06F085
:1038900011C024F5A50E106ED0EC06F011C025F570
:1038A0001200000E586E58C024F5000E586E58C015
:1038B00025F51200A60E106E26C511F0DCEC06F000
:1038C000A70E106E27C511F0DCEC06F01200A60E54
:1038D000106ED0EC06F011C026F5A70E106ED0ECDD
:1038E00006F011C027F51200000E586E58C026F5DC
:1038F000000E586E58C027F51200200E106ED0EC46
:1039000006F011C040F5210E106ED0EC06F011C08B
:1039100041F5220E106ED0EC06F011C042F5230ED8
:10392000106ED0EC06F011C043F5240E106ED0ECF2
:1039300006F011C044F5250E106ED0EC06F011C053
:1039400045F5260E106ED0EC06F011C047F5270E97
:10395000106ED0EC06F011C048F5280E106ED0ECB9
:1039600006F011C049F5290E106ED0EC06F011C01A
:103970004AF5300E106ED0EC06F011C04BF5310E4A
:10398000106ED0EC06F011C04CF51200200E106E37
:1039900040C511F0DCEC06F0210E106E41C511F0AF
:1039A000DCEC06F0220E106E42C511F0DCEC06F0E5
:1039B000230E106E43C511F0DCEC06F0240E106EE1
:1039C00044C511F0DCEC06F0250E106E45C511F073
:1039D000DCEC06F0260E106E47C511F0DCEC06F0AC
:1039E000270E106E48C511F0DCEC06F0280E106EA4
:1039F00049C511F0DCEC06F0290E106E4AC511F035
:103A0000DCEC06F0300E106E4BC511F0DCEC06F06D
:103A1000310E106E4CC511F0DCEC06F01200000EF9
:103A20008A6E8AC440F5000E8A6E8AC441F5000E83
:103A30008A6E8AC442F5000E8A6E8AC443F5000E6F
:103A40008A6E8AC444F5000E8A6E8AC445F5000E5B
:103A50008A6E8AC447F5000E8A6E8AC448F5000E45
:103A60008A6E8AC449F5000E8A6E8AC44AF5000E31
:103A70008A6E8AC44BF5000E8A6E8AC44CF5120019
:103A8000320E106ED0EC06F011C04DF5330E106EF4
:103A9000D0EC06F011C04EF5340E106ED0EC06F0EE
:103AA00011C04FF5350E106ED0EC06F011C050F578
:103AB000360E106ED0EC06F011C051F5370E106EB8
:103AC000D0EC06F011C052F5380E106ED0EC06F0B6
:103AD00011C053F5390E106ED0EC06F011C054F53C
:103AE000400E106ED0EC06F011C055F5410E106E70
:103AF000D0EC06F011C056F5420E106ED0EC06F078
:103B000011C057F5430E106ED0EC06F011C058F5F9
:103B10001200320E106E4DC511F0DCEC06F0330EC3
:103B2000106E4EC511F0DCEC06F0340E106E4FC571
:103B300011F0DCEC06F0350E106E50C511F0DCEC27
:103B400006F0360E106E51C511F0DCEC06F0370EA3
:103B5000106E52C511F0DCEC06F0380E106E53C535
:103B600011F0DCEC06F0390E106E54C511F0DCECEF
:103B700006F0400E106E55C511F0DCEC06F0410E5B
:103B8000106E56C511F0DCEC06F0420E106E57C5F3
:103B900011F0DCEC06F0430E106E58C511F0DCECB1
:103BA00006F01200000E8A6E8AC44DF5000E8A6E71
:103BB0008AC44EF5000E8A6E8AC44FF5000E8A6ED6
:103BC0008AC450F5000E8A6E8AC451F5000E8A6EC2
:103BD0008AC452F5000E8A6E8AC453F5000E8A6EAE
:103BE0008AC454F5000E8A6E8AC455F5000E8A6E9A
:103BF0008AC456F5000E8A6E8AC457F5000E8A6E86
:103C00008AC458F51200440E106ED0EC06F011C0B4
:103C100059F5450E106ED0EC06F011C05AF5460E5F
:103C2000106ED0EC06F011C05BF5470E106ED0ECB4
:103C300006F011C05CF5480E106ED0EC06F011C015
:103C40005DF5490E106ED0EC06F011C05EF5500E19
:103C5000106ED0EC06F011C05FF5510E106ED0EC76
:103C600006F011C060F5520E106ED0EC06F011C0D7
:103C700061F51200440E106E59C511F0DCEC06F02F
:103C8000450E106E5AC511F0DCEC06F0460E106EB3
:103C90005BC511F0DCEC06F0470E106E5CC511F050
:103CA000DCEC06F0480E106E5DC511F0DCEC06F0A1
:103CB000490E106E5EC511F0DCEC06F0500E106E71
:103CC0005FC511F0DCEC06F0510E106E60C511F00E
:103CD000DCEC06F0520E106E61C511F0DCEC06F063
:103CE0001200000E8A6E8AC459F5000E8A6E8AC4CC
:103CF0005AF5000E8A6E8AC45BF5000E8A6E8AC47D
:103D00005CF5000E8A6E8AC45DF5000E8A6E8AC468
:103D10005EF5000E8A6E8AC45FF5000E8A6E8AC454
:103D200060F5000E8A6E8AC461F51200530E106EA3
:103D3000D0EC06F011C062F5540E106ED0EC06F017
:103D400011C063F5550E106ED0EC06F011C064F58D
:103D5000560E106ED0EC06F011C065F5570E106EC1
:103D6000D0EC06F011C066F5580E106ED0EC06F0DF
:103D700011C067F5590E106ED0EC06F011C068F551
:103D8000600E106ED0EC06F011C069F5610E106E79
:103D9000D0EC06F011C06AF5620E106ED0EC06F0A1
:103DA00011C06BF5630E106ED0EC06F011C06CF50F
:103DB0001200530E106E62C511F0DCEC06F0540ECA
:103DC000106E63C511F0DCEC06F0550E106E64C584
:103DD00011F0DCEC06F0560E106E65C511F0DCEC4F
:103DE00006F0570E106E66C511F0DCEC06F0580EAA
:103DF000106E67C511F0DCEC06F0590E106E68C548
:103E000011F0DCEC06F0600E106E69C511F0DCEC10
:103E100006F0610E106E6AC511F0DCEC06F0620E61
:103E2000106E6BC511F0DCEC06F0630E106E6CC505
:103E300011F0DCEC06F01200000E8A6E8AC462F506
:103E4000000E8A6E8AC463F5000E8A6E8AC464F519
:103E5000000E8A6E8AC465F5000E8A6E8AC466F505
:103E6000000E8A6E8AC467F5000E8A6E8AC468F5F1
:103E7000000E8A6E8AC469F5000E8A6E8AC46AF5DD
:103E8000000E8A6E8AC46BF5000E8A6E8AC46CF5C9
:103E90001200640E106ED0EC06F011C06DF5650EC8
:103EA000106ED0EC06F011C06EF51200640E106EAC
:103EB0006DC511F0DCEC06F0650E106E6EC511F0EC
:103EC000DCEC06F01200000E8A6E8AC46DF5000E5E
:103ED0008A6E8AC46EF5120087EC1FF0A6EC1FF004
:103EE000C5EC1FF0E4EC1FF0120094EC1FF0B3ECF3
:103EF0001FF0D2EC1FF0F1EC1FF01200A1EC1FF04C
:103F0000C0EC1FF0DFEC1FF0FEEC1FF01200F00E13
:103F1000106E69C411F0DCEC06F0F10E106E6DC489
:103F200011F0DCEC06F01200F00E106ED0EC06F092
:103F300011C069F4F10E106ED0EC06F011C06DF4F2
:103F40001200320E696F000E6D6F1200F20E106ECD
:103F50006BC411F0DCEC06F0F30E106E6CC411F0C3
:103F6000DCEC06F01200F20E106ED0EC06F011C080
:103F70006BF4F30E106ED0EC06F011C06CF412006E
:103F8000640E6B6F000E6C6F1200F40E106E68C43E
:103F900011F0DCEC06F0F50E106E6EC411F0DCECE6
:103FA00006F01200F40E106ED0EC06F011C068F4AA
:103FB000F50E106ED0EC06F011C06EF41200B40EC7
:103FC000686F000E6E6F1200F60E106E6FC411F067
:103FD000DCEC06F0F70E106E6AC411F0DCEC06F0B3
:103FE0001200F60E106ED0EC06F011C06FF4F70E52
:103FF000106ED0EC06F011C06AF41200E80E6F6F7C
:10400000030E6A6F1200AA6BAB6B000E566E1200A5
:10401000AA6727EF20F0AB6714EF20F010EF20F035
:10402000016B006BAB691200A96719EF20F01CEF60
:1040300020F0030E1FEF20F0010E1FEF20F00019FB
:10404000D8B426EF20F025EF20F01200AA69A96B62
:10405000010E566E1200AA6BAB6B020E566E12006A
:10406000000E576E1200010E576E1200020E576EB0
:104070001200000E5B6E010E876F1200010E5B6E68
:10408000000E876F1200020E5B6E020E876F120029
:10409000030E1219D8B41200010E126F1200040E92
:1040A000126F1200030E1219D8B41200040E126F10
:1040B0001200030E126F1200030E1219D8B4120070
:1040C00025671200000E126F1200030E1219D8B4E9
:1040D000120025671200020E126F1200030E121951
:1040E000D8B41200050E126F2A691200030E1219BD
:1040F000D8B41200060E126F1200030E1219D8B4B3
:104100001200070E126F2A6B12004F0EEDEC28F012
:104110004B0EEDEC28F00D0EEDEC28F032EF0FF029
:10412000450EEDEC28F0520EEDEC28F0520EEDECC1
:1041300028F00D0EEDEC28F032EF0FF0230EBF1932
:10414000D8A490EF20F0450EC019D8A490EF20F02D
:104150004E0EC119D8A490EF20F0470EC219D8A472
:1041600090EF20F02F0EC319D8A490EF20F0020E8C
:10417000300FC46390EF20F0090E300FC56390EF4D
:1041800020F0000E300FC66390EF20F0020E300FCB
:10419000C76390EF20F0010E300FC86390EF20F05E
:1041A0002F0EC919D8A490EF20F0430ECA19D8B425
:1041B00074EF21F0560ECA19D8B406EF22F0420E61
:1041C000CA19D8B43DEF22F0520ECA19D8B40EEF76
:1041D00021F0540ECA19D8B43AEF21F0480ECA198A
:1041E000D8B429EF21F04A0ECA19D8B4CEEF21F085
:1041F0004D0ECA19D8B489EF24F0500ECA19D8B49C
:104200004BEF21F0530ECA19D8B452EF21F0460EED
:10421000CA19D8B463EF21F090EF20F0520ECB19F9
:10422000D8B4A2EF27F0550ECB19D8B46FEF27F012
:10423000450ECB19D8B485EF22F0530ECB19D8A474
:1042400090EF20F0320ECC19D8A4A1EF22F090EF1D
:1042500020F0540ECB19D8A490EF20F02F0ECD19DA
:10426000D8B49BEF23F00D0ECD19D8B412EF23F084
:1042700090EF20F0540ECB19D8A490EF20F02F0E21
:10428000CC19D8B4DCEF22F00D0ECC19D8B4BEEFA7
:1042900022F090EF20F0440ECB19D8B45BEF24F05D
:1042A00090EF20F0550ECB19D8B49EEF25F0440EB8
:1042B000CB19D8B4EAEF25F0530ECB19D8B437EFA9
:1042C00027F090EF20F0410ECB19D8B495EF27F0EE
:1042D000460ECB19D8B436EF26F0530ECB19D8B40E
:1042E00040EF27F090EF20F04F0ECB19D8A490EFBD
:1042F00020F0550ECC19D8A490EF20F04E0ECD1919
:10430000D8A490EF20F0540ECE19D8A490EF20F04E
:104310000D0ECF19D8A490EF20F0430EEDEC28F04D
:104320004F0EEDEC28F0550EEDEC28F04E0EEDECB6
:1043300028F0540EEDEC28F03D0EEDEC28F005C40D
:104340002BF006C42DF007C42EF008C42FF031EC7A
:1043500008F0E4EC07F02A50EDEC28F02950EDECE1
:1043600028F02850EDEC28F02750EDEC28F02650EE
:10437000EDEC28F02550EDEC28F02450EDEC28F081
:104380002350EDEC28F02250EDEC28F02150EDEC1C
:1043900028F00D0EEDEC28F032EF0FF04F0ECB1998
:1043A000D8A490EF20F0420ECC19D8A490EF20F0C2
:1043B0000D0ECD19D8A490EF20F0490EEDEC28F0A9
:1043C000440EEDEC28F0300E1B6F020E1B25EDECB9
:1043D00028F0300E1B6F090E1B25EDEC28F0300E77
:1043E0001B6F000E1B25EDEC28F0300E1B6F020E2C
:1043F0001B25EDEC28F0300E1B6F010E1B25EDEC9C
:1044000028F00D0EEDEC28F032EF0FF0450ECB1931
:10441000D8A490EF20F0520ECC19D8A490EF20F041
:10442000530ECD19D8A490EF20F0490ECE19D8A480
:1044300090EF20F04F0ECF19D8A490EF20F04E0E41
:10444000D019D8A490EF20F00D0ED119D8A490EF78
:1044500020F0560EEDEC28F0340EEDEC28F02E0E88
:10446000EDEC28F0300EEDEC28F0320EEDEC28F0FB
:104470000D0EEDEC28F032EF0FF0550ECB19D8A44D
:1044800090EF20F0490ECC19D8A490EF20F04C0EFC
:10449000CD19D8A490EF20F0440ECE19D8A490EFF7
:1044A00020F00D0ECF19D8A490EF20F0420EEDECC5
:1044B00028F0550EEDEC28F0490EEDEC28F04C0EEE
:1044C000EDEC28F0440EEDEC28F0200EEDEC28F099
:1044D000320EEDEC28F0300EEDEC28F02F0EEDEC66
:1044E00028F0310EEDEC28F0320EEDEC28F02F0E16
:1044F000EDEC28F0310EEDEC28F0310EEDEC28F06B
:104500000D0EEDEC28F032EF0FF0450ECB19D8A4CC
:1045100090EF20F0530ECC19D8A490EF20F0450E68
:10452000CD19D8A490EF20F0540ECE19D8A490EF56
:1045300020F00D0ECF19D8A490EF20F0FF009EEFD1
:1045400022F0520ECA19D8A490EF20F0530ECB19C6
:10455000D8A490EF20F0430ECC19D8A490EF20F00F
:104560002F0ECD19D8A490EF20F0300ECE19D8A47C
:1045700090EF20F076EC1AF085EF20F0540EEDEC81
:1045800028F0540EEDEC28F02F0EEDEC28F00AC0C8
:104590002BF02C6A2D6A2E6A2F6A31EC08F0E4ECBD
:1045A00007F02250EDEC28F02150EDEC28F00D0E34
:1045B000EDEC28F032EF0FF0540ECA19D8A490EFAA
:1045C00020F0540ECB19D8A490EF20F02F0ECC1968
:1045D000D8A490EF20F00D0ECF19D8A490EF20F0C2
:1045E000CD515DEC08F0010AD8A490EF20F0CE5137
:1045F0005DEC08F0010AD8A490EF20F052EC07F02F
:10460000CDC429F0CEC42AF062EC07F0BCEC07F070
:104610002BC00AF09CEC19F00AC05FF00AEC1AF00B
:1046200085EF20F0310ECC19D8B423EF23F0320EF1
:10463000CC19D8B44BEF23F0330ECC19D8B473EFA8
:1046400023F090EF20F0480EEDEC28F0540EEDEC46
:1046500028F0310EEDEC28F02F0EEDEC28F007508D
:10466000300FEDEC28F02F0EEDEC28F008C02BF009
:104670002C6A2D6A2E6A2F6A31EC08F0E4EC07F000
:104680002250EDEC28F02150EDEC28F00D0EEDEC71
:1046900028F032EF0FF0480EEDEC28F0540EEDEC60
:1046A00028F0320EEDEC28F02F0EEDEC28F05450EF
:1046B000300FEDEC28F02F0EEDEC28F055C02BF06C
:1046C0002C6A2D6A2E6A2F6A31EC08F0E4EC07F0B0
:1046D0002250EDEC28F02150EDEC28F00D0EEDEC21
:1046E00028F032EF0FF0480EEDEC28F0540EEDEC10
:1046F00028F0330EEDEC28F02F0EEDEC28F05C5096
:10470000300FEDEC28F02F0EEDEC28F05DC02BF013
:104710002C6A2D6A2E6A2F6A31EC08F0E4EC07F05F
:104720002250EDEC28F02150EDEC28F00D0EEDECD0
:1047300028F032EF0FF0480ECA19D8A490EF20F0FD
:10474000540ECB19D8A490EF20F0310ECC19D8B468
:10475000B6EF23F0320ECC19D8B4EDEF23F0330EC0
:10476000CC19D8B424EF24F090EF20F02F0ECD19FF
:10477000D8A490EF20F02F0ECF19D8A490EF20F0FE
:104780000D0ED219D8A490EF20F0CE515DEC08F0B8
:10479000010AD8A490EF20F0300ECE5D076ED05104
:1047A0005DEC08F0010AD8A490EF20F0D1515DEC47
:1047B00008F0010AD8A490EF20F052EC07F0D0C422
:1047C00029F0D1C42AF062EC07F0BCEC07F02BC052
:1047D00008F0ADEC19F085EF20F02F0ECD19D8A41C
:1047E00090EF20F02F0ECF19D8A490EF20F00D0EEF
:1047F000D219D8A490EF20F0CE515DEC08F0010A58
:10480000D8A490EF20F0300ECE5D546ED0515DEC08
:1048100008F0010AD8A490EF20F0D1515DEC08F027
:10482000010AD8A490EF20F052EC07F0D0C429F090
:10483000D1C42AF062EC07F0BCEC07F02BC055F0B5
:10484000CCEC19F085EF20F02F0ECD19D8A490EF05
:1048500020F02F0ECF19D8A490EF20F00D0ED21912
:10486000D8A490EF20F0CE515DEC08F0010AD8A456
:1048700090EF20F0300ECE5D5C6ED0515DEC08F014
:10488000010AD8A490EF20F0D1515DEC08F0010AA4
:10489000D8A490EF20F052EC07F0D0C429F0D1C496
:1048A0002AF062EC07F0BCEC07F02BC05DF0EBECFB
:1048B00019F085EF20F0440ECB19D8A490EF20F02A
:1048C0003D0ECC19D8A490EF20F04F0ECD19D8A4EE
:1048D00090EF20F04E0ECE19D8B474EF24F0460EAF
:1048E000CE19D8B47CEF24F00D0ECF19D8A490EFD8
:1048F00020F08F6B85EF20F00D0ED019D8A490EF2B
:1049000020F0460ECF19D8A490EF20F08F6985EFE4
:1049100020F04F0ECB19D8A490EF20F0560ECC19F2
:10492000D8A490EF20F0450ECD19D8A490EF20F038
:10493000430ECE19D8A490EF20F0410ECF19D8A481
:1049400090EF20F04C0ED019D8A490EF20F02F0E4D
:10495000D119D8A490EF20F052EC07F0D2515DECC1
:1049600008F0010AD8A490EF20F0D2C428F0D35167
:104970005DEC08F0010AD8A490EF20F0D3C429F030
:10498000D4515DEC08F0010AD8A490EF20F0D4C413
:104990002AF062EC07F0BCEC07F02BC01AF42F0EE3
:1049A000D519D8A490EF20F03F0ED619D8B42CEF2B
:1049B00025F00D0EDD19D8A490EF20F02B0ED6199E
:1049C000D8B4EAEF24F02D0ED619D8B4EAEF24F0CB
:1049D00090EF20F0D6C419F42F0ED719D8A490EF79
:1049E00020F052EC07F0D8515DEC08F0010AD8A491
:1049F00090EF20F0D8C426F0D9515DEC08F0010A00
:104A0000D8A490EF20F0D9C427F0DA515DEC08F07B
:104A1000010AD8A490EF20F0DAC428F0DB515DEC55
:104A200008F0010AD8A490EF20F0DBC429F0DC5193
:104A30005DEC08F0010AD8A490EF20F0DCC42AF065
:104A400062EC07F0BCEC07F02BC017F42CC018F494
:104A5000FDEC31F085EF20F00D0ED719D8A490EFC2
:104A600020F052EC07F0D2515DEC08F0010AD8A416
:104A700090EF20F0D2C428F0D3515DEC08F0010A89
:104A8000D8A490EF20F0D3C429F0D4515DEC08F005
:104A9000010AD8A490EF20F0D4C42AF062EC07F009
:104AA000BCEC07F02BC01AF4A5EC32F04D0EEDEC87
:104AB00028F04F0EEDEC28F0560EEDEC28F0450EE8
:104AC000EDEC28F0430EEDEC28F0410EEDEC28F073
:104AD0004C0EEDEC28F02F0EEDEC28F0D251EDEC61
:104AE00028F0D351EDEC28F0D451EDEC28F02F0E46
:104AF000EDEC28F01951EDEC28F02F0EEDEC28F03C
:104B000017C42BF018C42DF02E6A2F6A31EC08F070
:104B1000E4EC07F02550EDEC28F02450EDEC28F003
:104B20002350EDEC28F02250EDEC28F02150EDEC74
:104B300028F00D0EEDEC28F032EF0FF02F0ECC190F
:104B4000D8A490EF20F052EC07F0CD515DEC08F0C6
:104B5000010AD8A490EF20F0CDC426F0CE515DEC30
:104B600008F0010AD8A490EF20F0CEC427F0CF516E
:104B70005DEC08F0010AD8A490EF20F0CFC428F033
:104B8000D0515DEC08F0010AD8A490EF20F0D0C419
:104B900029F0D1515DEC08F0010AD8A490EF20F083
:104BA000D1C42AF062EC07F0BCEC07F02BC0AEF4E5
:104BB0002CC0AFF42BEC29F03DEC33F09CEC2DF045
:104BC00078EC2DF03A67F0EF29F03567E0EF25F04B
:104BD00085EF20F02F0ECC19D8A490EF20F052ECE6
:104BE00007F0CD515DEC08F0010AD8A490EF20F059
:104BF000CDC426F0CE515DEC08F0010AD8A490EFA8
:104C000020F0CEC427F0CF515DEC08F0010AD8A403
:104C100090EF20F0CFC428F0D0515DEC08F0010AED
:104C2000D8A490EF20F0D0C429F0D1515DEC08F069
:104C3000010AD8A490EF20F0D1C42AF062EC07F06A
:104C4000BCEC07F02BC0AEF42CC0AFF42BEC29F079
:104C500056EC33F09CEC2DF078EC2DF03A67F0EF49
:104C600029F035672CEF26F085EF20F00D0ECF19D7
:104C7000D8B4B3EF26F0460ECB19D8A490EF20F0AD
:104C8000420ECC19D8A490EF20F02F0ECD19D8A445
:104C900090EF20F02F0ECF19D8A490EF20F052EC17
:104CA00007F0D0515DEC08F0010AD8A490EF20F095
:104CB000D0C427F0D1515DEC08F0010AD8A490EFE0
:104CC00020F0D1C428F0D2515DEC08F0010AD8A43C
:104CD00090EF20F0D2C429F0D3515DEC08F0010A26
:104CE000D8A490EF20F0D3C42AF062EC07F0BCEC1B
:104CF00007F02BC095F42CC094F4310ECE19D8B423
:104D000093EF26F0320ECE19D8B49BEF26F0330E77
:104D1000CE19D8B4A3EF26F0340ECE19D8B4ABEF29
:104D200026F090EF20F095C469F494C46DF487ECFC
:104D30001FF085EF20F095C46BF494C46CF4A6ECDE
:104D40001FF085EF20F095C468F494C46EF4C5ECB0
:104D50001FF085EF20F095C46FF494C46AF4E4EC7E
:104D60001FF085EF20F0460ECB19D8A490EF20F06D
:104D7000420ECC19D8A490EF20F02F0ECD19D8A454
:104D800090EF20F00D0ECF19D8A490EF20F0310E47
:104D9000CE19D8B4DDEF26F0320ECE19D8B4E5EF37
:104DA00026F0330ECE19D8B4EDEF26F0340ECE191E
:104DB000D8B4F5EF26F090EF20F094EC1FF069C422
:104DC00095F46DC494F4FDEF26F0B3EC1FF06BC4C2
:104DD00095F46CC494F401EF27F0D2EC1FF068C492
:104DE00095F46EC494F405EF27F0F1EC1FF06FC456
:104DF00095F46AC494F409EF27F0310E1C6F0DEF9F
:104E000027F0320E1C6F0DEF27F0330E1C6F0DEFE5
:104E100027F0340E1C6F0DEF27F0460EEDEC28F056
:104E2000460EEDEC28F0420EEDEC28F01C51EDECB6
:104E300028F03D0EEDEC28F095C42BF094C42DF035
:104E40002E6A2F6A31EC08F0E4EC07F02450EDEC08
:104E500028F02350EDEC28F02250EDEC28F0215002
:104E6000EDEC28F00D0EEDEC28F032EF0FF00D0E0A
:104E7000CC19D8A490EF20F00E0E116F85EF20F022
:104E80003F0ECC19D8A490EF20F0460EEDEC28F0A0
:104E9000530EEDEC28F03F0EEDEC28F03D0EEDEC5E
:104EA00028F01E51EDEC28F02CC42BF02DC42DF071
:104EB0002E6A2F6A31EC08F0E4EC07F02450EDEC98
:104EC00028F02350EDEC28F02250EDEC28F0215092
:104ED000EDEC28F00D0EEDEC28F032EF0FF04E0E59
:104EE000CC19D8A490EF20F00D0ECD19D8A490EFD6
:104EF00020F0010E1219D8A44FEF12F0000E561830
:104F0000D8B443EF12F0020E5618D8B447EF12F09F
:104F1000000E5718D8B443EF12F0020E5718D8B449
:104F200047EF12F0E76932EF0FF04E0ECC19D8A41C
:104F300090EF20F00D0ECD19D8A490EF20F0EA6983
:104F400032EF0FF0460ECC19D8A490EF20F00D0EE2
:104F5000CD19D8A490EF20F0E76BE90EE86F030EAF
:104F6000E96FEA6BEB6B32EF0FF0FA0E036F032F72
:104F7000B7EF27F01200F4EC27F03267C2EF27F00A
:104F8000C9EF27F009EC28F03167CCEF27F0CFEF1D
:104F900027F0010E886F1200000E886F1200020EBB
:104FA000886F1200DFEC27F03067DCEF27F0D9EFD5
:104FB00027F0000E896F1200010E896F120084A085
:104FC000F0EF27F0B5EC27F084A0F0EF27F0B5EC78
:104FD00027F084A0F0EF27F0B5EC27F0F2EF27F0F0
:104FE00030691200306B120084A205EF28F0B5EC96
:104FF00027F084A205EF28F0B5EC27F084A205EF96
:1050000028F0B5EC27F007EF28F032691200326B78
:10501000120080A81AEF28F0B5EC27F080A81AEF4C
:1050200028F0B5EC27F080A81AEF28F0B5EC27F0AF
:105030001CEF28F031691200316B12007AEC28F075
:105040007DEC28F09EEC28F0A2EC28F0AC98AC9A0D
:10505000AC9CAC8EAB90AB96AB98AB9AAB9CAB8E4A
:105060009E989E9A9D989D8AF28CF28E4DEC28F027
:105070001200AC94190EAF6E1EEC28F01200AC8436
:10508000810EAF6E1EEC28F01200AC8AAB881200C5
:10509000AC9AAB981200AB981200AB881200AC8AA5
:1050A0001200AC9A1200ABB45FEF28F0ABB25BEF2A
:1050B00028F063EF28F0AE50AB98AB881200AE50EA
:1050C000AB98AB881200AECF09F4200EB719D8A464
:1050D00077EF28F0020E0919D8B477EF28F0230EE5
:1050E0000919D8B477EF28F076EF28F0120082EC97
:1050F00028F01200DCEC04F01200D2EC04F002EC18
:1051000005F0120009C4B6F4E6EC04F0010AD8A4D4
:105110009BEF28F07AEC28F07DEC28F01200F4ECFC
:1051200004F0B6C409F4010AD8A412007AEC28F0FD
:105130007DEC28F0120033EC05F01200B26B0CECA1
:1051400005F01200B26B02EC05F01200B1C4BAF423
:1051500016EC05F0010AD8A412009EEC28F0A2EC8F
:1051600028F0120024EC05F0BAC4B1F4010AD8A466
:1051700012009EEC28F0A2EC28F012008251B16FD0
:10518000A6EC28F0B151B2270D0EB15D03E001E1AC
:1051900000D01200B26D02EC05F0020EEDEC28F02A
:1051A000B2EC28F00D0EB15D05E0B151EDEC28F048
:1051B000D0EF28F0B151EDEC28F0FDEC28F0B35120
:1051C000EDEC28F0B251EDEC28F0030EEDEC28F0F8
:1051D0009EEC28F0A2EC28F01200AD6EAC8AACA2D6
:1051E000EFEF28F0AC9A1200BE39BEBD8F0FB52587
:1051F000B5BDF90FCD0FBE6F1200B2C4A4F4B36BEE
:10520000B26BA4390F0BB36F0A0EB35D300ED8B07A
:10521000370EB327A4510F0BB26F0A0EB25D300EDA
:10522000D8B0370EB22712007B8312007B93120096
:105230007B9112007B8112007B9712007B8712000A
:105240007B9512007B9512007B8512007B851200F6
:105250007B6B839A12007B6B838A12007B6B12003C
:105260002BEC29F020EC29F0FEEC2EF09CEC2DF03C
:10527000C0EC05F028EC29F078EC2DF03A67F0EF5F
:1052800029F035673CEF29F094EC2DF001EC06F0A5
:10529000EBEC05F028EC29F019EC2FF09CEC2DF04C
:1052A00078EC2DF03A67F0EF29F0356750EF29F0F0
:1052B000EBEC05F028EC29F032EC2FF09CEC2DF013
:1052C00078EC2DF03A67F0EF29F0356760EF29F0C0
:1052D00028EC29F04DEC2FF09CEC2DF078EC2DF023
:1052E0003A67F0EF29F035676EEF29F094EC2DF076
:1052F00001EC06F0DFEC27F030674CEF0EF0CFEC5E
:1053000027F02EEC29F064EC30F0A0EC2DF086ECC8
:105310002DF03A67F0EF29F0366787EF29F098EC27
:105320002DF001EC06F0F4EC27F0326757EF0EF0A9
:10533000C9EC27F02EEC29F0B3EC30F0A0EC2DF006
:1053400086EC2DF03A67F0EF29F03667A0EF29F0F0
:1053500098EC2DF001EC06F0F4EC27F03267B5EF95
:1053600029F0B3EF29F09AEF29F02EEC29F098EC10
:1053700030F0A0EC2DF086EC2DF03A67F0EF29F03C
:105380003667BBEF29F098EC2DF001EC06F02EEC1F
:1053900029F0CEEC30F0A0EC2DF086EC2DF03A6741
:1053A000F0EF29F03667CDEF29F098EC2DF001EC05
:1053B00006F0CFEC27F02EEC29F07FEC30F0A0ECDB
:1053C0002DF086EC2DF03A67F0EF29F03667E1EF2B
:1053D00029F098EC2DF001EC06F0CCEC27F012004F
:1053E00012002BEC29F020EC29F0FEEC2EF09CECC6
:1053F0002DF0C0EC05F028EC29F078EC2DF03A67A0
:1054000041EF2AF03567FDEF29F094EC2DF001EC27
:1054100006F0EBEC05F028EC29F019EC2FF09CECF1
:105420002DF078EC2DF03A6741EF2AF0356711EF57
:105430002AF0EBEC05F028EC29F032EC2FF09CEC94
:105440002DF078EC2DF03A6741EF2AF0356721EF27
:105450002AF028EC29F04DEC2FF09CEC2DF078ECA4
:105460002DF03A6741EF2AF035672FEF2AF094ECE0
:105470002DF001EC06F0DFEC27F030674CEF0EF07A
:1054800012001200B46B856B866B376B226B3A6A25
:105490003B6A2BEC29F0E3EC2EF09CEC2DF078EC41
:1054A0002DF03A67F0EF29F035674FEF2AF094ECD2
:1054B0002DF001EC06F0DFEC27F030674CEF0EF03A
:1054C000BBEC27F0010E8819D8A469EF2AF06CEF25
:1054D0002AF08BEC14F01200AC69AD676DEF2AF086
:1054E000026770EF2AF0C4EC0BF0CD902BEC29F0A2
:1054F00020EC29F08DEC2FF09CEC2DF0010E1B6EB2
:1055000013EC0DF03A50695D3B506D590EE678ECA6
:105510002DF03A67D3EF2BF035677EEF2AF094EC4D
:105520002DF001EC06F0A2EF2AF0010E1B6E13EC39
:105530000DF03A50695D3B506D5902E687EF2AF055
:1055400074EF2BF02BEC29F020EC29F016EC30F066
:105550009CEC2DF0010E1B6E13EC0DF03A506B5DC0
:105560003B506C590EE678EC2DF03A67D3EF2BF0F8
:105570003567AAEF2AF094EC2DF001EC06F0D2EF9B
:105580002AF0010E1B6E13EC0DF03A506B5D3B5090
:105590006C5902E6B3EF2AF094EC2DF001EC06F022
:1055A000DDEF2AF0010E1B6E13EC0DF03A506B5D2F
:1055B0003B506C59E6E678EF2BF02BEC29F020EC11
:1055C00029F0DBEC2FF09CEC2DF0040153C016F415
:1055D000B00EB16EDD0EB26E0B0EB36EB180040173
:1055E0003A67D3EF2BF0010E1B6E13EC0DF03A501F
:1055F0006F5D3B506A592FE6A1A2EFEF2AF0B19000
:10560000A192162F06EF2BF035EF2BF078EC2DF052
:1056100035670DEF2BF023EF2BF0B42B3AC02EF4AF
:105620003BC02FF485512E5F86512F5BD8A81FEF0A
:105630002BF022671FEF2BF037691FEF2BF03AC0DA
:1056400085F43BC086F4EAEF2AF02267FCEF2AF0EB
:105650003769FCEF2AF037672FEF2BF0226994ECC3
:105660002DF001EC06F0FCEF2AF0010E1B6E13EC9E
:105670000DF03A506F5D3B506A590EE678EC2DF014
:105680003A67D3EF2BF0356735EF2BF094EC2DF024
:1056900001EC06F056EF2BF0376750EF2BF0226944
:1056A00094EC2DF001EC06F03EEF2BF0010E1B6E9A
:1056B00013EC0DF03A50685D3B506E5907E73A50D5
:1056C0006F5D3B506A5905E66CEF2BF037696CEF64
:1056D0002BF022696CEF2BF0226780EF2BF03767FD
:1056E0007CEF2BF084EF2BF0CD80AC6B62EF0EF0F3
:1056F000CD80AC6B81EF0EF0CD80AC6BD9EF0EF0AE
:10570000CD80AC6BDFEF0EF0CD80AC6B2BEC29F0D5
:1057100020EC29F0FEEC2EF09CEC2DF0C0EC05F016
:1057200028EC29F078EC2DF03A67D3EF2BF03567B1
:1057300092EF2BF094EC2DF001EC06F0EBEC05F081
:1057400028EC29F019EC2FF09CEC2DF078EC2DF0E2
:105750003A67F0EF29F03567A6EF2BF0EBEC05F098
:1057600028EC29F032EC2FF09CEC2DF078EC2DF0A9
:105770003A67F0EF29F03567B6EF2BF028EC29F007
:105780004DEC2FF09CEC2DF078EC2DF03A67F0EF1B
:1057900029F03567C4EF2BF094EC2DF001EC06F006
:1057A000EBEC05F012001200B8EC0AF0346B146B4D
:1057B000C0EC05F02469256B286B73EC33F02B6982
:1057C00088EC0DF02A6BA9694FC034F41200040173
:1057D000FF0E2419D8A412004F50515CD8B401EF29
:1057E0002CF0D8B001EF2CF04F50515C266F0A0E10
:1057F000265DD8B402EF2CF0D8A002EF2CF001EF18
:105800002CF01200246BAA6BAB6B48EC20F012005A
:105810002569246B28692B6B12000401256714EF9E
:105820002CF013EF2CF01200460E4F6022EF2CF0FC
:10583000280E4F6023EF2CF01E0E4F6024EF2CF04B
:1058400025EF2CF0120012001200256B13671200D6
:105850007DEC20F02A69120094EC2DF098EC2DF0EC
:105860009CEC0EF0C0EC05F01200CFEC27F02EEC13
:1058700029F07FEC30F0A0EC2DF086EC2DF03A67AB
:10588000120036673DEF2CF098EC2DF001EC06F09D
:1058900009EC28F031674FEF2CF0CCEC27F0120028
:1058A000CFEC27F02EEC29F064EC30F0A0EC2DF0DA
:1058B00086EC2DF03A67ABEF2CF0366758EF2CF002
:1058C00098EC2DF001EC06F0F4EC27F0326757EF7E
:1058D0000EF0C9EC27F02EEC29F0B3EC30F0A0EC80
:1058E0002DF086EC2DF03A67ABEF2CF0366771EFB8
:1058F0002CF098EC2DF001EC06F0F4EC27F0326778
:1059000086EF2CF084EF2CF06BEF2CF02EEC29F0CE
:1059100098EC30F0A0EC2DF086EC2DF03A67F0EF2B
:1059200029F036678CEF2CF098EC2DF001EC06F0A6
:105930002EEC29F0CEEC30F0A0EC2DF086EC2DF022
:105940003A67ABEF2CF036679EEF2CF098EC2DF019
:1059500001EC06F0120012002BEC29F020EC29F0EB
:10596000FEEC2EF09CEC2DF0C0EC05F028EC29F0BC
:1059700078EC2DF03A6712003567B8EF2CF094EC14
:105980002DF001EC06F0EBEC05F028EC29F019EC19
:105990002FF09CEC2DF078EC2DF03A67F0EF29F029
:1059A0003567CBEF2CF0EBEC05F028EC29F032EC6E
:1059B0002FF09CEC2DF078EC2DF03A67F0EF29F009
:1059C0003567DBEF2CF028EC29F04DEC2FF09CEC48
:1059D0002DF078EC2DF03A67F0EF29F03567E9EF1C
:1059E0002CF094EC2DF001EC06F0DFEC27F03067A2
:1059F0004CEF0EF0D2EC27F012002BEC29F020EC4B
:105A000029F08DEC2FF09CEC2DF078EC2DF03A671E
:105A10001200356705EF2DF094EC2DF001EC06F047
:105A2000D2EC27F01200E06BE16B376B226B3A6B24
:105A30003B6B2BEC29F0E3EC2EF09CEC2DF078EC9A
:105A40002DF03A67F0EF29F035671FEF2DF094EC59
:105A50002DF001EC06F0DFEC27F030674CEF0EF094
:105A6000AC69AD6731EF2DF02BEC29F020EC29F07B
:105A70008DEC2FF09CEC2DF0140E1B6E13EC0DF042
:105A80003A50695D3B506D590EE678EC2DF03A675F
:105A900058EF2DF035673CEF2DF094EC2DF001EC34
:105AA00006F057EF2DF055EF2DF062EF0EF01200DB
:105AB000AC6B12002BEC29F020EC29F031EC30F02B
:105AC0009CEC2DF078EC2DF03A676AEF2DF03567FD
:105AD00062EF2DF094EC2DF001EC06F01200B30E05
:105AE000B16E1200030EB16E1200B26AB36A1200F8
:105AF00083A284EF2DF00CEC06F083A284EF2DF04E
:105B000082EF2DF0356B12003569120083A692EFFB
:105B10002DF00CEC06F083A692EF2DF090EF2DF017
:105B2000366B1200366912008394BEEC2DF0120021
:105B30008398BEEC2DF012008384BEEC2DF0120091
:105B40008388BEEC2DF0120083848388BEEC2DF098
:105B500012008388BEEC2DF012008384BEEC2DF081
:105B6000120083848388BEEC2DF012007B83120028
:105B70007B9312007B9512007B85120000000000D1
:105B80000000000000000000000000000000000015
:105B90000000000000000000000000000000000005
:105BA0000000000012007C6B70C47CF47B517C27E9
:105BB0007A517C2779517C2778517C2777517C2733
:105BC00076517C2775517C2774517C2773517C2733
:105BD00072517C2771517C277C6D7C2B12007B914C
:105BE00012007B8112007B9712007B87120094ECDD
:105BF0002DF001EC06F078EC2DF0356786EF0EF015
:105C0000030E206F15EC2EF0FF0E8419D8B412EF9E
:105C10002EF094EC2DF001EC06F0202F02EF2EF088
:105C200086EF0EF094EC2DF01200F29CF29E04012F
:105C3000680E706F7E6FD3EC2DF01FEF2EF0838413
:105C4000BEEC2DF08394BEEC2DF0000000000000AF
:105C500000000000000000007C3771377237733796
:105C60007437753776377737783779377A377B37C0
:105C70007037D8A03EEF2EF045EF2EF00000000068
:105C80000000000083944AEF2EF00000000083849F
:105C90004AEF2EF07E2F2CEF2EF08394BEEC2DF0E9
:105CA00000000000000000000000000000000000F4
:105CB00000000000000000000000000000000000E4
:105CC000000083A266EF2EF069EF2EF0846B6CEF7C
:105CD0002EF084696CEF2EF0F28CF28E120098ECAC
:105CE0002DF001EC06F086EC2DF0366791EF0EF00A
:105CF000030E216F89EC2EF0FF0E8419D8B4120028
:105D000098EC2DF001EC06F0212F7AEF2EF091EFB8
:105D10000EF0F29CF29E0401680E706F7E6FD3EC61
:105D20002DF093EF2EF08388BEEC2DF08398BEEC1F
:105D30002DF0000000000000000000000000000046
:105D40007C377137723773377437753776377737F3
:105D5000783779377A377B377037D8A0B2EF2EF0A3
:105D6000B9EF2EF000000000000000008398BEEFA5
:105D70002EF0000000008388BEEF2EF07E2FA0EFF3
:105D80002EF08398BEEC2DF0000000000000000013
:105D90000000000000000000000000000000000003
:105DA0000000000000000000000083A6DAEF2EF0E3
:105DB000DDEF2EF0846BE0EF2EF08469E0EF2EF043
:105DC000F28CF28E1200FF0E716FFF0E726F010ED9
:105DD000736FFA0E746F000E756F0A0E766F050EF4
:105DE000776F000E786F000E796F0A0E7A6F18ECDD
:105DF00029F01EEC29F0F7EC2DF01200FF0E716F68
:105E0000FF0E726F010E736F640E746F000E756F6C
:105E1000140E766F050E776F000E786F000E796F97
:105E20000A0E7A6F18EC29F01EEC29F0F7EC2DF031
:105E30001200FF0E716FFF0E726F000E736F0F0E68
:105E4000746F000E756F050E766F050E776F000E7E
:105E5000786F000E796FC80E7A6F1AEC29F0F7ECA4
:105E60002DF01200FF0E716FFF0E726F000E736F38
:105E7000190E746F000E756F050E766F050E776F35
:105E8000000E786F000E796FC80E7A6F18EC29F04B
:105E90001EEC29F0F7EC2DF01200FF0E716FFF0ED3
:105EA000726F000E736F030E746F000E756F050E28
:105EB000766F050E776F000E786F000E796FC80E43
:105EC0007A6F18EC29F01CEC29F0F7EC2DF0120099
:105ED000986B996B9A6B9B6BFA0E966F000E976F8F
:105EE00096511703F4CF99F4F3CF98F49751180310
:105EF000F4CF9BF4F3CF9AF496511803F3509927FB
:105F0000F4509A23000E9B2397511703F3509927BF
:105F1000F4509A23000E9B231200FF0E716FFF0EA8
:105F2000726F010E736F3D0E746FDF0E756F02C5D9
:105F300017F403C518F418AFA9EF2FF0A0EF2FF056
:105F4000189F1751755F1851745B000E735BB2EFA9
:105F50002FF0189F1751752718517423000E7323C3
:105F6000B2EF2FF000C517F401C518F418AFCCEF4D
:105F70002FF0BBEF2FF0189F68EC2FF09851755F52
:105F80009951745B9A51735B02E6CCEF2FF0736BFF
:105F9000746B756BCCEF2FF0020E766F030E776F7C
:105FA000000E786F000E796F010E7A6F1AEC29F0EF
