:104000000080001033410000F5400000F740000040
:10401000F9400000FB400000FD40000000000000EF
:10402000000000000000000000000000FF40000051
:104030000141000000000000034100007941000040
:10404000074100006193000029940000074100002F
:1040500007410000E598000007410000459C000072
:10406000A19F0000074100000D75000021780000AD
:10407000517B00000741000007410000074100009C
:104080000741000007410000074100000741000010
:104090000741000007410000074100000741000000
:1040A000074100006544000007410000074100008F
:1040B00007410000074100000741000007410000E0
:1040C0000741000007410000074100006CB30000F9
:1040D000040000100C0000006CB3000000C00720BA
:1040E0000000000010000010681B000000C0072046
:1040F00000000000FEE7FEE7FEE7FEE7FEE7FEE762
:10410000FEE7FEE7FEE7FEE70B4610B5401A5C1A35
:10411000A24200D810BDC45843F8044BF7E710B5CD
:10412000034600241A1A914200D810BD43F8044BEC
:10413000F8E738B50D4C0E4DAC4207D30D4DAC42EF
:104140000CD306F067F906F0D3F9FEE794E8030014
:104150000C3454F8042CFFF7D7FFEDE754F8080BA4
:1041600054F8041CFFF7DBFFE9E700BFCC40000078
:10417000E4400000F440000080B500AF0D4B1B6828
:1041800001330C4A13600B4B1B685A1C09490A6027
:1041900040F2E632934208D9064B00221A60064BE1
:1041A00001221A70054B01221A7002F047FB00BF72
:1041B00080BD00BF48140010710200107002001092
:1041C00080B485B000AF78601D4A1D4BD3F8C43071
:1041D00043F48053C2F8C430194BD3F8A8319B097B
:1041E00003F00303BB60BB68022B0CD0032B0FD082
:1041F000012B04D0134B1B689B08FB600DE0114B97
:104200001B68FB6009E00F4B1B685B08FB6004E068
:104210000C4B1B68DB08FB6000BF0B49FA687B682E
:10422000B2FBF3F3013B1B0243F4001343F0010321
:104230000B60012318461437BD4680BC704700BF91
:1042400000C00F400C0000100040034080B485B057
:1042500000AF0346FB71FB79072B01D90023FB71EB
:104260001A4A1A4B1B6823F0FF0313601749174BB8
:104270001B68FA79012000FA02F2134343F08073BD
:104280000B60FB799B001A46114B13441B68FB60C3
:10429000FB68002B00DBF4E700BF0C4A0B4B1B68EC
:1042A00023F0E0631360FB6803F08043002B01D030
:1042B000002305E0FB681B09C3F30B03BB60BB686D
:1042C00018461437BD4680BC704700BF004003400D
:1042D0001040034080B483B000AF0346FB7108492F
:1042E00097F907305B09FA7902F01F02012000FA02
:1042F00002F241F8232000BF0C37BD4680BC704756
:1043000000E100E080B483B000AF254B1B781B01B7
:10431000244A13447B60244B1B6A1B0CDBB203F062
:104320000F03DAB27B685A711F4B1B6ADB0FDBB2DB
:1043300003F00103DAB27B681A717B681B79002BEA
:1043400006D0194B5B6AC3F30A027B681A6005E06A
:10435000154B5B6A23F030427B681A60124B9A6AF5
:104360007B689A60104BDA6A7B68DA600F4B012237
:104370001A600F4B41F288321A80094B1B785A1C85
:10438000D1B2074A11703F2B02D9054B00221A7097
:10439000054B04225A6000BF0C37BD4680BC7047F5
:1043A000DC060010E0060010004004401000001081
:1043B000CA06001080B483B000AF254B1B781B01E8
:1043C000244A13447B60244B1B6A1B0CDBB203F0B2
:1043D0000F03DAB27B685A711F4B1B6ADB0FDBB22B
:1043E00003F00103DAB27B681A717B681B79002B3A
:1043F00006D0194B5B6AC3F30A027B681A6005E0BA
:10440000154B5B6A23F030427B681A60124B9A6A44
:104410007B689A60104BDA6A7B68DA600F4B012286
:104420001A600F4B41F288321A80094B1B785A1CD4
:10443000D1B2074A11703F2B02D9054B00221A70E6
:10444000054B04225A6000BF0C37BD4680BC704744
:10445000B4020010C80200100080044014000010D4
:10446000CA06001080B500AF1B4B5B681B4A136087
:104470001A4B1B6803F48073002B06D0184B1B6883
:104480000133174A1360FFF73DFF144B1B6803F419
:104490000073002B06D0134B1B680133114A1360C5
:1044A000FFF788FF104B9B6803F04003002B04D0FC
:1044B0000D4B9B681B0C0D4A13600D4B9B6803F062
:1044C0004003002B05D00A4B9B681B0C094A136064
:1044D00000BF00BF80BD00BF00000440F40A001010
:1044E000180000101C0000100040044020000010C4
:1044F000008004402400001080B582B000AF7860D6
:104500000023234A1360234A1360234A224BD3F823
:10451000C43043F4C043C2F8C430204A20490123C8
:104520000B6013601D4A1E4900230B6113611B4A77
:104530001B4900238B609360184A19497B684B61C3
:104540005361164A164900230B6013601920FFF7C8
:10455000C1FE124A124901230B611361114B002263
:104560001A70104B1A78104B1A700F4B1A780F4BA9
:104570001A700E4B1B789AB20D4B1A800C4B1A888E
:104580000C4B1A80012318460837BD4680BD00BF7A
:10459000140000101000001000C00F400040044044
:1045A00000800440E20A0010B4020010DC06001093
:1045B000C8060010B602001080B485B000AF00231A
:1045C000FB60444AFB6853600023BB601AE0BB6891
:1045D0005B0743F080737B60BB6801335B0343F48C
:1045E00080733B60FB6803F1804303F56033194639
:1045F0007A683B6813430B60FB680433FB60BB685D
:104600000233BB60BB68032BE1D9324AFB6893607D
:104610000023BB601AE0BB685B0743F080737B60DC
:10462000BB6801335B0343F480733B60FB6803F1B9
:10463000804303F5603319467A683B6813430B6087
:10464000FB680433FB60BB680233BB60BB68032BB1
:10465000E1D9204AFB68D3600023BB6012E0BB684D
:104660005B0743F480137B60FB6803F1804303F531
:1046700060331A467B681360FB680433FB60BB68D9
:104680000133BB60BB68032BE9D9124AFB68136195
:104690000023BB6012E0BB685B0743F400137B6040
:1046A000FB6803F1804303F560331A467B681360AF
:1046B000FB680433FB60BB680133BB60BB68032B42
:1046C000E9D9044AFB68536100BF1437BD4680BC7A
:1046D000704700BF00C0034080B582B000AF786073
:1046E0007B68042B2CD801A252F823F02F4700003E
:1046F0000147000027470000414700002F47000006
:10470000124A7B681360124A124901230B6013603E
:104710000F4A104900230B6113610D4A0D49002314
:104720008B6093600DE0094A7B68136009E0074BDA
:1047300001221A60FFF740FF044A7B68136000E023
:1047400000BF00BF0837BD4680BD00BF00C00340AA
:10475000004004400080044080B400AFBFF34F8F9E
:104760000549054BDB6803F4E062044B1343CB605F
:10477000BFF34F8FFEE700BF00ED00E00400FA0535
:1047800080B588B000AF78600B46FB70FB78013BCA
:104790007A6813441B78303BFB77FB7F092B02D9E7
:1047A000FB7F073BFB77FB7FBB77FB78023B7A689D
:1047B00013441B78303BFB77FB7F092B02D9FB7F2F
:1047C000073BFB77FB7F1B01DAB2BB7F1344BB7750
:1047D000FB78023B7A68134400221A707B6801332D
:1047E000184600F087FA03461A46BB7F93421ED153
:1047F0007B6801331B78522B09D17B6802331B780D
:10480000532B04D1FB781946786800F043F87B6895
:1048100001331B784B2B1AD17B6802331B78422B58
:1048200015D1FB781946786800F040F90FE007F1E0
:1048300008031946084805F043FD0023FB7507F1FE
:104840000803184600F0FEF9044801F035FB00BFEC
:104850002037BD4680BD00BF80A9000090A90000A0
:1048600080B582B000AF78600B46FB707B680B337D
:104870000749184605F059FD0346002B04D0FB7884
:104880001946786800F0C8FE00BF0837BD4680BDF5
:10489000BCA9000080B584B000AF78600B46FB7007
:1048A0007B6803331B78303BDBB21A46920013441B
:1048B0005B00FB737B6804331A78FB7B1344DBB229
:1048C000303BFB73FB7B342B00F2EC8001A252F8EF
:1048D00023F000BFA9490000B5490000C14900000C
:1048E000CD490000D9490000E5490000F149000028
:1048F000FD490000094A0000154A0000A54A0000D1
:10490000A54A0000A54A0000A54A0000214A00006F
:10491000A54A0000A54A0000A54A0000A54A0000DB
:104920002D4A0000394A0000A54A0000454A00000F
:10493000A54A0000A54A0000514A00005D4A000057
:10494000A54A0000A54A0000A54A0000A54A0000AB
:10495000694A0000A54A0000754A0000A54A000007
:10496000A54A0000A54A0000A54A0000A54A00008B
:10497000A54A0000A54A0000A54A0000A54A00007B
:10498000A54A0000A54A0000A54A0000A54A00006B
:10499000A54A0000A54A0000A54A0000814A00007F
:1049A0008D4A0000994A0000FB781946786800F0AB
:1049B000BDF977E0FB781946786800F0DDF971E021
:1049C000FB781946786800F003FA6BE0FB7819462B
:1049D000786800F033FA65E0FB781946786800F0F3
:1049E00085FA5FE0FB781946786800F0ADFA59E087
:1049F000FB781946786800F007FB53E0FB7819460E
:104A0000786800F02DFB4DE0FB781946786800F0DF
:104A100077FB47E0FB781946786800F08BFB41E0B4
:104A2000FB781946786800F0B3FB3BE0FB78194649
:104A3000786800F0D9FB35E0FB781946786800F01B
:104A4000FDFB2FE0FB781946786800F029FC29E08F
:104A5000FB781946786800F0AFFC23E0FB78194634
:104A6000786800F0D5FC1DE0FB781946786800F006
:104A7000F9FC17E0FB781946786800F03DFD11E07D
:104A8000FB781946786800F087FD0BE0FB78194643
:104A9000786800F0ABFD05E0FB781946786800F017
:104AA000B0FD00BF00BF1037BD4680BD80B584B0EB
:104AB00000AF78600B46FB707B6803331B78303B9C
:104AC000DBB21A46920013445B00FB737B6804332D
:104AD0001A78FB7B1344DBB2303BFB73FB7B013B5F
:104AE000142B00F2AB8001A252F823F0414B0000DE
:104AF0004D4B0000594B0000654B0000714B00000E
:104B00007D4B0000894B0000954B0000A14B00003D
:104B1000AD4B0000B94B0000C54B0000D14B00006D
:104B2000DD4B0000E94B0000F54B0000014C00009C
:104B30000D4C0000194C0000254C0000314C0000C9
:104B4000FB781946786800F08DFD77E0FB78194610
:104B5000786800F0B9FD71E0FB781946786800F0DC
:104B6000EFFD6BE0FB781946786800F0F5FD65E035
:104B7000FB781946786800F033FE5FE0FB78194651
:104B8000786800F03FFE59E0FB781946786800F03D
:104B900079FE53E0FB781946786800F0B3FE4DE0EB
:104BA000FB781946786800F0EDFE47E0FB7819467F
:104BB000786800F03BFF41E0FB781946786800F028
:104BC000F1FE3BE0FB781946786800F075FF35E0B0
:104BD000FB781946786800F07BFF2FE0FB781946D8
:104BE000786800F085FF29E0FB781946786801F0C5
:104BF00051F823E0FB781946786801F073F81DE05E
:104C0000FB781946786801F079F817E0FB781946C7
:104C1000786801F0AFF811E0FB781946786801F088
:104C2000C5F80BE0FB781946786801F0DBF805E081
:104C3000FB781946786801F0F1F800BF00BF103723
:104C4000BD4680BD80B584B000AF7860022005F01D
:104C5000EDF8786805F00CF9786800F04BF8034639
:104C6000FB73FB7B0F2B29D9FB7B1B09BB73BB7B26
:104C7000092B06D9BB7B3733DBB2184605F0D6F8D3
:104C800005E0BB7B3033DBB2184605F0CFF8BB7BC9
:104C90001B01DBB2FA7BD31AFB73FB7B092B06D912
:104CA000FB7B3733DBB2184605F0C0F819E0FB7B1D
:104CB0003033DBB2184605F0B9F812E0302005F0C9
:104CC000B5F8FB7B092B06D9FB7B3733DBB21846E3
:104CD00005F0ACF805E0FB7B3033DBB2184605F09D
:104CE000A5F8032005F0A2F805F0EAF800BF103798
:104CF000BD4680BD80B485B000AF78600023FB73F3
:104D000007E07B681A78FB7B1344FB737B680133F5
:104D10007B607B681B78002BF3D1FB7B5B42DBB2B3
:104D200018461437BD4680BC7047FFFF80B582B07F
:104D300000AF78600B46FB700A4B00221A7000200F
:104D400001F0A0FD084B00221A70084B06221A70D1
:104D50000748FFF777FF074801F0AEF800BF0837B4
:104D6000BD4680BDA70B00107D0B00106C1200101B
:104D7000C4A90000D0A9000080B582B000AF78605F
:104D80000B46FB700B4B1A7B0B4B1A700B4B002224
:104D90001A700B4B00221A700A4B00221A600A4844
:104DA000FFF750FF094801F087F800BF0837BD46FC
:104DB00080BD00BFB80B0010A70B00106C120010D4
:104DC0007D0B001030010010F0A90000FCA90000CC
:104DD00080B582B000AF78600B46FB700F4B1B783C
:104DE000002B11D00E4B1B78012B0DD10D4B1B78D6
:104DF000002B09D00C4B01221A700C48FFF722FF40
:104E00000B4801F059F805E00A48FFF71BFF0A4874
:104E100001F052F800BF0837BD4680BD5A1200109D
:104E20007C0B00107D0B00104C1400101CAA00001D
:104E300028AA000048AA000054AA000080B586B045
:104E400000AF78600B46FB707B6805331B783D2B09
:104E500022D17B6808331B780D2B08D17B68063381
:104E600007F108020221184605F0DBF907E07B682C
:104E7000063307F108020321184605F0D2F9BB6892
:104E8000DAB2154B1A7301F019FD1448FFF7DAFE78
:104E9000134801F011F81BE007F10C031946114803
:104EA00005F00EFA0C4B1B7B184607F10C03591D3D
:104EB0003023032205F0C0F80D233B7500237B75DA
:104EC00007F10C031846FFF7BDFE074800F0F4FF9A
:104ED00000BF1837BD4680BDB80B001078AA00008F
:104EE00084AA0000B0AA0000B8AA000080B586B06D
:104EF00000AF78600B46FB70104B1B887B6107F19D
:104F0000080319460E4805F0DBF907F10803591D9F
:104F100030230322786905F08FF80D233B740023BA
:104F20007B7407F108031846FFF78CFE054800F074
:104F3000C3FF00BF1837BD4680BD00BF7E0B001009
:104F4000E4AA0000ECAA000080B586B000AF78604B
:104F50000B46FB707B6805331B783D2B24D17B68A7
:104F600008331B780D2B08D17B68063307F1080244
:104F70000221184605F055F907E07B68063307F172
:104F800008020321184605F04CF9BB68642202FBB5
:104F900003F3174A536001F091FC1648FFF752FEE5
:104FA000154800F089FF1FE007F10C03194613486C
:104FB00005F086F90E4B5B68114AA2FB03235B09DF
:104FC000184607F10C03591D3023032205F034F86D
:104FD0000D233B7500237B7507F10C031846FFF783
:104FE00031FE084800F068FF00BF1837BD4680BD9D
:104FF000B80B001018AB000024AB000048AB000059
:105000001F85EB5150AB000080B586B000AF7860D3
:105010000B46FB7007F10C0319460E4805F050F9DA
:1050200030237B743023BB740B4B1B783033DBB2E3
:10503000FB740D233B7500237B7507F10C031846A9
:10504000FFF700FE054800F037FF00BF1837BD46E8
:1050500080BD00BF74AB00006C1200107CAB000080
:1050600080B586B000AF78600B46FB7007F10C038B
:1050700019461F4805F024F91E4B1B78092B07D849
:1050800030237B741B4B1B783033DBB2BB741EE0C8
:10509000184B1B78184AA2FB0323DB08DBB2303322
:1050A000DBB27B74134B1B78134AA2FB0323DB0890
:1050B000DBB21A465201D21A9200D31A5B00DAB25E
:1050C0000C4B1B781344DBB23033DBB2BB740D23C3
:1050D000FB7400233B7507F10C031846FFF7B2FD84
:1050E000064800F0E9FE00BF1837BD4680BD00BF8E
:1050F0009CAB0000FA0B0010CDCCCCCCA4AB0000D4
:1051000080B582B000AF78600B46FB70064B012281
:105110001A700648FFF796FD054800F0CDFE00BF67
:105120000837BD4680BD00BF55140010C4AB000059
:10513000D0AB000080B586B000AF78600B46FB7046
:10514000104B1B887B6107F1080319460E4805F0D8
:10515000B7F807F10803591D30230322786904F0DA
:105160006BFF0D233B7400237B7407F10803184683
:10517000FFF768FD054800F09FFE00BF1837BD46E9
:1051800080BD00BF58120010F0AB0000F8AB00006B
:1051900080B588B000AF78600B46FB7007F10C0358
:1051A00019460E4805F08CF80D4B9B68184607F120
:1051B0000C03591D30230A2204F03EFF0D23FB7619
:1051C00000233B7707F10C031846FFF73BFD05482A
:1051D00000F072FE00BF2037BD4680BD28AC000045
:1051E000B80B001030AC000080B58AB000AF78601A
:1051F0000B46FB7007F10C0319460D4805F060F8EB
:1052000007F10C03053319460A4805F059F80D2338
:105210007B770023BB7707F10C031846FFF712FDDD
:10522000054800F049FE00BF2837BD4680BD00BFDD
:1052300054AC0000803F00005CAC000080B58AB038
:1052400000AF78600B46FB7007F10C03194611485C
:1052500005F036F807F10C030533092219460E480C
:1052600005F045F80D23BB760023FB760023FB7782
:10527000FB7FBB77BB7F7B777B7F3B7707F10C03A3
:105280001846FFF7DFFC054800F016FE00BF283780
:10529000BD4680BD88AC00008312001090AC0000B9
:1052A00080B586B000AF78600B46FB707B68053335
:1052B0001B783D2B22D007F10C031946314804F02E
:1052C000FFFF314B1B78002B02D130237B7408E0A9
:1052D0002D4B1B78012B02D131237B7401E032234B
:1052E0007B740D23BB740023FB7407F10C03184679
:1052F000FFF7A8FC254800F0DFFD3BE0244B1B78BE
:10530000002B2FD07B6806331B78302B04D07B68B2
:1053100006331B78312B25D11E4B1B78032B21D054
:105320007B6806331B78302B09D11B4B01221A7086
:105330001A48FFF787FC1A4800F0BEFD19E07B68A9
:1053400006331B78312B14D10F4B1B78012B02D065
:10535000144B01221A701148FFF774FC124800F038
:10536000ABFD06E01148FFF76DFC114800F0A4FD0D
:1053700000E000BF0F4800F09FFD00BF1837BD469A
:1053800080BD00BFB8AC00007C0B0010C0AC0000BA
:105390005A1200106C1200104E140010ECAC0000F9
:1053A000F8AC00005414001024AD00004CAD000017
:1053B00058AD000084AD000080B588B000AF7860C3
:1053C0000B46FB7007F10C0319460E4804F078FFFA
:1053D0000D4B1B88184607F10C03591D302303227F
:1053E00004F02AFE0D233B7500237B7507F10C03A7
:1053F0001846FFF727FC054800F05EFD00BF203788
:10540000BD4680BDACAD000052150010B4AD00002B
:1054100080B582B000AF78600B46FB700C4B1B88E8
:10542000252B03D80B48FFF70DFC0AE0084B1B881F
:10543000312B03D80848FFF705FC02E00748FFF7C7
:1054400001FC074800F038FD00BF0837BD4680BDAD
:1054500052150010E0AD0000ECAD0000F8AD00000A
:1054600004AE000080B588B000AF78600B46FB70DA
:105470007B6805331B783D2B13D17B68063307F11E
:105480000C020521184604F0CCFEFB68154A136097
:1054900001F014FA1448FFF7D5FB144800F00CFD96
:1054A0001BE007F110031946114804F009FF0D4BEA
:1054B0001B68184607F11003591D3023052204F01C
:1054C000BBFD0D23BB760023FB7607F110031846C6
:1054D000FFF7B8FB074800F0EFFC00BF2037BD46E0
:1054E00080BD00BFB80B001038AE000044AE000015
:1054F0006CAE000074AE000080B586B000AF78607E
:105500000B46FB701E4B1F4A1A601F48FFF79AFBA1
:105510000023FB6004E000BF00BFFB680133FB60B9
:10552000FB681A4A9342F6D9194B1022DA614FF000
:1055300080434FF480625A604FF0804303221A7018
:105540004FF08043AA221A724FF0804355221A72FC
:105550004FF08043AA221A724FF0804300221A7241
:10556000FFF7FAF80B4B00229A6004237B617B69FA
:105570001B683B613B69984700BF1837BD4680BD3B
:1055800000000010AA55AA559CAE00003F4B4C00ED
:1055900040C0092000ED00E080B588B000AF786021
:1055A0000B46FB7007F10C0319460D4804F088FE0A
:1055B00007F10C03053319460A4804F081FE0D2358
:1055C0007B750023BB7507F10C031846FFF73AFB08
:1055D000054800F071FC00BF2037BD4680BD00BF0C
:1055E000A8AE000000FF0000B0AE000080B483B0A1
:1055F00000AF78600B46FB7000BF0C37BD4680BC27
:10560000704780B483B000AF78600B46FB7000BF7A
:105610000C37BD4680BC704780B588B000AF78605D
:105620000B46FB7056233B7307F10C0301331946FD
:105630000A4804F045FE0D237B740023BB7407F178
:105640000C03184604F014FC04F03AFC044800F083
:1056500033FC00BF2037BD4680BD00BF00FF000007
:10566000DCAE000080B588B000AF78600B46FB7000
:105670007B6805331B783D2B05D1114B00229A60C6
:1056800001F01CF918E007F10C0319460D4804F06D
:1056900017FE0B4B9B68184607F10C03591D30236E
:1056A0000A2204F0C9FC0D23FB7600233B7707F1A7
:1056B0000C031846FFF7C6FA00BF2037BD4680BD71
:1056C000B80B00100CAF000080B588B000AF786058
:1056D0000B46FB707B6805331B783D2B0CD17B6838
:1056E000063309221349184604F001FE01F0F2F8CE
:1056F0001148FFF7A7FA18E007F10C0319460F4805
:1057000004F0DEFD07F10C030533092219460948B0
:1057100004F0EDFD0D23BB760023FB7600233B77E1
:1057200007F10C031846FFF78DFA00BF2037BD467E
:1057300080BD00BF8312001014AF000020AF000036
:1057400080B483B000AF78600B46FB7000BF0C37AD
:10575000BD4680BC7047FFFF80B588B000AF786061
:105760000B46FB707B6805331B783D2B10D17B68A3
:1057700006330B221649184604F0B9FD154B0022DA
:1057800083F8272001F0A6F81348FFF75BFA1AE028
:1057900007F10C031946114804F092FD07F10C03C0
:1057A00005330B2219460A4804F0A1FD00233B777C
:1057B0000D237B770023BB770023FB7707F10C03D6
:1057C0001846FFF73FFA00BF2037BD4680BD00BF37
:1057D0008C1200107012001028AF000034AF0000CF
:1057E00080B582B000AF78600B46FB70044B00229E
:1057F0009A6001F063F800BF0837BD4680BD00BF66
:10580000B80B001080B588B000AF78600B46FB7015
:105810007B6805331B783D2B11D17B68063307F17C
:105820000C020221184604F0FCFCFB68DAB2124BB1
:105830001A7401F04FF81148FFF704FA18E007F165
:10584000100319460E4804F03BFD0B4B1B7C184619
:1058500007F11003591D3023022204F0EDFB0D2344
:10586000FB7500233B7607F110031846FFF7EAF9B2
:1058700000BF2037BD4680BD701200103CAF000055
:1058800048AF000080B588B000AF78600B46FB7071
:105890007B6805331B783D2B11D17B68063307F1FC
:1058A0000C020221184604F0BCFCFB68DAB2124B71
:1058B0005A7401F00FF81148FFF7C4F918E007F126
:1058C000100319460E4804F0FBFC0B4B5B7C18469A
:1058D00007F11003591D3023022204F0ADFB0D2304
:1058E0003B7600237B7607F110031846FFF7AAF9F1
:1058F00000BF2037BD4680BD7012001050AF0000C1
:105900005CAF000080B588B000AF78600B46FB70DC
:105910007B6805331B783D2B11D17B68063307F17B
:105920000C020221184604F07CFCFB68DAB2124B30
:105930009A7400F0CFFF1148FFF784F918E007F1DF
:10594000100319460E4804F0BBFC0B4B9B7C184619
:1059500007F11003591D3023022204F06DFB0D23C3
:105960003B7600237B7607F110031846FFF76AF9B0
:1059700000BF2037BD4680BD7012001064AF00002C
:1059800070AF000080B483B000AF78600B46FB704E
:10599000034B06221A7000BF0C37BD4680BC70470F
:1059A0005414001080B584B000AF78600B46FB70D3
:1059B0007B6805331B783D2B2DD17B6806331B7824
:1059C000303BFB73FB7B013B032B28D801A252F831
:1059D00023F000BFE5590000F1590000FD59000017
:1059E000095A000050220121002003F02BF916E093
:1059F00008220121002003F025F910E008220021EF
:105A0000002003F01FF90AE050220021002003F0DB
:105A100019F900BF03E00448FFF714F9FFE700BFDE
:105A20001037BD4680BD00BF78AF000080B584B0A0
:105A300000AF78600B46FB707B6805331B783D2B0D
:105A40002FD17B6806331B78303BFB73FB7B013B1C
:105A5000032B2AD801A252F823F000BF6D5A000090
:105A60007B5A0000875A0000935A000040F2C4425B
:105A70000021012003F0E6F817E00C2200210120AC
:105A800003F0E0F811E00C220121012003F0DAF824
:105A90000BE040F2C4420121012003F0D3F800BF23
:105AA00003E00448FFF7CEF8FFE700BF1037BD461C
:105AB00080BD00BF84AF000080B483B000AF7860C9
:105AC0000B46FB7000BF0C37BD4680BC7047FFFF24
:105AD00080B483B000AF78600B46FB70034B0522A7
:105AE0001A7000BF0C37BD4680BC70474D140010C3
:105AF00080B590B000AF78600B46FB707B680533D3
:105B00001B783D2B52D17B68063307F10802082130
:105B1000184604F029FCBB685A4A13607B680F33AF
:105B200007F108020821184604F01EFCBB68554A1C
:105B300053607B68183307F108020421184604F00B
:105B400070FB7B681D3307F108020221184604F040
:105B500068FBBB68DAB24B4B1A747B68203307F1E1
:105B600008020221184604F05CFBBB68DAB2454B20
:105B70005A747B68233307F108020221184604F0A7
:105B800050FBBB68DAB23F4B9A7497F83230092267
:105B90003D49184604F0ABFB97F83C300C223B49DA
:105BA000184604F0A4FB00F095FE66E007F10C0334
:105BB0001946374804F084FB324B186807F10C0390
:105BC000591D3023082204F0B1FA2C237B762D4B8B
:105BD000586807F10C0303F10E013023082204F08A
:105BE000A5FA2C2387F822302C2387F82730254B61
:105BF0001B7C184607F10C0303F11C013023022221
:105C000004F01AFA2C2387F82A301E4B5B7C1846C6
:105C100007F10C0303F11F013023022204F00CFAF8
:105C20002C2387F82D30174B9B7C184607F10C036B
:105C300003F122013023022204F0FEF92C2387F81D
:105C4000303097F83130092219460F4804F04FFBE5
:105C50002C2387F83A3097F83B300C2219460B4832
:105C600004F045FB0D2387F83C30002387F83D30D6
:105C700007F10C031846FEF7E5FF00BF4037BD46AD
:105C800080BD00BF70120010831200108C12001033
:105C900090AF000080B588B000AF78600B46FB7015
:105CA00007F10C0319460D4804F00AFB0C4B1B6866
:105CB000184607F10C03591D3023062204F0BCF9E5
:105CC0000D23FB7500233B7607F10C031846FEF706
:105CD000B9FF00BF2037BD4680BD00BF98AF0000B0
:105CE000980B001080B582B000AF78600B46FB7057
:105CF00001F076FA00BF0837BD4680BD80B588B098
:105D000000AF78600B46FB707B6805331B783D2B3A
:105D10000ED17B68063307F108020521184604F00E
:105D200080FABB681AB2114BDA8100F0D3FD19E09A
:105D300007F10C0319460E4804F0C2FA0B4BB3F9F5
:105D40000E30184607F10C03591D3023052204F0CC
:105D500073F90D23BB750023FB7507F10C0318467F
:105D6000FEF770FF00BF2037BD4680BD70120010E7
:105D7000A0AF000080B582B000AF78600B46FB702A
:105D800000F0AEFD064B1B689AB2064B1A8100F07C
:105D9000A1FD0548FEF756FF00BF0837BD4680BD90
:105DA000980B001070120010A8AF000080B582B0F0
:105DB00000AF78600B46FB7000F092FD064B1B684D
:105DC0009AB2064B5A8100F085FD0548FEF73AFF6E
:105DD00000BF0837BD4680BD980B00107012001040
:105DE000B4AF000080B582B000AF78600B46FB70A6
:105DF00000F076FD064B1B689AB2064B9A8100F0C4
:105E000069FD0548FEF71EFF00BF0837BD4680BD8F
:105E1000980B001070120010C0AF000080B582B067
:105E200000AF78600B46FB70044B01221A700448E7
:105E3000FEF708FF00BF0837BD4680BD4C140010B8
:105E4000CCAF000080B400AF034B01221A7000BF3A
:105E5000BD4680BC704700BFF80A001098B500AF7F
:105E60001FE0134B1B781C4603F010FE03461A4636
:105E7000104B1A550E4B1B781A460E4B9B5C0D2B84
:105E800009D10B4B1B7819460A4800F029F8084B3A
:105E900000221A7005E0064B1B780133DAB2044B7E
:105EA0001A7003F087FE0346002BDAD100BF98BDBD
:105EB000280000102C00001080B582B000AF786080
:105EC000064B1B78002B05D0786803F021FE0D20CF
:105ED00003F0FCFD00BF0837BD4680BDF80A001086
:105EE00080B582B000AF78600B46FB707B681B7892
:105EF000642B03D07B681B78442B05D13C4B0122DB
:105F00001A703C48FFF7D8FF7B681B78522B03D0F0
:105F10007B681B78722B02D1374B01221A707B6889
:105F20001B78542B03D07B681B78742B02D1334B26
:105F300001221A707B681B78422B03D07B681B7888
:105F4000622B02D12E4B01221A707B681B784F2BDB
:105F500003D07B681B786F2B02D12A4B01221A7069
:105F60007B681B78532B03D07B681B78732B02D183
:105F7000254B01221A707B681B785A2B03D07B6853
:105F80001B787A2B01D100F045F87B681B784D2BEC
:105F900003D07B681B786D2B02D1786800F056F82F
:105FA0007B681B78482B03D07B681B78682B02D159
:105FB000786800F08FF87B681B78472B03D07B68EC
:105FC0001B78672B05D1114B96221A70104B0022BB
:105FD0001A707B681B78412B03D07B681B78612B80
:105FE00001D100F0B5F800BF0837BD4680BD00BF45
:105FF000F80A001040B000005514001054140010AE
:106000004D1400104E1400104C140010A70B00107B
:106010006C12001080B500AF0B4B1E221A730A4B96
:1060200040F6E4421A60084B4FF47A725A60064B0D
:1060300000229A6010220449802000F0C7F901F084
:10604000CFF800BF80BD00BFB80B001080B588B08E
:1060500000AF786007F10C0319461A4804F030F9D4
:10606000194B1B88184607F10C0303F10C01302370
:10607000032203F0E1FF0D23FB7600233B7707F1BA
:106080000C031846FFF718FF07F10C0319460F48D9
:1060900004F016F90E4B1B88184607F10C0303F1A8
:1060A0000C013023032203F0C7FF0D23FB760023EE
:1060B0003B7707F10C031846FFF7FEFE00BF2037C1
:1060C000BD4680BDD8AF00004C150010E8AF000001
:1060D0004A15001080B588B000AF78607B68013346
:1060E0001B783D2B0FD17B68023307F10802032197
:1060F000184604F096F8BB689AB2124B1A80124800
:10610000FFF7DAFE19E007F10C0319460F4804F017
:10611000D7F80C4B1B88184607F10C0303F10F014D
:106120003023032203F088FF0D23BB770023FB7786
:1061300007F10C031846FFF7BFFE00BF2037BD462E
:1061400080BD00BF9C0B0010F8AF0000FCAF00004A
:1061500080B588B000AF3B1D1946294804F0B0F85F
:10616000284B1B8818463B1D03F10D0130230522E7
:1061700003F062FF2C23BB75234B1B8818463B1D85
:1061800003F113013023032203F056FF0D23BB76E6
:106190000023FB763B1D1846FFF78EFE3B1D19467C
:1061A0001A4804F08DF81A4B1B8818463B1D03F162
:1061B0000D013023032203F03FFF0D233B75002325
:1061C0007B753B1D1846FFF777FE3B1D19461148AE
:1061D00004F076F8104B1B8818463B1D03F10D01A7
:1061E0003023052203F028FF0D23BB750023FB7528
:1061F0003B1D1846FFF760FE00BF2037BD4680BD3F
:106200000CB00000501500107E0B00101CB00000F8
:106210005812001030B000005215001080B483B046
:1062200000AF0023FB7106E0FB790D4A0021D15439
:10623000FB790133FB71FB79052BF5D90023FB7149
:1062400006E0FB79074A0021D154FB790133FB7149
:10625000FB79002BF5D000BF0C37BD4680BC7047E2
:10626000FC0A0010040B001080B400AF284B5B69DF
:1062700003F40013002B03D0264B01221A7002E016
:10628000244B00221A70224B5B6903F08063002BC1
:1062900003D0204B01225A7002E01E4B00225A709C
:1062A0001B4B5B6903F48013002B03D0194B0122B5
:1062B0009A7002E0174B00229A70154B5B6903F04D
:1062C0000073002B03D0134B0122DA7002E0114B54
:1062D0000022DA70104B5B6903F04003002B03D0FF
:1062E0000C4B01221A7102E00A4B00221A710B4B6F
:1062F0005B6903F00073002B03D0064B01225A7137
:1063000002E0044B00225A7100BFBD4680BC7047BA
:1063100020C00920FC0A001040C0092060C00920EC
:1063200080B400AF084B1B78002B04D0074B4FF014
:1063300080529A6103E0054B4FF08052DA6100BF52
:10634000BD4680BC704700BF040B001020C0092070
:1063500080B500AF01F094FD00BF80BD80B584B072
:1063600000AF78600B46FB700023FB737B68C3F3C0
:106370000C037B60124B04225A60124B00225A60BD
:10638000114BA02283F840207B68DAB20E4B83F8D1
:1063900042207B681B0ADAB20B4B83F841200A4A81
:1063A000FB7882F84330012001F092FD03460C2B6C
:1063B00001D10123FB73FB7B18461037BD4680BD1E
:1063C00038140010981200107413001080B586B0B5
:1063D00000AFF860B9601346FB800023FB75FB68D3
:1063E000C3F30C03FB6050E0B7F90630102B02DD5D
:1063F00010237B8201E0FB887B82B7F912300333E4
:106400001A46264B5A60264B00225A60254BA02282
:1064100083F84020FB68DAB2224B83F84220FB6805
:106420001B0ADAB21F4B83F841200023BB820323EF
:10643000BB7512E0BA7DBB68591CB9601978194B5D
:1064400013440A4683F84020B7F914309BB2013355
:106450009BB2BB82BB7D0133BB75B7F91420B7F982
:1064600012309A42E6DB012001F032FD03460C2B8C
:1064700001D10123FB75FA887B8AD31A9BB2FB807A
:10648000B7F91230FA681344FB60B7F90630002BF5
:10649000AADCFB7D18461837BD4680BD38140010B5
:1064A000981200107413001080B586B000AFF86029
:1064B000B9601346FB800023FB75FB68C3F30C0334
:1064C000FB604EE0B7F90630102B02DD10237B8213
:1064D00001E0FB887B82274B03225A60B7F9123018
:1064E000254A5360254BA02283F84020FB68DAB28E
:1064F000224B83F84220FB681B0ADAB21F4B83F859
:1065000041201E4BA12283F84320012001F0E0FC32
:1065100003460C2B1BD10023BB8210E0BB685A1C26
:10652000BA60B7F9142016490A4492F84020D2B252
:106530001A70B7F914309BB201339BB2BB82B7F922
:106540001420B7F912309A42E8DB0123FB75FA8870
:106550007B8AD31A9BB2FB80B7F91230FA681344D6
:10656000FB60B7F90630002BACDCFB7D1846183712
:10657000BD4680BD3814001098120010741300102E
:10658000A412001080B483B000AF03463960FB71E1
:1065900097F90730002B0BDA0D49FB7903F00F0355
:1065A000043B3A68D2B2D200D2B20B441A7609E068
:1065B000084997F907303A68D2B2D200D2B20B44F8
:1065C00083F8002300BF0C37BD4680BC704700BF76
:1065D00000ED00E000E100E080B582B000AF78603F
:1065E0007B68B3F1807F01D3012311E00A4A7B6805
:1065F00023F07F43013B53601F214FF0FF30FFF733
:10660000C1FF054B00229A60034B07221A6000234A
:1066100018460837BD4680BD10E000E080B582B066
:1066200000AF01F099FC02F09FFF6948FDF7C8FD3B
:10663000FFF78EFEFFF7F2FD03F0AEF802F046FA28
:106640000023002203214FF4165003F097F9002392
:10665000002203214FF4165003F040FBFFF704FE25
:106660005C48FDF749FF0220FEF736F85A4B072237
:106670001A705A4B01221A70594B4FF4C0621A60BB
:10668000574B1B680F33574A1360564B00221A7141
:10669000544B08225A71544B4FF47A72A3F840209D
:1066A000514B6422A3F842204F4B41F270729A84FE
:1066B0004D4B4FF49672DA844B4B4FF496721A8519
:1066C000494B00221A63484BB3F84220464BA3F8CB
:1066D0004420454BD2229A83434B2822DA83424BF3
:1066E00041F270721A80404B6E225A803E4B6422F7
:1066F0009A803D4B0022DA603B4BDA8B3A4B1A848E
:1067000001F0F6FC0023FB7106E0FB79374A00211B
:10671000D154FB790133FB71FB79632BF5D900234D
:10672000FB7107E0FB79324A002122F81310FB7954
:106730000133FB71FB79162BF4D900F0EBFC00F070
:1067400037FD2C4B00221A702B4B00221A702B4B5A
:1067500000221A702A4B14221A702A4B02221A7035
:10676000294B4FF6FF721A80284B00221A70284BD3
:1067700000221A60274B00221A60274B00221A6061
:10678000264B00221A60264B00221A60254B00225D
:106790001A60254B00221A600F4B07221A70FFF770
:1067A00051FB2248FFF788FB214B1B68214AA2FBC3
:1067B00003235B0B1846FFF70FFF1F4B1B78002BC3
:1067C000FBD000F0ADF81C4B00221A70F5E700BFBB
:1067D00020BCBE0008C026006C120010960B0010F2
:1067E0000C0B0010840B001088140010180B001004
:1067F000CC0B0010800B00107D0B00109E0B0010C6
:10680000A70B00107C0B0010B40B00105A120010E4
:1068100054120010A00B0010100B0010FC0B001005
:10682000C80B0010B00B0010AC0B001040B0000003
:106830000C0000105917B7D1A60B001080B500AF9F
:106840000D4B1B785A1CD1B20B4A1170082B0ED974
:106850000A4B1B78002B04D0094B1B680133084AF4
:106860001360064B01221A70034B00221A7002F0CB
:1068700093FE00BF80BD00BF34010010A60B0010C6
:106880005412001080B483B000AF0346FB71FB7953
:10689000012B04D1074B1A7B074B1A7005E0FB79DB
:1068A000002B02D1044B00221A7000BF0C37BD46EA
:1068B00080BC7047B80B0010A70B001080B500AF6C
:1068C000102203498020FFF781FD00BF80BD00BF7B
:1068D000B80B001080B500AF00F05EFC00BF80BDBB
:1068E00080B483B000AF0C4B9B897B600B4B1B6863
:1068F0009B083B60094B1A683B68D31A074A136030
:106900007B689A08054B1B681344044A136000BF58
:106910000C37BD4680BC704774020010980B001005
:1069200080B500AF3D4B1B6801333C4A1360FFF755
:106930009BFC02F03FFF394B1B68B3F5FA6F5BD34A
:1069400000F0CAFB00F054FB00F076F801F0F4FB15
:10695000334B1B78002B07D0314B1B78012B03D016
:106960002F4B1B78022B09D100F01EF92C4B1B7802
:10697000022B1FD12B4B00221A801BE0284B1B78C7
:10698000032B0FD0264B1B78042B0BD0244B1B78EA
:10699000052B07D0224B1B78062B03D0204B1B78EE
:1069A000072B07D1204B00221A601F4B1B689AB29D
:1069B0001C4B1A801A4B1B78012B01D100F04EFBA7
:1069C000174B1B78062B11D1184B00221A60184B5D
:1069D0001B685A1C16490A6047F22F52934205D988
:1069E0000F4B07221A70124B00221A60FFF778FF34
:1069F000FFF796FC02F04EFB084B1B6844F61F6243
:106A0000934208D900F02CFC00F07CFC034B094AAF
:106A10001A6000F09DFA00BF80BD00BFB00B0010EF
:106A20006C1200109C0B0010C80B0010FC0B001027
:106A3000AC0B0010E093040098B500AF414B1B680D
:106A40005A1C40490A60404A1268934265D300F0DC
:106A50008DF83C4B00221A603C4B01221A703C4BD3
:106A60001B88013B9AB23A4B1A803A4B1B88013380
:106A70009AB2384B1A80384B1B88542B4DD9374B60
:106A80001B685A1C35490A60322B46D9324B1B8889
:106A9000013B9AB2304B1A80304B00221A603CE026
:106AA0002F4B1B781C4603F0A1F903461A462D4BC9
:106AB0001A552B4B1B781A462A4B9B5C002B00D196
:106AC0002BE0274B1B781A46264B9B5C032B09D1E6
:106AD000234B1B7819462348FDF752FE204B00221A
:106AE0001A701AE01E4B1B781A461E4B9B5C0D2B2E
:106AF0000DD11C4B1B78232B09D1194B1B78194640
:106B00001848FDF7ADFE164B00221A7005E0144B35
:106B10001B780133DAB2124B1A7003F0F9F903460D
:106B2000002BBDD1FFF79AF90F4B1B885A1C91B26D
:106B30000D4A1180B3F57A7F02D90B4B00221A80DF
:106B400000BF98BD2C01001004000010960B00102F
:106B50004C1500104A15001048150010A80B001025
:106B600035010010380100103802001080B400AF69
:106B70000B4B1B78002B07D10A4B4FF000529A6148
:106B8000074B01221A7006E0064B4FF00052DA6103
:106B9000034B00221A7000BFBD4680BC704700BF87
:106BA0003A02001080C0092080B400AF9D4B1B88C2
:106BB000DAB29D4B1A709D4B1B88C82B04D99C4B95
:106BC0004FF4FA721A8003E0994B4FF496721A80D0
:106BD000984B1B78002B40F0D480974B1B680133F7
:106BE000954A1360944B1B68944A93420CD9944B7A
:106BF00002221A708F4B03221A70924B00221A70D5
:106C0000914B00221A6054E1874B1B781A468D4B3A
:106C10001B780E3B9A420ADA8B4B4FF47A721A6059
:106C20008A4B00221A608A4B00221A6063E07E4B76
:106C30001B781A46834B1B780E3B9A420CDB7A4B2F
:106C40001B781A467F4B1B78063B9A4204DA7E4B30
:106C50004FF461721A604EE0734B1B781A46794B01
:106C60001B78063B9A421BDB6F4B1B781A46754B11
:106C70001B78033B9A4213DA744B1B680133734A47
:106C80001360724B1B68734A934204D86E4B40F2F8
:106C900007321A602FE06C4B4FF461721A602AE0E1
:106CA000614B1B781A46674B1B78033B9A4219DBF2
:106CB0005D4B1A78634B1B789A4213D2644B1B6866
:106CC0000133634A1360624B1B68624A934204D8E3
:106CD0005D4B40F226221A600DE05B4B40F25232CF
:106CE0001A6008E0504B1A78564B1B789A4202D330
:106CF000554B00221A604C4B1B781A46514B1B789F
:106D0000033B9A4223DB484B1B781A464D4B1B78BA
:106D100003339A421BDC504B1B685A1C4E490A60D5
:106D200047F22F52934212D9424B01221A704B4B19
:106D300001221A70404B00221A60474B47F23A5228
:106D40001A60424B00221A60414B00221A60364BF7
:106D50001B781A463B4B1B7803339A4240F3A980B9
:106D6000344B02221A70344B00221A603A4B47F21D
:106D70003A521A60354B00221A60354B00221A60D5
:106D800097E02C4B1B78012B74D1274B1B781A46AC
:106D90002C4B1B78033B9A4203DA264B00221A70D5
:106DA00087E0214B1B781A46264B1B7805339A4205
:106DB00003DD204B02221A707BE0224B1B781A461F
:106DC000194B1B78D31A204A13601F4B1A681346BD
:106DD0009B0013449B011A461B4B1A60124B1B78F5
:106DE0001A46184B1B7801339A4262DA104B1B8803
:106DF0001A46154B1B689A425BDD194B1B78012B19
:106E000032D10B4B1B881A4613465B0013445B00C0
:106E1000144A82FB03125210DB17D31A0A4A13607A
:106E200047E000BF7E0B0010A40B00104C150010B3
:106E3000940B00106C12001030010010E0E60B0003
:106E4000FA0B0010A70B0010C80B0010A00B0010CD
:106E5000100B0010C0D40100FC0B00107D0B0010C3
:106E6000040B0010676666662F4B1B881A462F4B73
:106E70001A601EE02E4B1B78022B11D12B4B0022E7
:106E80001A602C4B1B781A462B4B1B7802339A4204
:106E90000FDC274B01221A70284B01221A7008E0E0
:106EA000224B00221A60264B00221A60254B00223A
:106EB0001A601E4B1B68B3F57A7F03DB1B4B40F255
:106EC000E7321A60194B1B68002B02DA174B0022BD
:106ED0001A60194B1B78312B07D8144B1B68DA0F3B
:106EE00013445B101A46114B1A60174B1B88092B71
:106EF0000DD90E4B1A6813469B0113445B001A46CA
:106F0000114B1B8892FBF3F3084A136002E0074B16
:106F100000221A60054B1B689AB20C4B1A8000BF06
:106F2000BD4680BC704700BF940B0010C80B00101A
:106F30006C120010A40B0010A70B00107D0B0010AA
:106F4000A00B0010100B00104C1500109C0B001033
:106F500080B400AF204B1B88262B12D91F4B1B7807
:106F6000042B0ED01D4B1B78032B03D11C4B1B781D
:106F7000112B06D11B4B00221A601B4B01221A70E9
:106F800016E0154B1B88232B0BD9144B1B78042BB5
:106F900007D0124B1B78032B0AD1114B1B78112BF6
:106FA00006D0104B1B68002B02DC0E4B0F4A1A60F8
:106FB0000C4B1B68002B0BDD0A4B1B68013B094A7D
:106FC0001360084B1B68002B02DC074B00221A7071
:106FD00000BFBD4680BC7047521500106C120010F7
:106FE000FA0B00103C020010040B0010E0930400A8
:106FF00080B400AF154B1A88154B5B7C9BB29A424C
:1070000003D2144B00221A8008E0104B1A88104B50
:107010005B7C9BB2D31A9AB20E4B1A800B4B5A88E8
:107020000B4B9B7C9BB29A4203D20B4B00221A80E3
:1070300008E0064B5A88064B9B7C9BB2D31A9AB247
:10704000054B1A8000BFBD4680BC70475415001028
:10705000701200107E0B00105812001080B400AFA8
:10706000154B1B881A46154B1B881946144B1B7C65
:107070000B449A420ADC114B1B881A460E4B1B88A4
:1070800019460F4B1B7C0B449A4210DD0D4B03221B
:107090001A700D4B14221A700C4B00221A700C4BF4
:1070A00000221A600A4B1B689AB20A4B1A8000BF72
:1070B000BD4680BC704700BF7E0B00105812001008
:1070C000701200106C120010FA0B0010A70B0010C9
:1070D000C80B00109C0B001080B400AF0B4B1B784A
:1070E000002B03D00A4B01221A700AE0074B9B7851
:1070F000002B03D0064B00221A7002E0044B022240
:107100001A7000BFBD4680BC704700BFFC0A00106B
:107110007C0B001080B584B000AF0023FB7309E046
:10712000FB7B07F110021344002203F80C2CFB7BBD
:107130000133FB73FB7B092BF2D93B1D0C22194653
:107140000020FFF7B1F93B1D1049184603F0EDF898
:107150000346002B05D028220D491020FFF7A4F983
:107160000FE00C2209490020FFF730F905210D201E
:10717000FFF7F4F800F034F8064B00221A6000F034
:1071800023F800BF1037BD4680BD00BF68B00000C7
:1071900070120010000C001080B500AF28220349C7
:1071A0001020FFF713F900BF80BD00BF7012001060
:1071B00080B500AF102203498020FFF775F900BFAA
:1071C00080BD00BFB80B001080B500AF0C22034992
:1071D0004FF48060FFF7FAF800BF80BD000C00108C
:1071E00080B500AF19491A4803F06AF8194B00221C
:1071F0001A771949194803F063F8164B002283F8EF
:107200002720144B4FF416521A60124B42F6A87204
:107210005A60104B06221A740E4B07225A740D4BFB
:1072200007229A740B4B4FF47A721A81094B4FF470
:10723000FA725A81074B40F6B8329A81054B002208
:10724000DA81FFF7A9FF00BF80BD00BF83120010E5
:1072500074B00000701200108C12001080B000009A
:1072600080B483B000AF214B1B78012B38D1204B69
:107270001A88204B1B889A4208D91D4B1B88DAB20A
:107280001C4B1B88DBB2D31AFB7107E0194B1B8820
:10729000DAB2174B1B88DBB2D31AFB71164B1B7C7F
:1072A000FA799A4206D9154B1B8D02339AB2134BC9
:1072B0001A8509E0114B1B8D002B05D00F4B1B8D40
:1072C000013B9AB20D4B1A850C4B1B8DC82B07D96D
:1072D0000B4B14221A70054B03221A70002300E096
:1072E000012318460C37BD4680BC70476C12001055
:1072F0007E0B00105812001070120010CC0B001002
:10730000FA0B001080B400AF6F4B1B88B3F5967F6B
:1073100006D96E4BDB8802339AB26C4BDA8009E0F7
:107320006A4BDB88002B05D0684BDB88013B9AB2A7
:10733000664BDA80644B5B88B3F5967F06D9634B66
:107340005B8A02339AB2614B5A8209E05F4B5B8AD7
:10735000002B05D05D4B5B8A013B9AB25B4B5A8296
:107360005B4B1B88DC2B06D9584B9B8C02339AB2A3
:10737000564B9A8409E0554B9B8C002B05D0534B00
:107380009B8C013B9AB2514B9A84514B1B88C82B62
:1073900006D94E4BDB8C02339AB24C4BDA8409E0AF
:1073A0004A4BDB8C002B05D0484BDB8C013B9AB25F
:1073B000464BDA84444B1B88FA2B06D9434B5B8837
:1073C00002339AB2414B5A8009E0404B5B88002B54
:1073D00005D03E4B5B88013B9AB23C4B5A803A4BFE
:1073E0005B88FA2B06D9394B1B8A02339AB2374B8A
:1073F0001A8209E0354B1B8A002B05D0334B1B8AC0
:10740000013B9AB2314B1A82314B1B88322B06D981
:107410002E4B5B8C02339AB22C4B5A8409E02B4BD7
:107420005B8C002B05D0294B5B8C013B9AB2274B20
:107430005A84264BDB88C82B05D9264B03221A70A9
:10744000254B03221A70214B5B8AC82B05D9214B8F
:1074500009221A70204B03221A701C4B9B8CC82BDC
:1074600005D91C4B12221A701B4B03221A70174BA2
:10747000DB8CC82B05D9174B13221A70164B03222D
:107480001A70124B5B88C82B05D9124B01221A7057
:10749000114B03221A700D4B1B8AC82B05D90D4BBB
:1074A00008221A700C4B03221A70084B5B8CC82BF5
:1074B00006D9084B11221A70074B03221A7000BF1D
:1074C00000BFBD4680BC704754150010CC0B0010A7
:1074D00052150010FA0B00106C12001080B483B02B
:1074E00000AF0346FB71084997F907305B09FA7949
:1074F00002F01F02012000FA02F241F8232000BF2F
:107500000C37BD4680BC704700E100E080B483B01A
:1075100000AFB24B00221A60B14B5B68FB71FB7984
:10752000083B502B00F26C8101A252F823F000BFFF
:1075300075760000017800000178000001780000F5
:107540000178000001780000017800000178000057
:1075500097760000017800000178000001780000B3
:107560000178000001780000017800000178000037
:10757000B976000001780000017800000178000071
:107580000178000001780000017800000178000017
:10759000C977000001780000017800000178000040
:1075A00001780000017800000178000001780000F7
:1075B000EB760000017800000178000001780000FF
:1075C00001780000017800000178000001780000D7
:1075D0003177000001780000017800000178000098
:1075E00001780000017800000178000001780000B7
:1075F00001780000017800000178000001780000A7
:107600000178000001780000017800000178000096
:107610004577000001780000017800000178000043
:107620000178000001780000017800000178000076
:10763000C97700000178000001780000017800009F
:107640000178000001780000017800000178000056
:1076500069770000017800000178000001780000DF
:107660000178000001780000017800000178000036
:10767000A17700005B4B00221A605949594B1B68E7
:107680005A1C58480260584AD35CDBB28B60544B9A
:1076900028229A61BBE0554B00221A605049514B99
:1076A0001B685A1C4F4802604F4AD35CDBB28B60A8
:1076B0004B4B28229A61AAE04D4B1B68012B06D147
:1076C000474B10221A604B4B07221A6009E04449CD
:1076D000444B1B685A1C43480260434AD35CDBB2EC
:1076E0008B603F4B08229A6191E0414B1A683D4BF9
:1076F0001B689A420AD93A493A4B1B685A1C3948C6
:107700000260394AD35CDBB28B600DE03A4B1B68F8
:10771000002B03D0324B20221A6005E0304B1022A0
:107720001A60344B0C221A602D4B08229A616EE0CD
:107730002B4B10221A602F4B09221A60284B08226B
:107740009A6164E0294B1B685A1C2B4B1B689A42B8
:1077500003D2234B04221A6002E0214B04229A61D7
:107760001F4B08229A6152E0204B1B685A1C1F498C
:107770000A601B4A9268D1B2204AD1541B4B1B6845
:107780005A1C1D4B1B689A4203D2154B04221A60E7
:1077900002E0134B04229A61114B08229A6136E0F1
:1077A000124B1B685A1C11490A600D4A9268D1B2EB
:1077B000124AD1540F4B0C221A60094B10221A6046
:1077C000074B08229A6122E0054B10221A60094BF0
:1077D00008221A60024B08229A6118E04C0200103D
:1077E00000C00140701300107413001064130010E7
:1077F000381400104002001098120010A41200105B
:10780000054B0A221A60054B08229A6100BF00BF8F
:107810000C37BD4680BC70474002001000C00140DC
:1078200080B483B000AFB44B00225A60B34B5B68A6
:10783000FB71FB79083B502B00F27A8101A252F8D0
:1078400023F000BF89790000317B0000317B00000C
:10785000317B0000317B0000317B0000317B000078
:10786000317B0000AF790000317B0000317B0000EC
:10787000317B0000317B0000317B0000317B000058
:10788000317B0000D5790000317B0000317B0000A6
:10789000317B0000317B0000317B0000317B000038
:1078A000317B00001D7B0000317B0000317B00003C
:1078B000317B0000317B0000317B0000317B000018
:1078C000317B00000B7A0000317B0000317B00002F
:1078D000317B0000317B0000317B0000317B0000F8
:1078E000317B0000557A0000317B0000317B0000C5
:1078F000317B0000317B0000317B0000317B0000D8
:10790000317B0000317B0000317B0000317B0000C7
:10791000317B0000317B0000317B0000317B0000B7
:10792000317B0000697A0000317B0000317B000070
:10793000317B0000317B0000317B0000317B000097
:10794000317B00001D7B0000317B0000317B00009B
:10795000317B0000317B0000317B0000317B000077
:10796000317B00008D7A0000317B0000317B00000C
:10797000317B0000317B0000317B0000317B000057
:10798000317B0000CB7A00005D4B00221A605B491E
:107990005B4B1B685A1C5A4802605A4A134493F8BE
:1079A0004030DBB28B60554B28229A61C7E0564BC2
:1079B00000221A605149524B1B685A1C5048026001
:1079C000504A134493F84030DBB28B604B4B282273
:1079D0009A61B4E04D4B5B68012B06D1474B1022F6
:1079E0001A604B4B07225A600BE04449444B1B681A
:1079F0005A1C43480260434A134493F84030DBB2B8
:107A00008B603E4B08229A6199E0404B5A683C4B90
:107A10001B689A420CD93949394B1B685A1C3848A3
:107A20000260384A134493F84030DBB28B600DE0BB
:107A3000384B5B68002B03D0304B20221A6005E0E6
:107A40002E4B10221A60324B0C225A602B4B08220C
:107A50009A6174E0294B10221A602D4B09225A605A
:107A6000264B08229A616AE0274B1B685A1C294B57
:107A70005B689A4203D2214B04221A6002E01F4B3A
:107A800004229A611D4B08229A6158E01E4B1B6824
:107A90005A1C1D490A60194A9268D1B21E4A134401
:107AA0000A4683F84020184B1B685A1C194B5B6828
:107AB0009A4203D2114B04221A6002E00F4B0422B7
:107AC0009A610E4B08229A6139E00F4B1B685A1CD1
:107AD0000D490A60094A9268D1B20F4A13440A4616
:107AE00083F840200A4B0C225A60044B10221A6083
:107AF000024B08229A6122E04C02001000C00540AF
:107B00006C1300107413001034140010381400109B
:107B10004002001098120010A41200100A4B10220C
:107B20001A600A4B08225A60074B08229A6106E045
:107B3000064B0A225A60044B08229A6100BF00BF1C
:107B40000C37BD4680BC704700C0054040020010A5
:107B500080B483B000AFB44B00229A60B34B5B6833
:107B6000FB71FB79083B502B00F27A8101A252F89D
:107B700023F000BFB97C0000617E0000617E000040
:107B8000617E0000617E0000617E0000617E000079
:107B9000617E0000DF7C0000617E0000617E0000ED
:107BA000617E0000617E0000617E0000617E000059
:107BB000617E0000057D0000617E0000617E0000A6
:107BC000617E0000617E0000617E0000617E000039
:107BD000617E00004D7E0000617E0000617E00003D
:107BE000617E0000617E0000617E0000617E000019
:107BF000617E00003B7D0000617E0000617E000030
:107C0000617E0000617E0000617E0000617E0000F8
:107C1000617E0000857D0000617E0000617E0000C5
:107C2000617E0000617E0000617E0000617E0000D8
:107C3000617E0000617E0000617E0000617E0000C8
:107C4000617E0000617E0000617E0000617E0000B8
:107C5000617E0000997D0000617E0000617E000071
:107C6000617E0000617E0000617E0000617E000098
:107C7000617E00004D7E0000617E0000617E00009C
:107C8000617E0000617E0000617E0000617E000078
:107C9000617E0000BD7D0000617E0000617E00000D
:107CA000617E0000617E0000617E0000617E000058
:107CB000617E0000FB7D00005D4B00221A605B4985
:107CC0005B4B1B685A1C5A4802605A4A134493F88B
:107CD0008030DBB28B60554B28229A61C7E0564B4F
:107CE00000221A605149524B1B685A1C50480260CE
:107CF000504A134493F88030DBB28B604B4B282200
:107D00009A61B4E04D4B9B68012B06D1474B102282
:107D10001A604B4B07229A600BE04449444B1B68A6
:107D20005A1C43480260434A134493F88030DBB244
:107D30008B603E4B08229A6199E0404B9A683C4B1D
:107D40001B689A420CD93949394B1B685A1C384870
:107D50000260384A134493F88030DBB28B600DE048
:107D6000384B9B68002B03D0304B20221A6005E073
:107D70002E4B10221A60324B0C229A602B4B082299
:107D80009A6174E0294B10221A602D4B09229A60E7
:107D9000264B08229A616AE0274B1B685A1C294B24
:107DA0009B689A4203D2214B04221A6002E01F4BC7
:107DB00004229A611D4B08229A6158E01E4B1B68F1
:107DC0005A1C1D490A60194A9268D1B21E4A1344CE
:107DD0000A4683F88020184B1B685A1C194B9B6875
:107DE0009A4203D2114B04221A6002E00F4B042284
:107DF0009A610E4B08229A6139E00F4B1B685A1C9E
:107E00000D490A60094A9268D1B20F4A13440A46E2
:107E100083F880200A4B0C229A60044B10221A60CF
:107E2000024B08229A6122E04C02001000000A4036
:107E3000681300107413001044140010381400105C
:107E40004002001098120010A41200100A4B1022D9
:107E50001A600A4B08229A60074B08229A6106E0D2
:107E6000064B0A229A60044B08229A6100BF00BFA9
:107E70000C37BD4680BC704700000A40400200102D
:107E800080B500AF0E4A0E4BD3F8C43043F4002344
:107E9000C2F8C4300B4B6C229A610A4B80225A61A3
:107EA000084B80221A610B20FFF718FB054B40227C
:107EB0001A600023044A1360044A136000BF80BDA7
:107EC00000C00F4000C005406C13001034140010B7
:107ED00080B483B000AF78601B4A7B6852F82330CF
:107EE00020221A60194A7B68062142F8231015E007
:107EF000174A7B6852F82330164A934205D9134A31
:107F00007B680B2142F823100EE0114A7B6852F87F
:107F100023305A1C0E497B6841F823200B4A7B68AA
:107F200052F82330062BE3D0074A7B6852F82330FF
:107F300020229A61054A7B6852F8233018460C3794
:107F4000BD4680BC704700BF8CB0000040020010EE
:107F50004C020010FEFFFF0080B400AF574A574BA1
:107F60005B6843F470535360544A544B5B6823F08E
:107F700070735360514A514B5B6843F0A073536078
:107F80004E4A4E4B5B6823F4707353604B4A4B4B25
:107F90005B6843F470735360484A484B5B6C23F44E
:107FA00070735364454A454B5B6C43F420735364D0
:107FB000424A424B9B6E43F4C01393663F4A3F4B89
:107FC0001B6823F0706313603C4A3C4B1B6843F012
:107FD00020631360394A394B1B6923F47023136102
:107FE000364A364B1B6823F00F031360334A334B7A
:107FF0001B6943F420231361304A304B1B6843F064
:108000000A0313602D4A2D4B1B6843F0A003136035
:108010002A4A2A4B1B6C43F0A0031364274A274BC0
:108020005B6823F47F135360244A244B5B6843F45A
:10803000AA135360214A214B5B6C23F47F135364D2
:108040001E4A1E4B5B6C43F42A1353641B4A1B4BA2
:10805000DB6843F07043D360184A184BDB6823F4A5
:108060007033D360154A154BDB6843F42033D3607B
:10807000134B144A1A60144B144A1A60144B102202
:108080001A60134B1022DA61124A124B1B6843F03C
:10809000005313600A4B4FF0FF32DA610A4B4FF086
:1080A000FF32DA610A4B4FF0FF32DA61094B4FF0D1
:1080B000FF32DA6100BFBD4680BC704700C002409D
:1080C00000C009201000020020C0092000000F108D
:1080D00040C0092080C0092080B500AFFEF79EFA9D
:1080E000024B1B680133014A1360F9E75802001084
:1080F00080B400AF0A4B00221A700A4B00221A709B
:10810000094B00221A70094B00221A70084B0022FA
:108110001A70084B00221A6000BFBD4680BC704731
:10812000551400104D140010541400104E1400107B
:108130004C1400105014001080B500AF00F00AF885
:1081400000F092F800F078F900F08CFA00F016FBDD
:1081500000BF80BD80B582B000AF364B1B78052BC9
:1081600063D801A252F823F01D8200008181000033
:10817000A1810000BD810000D98100001D820000A6
:108180002D4B04221A702D4B00221A702C48FDF73B
:1081900093FE2C4B01221A70264B02221A7044E0E7
:1081A000284B1B78062B3BD12748FDF785FE274B34
:1081B00001221A701F4B03221A7031E0234B1B78E7
:1081C000072B2FD12248FDF777FE224B01221A7090
:1081D000184B04221A7025E01E4B1B78042B23D168
:1081E0001D48FDF769FE1D4B00221A700023FB712C
:1081F00007E0FB791A4A002122F81310FB790133BA
:10820000FB71FB79162BF4D90B4B07221A70154B17
:1082100001221A70074B05221A7005E000BF04E026
:1082200000BF02E000BF00E000BF00BF0837BD464E
:1082300080BD00BF551400106C1200107D0B0010A3
:1082400098B000004D140010B8B000005414001095
:10825000DCB000004E14001000B10000FA0B00105A
:10826000CC0B00105A12001080B582B000AF654BE5
:108270001B78062B00F2B68001A252F823F000BF53
:10828000ED8300009D820000DF8200002F8300004C
:108290005B830000D1830000ED8300005A4B1A7805
:1082A0005A4B1A70584B04221A705948FDF704FEB5
:1082B000012000F09FFE002000F09CFE554B41F293
:1082C00070729A8449F640420121012000F0BAFC04
:1082D0005148FDF7F1FD4B4B02221A708DE04F4BD8
:1082E0005B78002B13D0012000F084FE494B4FF443
:1082F00016729A844FF47A720021012000F0A2FCD9
:108300004748FDF7D9FD3F4B03221A7070E001206A
:1083100000F0F0FF0346002B6AD0424B04221A7093
:10832000394B03221A70374B00221A7060E001208B
:1083300000F0E0FF0346002B5CD0012000F05AFE65
:108340004FF4FA620121012000F07CFC3648FDF771
:10835000B3FD2C4B04221A704CE0304B5B78002BA1
:1083600026D0012000F046FE3048FDF7A5FD254B44
:1083700006221A70254B1A78234B1A702C4B1B7847
:10838000002B11D0012000F031FC78607B68002BBD
:1083900002DA7B685B427B60264A7B685360FEF7AB
:1083A00099FA234B00221A70012000F035FC23E0DB
:1083B000012000F09FFF0346002B1DD0194B042223
:1083C0001A70114B03221A700E4B00221A7013E020
:1083D000174B01221A70012000F01EFC094B0122EC
:1083E0001A700AE0074B00221A7006E000BF04E092
:1083F00000BF02E000BF00E000BF00BF0837BD467D
:1084000080BD00BF4D1400106C1200105C02001003
:1084100014B10000881400102CB10000FC0A0010F8
:1084200044B10000FA0B001064B1000084B10000F8
:108430005D0200107012001080B582B000AF7C4B5E
:108440001B78072B00F2E68001A252F823F000BF50
:108450001586000071840000B384000013850000BD
:108460005F8500008B8500000186000015860000F6
:10847000704B1A78704B1A706E4B04221A706F484A
:10848000FDF71AFD012000F0B5FD002000F0B2FD5F
:108490006B4B4FF4FA621A8042F2107200210020F6
:1084A00000F0D0FB6748FDF707FD614B03221A700F
:1084B000B9E0002000F01EFF0346002B12D0002080
:1084C00000F098FD5E4BC8221A804FF4FA6200213A
:1084D000002000F0B7FB5C48FDF7EEFC544B032294
:1084E0001A7099E0594B1B78002B00F09580002002
:1084F00000F080FD524BC8221A80F022012100209A
:1085000000F0A0FB5248FDF7D7FC494B04221A703B
:1085100082E04E4B1B78002B11D0002000F06AFD4A
:10852000474BC8221A80F0220121002000F08AFB6C
:108530004748FDF7C1FC3E4B04221A706EE0002054
:1085400000F0D8FE0346002B68D0424B05221A707B
:10855000384B03221A70364B00221A705EE000205E
:1085600000F0C8FE0346002B5AD0002000F042FD68
:10857000334BC8221A804FF47A720021002000F099
:1085800061FB2B4B05221A704AE0304B1B78002B05
:1085900026D0002000F02EFD2F4B1B78002B14D08E
:1085A000002000F023FB78607B68002B02DA7B68F8
:1085B0005B427B60294A7B681360274B00221A705C
:1085C000FEF788F9264B01221A70002000F024FBE8
:1085D000174B07221A70184B1A78164B1A7021E0A5
:1085E000002000F087FE0346002B1BD0194B05220C
:1085F0001A70104B03221A700D4B00221A7011E0F2
:10860000154B01221A70002000F006FB084B0122D6
:108610001A7008E000BF06E000BF04E000BF02E0FF
:1086200000BF00E000BF00BF0837BD4680BD00BFEF
:10863000541400106C1200105E020010A4B100006F
:1086400088140010C0B10000E0B10000FC0A001066
:10865000FCB10000FA0B00105F0200107012001055
:108660004E14001080B500AF3B4B1B78042B6CD828
:1086700001A252F823F000BF4B8700008D86000056
:10868000EB860000238700004B870000334B1A78ED
:10869000334B1A70314B04221A703248FDF70CFC30
:1086A000314B1B78002B10D12F4B9B78002B0CD11A
:1086B0002E4BC8221A8042F210720021002000F0D6
:1086C000C1FA254B02221A7044E0274B9B78002BFD
:1086D00007D0214B04221A70214B1A781F4B1A70B5
:1086E00038E01D4B02221A7034E01F4B1B78002B20
:1086F0002DD0002000F07EFC002000F08DFA1B4BF6
:108700004FF4FA621A801A4B1B681A4601210020A6
:1087100000F098FA1748FDF7CFFB0F4B03221A70B1
:1087200015E0002000F0E6FD0346002B11D00020EC
:1087300000F060FC1048FDF7BFFB074B04221A70E5
:10874000074B1A78054B1A7003E000BF02E000BF28
:1087500000E000BF00BF80BD4E1400106C1200107E
:108760006002001014B20000FC0A0010881400100F
:10877000701200102CB2000054B2000098B500AF87
:10878000AD4B1B78062B00F2008101A252F823F0BA
:108790008B890000AD870000F58700004D88000040
:1087A000C1880000178900008B890000A348FDF7ED
:1087B00083FBA34B04221A70A24B00221A70A2481A
:1087C000FDF77AFBA14B00221A80A14B00221A6010
:1087D000A04B41F270729A849F4B5B681A4600214D
:1087E000012000F02FFA9D48FDF766FB924B022214
:1087F0001A70CAE0984B1B891A46994B1B689A421B
:108800000CD2984B06221A70974B01221A708C4B8F
:1088100003221A70884B06221A70B6E0012000F07D
:1088200069FD0346002B00F0A9808A4B4FF41672B5
:108830009A8440F688120021012000F003FA8B4848
:10884000FDF73AFB7C4B03221A709EE0884B9A8915
:10885000814B1B899A4220D9012000F0CBFB7E4B33
:10886000B3F90E301946834B1B6840F2C44202FB39
:1088700003F3814AA2FB03235B0B0B441A4600213E
:10888000012000F0DFF97D48FDF716FB7C4B00224C
:108890001A60694B04221A7072E0012000F02AFD70
:1088A0000346002B6CD06F4B0B221A70644B0322D3
:1088B0001A706D4B01221A705F4B06221A705FE02E
:1088C0006F4B1B6801336E4A13606A4B5B6803F59C
:1088D000C8726B4B1B689A4208D26A48FDF7ECFAE3
:1088E000614B01221A70544B05221A70584B1A68BA
:1088F0005B4B1B689A4203D2594B1B68544A136066
:10890000554B9B891A46524B1B689A423AD201201A
:1089100000F070FB36E0544B1B78062B34D1554BDE
:108920009B680133534A9360FDF7C8FF424B062210
:108930001A705548FDF7C0FA414B01221A70434B9B
:108940001A88524B1A80444B5B891A46404B1B686D
:108950009A4205D9434B15221A70394B03221A70DB
:108960003D4B9B891A463A4B1B689A420CD23D4BB1
:1089700016221A70324B03221A7005E000BF04E081
:1089800000BF02E000BF00E000BF414B1B885A1C43
:1089900091B23F4A11800A2B4BD9274B1B78062BEB
:1089A00047D801A252F823F0318A0000318A000032
:1089B000C5890000C5890000C5890000C58900007F
:1089C000318A0000214B1B881A462D4B1B6899B237
:1089D000304B23F832101D4B1B881846204B1B6868
:1089E00099B22C4AC30013440A465A80174B1B887D
:1089F0001C46012000F0FAF8034699B2254AE3002C
:108A000013440A469A80114B1B8818460A4B197862
:108A1000204AC30013440A469A710C4B1B8818461F
:108A20001D4B19781B4AC30013440A46DA7100E053
:108A300000BF00BF98BD00BF4C1400107CB2000006
:108A40006C120010040B001090B2000062020010C3
:108A5000501400108814001070120010A4B200000E
:108A6000980B0010FA0B00104D140010C0B200005B
:108A700074020010B80B00105917B7D1F4B20000FF
:108A8000640200102CB3000058B30000B40B0010B7
:108A900068020010100C0010A40B001080B483B00A
:108AA00000AF0346FB71084997F907305B09FA7973
:108AB00002F01F02012000FA02F241F8232000BF59
:108AC0000C37BD4680BC704700E100E080B582B045
:108AD00000AF3C4B3B600023FB7110E00023BB71F7
:108AE00007E03B681A1D3A6000221A60BB79043324
:108AF000BB71BB79232BF4D9FB790133FB71FB7973
:108B0000012BEBD9304A304BD3F8C43043F4400347
:108B1000C2F8C4302D4B00221A702C4B1A782C4B03
:108B20001A704FF040231922DA604FF040230222DE
:108B30005A604FF0402303225A61264B1922DA6013
:108B4000244B02225A60234B03225A61224BFF22FC
:108B50001A70214B1A78214B1A70214B01221A608E
:108B60001F4B1B681F4A13601F4B02225A601E4B8B
:108B70000522DA601C4B00221A671B4B02225A6145
:108B8000194B4FF47A729A61174B4FF44052DA64E2
:108B9000154B00221A64144B00225A64124B3122E6
:108BA0001A65114B0B225A600F4B09225A600120A3
:108BB000FFF774FF0220FFF771FF00BF0837BD46C3
:108BC00080BD00BF8814001000C00F407C1400104E
:108BD000841400100080004060140010D0140010B5
:108BE000DC1400105C1400100080014080B483B0DD
:108BF00000AF0346FB71FA7906491346DB001344C4
:108C00009B000B440C331B6818460C37BD4680BCD8
:108C1000704700BF8814001080B483B000AF0346D3
:108C2000FB71FA7906491346DB0013449B000B44A1
:108C30000C3300221A6000BF0C37BD4680BC704761
:108C40008814001090B583B000AF03463A60FB7102
:108C50000B46BB71FA79396892481346DB0013441E
:108C60009B00034408331960FA798E491346DB00F0
:108C700013449B000B442233BA791A70FA7989495C
:108C80001346DB0013449B000B44183301221A8067
:108C9000FA7984491346DB0013449B000B440233EA
:108CA0001B88002B14D0FA797E491346DB0013444D
:108CB0009B000B44163332221A80FA797949134605
:108CC000DB0013449B000B44063301221A701CE0A6
:108CD000FA79F97973480B46DB000B449B00034497
:108CE0001B8818B26F491346DB0013449B000B44EA
:108CF000163302461A80FA796A491346DB00134498
:108D00009B000B44063300221A70FA79F979654802
:108D10000B46DB000B449B0003441888F979614C37
:108D20000B46DB000B449B00234404331B88B0FB41
:108D3000F3F39BB218465B491346DB0013449B00D8
:108D40000B4410331860FA79F97956480B46DB006A
:108D50000B449B00034410331B68590051481346D1
:108D6000DB0013449B00034410331960FA79F9794E
:108D70004C480B46DB000B449B000344103318683F
:108D8000F979484C0B46DB000B449B0023441B88BD
:108D900003FB00F3444981FB03018911DB17C91A66
:108DA00040481346DB0013449B0003441033196012
:108DB000BA79FB791146184600F0ECF8FA79F9799E
:108DC00038480B46DB000B449B0003441C331888D7
:108DD00034491346DB0013449B000B442033024606
:108DE0001A80324B1B78FF2B51D1BB79012B04D158
:108DF0002F4B4FF0FF321A6002E02D4B01221A6018
:108E00002A4AFB791370FA791346DB0013449B005E
:108E10000833244A1344274A1360FA791346DB00C7
:108E200013449B0008331F4A13440433224A13603F
:108E3000FA791346DB0013449B001A4A13441F4A75
:108E40001360FA791346DB0013449B001033154A74
:108E5000134406331A4A1360FB79184600F064FA8B
:108E60000246184B1A60174B1B6898474FF0402278
:108E7000134B1B68B3F900301946134B93FBF1F306
:108E80005B1093614FF0402301225A606AE00F4B60
:108E90001B78FF2B66D1BB79012B1BD10C4B012218
:108EA0001A601BE088140010D34D6210D01400101B
:108EB0005C140010D8140010641400107414001016
:108EC000D41400105814001040420F006014001019
:108ED000DC140010254B4FF0FF321A60244AFB7956
:108EE0001370FA791346DB0013449B000833214AC0
:108EF0001344214A1360FA791346DB0013449B00A4
:108F000008331C4A134404331C4A1360FA7913468D
:108F1000DB0013449B00174A1344194A1360FA7983
:108F20001346DB0013449B001033124A13440633EC
:108F3000144A1360FB79184600F0F6F90246124B0A
:108F40001A60114B1B689847104A0E4B1B68B3F907
:108F5000003019460E4B93FBF1F35B1093610B4B02
:108F600001225A6000BF0C37BD4690BDDC140010D2
:108F70006014001088140010681400107814001099
:108F8000701400106C140010801400100080004059
:108F900040420F0080B483B000AF03460A46FB7125
:108FA0001346BB71FB79002B02D0012B0DD019E0C9
:108FB000BB79002B04D00E4B4FF400329A6111E0C4
:108FC0000B4B4FF40032DA610CE0BB79002B04D07C
:108FD000074B4FF400229A6103E0054B4FF4002247
:108FE000DA6100BF00BF0C37BD4680BC704700BFD0
:108FF00020C0092080B483B000AF0346FB71214B31
:109000001B78FA799A4206D14FF0402302225A6027
:109010001C4BFF221A701C4B1B78FA799A4205D11F
:109020001A4B02225A60184BFF221A70FA7918491B
:109030001346DB0013449B000B44083300221A60E4
:10904000FA79F97912480B46DB000B449B00034484
:109050001E3318880E491346DB0013449B000B4453
:10906000203302461A80FA7909491346DB0013447B
:109070009B000B44063300221A7000BF0C37BD461C
:1090800080BC7047D01400106014001000800040B5
:109090008814001090B400AF924A934B1B8C194671
:1090A0004FF47A7303FB01F39049A1FB03135B0AAE
:1090B00013648C4A8C4BB3F8443019464FF47A73DE
:1090C00003FB01F38949A1FB03135B0A5364854B3E
:1090D00030221A65864B1B781946834A0B46DB0003
:1090E0000B449B00134406331B78012B4DD1804B5E
:1090F0001B7819467C4A0B46DB000B449B0013444B
:109100001633B3F900301846794B1B781946764A66
:109110000B46DB000B449B0013441B88984227DA64
:10912000734B1B781846724B1B7819466E4A0B46D8
:10913000DB000B449B0013441633B3F900309AB2A2
:109140006B4B1B781C4668492346DB0023449B007D
:109150000B4402331B8813449BB219B2624A034684
:10916000DB0003449B00134416330A461A80A7E031
:109170005F4B1B7819465C4A0B46DB000B449B0097
:109180001344063302221A709AE0594B1B78194691
:10919000554A0B46DB000B449B00134406331B78F7
:1091A000032B5CD1524B1B7819464F4A0B46DB0010
:1091B0000B449B0013441633B3F90030322B41DDCE
:1091C0004B4B1B7818464A4B1B781946464A0B46B0
:1091D000DB000B449B0013441633B3F900309AB202
:1091E000434B1B781C4640492346DB0023449B002D
:1091F0000B4404331B88D31A9BB219B23A4A034674
:10920000DB0003449B00134416330A461A80384B94
:109210001B781946344A0B46DB000B449B00134471
:109220001633B3F90030312B4ADC314B1B78194629
:109230002D4A0B46DB000B449B00134416333222AD
:109240001A803DE02A4B1B781946274A0B46DB0063
:109250000B449B001344063300221A7030E0244B69
:109260001B781946204A0B46DB000B449B00134435
:1092700006331B78022B23D11D4B1B7819461A4A43
:109280000B46DB000B449B00134408331A68184B51
:109290001B78184614490346DB0003449B000B442B
:1092A00010331B689A420BDA114B1B7819460E4A91
:1092B0000B46DB000B449B001344063303221A7059
:1092C0000B4B1B780133DAB2094B1A70084B1B7831
:1092D000012B02D9064B00221A7000BFBD4690BC7C
:1092E000704700BF00800140881400101F85EB51BB
:1092F0006A02001080B483B000AF0346FB71FA79B4
:1093000008491346DB0013449B000B4408331B68D9
:10931000002B01D1012300E0002318460C37BD4685
:1093200080BC70478814001080B485B000AF03463D
:10933000FB71FB79002B02D0012B03D005E0064B1B
:10934000FB6002E0054BFB6000BFFB68184614376A
:10935000BD4680BC704700BFF19400002D95000011
:1093600080B500AF284B1B689847284B1B681A68CC
:10937000013A1A60264B1B68254A12681168254A73
:1093800012680A441A60214B1B681B68002B29DCF9
:109390004FF0402302225A601F4B1B7819461E4B88
:1093A0001B7818461D4A0346DB0003449B00134408
:1093B0001E331888194A0B46DB000B449B001344EC
:1093C000203302461A80144B1B781946134A0B4669
:1093D000DB000B449B001344063300221A700E4B33
:1093E000FF221A704FF040220D4B1B68B3F900307A
:1093F00019460C4B93FBF1F35B1093614FF0402344
:1094000001221A6000BF80BD58140010D81400104B
:10941000641400105C140010D014001088140010A4
:10942000D414001040420F0080B500AF274B1B68DA
:109430009847274B1B681A68013A1A60254B1B682E
:10944000244A12681168244A12680A441A60204BA0
:109450001B681B68002B28DC204B02225A60204B23
:109460001B7819461E4B1B7818461E4A0346DB0024
:1094700003449B0013441E3318881A4A0B46DB0032
:109480000B449B001344203302461A80144B1B7874
:109490001946144A0B46DB000B449B001344063369
:1094A00000221A700E4BFF221A700C4A0E4B1B68DA
:1094B000B3F9003019460D4B93FBF1F35B10936148
:1094C000064B01221A6000BF80BD00BF801400104F
:1094D0006814001078140010DC14001000800040A4
:1094E00060140010881400106C14001040420F002B
:1094F00080B400AF0B4B1B78002B07D00A4B4FF406
:109500008032DA61074B00221A7006E0064B4FF4F6
:1095100080329A61034B01221A7000BFBD4680BCA5
:10952000704700BF8414001020C0092080B400AF31
:109530000B4B1B78002B07D00A4B4FF48022DA61CB
:10954000074B00221A7006E0064B4FF480229A6106
:10955000034B01221A7000BFBD4680BC704700BF9C
:109560007C14001020C0092080B400AF074B40F2EB
:10957000E7321A80064B00221A80054B1A88054BE9
:109580001A8000BFBD4680BC704700BF4A1500105E
:10959000481500104C15001090B583B000AF724B09
:1095A0001B781C46704B1B781846FAF74FFE034693
:1095B0009AB26E4B23F814206B4B1B780133DAB24E
:1095C000694B1A70684B1B7803F00703DAB2664BDD
:1095D0001A700420FAF73AFE03467B607B6840F677
:1095E000E44202FB03F37B607B681B137B607868BB
:1095F00001F0BDF958A3D3E9002300F07BFF034637
:109600000C461846214656A3D3E9002301F0E6F89C
:1096100003460C461846214601F066F903467B6076
:10962000534B1B881A467B689A4211DA7B689AB2C0
:109630004F4B1A804E4B1B885B099AB24D4B1B88CF
:109640009A4205D94A4B1B885B099AB2494B1A804A
:10965000494B1B881A467B689A4203DD7B689AB2A5
:10966000454B1A80444B1B881A46424B1B881A44B0
:109670007B689A420CDA414B1B78002B08D13F4B98
:1096800001221A703E4B00221A703E4B00221A80B3
:10969000394B1B881A46374B1B881A447B689A4201
:1096A0000FDB364B1B78002B0BD0374B1022DA61C7
:1096B000324B00221A70324B01221A70314B0022B9
:1096C0001A802E4B1B78002B03D12D4B1B78002BBF
:1096D0000FD02C4B1B8801339AB22A4B1A80294B8E
:1096E0001A882A4B1B889A4203D9264B1A88274B83
:1096F0001A80274B1B88C3F57A73244A128802FB11
:1097000003F3244A82FB03129211DB17D31A3B6046
:109710001C4B1B881A463B689A4203DD1A4B1022E9
:109720009A6102E0184B1022DA61164B1B88B3F5E0
:10973000AF7F0BD3134B00221A80144B00221A80E8
:109740000E4B00221A700E4B00221A7000BF0C370D
:10975000BD4690BDAFF30080ABCFD556EC2FBB3FDD
:109760002A3A92CB7F48DF3F6B0200107402001050
:109770004C150010080000104A1500106C02001073
:109780006D0200106E02001040C009204815001044
:109790009C0B0010D34D621080B500AF0348FAF760
:1097A0000FFD034B00221A8000BF80BD20BCBE000D
:1097B0005215001080B483B000AF274B1B887B602C
:1097C0007B689AB2254B1A807B6840F6E44202FB24
:1097D00003F37B607B681B0B7B607B68204AA2FBEA
:1097E00003239B087B607B689AB21E4B1A801A4B3E
:1097F0009B887B607B6840F6E44202FB03F37B605E
:109800007B681B0B7B607B68154AA2FB03239B08CC
:109810007B607B689AB2134B5A800F4BDB887B606E
:109820007B6840F6E44202FB03F37B607B681B0B22
:109830007B607B68A3F5FA737B607B68084AA2FBB8
:109840000323DB087B607B689AB2074B1A8000BF5A
:109850000C37BD4680BC70477402001050150010D4
:10986000CDCCCCCC541500105215001080B483B070
:1098700000AF0346FB71084997F907305B09FA7995
:1098800002F01F02012000FA02F241F8232000BF7B
:109890000C37BD4680BC704700E100E080B483B067
:1098A00000AF0E4B1A880E4B1B889A4206D80C4B01
:1098B0001A880A4B1B88D31AFB8008E0084B1A88C9
:1098C000064B1B88D31A9BB203F58073FB80FB8881
:1098D00018460C37BD4680BC704700BF60150010AD
:1098E0006C15001080B582B000AF1F4B9B687B6089
:1098F0007B6803F00203002B18D0FFF7CFFF03466D
:10990000002B13D0184B194A12881146184A525C82
:109910001A70164B1B8801339AB2144B1A80134BE2
:109920001B88FF2B02D9114B00221A807B6803F0A1
:109930000403002B14D00F4B1B881A460A4B1B78CC
:10994000D9B20D4B99540B4B1B8801339AB2094B7A
:109950001A80084B1B88FF2B02D9064B00221A8065
:1099600000BF0837BD4680BD00C000406015001034
:10997000701600106A1500107017001080B586B0C0
:1099800000AF7860084611461A460346FB700B4646
:10999000BB7013467B70344B1B689B083B61334A9A
:1099A000324BD3F8C43043F08073C2F8C4302F4A2E
:1099B0002E4BD3F8AC3123F44033C2F8AC312C49F0
:1099C000FA78BB781344DAB27B781344DBB2803B7D
:1099D000DBB20B733B691A097B68B2FBF3F3FB60E4
:1099E000234AFB681B0ADBB21371214BFA68D2B21F
:1099F0001A701F49FA78BB781344DAB27B781344A3
:109A0000DBB20B731A4B07221A720023FB820BE0A6
:109A1000FA8AFB8A17490020C8541649C95C164BBC
:109A20009954FB8A0133FB82FB8AFF2BF0D9134B3D
:109A300000221A80114B1A88114B1A80104B1A8879
:109A4000104B1A800F4B1A880F4B1A80084A084B8C
:109A50005B6843F0030353600720FFF707FF00BF75
:109A60001837BD4680BD00BF0C00001000C00F407D
:109A7000008009407819001070150010701800104F
:109A800068150010641500105C15001080B483B0D8
:109A900000AF0C4B1B881A460B4B9B5CFB71094BB0
:109AA0001B8801339AB2074B1A80064B1B88FF2B89
:109AB00002D9044B00221A80FB7918460C37BD46A8
:109AC00080BC7047701800107819001080B483B003
:109AD00000AF0346FB710C4B1B8819460B4AFB7900
