:020000040800F2
:1020000030230020312100085D9800085D9E000803
:10201000679E0008719E00087B9E0008000000007B
:102020000000000000000000000000002D990008E2
:102030005F980008000000002D9900084F980008E4
:1020400045980008459800084598000845980008FC
:1020500045980008459800084598000845980008EC
:1020600045980008459800084598000845980008DC
:1020700045980008459800084598000845980008CC
:1020800045980008255C000845980008DF380008DE
:1020900067380008459800084598000845980008EA
:1020A000459800084598000845980008459800089C
:1020B0004598000845980008459800086D5B0008A1
:1020C000459800084598000845980008F5780008EC
:1020D0004598000861980008459800084598000850
:1020E000459800084598000845980008459800085C
:1020F000459800084598000845980008459800084C
:10210000459800084598000845980008459800083B
:10211000459800084598000845980008459800082B
:10212000459800084598000845980008459800081B
:102130000249D1F800D008F01BB8000000200008C8
:10214000FFFFFFFFFFFFFFFFFFFFFFFFFFFFFFFF9F
:10215000AA325AA5002000084BA20008B351A7DFFD
:102160003030303030363635004672616D6553653B
:10217000616C6572393600312E30302E30332E329C
:102180003431350000FFFFFFFFFFFFFFFFFFFFFFC0
:10219000FFFFFFFFFFFFFFFFFFFFFFFFFFFFFFFF4F
:1021A000FFFFFFFFFFFFFFFFFFFFFFFFFFFFFFFF3F
:1021B000FFFFFFFFFFFFFFFFFFFFFFFFFFFFFFFF2F
:1022000010B500202CE03C21DFF89C2A03009BB293
:102210004B43134400249C7603009BB24B4313446E
:1022200000245C6203009BB24B43134400249C6275
:1022300003009BB24B43134400245C6003009BB239
:102240004B4313440400A4B2640883F82140030004
:102250009BB201FB03F11144002281F82020401CB5
:10226000010089B20629CEDB0020DFF8401A088081
:1022700001F098F810BD2DE9F24F040015001E0082
:1022800001F0EEFA0700E4B25FEA4408D0E040460D
:10229000C0B209FB00F05044406828444146C9B22E
:1022A00009FB01F14AF801006EE05FF03C09DFF83C
:1022B000F8A94046C0B209FB00F050440021017764
:1022C0004046C0B209FB00F050440021C1764046B0
:1022D000C0B209FB00F05044002101764046C0B274
:1022E00009FB00F050443900C9B211F01F013A0057
:1022F000D2B2120212F4005211434246D2B29201FB
:1023000012F0400211434246D2B2D20112F440729E
:1023100011434246D2B2920012F0200211434246CB
:10232000D2B2D20112F4C052114311F5C0718181B1
:102330004FF0FF0B4046C0B209FB00F0504480F85C
:1023400019B04046C0B209FB00F05044A02181768C
:102350004046C0B209FB00F05044009981604046FD
:10236000C0B209FB00F050443100490841604046CA
:10237000C0B22100C9B2B0EB410F88D14046C0B213
:1023800009FB00F04AF800504046C0B209FB00F0DB
:102390005044002141624046C0B209FB00F0504465
:1023A000042181624046C0B209FB00F05044002184
:1023B000C1624046C0B209FB00F0504400210163F5
:1023C0004046C0B209FB00F0504400214163404642
:1023D000C0B209FB00F05044002141774046C0B232
:1023E00009FB00F00AEB0001DFF8B82B4346DBB233
:1023F0001C20434302EB030088630022B6A1404641
:10240000C0B209FB00F05044806B01F041FB404634
:10241000C0B209FB00F050440021C1774046C0B271
:1024200009FB00F90AEB090080F81EB018F1010859
:102430004046C0B22100C9B24900891C8842FFF65B
:1024400034AF0022A5A1DFF8603B2500EDB21C20CF
:10245000454303EB050001F01BFB0122A0A1DFF8BF
:102460004C0B01F015FBDFF8480B2C210022230058
:10247000DBB24B43C2542200D2B24A43024400238F
:102480005370E4B24C432044FF218170BDE8F18FCA
:1024900080B58A6A0B689854521C4868824200D3FF
:1024A0000022486A824205D100220021042000F067
:1024B00088FB03E08A62486B401C486301BD10B48E
:1024C000CA6A002308E00C68A054000A521C4C6839
:1024D000A24200D300225B1C042BF4D310BC704733
:1024E00010B504002100606BFFF7E9FF0020606376
:1024F000A06AE062A06A002100E0491C04290DD214
:10250000401C6268904200D30020626A9042F4D17D
:1025100000220021042000F054FB00E0A06210BD66
:10252000426A016B8A1841688A4201D34168521A93
:10253000426200210163704780B50200100080B242
:10254000C01110F00F000300DBB2DB1E082B26D2F7
:102550000300DBB2DB1E92B2D21012F00C0212EBBF
:102560006302C00706D5D2B20021092000F029FB82
:10257000FF202EE000200870100702D5083A012045
:1025800008701000C0B2032806DBD2B2002105207B
:1025900000F017FBFF201CE01000C0B219E00100A2
:1025A000C9B20C2901D1FF2013E0C0B201280AD121
:1025B0004FF4FA7001F0A0FA00220021092000F087
:1025C00000FBFF2005E000220021052000F0F9FAC1
:1025D000FF2002BD806800E0083002780B00DBB20B
:1025E0009A4202D00278002AF6D1704738B584B0FA
:1025F00001A801F03DF810F1010F67D0BDF804000B
:10260000002813D19DF8060002280ED19DF808007D
:1026100081280AD101F024F99DF80910C0B2814245
:1026200003D100F037FF01F0B7FA52E06946BDF878
:102630000400FFF781FFDFF870269DF8003013EBF0
:1026400040033C214B4302EB0304FF2841D09DF89B
:10265000061000293DD09DF8081011F00F01627E90
:10266000914236D09DF8081011F00F016176217F5C
:1026700000290AD19DF80810090606D40200D2B23A
:102680000021012000F09DFA23E0012508E021004F
:1026900001A82A00D2B210440079FFF7F9FE6D1CA0
:1026A00028009DF80610C0B28842F0D39DF80800BB
:1026B000400608D5002020772000FFF711FFA06B0F
:1026C00001F074FB05E01020207702E0012001F00A
:1026D00013FA05B030BD00006161000071630000B5
:1026E000646C730038B50400DFF8BC252000C0B26C
:1026F000C9B211EB40013C20414302EB01055FF000
:10270000FF31A86B01F088FBA87FFF2811D0DFF80C
:10271000581C2200D2B22C20424301EB0200017867
:102720004078814205D02100C9B2280000F0F2F8BB
:1027300027E0280000F07BF9280000F061F96877B5
:10274000697F2800FFF746FF02005088296B884206
:1027500004D050884FF6FF71884205D1290020002F
:10276000C0B25268904706E02300DBB200221C2171
:10277000280000F090F92800FFF7D2FE280000F0B2
:102780008FF831BD10B5002410E0DFF8E01B220007
:1027900092B23C20424301EB0200807E002804D12B
:1027A00000220021112000F00CFA641C200080B2ED
:1027B0000328EADB00F00AFE01F0C8FB00F054FF3A
:1027C00000281DD1DFF8A44B2100FE20FFF760FE9A
:1027D00001F046F8002809D1002200211A2000F05B
:1027E000F0F921000020FFF753FE03E02100012053
:1027F000FFF74EFE2000FFF773FEA06B01F0D6FA44
:10280000FFF7F4FEFCE780B500F01FF801BD38B516
:102810000400200000F0DDF80090009D2900490030
:1028200008000016401C002801D0002100E0090229
:10283000002908D094F821306A462F21200000F0AA
:102840002AF9EE20A076280032BD38B504000D002C
:1028500029002000C0B200F07EF829002000000A04
:10286000C0B200F078F829002000000CC0B200F0DF
:1028700072F82900240E2000C0B200F06CF831BDBF
:1028800038B504000D0029002000C0B200F063F844
:102890002900A4B2240A2000C0B200F05CF831BDC7
:1028A00010B50400E07E002809D11020E076032056
:1028B000A073607F60740020A07480202074207C4E
:1028C00050F040002074217C207E41182174207E2D
:1028D000401C10F00F002076E07F00280FD114F18B
:1028E0000C0000F063FE5FF0FF3100B288420AD1B5
:1028F00094F8212000210A2000F063F903E014F18C
:102900000C0000F030FE0020A0730020E076A02034
:10291000A07610BD38B50400DFF84C2AC9B22C20CF
:10292000414302EB0105FB20607721002878284411
:10293000007900F010F82100287805EB8000C068CD
:10294000FFF783FF2878401C10F007002870200054
:10295000FFF7A6FF31BD38B504000D00E87E002862
:1029600009D10320A873687F68740020A874102020
:10297000E87680202874A87B082823DB297C287E21
:1029800041182974287E401C10F00F002876E87F3B
:1029900000280FD115F10C0000F008FE5FF0FF31A8
:1029A00000B288420AD195F8212000210A2000F0C7
:1029B00008F903E015F10C0000F0D5FD0120A87323
:1029C00000202874A87B28440474A87B401CA873AA
:1029D00031BD38B50400200000F012F805002000D9
:1029E00000F00EF815EB0025200000F009F815EBBB
:1029F0000045200000F004F815EB0065280032BD0A
:102A00000100086B002801D100200FE0086B401E78
:102A1000086308684A6A805C4A6A521C4A624A6AC9
:102A20004B689A4201D300224A62C0B2704770B527
:102A30000400616A206B41186162606A61688842C3
:102A400003D3616A6068091A6162606AE16A884258
:102A500001D101201EE0042020630026002506E0AD
:102A6000360A2000FFF7CCFF16EB00666D1C28002D
:102A7000C0B20428F4DB6068B04209D20020E06AEA
:102A80006062012200211B2000F09BF8012001E080
:102A90002663002070BDFEB507000D0014001E0067
:102AA00000F0DEFE8030ADF8000008208DF8020056
:102AB000F87E002835D10320B873787F78743C21E4
:102AC000794A3000C0B2484310443300DBB24B4374
:102AD000134493F820305B1C80F820303000C0B2E3
:102AE0004843104490F8200000280CD13000C0B2B8
:102AF000484310443300DBB24B43134493F8203077
:102B00005B1C80F820303000C0B201FB00F102EB0A
:102B1000010090F82000B8741020F87680203874F6
:102B200005E03200D2B20021032000F04AF828006C
:102B30008DF80400ADB22D0A8DF80550B6F1800075
:102B40008DF806005849F6B23C20464301EB0600DA
:102B500090F820008DF80700002C0DD00420010013
:102B6000C9B2082915DA21786A460300DBB21A4493
:102B70001171641C401CF2E7042006E000216A4643
:102B80000300DBB21A441171401C0100C9B20829CC
:102B9000F4DB684600F00AFD10F1010F10D100F0DF
:102BA000D5FC684600F002FD00208DF804000220EC
:102BB0008DF8050080208DF80600684600F0F6FCD0
:102BC000F7BD7FB506000C00150000F049FE80300F
:102BD000ADF8000008208DF8020096F400463000A1
:102BE0008DF80400B6B2360A8DF80560B5F18000A4
:102BF0008DF80600002C0DD003200100C9B2082971
:102C000015DA21786A460300DBB21A441171641C9C
:102C1000401CF2E7032006E000216A460300DBB215
:102C20001A441171401C0100C9B20829F4DB0120CB
:102C300001F0B2F91D4C2188082919DA268821886B
:102C4000491C218001F0A8F900200100C9B208291F
:102C500010DA3100C9B204EBC1010200D2B2114452
:102C60006A460300DBB21A4412798A70401CECE712
:102C700001F092F9684600F099FC10F1010F11D1B2
:102C800000F064FC684600F091FC02208DF804001E
:102C900000208DF80500B5F180008DF8060068462B
:102CA00000F084FC7FBD0000F0070020C417002066
:102CB0002DE9F04704000D0000202800006BC046FD
:102CC000062808D22300DBB200221C212800FFF7CF
:102CD000E2FE002064E12800FFF792FE8246280011
:102CE000FFF777FE81462800FFF78AFE80465046B0
:102CF000C0B2B0280BD05046C0B2B32807D050465F
:102D0000C0B2E12803D05046C0B2C02805D1002689
:102D100001212800C177C04600E046462800006B2C
:102D2000C046F6B2B04208D02300DBB200221C211C
:102D30002800FFF7B0FE002032E19C4E4FF4FA610C
:102D4000300001F069F80700380080B2002808D090
:102D50002300DBB200223D212800FFF79CFE00206B
:102D60001EE15FFA8AFABAF1000F20D0BAF1A20F81
:102D70004BD0BAF1A30F72D0BAF1B00F00F081803E
:102D8000BAF1B20F6FD0BAF1B30F00F0BD80BAF153
:102D9000B50F00F0E980BAF1C00F00F08A80BAF1F7
:102DA000C10F05D0BAF1C20F00F0C880E1E0E7E042
:102DB000B9F5805F07D24046C0B210EB090041F27E
:102DC0000101884201D340271EE009F1006919F58D
:102DD000F839002708E02800FFF712FEDFF8901509
:102DE0003A00D2B288547F1C38004146C0B2C9B202
:102DF0008842F0D3DFF878255FFA88F8414689B237
:102E0000484600F0B3FF0700BAE0002708E02800BA
:102E1000FFF7F6FDDFF858153A00D2B288547F1C50
:102E200038004146C0B2C9B28842F0D3DFF8440549
:102E3000814512D34046C0B210EB0900DFF83815C7
:102E400088420AD2DFF828255FFA88F8414689B21D
:102E5000484600F08BFF070000E00F2790E00020BD
:102E600000F078FE8CE0DFF80C05814501D20E27DA
:102E700003E0484600F0A8FE0700002000F06AFECC
:102E80007EE029004046C0B2FFF765FD5FF0000A12
:102E900008E0290099F80000FFF75DFD19F101092C
:102EA0001AF1010A50464146C0B2C9B28842F0D375
:102EB00066E0B9F5805F07D24046C0B210EB09006A
:102EC00041F20101884201D340271CE009F1006969
:102ED00019F5F83929004046C0B2FFF73CFD5FF014
:102EE000000A0AE048460078C0462900C0B2FFF751
:102EF00032FD19F101091AF1010A50464146C0B2EA
:102F0000C9B28842EED33BE029004046C0B2FFF789
:102F100022FD5FF0000A0AE048460078C04629001A
:102F2000C0B2FFF718FD19F101091AF1010A504664
:102F30004146C0B2C9B28842EED321E0484600F013
:102F400009FE0700DFF82C8405E0404600F03CFE57
:102F5000070018F58068380080B2002803D1DFF838
:102F60001C048045F1D30BE0484600F0F3FD070058
:102F700006E02300DBB200222E212800FFF78BFDA4
:102F8000380080B2002807D02300DBB200223900CD
:102F900089B22800FFF77FFD300000F007FF002016
:102FA000BDE8F0877812002070170020701900200B
:102FB0006814002080B503000800DBB2002206215F
:102FC000FFF769FD012002BDF8B507000C002000E5
:102FD000FFF716FD06003000C0B200280DD1210019
:102FE0000220FFF7B8FC21000020FFF7B4FC21000D
:102FF0000C20FFF7B0FC002070E03000C0B2FF28CA
:103000000DD100F0CFFF050021000220FFF7A3FC47
:103010002100E86A80B2FFF733FC00205EE0300058
:10302000C0B2072802DADFF8585319E03000C0B206
:103030000C2803DADFF84C53F61F11E03000C0B261
:10304000132803DADFF840530C3E09E000253B006B
:10305000DBB2002208212000FFF71DFD00E06D1CFF
:103060003000C0B2002812D0761E00272800007859
:10307000C0460028F3D06D1C7F1C380080B2332876
:10308000F4DB21000020FFF766FC012026E000268B
:103090003000C0B240190078C04600280AD0761C23
:1030A0003000C0B23328F3DB21000020FFF753FCCF
:1030B000012013E021003000C0B2FFF74CFC08E013
:1030C00028000078C0466D1C2100C0B2FFF743FC09
:1030D000761E3000C0B20028F2D10120F2BD38B512
:1030E00005000C002000FFF78BFCC0B2002806D0C2
:1030F000022824D022D304282AD021D330E0210072
:103100000020FFF728FC2100A0480068800B10F089
:10311000010090F00100C0B2FFF71DFC21009C48A7
:103120000078FFF718FC2000FFF7BAFB142000F02E
:10313000E3FC00F0AFF900F02FFD18E017E016E017
:103140004FF40040934908600020914908700EE058
:103150004FF400409049086001208D49087006E056
:103160002B00DBB2002207212000FFF794FC210096
:103170000120FFF7F0FB210084480068800B10F06D
:10318000010090F00100C0B2FFF7E5FB210080488C
:103190000078FFF7E0FB012032BD38B504000D00D8
:1031A0002800FFF72DFCC0B200280AD0012813D157
:1031B0007A49E4B21C20444301EB040000F0F6FD20
:1031C00011E05FF0FF31754AE4B21C20444302EB8A
:1031D000040000F021FE06E02300DBB200222521DE
:1031E0002800FFF758FC012032BD70B504000D0027
:1031F0002800FFF705FC06003000C0B2FF2809D107
:10320000FF21594AE4B22C20444302EB04008170B0
:10321000A97727E03000C0B200281CD10020A87791
:1032200052492200D2B27820424301EB0200A84268
:1032300008D100214C4AE4B22C20444302EB0400A4
:1032400081700FE00121484AE4B22C20444302EB94
:103250000400817006E02300DBB200222521280053
:10326000FFF719FC29003000C0B2FFF774FB2900FA
:103270000020FFF7EAFA012070BD2DE9F0410C00B3
:103280002000FFF7BDFB05002800C0B2FF2822D1B7
:10329000434D21002888C0B2C000C0B2FFF75BFBDD
:1032A000002610E021003000C0B205EBC0003A005B
:1032B000D2B210448078FFF74EFB7F1C3800C0B2BA
:1032C0000828EFDB761C3000C0B2298880B2884223
:1032D00046D20027F2E7002000210CE00A00D2B21B
:1032E00006EBC202127912F007022B00DBB29A42FF
:1032F00000D1401C491C2A4E0A00D2B2338892B237
:103300009A42EBD32100C0B2C000C0B2FFF723FB4A
:10331000002711E021003800C0B206EBC000424691
:10332000D2B210448078FFF716FB18F1010840462E
:10333000C0B20828EEDB7F1C3800C0B2318880B2F2
:1033400088420DD23800C0B206EBC000007910F000
:1033500007002900C9B28842EDD15FF00008E6E716
:103360000120BDE8F081000068140020F007002073
:10337000880F002000F0010801000208FFFF01088B
:1033800060010008100200086021000808100140D8
:10339000171B00201410014010100140701700206E
:1033A000C417002080B500F003FE00F0C9FE00F055
:1033B0002FFF00F098FF01F024F801F01EF901F052
:1033C00036F901F059F900F057FE01BD80B572B62B
:1033D0004FF4407001F094F914208DF800000120A2
:1033E0008DF8010000208DF8020001208DF8030007
:1033F000684601F08AF913208DF8000001208DF84D
:10340000010000208DF8020001208DF803006846BD
:1034100001F07BF91F208DF8000000208DF80100DD
:1034200000208DF8020001208DF80300684601F0AD
:103430006CF911208DF8000000208DF801000020AB
:103440008DF8020001208DF80300684601F05DF957
:1034500023208DF8000001208DF8010000208DF858
:10346000020001208DF80300684601F04EF9252086
:103470008DF8000001208DF8010000208DF8020079
:1034800001208DF80300684601F03FF962B601F0B3
:10349000C6F901BD80B500F08BFD0020024908800F
:1034A00000200249088001BD34000040342C014056
:1034B00010B40022DFF83C351878AA2800D01A2270
:1034C0001879552800D01A2258780100C9B200296D
:1034D00003D00100C9B2402900DB1A220100DC78C8
:1034E000C9B2A14200D01A229978C9B2C9430300D7
:1034F000DBB2C9B28B4200D01A2292B2002A01D1AB
:10350000C0B200E0002010BC70470022DFF8E414D5
:103510000879552800D01A22C879552800D01A22D7
:1035200048790300DBB2042B00DB1A228979C9B287
:10353000C9430300DBB2C9B28B4200D01A2292B257
:10354000002A01D1C0B200E0002070470120DFF85E
:10355000A81408700020DFF8A41408700020DFF819
:10356000A0140870704770B50400DFF89054DFF8BD
:10357000906431782878081A0100C9B215290CDB4B
:1035800014380AE0012000F0B7FA31782878081AD8
:103590000100C9B2152900DB1438C0B20B28F1DADA
:1035A000200000F003F8C0B200B270BDF8B505000D
:1035B000012000F0F1FC0400DFF844241178491CDC
:1035C0000800C0B2142800DB0021DFF83034107886
:1035D0001E78B0420AD1DFF820040078002805D117
:1035E000200000F0D9FC5FF0FF303CE00C20DFF859
:1035F0001464177847433744D5F804C0C7F804C0AB
:10360000177847433744D5F808C0C7F808C017787B
:103610004743374495F802C087F802C02D881778D1
:1036200000FB07F0355211701578D5F114051878A4
:103630004519DFF8C413087800280ED00020087060
:10364000DFF8C403016851F001010160DFF8BC0339
:103650000068400101D500F042F9200000F09CFC18
:10366000EDB2280000B2F2BDDFF8A4030078704785
:1036700070B5DFF89C130978002911D0DFF8941396
:103680000968890709D40021018002218170812104
:1036900001710021417101203FE05FF0FF303CE00B
:1036A000DFF874432178002902D05FF0FF3034E066
:1036B0000C21DFF86853DFF868232B784B43D35A8B
:1036C00003802B784B4313449B7883702B784B43B8
:1036D00013445B6843602B7801FB03F11144896854
:1036E00081602E78761C3000C0B20B2800DB0026EB
:1036F000012000F051FC3100DFF828231278C9B214
:10370000914206D1012121702E7000F045FC00206D
:1037100003E02E7000F040FC012070BD38B54FF47E
:103720000072DFF804331A60DFF80043226832F0D9
:10373000F00230322260DFF8F822136833F4C0431D
:1037400013F5804313600022AC4B1A700022AC4B7F
:103750001A700122A84B1A700022B04B1A70002276
:10376000B04B1A700122AC4B1A700A00D2B2002A78
:1037700040D1AA20A6490870A6484FF40041016034
:1037800001680904FCD40821AA4A116022210160C1
:10379000002127E0A84A13680F2411F00700C0B2E7
:1037A00080008440A343022411F00700C0B28000CF
:1037B0008440E318136014E00800C0B20828E9DB75
:1037C0009E4A13680F2411F00700C0B280008440A5
:1037D000A343022411F00700C0B280008440E31824
:1037E0001360491C0800C0B21028E5DBFF20944993
:1037F000086029E00022864B1A70924A1170854AAF
:10380000012313608B4B1D68ED07FBD58E4DC0B2B5
:1038100055F820008D4D2860106850F004001060AD
:1038200010684008400010601868C007FCD4C9B296
:10383000080080B200F096F8022073490860206802
:1038400030F0F000B030206031BD4FF400707649A8
:1038500008607648016831F0F0013031016070474E
:1038600078480078704730B46E4A1178491C0800D7
:10387000C0B20B2800DB00211078684B1B789842FF
:1038800007D165480078002803D1202070490860DE
:1038900023E00C20624B6F4C2468640D157845437F
:1038A0005C53147844431C446B4D2D6815F00F0590
:1038B000A570147844431C44684D2D6865601478E5
:1038C00000FB04F01844664B1B6883602020604BAB
:1038D00018600020504B1870117030BC704730B425
:1038E0004549087800280AD0474801684908490036
:1038F00001604648016851F00101016030E0594A19
:103900000C233E483F4C05785D4325446D68956027
:1039100005785D432544AD68D56005785D43254451
:10392000AD785560057803FB05F3E35A5B055B1C36
:1039300013600278521C1300DBB2142B00DB002250
:1039400013002F4C2478DBB2A34208D101230B7063
:103950002D490B685B085B000B60027000E0027091
:1039600030BC7047404901220A60404A012313607D
:1039700013685B085B00136000223D4B1A60002255
:103980003C4B1A6080B2400110F178703A4A1060E6
:103990003A483B4A106001203A4A10600020086013
:1039A000704718B4194B1A6812F0E052B2F1E05F98
:1039B000F8D12C4AC0B2344C14EB00649460D1604E
:1039C000082050601F480078304911EB40511160C9
:1039D000186810F0E050B0F1E05FF9D100200090DD
:1039E00002E00098401C00900098B0F57A6FF8D380
:1039F00011BC7047F04F00201A1B0020181B00203C
:103A0000191B002088110020146400400864004045
:103A10001F1B0020006400401D1B00201B1B0020FA
:103A2000EC1400201C1B0020100C0140040C014071
:103A300004000140046400400018014004180140E3
:103A4000141801401E1B0020F8A100081C6400404F
:103A50000C640040B0650040B4650040B8650040AB
:103A6000BC65004080650040006600400466004080
:103A70000C66004014660040406600400000E0FF15
:103A8000446600401C6600401500800001000010E4
:103A900070B504000D0016001C220021200000F06B
:103AA000EBFE6560A660EFF3108072B60F492160EF
:103AB0000F49096800290BD00D49096889690C4A2A
:103AC000126894614C61A16109490968616103E070
:103AD00007490C606461A46106490968491C054AEC
:103AE000116080F31088002070BD00BF414D455328
:103AF000B81A0020BC1A002010B513490C68002C1D
:103B000003D012490968002901D013201AE00028C7
:103B100001D1002016E0EFF3108172B60422226377
:103B20000122A2630022C4F88420E06408480068EF
:103B3000401C074A106081F31088200000F0A6FEA8
:103B4000D4F8840010BD00BF981A00201C0000208B
:103B5000B01A0020002807D100207049086080209A
:103B60006F490860002016E06C4A6E4948401060BA
:103B700011686D4841406D48814209D16C48116817
:103B800001606C490160002065490860002002E086
:103B9000002010602C20704780B55FF0FF30664930
:103BA0000860664908606649086066490860FFF772
:103BB0004CFE654965480860002000E0401C642810
:103BC000FCD36348086001BD54490968002901D14C
:103BD000272016E0524902220A605E4A10600868F7
:103BE00050F0400008605C490800411E002803D0E6
:103BF0005A480068C007F7D4002901D10B2000E023
:103C000000207047FF205649087056490870002070
:103C1000554908600020704710B44F4B0122404CBA
:103C2000226001801A00531E002A03D04B4A1268FA
:103C3000D207F7D4002B01D1192006E0008889B201
:103C4000814201D1002000E0282010BC704780B5DF
:103C5000454A1068002809D0414800784149097850
:103C600011EB002189B21068FFF7D6FF002002BDDA
:103C70002DE9F04104000D000020284909680029C1
:103C800001D1272047E0384E316800290ED1610864
:103C9000490031603349FF220A70314B1A70326893
:103CA000A24201D10D7035E01D7033E0306861082B
:103CB0004900884214D13068A04202D129480570D9
:103CC00001E027480570264800782649097811EB5D
:103CD000002189B23068FFF79FFF0021316019E0B1
:103CE0001F4FDFF88080387898F8001011EB002122
:103CF00089B23068FFF790FFFF2188F80010397013
:103D00006108490031603168A14202D188F8005051
:103D100000E03D7080B2BDE8F08100008C1A002008
:103D20001020024055AF23505231C2AB7130A5EE86
:103D300004200240AB89EFCD80E100E084E100E0A7
:103D400080E200E084E200E00CED00E00400FA050F
:103D50000100FA051420024040420F000C200240EE
:103D6000271B0020281B0020881A0020F8B5060019
:103D70000C001500FFF746FF002701E0761C7F1CB2
:103D80003800210080B289B288420BD2380080B25C
:103D9000295C3000FFF76CFF010089B20029EDD0EB
:103DA00080B202E0FFF753FF0020F2BD80B50100B2
:103DB000EFF3108272B6C868002806D18868401CEC
:103DC000886082F31088002023E0036F984202D1BC
:103DD0000023CB600BE0036FCB60036FD0F874C09F
:103DE000C3F874C0436FD0F870C0C3F870C00B69DB
:103DF0005B1E0B610021816606490968491C054B61
:103E0000196082F310880021C0F8841000F0E2FDF0
:103E1000002002BDB01A002010B5EFF3108272B678
:103E20008368002B06D08168491E816082F3108868
:103E300000202FE000292AD0174B1C68174BA366DF
:103E4000E066C368002B0AD0C3682367C3685B6F52
:103E50006367C3685B6F1C67C3685C6702E0C4602C
:103E60002467646703695B1C0361062020630120EB
:103E7000A063E1640A480068401C0949086082F3B5
:103E80001088200000F002FDD4F8840002E082F3E4
:103E900010880D2010BD00BF981A00200D9F00084B
:103EA000B01A002080B572B6244825490860FFF793
:103EB000CCFC012000F026FE212000F0FDFE0028B1
:103EC000FAD0002000F02FFE5FF4803000F0FEFDFD
:103ED000312000F0F1FE0028FAD05FF480115FF489
:103EE000803000F013FE012000F019FE392000F0B0
:103EF000E3FE0028FAD04FF4404000F035FE0020E9
:103F000000F029FE4FF4806000F01DFE002000F05C
:103F100012FE022000F012FF002000F018FF102017
:103F200000F01FFF022000F0FEFD40F2FD100549E9
:103F300008605FF090500449086001BD002000084F
:103F400008ED00E0181002401C10024080B572B667
:103F50004FF4407000F0D4FB14208DF800000120D5
:103F60008DF8010000208DF8020001208DF803007B
:103F7000684600F0CAFB13208DF8000001208DF880
:103F8000010000208DF8020001208DF80300684632
:103F900000F0BBFB62B601BDEFF3108180F3108827
:103FA0000846704701480068704700BF981A002013
:103FB00038B5DFF8044700220121200000F048FF57
:103FC0000120ADF8000010208DF8030001208DF8CD
:103FD00002006946200000F0D1FEDFF8E056012221
:103FE0000821280000F034FF0820ADF80000102060
:103FF0008DF8030001208DF802006946280000F0CA
:10400000BDFE01221021280000F022FF1020ADF893
:10401000000010208DF8030001208DF80200694691
:10402000280000F0ABFE01224FF48041200000F098
:104030000FFF4FF48040ADF8000010208DF8030012
:1040400001208DF802006946200000F097FE002252
:104050004FF40041200000F0FBFE4FF40040ADF8AB
:10406000000010208DF8030001208DF80200694641
:10407000200000F083FE31BD30B587B001214FF440
:10408000804000F0E1FD00214FF4804000F0F8FD99
:1040900003208DF8020018208DF803004FF4007003
:1040A000ADF80000DFF814566946280000F066FEFF
:1040B00003208DF8020048208DF803004FF480643F
:1040C000ADF800406946280000F058FE4FF4165045
:1040D00003900020ADF810000020ADF81200002081
:1040E000ADF814000020ADF818000C20ADF8160053
:1040F000DFF8CC5503A9280000F0ECFE0020ADF855
:104100000400ADF806400020ADF808004FF48070C0
:10411000ADF80A0001A9280000F026FF012240F2B4
:104120002551280000F03DFF002240F227712800B1
:1041300000F037FF0121280000F025FF07B030BD57
:1041400010B586B001214FF4805000F07DFD0021B4
:104150004FF4805000F094FD03208DF802001820E9
:104160008DF803002020ADF80000DFF850456946C7
:10417000200000F003FE48208DF803004020ADF839
:1041800000006946200000F0F9FD03208DF80200D0
:1041900018208DF803008020ADF80000694620004B
:1041A00000F0ECFDDFF81C45200000F069FF002066
:1041B000ADF804004FF48270ADF806000020ADF8B1
:1041C00008000220ADF80A000120ADF80C004FF401
:1041D0000070ADF80E002020ADF810000020ADF802
:1041E00012000A20ADF8140001A9200000F07AFFA7
:1041F0000121200000F095FF00227121200000F035
:104200009EFF01226021200000F099FF06B010BD42
:1042100080B588B001208DF8020018208DF80300C9
:104220004FF40040ADF800006946DFF8900400F05C
:10423000A5FD0121DFF8900400F013FE0121DFF855
:104240008C0400F00EFE0121012000F00BFD002186
:10425000012000F023FD5FF0804000F08DFF4FF45F
:104260006150ADF818000020ADF814000020ADF842
:104270001A000020ADF8160005A95FF0804000F09C
:10428000E2FF6020ADF804000120ADF80600042034
:10429000ADF808000020ADF80A000220ADF80C00CF
:1042A0000820ADF80E000020ADF810000020ADF899
:1042B000120001A95FF0804000F0DEFF08215FF0EE
:1042C000804001F050F801215FF0804001F03AF8A1
:1042D00001215FF0804001F027F80020DFF8F013A3
:1042E000088009B000BD70B58CB001208DF80200C7
:1042F00018208DF803004FF48070ADF80000694677
:10430000DFF8B80300F03AFD48208DF803004FF4C1
:104310008054ADF80040DFF8A0536946280000F053
:104320002DFD01214FF4006000F08EFC00214FF4C0
:10433000006000F0A5FCDFF89C63300000F01CFF7B
:104340004FF43470ADF828000020ADF824000020B0
:10435000ADF82A000020ADF8260009A9300000F0D1
:1043600072FF6020ADF804000120ADF806000420C3
:10437000ADF808000020ADF80A000020ADF80C00F0
:104380000020ADF80E000020ADF810000020ADF8C0
:10439000120001A9300000F06FFF0020ADF82000EE
:1043A0000020ADF81E000020ADF814000020ADF88C
:1043B00016000020ADF818000020ADF81A00ADF886
:1043C0001C4005A9300000F09FFF0821300000F0DC
:1043D000CAFF0121300000F0B5FF0121300000F0DC
:1043E000A3FF0020BC49088001214FF4806000F049
:1043F000CFFF01224FF40041280000F029FD0CB04E
:1044000070BD30B591B001214FF4007000F01CFC7C
:1044100000214FF4007000F033FC0121012000F076
:1044200005FC00208DF803000720ADF80000694668
:10443000A24800F0A3FC00208DF803000220ADF894
:10444000000069469C4800F099FCA44C200000F054
:10445000B1FF0020019001208DF8080001208DF8A7
:1044600009005FF4602003900020049004208DF880
:10447000140001A9200000F0CDFF0121200000F070
:10448000EEFF200001F005F8200001F007F80028F9
:10449000FAD1200001F00BF8200001F00DF80028FF
:1044A000FAD1032301220021200001F01BF803238D
:1044B00002220121200001F015F80323032202212A
:1044C000200001F00FF8032304220921200001F04D
:1044D00009F80121200000F0CFFF814806908148B3
:1044E0000790002008902020099000200A9080204A
:1044F0000B904FF400700C904FF400600D90202052
:104500000E90002010904FF400500F90764D06A9A9
:10451000280001F055F80121280001F06DF8012173
:10452000200000F0D2FF11B030BD10B500220023F2
:10453000002408E06B482100C9B20901405800215D
:1045400012184B41641C2000C0B20828F2DBD208CC
:1045500042EA4372DB08100001F074F8634A644BCE
:1045600001F07EF801F052F910BD10B500220023D1
:1045700000240AE05B482100C9B2890000EB8100F9
:104580004068002112184B41641C2000C0B208286A
:10459000F0DBD20842EA4372DB08100001F052F867
:1045A000544A554B01F05CF801F030F910BD70B57C
:1045B00002000024002500230DE04A481900C9B27A
:1045C0001600F6B216EB810600EB8600806800212B
:1045D00024184D415B1C1800C0B20828EDDBE4082C
:1045E00044EA4574ED08200001F02CF8414A424BA2
:1045F00001F036F801F00AF970BD80B501215FF4D1
:10460000001000F02FFB00215FF4001000F046FBCB
:104610000121012000F00AFB01BD80B24FF434718A
:104620004843FA2190FBF1F02B490880704780B590
:10463000012000F0A1FA01214FF4807000F0A8FEE3
:1046400045F2555001F016F9002001F017F940F637
:10465000FF7001F017F901F01EF901BD80B501F0FE
:1046600015F901BDC0B24FF461514843FA2190FBE6
:10467000F1F017490880704780B50121402000F013
:10468000D5FA01BD80B58021124800F074FE02BD4C
:1046900010B51A4C0020208080210E4800F074FED6
:1046A0004FF41040208010BD80B500224FF48041AF
:1046B000014800F0CDFB01BD000C014000080140A5
:1046C00000380140003001400002300000011800B5
:1046D00034000040002C0140342C014000240140F3
:1046E0004C24014070150020080002406155BDFCBB
:1046F0004E93793FD52D9B366C26823F442C01404A
:104700001A4908431A4908607047002100210F2305
:10471000C17800291ED01649096811F4E061D1F56D
:10472000E061090AD1F10402CB40417811FA02F2AA
:1047300081780B401A4312010E490378CA540121B3
:10474000027812F01F0291400B4A0078401142F8A3
:10475000201009E00121027812F01F029140074A5F
:104760000078401142F82010704700000000FA0560
:104770000CED00E000E400E000E100E080E100E09A
:1047800010B5FFF76BFF3A4C2078401C2070207862
:1047900001280FD040D3032817D00FD3052823D0EA
:1047A0001CD3072828D022D309282BD027D30A28A6
:1047B0002BD031E0902001F0A9F92FE0902001F0FA
:1047C00068FE922001F0A2F928E0922001F061FE3B
:1047D000942001F09BF901F07BFE1FE0942001F092
:1047E00058FE01F06FFE19E001F043FF16E001F002
:1047F0004BFF01F0C4FB11E001F06FFB0EE001F094
:1048000002FC0BE001F0CBFC08E001F039FE01F006
:1048100072FE0020207001E00020207010BD80B5E5
:1048200001F044F8002817D0902001F052F90A2036
:10483000FFF762F9FFF712FF922001F04AF90A2010
:10484000FFF75AF9FFF70AFF942001F042F90A2016
:10485000FFF752F9FFF702FF01F010FA01F005FF30
:10486000002003490870034801F0FEFF01BD00006D
:10487000161B00204419002010B5040010000A0087
:104880000100200001F0FEFF200010BD10B5040063
:104890004848006884420AD1E06C002807D05FF0E5
:1048A000FF31884203D014F14C0002F01FF8EFF3FF
:1048B000108072B640490968491E3F4A1160A16BD9
:1048C000002964D00021A163E16A226AA2421AD0C1
:1048D000226A636A5362626A236A1362374A52F831
:1048E0002120A24253D1354A236A42F8213034496B
:1048F00009688C424BD133490968304A52F821107B
:104900002F4A116043E02D4A002342F821302E4AFD
:104910001268012313FA01F1C94311402A4A1160B8
:104920000021294A1268D3B2002B20D1120AD3B237
:104930000831002B1BD1120AD3B20831002B16D13B
:10494000120AD3B20831002B11D11E4920220A606D
:104950001B4900220A6080F310881C480068164931
:1049600009680843002823D102F002F820E0184A21
:104970009A5C5118134A1160114909688C4206D19A
:10498000104909680D4A52F821100D4A116080F350
:104990001088084800680A490968884208D00B480E
:1049A0000068054909680843002801D101F0E0FFCB
:1049B00010BD00BF981A0020B01A00207016002009
:1049C0009C1A0020AC1A0020A81A00201C0000200D
:1049D0008810002010B50400606E002804D014F187
:1049E0004C0001F0C7FF01E00020E064EFF310800D
:1049F00072B62F490968491E2D4A1160A16B002922
:104A00000AD0216B012940D0216B02293DD0002121
:104A1000A1630021216338E0216B002935D0616B4F
:104A2000002904D000216163032121632DE00021CE
:104A30002163E16A1F4A52F82120002A05D0516AF9
:104A40000C625462616222621FE01A4A42F82140FD
:104A500024626462184A126801238B401A43164B81
:104A60001A60164A1268002A04D1144A1460144AC3
:104A700011600AE0124B1B68994206D2104B196074
:104A8000D26B914201D20D490C6080F310880D4821
:104A900000680A490968884208D00B480068044940
:104AA00009680843002801D101F062FF10BD00BF72
:104AB000B01A002070160020A81A00209C1A0020AE
:104AC000AC1A0020981A00201C000020DFF82412E5
:104AD0000A6832F480320A600A6832F480220A607E
:104AE000B0F5803F03D0B0F5802F05D009E008680D
:104AF00050F48030086004E0086850F4A02008609A
:104B0000FFE77047C0B27D490860704700227A4BCA
:104B10001A6832F47C121043084318607047C0B220
:104B20007749086070470021734A11688908890035
:104B300008431060704700216F4A116831F0F0019E
:104B400008431060704700216B4A116831F4E0613E
:104B50000843106070470021674A116831F46051C2
:104B600051EAC001116070470021634A116831F4B5
:104B70004041084310607047C0B263490860704705
:104B800010B400210021002100215B4A116811F0BE
:104B90000C01002904D0042905D0082906D01EE004
:104BA0005A4901601DE05A4901601AE0136813F484
:104BB00070139B0C9B1C116811F48031002903D1E8
:104BC00054494B43036009E01168890303D55249F6
:104BD0004B43036002E04E494B43036001E04B4905
:104BE0000160116811F0F00109094C4B595C04682F
:104BF000CC404460116811F4E061090A595C4468D2
:104C0000CC408460116811F46051C90A595C436852
:104C1000CB40C360116811F44041890B404A515C9C
:104C2000C268B2FBF1F1016110BC7047C9B2002942
:104C300004D03C490A681043086004E039490A6816
:104C400032EA000008607047C9B2002904D0364932
:104C50000A681043086004E033490A6832EA000039
:104C600008607047C9B2002904D030490A6810436F
:104C7000086004E02D490A6832EA000008607047C5
:104C8000C9B2002904D02A490A681043086004E028
:104C900027490A6832EA000008607047C9B2002953
:104CA00004D024490A681043086004E021490A68D6
:104CB00032EA000008607047002100210021010055
:104CC000C9B24909C9B2012902D10A49096806E0F5
:104CD000022902D10B49096801E017490968C0B2ED
:104CE00010F01F00C140C80701D5012000E00020DE
:104CF000C0B270470010024004100240000042425F
:104D000060004242201002408004424200127A00B9
:104D1000001BB70000093D00808D5B0000000020F3
:104D20001000002014100240181002401C10024015
:104D30000C10024010100240241002400021DFF845
:104D40003820116811F03801084310607047DFF80F
:104D500028100A6832F008020A600A6810430860E6
:104D60007047DFF814100A6832F010020A600A680F
:104D7000104308607047000000200240F0B4002299
:104D800000220022002200220022CB7813F00F0321
:104D9000CA78D20601D58A7813430A78120620D041
:104DA000066800241AE0CA78482A16D1A74007618D
:104DB00013E0012717FA04F50A882A40AA420CD109
:104DC000A2000F259540AE4313FA02F232431600BB
:104DD000CA78282AE7D1A7404761641C082CE8D389
:104DE00006600A88B2F5807F26DB4668002420E052
:104DF000012714F1080517FA05F50A882A40AA4286
:104E000016D1A2000F259540AE4313FA02F23243A9
:104E10001600CA78282A04D114F1080217FA02F2FF
:104E20004261CA78482A03D114F108029740076109
:104E3000641C082CDCD34660F0BC704700228068FC
:104E400089B2084201D0012000E00020C0B27047C2
:104E5000D2B2002A02D089B2016101E089B2416177
:104E6000704770B40022002200220022184D2C68E6
:104E7000C0F3034382B210F44016B6F5401F07D1C9
:104E8000230033F070632C6834F070642C6013E0FE
:104E9000C60207D5032616FA03F334EA030353F0D8
:104EA000706309E003005B0DDBB21B0112FA03F330
:104EB00034EA030353F07063C9B2002905D0400DF2
:104EC000C0B2000182401A4313002B6070BC7047CF
:104ED0000400014078B585B004000D0000200020DA
:104EE0000020002000202600218A4CF6FF7001409F
:104EF000E88801432182A1894EF6F3100140A88879
:104F000001432889014368890143A181A18A4FF6A1
:104F1000FF400140A8890143A1826846FFF730FEA7
:104F20001048864201D1039900E0029919204143BB
:104F300028688000B1FBF0F26420B2FBF0F10901B7
:104F40000B001B097FF0630000FB032210013230CD
:104F50006422B0FBF2F010F00F000143218106B093
:104F600070BD0000003801400022038A4FF2FF02AA
:104F700013400A8813434A8813438A881343C98815
:104F80000B4303827047C9B2002904D0818951F4D0
:104F90000051818104E082894DF6FF710A408281CF
:104FA000704710B400230023002300230B00DBB262
:104FB0005B09DBB289B211F01F01012414FA01F17F
:104FC000012B01D10C3004E0022B01D1103000E0A4
:104FD0001430D2B2002A03D002681143016003E00A
:104FE000026832EA0101016010BC7047C905C90DB1
:104FF000818070478088C005C00D704710B40022C2
:105000000022002200220B00DBB25B09DBB20A00A7
:1050100092B212F01F02012414FA02F2012B02D103
:1050200083891A4006E0022B02D1038A1A4001E06C
:10503000838A1A4089B2090A89B214FA01F10088F8
:105040000140002A03D0002901D0012000E0002007
:10505000C0B210BC70470EE00268436802440830DA
:105060005FEAC37C44BF4B445B1E52F804CB43F859
:1050700004CB091FF9D150F8041B0029ECD170476B
:1050800080B51549884210D01449884218D0144977
:10509000884220D101214FF48050FFF7F1FD00211B
:1050A0004FF48050FFF7ECFD15E001214FF48040F4
:1050B000FFF7F4FD00214FF48040FFF7EFFD0AE019
:1050C00001214FF40040FFF7E9FD00214FF40040BB
:1050D000FFF7E4FDFFE701BD00380040003C004061
:1050E0000030014010B40022038813F441530C88AF
:1050F0004A8814438A881443CA8814430A8914438B
:105100004A8914438A891443CA8914432343038078
:10511000838B4FF2FF7213408383098A018210BC94
:105120007047C9B2002904D0018851F040010180C4
:1051300004E002884FF6BF710A40028070470023E6
:105140000023C9B20909C9B2012313FA01F1D2B28D
:10515000002A03D082881143818003E0828832EAEA
:1051600001018180704700220089084201D001209E
:1051700000E00020C0B2704780B5B0F1804F20D071
:105180005A49884226D05A4988422CD059498842E7
:1051900032D05949884238D0584988423ED058497F
:1051A000884203D05749884241D04BE001214FF457
:1051B0000060FFF765FD00214FF40060FFF760FD20
:1051C00040E001210120FFF769FD00210120FFF7E8
:1051D00065FD37E001210220FFF760FD002102207C
:1051E000FFF75CFD2EE001210420FFF757FD0021B1
:1051F0000420FFF753FD25E001210820FFF74EFDB5
:1052000000210820FFF74AFD1CE001211020FFF7D4
:1052100045FD00211020FFF741FD13E00121202072
:10522000FFF73CFD00212020FFF738FD0AE00121B7
:105230004FF40050FFF724FD00214FF40050FFF71A
:105240001FFDFFE701BD028812F08F020280038874
:10525000CA8813434A88134303808A8882850A8850
:105260000285274A904202D0264A904201D1097A0B
:10527000018601218182704730B400220022002281
:10528000038C4FF6FE7213400384058C8388048BD5
:105290004FF68F7214400A8814434FF6FD72154082
:1052A0000A8915434A881543CA888286144A90425F
:1052B00002D0144A904213D14FF6F77215404A8932
:1052C00015434FF6FB7215408A88154347F6FF6277
:1052D000134047F6FF5213408A891343C9890B4391
:1052E00083800483058430BC7047000000040040C4
:1052F00000080040000C0040001000400014004076
:10530000002C0140003401400B884A8813438A88EE
:105310001343CA8813430A8913434A89134389896B
:105320000B43A0F844307047C9B2002904D001886B
:1053300051F00101018004E0028840F2FE310A4090
:1053400002807047C9B2002906D0B0F8441051F469
:105350000041A0F8441005E0B0F844104904490C9D
:10536000A0F8441070470022038B4FF6F7721340E9
:105370001943018370470022008A084201D00120AE
:1053800000E00020C0B2704789B2C9430182704773
:10539000C9B2002904D006490A681043086004E035
:1053A00003490A6832EA0000086070470000000004
:1053B000042004E080B5DFF8F411884208D0DFF85B
:1053C000F01188420FD0DFF8EC11884216D020E0AF
:1053D00001214FF40070FFF753FC00214FF40070DF
:1053E000FFF74EFC15E001214FF48060FFF748FC09
:1053F00000214FF48060FFF743FC0AE001214FF4E5
:105400000040FFF73DFC00214FF40040FFF738FC5F
:10541000FFE701BD10B4002200234468DFF89821A3
:1054200014400A6814430A7954EA022444608468E8
:10543000DFF888211440CA6814438A6814434A7903
:1054400054EA42048460C26A32F47002097C491E44
:105450000B43DBB252EA0352C26210BC7047C9B2BE
:10546000002904D0816851F00101816003E0816866
:105470004908490081607047C9B2002904D0816899
:1054800051F48071816003E0816831F48071816042
:105490007047816851F00801816070470021806881
:1054A000000701D5012000E00020C0B270478168EC
:1054B00051F004018160704700218068400701D5E8
:1054C000012000E00020C0B27047C9B2002904D01A
:1054D000816851F4A001816003E0816831F4A0018A
:1054E00081607047F0B4002400240C00E4B20A2C60
:1054F00011DBC5680727B1F10A060324664317FAD2
:1055000006F6B543DBB2B1F10A0603246643B340A5
:105510002B43C3600EE004690726032505FB01F554
:1055200016FA05F5AC43DBB2032505FB01F5AB40EC
:10553000234303611300DBB2072B0FDA446B1F26F2
:10554000551E05235D4316FA05F5AC43C9B2531E3B
:105550000522534399402143416324E01300DBB209
:105560000D2B0FDA046B1F26D51F05235D4316FA9A
:1055700005F5AC43C9B2D31F0522534399402143DB
:10558000016310E0C46A1F26B2F10D0505235D43D7
:1055900016FA05F5AC43C9B2B2F10D030522534327
:1055A00099402143C162F0BC7047000000240140D3
:1055B00000280140003C0140FFFEF0FFFDF7F1FF35
:1055C000002203686FF30E138A6813430A6A1343B9
:1055D0000A6913434A6913438A691343CA69134327
:1055E0004A6A13438A6A13430360CA6842600A68BE
:1055F00082604968C1607047C9B2002904D001685F
:1056000051F00101016003E00168490849000160AF
:105610007047D2B2002A03D002681143016003E050
:10562000026832EA010101607047C10002D50449F5
:10563000086001E001490860704700000400024072
:105640000404024050B1B0FA80F18840C91CC1F591
:105650008461090501EBD021400570470146704780
:1056600030B540F2FF7C1CEA11541DBF1CEA1355F3
:10567000644565453FE0641981EA030C6FF35F53AD
:105680000CF0004C43F48013C90241F0004141EAA0
:10569000505EC5021100A5FB020200284FF0000079
:1056A000EEFB01204FF00001E3FB052118BF42F0A3
:1056B0000102401800214941E3FB0E01A4F580647A
:1056C0000D0302D292184041494154F1010470DDAA
:1056D000450872F1004250F1000051EB0451A1F570
:1056E000801102D441EA0C0130BD40F2FF7E4CEA49
:1056F0000E51002030BD0CEA1355644518BF6545B6
:1057000081EA030C0CF0004C41D050EA410E1CBF62
:1057100052EA430E02E06146002030BD24422C4490
:105720001BD15FEA050EF6D0090302BF0146002037
:10573000AEF1140EB1FA81F5AEEB050401FA05FEE7
:105740000C35C5F1200100FA05F5C8404EEA000EFF
:105750006FF35F5343F480139CE733F00043B3FAD5
:1057600083F504BFB2FA82FE75440B3D641BB5F1AC
:10577000200E2FBF02FA0EF3AB40C5F1200E22FA25
:105780000EFE38BF43EA0E03AA40641C7CE750EAD1
:10579000410E14BF52EA430E6FF000014FF40015A2
:1057A00015EB430F8EBF194615EB410F9DE7B4D89B
:1057B00030BDD4F10104B4F120050FDAC4F12005A5
:1057C000520828BF42F0010210FA05FE01FA05F561
:1057D0007244E2BFE0402843E1400FE0352C9ADC00
:1057E000C5F1200452EA400220FA05F218BF42F047
:1057F000010231FA05F0A1400A43002172F1004292
:1058000050F1000051EB0C0130BD000001F00042EE
:105810008B1AA3F16051B1F5801F0ADBB1F17F6FE4
:105820001FD242EAC102C10071F1004142EB507047
:1058300070470B15C3F10903212B10D2890241EAED
:10584000905180020128494141F0004121FA03F0C2
:10585000C3F12003994071F100415041704710009D
:1058600070476FF0000013EB103F5CBF000E42EA80
:10587000C050704780B20A4908607047C0B20949F9
:105880000860704780B20849086070474AF6AA204D
:105890000349086070474CF6CC40014908607047E6
:1058A00000300040043000400830004070B590B037
:1058B0000124DFF894530021280001F011F9C020E1
:1058C000ADF8000014208DF8030001208DF80200CF
:1058D000DFF8786369463000FFF750FA8021300026
:1058E00089B201614021300089B201616420FEF774
:1058F00003F94021300089B241616420FEF7FCF8D1
:105900008021300089B201614021300089B20161FB
:105910000A20FEF7F1F880213000FFF78FFA002807
:1059200000D1002440213000FFF788FA002800D180
:1059300000248020ADF8000069463000FFF71EFA11
:105940008021300089B241610A20FEF7D5F880211C
:105950003000FFF773FA012800D100244020ADF891
:10596000000069463000FFF709FA4021300089B293
:1059700041610A20FEF7C0F840213000FFF75EFACF
:10598000012800D100248020ADF8000069463000D5
:10599000FFF7F4F98021300089B201610A20FEF797
:1059A000ABF880213000FFF749FA002800D100242D
:1059B0004020ADF8000069463000FFF7DFF94021D4
:1059C000300089B201610A20FEF796F840213000CC
:1059D000FFF734FA002800D10024C020ADF8000001
:1059E0001C208DF8030001208DF80200694630006C
:1059F000FFF7C4F9288850F400402880288890F4E4
:105A000000402880280000F0DFFF4FF48060ADF8F0
:105A100036004FF48040ADF8380042F210700F901D
:105A20004BF6FF70ADF832000020ADF830000020DA
:105A3000ADF834000CA9280000F0E5FF01224FF476
:105A40000071280001F092F80121280001F048F8C7
:105A50000121280001F052F800200490102003904A
:105A600000200B907A480290002008908020069039
:105A700000200990774D01950020079000200590A7
:105A80004FF400560A9601A97348FFF799FD0020CC
:105A900004900020039000200B907048029000209A
:105AA0000890802006900020099001950020079022
:105AB000002005900A966A4D01A92800FFF780FD95
:105AC000012202212800FFF7A4FD2000C0B210B07F
:105AD00070BD80B5634908705D48012101700021E7
:105AE00041702021817001205F49087000205F49CA
:105AF00008700321584889B241600121584889B291
:105B000041600121504801F015F801BD80B55549AB
:105B1000087000204E490870504800210170002193
:105B2000417001205049087000205049087001213F
:105B3000494889B241600221494889B24160012146
:105B4000414800F0F7FF01BD80B5444908784FF4A3
:105B50008072497802FB001001F058F800225FF0D3
:105B60007E53FFF77DFDFFF751FE02BD70B5364C49
:105B70003F49200001F022F8012811D13A4800786D
:105B8000002806D0002237480178200000F0FAFFF4
:105B900047E0012233480178200000F0F3FF40E0A5
:105BA0003449200000F0F9FF012808D12E48007880
:105BB000002836D001212848FFF71EFD31E02E4D88
:105BC0002900200000F0FAFF00282AD0264E307865
:105BD000002826D025480078002810D05FF00070FB
:105BE000FFF723FD0121200000F0B2FF00211A4839
:105BF000FFF702FD00211A48FFF7FEFC11E001212A
:105C00001748FFF7F9FC0121200000F085FF012172
:105C1000200000F08FFF002030702900200000F0ED
:105C2000EEFF70BD80B55FF00070FFF7FEFC012154
:105C3000054800F08DFF00210748FFF7DDFC00213B
:105C40000748FFF7D9FC01BD00540040000C01409B
:105C5000801A0020105400406C000240101B0020ED
:105C600080000240221B0020201B0020211B00205E
:105C700001000010820007000400001038B5002069
:105C8000DFF8E8180872DFF8E848002084F83400EC
:105C9000002084F87E00002084F87F00DFF8D4081C
:105CA000A060E0602061206060600021A161E0618F
:105CB00020620020606200200090002340F2013248
:105CC000642114F1380000F0B2FF0020009000239E
:105CD00040F20232052114F1420000F0A8FF00203A
:105CE0000090002340F20332642114F14C0000F0D4
:105CF0009EFF0020009000234FF44172052114F113
:105D0000560000F094FF00200090002340F205327E
:105D1000052114F1600000F08AFF40F206350020F2
:105D2000009000232A00052114F16A0000F07FFF93
:105D30000020009000232A00642114F1740000F078
:105D400076FF00F008F80022DFF82C18DFF82C08A6
:105D5000FDF79EFE31BD70B5DFF824480A202070A3
:105D600028206070DFF81C086060DFF81C08A06065
:105D70005FF080456068290000F098FFA16801F09D
:105D800001F806006068290000F090FF0100300073
:105D900001F0B0F8E06061685FF0404000F086FF1D
:105DA000A16800F0EFFF06006068290000F07EFFA8
:105DB0000100300001F09EF8206170BD80B5DFF871
:105DC000B017DFF8B0270A604A60CA610A62002291
:105DD0008A62002281F83420020092B2002A05D1A2
:105DE000002081F87E000020C88603E0FF2281F8B1
:105DF0007E20C886002081F87F000121DFF87C0723
:105E000001F004F901BDDFF86807704780B5DFF8DD
:105E10005C2701681160406850601068DFF8501717
:105E2000096801F031F905D001201072012100202C
:105E300000F0B6FC01BDF0B587B00C000025DFF81E
:105E40002C270168116040685060DFF824671068F3
:105E5000316801F019F935D001201072DFF81C7794
:105E600003A8019006A8009004AB02AA05A9380077
:105E700001F018F90DE001213800FDF7CDFF03A86E
:105E8000019006A8009004AB02AA05A9380001F011
:105E900009F902980028EED15FF0FF313800FDF7D4
:105EA000BBFFF08E002801D0F58E03E00121002019
:105EB00000F076FCB0682060706A0521B0FBF1F05C
:105EC000606003E0B068206000206060002086F819
:105ED0003400280080B207B0F0BD38B5DFF88C463A
:105EE000207A00284AD0DFF8885600206862012016
:105EF00085F87E00012085F834000020E886A86837
:105F0000686000F018FB00F0A5FBFEF7C1FB2068FD
:105F1000296801F0B9F827D0206828606068DFF8A8
:105F20006C1600F0E7FFA8616068DFF8641601F006
:105F3000DDF80CD2A868296801F0D8F803D2032054
:105F400085F87F0018E0042085F87F0014E0A86839
:105F5000296801F0CBF803D2012085F87F000BE01F
:105F6000022085F87F0007E0052085F87F000121E9
:105F7000DFF8080601F04AF80020207231BD70B544
:105F80000024DFF8EC657069DFF8001601F0AEF868
:105F900005D37069DFF8FC1501F0BCF80ED816F1D6
:105FA0006A0596F834000100C9B2280000F055FED9
:105FB00004002800C088C046050003E016F16A000E
:105FC00000F046FE7069DFF8D01501F0A3F80ED896
:105FD00016F1740596F834000100C9B2280000F0EB
:105FE0003CFE04002800C088C046050003E016F10E
:105FF000740000F02DFEE4B2002C03D0280080B223
:10600000FFF7DCFE70BD70B50024DFF86455E96869
:10601000286900F0B7FE01F091F800225FF080439C
:1060200001F0B0F8FFF7F2FBA86095F87E000128B8
:1060300040F0AD80DFF85415E86801F057F80DD353
:10604000286901F053F809D3DFF84815E86801F032
:1060500061F803D9286901F05DF80ED815F1420600
:1060600095F834000100C9B2300000F0F6FD0400DC
:106070003000C088C046060003E015F1420000F081
:10608000E7FDE868296900F0EDFE01F057F831F00E
:1060900000410122DFF8043501F098F90ED815F11E
:1060A0004C0695F834000100C9B2300000F0D5FD6F
:1060B00004003000C088C046060003E015F14C0023
:1060C00000F0C6FD2000C0B2002824D195F87F0062
:1060D000012803D095F87F0005281CD1E869A9683C
:1060E00001F004F804D3A868296A00F0FFFF0ED27B
:1060F00015F1380695F834000100C9B2300000F0FF
:10610000ACFD04003000C088C046060003E015F175
:10611000380000F09DFD2000C0B2002837D1FEF706
:10612000B1FA002810D015F1600695F8340001008E
:10613000C9B2300000F091FD04003000C088C046B4
:106140000600FEF7A5FA22E015F1600000F080FDE0
:10615000A86ADFF84C1400F0DDFF18D8E86A5FF099
:106160007C5100F0C3FF0ED215F1560695F83400AD
:106170000100C9B2300000F070FD04003000C0889A
:10618000C046060003E015F1560000F061FDE4B2E0
:10619000002C03D0300080B2FFF710FE70BD70B548
:1061A000DFF8CC63F168306900F0ECFD5FF080410E
:1061B00000F0A0FEB06096F87E00012840F0068155
:1061C00096F87F0000280AD0022873D008D304284C
:1061D00000F0AF8038D3052800F0E080F3E0F2E073
:1061E0007068316800F082FF04D27168B06900F015
:1061F000C9FD7060706800F0A1FF0022DFF8A433D1
:1062000001F0FEF8FFF702FBF061706800F096FF06
:106210000022DFF8943301F0F3F8FFF7F7FA306269
:10622000B068316800F076FF0AD8306870600520E9
:1062300086F87F000121DFF8440300F0E7FE02E06A
:10624000706A401C7062BEE030687060706800F078
:1062500075FF0022DFF84C3301F0D2F8FFF7D6FAD1
:10626000F061706800F06AFF0022CF4B01F0C8F8BF
:10627000FFF7CCFA3062306800F060FF0022CB4BB1
:1062800001F0BEF802000B0014001D00B06800F021
:1062900055FF22002B0001F099F807D8052086F859
:1062A0007F000121B54800F0B1FE02E0706A401C99
:1062B000706288E03068716800F018FF04D270687E
:1062C000B16900F0CFFD7060B06800F037FF0022C8
:1062D000B44B01F095F8FFF799FAF061B06800F05F
:1062E0002DFF0022B04B01F08BF8FFF78FFA3062E0
:1062F000B06800F023FF02000B0014001D0030689E
:1063000000F01CFF0022A54B01F07AF822002B00C0
:1063100001F05CF809D830687060052086F87F00CD
:106320000121964800F072FE02E0706A401C706223
:1063300049E030687060706800F000FF0022994BFF
:1063400001F05EF8FFF762FAF061706800F0F6FEA7
:106350000022954B01F054F8FFF758FA3062B0680C
:1063600000F0ECFE02000B0014001D00306800F08D
:10637000E5FE0022894B01F043F822002B0001F0DA
:1063800025F807D8052086F87F0001217B4800F01A
:106390003DFE02E0706A401C706214E0306800F05C
:1063A000CDFE00227D4B01F02BF8FFF72FFAF061B4
:1063B000306800F0C3FE00227C4B01F021F8FFF7AB
:1063C00025FA3062FFE700F004F801E00020B06237
:1063D00070BD2DE9F047664C6068A16800F042FD91
:1063E0000500A76ADFF8C8812800414600F092FE48
:1063F00001D8644D05E06F49280000F077FE00D217
:106400000D005F4E707801F023F98146F068290095
:1064100000F04CFC8246B169306900F047FC5146FF
:1064200000F0B0FC494600F041FC716900F0AAFCA4
:10643000A062DFF88491A06A494600F057FE0CD2B2
:10644000A06A390000F00EFD414600F063FE04D85A
:106450004C48390000F096FCA062A06A574900F051
:1064600059FE01D8C4F82890A06A002100F03EFE31
:1064700001D20020A062B561A06A7061BDE8F0871A
:1064800080B53B48806A01F0F1F880B2FEF7C5F8AC
:1064900001BD80B5C0B2902804D0922807D09428BE
:1064A0000AD00EE0FFF750FB3149C86009E0FFF762
:1064B0004BFB2F49086104E0FFF746FB2C4948617C
:1064C000FFE701BD80B5FEF730F82949C86201BD7C
:1064D00080B5FEF74AF82649086301BD10B5244C83
:1064E00094F87E10012905D0C0B2FEF7BBF8022057
:1064F00084F87E0010BD80B51D4A92F87E00012808
:1065000003D13C20FEF7AEF814E092F87E0000289C
:1065100010D150692A4900F0FDFD03D87D20FEF717
:10652000A1F807E05069274900F0E0FD02D2002001
:10653000FEF798F801BD10B50D4C14F1380000F0CD
:1065400087FB14F1420000F083FB14F1560000F0C9
:106550007FFB14F1600000F07BFB14F16A0000F097
:1065600077FB14F1740000F073FB10BD441A002097
:10657000F01500200000C841D0A10008A819002093
:106580008C19002000002041CDCC4C3E0000A040E2
:106590006F12833A01005C4301008C420000084006
:1065A000010048420000244000003EC0000008C036
:1065B00001002041000020C1000075430100754327
:1065C0000100704200004842A3487047A34870474A
:1065D00080B5C0B2002803D002280DD006D311E048
:1065E0009E480161202000F0CBF80BE09B48416100
:1065F000402000F0C5F805E098488161602000F077
:10660000BFF8FFE701BD3EB50A0000210FE00B0017
:10661000DBB2C35C914C0D00EDB263550B00DBB2F5
:10662000C35C6C460D00EDB22C442371491C0B0079
:10663000DBB20A2BEBDB8948C2606946100000F030
:1066400091F80E226946002001F024F80A20FDF797
:1066500053FA37BD80B502200090002340F20512A6
:106660000A217F4800F0E3FA01BD80B5FFF7F2FF91
:1066700001BD10B5784C0020FDF799FF2060012086
:10668000FDF795FF606010BD38B5002472480068C2
:10669000744900F02BFD07D20021714800F0DDFAAB
:1066A000040040F2051502E06D4800F0D1FAE4B2B2
:1066B000002C03D0280080B2FFF780FB31BD18B555
:1066C00085B00521002203AC200000F0DBF8042295
:1066D0006946202001F051F8002805D1684600F0F5
:1066E00031F85E49086102E000205C49086104223B
:1066F0006946402001F041F8002805D1684600F0C5
:1067000021F85649486102E00020544948610422BA
:106710006946602001F031F8002805D1684600F094
:1067200011F84E4988610BE001208DF80C0002221F
:1067300003A940F20310FCF744FA0020474988619E
:1067400006B010BD010000200878491C0A7810EB43
:106750000220491C0A7810EB0240491C097810EB12
:10676000016070470870491C0200120A0A70491C37
:106770000200120C0A70491C000E0870481C704779
:106780001FB5040008006946FFF7ECFF04226946C4
:10679000200080B200F07EFF0A20FDF7ADF91FBD9A
:1067A00080B5C0B2002802D001280CD017E02B48D9
:1067B0000269521C0261C9B2002903D0016920207C
:1067C000FFF7DEFF0BE025484269521C4261C9B267
:1067D000002903D041694020FFF7D2FFFFE701BD48
:1067E00018B585B0052100226C46200000F04AF85B
:1067F0000E2202A9002000F0C0FF002813D1174C80
:1068000002A8FFF79FFFE06000200100C9B20A293B
:1068100020DA02A90200D2B2114409790200D2B2F0
:10682000A154401CF1E701208DF8000002226946C6
:106830004FF48170FCF7C5F908490020C8600020BA
:1068400004E030220300DBB2CA54401C0200D2B282
:10685000082AF6DB06B010BD781A0020E0190020E7
:10686000501A00200000A04180B5016A002902D121
:106870008168002901D1172003E0083000F036F8C4
:10688000002002BD62F30F2262F31F42401810F095
:10689000030308D0C91A1FD3DB0748BF00F8012D36
:1068A00028BF20F8022D130030B4144615461039C5
:1068B00028BF20E93C00FAD8490728BF20E90C008E
:1068C00048BF40F8042D890028BF20F8022D48BF9A
:1068D00000F8012D30BC7047C91818BF00F8012D11
:1068E000CB0728BF00F8012D70470000EFF310819F
:1068F00072B60268002A30D002685FF0FF339A4215
:106900002BD08269002A28D10268212A01D31F22B4
:1069100001E00268521E134B1B6813EB8202124BFC
:106920001B689A4207D3104B1B68D21A92100F4B68
:106930001B6813EB82021368002B0AD013680361F3
:1069400013685B6943614369186113685861826128
:1069500003E0006140618261106081F310880020D3
:10696000704700BFFC1A0020F81A0020F41A00201B
:1069700000DF7047EFF3108172B68269002A1ED0E3
:106980000269904209D182691268824202D1826909
:10699000002313600022826111E0026943695361A0
:1069A00042690369136182691268824205D10269F2
:1069B000836993618269036913600022826181F3B4
:1069C000108800207047000080B54049884203D0FD
:1069D0003F4988420BD015E001215FF40010FEF71B
:1069E0005DF900215FF40010FEF758F90AE001217B
:1069F0005FF48000FEF752F900215FF48000FEF79B
:106A00004DF9FFE701BD78B585B004000D00002009
:106A1000002004202F48A6884FF6C0700640684624
:106A2000FEF7AEF8029B2C48B3FBF0F10E43A680B4
:106A300022884FF6FE70024022800022E868274E2E
:106A4000B0420CD2E8684000B3FBF0F003009BB208
:106A5000042B00DA04200243491C218422E06888C8
:106A60004BF6FF76B04205D1EE6803204643B3FBF8
:106A7000F6F006E0EE6819204643B3FBF6F050F45A
:106A80008040030501D150F00100024352F400425E
:106A900089B24FF4967041434FF47A7091FBF0F055
:106AA000401C2084A283208850F00100208021888F
:106AB0004FF6F53001402A88E888024311432180CF
:106AC0002989A8880143218106B070BD0054004087
:106AD0000058004000127A0040420F00A1860100D9
:106AE000C9B2002904D0018851F00101018004E0FD
:106AF00002884FF6FE710A4002807047C9B2002931
:106B000004D0818851F40061818004E082884FF2D2
:106B1000FF710A4082807047C9B2002904D0818881
:106B200051F48051818004E082884EF6FF710A4062
:106B300082807047C9B2002904D0018851F4807165
:106B4000018004E002884FF6FF610A40028070472E
:106B5000C9B2002904D0018851F40071018004E019
:106B600002884FF6FF510A4002807047D2B2002AD5
:106B700003D082881143818003E0828832EA0101D8
:106B800081807047D2B2002A02D051F0010101E0A9
:106B900011F0FE01C9B201827047002200220022DA
:106BA0000022828A008B0004024322F07F428A4244
:106BB00001D1012000E00020C0B2704782B0002265
:106BC000002201920022009200900800000F019024
:106BD00021F07F410198002803D0009814300090E4
:106BE00003E0090C009818300090009800680842F3
:106BF00001D0012000E00020C0B202B070470022A6
:106C000021F07F41C94381827047000010F00041AC
:106C100060B148BF4042B0FA80F29040D21CC2F549
:106C2000846241EA025202EBD021400570472DE90F
:106C3000F04105000E0017009846069C280000F061
:106C400007F86E80EF8085F808806C72BDE8F081EF
:106C500000210180002101717047FEB504000E0083
:106C60000025052100226F463800FFF70BFE207932
:106C7000002817D12088401C208020886188884205
:106C800010D3E08800F00AFE012020710125F6B241
:106C9000002E07D1207A8DF80000627A6946E088DC
:106CA000FBF78FFF2800C0B2FEBD0000FF2212EAF2
:106CB000D05C1DBF12EAD153944593422BE09C4413
:106CC000D30780EA010243EA002043EA01211A4087
:106CD000A1FB0030C04238BF00187CF17F010BDB04
:106CE000FE294ADA5B0842EAC15153EA006373F1B4
:106CF000004C51EB10207047D1F1080CDCF1200161
:106D00002FDB5B0810FA01F10B4320FA0CF073F152
:106D100000415041704794451CBF02EAD153934251
:106D200080EA010202F000421DD0400019D0490063
:106D300017D05BB9634514D00902B1FA81F39940C9
:106D4000BCEB030CC00140F00040C1E70002B0FA08
:106D500080FC10FA0CF0B3EB0C0CC90141F00041BF
:106D6000B6E71000704740000AD0490008D010F183
:106D7000807F94BF11F1807F02E042F0FF407047B6
:106D8000D043704790EA010F40F1728081F00041DA
:106D9000431A4FF000423EBF5340C01AC918D309EE
:106DA0005FEAD05C13EB400F34BFB3EB410F40E020
:106DB0007CEBD1530CD342EA012122D8D1EB402005
:106DC00009D3400A28BF5FEA500140EBCC5070471E
:106DD000401A15D04002B0FA80F2521C9040400A8E
:106DE0004FEA3C23B3EB026384BF00EB730007E080
:106DF00040F400001A16DB07C2F10102D04018432C
:106E00007047182BFCDC31FA03F202FA03F3591A2B
:106E100038BF42F00102D2EB40203CBF0018ACF179
:106E2000010C5FEACC5CC20572F100414CEB5020D2
:106E3000704713EB400F0FD2C94209D0ACEBD153CE
:106E4000022B03DB4902172BDDDD70479143401A0B
:106E5000C042D5D10020704713EB410FD0D36FF063
:106E60000000704790EA010F7FF592AF81F000417A
:106E7000421A3CBF801A8918C0F3C752FF2A4FF04C
:106E8000004C22D0C1F3C7534BB3D21AD2F119032D
:106E90002EDD4CEA01214CFA03F321EA0303D14031
:106EA0004CEA00226FF3160052180FD353EAC25374
:106EB0004CEA520273EB0C0C50EB1220420012F120
:106EC000807F38BF70476FF31600704753EA026344
:106ED00022EA0C0273EB0C0C50EB122070474902B3
:106EE00012BF9A4200EB5120EFE7D2F11703D2D53F
:106EF000704700004FF0FF0C1CEAD0531DBF1CEA86
:106F0000D1526345624543E09B1A5FEACC7280EA46
:106F1000010C42EA01211CEA020C42EA0020421A5A
:106F200038BF01EB420253F17E034FEA1121B2FB5D
:106F3000F1F001FB102260F3D63C4FEA0222B2FBD3
:106F4000F1F001FB102260F3CE1C4FEA0222B2FBEB
:106F5000F1F006DDFF2B29DA5CEA500040EBC3506C
:106F60007047C3F1020301FB1022192B40EA4C01C8
:106F70000CF0004C41F0807121DC21FA03F0C3F1E8
:106F800020039940114371F1004250EB0C0070470F
:106F900063451ABF0CEAD152624512E080EA010C47
:106FA00000180CF0004C06D049181AD10CF0004C17
:106FB0004CF0FF407047C94208BF6FEA020C6046C0
:106FC0007047634506D1B2EB0C02F5D001F00041E9
:106FD000484070474A0212BF0846484000F000404F
:106FE00070474AB90902B1FA81F2914043B19B1846
:106FF000C00140F0004092E7C90141F00041524217
:107000000002B0FA80F39840D31A88E780B50A00EE
:10701000EFF3108372B6C16800290DD181689142E7
:1070200003D383F3108821202BE08168491C816001
:1070300083F31088002024E00A6F914202D10022DD
:10704000C2600BE00A6FC2600A6FD1F874C0C2F868
:1070500074C04A6FD1F870C0C2F870C00269521E85
:1070600002610020886607480068401C054A1060DD
:1070700083F310880020C1F884000800FDF7AAFC03
:10708000002002BDB01A0020884204D040EA010C62
:107090001CEB0C0F70474FEA400C1CF1807F98BF2F
:1070A0008042704738B5DDF810C0DDF814E0EFF32A
:1070B000108472B6002901D045680D60002A01D005
:1070C00081681160002B01D0C1681960BCF1000F0C
:1070D00002D00169CCF80010BEF1000F02D0406967
:1070E000CEF8000084F31088002032BD40EA010C85
:1070F0001CEB0C0F4FF0807C07D305D01CEB400F2E
:107100009CBF1CEB410F814270471CEB410F98BFA5
:107110008842704740EA010C1CEB0C0F4FF0807C5A
:1071200007D305D01CEB400F9CBF1CEB410F8842DE
:1071300070471CEB400F98BF81427047C0F3C751A6
:1071400081B1FF2906D0C110400721F0E04101F1D3
:107150006051704741020CBF40F4E0016FF0004104
:107160000020704700F0004100020AD0B0FA80FC15
:1071700000FA0CF001F16051A1EB0C5101EBD021B0
:1071800040057047F0B540F2FF7581EA030C0CF042
:10719000004C15EA11541DBF15EA1357AC42AF421B
:1071A000E5E0BC41C1F31301C3F31303801A994115
:1071B00043F4801304D2641E0018494180185941D9
:1071C000C90241EA5051B1FBF3F603FB1611A2FBD1
:1071D0000675D7EBC020A94102D2761E801859410E
:1071E000C90241EA5051B1FBF3FE03FB1E11A2FBA1
:1071F0000E75D7EBC020A94103D2AEF1010E801865
:107200005941890241EA9051760546EA8E2EB1FB3A
:10721000F3F603FB1611A2FB0675D7EB8020A941FC
:1072200002D2761E80185941C90241EA50514EEAF5
:10723000060EB1FBF3F603FB1611A2FB0675D7EBA6
:10724000C020A94102D2761E80185941C90241EAE4
:107250005051B1FBF3F703FB1711A2FB0735D3EB3A
:10726000C020A94167F100070CBF004247F00107A9
:1072700066F3D5274FEA1E31B80814F5806412DD95
:10728000BD0775F1004250EB0E5051EB045111F562
:10729000801F5CBF41EA0C01F0BD4CF07F6141F002
:1072A000E0410020F0BDBD076D0840EA0E5041F4FA
:1072B0008011D4F10104B4F120060ADAC4F12006E9
:1072C0000200E04001FA06F3E1401843B2401543E2
:1072D0000EE0342C13DCC6F1200445EA40056D08AD
:1072E00020FA06F2154321FA06F0A1400D430021D1
:1072F00075F1004250F1000051EB0C01F0BD00208F
:107300005FEA0C01F0BDCFB992185B41B3FA83F785
:1073100004BFB2FA82F6BF190B3FB7F120062FBFA8
:1073200002FA06F3BB40C7F1200622FA06F638BF80
:107330003343BA401CB1E419641E33E77F4231F095
:107340000041B1FA81F404BFB0FA80F6A4190B3CF5
:10735000B4F120062FBF00FA06F1A140C4F12006C7
:1073600020FA06F638BF3143A0403C1B1AE7AC4276
:107370001ABF05EA1357AF4212E050EA41061CBF9C
:1073800052EA4306BFE750EA4107304661461CBF58
:1073900041EA0551F0BD52EA430C08BFC143F0BDBC
:1073A00000204FF4001616EB410F98BF16EB430F69
:1073B00008BF16EB410F24BFC14305E016EB430F96
:1073C0000CBF61464CEA0551F0BD000041EA030CD8
:1073D00050EA4C0C52EA0C0C4FF4001C09D307D0B5
:1073E0001CEB410F9CBF1CEB430F994208BF90421E
:1073F00070471CEB410FFBD88B4208BF824270479D
:1074000070B491EA030F4FF0004540F1B7806B4034
:10741000841A71EB030604D26E40001BB1411219AD
:1074200073414FF4001C1CEB410F34BF7CEB43064F
:1074300083E00C0DA4EB1356362E00F37C80012E56
:1074400045EAC32341DC43EA525312BFD2029202FF
:107450005B08240545EAC12141EA5051D2EBC02026
:10746000994125D407D1B0FA80F610FA06F162D01E
:107470000020203608E0B1FA81F6B140C6F12002C2
:1074800020FA02F21143B0404FEAF474B4EB4654D0
:1074900034F001064FEA74040AD8D6F50016760DCA
:1074A00004F00044F04061FA06F25040F1404840D8
:1074B000C00A40EA415021F0004128BF5FEA500570
:1074C00050F1000044EBD12135E0DB0A45EAC1214F
:1074D000C90AB6F120050EDD42EA0242120CC5F1DE
:1074E000200603FA06F6EB4042EA06056D42984193
:1074F00061F100010DE062FA06F5F240554063FAD1
:1075000006FC82EA0C02F3405A406D42904161EB66
:10751000030111F4801F05D1641E620502D06D00C5
:107520004041494121F48011430875F1004350F175
:10753000000041EB045170BC70471CEB410F15D2A9
:1075400023F0004352EA43060BD04FEA4C0CBCEB4D
:10755000410F04D80C0D661E342EB7DDEBE7801A00
:10756000994150EA410608BF0021E4E708BF1CEB3F
:10757000430F28BF6FF00001DDE70000841A71EBB4
:10758000030603D2001BB141121973414FF4001CD2
:107590001CEB410F34BF7CEB430442E00C0DA4EB29
:1075A0001356352E4FDC45EAC323DB0A45EAC121D9
:1075B000C912B6F120050DDD63FA05F6EB4086EA47
:1075C0000305124218BF45F00105C01851F1000132
:1075D0000CD213E062FA06F5F2405540F3415A40EE
:1075E000B340F3405A408018594107D349085FEA35
:1075F00030005FEA350528BF45F0010501F580112F
:10760000420875F1004250F1000041EB04514E0078
:1076100016F5001F70BC38BF70470020090D090522
:1076200070471CEB410F10D252EA43060BD0BCEB63
:10763000410F05D80C0DAB43661E342EB6DD02E0BB
:10764000AB438018594170BC704770BC7047000054
:1076500050B1B0FA80F18840C1F19D01C905020620
:1076600072F1004241EB102070470000C0F3C75197
:10767000D1F19E0108DD020242F00042CA4002EB55
:10768000E07282EAE07070477FEAE07080F00040CC
:10769000704700002DE9F04180460E00140000F014
:1076A0000AF9614D06202870012085F840005F4FDF
:1076B000002208213800FDF7CBFB280000F007F975
:1076C00000F05CF90028FBD0002208213800FDF70B
:1076D000BFFB02202870404680B2000A687085F81F
:1076E000028000F05BF95FF000080DE04046C0B298
:1076F000305C4146C9B22944C8704046C0B2305CD3
:1077000000F050F918F1010840462100C0B2C9B29A
:107710008842EBD300F04AF90100090E4246D2B28A
:107720002A44D17018F101080100090C4246D2B276
:107730002A44D17018F101080100090A4246D2B268
:107740002A44D17018F101084146C9B22944C870D1
:1077500018F10108E41D85F8404000220821380096
:10776000FDF776FB280000F0B2F800F007F90028DA
:10777000FBD000F0A7F8BDE8F081F8B50E001400CA
:10778000294D03212970010089B2090A6970A87086
:10779000E01D85F84000002208212448FDF758FB31
:1077A000280000F094F800F0E9F80028FBD000F081
:1077B000F5F800270FE03800C0B2284490F8230005
:1077C0003900C9B270543800C0B2284490F8230080
:1077D00000F0E8F87F1C38002100C0B2C9B288422E
:1077E000E9D3E41C00F0E2F82100C9B2294491F881
:1077F00020102200D2B22A4492F82120120412EB67
:1078000001622100C9B2294491F8221012EB012231
:10781000E4B205EB040191F823108A18904201D0DC
:10782000012000E00020F2BD0818002000080140FF
:107830001C49088800281CD04FF48072801A18D088
:10784000C01E16D0801E14D04FF4FE72801A12D0C3
:10785000401E12D0401E12D0401E01280BD9801E9F
:1078600013D0401E13D0FA3801280AD9801E0AD03E
:107870000FE000200EE002200CE001200AE01420BE
:1078800008E0052006E0062004E0122002E01120B6
:1078900000E0002000220A80C0B270470149088041
:1078A00070470000121B002080B501223549364880
:1078B000FCF7EEF801BD80B55FF0FF313248FCF710
:1078C000ABFA01BD80B53048FCF770FA01BD10B5C8
:1078D00001002E4C2000432200F070F8002084F8B4
:1078E0004100002084F8420094F84100205C2849BF
:1078F000088010BD38B5274D01212800FDF733FC65
:10790000002829D028008089C046204C94F84110D6
:10791000214481F8200094F84100401C84F8410083
:1079200094F8410094F84010884207D294F841003E
:10793000215C89B228008181C0460DE0164D0122EC
:1079400010212800FDF784FA012208212800FDF704
:107950007FFA012084F8420031BD0C4991F82120C2
:1079600091F82200000410EB026091F8232010EB44
:10797000022091F824100818C1177047034890F8A6
:107980004200704708A20008FC19002008180020D7
:107990000C30014000300140000801400120054941
:1079A000086070470449086008687047024800682A
:1079B00070470000083002400030024062B38B077D
:1079C00008D0521E11F8013B00F8013B00F0248062
:1079D0008B07F6D1830740F0208000BF103A07D311
:1079E00030B4B1E83810103AA0E83810F9D230BC01
:1079F000530724BFB1E80810A0E8081044BF51F8AD
:107A0000043B40F8043BD20724BF31F8022B20F896
:107A1000022B44BF0B7803707047121F17D35B0013
:107A200009D151F8043B20F8023B1B0C121F20F82F
:107A3000023BF6D20BE051F8043B00F8013B1B0A75
:107A400020F8023B1B0C121F00F8013BF3D238BF99
:107A5000121D521E24BF11F8013B00F8013BF8D85B
:107A60007047000080B5DFF834050078002822D088
:107A7000012823D0022824D0032825D0042826D08A
:107A8000052827D0062828D0072829D008282AD05A
:107A900009282BD00E282CD013282DD014282ED016
:107AA00016282FD0192830D01A2831D01F2832D0CC
:107AB000212833D035E000F0A2F832E000F055FA8A
:107AC0002FE000F00AFA2CE000F0B0F829E000F016
:107AD000D5F826E000F031F923E000F002F920E0CB
:107AE00000F0DCF91DE000F091F81AE000F0D7F8A2
:107AF00017E000F0B1F914E000F0BAF911E000F07D
:107B0000C1F90EE000F06EF90BE000F0D9F808E0E2
:107B100000F0D0F905E000F035F902E000F043F89C
